{
	"school-registery/register.sol": {
		"SchoolRegister": {
			"abi": [
				{
					"inputs": [],
					"name": "getAllStudentRecord",
					"outputs": [
						{
							"components": [
								{
									"internalType": "string",
									"name": "name",
									"type": "string"
								},
								{
									"internalType": "uint256",
									"name": "id",
									"type": "uint256"
								},
								{
									"internalType": "uint256",
									"name": "class",
									"type": "uint256"
								}
							],
							"internalType": "struct SchoolRegister.Register[]",
							"name": "",
							"type": "tuple[]"
						}
					],
					"stateMutability": "view",
					"type": "function"
				},
				{
					"inputs": [
						{
							"internalType": "uint256",
							"name": "_class",
							"type": "uint256"
						}
					],
					"name": "getStudentByClass",
					"outputs": [
						{
							"components": [
								{
									"internalType": "string",
									"name": "name",
									"type": "string"
								},
								{
									"internalType": "uint256",
									"name": "id",
									"type": "uint256"
								},
								{
									"internalType": "uint256",
									"name": "class",
									"type": "uint256"
								}
							],
							"internalType": "struct SchoolRegister.Register[]",
							"name": "",
							"type": "tuple[]"
						}
					],
					"stateMutability": "view",
					"type": "function"
				},
				{
					"inputs": [
						{
							"internalType": "uint256",
							"name": "_id",
							"type": "uint256"
						}
					],
					"name": "getstudentRecordById",
					"outputs": [
						{
							"components": [
								{
									"internalType": "string",
									"name": "name",
									"type": "string"
								},
								{
									"internalType": "uint256",
									"name": "id",
									"type": "uint256"
								},
								{
									"internalType": "uint256",
									"name": "class",
									"type": "uint256"
								}
							],
							"internalType": "struct SchoolRegister.Register",
							"name": "",
							"type": "tuple"
						}
					],
					"stateMutability": "view",
					"type": "function"
				},
				{
					"inputs": [
						{
							"internalType": "string",
							"name": "_name",
							"type": "string"
						},
						{
							"internalType": "uint256",
							"name": "_id",
							"type": "uint256"
						},
						{
							"internalType": "uint256",
							"name": "_class",
							"type": "uint256"
						}
					],
					"name": "registerStudent",
					"outputs": [],
					"stateMutability": "nonpayable",
					"type": "function"
				}
			],
			"devdoc": {
				"kind": "dev",
				"methods": {},
				"version": 1
			},
			"evm": {
				"assembly": "    /* \"school-registery/register.sol\":57:1816  contract SchoolRegister {... */\n  mstore(0x40, 0x80)\n  callvalue\n  dup1\n  iszero\n  tag_1\n  jumpi\n  0x00\n  dup1\n  revert\ntag_1:\n  pop\n  dataSize(sub_0)\n  dup1\n  dataOffset(sub_0)\n  0x00\n  codecopy\n  0x00\n  return\nstop\n\nsub_0: assembly {\n        /* \"school-registery/register.sol\":57:1816  contract SchoolRegister {... */\n      mstore(0x40, 0x80)\n      callvalue\n      dup1\n      iszero\n      tag_1\n      jumpi\n      0x00\n      dup1\n      revert\n    tag_1:\n      pop\n      jumpi(tag_2, lt(calldatasize, 0x04))\n      shr(0xe0, calldataload(0x00))\n      dup1\n      0x30bf31db\n      eq\n      tag_3\n      jumpi\n      dup1\n      0x34de6dd7\n      eq\n      tag_4\n      jumpi\n      dup1\n      0x701bc86e\n      eq\n      tag_5\n      jumpi\n      dup1\n      0x8f747a7e\n      eq\n      tag_6\n      jumpi\n    tag_2:\n      0x00\n      dup1\n      revert\n        /* \"school-registery/register.sol\":237:630  function registerStudent(... */\n    tag_3:\n      tag_7\n      0x04\n      dup1\n      calldatasize\n      sub\n      dup2\n      add\n      swap1\n      tag_8\n      swap2\n      swap1\n      tag_9\n      jump\t// in\n    tag_8:\n      tag_10\n      jump\t// in\n    tag_7:\n      stop\n        /* \"school-registery/register.sol\":1105:1814  function getStudentByClass(uint256 _class)... */\n    tag_4:\n      tag_11\n      0x04\n      dup1\n      calldatasize\n      sub\n      dup2\n      add\n      swap1\n      tag_12\n      swap2\n      swap1\n      tag_13\n      jump\t// in\n    tag_12:\n      tag_14\n      jump\t// in\n    tag_11:\n      mload(0x40)\n      tag_15\n      swap2\n      swap1\n      tag_16\n      jump\t// in\n    tag_15:\n      mload(0x40)\n      dup1\n      swap2\n      sub\n      swap1\n      return\n        /* \"school-registery/register.sol\":761:1099  function getstudentRecordById(uint256 _id)... */\n    tag_5:\n      tag_17\n      0x04\n      dup1\n      calldatasize\n      sub\n      dup2\n      add\n      swap1\n      tag_18\n      swap2\n      swap1\n      tag_13\n      jump\t// in\n    tag_18:\n      tag_19\n      jump\t// in\n    tag_17:\n      mload(0x40)\n      tag_20\n      swap2\n      swap1\n      tag_21\n      jump\t// in\n    tag_20:\n      mload(0x40)\n      dup1\n      swap2\n      sub\n      swap1\n      return\n        /* \"school-registery/register.sol\":636:755  function getAllStudentRecord() public view returns (Register[] memory) {... */\n    tag_6:\n      tag_22\n      tag_23\n      jump\t// in\n    tag_22:\n      mload(0x40)\n      tag_24\n      swap2\n      swap1\n      tag_16\n      jump\t// in\n    tag_24:\n      mload(0x40)\n      dup1\n      swap2\n      sub\n      swap1\n      return\n        /* \"school-registery/register.sol\":237:630  function registerStudent(... */\n    tag_10:\n        /* \"school-registery/register.sol\":447:474  Register memory studentinfo */\n      0x00\n        /* \"school-registery/register.sol\":477:570  Register({... */\n      mload(0x40)\n      dup1\n      0x60\n      add\n      0x40\n      mstore\n      dup1\n        /* \"school-registery/register.sol\":506:511  _name */\n      dup7\n      dup7\n        /* \"school-registery/register.sol\":477:570  Register({... */\n      dup1\n      dup1\n      0x1f\n      add\n      0x20\n      dup1\n      swap2\n      div\n      mul\n      0x20\n      add\n      mload(0x40)\n      swap1\n      dup2\n      add\n      0x40\n      mstore\n      dup1\n      swap4\n      swap3\n      swap2\n      swap1\n      dup2\n      dup2\n      mstore\n      0x20\n      add\n      dup4\n      dup4\n      dup1\n      dup3\n      dup5\n      calldatacopy\n      0x00\n      dup2\n      dup5\n      add\n      mstore\n      not(0x1f)\n      0x1f\n      dup3\n      add\n      and\n      swap1\n      pop\n      dup1\n      dup4\n      add\n      swap3\n      pop\n      pop\n      pop\n      pop\n      pop\n      pop\n      pop\n      dup2\n      mstore\n      0x20\n      add\n        /* \"school-registery/register.sol\":529:532  _id */\n      dup5\n        /* \"school-registery/register.sol\":477:570  Register({... */\n      dup2\n      mstore\n      0x20\n      add\n        /* \"school-registery/register.sol\":553:559  _class */\n      dup4\n        /* \"school-registery/register.sol\":477:570  Register({... */\n      dup2\n      mstore\n      pop\n        /* \"school-registery/register.sol\":447:570  Register memory studentinfo = Register({... */\n      swap1\n      pop\n        /* \"school-registery/register.sol\":581:593  schoolrecord */\n      0x00\n        /* \"school-registery/register.sol\":581:605  schoolrecord[msg.sender] */\n      dup1\n        /* \"school-registery/register.sol\":594:604  msg.sender */\n      caller\n        /* \"school-registery/register.sol\":581:605  schoolrecord[msg.sender] */\n      0xffffffffffffffffffffffffffffffffffffffff\n      and\n      0xffffffffffffffffffffffffffffffffffffffff\n      and\n      dup2\n      mstore\n      0x20\n      add\n      swap1\n      dup2\n      mstore\n      0x20\n      add\n      0x00\n      keccak256\n        /* \"school-registery/register.sol\":611:622  studentinfo */\n      dup2\n        /* \"school-registery/register.sol\":581:623  schoolrecord[msg.sender].push(studentinfo) */\n      swap1\n      dup1\n      0x01\n      dup2\n      sload\n      add\n      dup1\n      dup3\n      sstore\n      dup1\n      swap2\n      pop\n      pop\n      0x01\n      swap1\n      sub\n      swap1\n      0x00\n      mstore\n      keccak256(0x00, 0x20)\n      swap1\n      0x03\n      mul\n      add\n      0x00\n      swap1\n      swap2\n      swap1\n      swap2\n      swap1\n      swap2\n      pop\n      0x00\n      dup3\n      add\n      mload\n      dup2\n      0x00\n      add\n      swap1\n      dup2\n      tag_27\n      swap2\n      swap1\n      tag_28\n      jump\t// in\n    tag_27:\n      pop\n      0x20\n      dup3\n      add\n      mload\n      dup2\n      0x01\n      add\n      sstore\n      0x40\n      dup3\n      add\n      mload\n      dup2\n      0x02\n      add\n      sstore\n      pop\n      pop\n        /* \"school-registery/register.sol\":351:630  {... */\n      pop\n        /* \"school-registery/register.sol\":237:630  function registerStudent(... */\n      pop\n      pop\n      pop\n      pop\n      jump\t// out\n        /* \"school-registery/register.sol\":1105:1814  function getStudentByClass(uint256 _class)... */\n    tag_14:\n        /* \"school-registery/register.sol\":1186:1203  Register[] memory */\n      0x60\n        /* \"school-registery/register.sol\":1219:1244  Register[] memory records */\n      0x00\n        /* \"school-registery/register.sol\":1247:1259  schoolrecord */\n      dup1\n        /* \"school-registery/register.sol\":1247:1271  schoolrecord[msg.sender] */\n      0x00\n        /* \"school-registery/register.sol\":1260:1270  msg.sender */\n      caller\n        /* \"school-registery/register.sol\":1247:1271  schoolrecord[msg.sender] */\n      0xffffffffffffffffffffffffffffffffffffffff\n      and\n      0xffffffffffffffffffffffffffffffffffffffff\n      and\n      dup2\n      mstore\n      0x20\n      add\n      swap1\n      dup2\n      mstore\n      0x20\n      add\n      0x00\n      keccak256\n        /* \"school-registery/register.sol\":1219:1271  Register[] memory records = schoolrecord[msg.sender] */\n      dup1\n      sload\n      dup1\n      0x20\n      mul\n      0x20\n      add\n      mload(0x40)\n      swap1\n      dup2\n      add\n      0x40\n      mstore\n      dup1\n      swap3\n      swap2\n      swap1\n      dup2\n      dup2\n      mstore\n      0x20\n      add\n      0x00\n      swap1\n    tag_30:\n      dup3\n      dup3\n      lt\n      iszero\n      tag_31\n      jumpi\n      dup4\n      dup3\n      swap1\n      0x00\n      mstore\n      keccak256(0x00, 0x20)\n      swap1\n      0x03\n      mul\n      add\n      mload(0x40)\n      dup1\n      0x60\n      add\n      0x40\n      mstore\n      swap1\n      dup2\n      0x00\n      dup3\n      add\n      dup1\n      sload\n      tag_33\n      swap1\n      tag_34\n      jump\t// in\n    tag_33:\n      dup1\n      0x1f\n      add\n      0x20\n      dup1\n      swap2\n      div\n      mul\n      0x20\n      add\n      mload(0x40)\n      swap1\n      dup2\n      add\n      0x40\n      mstore\n      dup1\n      swap3\n      swap2\n      swap1\n      dup2\n      dup2\n      mstore\n      0x20\n      add\n      dup3\n      dup1\n      sload\n      tag_35\n      swap1\n      tag_34\n      jump\t// in\n    tag_35:\n      dup1\n      iszero\n      tag_36\n      jumpi\n      dup1\n      0x1f\n      lt\n      tag_37\n      jumpi\n      0x0100\n      dup1\n      dup4\n      sload\n      div\n      mul\n      dup4\n      mstore\n      swap2\n      0x20\n      add\n      swap2\n      jump(tag_36)\n    tag_37:\n      dup3\n      add\n      swap2\n      swap1\n      0x00\n      mstore\n      keccak256(0x00, 0x20)\n      swap1\n    tag_38:\n      dup2\n      sload\n      dup2\n      mstore\n      swap1\n      0x01\n      add\n      swap1\n      0x20\n      add\n      dup1\n      dup4\n      gt\n      tag_38\n      jumpi\n      dup3\n      swap1\n      sub\n      0x1f\n      and\n      dup3\n      add\n      swap2\n    tag_36:\n      pop\n      pop\n      pop\n      pop\n      pop\n      dup2\n      mstore\n      0x20\n      add\n      0x01\n      dup3\n      add\n      sload\n      dup2\n      mstore\n      0x20\n      add\n      0x02\n      dup3\n      add\n      sload\n      dup2\n      mstore\n      pop\n      pop\n      dup2\n      mstore\n      0x20\n      add\n      swap1\n      0x01\n      add\n      swap1\n      jump(tag_30)\n    tag_31:\n      pop\n      pop\n      pop\n      pop\n      swap1\n      pop\n        /* \"school-registery/register.sol\":1282:1304  uint256 newRecordCount */\n      0x00\n        /* \"school-registery/register.sol\":1324:1333  uint256 i */\n      dup1\n        /* \"school-registery/register.sol\":1319:1469  for (uint256 i = 0; i < records.length; i++) {... */\n    tag_39:\n        /* \"school-registery/register.sol\":1343:1350  records */\n      dup3\n        /* \"school-registery/register.sol\":1343:1357  records.length */\n      mload\n        /* \"school-registery/register.sol\":1339:1340  i */\n      dup2\n        /* \"school-registery/register.sol\":1339:1357  i < records.length */\n      lt\n        /* \"school-registery/register.sol\":1319:1469  for (uint256 i = 0; i < records.length; i++) {... */\n      iszero\n      tag_40\n      jumpi\n        /* \"school-registery/register.sol\":1402:1408  _class */\n      dup5\n        /* \"school-registery/register.sol\":1382:1389  records */\n      dup4\n        /* \"school-registery/register.sol\":1390:1391  i */\n      dup3\n        /* \"school-registery/register.sol\":1382:1392  records[i] */\n      dup2\n      mload\n      dup2\n      lt\n      tag_42\n      jumpi\n      tag_43\n      tag_44\n      jump\t// in\n    tag_43:\n    tag_42:\n      0x20\n      mul\n      0x20\n      add\n      add\n      mload\n        /* \"school-registery/register.sol\":1382:1398  records[i].class */\n      0x40\n      add\n      mload\n        /* \"school-registery/register.sol\":1382:1408  records[i].class == _class */\n      sub\n        /* \"school-registery/register.sol\":1378:1459  if (records[i].class == _class) {... */\n      tag_45\n      jumpi\n        /* \"school-registery/register.sol\":1428:1444  newRecordCount++ */\n      dup2\n      dup1\n      tag_46\n      swap1\n      tag_47\n      jump\t// in\n    tag_46:\n      swap3\n      pop\n      pop\n        /* \"school-registery/register.sol\":1378:1459  if (records[i].class == _class) {... */\n    tag_45:\n        /* \"school-registery/register.sol\":1359:1362  i++ */\n      dup1\n      dup1\n      0x01\n      add\n      swap2\n      pop\n      pop\n        /* \"school-registery/register.sol\":1319:1469  for (uint256 i = 0; i < records.length; i++) {... */\n      jump(tag_39)\n    tag_40:\n      pop\n        /* \"school-registery/register.sol\":1479:1511  Register[] memory matchedStudent */\n      0x00\n        /* \"school-registery/register.sol\":1529:1543  newRecordCount */\n      dup2\n        /* \"school-registery/register.sol\":1514:1544  new Register[](newRecordCount) */\n      0xffffffffffffffff\n      dup2\n      gt\n      iszero\n      tag_48\n      jumpi\n      tag_49\n      tag_50\n      jump\t// in\n    tag_49:\n    tag_48:\n      mload(0x40)\n      swap1\n      dup1\n      dup3\n      mstore\n      dup1\n      0x20\n      mul\n      0x20\n      add\n      dup3\n      add\n      0x40\n      mstore\n      dup1\n      iszero\n      tag_51\n      jumpi\n      dup2\n      0x20\n      add\n    tag_52:\n      tag_53\n      tag_54\n      jump\t// in\n    tag_53:\n      dup2\n      mstore\n      0x20\n      add\n      swap1\n      0x01\n      swap1\n      sub\n      swap1\n      dup2\n      tag_52\n      jumpi\n      swap1\n      pop\n    tag_51:\n      pop\n        /* \"school-registery/register.sol\":1479:1544  Register[] memory matchedStudent = new Register[](newRecordCount) */\n      swap1\n      pop\n        /* \"school-registery/register.sol\":1555:1568  uint256 index */\n      0x00\n        /* \"school-registery/register.sol\":1588:1597  uint256 j */\n      dup1\n        /* \"school-registery/register.sol\":1583:1776  for (uint256 j = 0; j < records.length; j++) {... */\n    tag_55:\n        /* \"school-registery/register.sol\":1607:1614  records */\n      dup5\n        /* \"school-registery/register.sol\":1607:1621  records.length */\n      mload\n        /* \"school-registery/register.sol\":1603:1604  j */\n      dup2\n        /* \"school-registery/register.sol\":1603:1621  j < records.length */\n      lt\n        /* \"school-registery/register.sol\":1583:1776  for (uint256 j = 0; j < records.length; j++) {... */\n      iszero\n      tag_56\n      jumpi\n        /* \"school-registery/register.sol\":1666:1672  _class */\n      dup7\n        /* \"school-registery/register.sol\":1646:1653  records */\n      dup6\n        /* \"school-registery/register.sol\":1654:1655  j */\n      dup3\n        /* \"school-registery/register.sol\":1646:1656  records[j] */\n      dup2\n      mload\n      dup2\n      lt\n      tag_58\n      jumpi\n      tag_59\n      tag_44\n      jump\t// in\n    tag_59:\n    tag_58:\n      0x20\n      mul\n      0x20\n      add\n      add\n      mload\n        /* \"school-registery/register.sol\":1646:1662  records[j].class */\n      0x40\n      add\n      mload\n        /* \"school-registery/register.sol\":1646:1672  records[j].class == _class */\n      sub\n        /* \"school-registery/register.sol\":1642:1766  if (records[j].class == _class) {... */\n      tag_60\n      jumpi\n        /* \"school-registery/register.sol\":1716:1723  records */\n      dup5\n        /* \"school-registery/register.sol\":1724:1725  j */\n      dup2\n        /* \"school-registery/register.sol\":1716:1726  records[j] */\n      dup2\n      mload\n      dup2\n      lt\n      tag_61\n      jumpi\n      tag_62\n      tag_44\n      jump\t// in\n    tag_62:\n    tag_61:\n      0x20\n      mul\n      0x20\n      add\n      add\n      mload\n        /* \"school-registery/register.sol\":1692:1706  matchedStudent */\n      dup4\n        /* \"school-registery/register.sol\":1707:1712  index */\n      dup4\n        /* \"school-registery/register.sol\":1692:1713  matchedStudent[index] */\n      dup2\n      mload\n      dup2\n      lt\n      tag_63\n      jumpi\n      tag_64\n      tag_44\n      jump\t// in\n    tag_64:\n    tag_63:\n      0x20\n      mul\n      0x20\n      add\n      add\n        /* \"school-registery/register.sol\":1692:1726  matchedStudent[index] = records[j] */\n      dup2\n      swap1\n      mstore\n      pop\n        /* \"school-registery/register.sol\":1744:1751  index++ */\n      dup2\n      dup1\n      tag_65\n      swap1\n      tag_47\n      jump\t// in\n    tag_65:\n      swap3\n      pop\n      pop\n        /* \"school-registery/register.sol\":1642:1766  if (records[j].class == _class) {... */\n    tag_60:\n        /* \"school-registery/register.sol\":1623:1626  j++ */\n      dup1\n      dup1\n      0x01\n      add\n      swap2\n      pop\n      pop\n        /* \"school-registery/register.sol\":1583:1776  for (uint256 j = 0; j < records.length; j++) {... */\n      jump(tag_55)\n    tag_56:\n      pop\n        /* \"school-registery/register.sol\":1793:1807  matchedStudent */\n      dup2\n        /* \"school-registery/register.sol\":1786:1807  return matchedStudent */\n      swap5\n      pop\n      pop\n      pop\n      pop\n      pop\n        /* \"school-registery/register.sol\":1105:1814  function getStudentByClass(uint256 _class)... */\n      swap2\n      swap1\n      pop\n      jump\t// out\n        /* \"school-registery/register.sol\":761:1099  function getstudentRecordById(uint256 _id)... */\n    tag_19:\n        /* \"school-registery/register.sol\":849:864  Register memory */\n      tag_66\n      tag_54\n      jump\t// in\n    tag_66:\n        /* \"school-registery/register.sol\":880:905  Register[] memory records */\n      0x00\n        /* \"school-registery/register.sol\":908:920  schoolrecord */\n      dup1\n        /* \"school-registery/register.sol\":908:932  schoolrecord[msg.sender] */\n      0x00\n        /* \"school-registery/register.sol\":921:931  msg.sender */\n      caller\n        /* \"school-registery/register.sol\":908:932  schoolrecord[msg.sender] */\n      0xffffffffffffffffffffffffffffffffffffffff\n      and\n      0xffffffffffffffffffffffffffffffffffffffff\n      and\n      dup2\n      mstore\n      0x20\n      add\n      swap1\n      dup2\n      mstore\n      0x20\n      add\n      0x00\n      keccak256\n        /* \"school-registery/register.sol\":880:932  Register[] memory records = schoolrecord[msg.sender] */\n      dup1\n      sload\n      dup1\n      0x20\n      mul\n      0x20\n      add\n      mload(0x40)\n      swap1\n      dup2\n      add\n      0x40\n      mstore\n      dup1\n      swap3\n      swap2\n      swap1\n      dup2\n      dup2\n      mstore\n      0x20\n      add\n      0x00\n      swap1\n    tag_68:\n      dup3\n      dup3\n      lt\n      iszero\n      tag_69\n      jumpi\n      dup4\n      dup3\n      swap1\n      0x00\n      mstore\n      keccak256(0x00, 0x20)\n      swap1\n      0x03\n      mul\n      add\n      mload(0x40)\n      dup1\n      0x60\n      add\n      0x40\n      mstore\n      swap1\n      dup2\n      0x00\n      dup3\n      add\n      dup1\n      sload\n      tag_71\n      swap1\n      tag_34\n      jump\t// in\n    tag_71:\n      dup1\n      0x1f\n      add\n      0x20\n      dup1\n      swap2\n      div\n      mul\n      0x20\n      add\n      mload(0x40)\n      swap1\n      dup2\n      add\n      0x40\n      mstore\n      dup1\n      swap3\n      swap2\n      swap1\n      dup2\n      dup2\n      mstore\n      0x20\n      add\n      dup3\n      dup1\n      sload\n      tag_72\n      swap1\n      tag_34\n      jump\t// in\n    tag_72:\n      dup1\n      iszero\n      tag_73\n      jumpi\n      dup1\n      0x1f\n      lt\n      tag_74\n      jumpi\n      0x0100\n      dup1\n      dup4\n      sload\n      div\n      mul\n      dup4\n      mstore\n      swap2\n      0x20\n      add\n      swap2\n      jump(tag_73)\n    tag_74:\n      dup3\n      add\n      swap2\n      swap1\n      0x00\n      mstore\n      keccak256(0x00, 0x20)\n      swap1\n    tag_75:\n      dup2\n      sload\n      dup2\n      mstore\n      swap1\n      0x01\n      add\n      swap1\n      0x20\n      add\n      dup1\n      dup4\n      gt\n      tag_75\n      jumpi\n      dup3\n      swap1\n      sub\n      0x1f\n      and\n      dup3\n      add\n      swap2\n    tag_73:\n      pop\n      pop\n      pop\n      pop\n      pop\n      dup2\n      mstore\n      0x20\n      add\n      0x01\n      dup3\n      add\n      sload\n      dup2\n      mstore\n      0x20\n      add\n      0x02\n      dup3\n      add\n      sload\n      dup2\n      mstore\n      pop\n      pop\n      dup2\n      mstore\n      0x20\n      add\n      swap1\n      0x01\n      add\n      swap1\n      jump(tag_68)\n    tag_69:\n      pop\n      pop\n      pop\n      pop\n      swap1\n      pop\n        /* \"school-registery/register.sol\":948:957  uint256 i */\n      0x00\n        /* \"school-registery/register.sol\":943:1056  for (uint256 i = 0; i < records.length; i++) {... */\n    tag_76:\n        /* \"school-registery/register.sol\":967:974  records */\n      dup2\n        /* \"school-registery/register.sol\":967:981  records.length */\n      mload\n        /* \"school-registery/register.sol\":963:964  i */\n      dup2\n        /* \"school-registery/register.sol\":963:981  i < records.length */\n      lt\n        /* \"school-registery/register.sol\":943:1056  for (uint256 i = 0; i < records.length; i++) {... */\n      iszero\n      tag_77\n      jumpi\n        /* \"school-registery/register.sol\":1023:1026  _id */\n      dup4\n        /* \"school-registery/register.sol\":1006:1013  records */\n      dup3\n        /* \"school-registery/register.sol\":1014:1015  i */\n      dup3\n        /* \"school-registery/register.sol\":1006:1016  records[i] */\n      dup2\n      mload\n      dup2\n      lt\n      tag_79\n      jumpi\n      tag_80\n      tag_44\n      jump\t// in\n    tag_80:\n    tag_79:\n      0x20\n      mul\n      0x20\n      add\n      add\n      mload\n        /* \"school-registery/register.sol\":1006:1019  records[i].id */\n      0x20\n      add\n      mload\n        /* \"school-registery/register.sol\":1006:1026  records[i].id == _id */\n      sub\n        /* \"school-registery/register.sol\":1002:1045  if (records[i].id == _id) return records[i] */\n      tag_81\n      jumpi\n        /* \"school-registery/register.sol\":1035:1042  records */\n      dup2\n        /* \"school-registery/register.sol\":1043:1044  i */\n      dup2\n        /* \"school-registery/register.sol\":1035:1045  records[i] */\n      dup2\n      mload\n      dup2\n      lt\n      tag_82\n      jumpi\n      tag_83\n      tag_44\n      jump\t// in\n    tag_83:\n    tag_82:\n      0x20\n      mul\n      0x20\n      add\n      add\n      mload\n        /* \"school-registery/register.sol\":1028:1045  return records[i] */\n      swap3\n      pop\n      pop\n      pop\n      jump(tag_67)\n        /* \"school-registery/register.sol\":1002:1045  if (records[i].id == _id) return records[i] */\n    tag_81:\n        /* \"school-registery/register.sol\":983:986  i++ */\n      dup1\n      dup1\n      0x01\n      add\n      swap2\n      pop\n      pop\n        /* \"school-registery/register.sol\":943:1056  for (uint256 i = 0; i < records.length; i++) {... */\n      jump(tag_76)\n    tag_77:\n      pop\n        /* \"school-registery/register.sol\":1066:1092  revert(\"no student found\") */\n      mload(0x40)\n      0x08c379a000000000000000000000000000000000000000000000000000000000\n      dup2\n      mstore\n      0x04\n      add\n      tag_84\n      swap1\n      tag_85\n      jump\t// in\n    tag_84:\n      mload(0x40)\n      dup1\n      swap2\n      sub\n      swap1\n      revert\n        /* \"school-registery/register.sol\":761:1099  function getstudentRecordById(uint256 _id)... */\n    tag_67:\n      swap2\n      swap1\n      pop\n      jump\t// out\n        /* \"school-registery/register.sol\":636:755  function getAllStudentRecord() public view returns (Register[] memory) {... */\n    tag_23:\n        /* \"school-registery/register.sol\":688:705  Register[] memory */\n      0x60\n        /* \"school-registery/register.sol\":724:736  schoolrecord */\n      0x00\n        /* \"school-registery/register.sol\":724:748  schoolrecord[msg.sender] */\n      dup1\n        /* \"school-registery/register.sol\":737:747  msg.sender */\n      caller\n        /* \"school-registery/register.sol\":724:748  schoolrecord[msg.sender] */\n      0xffffffffffffffffffffffffffffffffffffffff\n      and\n      0xffffffffffffffffffffffffffffffffffffffff\n      and\n      dup2\n      mstore\n      0x20\n      add\n      swap1\n      dup2\n      mstore\n      0x20\n      add\n      0x00\n      keccak256\n        /* \"school-registery/register.sol\":717:748  return schoolrecord[msg.sender] */\n      dup1\n      sload\n      dup1\n      0x20\n      mul\n      0x20\n      add\n      mload(0x40)\n      swap1\n      dup2\n      add\n      0x40\n      mstore\n      dup1\n      swap3\n      swap2\n      swap1\n      dup2\n      dup2\n      mstore\n      0x20\n      add\n      0x00\n      swap1\n    tag_87:\n      dup3\n      dup3\n      lt\n      iszero\n      tag_88\n      jumpi\n      dup4\n      dup3\n      swap1\n      0x00\n      mstore\n      keccak256(0x00, 0x20)\n      swap1\n      0x03\n      mul\n      add\n      mload(0x40)\n      dup1\n      0x60\n      add\n      0x40\n      mstore\n      swap1\n      dup2\n      0x00\n      dup3\n      add\n      dup1\n      sload\n      tag_90\n      swap1\n      tag_34\n      jump\t// in\n    tag_90:\n      dup1\n      0x1f\n      add\n      0x20\n      dup1\n      swap2\n      div\n      mul\n      0x20\n      add\n      mload(0x40)\n      swap1\n      dup2\n      add\n      0x40\n      mstore\n      dup1\n      swap3\n      swap2\n      swap1\n      dup2\n      dup2\n      mstore\n      0x20\n      add\n      dup3\n      dup1\n      sload\n      tag_91\n      swap1\n      tag_34\n      jump\t// in\n    tag_91:\n      dup1\n      iszero\n      tag_92\n      jumpi\n      dup1\n      0x1f\n      lt\n      tag_93\n      jumpi\n      0x0100\n      dup1\n      dup4\n      sload\n      div\n      mul\n      dup4\n      mstore\n      swap2\n      0x20\n      add\n      swap2\n      jump(tag_92)\n    tag_93:\n      dup3\n      add\n      swap2\n      swap1\n      0x00\n      mstore\n      keccak256(0x00, 0x20)\n      swap1\n    tag_94:\n      dup2\n      sload\n      dup2\n      mstore\n      swap1\n      0x01\n      add\n      swap1\n      0x20\n      add\n      dup1\n      dup4\n      gt\n      tag_94\n      jumpi\n      dup3\n      swap1\n      sub\n      0x1f\n      and\n      dup3\n      add\n      swap2\n    tag_92:\n      pop\n      pop\n      pop\n      pop\n      pop\n      dup2\n      mstore\n      0x20\n      add\n      0x01\n      dup3\n      add\n      sload\n      dup2\n      mstore\n      0x20\n      add\n      0x02\n      dup3\n      add\n      sload\n      dup2\n      mstore\n      pop\n      pop\n      dup2\n      mstore\n      0x20\n      add\n      swap1\n      0x01\n      add\n      swap1\n      jump(tag_87)\n    tag_88:\n      pop\n      pop\n      pop\n      pop\n      swap1\n      pop\n        /* \"school-registery/register.sol\":636:755  function getAllStudentRecord() public view returns (Register[] memory) {... */\n      swap1\n      jump\t// out\n    tag_54:\n      mload(0x40)\n      dup1\n      0x60\n      add\n      0x40\n      mstore\n      dup1\n      0x60\n      dup2\n      mstore\n      0x20\n      add\n      0x00\n      dup2\n      mstore\n      0x20\n      add\n      0x00\n      dup2\n      mstore\n      pop\n      swap1\n      jump\t// out\n        /* \"#utility.yul\":88:205   */\n    tag_96:\n        /* \"#utility.yul\":197:198   */\n      0x00\n        /* \"#utility.yul\":194:195   */\n      dup1\n        /* \"#utility.yul\":187:199   */\n      revert\n        /* \"#utility.yul\":211:328   */\n    tag_97:\n        /* \"#utility.yul\":320:321   */\n      0x00\n        /* \"#utility.yul\":317:318   */\n      dup1\n        /* \"#utility.yul\":310:322   */\n      revert\n        /* \"#utility.yul\":334:451   */\n    tag_98:\n        /* \"#utility.yul\":443:444   */\n      0x00\n        /* \"#utility.yul\":440:441   */\n      dup1\n        /* \"#utility.yul\":433:445   */\n      revert\n        /* \"#utility.yul\":457:574   */\n    tag_99:\n        /* \"#utility.yul\":566:567   */\n      0x00\n        /* \"#utility.yul\":563:564   */\n      dup1\n        /* \"#utility.yul\":556:568   */\n      revert\n        /* \"#utility.yul\":580:697   */\n    tag_100:\n        /* \"#utility.yul\":689:690   */\n      0x00\n        /* \"#utility.yul\":686:687   */\n      dup1\n        /* \"#utility.yul\":679:691   */\n      revert\n        /* \"#utility.yul\":717:1270   */\n    tag_101:\n        /* \"#utility.yul\":775:783   */\n      0x00\n        /* \"#utility.yul\":785:791   */\n      dup1\n        /* \"#utility.yul\":835:838   */\n      dup4\n        /* \"#utility.yul\":828:832   */\n      0x1f\n        /* \"#utility.yul\":820:826   */\n      dup5\n        /* \"#utility.yul\":816:833   */\n      add\n        /* \"#utility.yul\":812:839   */\n      slt\n        /* \"#utility.yul\":802:924   */\n      tag_147\n      jumpi\n        /* \"#utility.yul\":843:922   */\n      tag_148\n      tag_98\n      jump\t// in\n    tag_148:\n        /* \"#utility.yul\":802:924   */\n    tag_147:\n        /* \"#utility.yul\":956:962   */\n      dup3\n        /* \"#utility.yul\":943:963   */\n      calldataload\n        /* \"#utility.yul\":933:963   */\n      swap1\n      pop\n        /* \"#utility.yul\":986:1004   */\n      0xffffffffffffffff\n        /* \"#utility.yul\":978:984   */\n      dup2\n        /* \"#utility.yul\":975:1005   */\n      gt\n        /* \"#utility.yul\":972:1089   */\n      iszero\n      tag_149\n      jumpi\n        /* \"#utility.yul\":1008:1087   */\n      tag_150\n      tag_99\n      jump\t// in\n    tag_150:\n        /* \"#utility.yul\":972:1089   */\n    tag_149:\n        /* \"#utility.yul\":1122:1126   */\n      0x20\n        /* \"#utility.yul\":1114:1120   */\n      dup4\n        /* \"#utility.yul\":1110:1127   */\n      add\n        /* \"#utility.yul\":1098:1127   */\n      swap2\n      pop\n        /* \"#utility.yul\":1176:1179   */\n      dup4\n        /* \"#utility.yul\":1168:1172   */\n      0x01\n        /* \"#utility.yul\":1160:1166   */\n      dup3\n        /* \"#utility.yul\":1156:1173   */\n      mul\n        /* \"#utility.yul\":1146:1154   */\n      dup4\n        /* \"#utility.yul\":1142:1174   */\n      add\n        /* \"#utility.yul\":1139:1180   */\n      gt\n        /* \"#utility.yul\":1136:1264   */\n      iszero\n      tag_151\n      jumpi\n        /* \"#utility.yul\":1183:1262   */\n      tag_152\n      tag_100\n      jump\t// in\n    tag_152:\n        /* \"#utility.yul\":1136:1264   */\n    tag_151:\n        /* \"#utility.yul\":717:1270   */\n      swap3\n      pop\n      swap3\n      swap1\n      pop\n      jump\t// out\n        /* \"#utility.yul\":1276:1353   */\n    tag_102:\n        /* \"#utility.yul\":1313:1320   */\n      0x00\n        /* \"#utility.yul\":1342:1347   */\n      dup2\n        /* \"#utility.yul\":1331:1347   */\n      swap1\n      pop\n        /* \"#utility.yul\":1276:1353   */\n      swap2\n      swap1\n      pop\n      jump\t// out\n        /* \"#utility.yul\":1359:1481   */\n    tag_103:\n        /* \"#utility.yul\":1432:1456   */\n      tag_155\n        /* \"#utility.yul\":1450:1455   */\n      dup2\n        /* \"#utility.yul\":1432:1456   */\n      tag_102\n      jump\t// in\n    tag_155:\n        /* \"#utility.yul\":1425:1430   */\n      dup2\n        /* \"#utility.yul\":1422:1457   */\n      eq\n        /* \"#utility.yul\":1412:1475   */\n      tag_156\n      jumpi\n        /* \"#utility.yul\":1471:1472   */\n      0x00\n        /* \"#utility.yul\":1468:1469   */\n      dup1\n        /* \"#utility.yul\":1461:1473   */\n      revert\n        /* \"#utility.yul\":1412:1475   */\n    tag_156:\n        /* \"#utility.yul\":1359:1481   */\n      pop\n      jump\t// out\n        /* \"#utility.yul\":1487:1626   */\n    tag_104:\n        /* \"#utility.yul\":1533:1538   */\n      0x00\n        /* \"#utility.yul\":1571:1577   */\n      dup2\n        /* \"#utility.yul\":1558:1578   */\n      calldataload\n        /* \"#utility.yul\":1549:1578   */\n      swap1\n      pop\n        /* \"#utility.yul\":1587:1620   */\n      tag_158\n        /* \"#utility.yul\":1614:1619   */\n      dup2\n        /* \"#utility.yul\":1587:1620   */\n      tag_103\n      jump\t// in\n    tag_158:\n        /* \"#utility.yul\":1487:1626   */\n      swap3\n      swap2\n      pop\n      pop\n      jump\t// out\n        /* \"#utility.yul\":1632:2451   */\n    tag_9:\n        /* \"#utility.yul\":1721:1727   */\n      0x00\n        /* \"#utility.yul\":1729:1735   */\n      dup1\n        /* \"#utility.yul\":1737:1743   */\n      0x00\n        /* \"#utility.yul\":1745:1751   */\n      dup1\n        /* \"#utility.yul\":1794:1796   */\n      0x60\n        /* \"#utility.yul\":1782:1791   */\n      dup6\n        /* \"#utility.yul\":1773:1780   */\n      dup8\n        /* \"#utility.yul\":1769:1792   */\n      sub\n        /* \"#utility.yul\":1765:1797   */\n      slt\n        /* \"#utility.yul\":1762:1881   */\n      iszero\n      tag_160\n      jumpi\n        /* \"#utility.yul\":1800:1879   */\n      tag_161\n      tag_96\n      jump\t// in\n    tag_161:\n        /* \"#utility.yul\":1762:1881   */\n    tag_160:\n        /* \"#utility.yul\":1948:1949   */\n      0x00\n        /* \"#utility.yul\":1937:1946   */\n      dup6\n        /* \"#utility.yul\":1933:1950   */\n      add\n        /* \"#utility.yul\":1920:1951   */\n      calldataload\n        /* \"#utility.yul\":1978:1996   */\n      0xffffffffffffffff\n        /* \"#utility.yul\":1970:1976   */\n      dup2\n        /* \"#utility.yul\":1967:1997   */\n      gt\n        /* \"#utility.yul\":1964:2081   */\n      iszero\n      tag_162\n      jumpi\n        /* \"#utility.yul\":2000:2079   */\n      tag_163\n      tag_97\n      jump\t// in\n    tag_163:\n        /* \"#utility.yul\":1964:2081   */\n    tag_162:\n        /* \"#utility.yul\":2113:2178   */\n      tag_164\n        /* \"#utility.yul\":2170:2177   */\n      dup8\n        /* \"#utility.yul\":2161:2167   */\n      dup3\n        /* \"#utility.yul\":2150:2159   */\n      dup9\n        /* \"#utility.yul\":2146:2168   */\n      add\n        /* \"#utility.yul\":2113:2178   */\n      tag_101\n      jump\t// in\n    tag_164:\n        /* \"#utility.yul\":2095:2178   */\n      swap5\n      pop\n      swap5\n      pop\n        /* \"#utility.yul\":1891:2188   */\n      pop\n        /* \"#utility.yul\":2227:2229   */\n      0x20\n        /* \"#utility.yul\":2253:2306   */\n      tag_165\n        /* \"#utility.yul\":2298:2305   */\n      dup8\n        /* \"#utility.yul\":2289:2295   */\n      dup3\n        /* \"#utility.yul\":2278:2287   */\n      dup9\n        /* \"#utility.yul\":2274:2296   */\n      add\n        /* \"#utility.yul\":2253:2306   */\n      tag_104\n      jump\t// in\n    tag_165:\n        /* \"#utility.yul\":2243:2306   */\n      swap3\n      pop\n        /* \"#utility.yul\":2198:2316   */\n      pop\n        /* \"#utility.yul\":2355:2357   */\n      0x40\n        /* \"#utility.yul\":2381:2434   */\n      tag_166\n        /* \"#utility.yul\":2426:2433   */\n      dup8\n        /* \"#utility.yul\":2417:2423   */\n      dup3\n        /* \"#utility.yul\":2406:2415   */\n      dup9\n        /* \"#utility.yul\":2402:2424   */\n      add\n        /* \"#utility.yul\":2381:2434   */\n      tag_104\n      jump\t// in\n    tag_166:\n        /* \"#utility.yul\":2371:2434   */\n      swap2\n      pop\n        /* \"#utility.yul\":2326:2444   */\n      pop\n        /* \"#utility.yul\":1632:2451   */\n      swap3\n      swap6\n      swap2\n      swap5\n      pop\n      swap3\n      pop\n      jump\t// out\n        /* \"#utility.yul\":2457:2786   */\n    tag_13:\n        /* \"#utility.yul\":2516:2522   */\n      0x00\n        /* \"#utility.yul\":2565:2567   */\n      0x20\n        /* \"#utility.yul\":2553:2562   */\n      dup3\n        /* \"#utility.yul\":2544:2551   */\n      dup5\n        /* \"#utility.yul\":2540:2563   */\n      sub\n        /* \"#utility.yul\":2536:2568   */\n      slt\n        /* \"#utility.yul\":2533:2652   */\n      iszero\n      tag_168\n      jumpi\n        /* \"#utility.yul\":2571:2650   */\n      tag_169\n      tag_96\n      jump\t// in\n    tag_169:\n        /* \"#utility.yul\":2533:2652   */\n    tag_168:\n        /* \"#utility.yul\":2691:2692   */\n      0x00\n        /* \"#utility.yul\":2716:2769   */\n      tag_170\n        /* \"#utility.yul\":2761:2768   */\n      dup5\n        /* \"#utility.yul\":2752:2758   */\n      dup3\n        /* \"#utility.yul\":2741:2750   */\n      dup6\n        /* \"#utility.yul\":2737:2759   */\n      add\n        /* \"#utility.yul\":2716:2769   */\n      tag_104\n      jump\t// in\n    tag_170:\n        /* \"#utility.yul\":2706:2769   */\n      swap2\n      pop\n        /* \"#utility.yul\":2662:2779   */\n      pop\n        /* \"#utility.yul\":2457:2786   */\n      swap3\n      swap2\n      pop\n      pop\n      jump\t// out\n        /* \"#utility.yul\":2792:2929   */\n    tag_105:\n        /* \"#utility.yul\":2882:2888   */\n      0x00\n        /* \"#utility.yul\":2916:2921   */\n      dup2\n        /* \"#utility.yul\":2910:2922   */\n      mload\n        /* \"#utility.yul\":2900:2922   */\n      swap1\n      pop\n        /* \"#utility.yul\":2792:2929   */\n      swap2\n      swap1\n      pop\n      jump\t// out\n        /* \"#utility.yul\":2935:3142   */\n    tag_106:\n        /* \"#utility.yul\":3057:3068   */\n      0x00\n        /* \"#utility.yul\":3091:3097   */\n      dup3\n        /* \"#utility.yul\":3086:3089   */\n      dup3\n        /* \"#utility.yul\":3079:3098   */\n      mstore\n        /* \"#utility.yul\":3131:3135   */\n      0x20\n        /* \"#utility.yul\":3126:3129   */\n      dup3\n        /* \"#utility.yul\":3122:3136   */\n      add\n        /* \"#utility.yul\":3107:3136   */\n      swap1\n      pop\n        /* \"#utility.yul\":2935:3142   */\n      swap3\n      swap2\n      pop\n      pop\n      jump\t// out\n        /* \"#utility.yul\":3148:3303   */\n    tag_107:\n        /* \"#utility.yul\":3238:3242   */\n      0x00\n        /* \"#utility.yul\":3261:3264   */\n      dup2\n        /* \"#utility.yul\":3253:3264   */\n      swap1\n      pop\n        /* \"#utility.yul\":3291:3295   */\n      0x20\n        /* \"#utility.yul\":3286:3289   */\n      dup3\n        /* \"#utility.yul\":3282:3296   */\n      add\n        /* \"#utility.yul\":3274:3296   */\n      swap1\n      pop\n        /* \"#utility.yul\":3148:3303   */\n      swap2\n      swap1\n      pop\n      jump\t// out\n        /* \"#utility.yul\":3309:3408   */\n    tag_108:\n        /* \"#utility.yul\":3361:3367   */\n      0x00\n        /* \"#utility.yul\":3395:3400   */\n      dup2\n        /* \"#utility.yul\":3389:3401   */\n      mload\n        /* \"#utility.yul\":3379:3401   */\n      swap1\n      pop\n        /* \"#utility.yul\":3309:3408   */\n      swap2\n      swap1\n      pop\n      jump\t// out\n        /* \"#utility.yul\":3414:3573   */\n    tag_109:\n        /* \"#utility.yul\":3488:3499   */\n      0x00\n        /* \"#utility.yul\":3522:3528   */\n      dup3\n        /* \"#utility.yul\":3517:3520   */\n      dup3\n        /* \"#utility.yul\":3510:3529   */\n      mstore\n        /* \"#utility.yul\":3562:3566   */\n      0x20\n        /* \"#utility.yul\":3557:3560   */\n      dup3\n        /* \"#utility.yul\":3553:3567   */\n      add\n        /* \"#utility.yul\":3538:3567   */\n      swap1\n      pop\n        /* \"#utility.yul\":3414:3573   */\n      swap3\n      swap2\n      pop\n      pop\n      jump\t// out\n        /* \"#utility.yul\":3579:3718   */\n    tag_110:\n        /* \"#utility.yul\":3668:3674   */\n      dup3\n        /* \"#utility.yul\":3663:3666   */\n      dup2\n        /* \"#utility.yul\":3658:3661   */\n      dup4\n        /* \"#utility.yul\":3652:3675   */\n      mcopy\n        /* \"#utility.yul\":3709:3710   */\n      0x00\n        /* \"#utility.yul\":3700:3706   */\n      dup4\n        /* \"#utility.yul\":3695:3698   */\n      dup4\n        /* \"#utility.yul\":3691:3707   */\n      add\n        /* \"#utility.yul\":3684:3711   */\n      mstore\n        /* \"#utility.yul\":3579:3718   */\n      pop\n      pop\n      pop\n      jump\t// out\n        /* \"#utility.yul\":3724:3826   */\n    tag_111:\n        /* \"#utility.yul\":3765:3771   */\n      0x00\n        /* \"#utility.yul\":3816:3818   */\n      0x1f\n        /* \"#utility.yul\":3812:3819   */\n      not\n        /* \"#utility.yul\":3807:3809   */\n      0x1f\n        /* \"#utility.yul\":3800:3805   */\n      dup4\n        /* \"#utility.yul\":3796:3810   */\n      add\n        /* \"#utility.yul\":3792:3820   */\n      and\n        /* \"#utility.yul\":3782:3820   */\n      swap1\n      pop\n        /* \"#utility.yul\":3724:3826   */\n      swap2\n      swap1\n      pop\n      jump\t// out\n        /* \"#utility.yul\":3832:4189   */\n    tag_112:\n        /* \"#utility.yul\":3910:3913   */\n      0x00\n        /* \"#utility.yul\":3938:3977   */\n      tag_179\n        /* \"#utility.yul\":3971:3976   */\n      dup3\n        /* \"#utility.yul\":3938:3977   */\n      tag_108\n      jump\t// in\n    tag_179:\n        /* \"#utility.yul\":3993:4054   */\n      tag_180\n        /* \"#utility.yul\":4047:4053   */\n      dup2\n        /* \"#utility.yul\":4042:4045   */\n      dup6\n        /* \"#utility.yul\":3993:4054   */\n      tag_109\n      jump\t// in\n    tag_180:\n        /* \"#utility.yul\":3986:4054   */\n      swap4\n      pop\n        /* \"#utility.yul\":4063:4128   */\n      tag_181\n        /* \"#utility.yul\":4121:4127   */\n      dup2\n        /* \"#utility.yul\":4116:4119   */\n      dup6\n        /* \"#utility.yul\":4109:4113   */\n      0x20\n        /* \"#utility.yul\":4102:4107   */\n      dup7\n        /* \"#utility.yul\":4098:4114   */\n      add\n        /* \"#utility.yul\":4063:4128   */\n      tag_110\n      jump\t// in\n    tag_181:\n        /* \"#utility.yul\":4153:4182   */\n      tag_182\n        /* \"#utility.yul\":4175:4181   */\n      dup2\n        /* \"#utility.yul\":4153:4182   */\n      tag_111\n      jump\t// in\n    tag_182:\n        /* \"#utility.yul\":4148:4151   */\n      dup5\n        /* \"#utility.yul\":4144:4183   */\n      add\n        /* \"#utility.yul\":4137:4183   */\n      swap2\n      pop\n        /* \"#utility.yul\":3914:4189   */\n      pop\n        /* \"#utility.yul\":3832:4189   */\n      swap3\n      swap2\n      pop\n      pop\n      jump\t// out\n        /* \"#utility.yul\":4195:4303   */\n    tag_113:\n        /* \"#utility.yul\":4272:4296   */\n      tag_184\n        /* \"#utility.yul\":4290:4295   */\n      dup2\n        /* \"#utility.yul\":4272:4296   */\n      tag_102\n      jump\t// in\n    tag_184:\n        /* \"#utility.yul\":4267:4270   */\n      dup3\n        /* \"#utility.yul\":4260:4297   */\n      mstore\n        /* \"#utility.yul\":4195:4303   */\n      pop\n      pop\n      jump\t// out\n        /* \"#utility.yul\":4381:5146   */\n    tag_114:\n        /* \"#utility.yul\":4486:4489   */\n      0x00\n        /* \"#utility.yul\":4522:4526   */\n      0x60\n        /* \"#utility.yul\":4517:4520   */\n      dup4\n        /* \"#utility.yul\":4513:4527   */\n      add\n        /* \"#utility.yul\":4609:4613   */\n      0x00\n        /* \"#utility.yul\":4602:4607   */\n      dup4\n        /* \"#utility.yul\":4598:4614   */\n      add\n        /* \"#utility.yul\":4592:4615   */\n      mload\n        /* \"#utility.yul\":4662:4665   */\n      dup5\n        /* \"#utility.yul\":4656:4660   */\n      dup3\n        /* \"#utility.yul\":4652:4666   */\n      sub\n        /* \"#utility.yul\":4645:4649   */\n      0x00\n        /* \"#utility.yul\":4640:4643   */\n      dup7\n        /* \"#utility.yul\":4636:4650   */\n      add\n        /* \"#utility.yul\":4629:4667   */\n      mstore\n        /* \"#utility.yul\":4688:4761   */\n      tag_186\n        /* \"#utility.yul\":4756:4760   */\n      dup3\n        /* \"#utility.yul\":4742:4754   */\n      dup3\n        /* \"#utility.yul\":4688:4761   */\n      tag_112\n      jump\t// in\n    tag_186:\n        /* \"#utility.yul\":4680:4761   */\n      swap2\n      pop\n        /* \"#utility.yul\":4537:4772   */\n      pop\n        /* \"#utility.yul\":4852:4856   */\n      0x20\n        /* \"#utility.yul\":4845:4850   */\n      dup4\n        /* \"#utility.yul\":4841:4857   */\n      add\n        /* \"#utility.yul\":4835:4858   */\n      mload\n        /* \"#utility.yul\":4871:4934   */\n      tag_187\n        /* \"#utility.yul\":4928:4932   */\n      0x20\n        /* \"#utility.yul\":4923:4926   */\n      dup7\n        /* \"#utility.yul\":4919:4933   */\n      add\n        /* \"#utility.yul\":4905:4917   */\n      dup3\n        /* \"#utility.yul\":4871:4934   */\n      tag_113\n      jump\t// in\n    tag_187:\n        /* \"#utility.yul\":4782:4944   */\n      pop\n        /* \"#utility.yul\":5027:5031   */\n      0x40\n        /* \"#utility.yul\":5020:5025   */\n      dup4\n        /* \"#utility.yul\":5016:5032   */\n      add\n        /* \"#utility.yul\":5010:5033   */\n      mload\n        /* \"#utility.yul\":5046:5109   */\n      tag_188\n        /* \"#utility.yul\":5103:5107   */\n      0x40\n        /* \"#utility.yul\":5098:5101   */\n      dup7\n        /* \"#utility.yul\":5094:5108   */\n      add\n        /* \"#utility.yul\":5080:5092   */\n      dup3\n        /* \"#utility.yul\":5046:5109   */\n      tag_113\n      jump\t// in\n    tag_188:\n        /* \"#utility.yul\":4954:5119   */\n      pop\n        /* \"#utility.yul\":5136:5140   */\n      dup1\n        /* \"#utility.yul\":5129:5140   */\n      swap2\n      pop\n        /* \"#utility.yul\":4491:5146   */\n      pop\n        /* \"#utility.yul\":4381:5146   */\n      swap3\n      swap2\n      pop\n      pop\n      jump\t// out\n        /* \"#utility.yul\":5152:5400   */\n    tag_115:\n        /* \"#utility.yul\":5267:5277   */\n      0x00\n        /* \"#utility.yul\":5302:5394   */\n      tag_190\n        /* \"#utility.yul\":5390:5393   */\n      dup4\n        /* \"#utility.yul\":5382:5388   */\n      dup4\n        /* \"#utility.yul\":5302:5394   */\n      tag_114\n      jump\t// in\n    tag_190:\n        /* \"#utility.yul\":5288:5394   */\n      swap1\n      pop\n        /* \"#utility.yul\":5152:5400   */\n      swap3\n      swap2\n      pop\n      pop\n      jump\t// out\n        /* \"#utility.yul\":5406:5542   */\n    tag_116:\n        /* \"#utility.yul\":5499:5503   */\n      0x00\n        /* \"#utility.yul\":5531:5535   */\n      0x20\n        /* \"#utility.yul\":5526:5529   */\n      dup3\n        /* \"#utility.yul\":5522:5536   */\n      add\n        /* \"#utility.yul\":5514:5536   */\n      swap1\n      pop\n        /* \"#utility.yul\":5406:5542   */\n      swap2\n      swap1\n      pop\n      jump\t// out\n        /* \"#utility.yul\":5624:6719   */\n    tag_117:\n        /* \"#utility.yul\":5789:5792   */\n      0x00\n        /* \"#utility.yul\":5818:5895   */\n      tag_193\n        /* \"#utility.yul\":5889:5894   */\n      dup3\n        /* \"#utility.yul\":5818:5895   */\n      tag_105\n      jump\t// in\n    tag_193:\n        /* \"#utility.yul\":5911:6020   */\n      tag_194\n        /* \"#utility.yul\":6013:6019   */\n      dup2\n        /* \"#utility.yul\":6008:6011   */\n      dup6\n        /* \"#utility.yul\":5911:6020   */\n      tag_106\n      jump\t// in\n    tag_194:\n        /* \"#utility.yul\":5904:6020   */\n      swap4\n      pop\n        /* \"#utility.yul\":6046:6049   */\n      dup4\n        /* \"#utility.yul\":6091:6095   */\n      0x20\n        /* \"#utility.yul\":6083:6089   */\n      dup3\n        /* \"#utility.yul\":6079:6096   */\n      mul\n        /* \"#utility.yul\":6074:6077   */\n      dup6\n        /* \"#utility.yul\":6070:6097   */\n      add\n        /* \"#utility.yul\":6121:6200   */\n      tag_195\n        /* \"#utility.yul\":6194:6199   */\n      dup6\n        /* \"#utility.yul\":6121:6200   */\n      tag_107\n      jump\t// in\n    tag_195:\n        /* \"#utility.yul\":6223:6230   */\n      dup1\n        /* \"#utility.yul\":6254:6255   */\n      0x00\n        /* \"#utility.yul\":6239:6674   */\n    tag_196:\n        /* \"#utility.yul\":6264:6270   */\n      dup6\n        /* \"#utility.yul\":6261:6262   */\n      dup2\n        /* \"#utility.yul\":6258:6271   */\n      lt\n        /* \"#utility.yul\":6239:6674   */\n      iszero\n      tag_198\n      jumpi\n        /* \"#utility.yul\":6335:6344   */\n      dup5\n        /* \"#utility.yul\":6329:6333   */\n      dup5\n        /* \"#utility.yul\":6325:6345   */\n      sub\n        /* \"#utility.yul\":6320:6323   */\n      dup10\n        /* \"#utility.yul\":6313:6346   */\n      mstore\n        /* \"#utility.yul\":6386:6392   */\n      dup2\n        /* \"#utility.yul\":6380:6393   */\n      mload\n        /* \"#utility.yul\":6414:6524   */\n      tag_199\n        /* \"#utility.yul\":6519:6523   */\n      dup6\n        /* \"#utility.yul\":6504:6517   */\n      dup3\n        /* \"#utility.yul\":6414:6524   */\n      tag_115\n      jump\t// in\n    tag_199:\n        /* \"#utility.yul\":6406:6524   */\n      swap5\n      pop\n        /* \"#utility.yul\":6547:6630   */\n      tag_200\n        /* \"#utility.yul\":6623:6629   */\n      dup4\n        /* \"#utility.yul\":6547:6630   */\n      tag_116\n      jump\t// in\n    tag_200:\n        /* \"#utility.yul\":6537:6630   */\n      swap3\n      pop\n        /* \"#utility.yul\":6659:6663   */\n      0x20\n        /* \"#utility.yul\":6654:6657   */\n      dup11\n        /* \"#utility.yul\":6650:6664   */\n      add\n        /* \"#utility.yul\":6643:6664   */\n      swap10\n      pop\n        /* \"#utility.yul\":6299:6674   */\n      pop\n        /* \"#utility.yul\":6286:6287   */\n      0x01\n        /* \"#utility.yul\":6283:6284   */\n      dup2\n        /* \"#utility.yul\":6279:6288   */\n      add\n        /* \"#utility.yul\":6274:6288   */\n      swap1\n      pop\n        /* \"#utility.yul\":6239:6674   */\n      jump(tag_196)\n    tag_198:\n        /* \"#utility.yul\":6243:6257   */\n      pop\n        /* \"#utility.yul\":6690:6694   */\n      dup3\n        /* \"#utility.yul\":6683:6694   */\n      swap8\n      pop\n        /* \"#utility.yul\":6710:6713   */\n      dup8\n        /* \"#utility.yul\":6703:6713   */\n      swap6\n      pop\n        /* \"#utility.yul\":5794:6719   */\n      pop\n      pop\n      pop\n      pop\n      pop\n        /* \"#utility.yul\":5624:6719   */\n      swap3\n      swap2\n      pop\n      pop\n      jump\t// out\n        /* \"#utility.yul\":6725:7190   */\n    tag_16:\n        /* \"#utility.yul\":6914:6918   */\n      0x00\n        /* \"#utility.yul\":6952:6954   */\n      0x20\n        /* \"#utility.yul\":6941:6950   */\n      dup3\n        /* \"#utility.yul\":6937:6955   */\n      add\n        /* \"#utility.yul\":6929:6955   */\n      swap1\n      pop\n        /* \"#utility.yul\":7001:7010   */\n      dup2\n        /* \"#utility.yul\":6995:6999   */\n      dup2\n        /* \"#utility.yul\":6991:7011   */\n      sub\n        /* \"#utility.yul\":6987:6988   */\n      0x00\n        /* \"#utility.yul\":6976:6985   */\n      dup4\n        /* \"#utility.yul\":6972:6989   */\n      add\n        /* \"#utility.yul\":6965:7012   */\n      mstore\n        /* \"#utility.yul\":7029:7183   */\n      tag_202\n        /* \"#utility.yul\":7178:7182   */\n      dup2\n        /* \"#utility.yul\":7169:7175   */\n      dup5\n        /* \"#utility.yul\":7029:7183   */\n      tag_117\n      jump\t// in\n    tag_202:\n        /* \"#utility.yul\":7021:7183   */\n      swap1\n      pop\n        /* \"#utility.yul\":6725:7190   */\n      swap3\n      swap2\n      pop\n      pop\n      jump\t// out\n        /* \"#utility.yul\":7268:8043   */\n    tag_118:\n        /* \"#utility.yul\":7383:7386   */\n      0x00\n        /* \"#utility.yul\":7419:7423   */\n      0x60\n        /* \"#utility.yul\":7414:7417   */\n      dup4\n        /* \"#utility.yul\":7410:7424   */\n      add\n        /* \"#utility.yul\":7506:7510   */\n      0x00\n        /* \"#utility.yul\":7499:7504   */\n      dup4\n        /* \"#utility.yul\":7495:7511   */\n      add\n        /* \"#utility.yul\":7489:7512   */\n      mload\n        /* \"#utility.yul\":7559:7562   */\n      dup5\n        /* \"#utility.yul\":7553:7557   */\n      dup3\n        /* \"#utility.yul\":7549:7563   */\n      sub\n        /* \"#utility.yul\":7542:7546   */\n      0x00\n        /* \"#utility.yul\":7537:7540   */\n      dup7\n        /* \"#utility.yul\":7533:7547   */\n      add\n        /* \"#utility.yul\":7526:7564   */\n      mstore\n        /* \"#utility.yul\":7585:7658   */\n      tag_204\n        /* \"#utility.yul\":7653:7657   */\n      dup3\n        /* \"#utility.yul\":7639:7651   */\n      dup3\n        /* \"#utility.yul\":7585:7658   */\n      tag_112\n      jump\t// in\n    tag_204:\n        /* \"#utility.yul\":7577:7658   */\n      swap2\n      pop\n        /* \"#utility.yul\":7434:7669   */\n      pop\n        /* \"#utility.yul\":7749:7753   */\n      0x20\n        /* \"#utility.yul\":7742:7747   */\n      dup4\n        /* \"#utility.yul\":7738:7754   */\n      add\n        /* \"#utility.yul\":7732:7755   */\n      mload\n        /* \"#utility.yul\":7768:7831   */\n      tag_205\n        /* \"#utility.yul\":7825:7829   */\n      0x20\n        /* \"#utility.yul\":7820:7823   */\n      dup7\n        /* \"#utility.yul\":7816:7830   */\n      add\n        /* \"#utility.yul\":7802:7814   */\n      dup3\n        /* \"#utility.yul\":7768:7831   */\n      tag_113\n      jump\t// in\n    tag_205:\n        /* \"#utility.yul\":7679:7841   */\n      pop\n        /* \"#utility.yul\":7924:7928   */\n      0x40\n        /* \"#utility.yul\":7917:7922   */\n      dup4\n        /* \"#utility.yul\":7913:7929   */\n      add\n        /* \"#utility.yul\":7907:7930   */\n      mload\n        /* \"#utility.yul\":7943:8006   */\n      tag_206\n        /* \"#utility.yul\":8000:8004   */\n      0x40\n        /* \"#utility.yul\":7995:7998   */\n      dup7\n        /* \"#utility.yul\":7991:8005   */\n      add\n        /* \"#utility.yul\":7977:7989   */\n      dup3\n        /* \"#utility.yul\":7943:8006   */\n      tag_113\n      jump\t// in\n    tag_206:\n        /* \"#utility.yul\":7851:8016   */\n      pop\n        /* \"#utility.yul\":8033:8037   */\n      dup1\n        /* \"#utility.yul\":8026:8037   */\n      swap2\n      pop\n        /* \"#utility.yul\":7388:8043   */\n      pop\n        /* \"#utility.yul\":7268:8043   */\n      swap3\n      swap2\n      pop\n      pop\n      jump\t// out\n        /* \"#utility.yul\":8049:8414   */\n    tag_21:\n        /* \"#utility.yul\":8188:8192   */\n      0x00\n        /* \"#utility.yul\":8226:8228   */\n      0x20\n        /* \"#utility.yul\":8215:8224   */\n      dup3\n        /* \"#utility.yul\":8211:8229   */\n      add\n        /* \"#utility.yul\":8203:8229   */\n      swap1\n      pop\n        /* \"#utility.yul\":8275:8284   */\n      dup2\n        /* \"#utility.yul\":8269:8273   */\n      dup2\n        /* \"#utility.yul\":8265:8285   */\n      sub\n        /* \"#utility.yul\":8261:8262   */\n      0x00\n        /* \"#utility.yul\":8250:8259   */\n      dup4\n        /* \"#utility.yul\":8246:8263   */\n      add\n        /* \"#utility.yul\":8239:8286   */\n      mstore\n        /* \"#utility.yul\":8303:8407   */\n      tag_208\n        /* \"#utility.yul\":8402:8406   */\n      dup2\n        /* \"#utility.yul\":8393:8399   */\n      dup5\n        /* \"#utility.yul\":8303:8407   */\n      tag_118\n      jump\t// in\n    tag_208:\n        /* \"#utility.yul\":8295:8407   */\n      swap1\n      pop\n        /* \"#utility.yul\":8049:8414   */\n      swap3\n      swap2\n      pop\n      pop\n      jump\t// out\n        /* \"#utility.yul\":8420:8600   */\n    tag_50:\n        /* \"#utility.yul\":8468:8545   */\n      0x4e487b7100000000000000000000000000000000000000000000000000000000\n        /* \"#utility.yul\":8465:8466   */\n      0x00\n        /* \"#utility.yul\":8458:8546   */\n      mstore\n        /* \"#utility.yul\":8565:8569   */\n      0x41\n        /* \"#utility.yul\":8562:8563   */\n      0x04\n        /* \"#utility.yul\":8555:8570   */\n      mstore\n        /* \"#utility.yul\":8589:8593   */\n      0x24\n        /* \"#utility.yul\":8586:8587   */\n      0x00\n        /* \"#utility.yul\":8579:8594   */\n      revert\n        /* \"#utility.yul\":8606:8786   */\n    tag_119:\n        /* \"#utility.yul\":8654:8731   */\n      0x4e487b7100000000000000000000000000000000000000000000000000000000\n        /* \"#utility.yul\":8651:8652   */\n      0x00\n        /* \"#utility.yul\":8644:8732   */\n      mstore\n        /* \"#utility.yul\":8751:8755   */\n      0x22\n        /* \"#utility.yul\":8748:8749   */\n      0x04\n        /* \"#utility.yul\":8741:8756   */\n      mstore\n        /* \"#utility.yul\":8775:8779   */\n      0x24\n        /* \"#utility.yul\":8772:8773   */\n      0x00\n        /* \"#utility.yul\":8765:8780   */\n      revert\n        /* \"#utility.yul\":8792:9112   */\n    tag_34:\n        /* \"#utility.yul\":8836:8842   */\n      0x00\n        /* \"#utility.yul\":8873:8874   */\n      0x02\n        /* \"#utility.yul\":8867:8871   */\n      dup3\n        /* \"#utility.yul\":8863:8875   */\n      div\n        /* \"#utility.yul\":8853:8875   */\n      swap1\n      pop\n        /* \"#utility.yul\":8920:8921   */\n      0x01\n        /* \"#utility.yul\":8914:8918   */\n      dup3\n        /* \"#utility.yul\":8910:8922   */\n      and\n        /* \"#utility.yul\":8941:8959   */\n      dup1\n        /* \"#utility.yul\":8931:9012   */\n      tag_212\n      jumpi\n        /* \"#utility.yul\":8997:9001   */\n      0x7f\n        /* \"#utility.yul\":8989:8995   */\n      dup3\n        /* \"#utility.yul\":8985:9002   */\n      and\n        /* \"#utility.yul\":8975:9002   */\n      swap2\n      pop\n        /* \"#utility.yul\":8931:9012   */\n    tag_212:\n        /* \"#utility.yul\":9059:9061   */\n      0x20\n        /* \"#utility.yul\":9051:9057   */\n      dup3\n        /* \"#utility.yul\":9048:9062   */\n      lt\n        /* \"#utility.yul\":9028:9046   */\n      dup2\n        /* \"#utility.yul\":9025:9063   */\n      sub\n        /* \"#utility.yul\":9022:9106   */\n      tag_213\n      jumpi\n        /* \"#utility.yul\":9078:9096   */\n      tag_214\n      tag_119\n      jump\t// in\n    tag_214:\n        /* \"#utility.yul\":9022:9106   */\n    tag_213:\n        /* \"#utility.yul\":8843:9112   */\n      pop\n        /* \"#utility.yul\":8792:9112   */\n      swap2\n      swap1\n      pop\n      jump\t// out\n        /* \"#utility.yul\":9118:9259   */\n    tag_120:\n        /* \"#utility.yul\":9167:9171   */\n      0x00\n        /* \"#utility.yul\":9190:9193   */\n      dup2\n        /* \"#utility.yul\":9182:9193   */\n      swap1\n      pop\n        /* \"#utility.yul\":9213:9216   */\n      dup2\n        /* \"#utility.yul\":9210:9211   */\n      0x00\n        /* \"#utility.yul\":9203:9217   */\n      mstore\n        /* \"#utility.yul\":9247:9251   */\n      0x20\n        /* \"#utility.yul\":9244:9245   */\n      0x00\n        /* \"#utility.yul\":9234:9252   */\n      keccak256\n        /* \"#utility.yul\":9226:9252   */\n      swap1\n      pop\n        /* \"#utility.yul\":9118:9259   */\n      swap2\n      swap1\n      pop\n      jump\t// out\n        /* \"#utility.yul\":9265:9358   */\n    tag_121:\n        /* \"#utility.yul\":9302:9308   */\n      0x00\n        /* \"#utility.yul\":9349:9351   */\n      0x20\n        /* \"#utility.yul\":9344:9346   */\n      0x1f\n        /* \"#utility.yul\":9337:9342   */\n      dup4\n        /* \"#utility.yul\":9333:9347   */\n      add\n        /* \"#utility.yul\":9329:9352   */\n      div\n        /* \"#utility.yul\":9319:9352   */\n      swap1\n      pop\n        /* \"#utility.yul\":9265:9358   */\n      swap2\n      swap1\n      pop\n      jump\t// out\n        /* \"#utility.yul\":9364:9471   */\n    tag_122:\n        /* \"#utility.yul\":9408:9416   */\n      0x00\n        /* \"#utility.yul\":9458:9463   */\n      dup3\n        /* \"#utility.yul\":9452:9456   */\n      dup3\n        /* \"#utility.yul\":9448:9464   */\n      shl\n        /* \"#utility.yul\":9427:9464   */\n      swap1\n      pop\n        /* \"#utility.yul\":9364:9471   */\n      swap3\n      swap2\n      pop\n      pop\n      jump\t// out\n        /* \"#utility.yul\":9477:9870   */\n    tag_123:\n        /* \"#utility.yul\":9546:9552   */\n      0x00\n        /* \"#utility.yul\":9596:9597   */\n      0x08\n        /* \"#utility.yul\":9584:9594   */\n      dup4\n        /* \"#utility.yul\":9580:9598   */\n      mul\n        /* \"#utility.yul\":9619:9716   */\n      tag_219\n        /* \"#utility.yul\":9649:9715   */\n      0xffffffffffffffffffffffffffffffffffffffffffffffffffffffffffffffff\n        /* \"#utility.yul\":9638:9647   */\n      dup3\n        /* \"#utility.yul\":9619:9716   */\n      tag_122\n      jump\t// in\n    tag_219:\n        /* \"#utility.yul\":9737:9776   */\n      tag_220\n        /* \"#utility.yul\":9767:9775   */\n      dup7\n        /* \"#utility.yul\":9756:9765   */\n      dup4\n        /* \"#utility.yul\":9737:9776   */\n      tag_122\n      jump\t// in\n    tag_220:\n        /* \"#utility.yul\":9725:9776   */\n      swap6\n      pop\n        /* \"#utility.yul\":9809:9813   */\n      dup1\n        /* \"#utility.yul\":9805:9814   */\n      not\n        /* \"#utility.yul\":9798:9803   */\n      dup5\n        /* \"#utility.yul\":9794:9815   */\n      and\n        /* \"#utility.yul\":9785:9815   */\n      swap4\n      pop\n        /* \"#utility.yul\":9858:9862   */\n      dup1\n        /* \"#utility.yul\":9848:9856   */\n      dup7\n        /* \"#utility.yul\":9844:9863   */\n      and\n        /* \"#utility.yul\":9837:9842   */\n      dup5\n        /* \"#utility.yul\":9834:9864   */\n      or\n        /* \"#utility.yul\":9824:9864   */\n      swap3\n      pop\n        /* \"#utility.yul\":9553:9870   */\n      pop\n      pop\n        /* \"#utility.yul\":9477:9870   */\n      swap4\n      swap3\n      pop\n      pop\n      pop\n      jump\t// out\n        /* \"#utility.yul\":9876:9936   */\n    tag_124:\n        /* \"#utility.yul\":9904:9907   */\n      0x00\n        /* \"#utility.yul\":9925:9930   */\n      dup2\n        /* \"#utility.yul\":9918:9930   */\n      swap1\n      pop\n        /* \"#utility.yul\":9876:9936   */\n      swap2\n      swap1\n      pop\n      jump\t// out\n        /* \"#utility.yul\":9942:10084   */\n    tag_125:\n        /* \"#utility.yul\":9992:10001   */\n      0x00\n        /* \"#utility.yul\":10025:10078   */\n      tag_223\n        /* \"#utility.yul\":10043:10077   */\n      tag_224\n        /* \"#utility.yul\":10052:10076   */\n      tag_225\n        /* \"#utility.yul\":10070:10075   */\n      dup5\n        /* \"#utility.yul\":10052:10076   */\n      tag_102\n      jump\t// in\n    tag_225:\n        /* \"#utility.yul\":10043:10077   */\n      tag_124\n      jump\t// in\n    tag_224:\n        /* \"#utility.yul\":10025:10078   */\n      tag_102\n      jump\t// in\n    tag_223:\n        /* \"#utility.yul\":10012:10078   */\n      swap1\n      pop\n        /* \"#utility.yul\":9942:10084   */\n      swap2\n      swap1\n      pop\n      jump\t// out\n        /* \"#utility.yul\":10090:10165   */\n    tag_126:\n        /* \"#utility.yul\":10133:10136   */\n      0x00\n        /* \"#utility.yul\":10154:10159   */\n      dup2\n        /* \"#utility.yul\":10147:10159   */\n      swap1\n      pop\n        /* \"#utility.yul\":10090:10165   */\n      swap2\n      swap1\n      pop\n      jump\t// out\n        /* \"#utility.yul\":10171:10440   */\n    tag_127:\n        /* \"#utility.yul\":10281:10320   */\n      tag_228\n        /* \"#utility.yul\":10312:10319   */\n      dup4\n        /* \"#utility.yul\":10281:10320   */\n      tag_125\n      jump\t// in\n    tag_228:\n        /* \"#utility.yul\":10342:10433   */\n      tag_229\n        /* \"#utility.yul\":10391:10432   */\n      tag_230\n        /* \"#utility.yul\":10415:10431   */\n      dup3\n        /* \"#utility.yul\":10391:10432   */\n      tag_126\n      jump\t// in\n    tag_230:\n        /* \"#utility.yul\":10383:10389   */\n      dup5\n        /* \"#utility.yul\":10376:10380   */\n      dup5\n        /* \"#utility.yul\":10370:10381   */\n      sload\n        /* \"#utility.yul\":10342:10433   */\n      tag_123\n      jump\t// in\n    tag_229:\n        /* \"#utility.yul\":10336:10340   */\n      dup3\n        /* \"#utility.yul\":10329:10434   */\n      sstore\n        /* \"#utility.yul\":10247:10440   */\n      pop\n        /* \"#utility.yul\":10171:10440   */\n      pop\n      pop\n      pop\n      jump\t// out\n        /* \"#utility.yul\":10446:10519   */\n    tag_128:\n        /* \"#utility.yul\":10491:10494   */\n      0x00\n        /* \"#utility.yul\":10446:10519   */\n      swap1\n      jump\t// out\n        /* \"#utility.yul\":10525:10714   */\n    tag_129:\n        /* \"#utility.yul\":10602:10634   */\n      tag_233\n      tag_128\n      jump\t// in\n    tag_233:\n        /* \"#utility.yul\":10643:10708   */\n      tag_234\n        /* \"#utility.yul\":10701:10707   */\n      dup2\n        /* \"#utility.yul\":10693:10699   */\n      dup5\n        /* \"#utility.yul\":10687:10691   */\n      dup5\n        /* \"#utility.yul\":10643:10708   */\n      tag_127\n      jump\t// in\n    tag_234:\n        /* \"#utility.yul\":10578:10714   */\n      pop\n        /* \"#utility.yul\":10525:10714   */\n      pop\n      pop\n      jump\t// out\n        /* \"#utility.yul\":10720:10906   */\n    tag_130:\n        /* \"#utility.yul\":10780:10900   */\n    tag_236:\n        /* \"#utility.yul\":10797:10800   */\n      dup2\n        /* \"#utility.yul\":10790:10795   */\n      dup2\n        /* \"#utility.yul\":10787:10801   */\n      lt\n        /* \"#utility.yul\":10780:10900   */\n      iszero\n      tag_238\n      jumpi\n        /* \"#utility.yul\":10851:10890   */\n      tag_239\n        /* \"#utility.yul\":10888:10889   */\n      0x00\n        /* \"#utility.yul\":10881:10886   */\n      dup3\n        /* \"#utility.yul\":10851:10890   */\n      tag_129\n      jump\t// in\n    tag_239:\n        /* \"#utility.yul\":10824:10825   */\n      0x01\n        /* \"#utility.yul\":10817:10822   */\n      dup2\n        /* \"#utility.yul\":10813:10826   */\n      add\n        /* \"#utility.yul\":10804:10826   */\n      swap1\n      pop\n        /* \"#utility.yul\":10780:10900   */\n      jump(tag_236)\n    tag_238:\n        /* \"#utility.yul\":10720:10906   */\n      pop\n      pop\n      jump\t// out\n        /* \"#utility.yul\":10912:11455   */\n    tag_131:\n        /* \"#utility.yul\":11013:11015   */\n      0x1f\n        /* \"#utility.yul\":11008:11011   */\n      dup3\n        /* \"#utility.yul\":11005:11016   */\n      gt\n        /* \"#utility.yul\":11002:11448   */\n      iszero\n      tag_241\n      jumpi\n        /* \"#utility.yul\":11047:11085   */\n      tag_242\n        /* \"#utility.yul\":11079:11084   */\n      dup2\n        /* \"#utility.yul\":11047:11085   */\n      tag_120\n      jump\t// in\n    tag_242:\n        /* \"#utility.yul\":11131:11160   */\n      tag_243\n        /* \"#utility.yul\":11149:11159   */\n      dup5\n        /* \"#utility.yul\":11131:11160   */\n      tag_121\n      jump\t// in\n    tag_243:\n        /* \"#utility.yul\":11121:11129   */\n      dup2\n        /* \"#utility.yul\":11117:11161   */\n      add\n        /* \"#utility.yul\":11314:11316   */\n      0x20\n        /* \"#utility.yul\":11302:11312   */\n      dup6\n        /* \"#utility.yul\":11299:11317   */\n      lt\n        /* \"#utility.yul\":11296:11345   */\n      iszero\n      tag_244\n      jumpi\n        /* \"#utility.yul\":11335:11343   */\n      dup2\n        /* \"#utility.yul\":11320:11343   */\n      swap1\n      pop\n        /* \"#utility.yul\":11296:11345   */\n    tag_244:\n        /* \"#utility.yul\":11358:11438   */\n      tag_245\n        /* \"#utility.yul\":11414:11436   */\n      tag_246\n        /* \"#utility.yul\":11432:11435   */\n      dup6\n        /* \"#utility.yul\":11414:11436   */\n      tag_121\n      jump\t// in\n    tag_246:\n        /* \"#utility.yul\":11404:11412   */\n      dup4\n        /* \"#utility.yul\":11400:11437   */\n      add\n        /* \"#utility.yul\":11387:11398   */\n      dup3\n        /* \"#utility.yul\":11358:11438   */\n      tag_130\n      jump\t// in\n    tag_245:\n        /* \"#utility.yul\":11017:11448   */\n      pop\n      pop\n        /* \"#utility.yul\":11002:11448   */\n    tag_241:\n        /* \"#utility.yul\":10912:11455   */\n      pop\n      pop\n      pop\n      jump\t// out\n        /* \"#utility.yul\":11461:11578   */\n    tag_132:\n        /* \"#utility.yul\":11515:11523   */\n      0x00\n        /* \"#utility.yul\":11565:11570   */\n      dup3\n        /* \"#utility.yul\":11559:11563   */\n      dup3\n        /* \"#utility.yul\":11555:11571   */\n      shr\n        /* \"#utility.yul\":11534:11571   */\n      swap1\n      pop\n        /* \"#utility.yul\":11461:11578   */\n      swap3\n      swap2\n      pop\n      pop\n      jump\t// out\n        /* \"#utility.yul\":11584:11753   */\n    tag_133:\n        /* \"#utility.yul\":11628:11634   */\n      0x00\n        /* \"#utility.yul\":11661:11712   */\n      tag_249\n        /* \"#utility.yul\":11709:11710   */\n      0x00\n        /* \"#utility.yul\":11705:11711   */\n      not\n        /* \"#utility.yul\":11697:11702   */\n      dup5\n        /* \"#utility.yul\":11694:11695   */\n      0x08\n        /* \"#utility.yul\":11690:11703   */\n      mul\n        /* \"#utility.yul\":11661:11712   */\n      tag_132\n      jump\t// in\n    tag_249:\n        /* \"#utility.yul\":11657:11713   */\n      not\n        /* \"#utility.yul\":11742:11746   */\n      dup1\n        /* \"#utility.yul\":11736:11740   */\n      dup4\n        /* \"#utility.yul\":11732:11747   */\n      and\n        /* \"#utility.yul\":11722:11747   */\n      swap2\n      pop\n        /* \"#utility.yul\":11635:11753   */\n      pop\n        /* \"#utility.yul\":11584:11753   */\n      swap3\n      swap2\n      pop\n      pop\n      jump\t// out\n        /* \"#utility.yul\":11758:12053   */\n    tag_134:\n        /* \"#utility.yul\":11834:11838   */\n      0x00\n        /* \"#utility.yul\":11980:12009   */\n      tag_251\n        /* \"#utility.yul\":12005:12008   */\n      dup4\n        /* \"#utility.yul\":11999:12003   */\n      dup4\n        /* \"#utility.yul\":11980:12009   */\n      tag_133\n      jump\t// in\n    tag_251:\n        /* \"#utility.yul\":11972:12009   */\n      swap2\n      pop\n        /* \"#utility.yul\":12042:12045   */\n      dup3\n        /* \"#utility.yul\":12039:12040   */\n      0x02\n        /* \"#utility.yul\":12035:12046   */\n      mul\n        /* \"#utility.yul\":12029:12033   */\n      dup3\n        /* \"#utility.yul\":12026:12047   */\n      or\n        /* \"#utility.yul\":12018:12047   */\n      swap1\n      pop\n        /* \"#utility.yul\":11758:12053   */\n      swap3\n      swap2\n      pop\n      pop\n      jump\t// out\n        /* \"#utility.yul\":12058:13453   */\n    tag_28:\n        /* \"#utility.yul\":12175:12212   */\n      tag_253\n        /* \"#utility.yul\":12208:12211   */\n      dup3\n        /* \"#utility.yul\":12175:12212   */\n      tag_108\n      jump\t// in\n    tag_253:\n        /* \"#utility.yul\":12277:12295   */\n      0xffffffffffffffff\n        /* \"#utility.yul\":12269:12275   */\n      dup2\n        /* \"#utility.yul\":12266:12296   */\n      gt\n        /* \"#utility.yul\":12263:12319   */\n      iszero\n      tag_254\n      jumpi\n        /* \"#utility.yul\":12299:12317   */\n      tag_255\n      tag_50\n      jump\t// in\n    tag_255:\n        /* \"#utility.yul\":12263:12319   */\n    tag_254:\n        /* \"#utility.yul\":12343:12381   */\n      tag_256\n        /* \"#utility.yul\":12375:12379   */\n      dup3\n        /* \"#utility.yul\":12369:12380   */\n      sload\n        /* \"#utility.yul\":12343:12381   */\n      tag_34\n      jump\t// in\n    tag_256:\n        /* \"#utility.yul\":12428:12495   */\n      tag_257\n        /* \"#utility.yul\":12488:12494   */\n      dup3\n        /* \"#utility.yul\":12480:12486   */\n      dup3\n        /* \"#utility.yul\":12474:12478   */\n      dup6\n        /* \"#utility.yul\":12428:12495   */\n      tag_131\n      jump\t// in\n    tag_257:\n        /* \"#utility.yul\":12522:12523   */\n      0x00\n        /* \"#utility.yul\":12546:12550   */\n      0x20\n        /* \"#utility.yul\":12533:12550   */\n      swap1\n      pop\n        /* \"#utility.yul\":12578:12580   */\n      0x1f\n        /* \"#utility.yul\":12570:12576   */\n      dup4\n        /* \"#utility.yul\":12567:12581   */\n      gt\n        /* \"#utility.yul\":12595:12596   */\n      0x01\n        /* \"#utility.yul\":12590:13208   */\n      dup2\n      eq\n      tag_259\n      jumpi\n        /* \"#utility.yul\":13252:13253   */\n      0x00\n        /* \"#utility.yul\":13269:13275   */\n      dup5\n        /* \"#utility.yul\":13266:13343   */\n      iszero\n      tag_260\n      jumpi\n        /* \"#utility.yul\":13318:13327   */\n      dup3\n        /* \"#utility.yul\":13313:13316   */\n      dup8\n        /* \"#utility.yul\":13309:13328   */\n      add\n        /* \"#utility.yul\":13303:13329   */\n      mload\n        /* \"#utility.yul\":13294:13329   */\n      swap1\n      pop\n        /* \"#utility.yul\":13266:13343   */\n    tag_260:\n        /* \"#utility.yul\":13369:13436   */\n      tag_261\n        /* \"#utility.yul\":13429:13435   */\n      dup6\n        /* \"#utility.yul\":13422:13427   */\n      dup3\n        /* \"#utility.yul\":13369:13436   */\n      tag_134\n      jump\t// in\n    tag_261:\n        /* \"#utility.yul\":13363:13367   */\n      dup7\n        /* \"#utility.yul\":13356:13437   */\n      sstore\n        /* \"#utility.yul\":13225:13447   */\n      pop\n        /* \"#utility.yul\":12560:13447   */\n      jump(tag_258)\n        /* \"#utility.yul\":12590:13208   */\n    tag_259:\n        /* \"#utility.yul\":12642:12646   */\n      0x1f\n        /* \"#utility.yul\":12638:12647   */\n      not\n        /* \"#utility.yul\":12630:12636   */\n      dup5\n        /* \"#utility.yul\":12626:12648   */\n      and\n        /* \"#utility.yul\":12676:12713   */\n      tag_262\n        /* \"#utility.yul\":12708:12712   */\n      dup7\n        /* \"#utility.yul\":12676:12713   */\n      tag_120\n      jump\t// in\n    tag_262:\n        /* \"#utility.yul\":12735:12736   */\n      0x00\n        /* \"#utility.yul\":12749:12957   */\n    tag_263:\n        /* \"#utility.yul\":12763:12770   */\n      dup3\n        /* \"#utility.yul\":12760:12761   */\n      dup2\n        /* \"#utility.yul\":12757:12771   */\n      lt\n        /* \"#utility.yul\":12749:12957   */\n      iszero\n      tag_265\n      jumpi\n        /* \"#utility.yul\":12842:12851   */\n      dup5\n        /* \"#utility.yul\":12837:12840   */\n      dup10\n        /* \"#utility.yul\":12833:12852   */\n      add\n        /* \"#utility.yul\":12827:12853   */\n      mload\n        /* \"#utility.yul\":12819:12825   */\n      dup3\n        /* \"#utility.yul\":12812:12854   */\n      sstore\n        /* \"#utility.yul\":12893:12894   */\n      0x01\n        /* \"#utility.yul\":12885:12891   */\n      dup3\n        /* \"#utility.yul\":12881:12895   */\n      add\n        /* \"#utility.yul\":12871:12895   */\n      swap2\n      pop\n        /* \"#utility.yul\":12940:12942   */\n      0x20\n        /* \"#utility.yul\":12929:12938   */\n      dup6\n        /* \"#utility.yul\":12925:12943   */\n      add\n        /* \"#utility.yul\":12912:12943   */\n      swap5\n      pop\n        /* \"#utility.yul\":12786:12790   */\n      0x20\n        /* \"#utility.yul\":12783:12784   */\n      dup2\n        /* \"#utility.yul\":12779:12791   */\n      add\n        /* \"#utility.yul\":12774:12791   */\n      swap1\n      pop\n        /* \"#utility.yul\":12749:12957   */\n      jump(tag_263)\n    tag_265:\n        /* \"#utility.yul\":12985:12991   */\n      dup7\n        /* \"#utility.yul\":12976:12983   */\n      dup4\n        /* \"#utility.yul\":12973:12992   */\n      lt\n        /* \"#utility.yul\":12970:13149   */\n      iszero\n      tag_266\n      jumpi\n        /* \"#utility.yul\":13043:13052   */\n      dup5\n        /* \"#utility.yul\":13038:13041   */\n      dup10\n        /* \"#utility.yul\":13034:13053   */\n      add\n        /* \"#utility.yul\":13028:13054   */\n      mload\n        /* \"#utility.yul\":13086:13134   */\n      tag_267\n        /* \"#utility.yul\":13128:13132   */\n      0x1f\n        /* \"#utility.yul\":13120:13126   */\n      dup10\n        /* \"#utility.yul\":13116:13133   */\n      and\n        /* \"#utility.yul\":13105:13114   */\n      dup3\n        /* \"#utility.yul\":13086:13134   */\n      tag_133\n      jump\t// in\n    tag_267:\n        /* \"#utility.yul\":13078:13084   */\n      dup4\n        /* \"#utility.yul\":13071:13135   */\n      sstore\n        /* \"#utility.yul\":12993:13149   */\n      pop\n        /* \"#utility.yul\":12970:13149   */\n    tag_266:\n        /* \"#utility.yul\":13195:13196   */\n      0x01\n        /* \"#utility.yul\":13191:13192   */\n      0x02\n        /* \"#utility.yul\":13183:13189   */\n      dup9\n        /* \"#utility.yul\":13179:13193   */\n      mul\n        /* \"#utility.yul\":13175:13197   */\n      add\n        /* \"#utility.yul\":13169:13173   */\n      dup9\n        /* \"#utility.yul\":13162:13198   */\n      sstore\n        /* \"#utility.yul\":12597:13208   */\n      pop\n      pop\n      pop\n        /* \"#utility.yul\":12560:13447   */\n    tag_258:\n      pop\n        /* \"#utility.yul\":12150:13453   */\n      pop\n      pop\n      pop\n        /* \"#utility.yul\":12058:13453   */\n      pop\n      pop\n      jump\t// out\n        /* \"#utility.yul\":13459:13639   */\n    tag_44:\n        /* \"#utility.yul\":13507:13584   */\n      0x4e487b7100000000000000000000000000000000000000000000000000000000\n        /* \"#utility.yul\":13504:13505   */\n      0x00\n        /* \"#utility.yul\":13497:13585   */\n      mstore\n        /* \"#utility.yul\":13604:13608   */\n      0x32\n        /* \"#utility.yul\":13601:13602   */\n      0x04\n        /* \"#utility.yul\":13594:13609   */\n      mstore\n        /* \"#utility.yul\":13628:13632   */\n      0x24\n        /* \"#utility.yul\":13625:13626   */\n      0x00\n        /* \"#utility.yul\":13618:13633   */\n      revert\n        /* \"#utility.yul\":13645:13825   */\n    tag_135:\n        /* \"#utility.yul\":13693:13770   */\n      0x4e487b7100000000000000000000000000000000000000000000000000000000\n        /* \"#utility.yul\":13690:13691   */\n      0x00\n        /* \"#utility.yul\":13683:13771   */\n      mstore\n        /* \"#utility.yul\":13790:13794   */\n      0x11\n        /* \"#utility.yul\":13787:13788   */\n      0x04\n        /* \"#utility.yul\":13780:13795   */\n      mstore\n        /* \"#utility.yul\":13814:13818   */\n      0x24\n        /* \"#utility.yul\":13811:13812   */\n      0x00\n        /* \"#utility.yul\":13804:13819   */\n      revert\n        /* \"#utility.yul\":13831:14064   */\n    tag_47:\n        /* \"#utility.yul\":13870:13873   */\n      0x00\n        /* \"#utility.yul\":13893:13917   */\n      tag_271\n        /* \"#utility.yul\":13911:13916   */\n      dup3\n        /* \"#utility.yul\":13893:13917   */\n      tag_102\n      jump\t// in\n    tag_271:\n        /* \"#utility.yul\":13884:13917   */\n      swap2\n      pop\n        /* \"#utility.yul\":13939:14005   */\n      0xffffffffffffffffffffffffffffffffffffffffffffffffffffffffffffffff\n        /* \"#utility.yul\":13932:13937   */\n      dup3\n        /* \"#utility.yul\":13929:14006   */\n      sub\n        /* \"#utility.yul\":13926:14029   */\n      tag_272\n      jumpi\n        /* \"#utility.yul\":14009:14027   */\n      tag_273\n      tag_135\n      jump\t// in\n    tag_273:\n        /* \"#utility.yul\":13926:14029   */\n    tag_272:\n        /* \"#utility.yul\":14056:14057   */\n      0x01\n        /* \"#utility.yul\":14049:14054   */\n      dup3\n        /* \"#utility.yul\":14045:14058   */\n      add\n        /* \"#utility.yul\":14038:14058   */\n      swap1\n      pop\n        /* \"#utility.yul\":13831:14064   */\n      swap2\n      swap1\n      pop\n      jump\t// out\n        /* \"#utility.yul\":14070:14239   */\n    tag_136:\n        /* \"#utility.yul\":14154:14165   */\n      0x00\n        /* \"#utility.yul\":14188:14194   */\n      dup3\n        /* \"#utility.yul\":14183:14186   */\n      dup3\n        /* \"#utility.yul\":14176:14195   */\n      mstore\n        /* \"#utility.yul\":14228:14232   */\n      0x20\n        /* \"#utility.yul\":14223:14226   */\n      dup3\n        /* \"#utility.yul\":14219:14233   */\n      add\n        /* \"#utility.yul\":14204:14233   */\n      swap1\n      pop\n        /* \"#utility.yul\":14070:14239   */\n      swap3\n      swap2\n      pop\n      pop\n      jump\t// out\n        /* \"#utility.yul\":14245:14411   */\n    tag_137:\n        /* \"#utility.yul\":14385:14403   */\n      0x6e6f2073747564656e7420666f756e6400000000000000000000000000000000\n        /* \"#utility.yul\":14381:14382   */\n      0x00\n        /* \"#utility.yul\":14373:14379   */\n      dup3\n        /* \"#utility.yul\":14369:14383   */\n      add\n        /* \"#utility.yul\":14362:14404   */\n      mstore\n        /* \"#utility.yul\":14245:14411   */\n      pop\n      jump\t// out\n        /* \"#utility.yul\":14417:14783   */\n    tag_138:\n        /* \"#utility.yul\":14559:14562   */\n      0x00\n        /* \"#utility.yul\":14580:14647   */\n      tag_277\n        /* \"#utility.yul\":14644:14646   */\n      0x10\n        /* \"#utility.yul\":14639:14642   */\n      dup4\n        /* \"#utility.yul\":14580:14647   */\n      tag_136\n      jump\t// in\n    tag_277:\n        /* \"#utility.yul\":14573:14647   */\n      swap2\n      pop\n        /* \"#utility.yul\":14656:14749   */\n      tag_278\n        /* \"#utility.yul\":14745:14748   */\n      dup3\n        /* \"#utility.yul\":14656:14749   */\n      tag_137\n      jump\t// in\n    tag_278:\n        /* \"#utility.yul\":14774:14776   */\n      0x20\n        /* \"#utility.yul\":14769:14772   */\n      dup3\n        /* \"#utility.yul\":14765:14777   */\n      add\n        /* \"#utility.yul\":14758:14777   */\n      swap1\n      pop\n        /* \"#utility.yul\":14417:14783   */\n      swap2\n      swap1\n      pop\n      jump\t// out\n        /* \"#utility.yul\":14789:15208   */\n    tag_85:\n        /* \"#utility.yul\":14955:14959   */\n      0x00\n        /* \"#utility.yul\":14993:14995   */\n      0x20\n        /* \"#utility.yul\":14982:14991   */\n      dup3\n        /* \"#utility.yul\":14978:14996   */\n      add\n        /* \"#utility.yul\":14970:14996   */\n      swap1\n      pop\n        /* \"#utility.yul\":15042:15051   */\n      dup2\n        /* \"#utility.yul\":15036:15040   */\n      dup2\n        /* \"#utility.yul\":15032:15052   */\n      sub\n        /* \"#utility.yul\":15028:15029   */\n      0x00\n        /* \"#utility.yul\":15017:15026   */\n      dup4\n        /* \"#utility.yul\":15013:15030   */\n      add\n        /* \"#utility.yul\":15006:15053   */\n      mstore\n        /* \"#utility.yul\":15070:15201   */\n      tag_280\n        /* \"#utility.yul\":15196:15200   */\n      dup2\n        /* \"#utility.yul\":15070:15201   */\n      tag_138\n      jump\t// in\n    tag_280:\n        /* \"#utility.yul\":15062:15201   */\n      swap1\n      pop\n        /* \"#utility.yul\":14789:15208   */\n      swap2\n      swap1\n      pop\n      jump\t// out\n\n    auxdata: 0xa264697066735822122018f41bd70902d7afcd38f206f3a72b719e6cba78faee9d834b840fc8e9bac14a64736f6c634300081a0033\n}\n",
				"bytecode": {
					"linkReferences": {},
					"object": "6080604052348015600e575f80fd5b50610f148061001c5f395ff3fe608060405234801561000f575f80fd5b506004361061004a575f3560e01c806330bf31db1461004e57806334de6dd71461006a578063701bc86e1461009a5780638f747a7e146100ca575b5f80fd5b6100686004803603810190610063919061081f565b6100e8565b005b610084600480360381019061007f9190610890565b6101dd565b6040516100919190610a42565b60405180910390f35b6100b460048036038101906100af9190610890565b61044c565b6040516100c19190610aaf565b60405180910390f35b6100d261062b565b6040516100df9190610a42565b60405180910390f35b5f604051806060016040528086868080601f0160208091040260200160405190810160405280939291908181526020018383808284375f81840152601f19601f8201169050808301925050505050505081526020018481526020018381525090505f803373ffffffffffffffffffffffffffffffffffffffff1673ffffffffffffffffffffffffffffffffffffffff1681526020019081526020015f2081908060018154018082558091505060019003905f5260205f2090600302015f909190919091505f820151815f0190816101bf9190610cf6565b50602082015181600101556040820151816002015550505050505050565b60605f805f3373ffffffffffffffffffffffffffffffffffffffff1673ffffffffffffffffffffffffffffffffffffffff1681526020019081526020015f20805480602002602001604051908101604052809291908181526020015f905b8282101561030e578382905f5260205f2090600302016040518060600160405290815f8201805461026b90610b29565b80601f016020809104026020016040519081016040528092919081815260200182805461029790610b29565b80156102e25780601f106102b9576101008083540402835291602001916102e2565b820191905f5260205f20905b8154815290600101906020018083116102c557829003601f168201915b50505050508152602001600182015481526020016002820154815250508152602001906001019061023b565b5050505090505f805b8251811015610361578483828151811061033457610333610dc5565b5b6020026020010151604001510361035457818061035090610e1f565b9250505b8080600101915050610317565b505f8167ffffffffffffffff81111561037d5761037c610acf565b5b6040519080825280602002602001820160405280156103b657816020015b6103a3610764565b81526020019060019003908161039b5790505b5090505f805b845181101561043f57868582815181106103d9576103d8610dc5565b5b60200260200101516040015103610432578481815181106103fd576103fc610dc5565b5b602002602001015183838151811061041857610417610dc5565b5b6020026020010181905250818061042e90610e1f565b9250505b80806001019150506103bc565b5081945050505050919050565b610454610764565b5f805f3373ffffffffffffffffffffffffffffffffffffffff1673ffffffffffffffffffffffffffffffffffffffff1681526020019081526020015f20805480602002602001604051908101604052809291908181526020015f905b82821015610583578382905f5260205f2090600302016040518060600160405290815f820180546104e090610b29565b80601f016020809104026020016040519081016040528092919081815260200182805461050c90610b29565b80156105575780601f1061052e57610100808354040283529160200191610557565b820191905f5260205f20905b81548152906001019060200180831161053a57829003601f168201915b5050505050815260200160018201548152602001600282015481525050815260200190600101906104b0565b5050505090505f5b81518110156105ea57838282815181106105a8576105a7610dc5565b5b602002602001015160200151036105dd578181815181106105cc576105cb610dc5565b5b602002602001015192505050610626565b808060010191505061058b565b506040517f08c379a000000000000000000000000000000000000000000000000000000000815260040161061d90610ec0565b60405180910390fd5b919050565b60605f803373ffffffffffffffffffffffffffffffffffffffff1673ffffffffffffffffffffffffffffffffffffffff1681526020019081526020015f20805480602002602001604051908101604052809291908181526020015f905b8282101561075b578382905f5260205f2090600302016040518060600160405290815f820180546106b890610b29565b80601f01602080910402602001604051908101604052809291908181526020018280546106e490610b29565b801561072f5780601f106107065761010080835404028352916020019161072f565b820191905f5260205f20905b81548152906001019060200180831161071257829003601f168201915b505050505081526020016001820154815260200160028201548152505081526020019060010190610688565b50505050905090565b6040518060600160405280606081526020015f81526020015f81525090565b5f80fd5b5f80fd5b5f80fd5b5f80fd5b5f80fd5b5f8083601f8401126107ac576107ab61078b565b5b8235905067ffffffffffffffff8111156107c9576107c861078f565b5b6020830191508360018202830111156107e5576107e4610793565b5b9250929050565b5f819050919050565b6107fe816107ec565b8114610808575f80fd5b50565b5f81359050610819816107f5565b92915050565b5f805f806060858703121561083757610836610783565b5b5f85013567ffffffffffffffff81111561085457610853610787565b5b61086087828801610797565b945094505060206108738782880161080b565b92505060406108848782880161080b565b91505092959194509250565b5f602082840312156108a5576108a4610783565b5b5f6108b28482850161080b565b91505092915050565b5f81519050919050565b5f82825260208201905092915050565b5f819050602082019050919050565b5f81519050919050565b5f82825260208201905092915050565b8281835e5f83830152505050565b5f601f19601f8301169050919050565b5f610926826108e4565b61093081856108ee565b93506109408185602086016108fe565b6109498161090c565b840191505092915050565b61095d816107ec565b82525050565b5f606083015f8301518482035f86015261097d828261091c565b91505060208301516109926020860182610954565b5060408301516109a56040860182610954565b508091505092915050565b5f6109bb8383610963565b905092915050565b5f602082019050919050565b5f6109d9826108bb565b6109e381856108c5565b9350836020820285016109f5856108d5565b805f5b85811015610a305784840389528151610a1185826109b0565b9450610a1c836109c3565b925060208a019950506001810190506109f8565b50829750879550505050505092915050565b5f6020820190508181035f830152610a5a81846109cf565b905092915050565b5f606083015f8301518482035f860152610a7c828261091c565b9150506020830151610a916020860182610954565b506040830151610aa46040860182610954565b508091505092915050565b5f6020820190508181035f830152610ac78184610a62565b905092915050565b7f4e487b71000000000000000000000000000000000000000000000000000000005f52604160045260245ffd5b7f4e487b71000000000000000000000000000000000000000000000000000000005f52602260045260245ffd5b5f6002820490506001821680610b4057607f821691505b602082108103610b5357610b52610afc565b5b50919050565b5f819050815f5260205f209050919050565b5f6020601f8301049050919050565b5f82821b905092915050565b5f60088302610bb57fffffffffffffffffffffffffffffffffffffffffffffffffffffffffffffffff82610b7a565b610bbf8683610b7a565b95508019841693508086168417925050509392505050565b5f819050919050565b5f610bfa610bf5610bf0846107ec565b610bd7565b6107ec565b9050919050565b5f819050919050565b610c1383610be0565b610c27610c1f82610c01565b848454610b86565b825550505050565b5f90565b610c3b610c2f565b610c46818484610c0a565b505050565b5b81811015610c6957610c5e5f82610c33565b600181019050610c4c565b5050565b601f821115610cae57610c7f81610b59565b610c8884610b6b565b81016020851015610c97578190505b610cab610ca385610b6b565b830182610c4b565b50505b505050565b5f82821c905092915050565b5f610cce5f1984600802610cb3565b1980831691505092915050565b5f610ce68383610cbf565b9150826002028217905092915050565b610cff826108e4565b67ffffffffffffffff811115610d1857610d17610acf565b5b610d228254610b29565b610d2d828285610c6d565b5f60209050601f831160018114610d5e575f8415610d4c578287015190505b610d568582610cdb565b865550610dbd565b601f198416610d6c86610b59565b5f5b82811015610d9357848901518255600182019150602085019450602081019050610d6e565b86831015610db05784890151610dac601f891682610cbf565b8355505b6001600288020188555050505b505050505050565b7f4e487b71000000000000000000000000000000000000000000000000000000005f52603260045260245ffd5b7f4e487b71000000000000000000000000000000000000000000000000000000005f52601160045260245ffd5b5f610e29826107ec565b91507fffffffffffffffffffffffffffffffffffffffffffffffffffffffffffffffff8203610e5b57610e5a610df2565b5b600182019050919050565b5f82825260208201905092915050565b7f6e6f2073747564656e7420666f756e64000000000000000000000000000000005f82015250565b5f610eaa601083610e66565b9150610eb582610e76565b602082019050919050565b5f6020820190508181035f830152610ed781610e9e565b905091905056fea264697066735822122018f41bd70902d7afcd38f206f3a72b719e6cba78faee9d834b840fc8e9bac14a64736f6c634300081a0033",
					"opcodes": "PUSH1 0x80 PUSH1 0x40 MSTORE CALLVALUE DUP1 ISZERO PUSH1 0xE JUMPI PUSH0 DUP1 REVERT JUMPDEST POP PUSH2 0xF14 DUP1 PUSH2 0x1C PUSH0 CODECOPY PUSH0 RETURN INVALID PUSH1 0x80 PUSH1 0x40 MSTORE CALLVALUE DUP1 ISZERO PUSH2 0xF JUMPI PUSH0 DUP1 REVERT JUMPDEST POP PUSH1 0x4 CALLDATASIZE LT PUSH2 0x4A JUMPI PUSH0 CALLDATALOAD PUSH1 0xE0 SHR DUP1 PUSH4 0x30BF31DB EQ PUSH2 0x4E JUMPI DUP1 PUSH4 0x34DE6DD7 EQ PUSH2 0x6A JUMPI DUP1 PUSH4 0x701BC86E EQ PUSH2 0x9A JUMPI DUP1 PUSH4 0x8F747A7E EQ PUSH2 0xCA JUMPI JUMPDEST PUSH0 DUP1 REVERT JUMPDEST PUSH2 0x68 PUSH1 0x4 DUP1 CALLDATASIZE SUB DUP2 ADD SWAP1 PUSH2 0x63 SWAP2 SWAP1 PUSH2 0x81F JUMP JUMPDEST PUSH2 0xE8 JUMP JUMPDEST STOP JUMPDEST PUSH2 0x84 PUSH1 0x4 DUP1 CALLDATASIZE SUB DUP2 ADD SWAP1 PUSH2 0x7F SWAP2 SWAP1 PUSH2 0x890 JUMP JUMPDEST PUSH2 0x1DD JUMP JUMPDEST PUSH1 0x40 MLOAD PUSH2 0x91 SWAP2 SWAP1 PUSH2 0xA42 JUMP JUMPDEST PUSH1 0x40 MLOAD DUP1 SWAP2 SUB SWAP1 RETURN JUMPDEST PUSH2 0xB4 PUSH1 0x4 DUP1 CALLDATASIZE SUB DUP2 ADD SWAP1 PUSH2 0xAF SWAP2 SWAP1 PUSH2 0x890 JUMP JUMPDEST PUSH2 0x44C JUMP JUMPDEST PUSH1 0x40 MLOAD PUSH2 0xC1 SWAP2 SWAP1 PUSH2 0xAAF JUMP JUMPDEST PUSH1 0x40 MLOAD DUP1 SWAP2 SUB SWAP1 RETURN JUMPDEST PUSH2 0xD2 PUSH2 0x62B JUMP JUMPDEST PUSH1 0x40 MLOAD PUSH2 0xDF SWAP2 SWAP1 PUSH2 0xA42 JUMP JUMPDEST PUSH1 0x40 MLOAD DUP1 SWAP2 SUB SWAP1 RETURN JUMPDEST PUSH0 PUSH1 0x40 MLOAD DUP1 PUSH1 0x60 ADD PUSH1 0x40 MSTORE DUP1 DUP7 DUP7 DUP1 DUP1 PUSH1 0x1F ADD PUSH1 0x20 DUP1 SWAP2 DIV MUL PUSH1 0x20 ADD PUSH1 0x40 MLOAD SWAP1 DUP2 ADD PUSH1 0x40 MSTORE DUP1 SWAP4 SWAP3 SWAP2 SWAP1 DUP2 DUP2 MSTORE PUSH1 0x20 ADD DUP4 DUP4 DUP1 DUP3 DUP5 CALLDATACOPY PUSH0 DUP2 DUP5 ADD MSTORE PUSH1 0x1F NOT PUSH1 0x1F DUP3 ADD AND SWAP1 POP DUP1 DUP4 ADD SWAP3 POP POP POP POP POP POP POP DUP2 MSTORE PUSH1 0x20 ADD DUP5 DUP2 MSTORE PUSH1 0x20 ADD DUP4 DUP2 MSTORE POP SWAP1 POP PUSH0 DUP1 CALLER PUSH20 0xFFFFFFFFFFFFFFFFFFFFFFFFFFFFFFFFFFFFFFFF AND PUSH20 0xFFFFFFFFFFFFFFFFFFFFFFFFFFFFFFFFFFFFFFFF AND DUP2 MSTORE PUSH1 0x20 ADD SWAP1 DUP2 MSTORE PUSH1 0x20 ADD PUSH0 KECCAK256 DUP2 SWAP1 DUP1 PUSH1 0x1 DUP2 SLOAD ADD DUP1 DUP3 SSTORE DUP1 SWAP2 POP POP PUSH1 0x1 SWAP1 SUB SWAP1 PUSH0 MSTORE PUSH1 0x20 PUSH0 KECCAK256 SWAP1 PUSH1 0x3 MUL ADD PUSH0 SWAP1 SWAP2 SWAP1 SWAP2 SWAP1 SWAP2 POP PUSH0 DUP3 ADD MLOAD DUP2 PUSH0 ADD SWAP1 DUP2 PUSH2 0x1BF SWAP2 SWAP1 PUSH2 0xCF6 JUMP JUMPDEST POP PUSH1 0x20 DUP3 ADD MLOAD DUP2 PUSH1 0x1 ADD SSTORE PUSH1 0x40 DUP3 ADD MLOAD DUP2 PUSH1 0x2 ADD SSTORE POP POP POP POP POP POP POP JUMP JUMPDEST PUSH1 0x60 PUSH0 DUP1 PUSH0 CALLER PUSH20 0xFFFFFFFFFFFFFFFFFFFFFFFFFFFFFFFFFFFFFFFF AND PUSH20 0xFFFFFFFFFFFFFFFFFFFFFFFFFFFFFFFFFFFFFFFF AND DUP2 MSTORE PUSH1 0x20 ADD SWAP1 DUP2 MSTORE PUSH1 0x20 ADD PUSH0 KECCAK256 DUP1 SLOAD DUP1 PUSH1 0x20 MUL PUSH1 0x20 ADD PUSH1 0x40 MLOAD SWAP1 DUP2 ADD PUSH1 0x40 MSTORE DUP1 SWAP3 SWAP2 SWAP1 DUP2 DUP2 MSTORE PUSH1 0x20 ADD PUSH0 SWAP1 JUMPDEST DUP3 DUP3 LT ISZERO PUSH2 0x30E JUMPI DUP4 DUP3 SWAP1 PUSH0 MSTORE PUSH1 0x20 PUSH0 KECCAK256 SWAP1 PUSH1 0x3 MUL ADD PUSH1 0x40 MLOAD DUP1 PUSH1 0x60 ADD PUSH1 0x40 MSTORE SWAP1 DUP2 PUSH0 DUP3 ADD DUP1 SLOAD PUSH2 0x26B SWAP1 PUSH2 0xB29 JUMP JUMPDEST DUP1 PUSH1 0x1F ADD PUSH1 0x20 DUP1 SWAP2 DIV MUL PUSH1 0x20 ADD PUSH1 0x40 MLOAD SWAP1 DUP2 ADD PUSH1 0x40 MSTORE DUP1 SWAP3 SWAP2 SWAP1 DUP2 DUP2 MSTORE PUSH1 0x20 ADD DUP3 DUP1 SLOAD PUSH2 0x297 SWAP1 PUSH2 0xB29 JUMP JUMPDEST DUP1 ISZERO PUSH2 0x2E2 JUMPI DUP1 PUSH1 0x1F LT PUSH2 0x2B9 JUMPI PUSH2 0x100 DUP1 DUP4 SLOAD DIV MUL DUP4 MSTORE SWAP2 PUSH1 0x20 ADD SWAP2 PUSH2 0x2E2 JUMP JUMPDEST DUP3 ADD SWAP2 SWAP1 PUSH0 MSTORE PUSH1 0x20 PUSH0 KECCAK256 SWAP1 JUMPDEST DUP2 SLOAD DUP2 MSTORE SWAP1 PUSH1 0x1 ADD SWAP1 PUSH1 0x20 ADD DUP1 DUP4 GT PUSH2 0x2C5 JUMPI DUP3 SWAP1 SUB PUSH1 0x1F AND DUP3 ADD SWAP2 JUMPDEST POP POP POP POP POP DUP2 MSTORE PUSH1 0x20 ADD PUSH1 0x1 DUP3 ADD SLOAD DUP2 MSTORE PUSH1 0x20 ADD PUSH1 0x2 DUP3 ADD SLOAD DUP2 MSTORE POP POP DUP2 MSTORE PUSH1 0x20 ADD SWAP1 PUSH1 0x1 ADD SWAP1 PUSH2 0x23B JUMP JUMPDEST POP POP POP POP SWAP1 POP PUSH0 DUP1 JUMPDEST DUP3 MLOAD DUP2 LT ISZERO PUSH2 0x361 JUMPI DUP5 DUP4 DUP3 DUP2 MLOAD DUP2 LT PUSH2 0x334 JUMPI PUSH2 0x333 PUSH2 0xDC5 JUMP JUMPDEST JUMPDEST PUSH1 0x20 MUL PUSH1 0x20 ADD ADD MLOAD PUSH1 0x40 ADD MLOAD SUB PUSH2 0x354 JUMPI DUP2 DUP1 PUSH2 0x350 SWAP1 PUSH2 0xE1F JUMP JUMPDEST SWAP3 POP POP JUMPDEST DUP1 DUP1 PUSH1 0x1 ADD SWAP2 POP POP PUSH2 0x317 JUMP JUMPDEST POP PUSH0 DUP2 PUSH8 0xFFFFFFFFFFFFFFFF DUP2 GT ISZERO PUSH2 0x37D JUMPI PUSH2 0x37C PUSH2 0xACF JUMP JUMPDEST JUMPDEST PUSH1 0x40 MLOAD SWAP1 DUP1 DUP3 MSTORE DUP1 PUSH1 0x20 MUL PUSH1 0x20 ADD DUP3 ADD PUSH1 0x40 MSTORE DUP1 ISZERO PUSH2 0x3B6 JUMPI DUP2 PUSH1 0x20 ADD JUMPDEST PUSH2 0x3A3 PUSH2 0x764 JUMP JUMPDEST DUP2 MSTORE PUSH1 0x20 ADD SWAP1 PUSH1 0x1 SWAP1 SUB SWAP1 DUP2 PUSH2 0x39B JUMPI SWAP1 POP JUMPDEST POP SWAP1 POP PUSH0 DUP1 JUMPDEST DUP5 MLOAD DUP2 LT ISZERO PUSH2 0x43F JUMPI DUP7 DUP6 DUP3 DUP2 MLOAD DUP2 LT PUSH2 0x3D9 JUMPI PUSH2 0x3D8 PUSH2 0xDC5 JUMP JUMPDEST JUMPDEST PUSH1 0x20 MUL PUSH1 0x20 ADD ADD MLOAD PUSH1 0x40 ADD MLOAD SUB PUSH2 0x432 JUMPI DUP5 DUP2 DUP2 MLOAD DUP2 LT PUSH2 0x3FD JUMPI PUSH2 0x3FC PUSH2 0xDC5 JUMP JUMPDEST JUMPDEST PUSH1 0x20 MUL PUSH1 0x20 ADD ADD MLOAD DUP4 DUP4 DUP2 MLOAD DUP2 LT PUSH2 0x418 JUMPI PUSH2 0x417 PUSH2 0xDC5 JUMP JUMPDEST JUMPDEST PUSH1 0x20 MUL PUSH1 0x20 ADD ADD DUP2 SWAP1 MSTORE POP DUP2 DUP1 PUSH2 0x42E SWAP1 PUSH2 0xE1F JUMP JUMPDEST SWAP3 POP POP JUMPDEST DUP1 DUP1 PUSH1 0x1 ADD SWAP2 POP POP PUSH2 0x3BC JUMP JUMPDEST POP DUP2 SWAP5 POP POP POP POP POP SWAP2 SWAP1 POP JUMP JUMPDEST PUSH2 0x454 PUSH2 0x764 JUMP JUMPDEST PUSH0 DUP1 PUSH0 CALLER PUSH20 0xFFFFFFFFFFFFFFFFFFFFFFFFFFFFFFFFFFFFFFFF AND PUSH20 0xFFFFFFFFFFFFFFFFFFFFFFFFFFFFFFFFFFFFFFFF AND DUP2 MSTORE PUSH1 0x20 ADD SWAP1 DUP2 MSTORE PUSH1 0x20 ADD PUSH0 KECCAK256 DUP1 SLOAD DUP1 PUSH1 0x20 MUL PUSH1 0x20 ADD PUSH1 0x40 MLOAD SWAP1 DUP2 ADD PUSH1 0x40 MSTORE DUP1 SWAP3 SWAP2 SWAP1 DUP2 DUP2 MSTORE PUSH1 0x20 ADD PUSH0 SWAP1 JUMPDEST DUP3 DUP3 LT ISZERO PUSH2 0x583 JUMPI DUP4 DUP3 SWAP1 PUSH0 MSTORE PUSH1 0x20 PUSH0 KECCAK256 SWAP1 PUSH1 0x3 MUL ADD PUSH1 0x40 MLOAD DUP1 PUSH1 0x60 ADD PUSH1 0x40 MSTORE SWAP1 DUP2 PUSH0 DUP3 ADD DUP1 SLOAD PUSH2 0x4E0 SWAP1 PUSH2 0xB29 JUMP JUMPDEST DUP1 PUSH1 0x1F ADD PUSH1 0x20 DUP1 SWAP2 DIV MUL PUSH1 0x20 ADD PUSH1 0x40 MLOAD SWAP1 DUP2 ADD PUSH1 0x40 MSTORE DUP1 SWAP3 SWAP2 SWAP1 DUP2 DUP2 MSTORE PUSH1 0x20 ADD DUP3 DUP1 SLOAD PUSH2 0x50C SWAP1 PUSH2 0xB29 JUMP JUMPDEST DUP1 ISZERO PUSH2 0x557 JUMPI DUP1 PUSH1 0x1F LT PUSH2 0x52E JUMPI PUSH2 0x100 DUP1 DUP4 SLOAD DIV MUL DUP4 MSTORE SWAP2 PUSH1 0x20 ADD SWAP2 PUSH2 0x557 JUMP JUMPDEST DUP3 ADD SWAP2 SWAP1 PUSH0 MSTORE PUSH1 0x20 PUSH0 KECCAK256 SWAP1 JUMPDEST DUP2 SLOAD DUP2 MSTORE SWAP1 PUSH1 0x1 ADD SWAP1 PUSH1 0x20 ADD DUP1 DUP4 GT PUSH2 0x53A JUMPI DUP3 SWAP1 SUB PUSH1 0x1F AND DUP3 ADD SWAP2 JUMPDEST POP POP POP POP POP DUP2 MSTORE PUSH1 0x20 ADD PUSH1 0x1 DUP3 ADD SLOAD DUP2 MSTORE PUSH1 0x20 ADD PUSH1 0x2 DUP3 ADD SLOAD DUP2 MSTORE POP POP DUP2 MSTORE PUSH1 0x20 ADD SWAP1 PUSH1 0x1 ADD SWAP1 PUSH2 0x4B0 JUMP JUMPDEST POP POP POP POP SWAP1 POP PUSH0 JUMPDEST DUP2 MLOAD DUP2 LT ISZERO PUSH2 0x5EA JUMPI DUP4 DUP3 DUP3 DUP2 MLOAD DUP2 LT PUSH2 0x5A8 JUMPI PUSH2 0x5A7 PUSH2 0xDC5 JUMP JUMPDEST JUMPDEST PUSH1 0x20 MUL PUSH1 0x20 ADD ADD MLOAD PUSH1 0x20 ADD MLOAD SUB PUSH2 0x5DD JUMPI DUP2 DUP2 DUP2 MLOAD DUP2 LT PUSH2 0x5CC JUMPI PUSH2 0x5CB PUSH2 0xDC5 JUMP JUMPDEST JUMPDEST PUSH1 0x20 MUL PUSH1 0x20 ADD ADD MLOAD SWAP3 POP POP POP PUSH2 0x626 JUMP JUMPDEST DUP1 DUP1 PUSH1 0x1 ADD SWAP2 POP POP PUSH2 0x58B JUMP JUMPDEST POP PUSH1 0x40 MLOAD PUSH32 0x8C379A000000000000000000000000000000000000000000000000000000000 DUP2 MSTORE PUSH1 0x4 ADD PUSH2 0x61D SWAP1 PUSH2 0xEC0 JUMP JUMPDEST PUSH1 0x40 MLOAD DUP1 SWAP2 SUB SWAP1 REVERT JUMPDEST SWAP2 SWAP1 POP JUMP JUMPDEST PUSH1 0x60 PUSH0 DUP1 CALLER PUSH20 0xFFFFFFFFFFFFFFFFFFFFFFFFFFFFFFFFFFFFFFFF AND PUSH20 0xFFFFFFFFFFFFFFFFFFFFFFFFFFFFFFFFFFFFFFFF AND DUP2 MSTORE PUSH1 0x20 ADD SWAP1 DUP2 MSTORE PUSH1 0x20 ADD PUSH0 KECCAK256 DUP1 SLOAD DUP1 PUSH1 0x20 MUL PUSH1 0x20 ADD PUSH1 0x40 MLOAD SWAP1 DUP2 ADD PUSH1 0x40 MSTORE DUP1 SWAP3 SWAP2 SWAP1 DUP2 DUP2 MSTORE PUSH1 0x20 ADD PUSH0 SWAP1 JUMPDEST DUP3 DUP3 LT ISZERO PUSH2 0x75B JUMPI DUP4 DUP3 SWAP1 PUSH0 MSTORE PUSH1 0x20 PUSH0 KECCAK256 SWAP1 PUSH1 0x3 MUL ADD PUSH1 0x40 MLOAD DUP1 PUSH1 0x60 ADD PUSH1 0x40 MSTORE SWAP1 DUP2 PUSH0 DUP3 ADD DUP1 SLOAD PUSH2 0x6B8 SWAP1 PUSH2 0xB29 JUMP JUMPDEST DUP1 PUSH1 0x1F ADD PUSH1 0x20 DUP1 SWAP2 DIV MUL PUSH1 0x20 ADD PUSH1 0x40 MLOAD SWAP1 DUP2 ADD PUSH1 0x40 MSTORE DUP1 SWAP3 SWAP2 SWAP1 DUP2 DUP2 MSTORE PUSH1 0x20 ADD DUP3 DUP1 SLOAD PUSH2 0x6E4 SWAP1 PUSH2 0xB29 JUMP JUMPDEST DUP1 ISZERO PUSH2 0x72F JUMPI DUP1 PUSH1 0x1F LT PUSH2 0x706 JUMPI PUSH2 0x100 DUP1 DUP4 SLOAD DIV MUL DUP4 MSTORE SWAP2 PUSH1 0x20 ADD SWAP2 PUSH2 0x72F JUMP JUMPDEST DUP3 ADD SWAP2 SWAP1 PUSH0 MSTORE PUSH1 0x20 PUSH0 KECCAK256 SWAP1 JUMPDEST DUP2 SLOAD DUP2 MSTORE SWAP1 PUSH1 0x1 ADD SWAP1 PUSH1 0x20 ADD DUP1 DUP4 GT PUSH2 0x712 JUMPI DUP3 SWAP1 SUB PUSH1 0x1F AND DUP3 ADD SWAP2 JUMPDEST POP POP POP POP POP DUP2 MSTORE PUSH1 0x20 ADD PUSH1 0x1 DUP3 ADD SLOAD DUP2 MSTORE PUSH1 0x20 ADD PUSH1 0x2 DUP3 ADD SLOAD DUP2 MSTORE POP POP DUP2 MSTORE PUSH1 0x20 ADD SWAP1 PUSH1 0x1 ADD SWAP1 PUSH2 0x688 JUMP JUMPDEST POP POP POP POP SWAP1 POP SWAP1 JUMP JUMPDEST PUSH1 0x40 MLOAD DUP1 PUSH1 0x60 ADD PUSH1 0x40 MSTORE DUP1 PUSH1 0x60 DUP2 MSTORE PUSH1 0x20 ADD PUSH0 DUP2 MSTORE PUSH1 0x20 ADD PUSH0 DUP2 MSTORE POP SWAP1 JUMP JUMPDEST PUSH0 DUP1 REVERT JUMPDEST PUSH0 DUP1 REVERT JUMPDEST PUSH0 DUP1 REVERT JUMPDEST PUSH0 DUP1 REVERT JUMPDEST PUSH0 DUP1 REVERT JUMPDEST PUSH0 DUP1 DUP4 PUSH1 0x1F DUP5 ADD SLT PUSH2 0x7AC JUMPI PUSH2 0x7AB PUSH2 0x78B JUMP JUMPDEST JUMPDEST DUP3 CALLDATALOAD SWAP1 POP PUSH8 0xFFFFFFFFFFFFFFFF DUP2 GT ISZERO PUSH2 0x7C9 JUMPI PUSH2 0x7C8 PUSH2 0x78F JUMP JUMPDEST JUMPDEST PUSH1 0x20 DUP4 ADD SWAP2 POP DUP4 PUSH1 0x1 DUP3 MUL DUP4 ADD GT ISZERO PUSH2 0x7E5 JUMPI PUSH2 0x7E4 PUSH2 0x793 JUMP JUMPDEST JUMPDEST SWAP3 POP SWAP3 SWAP1 POP JUMP JUMPDEST PUSH0 DUP2 SWAP1 POP SWAP2 SWAP1 POP JUMP JUMPDEST PUSH2 0x7FE DUP2 PUSH2 0x7EC JUMP JUMPDEST DUP2 EQ PUSH2 0x808 JUMPI PUSH0 DUP1 REVERT JUMPDEST POP JUMP JUMPDEST PUSH0 DUP2 CALLDATALOAD SWAP1 POP PUSH2 0x819 DUP2 PUSH2 0x7F5 JUMP JUMPDEST SWAP3 SWAP2 POP POP JUMP JUMPDEST PUSH0 DUP1 PUSH0 DUP1 PUSH1 0x60 DUP6 DUP8 SUB SLT ISZERO PUSH2 0x837 JUMPI PUSH2 0x836 PUSH2 0x783 JUMP JUMPDEST JUMPDEST PUSH0 DUP6 ADD CALLDATALOAD PUSH8 0xFFFFFFFFFFFFFFFF DUP2 GT ISZERO PUSH2 0x854 JUMPI PUSH2 0x853 PUSH2 0x787 JUMP JUMPDEST JUMPDEST PUSH2 0x860 DUP8 DUP3 DUP9 ADD PUSH2 0x797 JUMP JUMPDEST SWAP5 POP SWAP5 POP POP PUSH1 0x20 PUSH2 0x873 DUP8 DUP3 DUP9 ADD PUSH2 0x80B JUMP JUMPDEST SWAP3 POP POP PUSH1 0x40 PUSH2 0x884 DUP8 DUP3 DUP9 ADD PUSH2 0x80B JUMP JUMPDEST SWAP2 POP POP SWAP3 SWAP6 SWAP2 SWAP5 POP SWAP3 POP JUMP JUMPDEST PUSH0 PUSH1 0x20 DUP3 DUP5 SUB SLT ISZERO PUSH2 0x8A5 JUMPI PUSH2 0x8A4 PUSH2 0x783 JUMP JUMPDEST JUMPDEST PUSH0 PUSH2 0x8B2 DUP5 DUP3 DUP6 ADD PUSH2 0x80B JUMP JUMPDEST SWAP2 POP POP SWAP3 SWAP2 POP POP JUMP JUMPDEST PUSH0 DUP2 MLOAD SWAP1 POP SWAP2 SWAP1 POP JUMP JUMPDEST PUSH0 DUP3 DUP3 MSTORE PUSH1 0x20 DUP3 ADD SWAP1 POP SWAP3 SWAP2 POP POP JUMP JUMPDEST PUSH0 DUP2 SWAP1 POP PUSH1 0x20 DUP3 ADD SWAP1 POP SWAP2 SWAP1 POP JUMP JUMPDEST PUSH0 DUP2 MLOAD SWAP1 POP SWAP2 SWAP1 POP JUMP JUMPDEST PUSH0 DUP3 DUP3 MSTORE PUSH1 0x20 DUP3 ADD SWAP1 POP SWAP3 SWAP2 POP POP JUMP JUMPDEST DUP3 DUP2 DUP4 MCOPY PUSH0 DUP4 DUP4 ADD MSTORE POP POP POP JUMP JUMPDEST PUSH0 PUSH1 0x1F NOT PUSH1 0x1F DUP4 ADD AND SWAP1 POP SWAP2 SWAP1 POP JUMP JUMPDEST PUSH0 PUSH2 0x926 DUP3 PUSH2 0x8E4 JUMP JUMPDEST PUSH2 0x930 DUP2 DUP6 PUSH2 0x8EE JUMP JUMPDEST SWAP4 POP PUSH2 0x940 DUP2 DUP6 PUSH1 0x20 DUP7 ADD PUSH2 0x8FE JUMP JUMPDEST PUSH2 0x949 DUP2 PUSH2 0x90C JUMP JUMPDEST DUP5 ADD SWAP2 POP POP SWAP3 SWAP2 POP POP JUMP JUMPDEST PUSH2 0x95D DUP2 PUSH2 0x7EC JUMP JUMPDEST DUP3 MSTORE POP POP JUMP JUMPDEST PUSH0 PUSH1 0x60 DUP4 ADD PUSH0 DUP4 ADD MLOAD DUP5 DUP3 SUB PUSH0 DUP7 ADD MSTORE PUSH2 0x97D DUP3 DUP3 PUSH2 0x91C JUMP JUMPDEST SWAP2 POP POP PUSH1 0x20 DUP4 ADD MLOAD PUSH2 0x992 PUSH1 0x20 DUP7 ADD DUP3 PUSH2 0x954 JUMP JUMPDEST POP PUSH1 0x40 DUP4 ADD MLOAD PUSH2 0x9A5 PUSH1 0x40 DUP7 ADD DUP3 PUSH2 0x954 JUMP JUMPDEST POP DUP1 SWAP2 POP POP SWAP3 SWAP2 POP POP JUMP JUMPDEST PUSH0 PUSH2 0x9BB DUP4 DUP4 PUSH2 0x963 JUMP JUMPDEST SWAP1 POP SWAP3 SWAP2 POP POP JUMP JUMPDEST PUSH0 PUSH1 0x20 DUP3 ADD SWAP1 POP SWAP2 SWAP1 POP JUMP JUMPDEST PUSH0 PUSH2 0x9D9 DUP3 PUSH2 0x8BB JUMP JUMPDEST PUSH2 0x9E3 DUP2 DUP6 PUSH2 0x8C5 JUMP JUMPDEST SWAP4 POP DUP4 PUSH1 0x20 DUP3 MUL DUP6 ADD PUSH2 0x9F5 DUP6 PUSH2 0x8D5 JUMP JUMPDEST DUP1 PUSH0 JUMPDEST DUP6 DUP2 LT ISZERO PUSH2 0xA30 JUMPI DUP5 DUP5 SUB DUP10 MSTORE DUP2 MLOAD PUSH2 0xA11 DUP6 DUP3 PUSH2 0x9B0 JUMP JUMPDEST SWAP5 POP PUSH2 0xA1C DUP4 PUSH2 0x9C3 JUMP JUMPDEST SWAP3 POP PUSH1 0x20 DUP11 ADD SWAP10 POP POP PUSH1 0x1 DUP2 ADD SWAP1 POP PUSH2 0x9F8 JUMP JUMPDEST POP DUP3 SWAP8 POP DUP8 SWAP6 POP POP POP POP POP POP SWAP3 SWAP2 POP POP JUMP JUMPDEST PUSH0 PUSH1 0x20 DUP3 ADD SWAP1 POP DUP2 DUP2 SUB PUSH0 DUP4 ADD MSTORE PUSH2 0xA5A DUP2 DUP5 PUSH2 0x9CF JUMP JUMPDEST SWAP1 POP SWAP3 SWAP2 POP POP JUMP JUMPDEST PUSH0 PUSH1 0x60 DUP4 ADD PUSH0 DUP4 ADD MLOAD DUP5 DUP3 SUB PUSH0 DUP7 ADD MSTORE PUSH2 0xA7C DUP3 DUP3 PUSH2 0x91C JUMP JUMPDEST SWAP2 POP POP PUSH1 0x20 DUP4 ADD MLOAD PUSH2 0xA91 PUSH1 0x20 DUP7 ADD DUP3 PUSH2 0x954 JUMP JUMPDEST POP PUSH1 0x40 DUP4 ADD MLOAD PUSH2 0xAA4 PUSH1 0x40 DUP7 ADD DUP3 PUSH2 0x954 JUMP JUMPDEST POP DUP1 SWAP2 POP POP SWAP3 SWAP2 POP POP JUMP JUMPDEST PUSH0 PUSH1 0x20 DUP3 ADD SWAP1 POP DUP2 DUP2 SUB PUSH0 DUP4 ADD MSTORE PUSH2 0xAC7 DUP2 DUP5 PUSH2 0xA62 JUMP JUMPDEST SWAP1 POP SWAP3 SWAP2 POP POP JUMP JUMPDEST PUSH32 0x4E487B7100000000000000000000000000000000000000000000000000000000 PUSH0 MSTORE PUSH1 0x41 PUSH1 0x4 MSTORE PUSH1 0x24 PUSH0 REVERT JUMPDEST PUSH32 0x4E487B7100000000000000000000000000000000000000000000000000000000 PUSH0 MSTORE PUSH1 0x22 PUSH1 0x4 MSTORE PUSH1 0x24 PUSH0 REVERT JUMPDEST PUSH0 PUSH1 0x2 DUP3 DIV SWAP1 POP PUSH1 0x1 DUP3 AND DUP1 PUSH2 0xB40 JUMPI PUSH1 0x7F DUP3 AND SWAP2 POP JUMPDEST PUSH1 0x20 DUP3 LT DUP2 SUB PUSH2 0xB53 JUMPI PUSH2 0xB52 PUSH2 0xAFC JUMP JUMPDEST JUMPDEST POP SWAP2 SWAP1 POP JUMP JUMPDEST PUSH0 DUP2 SWAP1 POP DUP2 PUSH0 MSTORE PUSH1 0x20 PUSH0 KECCAK256 SWAP1 POP SWAP2 SWAP1 POP JUMP JUMPDEST PUSH0 PUSH1 0x20 PUSH1 0x1F DUP4 ADD DIV SWAP1 POP SWAP2 SWAP1 POP JUMP JUMPDEST PUSH0 DUP3 DUP3 SHL SWAP1 POP SWAP3 SWAP2 POP POP JUMP JUMPDEST PUSH0 PUSH1 0x8 DUP4 MUL PUSH2 0xBB5 PUSH32 0xFFFFFFFFFFFFFFFFFFFFFFFFFFFFFFFFFFFFFFFFFFFFFFFFFFFFFFFFFFFFFFFF DUP3 PUSH2 0xB7A JUMP JUMPDEST PUSH2 0xBBF DUP7 DUP4 PUSH2 0xB7A JUMP JUMPDEST SWAP6 POP DUP1 NOT DUP5 AND SWAP4 POP DUP1 DUP7 AND DUP5 OR SWAP3 POP POP POP SWAP4 SWAP3 POP POP POP JUMP JUMPDEST PUSH0 DUP2 SWAP1 POP SWAP2 SWAP1 POP JUMP JUMPDEST PUSH0 PUSH2 0xBFA PUSH2 0xBF5 PUSH2 0xBF0 DUP5 PUSH2 0x7EC JUMP JUMPDEST PUSH2 0xBD7 JUMP JUMPDEST PUSH2 0x7EC JUMP JUMPDEST SWAP1 POP SWAP2 SWAP1 POP JUMP JUMPDEST PUSH0 DUP2 SWAP1 POP SWAP2 SWAP1 POP JUMP JUMPDEST PUSH2 0xC13 DUP4 PUSH2 0xBE0 JUMP JUMPDEST PUSH2 0xC27 PUSH2 0xC1F DUP3 PUSH2 0xC01 JUMP JUMPDEST DUP5 DUP5 SLOAD PUSH2 0xB86 JUMP JUMPDEST DUP3 SSTORE POP POP POP POP JUMP JUMPDEST PUSH0 SWAP1 JUMP JUMPDEST PUSH2 0xC3B PUSH2 0xC2F JUMP JUMPDEST PUSH2 0xC46 DUP2 DUP5 DUP5 PUSH2 0xC0A JUMP JUMPDEST POP POP POP JUMP JUMPDEST JUMPDEST DUP2 DUP2 LT ISZERO PUSH2 0xC69 JUMPI PUSH2 0xC5E PUSH0 DUP3 PUSH2 0xC33 JUMP JUMPDEST PUSH1 0x1 DUP2 ADD SWAP1 POP PUSH2 0xC4C JUMP JUMPDEST POP POP JUMP JUMPDEST PUSH1 0x1F DUP3 GT ISZERO PUSH2 0xCAE JUMPI PUSH2 0xC7F DUP2 PUSH2 0xB59 JUMP JUMPDEST PUSH2 0xC88 DUP5 PUSH2 0xB6B JUMP JUMPDEST DUP2 ADD PUSH1 0x20 DUP6 LT ISZERO PUSH2 0xC97 JUMPI DUP2 SWAP1 POP JUMPDEST PUSH2 0xCAB PUSH2 0xCA3 DUP6 PUSH2 0xB6B JUMP JUMPDEST DUP4 ADD DUP3 PUSH2 0xC4B JUMP JUMPDEST POP POP JUMPDEST POP POP POP JUMP JUMPDEST PUSH0 DUP3 DUP3 SHR SWAP1 POP SWAP3 SWAP2 POP POP JUMP JUMPDEST PUSH0 PUSH2 0xCCE PUSH0 NOT DUP5 PUSH1 0x8 MUL PUSH2 0xCB3 JUMP JUMPDEST NOT DUP1 DUP4 AND SWAP2 POP POP SWAP3 SWAP2 POP POP JUMP JUMPDEST PUSH0 PUSH2 0xCE6 DUP4 DUP4 PUSH2 0xCBF JUMP JUMPDEST SWAP2 POP DUP3 PUSH1 0x2 MUL DUP3 OR SWAP1 POP SWAP3 SWAP2 POP POP JUMP JUMPDEST PUSH2 0xCFF DUP3 PUSH2 0x8E4 JUMP JUMPDEST PUSH8 0xFFFFFFFFFFFFFFFF DUP2 GT ISZERO PUSH2 0xD18 JUMPI PUSH2 0xD17 PUSH2 0xACF JUMP JUMPDEST JUMPDEST PUSH2 0xD22 DUP3 SLOAD PUSH2 0xB29 JUMP JUMPDEST PUSH2 0xD2D DUP3 DUP3 DUP6 PUSH2 0xC6D JUMP JUMPDEST PUSH0 PUSH1 0x20 SWAP1 POP PUSH1 0x1F DUP4 GT PUSH1 0x1 DUP2 EQ PUSH2 0xD5E JUMPI PUSH0 DUP5 ISZERO PUSH2 0xD4C JUMPI DUP3 DUP8 ADD MLOAD SWAP1 POP JUMPDEST PUSH2 0xD56 DUP6 DUP3 PUSH2 0xCDB JUMP JUMPDEST DUP7 SSTORE POP PUSH2 0xDBD JUMP JUMPDEST PUSH1 0x1F NOT DUP5 AND PUSH2 0xD6C DUP7 PUSH2 0xB59 JUMP JUMPDEST PUSH0 JUMPDEST DUP3 DUP2 LT ISZERO PUSH2 0xD93 JUMPI DUP5 DUP10 ADD MLOAD DUP3 SSTORE PUSH1 0x1 DUP3 ADD SWAP2 POP PUSH1 0x20 DUP6 ADD SWAP5 POP PUSH1 0x20 DUP2 ADD SWAP1 POP PUSH2 0xD6E JUMP JUMPDEST DUP7 DUP4 LT ISZERO PUSH2 0xDB0 JUMPI DUP5 DUP10 ADD MLOAD PUSH2 0xDAC PUSH1 0x1F DUP10 AND DUP3 PUSH2 0xCBF JUMP JUMPDEST DUP4 SSTORE POP JUMPDEST PUSH1 0x1 PUSH1 0x2 DUP9 MUL ADD DUP9 SSTORE POP POP POP JUMPDEST POP POP POP POP POP POP JUMP JUMPDEST PUSH32 0x4E487B7100000000000000000000000000000000000000000000000000000000 PUSH0 MSTORE PUSH1 0x32 PUSH1 0x4 MSTORE PUSH1 0x24 PUSH0 REVERT JUMPDEST PUSH32 0x4E487B7100000000000000000000000000000000000000000000000000000000 PUSH0 MSTORE PUSH1 0x11 PUSH1 0x4 MSTORE PUSH1 0x24 PUSH0 REVERT JUMPDEST PUSH0 PUSH2 0xE29 DUP3 PUSH2 0x7EC JUMP JUMPDEST SWAP2 POP PUSH32 0xFFFFFFFFFFFFFFFFFFFFFFFFFFFFFFFFFFFFFFFFFFFFFFFFFFFFFFFFFFFFFFFF DUP3 SUB PUSH2 0xE5B JUMPI PUSH2 0xE5A PUSH2 0xDF2 JUMP JUMPDEST JUMPDEST PUSH1 0x1 DUP3 ADD SWAP1 POP SWAP2 SWAP1 POP JUMP JUMPDEST PUSH0 DUP3 DUP3 MSTORE PUSH1 0x20 DUP3 ADD SWAP1 POP SWAP3 SWAP2 POP POP JUMP JUMPDEST PUSH32 0x6E6F2073747564656E7420666F756E6400000000000000000000000000000000 PUSH0 DUP3 ADD MSTORE POP JUMP JUMPDEST PUSH0 PUSH2 0xEAA PUSH1 0x10 DUP4 PUSH2 0xE66 JUMP JUMPDEST SWAP2 POP PUSH2 0xEB5 DUP3 PUSH2 0xE76 JUMP JUMPDEST PUSH1 0x20 DUP3 ADD SWAP1 POP SWAP2 SWAP1 POP JUMP JUMPDEST PUSH0 PUSH1 0x20 DUP3 ADD SWAP1 POP DUP2 DUP2 SUB PUSH0 DUP4 ADD MSTORE PUSH2 0xED7 DUP2 PUSH2 0xE9E JUMP JUMPDEST SWAP1 POP SWAP2 SWAP1 POP JUMP INVALID LOG2 PUSH5 0x6970667358 0x22 SLT KECCAK256 XOR DELEGATECALL SHL 0xD7 MULMOD MUL 0xD7 0xAF 0xCD CODESIZE CALLCODE MOD RETURN 0xA7 0x2B PUSH18 0x9E6CBA78FAEE9D834B840FC8E9BAC14A6473 PUSH16 0x6C634300081A00330000000000000000 "
				},
				"gasEstimates": {
					"creation": {
						"codeDepositCost": "772000",
						"executionCost": "803",
						"totalCost": "772803"
					},
					"external": {
						"getAllStudentRecord()": "infinite",
						"getStudentByClass(uint256)": "infinite",
						"getstudentRecordById(uint256)": "infinite",
						"registerStudent(string,uint256,uint256)": "infinite"
					}
				},
				"methodIdentifiers": {
					"getAllStudentRecord()": "8f747a7e",
					"getStudentByClass(uint256)": "34de6dd7",
					"getstudentRecordById(uint256)": "701bc86e",
					"registerStudent(string,uint256,uint256)": "30bf31db"
				}
			},
			"storageLayout": {
				"storage": [
					{
						"astId": 14,
						"contract": "school-registery/register.sol:SchoolRegister",
						"label": "schoolrecord",
						"offset": 0,
						"slot": "0",
						"type": "t_mapping(t_address,t_array(t_struct(Register)8_storage)dyn_storage)"
					}
				],
				"types": {
					"t_address": {
						"encoding": "inplace",
						"label": "address",
						"numberOfBytes": "20"
					},
					"t_array(t_struct(Register)8_storage)dyn_storage": {
						"base": "t_struct(Register)8_storage",
						"encoding": "dynamic_array",
						"label": "struct SchoolRegister.Register[]",
						"numberOfBytes": "32"
					},
					"t_mapping(t_address,t_array(t_struct(Register)8_storage)dyn_storage)": {
						"encoding": "mapping",
						"key": "t_address",
						"label": "mapping(address => struct SchoolRegister.Register[])",
						"numberOfBytes": "32",
						"value": "t_array(t_struct(Register)8_storage)dyn_storage"
					},
					"t_string_storage": {
						"encoding": "bytes",
						"label": "string",
						"numberOfBytes": "32"
					},
					"t_struct(Register)8_storage": {
						"encoding": "inplace",
						"label": "struct SchoolRegister.Register",
						"members": [
							{
								"astId": 3,
								"contract": "school-registery/register.sol:SchoolRegister",
								"label": "name",
								"offset": 0,
								"slot": "0",
								"type": "t_string_storage"
							},
							{
								"astId": 5,
								"contract": "school-registery/register.sol:SchoolRegister",
								"label": "id",
								"offset": 0,
								"slot": "1",
								"type": "t_uint256"
							},
							{
								"astId": 7,
								"contract": "school-registery/register.sol:SchoolRegister",
								"label": "class",
								"offset": 0,
								"slot": "2",
								"type": "t_uint256"
							}
						],
						"numberOfBytes": "96"
					},
					"t_uint256": {
						"encoding": "inplace",
						"label": "uint256",
						"numberOfBytes": "32"
					}
				}
			},
			"userdoc": {
				"kind": "user",
				"methods": {},
				"version": 1
			}
		}
	}
}