{
	"school-registery/register.sol": {
		"SchoolRegister": {
			"abi": [
				{
					"inputs": [],
					"stateMutability": "nonpayable",
					"type": "constructor"
				},
				{
					"anonymous": false,
					"inputs": [
						{
							"indexed": false,
							"internalType": "uint256",
							"name": "id",
							"type": "uint256"
						},
						{
							"indexed": false,
							"internalType": "string",
							"name": "name",
							"type": "string"
						},
						{
							"indexed": false,
							"internalType": "string",
							"name": "class",
							"type": "string"
						}
					],
					"name": "RegisteredStudent",
					"type": "event"
				},
				{
					"inputs": [],
					"name": "getAllStudentRecord",
					"outputs": [
						{
							"components": [
								{
									"internalType": "string",
									"name": "name",
									"type": "string"
								},
								{
									"internalType": "uint256",
									"name": "id",
									"type": "uint256"
								},
								{
									"internalType": "string",
									"name": "class",
									"type": "string"
								},
								{
									"internalType": "bytes32",
									"name": "hashClass",
									"type": "bytes32"
								}
							],
							"internalType": "struct SchoolRegister.Register[]",
							"name": "",
							"type": "tuple[]"
						}
					],
					"stateMutability": "view",
					"type": "function"
				},
				{
					"inputs": [
						{
							"internalType": "string",
							"name": "_class",
							"type": "string"
						}
					],
					"name": "getStudentByClass",
					"outputs": [
						{
							"components": [
								{
									"internalType": "string",
									"name": "name",
									"type": "string"
								},
								{
									"internalType": "uint256",
									"name": "id",
									"type": "uint256"
								},
								{
									"internalType": "string",
									"name": "class",
									"type": "string"
								},
								{
									"internalType": "bytes32",
									"name": "hashClass",
									"type": "bytes32"
								}
							],
							"internalType": "struct SchoolRegister.Register[]",
							"name": "",
							"type": "tuple[]"
						}
					],
					"stateMutability": "view",
					"type": "function"
				},
				{
					"inputs": [
						{
							"internalType": "uint256",
							"name": "_id",
							"type": "uint256"
						}
					],
					"name": "getstudentRecordById",
					"outputs": [
						{
							"components": [
								{
									"internalType": "string",
									"name": "name",
									"type": "string"
								},
								{
									"internalType": "uint256",
									"name": "id",
									"type": "uint256"
								},
								{
									"internalType": "string",
									"name": "class",
									"type": "string"
								},
								{
									"internalType": "bytes32",
									"name": "hashClass",
									"type": "bytes32"
								}
							],
							"internalType": "struct SchoolRegister.Register",
							"name": "",
							"type": "tuple"
						}
					],
					"stateMutability": "view",
					"type": "function"
				},
				{
					"inputs": [
						{
							"internalType": "string",
							"name": "_name",
							"type": "string"
						},
						{
							"internalType": "string",
							"name": "_class",
							"type": "string"
						}
					],
					"name": "registerStudent",
					"outputs": [],
					"stateMutability": "nonpayable",
					"type": "function"
				}
			],
			"devdoc": {
				"kind": "dev",
				"methods": {},
				"version": 1
			},
			"evm": {
				"assembly": "    /* \"school-registery/register.sol\":57:3396  contract SchoolRegister {... */\n  mstore(0x40, 0x80)\n    /* \"school-registery/register.sol\":559:560  1 */\n  0x01\n    /* \"school-registery/register.sol\":534:560  uint256 studentIdCount = 1 */\n  0x02\n  sstore\n    /* \"school-registery/register.sol\":290:339  constructor() {... */\n  callvalue\n  dup1\n  iszero\n  tag_1\n  jumpi\n  0x00\n  dup1\n  revert\ntag_1:\n  pop\n    /* \"school-registery/register.sol\":322:332  msg.sender */\n  caller\n    /* \"school-registery/register.sol\":314:319  owner */\n  0x00\n  dup1\n    /* \"school-registery/register.sol\":314:332  owner = msg.sender */\n  0x0100\n  exp\n  dup2\n  sload\n  dup2\n  0xffffffffffffffffffffffffffffffffffffffff\n  mul\n  not\n  and\n  swap1\n  dup4\n  0xffffffffffffffffffffffffffffffffffffffff\n  and\n  mul\n  or\n  swap1\n  sstore\n  pop\n    /* \"school-registery/register.sol\":57:3396  contract SchoolRegister {... */\n  dataSize(sub_0)\n  dup1\n  dataOffset(sub_0)\n  0x00\n  codecopy\n  0x00\n  return\nstop\n\nsub_0: assembly {\n        /* \"school-registery/register.sol\":57:3396  contract SchoolRegister {... */\n      mstore(0x40, 0x80)\n      callvalue\n      dup1\n      iszero\n      tag_1\n      jumpi\n      0x00\n      dup1\n      revert\n    tag_1:\n      pop\n      jumpi(tag_2, lt(calldatasize, 0x04))\n      shr(0xe0, calldataload(0x00))\n      dup1\n      0x0a1b776c\n      eq\n      tag_3\n      jumpi\n      dup1\n      0x701bc86e\n      eq\n      tag_4\n      jumpi\n      dup1\n      0x8f747a7e\n      eq\n      tag_5\n      jumpi\n      dup1\n      0xa24ba4a7\n      eq\n      tag_6\n      jumpi\n    tag_2:\n      0x00\n      dup1\n      revert\n        /* \"school-registery/register.sol\":701:1233  function registerStudent(string calldata _name, string calldata _class)... */\n    tag_3:\n      tag_7\n      0x04\n      dup1\n      calldatasize\n      sub\n      dup2\n      add\n      swap1\n      tag_8\n      swap2\n      swap1\n      tag_9\n      jump\t// in\n    tag_8:\n      tag_10\n      jump\t// in\n    tag_7:\n      stop\n        /* \"school-registery/register.sol\":1411:1749  function getstudentRecordById(uint256 _id)... */\n    tag_4:\n      tag_11\n      0x04\n      dup1\n      calldatasize\n      sub\n      dup2\n      add\n      swap1\n      tag_12\n      swap2\n      swap1\n      tag_13\n      jump\t// in\n    tag_12:\n      tag_14\n      jump\t// in\n    tag_11:\n      mload(0x40)\n      tag_15\n      swap2\n      swap1\n      tag_16\n      jump\t// in\n    tag_15:\n      mload(0x40)\n      dup1\n      swap2\n      sub\n      swap1\n      return\n        /* \"school-registery/register.sol\":1239:1405  function getAllStudentRecord()... */\n    tag_5:\n      tag_17\n      tag_18\n      jump\t// in\n    tag_17:\n      mload(0x40)\n      tag_19\n      swap2\n      swap1\n      tag_20\n      jump\t// in\n    tag_19:\n      mload(0x40)\n      dup1\n      swap2\n      sub\n      swap1\n      return\n        /* \"school-registery/register.sol\":2092:3394  function getStudentByClass(string calldata _class)... */\n    tag_6:\n      tag_21\n      0x04\n      dup1\n      calldatasize\n      sub\n      dup2\n      add\n      swap1\n      tag_22\n      swap2\n      swap1\n      tag_23\n      jump\t// in\n    tag_22:\n      tag_24\n      jump\t// in\n    tag_21:\n      mload(0x40)\n      tag_25\n      swap2\n      swap1\n      tag_20\n      jump\t// in\n    tag_25:\n      mload(0x40)\n      dup1\n      swap2\n      sub\n      swap1\n      return\n        /* \"school-registery/register.sol\":701:1233  function registerStudent(string calldata _name, string calldata _class)... */\n    tag_10:\n        /* \"school-registery/register.sol\":468:473  owner */\n      0x00\n      dup1\n      sload\n      swap1\n      0x0100\n      exp\n      swap1\n      div\n      0xffffffffffffffffffffffffffffffffffffffff\n      and\n        /* \"school-registery/register.sol\":454:473  msg.sender == owner */\n      0xffffffffffffffffffffffffffffffffffffffff\n      and\n        /* \"school-registery/register.sol\":454:464  msg.sender */\n      caller\n        /* \"school-registery/register.sol\":454:473  msg.sender == owner */\n      0xffffffffffffffffffffffffffffffffffffffff\n      and\n      eq\n        /* \"school-registery/register.sol\":446:510  require(msg.sender == owner, \"only school can use the function\") */\n      tag_27\n      jumpi\n      mload(0x40)\n      0x08c379a000000000000000000000000000000000000000000000000000000000\n      dup2\n      mstore\n      0x04\n      add\n      tag_28\n      swap1\n      tag_29\n      jump\t// in\n    tag_28:\n      mload(0x40)\n      dup1\n      swap2\n      sub\n      swap1\n      revert\n    tag_27:\n        /* \"school-registery/register.sol\":907:934  Register memory studentinfo */\n      0x00\n        /* \"school-registery/register.sol\":937:1084  Register({... */\n      mload(0x40)\n      dup1\n      0x80\n      add\n      0x40\n      mstore\n      dup1\n        /* \"school-registery/register.sol\":966:971  _name */\n      dup7\n      dup7\n        /* \"school-registery/register.sol\":937:1084  Register({... */\n      dup1\n      dup1\n      0x1f\n      add\n      0x20\n      dup1\n      swap2\n      div\n      mul\n      0x20\n      add\n      mload(0x40)\n      swap1\n      dup2\n      add\n      0x40\n      mstore\n      dup1\n      swap4\n      swap3\n      swap2\n      swap1\n      dup2\n      dup2\n      mstore\n      0x20\n      add\n      dup4\n      dup4\n      dup1\n      dup3\n      dup5\n      calldatacopy\n      0x00\n      dup2\n      dup5\n      add\n      mstore\n      not(0x1f)\n      0x1f\n      dup3\n      add\n      and\n      swap1\n      pop\n      dup1\n      dup4\n      add\n      swap3\n      pop\n      pop\n      pop\n      pop\n      pop\n      pop\n      pop\n      dup2\n      mstore\n      0x20\n      add\n        /* \"school-registery/register.sol\":989:1003  studentIdCount */\n      sload(0x02)\n        /* \"school-registery/register.sol\":937:1084  Register({... */\n      dup2\n      mstore\n      0x20\n      add\n        /* \"school-registery/register.sol\":1024:1030  _class */\n      dup5\n      dup5\n        /* \"school-registery/register.sol\":937:1084  Register({... */\n      dup1\n      dup1\n      0x1f\n      add\n      0x20\n      dup1\n      swap2\n      div\n      mul\n      0x20\n      add\n      mload(0x40)\n      swap1\n      dup2\n      add\n      0x40\n      mstore\n      dup1\n      swap4\n      swap3\n      swap2\n      swap1\n      dup2\n      dup2\n      mstore\n      0x20\n      add\n      dup4\n      dup4\n      dup1\n      dup3\n      dup5\n      calldatacopy\n      0x00\n      dup2\n      dup5\n      add\n      mstore\n      not(0x1f)\n      0x1f\n      dup3\n      add\n      and\n      swap1\n      pop\n      dup1\n      dup4\n      add\n      swap3\n      pop\n      pop\n      pop\n      pop\n      pop\n      pop\n      pop\n      dup2\n      mstore\n      0x20\n      add\n        /* \"school-registery/register.sol\":1055:1073  hashString(_class) */\n      tag_31\n        /* \"school-registery/register.sol\":1066:1072  _class */\n      dup6\n      dup6\n        /* \"school-registery/register.sol\":1055:1073  hashString(_class) */\n      dup1\n      dup1\n      0x1f\n      add\n      0x20\n      dup1\n      swap2\n      div\n      mul\n      0x20\n      add\n      mload(0x40)\n      swap1\n      dup2\n      add\n      0x40\n      mstore\n      dup1\n      swap4\n      swap3\n      swap2\n      swap1\n      dup2\n      dup2\n      mstore\n      0x20\n      add\n      dup4\n      dup4\n      dup1\n      dup3\n      dup5\n      calldatacopy\n      0x00\n      dup2\n      dup5\n      add\n      mstore\n      not(0x1f)\n      0x1f\n      dup3\n      add\n      and\n      swap1\n      pop\n      dup1\n      dup4\n      add\n      swap3\n      pop\n      pop\n      pop\n      pop\n      pop\n      pop\n      pop\n        /* \"school-registery/register.sol\":1055:1065  hashString */\n      tag_32\n        /* \"school-registery/register.sol\":1055:1073  hashString(_class) */\n      jump\t// in\n    tag_31:\n        /* \"school-registery/register.sol\":937:1084  Register({... */\n      dup2\n      mstore\n      pop\n        /* \"school-registery/register.sol\":907:1084  Register memory studentinfo = Register({... */\n      swap1\n      pop\n        /* \"school-registery/register.sol\":1095:1109  studentIdCount */\n      0x02\n      0x00\n        /* \"school-registery/register.sol\":1095:1111  studentIdCount++ */\n      dup2\n      sload\n      dup1\n      swap3\n      swap2\n      swap1\n      tag_33\n      swap1\n      tag_34\n      jump\t// in\n    tag_33:\n      swap2\n      swap1\n      pop\n      sstore\n      pop\n        /* \"school-registery/register.sol\":1121:1133  schoolrecord */\n      0x01\n        /* \"school-registery/register.sol\":1121:1145  schoolrecord[msg.sender] */\n      0x00\n        /* \"school-registery/register.sol\":1134:1144  msg.sender */\n      caller\n        /* \"school-registery/register.sol\":1121:1145  schoolrecord[msg.sender] */\n      0xffffffffffffffffffffffffffffffffffffffff\n      and\n      0xffffffffffffffffffffffffffffffffffffffff\n      and\n      dup2\n      mstore\n      0x20\n      add\n      swap1\n      dup2\n      mstore\n      0x20\n      add\n      0x00\n      keccak256\n        /* \"school-registery/register.sol\":1151:1162  studentinfo */\n      dup2\n        /* \"school-registery/register.sol\":1121:1163  schoolrecord[msg.sender].push(studentinfo) */\n      swap1\n      dup1\n      0x01\n      dup2\n      sload\n      add\n      dup1\n      dup3\n      sstore\n      dup1\n      swap2\n      pop\n      pop\n      0x01\n      swap1\n      sub\n      swap1\n      0x00\n      mstore\n      keccak256(0x00, 0x20)\n      swap1\n      0x04\n      mul\n      add\n      0x00\n      swap1\n      swap2\n      swap1\n      swap2\n      swap1\n      swap2\n      pop\n      0x00\n      dup3\n      add\n      mload\n      dup2\n      0x00\n      add\n      swap1\n      dup2\n      tag_36\n      swap2\n      swap1\n      tag_37\n      jump\t// in\n    tag_36:\n      pop\n      0x20\n      dup3\n      add\n      mload\n      dup2\n      0x01\n      add\n      sstore\n      0x40\n      dup3\n      add\n      mload\n      dup2\n      0x02\n      add\n      swap1\n      dup2\n      tag_38\n      swap2\n      swap1\n      tag_37\n      jump\t// in\n    tag_38:\n      pop\n      0x60\n      dup3\n      add\n      mload\n      dup2\n      0x03\n      add\n      sstore\n      pop\n      pop\n        /* \"school-registery/register.sol\":1178:1226  RegisteredStudent(studentIdCount, _name, _class) */\n      0x1abee9ccca1384cda6aa3d635b8681141bf3957e457c5b9c0071b0aeddfb1e72\n        /* \"school-registery/register.sol\":1196:1210  studentIdCount */\n      sload(0x02)\n        /* \"school-registery/register.sol\":1212:1217  _name */\n      dup7\n      dup7\n        /* \"school-registery/register.sol\":1219:1225  _class */\n      dup7\n      dup7\n        /* \"school-registery/register.sol\":1178:1226  RegisteredStudent(studentIdCount, _name, _class) */\n      mload(0x40)\n      tag_39\n      swap6\n      swap5\n      swap4\n      swap3\n      swap2\n      swap1\n      tag_40\n      jump\t// in\n    tag_39:\n      mload(0x40)\n      dup1\n      swap2\n      sub\n      swap1\n      log1\n        /* \"school-registery/register.sol\":811:1233  {... */\n      pop\n        /* \"school-registery/register.sol\":701:1233  function registerStudent(string calldata _name, string calldata _class)... */\n      pop\n      pop\n      pop\n      pop\n      jump\t// out\n        /* \"school-registery/register.sol\":1411:1749  function getstudentRecordById(uint256 _id)... */\n    tag_14:\n        /* \"school-registery/register.sol\":1499:1514  Register memory */\n      tag_41\n      tag_42\n      jump\t// in\n    tag_41:\n        /* \"school-registery/register.sol\":1530:1555  Register[] memory records */\n      0x00\n        /* \"school-registery/register.sol\":1558:1570  schoolrecord */\n      0x01\n        /* \"school-registery/register.sol\":1558:1582  schoolrecord[msg.sender] */\n      0x00\n        /* \"school-registery/register.sol\":1571:1581  msg.sender */\n      caller\n        /* \"school-registery/register.sol\":1558:1582  schoolrecord[msg.sender] */\n      0xffffffffffffffffffffffffffffffffffffffff\n      and\n      0xffffffffffffffffffffffffffffffffffffffff\n      and\n      dup2\n      mstore\n      0x20\n      add\n      swap1\n      dup2\n      mstore\n      0x20\n      add\n      0x00\n      keccak256\n        /* \"school-registery/register.sol\":1530:1582  Register[] memory records = schoolrecord[msg.sender] */\n      dup1\n      sload\n      dup1\n      0x20\n      mul\n      0x20\n      add\n      mload(0x40)\n      swap1\n      dup2\n      add\n      0x40\n      mstore\n      dup1\n      swap3\n      swap2\n      swap1\n      dup2\n      dup2\n      mstore\n      0x20\n      add\n      0x00\n      swap1\n    tag_44:\n      dup3\n      dup3\n      lt\n      iszero\n      tag_45\n      jumpi\n      dup4\n      dup3\n      swap1\n      0x00\n      mstore\n      keccak256(0x00, 0x20)\n      swap1\n      0x04\n      mul\n      add\n      mload(0x40)\n      dup1\n      0x80\n      add\n      0x40\n      mstore\n      swap1\n      dup2\n      0x00\n      dup3\n      add\n      dup1\n      sload\n      tag_47\n      swap1\n      tag_48\n      jump\t// in\n    tag_47:\n      dup1\n      0x1f\n      add\n      0x20\n      dup1\n      swap2\n      div\n      mul\n      0x20\n      add\n      mload(0x40)\n      swap1\n      dup2\n      add\n      0x40\n      mstore\n      dup1\n      swap3\n      swap2\n      swap1\n      dup2\n      dup2\n      mstore\n      0x20\n      add\n      dup3\n      dup1\n      sload\n      tag_49\n      swap1\n      tag_48\n      jump\t// in\n    tag_49:\n      dup1\n      iszero\n      tag_50\n      jumpi\n      dup1\n      0x1f\n      lt\n      tag_51\n      jumpi\n      0x0100\n      dup1\n      dup4\n      sload\n      div\n      mul\n      dup4\n      mstore\n      swap2\n      0x20\n      add\n      swap2\n      jump(tag_50)\n    tag_51:\n      dup3\n      add\n      swap2\n      swap1\n      0x00\n      mstore\n      keccak256(0x00, 0x20)\n      swap1\n    tag_52:\n      dup2\n      sload\n      dup2\n      mstore\n      swap1\n      0x01\n      add\n      swap1\n      0x20\n      add\n      dup1\n      dup4\n      gt\n      tag_52\n      jumpi\n      dup3\n      swap1\n      sub\n      0x1f\n      and\n      dup3\n      add\n      swap2\n    tag_50:\n      pop\n      pop\n      pop\n      pop\n      pop\n      dup2\n      mstore\n      0x20\n      add\n      0x01\n      dup3\n      add\n      sload\n      dup2\n      mstore\n      0x20\n      add\n      0x02\n      dup3\n      add\n      dup1\n      sload\n      tag_53\n      swap1\n      tag_48\n      jump\t// in\n    tag_53:\n      dup1\n      0x1f\n      add\n      0x20\n      dup1\n      swap2\n      div\n      mul\n      0x20\n      add\n      mload(0x40)\n      swap1\n      dup2\n      add\n      0x40\n      mstore\n      dup1\n      swap3\n      swap2\n      swap1\n      dup2\n      dup2\n      mstore\n      0x20\n      add\n      dup3\n      dup1\n      sload\n      tag_54\n      swap1\n      tag_48\n      jump\t// in\n    tag_54:\n      dup1\n      iszero\n      tag_55\n      jumpi\n      dup1\n      0x1f\n      lt\n      tag_56\n      jumpi\n      0x0100\n      dup1\n      dup4\n      sload\n      div\n      mul\n      dup4\n      mstore\n      swap2\n      0x20\n      add\n      swap2\n      jump(tag_55)\n    tag_56:\n      dup3\n      add\n      swap2\n      swap1\n      0x00\n      mstore\n      keccak256(0x00, 0x20)\n      swap1\n    tag_57:\n      dup2\n      sload\n      dup2\n      mstore\n      swap1\n      0x01\n      add\n      swap1\n      0x20\n      add\n      dup1\n      dup4\n      gt\n      tag_57\n      jumpi\n      dup3\n      swap1\n      sub\n      0x1f\n      and\n      dup3\n      add\n      swap2\n    tag_55:\n      pop\n      pop\n      pop\n      pop\n      pop\n      dup2\n      mstore\n      0x20\n      add\n      0x03\n      dup3\n      add\n      sload\n      dup2\n      mstore\n      pop\n      pop\n      dup2\n      mstore\n      0x20\n      add\n      swap1\n      0x01\n      add\n      swap1\n      jump(tag_44)\n    tag_45:\n      pop\n      pop\n      pop\n      pop\n      swap1\n      pop\n        /* \"school-registery/register.sol\":1598:1607  uint256 i */\n      0x00\n        /* \"school-registery/register.sol\":1593:1706  for (uint256 i = 0; i < records.length; i++) {... */\n    tag_58:\n        /* \"school-registery/register.sol\":1617:1624  records */\n      dup2\n        /* \"school-registery/register.sol\":1617:1631  records.length */\n      mload\n        /* \"school-registery/register.sol\":1613:1614  i */\n      dup2\n        /* \"school-registery/register.sol\":1613:1631  i < records.length */\n      lt\n        /* \"school-registery/register.sol\":1593:1706  for (uint256 i = 0; i < records.length; i++) {... */\n      iszero\n      tag_59\n      jumpi\n        /* \"school-registery/register.sol\":1673:1676  _id */\n      dup4\n        /* \"school-registery/register.sol\":1656:1663  records */\n      dup3\n        /* \"school-registery/register.sol\":1664:1665  i */\n      dup3\n        /* \"school-registery/register.sol\":1656:1666  records[i] */\n      dup2\n      mload\n      dup2\n      lt\n      tag_61\n      jumpi\n      tag_62\n      tag_63\n      jump\t// in\n    tag_62:\n    tag_61:\n      0x20\n      mul\n      0x20\n      add\n      add\n      mload\n        /* \"school-registery/register.sol\":1656:1669  records[i].id */\n      0x20\n      add\n      mload\n        /* \"school-registery/register.sol\":1656:1676  records[i].id == _id */\n      sub\n        /* \"school-registery/register.sol\":1652:1695  if (records[i].id == _id) return records[i] */\n      tag_64\n      jumpi\n        /* \"school-registery/register.sol\":1685:1692  records */\n      dup2\n        /* \"school-registery/register.sol\":1693:1694  i */\n      dup2\n        /* \"school-registery/register.sol\":1685:1695  records[i] */\n      dup2\n      mload\n      dup2\n      lt\n      tag_65\n      jumpi\n      tag_66\n      tag_63\n      jump\t// in\n    tag_66:\n    tag_65:\n      0x20\n      mul\n      0x20\n      add\n      add\n      mload\n        /* \"school-registery/register.sol\":1678:1695  return records[i] */\n      swap3\n      pop\n      pop\n      pop\n      jump(tag_43)\n        /* \"school-registery/register.sol\":1652:1695  if (records[i].id == _id) return records[i] */\n    tag_64:\n        /* \"school-registery/register.sol\":1633:1636  i++ */\n      dup1\n      dup1\n      0x01\n      add\n      swap2\n      pop\n      pop\n        /* \"school-registery/register.sol\":1593:1706  for (uint256 i = 0; i < records.length; i++) {... */\n      jump(tag_58)\n    tag_59:\n      pop\n        /* \"school-registery/register.sol\":1716:1742  revert(\"no student found\") */\n      mload(0x40)\n      0x08c379a000000000000000000000000000000000000000000000000000000000\n      dup2\n      mstore\n      0x04\n      add\n      tag_67\n      swap1\n      tag_68\n      jump\t// in\n    tag_67:\n      mload(0x40)\n      dup1\n      swap2\n      sub\n      swap1\n      revert\n        /* \"school-registery/register.sol\":1411:1749  function getstudentRecordById(uint256 _id)... */\n    tag_43:\n      swap2\n      swap1\n      pop\n      jump\t// out\n        /* \"school-registery/register.sol\":1239:1405  function getAllStudentRecord()... */\n    tag_18:\n        /* \"school-registery/register.sol\":1334:1351  Register[] memory */\n      0x60\n        /* \"school-registery/register.sol\":468:473  owner */\n      0x00\n      dup1\n      sload\n      swap1\n      0x0100\n      exp\n      swap1\n      div\n      0xffffffffffffffffffffffffffffffffffffffff\n      and\n        /* \"school-registery/register.sol\":454:473  msg.sender == owner */\n      0xffffffffffffffffffffffffffffffffffffffff\n      and\n        /* \"school-registery/register.sol\":454:464  msg.sender */\n      caller\n        /* \"school-registery/register.sol\":454:473  msg.sender == owner */\n      0xffffffffffffffffffffffffffffffffffffffff\n      and\n      eq\n        /* \"school-registery/register.sol\":446:510  require(msg.sender == owner, \"only school can use the function\") */\n      tag_70\n      jumpi\n      mload(0x40)\n      0x08c379a000000000000000000000000000000000000000000000000000000000\n      dup2\n      mstore\n      0x04\n      add\n      tag_71\n      swap1\n      tag_29\n      jump\t// in\n    tag_71:\n      mload(0x40)\n      dup1\n      swap2\n      sub\n      swap1\n      revert\n    tag_70:\n        /* \"school-registery/register.sol\":1374:1386  schoolrecord */\n      0x01\n        /* \"school-registery/register.sol\":1374:1398  schoolrecord[msg.sender] */\n      0x00\n        /* \"school-registery/register.sol\":1387:1397  msg.sender */\n      caller\n        /* \"school-registery/register.sol\":1374:1398  schoolrecord[msg.sender] */\n      0xffffffffffffffffffffffffffffffffffffffff\n      and\n      0xffffffffffffffffffffffffffffffffffffffff\n      and\n      dup2\n      mstore\n      0x20\n      add\n      swap1\n      dup2\n      mstore\n      0x20\n      add\n      0x00\n      keccak256\n        /* \"school-registery/register.sol\":1367:1398  return schoolrecord[msg.sender] */\n      dup1\n      sload\n      dup1\n      0x20\n      mul\n      0x20\n      add\n      mload(0x40)\n      swap1\n      dup2\n      add\n      0x40\n      mstore\n      dup1\n      swap3\n      swap2\n      swap1\n      dup2\n      dup2\n      mstore\n      0x20\n      add\n      0x00\n      swap1\n    tag_73:\n      dup3\n      dup3\n      lt\n      iszero\n      tag_74\n      jumpi\n      dup4\n      dup3\n      swap1\n      0x00\n      mstore\n      keccak256(0x00, 0x20)\n      swap1\n      0x04\n      mul\n      add\n      mload(0x40)\n      dup1\n      0x80\n      add\n      0x40\n      mstore\n      swap1\n      dup2\n      0x00\n      dup3\n      add\n      dup1\n      sload\n      tag_76\n      swap1\n      tag_48\n      jump\t// in\n    tag_76:\n      dup1\n      0x1f\n      add\n      0x20\n      dup1\n      swap2\n      div\n      mul\n      0x20\n      add\n      mload(0x40)\n      swap1\n      dup2\n      add\n      0x40\n      mstore\n      dup1\n      swap3\n      swap2\n      swap1\n      dup2\n      dup2\n      mstore\n      0x20\n      add\n      dup3\n      dup1\n      sload\n      tag_77\n      swap1\n      tag_48\n      jump\t// in\n    tag_77:\n      dup1\n      iszero\n      tag_78\n      jumpi\n      dup1\n      0x1f\n      lt\n      tag_79\n      jumpi\n      0x0100\n      dup1\n      dup4\n      sload\n      div\n      mul\n      dup4\n      mstore\n      swap2\n      0x20\n      add\n      swap2\n      jump(tag_78)\n    tag_79:\n      dup3\n      add\n      swap2\n      swap1\n      0x00\n      mstore\n      keccak256(0x00, 0x20)\n      swap1\n    tag_80:\n      dup2\n      sload\n      dup2\n      mstore\n      swap1\n      0x01\n      add\n      swap1\n      0x20\n      add\n      dup1\n      dup4\n      gt\n      tag_80\n      jumpi\n      dup3\n      swap1\n      sub\n      0x1f\n      and\n      dup3\n      add\n      swap2\n    tag_78:\n      pop\n      pop\n      pop\n      pop\n      pop\n      dup2\n      mstore\n      0x20\n      add\n      0x01\n      dup3\n      add\n      sload\n      dup2\n      mstore\n      0x20\n      add\n      0x02\n      dup3\n      add\n      dup1\n      sload\n      tag_81\n      swap1\n      tag_48\n      jump\t// in\n    tag_81:\n      dup1\n      0x1f\n      add\n      0x20\n      dup1\n      swap2\n      div\n      mul\n      0x20\n      add\n      mload(0x40)\n      swap1\n      dup2\n      add\n      0x40\n      mstore\n      dup1\n      swap3\n      swap2\n      swap1\n      dup2\n      dup2\n      mstore\n      0x20\n      add\n      dup3\n      dup1\n      sload\n      tag_82\n      swap1\n      tag_48\n      jump\t// in\n    tag_82:\n      dup1\n      iszero\n      tag_83\n      jumpi\n      dup1\n      0x1f\n      lt\n      tag_84\n      jumpi\n      0x0100\n      dup1\n      dup4\n      sload\n      div\n      mul\n      dup4\n      mstore\n      swap2\n      0x20\n      add\n      swap2\n      jump(tag_83)\n    tag_84:\n      dup3\n      add\n      swap2\n      swap1\n      0x00\n      mstore\n      keccak256(0x00, 0x20)\n      swap1\n    tag_85:\n      dup2\n      sload\n      dup2\n      mstore\n      swap1\n      0x01\n      add\n      swap1\n      0x20\n      add\n      dup1\n      dup4\n      gt\n      tag_85\n      jumpi\n      dup3\n      swap1\n      sub\n      0x1f\n      and\n      dup3\n      add\n      swap2\n    tag_83:\n      pop\n      pop\n      pop\n      pop\n      pop\n      dup2\n      mstore\n      0x20\n      add\n      0x03\n      dup3\n      add\n      sload\n      dup2\n      mstore\n      pop\n      pop\n      dup2\n      mstore\n      0x20\n      add\n      swap1\n      0x01\n      add\n      swap1\n      jump(tag_73)\n    tag_74:\n      pop\n      pop\n      pop\n      pop\n      swap1\n      pop\n        /* \"school-registery/register.sol\":1239:1405  function getAllStudentRecord()... */\n      swap1\n      jump\t// out\n        /* \"school-registery/register.sol\":2092:3394  function getStudentByClass(string calldata _class)... */\n    tag_24:\n        /* \"school-registery/register.sol\":2188:2205  Register[] memory */\n      0x60\n        /* \"school-registery/register.sol\":2221:2246  Register[] memory records */\n      0x00\n        /* \"school-registery/register.sol\":2249:2261  schoolrecord */\n      0x01\n        /* \"school-registery/register.sol\":2249:2273  schoolrecord[msg.sender] */\n      0x00\n        /* \"school-registery/register.sol\":2262:2272  msg.sender */\n      caller\n        /* \"school-registery/register.sol\":2249:2273  schoolrecord[msg.sender] */\n      0xffffffffffffffffffffffffffffffffffffffff\n      and\n      0xffffffffffffffffffffffffffffffffffffffff\n      and\n      dup2\n      mstore\n      0x20\n      add\n      swap1\n      dup2\n      mstore\n      0x20\n      add\n      0x00\n      keccak256\n        /* \"school-registery/register.sol\":2221:2273  Register[] memory records = schoolrecord[msg.sender] */\n      dup1\n      sload\n      dup1\n      0x20\n      mul\n      0x20\n      add\n      mload(0x40)\n      swap1\n      dup2\n      add\n      0x40\n      mstore\n      dup1\n      swap3\n      swap2\n      swap1\n      dup2\n      dup2\n      mstore\n      0x20\n      add\n      0x00\n      swap1\n    tag_87:\n      dup3\n      dup3\n      lt\n      iszero\n      tag_88\n      jumpi\n      dup4\n      dup3\n      swap1\n      0x00\n      mstore\n      keccak256(0x00, 0x20)\n      swap1\n      0x04\n      mul\n      add\n      mload(0x40)\n      dup1\n      0x80\n      add\n      0x40\n      mstore\n      swap1\n      dup2\n      0x00\n      dup3\n      add\n      dup1\n      sload\n      tag_90\n      swap1\n      tag_48\n      jump\t// in\n    tag_90:\n      dup1\n      0x1f\n      add\n      0x20\n      dup1\n      swap2\n      div\n      mul\n      0x20\n      add\n      mload(0x40)\n      swap1\n      dup2\n      add\n      0x40\n      mstore\n      dup1\n      swap3\n      swap2\n      swap1\n      dup2\n      dup2\n      mstore\n      0x20\n      add\n      dup3\n      dup1\n      sload\n      tag_91\n      swap1\n      tag_48\n      jump\t// in\n    tag_91:\n      dup1\n      iszero\n      tag_92\n      jumpi\n      dup1\n      0x1f\n      lt\n      tag_93\n      jumpi\n      0x0100\n      dup1\n      dup4\n      sload\n      div\n      mul\n      dup4\n      mstore\n      swap2\n      0x20\n      add\n      swap2\n      jump(tag_92)\n    tag_93:\n      dup3\n      add\n      swap2\n      swap1\n      0x00\n      mstore\n      keccak256(0x00, 0x20)\n      swap1\n    tag_94:\n      dup2\n      sload\n      dup2\n      mstore\n      swap1\n      0x01\n      add\n      swap1\n      0x20\n      add\n      dup1\n      dup4\n      gt\n      tag_94\n      jumpi\n      dup3\n      swap1\n      sub\n      0x1f\n      and\n      dup3\n      add\n      swap2\n    tag_92:\n      pop\n      pop\n      pop\n      pop\n      pop\n      dup2\n      mstore\n      0x20\n      add\n      0x01\n      dup3\n      add\n      sload\n      dup2\n      mstore\n      0x20\n      add\n      0x02\n      dup3\n      add\n      dup1\n      sload\n      tag_95\n      swap1\n      tag_48\n      jump\t// in\n    tag_95:\n      dup1\n      0x1f\n      add\n      0x20\n      dup1\n      swap2\n      div\n      mul\n      0x20\n      add\n      mload(0x40)\n      swap1\n      dup2\n      add\n      0x40\n      mstore\n      dup1\n      swap3\n      swap2\n      swap1\n      dup2\n      dup2\n      mstore\n      0x20\n      add\n      dup3\n      dup1\n      sload\n      tag_96\n      swap1\n      tag_48\n      jump\t// in\n    tag_96:\n      dup1\n      iszero\n      tag_97\n      jumpi\n      dup1\n      0x1f\n      lt\n      tag_98\n      jumpi\n      0x0100\n      dup1\n      dup4\n      sload\n      div\n      mul\n      dup4\n      mstore\n      swap2\n      0x20\n      add\n      swap2\n      jump(tag_97)\n    tag_98:\n      dup3\n      add\n      swap2\n      swap1\n      0x00\n      mstore\n      keccak256(0x00, 0x20)\n      swap1\n    tag_99:\n      dup2\n      sload\n      dup2\n      mstore\n      swap1\n      0x01\n      add\n      swap1\n      0x20\n      add\n      dup1\n      dup4\n      gt\n      tag_99\n      jumpi\n      dup3\n      swap1\n      sub\n      0x1f\n      and\n      dup3\n      add\n      swap2\n    tag_97:\n      pop\n      pop\n      pop\n      pop\n      pop\n      dup2\n      mstore\n      0x20\n      add\n      0x03\n      dup3\n      add\n      sload\n      dup2\n      mstore\n      pop\n      pop\n      dup2\n      mstore\n      0x20\n      add\n      swap1\n      0x01\n      add\n      swap1\n      jump(tag_87)\n    tag_88:\n      pop\n      pop\n      pop\n      pop\n      swap1\n      pop\n        /* \"school-registery/register.sol\":2317:2339  uint256 newRecordCount */\n      0x00\n        /* \"school-registery/register.sol\":2478:2487  uint256 i */\n      dup1\n        /* \"school-registery/register.sol\":2473:2710  for (uint256 i = 0; i < records.length; i++) {... */\n    tag_100:\n        /* \"school-registery/register.sol\":2497:2504  records */\n      dup3\n        /* \"school-registery/register.sol\":2497:2511  records.length */\n      mload\n        /* \"school-registery/register.sol\":2493:2494  i */\n      dup2\n        /* \"school-registery/register.sol\":2493:2511  i < records.length */\n      lt\n        /* \"school-registery/register.sol\":2473:2710  for (uint256 i = 0; i < records.length; i++) {... */\n      iszero\n      tag_101\n      jumpi\n        /* \"school-registery/register.sol\":2560:2578  hashString(_class) */\n      tag_103\n        /* \"school-registery/register.sol\":2571:2577  _class */\n      dup7\n      dup7\n        /* \"school-registery/register.sol\":2560:2578  hashString(_class) */\n      dup1\n      dup1\n      0x1f\n      add\n      0x20\n      dup1\n      swap2\n      div\n      mul\n      0x20\n      add\n      mload(0x40)\n      swap1\n      dup2\n      add\n      0x40\n      mstore\n      dup1\n      swap4\n      swap3\n      swap2\n      swap1\n      dup2\n      dup2\n      mstore\n      0x20\n      add\n      dup4\n      dup4\n      dup1\n      dup3\n      dup5\n      calldatacopy\n      0x00\n      dup2\n      dup5\n      add\n      mstore\n      not(0x1f)\n      0x1f\n      dup3\n      add\n      and\n      swap1\n      pop\n      dup1\n      dup4\n      add\n      swap3\n      pop\n      pop\n      pop\n      pop\n      pop\n      pop\n      pop\n        /* \"school-registery/register.sol\":2560:2570  hashString */\n      tag_32\n        /* \"school-registery/register.sol\":2560:2578  hashString(_class) */\n      jump\t// in\n    tag_103:\n        /* \"school-registery/register.sol\":2536:2543  records */\n      dup4\n        /* \"school-registery/register.sol\":2544:2545  i */\n      dup3\n        /* \"school-registery/register.sol\":2536:2546  records[i] */\n      dup2\n      mload\n      dup2\n      lt\n      tag_104\n      jumpi\n      tag_105\n      tag_63\n      jump\t// in\n    tag_105:\n    tag_104:\n      0x20\n      mul\n      0x20\n      add\n      add\n      mload\n        /* \"school-registery/register.sol\":2536:2556  records[i].hashClass */\n      0x60\n      add\n      mload\n        /* \"school-registery/register.sol\":2536:2578  records[i].hashClass == hashString(_class) */\n      sub\n        /* \"school-registery/register.sol\":2532:2700  if (records[i].hashClass == hashString(_class)) {... */\n      tag_106\n      jumpi\n        /* \"school-registery/register.sol\":2598:2614  newRecordCount++ */\n      dup2\n      dup1\n      tag_107\n      swap1\n      tag_34\n      jump\t// in\n    tag_107:\n      swap3\n      pop\n      pop\n        /* \"school-registery/register.sol\":2532:2700  if (records[i].hashClass == hashString(_class)) {... */\n    tag_106:\n        /* \"school-registery/register.sol\":2513:2516  i++ */\n      dup1\n      dup1\n      0x01\n      add\n      swap2\n      pop\n      pop\n        /* \"school-registery/register.sol\":2473:2710  for (uint256 i = 0; i < records.length; i++) {... */\n      jump(tag_100)\n    tag_101:\n      pop\n        /* \"school-registery/register.sol\":2720:2752  Register[] memory matchedStudent */\n      0x00\n        /* \"school-registery/register.sol\":2770:2784  newRecordCount */\n      dup2\n        /* \"school-registery/register.sol\":2755:2785  new Register[](newRecordCount) */\n      0xffffffffffffffff\n      dup2\n      gt\n      iszero\n      tag_108\n      jumpi\n      tag_109\n      tag_110\n      jump\t// in\n    tag_109:\n    tag_108:\n      mload(0x40)\n      swap1\n      dup1\n      dup3\n      mstore\n      dup1\n      0x20\n      mul\n      0x20\n      add\n      dup3\n      add\n      0x40\n      mstore\n      dup1\n      iszero\n      tag_111\n      jumpi\n      dup2\n      0x20\n      add\n    tag_112:\n      tag_113\n      tag_42\n      jump\t// in\n    tag_113:\n      dup2\n      mstore\n      0x20\n      add\n      swap1\n      0x01\n      swap1\n      sub\n      swap1\n      dup2\n      tag_112\n      jumpi\n      swap1\n      pop\n    tag_111:\n      pop\n        /* \"school-registery/register.sol\":2720:2785  Register[] memory matchedStudent = new Register[](newRecordCount) */\n      swap1\n      pop\n        /* \"school-registery/register.sol\":2859:2872  uint256 index */\n      0x00\n        /* \"school-registery/register.sol\":2993:3002  uint256 j */\n      dup1\n        /* \"school-registery/register.sol\":2988:3302  for (uint256 j = 0; j < records.length; j++) {... */\n    tag_114:\n        /* \"school-registery/register.sol\":3012:3019  records */\n      dup5\n        /* \"school-registery/register.sol\":3012:3026  records.length */\n      mload\n        /* \"school-registery/register.sol\":3008:3009  j */\n      dup2\n        /* \"school-registery/register.sol\":3008:3026  j < records.length */\n      lt\n        /* \"school-registery/register.sol\":2988:3302  for (uint256 j = 0; j < records.length; j++) {... */\n      iszero\n      tag_115\n      jumpi\n        /* \"school-registery/register.sol\":3075:3093  hashString(_class) */\n      tag_117\n        /* \"school-registery/register.sol\":3086:3092  _class */\n      dup9\n      dup9\n        /* \"school-registery/register.sol\":3075:3093  hashString(_class) */\n      dup1\n      dup1\n      0x1f\n      add\n      0x20\n      dup1\n      swap2\n      div\n      mul\n      0x20\n      add\n      mload(0x40)\n      swap1\n      dup2\n      add\n      0x40\n      mstore\n      dup1\n      swap4\n      swap3\n      swap2\n      swap1\n      dup2\n      dup2\n      mstore\n      0x20\n      add\n      dup4\n      dup4\n      dup1\n      dup3\n      dup5\n      calldatacopy\n      0x00\n      dup2\n      dup5\n      add\n      mstore\n      not(0x1f)\n      0x1f\n      dup3\n      add\n      and\n      swap1\n      pop\n      dup1\n      dup4\n      add\n      swap3\n      pop\n      pop\n      pop\n      pop\n      pop\n      pop\n      pop\n        /* \"school-registery/register.sol\":3075:3085  hashString */\n      tag_32\n        /* \"school-registery/register.sol\":3075:3093  hashString(_class) */\n      jump\t// in\n    tag_117:\n        /* \"school-registery/register.sol\":3051:3058  records */\n      dup6\n        /* \"school-registery/register.sol\":3059:3060  j */\n      dup3\n        /* \"school-registery/register.sol\":3051:3061  records[j] */\n      dup2\n      mload\n      dup2\n      lt\n      tag_118\n      jumpi\n      tag_119\n      tag_63\n      jump\t// in\n    tag_119:\n    tag_118:\n      0x20\n      mul\n      0x20\n      add\n      add\n      mload\n        /* \"school-registery/register.sol\":3051:3071  records[j].hashClass */\n      0x60\n      add\n      mload\n        /* \"school-registery/register.sol\":3051:3093  records[j].hashClass == hashString(_class) */\n      sub\n        /* \"school-registery/register.sol\":3047:3292  if (records[j].hashClass == hashString(_class)) {... */\n      tag_120\n      jumpi\n        /* \"school-registery/register.sol\":3137:3144  records */\n      dup5\n        /* \"school-registery/register.sol\":3145:3146  j */\n      dup2\n        /* \"school-registery/register.sol\":3137:3147  records[j] */\n      dup2\n      mload\n      dup2\n      lt\n      tag_121\n      jumpi\n      tag_122\n      tag_63\n      jump\t// in\n    tag_122:\n    tag_121:\n      0x20\n      mul\n      0x20\n      add\n      add\n      mload\n        /* \"school-registery/register.sol\":3113:3127  matchedStudent */\n      dup4\n        /* \"school-registery/register.sol\":3128:3133  index */\n      dup4\n        /* \"school-registery/register.sol\":3113:3134  matchedStudent[index] */\n      dup2\n      mload\n      dup2\n      lt\n      tag_123\n      jumpi\n      tag_124\n      tag_63\n      jump\t// in\n    tag_124:\n    tag_123:\n      0x20\n      mul\n      0x20\n      add\n      add\n        /* \"school-registery/register.sol\":3113:3147  matchedStudent[index] = records[j] */\n      dup2\n      swap1\n      mstore\n      pop\n        /* \"school-registery/register.sol\":3216:3223  index++ */\n      dup2\n      dup1\n      tag_125\n      swap1\n      tag_34\n      jump\t// in\n    tag_125:\n      swap3\n      pop\n      pop\n        /* \"school-registery/register.sol\":3047:3292  if (records[j].hashClass == hashString(_class)) {... */\n    tag_120:\n        /* \"school-registery/register.sol\":3028:3031  j++ */\n      dup1\n      dup1\n      0x01\n      add\n      swap2\n      pop\n      pop\n        /* \"school-registery/register.sol\":2988:3302  for (uint256 j = 0; j < records.length; j++) {... */\n      jump(tag_114)\n    tag_115:\n      pop\n        /* \"school-registery/register.sol\":3319:3333  matchedStudent */\n      dup2\n        /* \"school-registery/register.sol\":3312:3333  return matchedStudent */\n      swap5\n      pop\n      pop\n      pop\n      pop\n      pop\n        /* \"school-registery/register.sol\":2092:3394  function getStudentByClass(string calldata _class)... */\n      swap3\n      swap2\n      pop\n      pop\n      jump\t// out\n        /* \"school-registery/register.sol\":567:695  function hashString(string memory _str) private pure returns (bytes32) {... */\n    tag_32:\n        /* \"school-registery/register.sol\":629:636  bytes32 */\n      0x00\n        /* \"school-registery/register.sol\":682:686  _str */\n      dup2\n        /* \"school-registery/register.sol\":665:687  abi.encodePacked(_str) */\n      add(0x20, mload(0x40))\n      tag_127\n      swap2\n      swap1\n      tag_128\n      jump\t// in\n    tag_127:\n      mload(0x40)\n      0x20\n      dup2\n      dup4\n      sub\n      sub\n      dup2\n      mstore\n      swap1\n      0x40\n      mstore\n        /* \"school-registery/register.sol\":655:688  keccak256(abi.encodePacked(_str)) */\n      dup1\n      mload\n      swap1\n      0x20\n      add\n      keccak256\n        /* \"school-registery/register.sol\":648:688  return keccak256(abi.encodePacked(_str)) */\n      swap1\n      pop\n        /* \"school-registery/register.sol\":567:695  function hashString(string memory _str) private pure returns (bytes32) {... */\n      swap2\n      swap1\n      pop\n      jump\t// out\n    tag_42:\n      mload(0x40)\n      dup1\n      0x80\n      add\n      0x40\n      mstore\n      dup1\n      0x60\n      dup2\n      mstore\n      0x20\n      add\n      0x00\n      dup2\n      mstore\n      0x20\n      add\n      0x60\n      dup2\n      mstore\n      0x20\n      add\n      0x00\n      dup1\n      not\n      and\n      dup2\n      mstore\n      pop\n      swap1\n      jump\t// out\n        /* \"#utility.yul\":88:205   */\n    tag_130:\n        /* \"#utility.yul\":197:198   */\n      0x00\n        /* \"#utility.yul\":194:195   */\n      dup1\n        /* \"#utility.yul\":187:199   */\n      revert\n        /* \"#utility.yul\":211:328   */\n    tag_131:\n        /* \"#utility.yul\":320:321   */\n      0x00\n        /* \"#utility.yul\":317:318   */\n      dup1\n        /* \"#utility.yul\":310:322   */\n      revert\n        /* \"#utility.yul\":334:451   */\n    tag_132:\n        /* \"#utility.yul\":443:444   */\n      0x00\n        /* \"#utility.yul\":440:441   */\n      dup1\n        /* \"#utility.yul\":433:445   */\n      revert\n        /* \"#utility.yul\":457:574   */\n    tag_133:\n        /* \"#utility.yul\":566:567   */\n      0x00\n        /* \"#utility.yul\":563:564   */\n      dup1\n        /* \"#utility.yul\":556:568   */\n      revert\n        /* \"#utility.yul\":580:697   */\n    tag_134:\n        /* \"#utility.yul\":689:690   */\n      0x00\n        /* \"#utility.yul\":686:687   */\n      dup1\n        /* \"#utility.yul\":679:691   */\n      revert\n        /* \"#utility.yul\":717:1270   */\n    tag_135:\n        /* \"#utility.yul\":775:783   */\n      0x00\n        /* \"#utility.yul\":785:791   */\n      dup1\n        /* \"#utility.yul\":835:838   */\n      dup4\n        /* \"#utility.yul\":828:832   */\n      0x1f\n        /* \"#utility.yul\":820:826   */\n      dup5\n        /* \"#utility.yul\":816:833   */\n      add\n        /* \"#utility.yul\":812:839   */\n      slt\n        /* \"#utility.yul\":802:924   */\n      tag_190\n      jumpi\n        /* \"#utility.yul\":843:922   */\n      tag_191\n      tag_132\n      jump\t// in\n    tag_191:\n        /* \"#utility.yul\":802:924   */\n    tag_190:\n        /* \"#utility.yul\":956:962   */\n      dup3\n        /* \"#utility.yul\":943:963   */\n      calldataload\n        /* \"#utility.yul\":933:963   */\n      swap1\n      pop\n        /* \"#utility.yul\":986:1004   */\n      0xffffffffffffffff\n        /* \"#utility.yul\":978:984   */\n      dup2\n        /* \"#utility.yul\":975:1005   */\n      gt\n        /* \"#utility.yul\":972:1089   */\n      iszero\n      tag_192\n      jumpi\n        /* \"#utility.yul\":1008:1087   */\n      tag_193\n      tag_133\n      jump\t// in\n    tag_193:\n        /* \"#utility.yul\":972:1089   */\n    tag_192:\n        /* \"#utility.yul\":1122:1126   */\n      0x20\n        /* \"#utility.yul\":1114:1120   */\n      dup4\n        /* \"#utility.yul\":1110:1127   */\n      add\n        /* \"#utility.yul\":1098:1127   */\n      swap2\n      pop\n        /* \"#utility.yul\":1176:1179   */\n      dup4\n        /* \"#utility.yul\":1168:1172   */\n      0x01\n        /* \"#utility.yul\":1160:1166   */\n      dup3\n        /* \"#utility.yul\":1156:1173   */\n      mul\n        /* \"#utility.yul\":1146:1154   */\n      dup4\n        /* \"#utility.yul\":1142:1174   */\n      add\n        /* \"#utility.yul\":1139:1180   */\n      gt\n        /* \"#utility.yul\":1136:1264   */\n      iszero\n      tag_194\n      jumpi\n        /* \"#utility.yul\":1183:1262   */\n      tag_195\n      tag_134\n      jump\t// in\n    tag_195:\n        /* \"#utility.yul\":1136:1264   */\n    tag_194:\n        /* \"#utility.yul\":717:1270   */\n      swap3\n      pop\n      swap3\n      swap1\n      pop\n      jump\t// out\n        /* \"#utility.yul\":1276:2150   */\n    tag_9:\n        /* \"#utility.yul\":1368:1374   */\n      0x00\n        /* \"#utility.yul\":1376:1382   */\n      dup1\n        /* \"#utility.yul\":1384:1390   */\n      0x00\n        /* \"#utility.yul\":1392:1398   */\n      dup1\n        /* \"#utility.yul\":1441:1443   */\n      0x40\n        /* \"#utility.yul\":1429:1438   */\n      dup6\n        /* \"#utility.yul\":1420:1427   */\n      dup8\n        /* \"#utility.yul\":1416:1439   */\n      sub\n        /* \"#utility.yul\":1412:1444   */\n      slt\n        /* \"#utility.yul\":1409:1528   */\n      iszero\n      tag_197\n      jumpi\n        /* \"#utility.yul\":1447:1526   */\n      tag_198\n      tag_130\n      jump\t// in\n    tag_198:\n        /* \"#utility.yul\":1409:1528   */\n    tag_197:\n        /* \"#utility.yul\":1595:1596   */\n      0x00\n        /* \"#utility.yul\":1584:1593   */\n      dup6\n        /* \"#utility.yul\":1580:1597   */\n      add\n        /* \"#utility.yul\":1567:1598   */\n      calldataload\n        /* \"#utility.yul\":1625:1643   */\n      0xffffffffffffffff\n        /* \"#utility.yul\":1617:1623   */\n      dup2\n        /* \"#utility.yul\":1614:1644   */\n      gt\n        /* \"#utility.yul\":1611:1728   */\n      iszero\n      tag_199\n      jumpi\n        /* \"#utility.yul\":1647:1726   */\n      tag_200\n      tag_131\n      jump\t// in\n    tag_200:\n        /* \"#utility.yul\":1611:1728   */\n    tag_199:\n        /* \"#utility.yul\":1760:1825   */\n      tag_201\n        /* \"#utility.yul\":1817:1824   */\n      dup8\n        /* \"#utility.yul\":1808:1814   */\n      dup3\n        /* \"#utility.yul\":1797:1806   */\n      dup9\n        /* \"#utility.yul\":1793:1815   */\n      add\n        /* \"#utility.yul\":1760:1825   */\n      tag_135\n      jump\t// in\n    tag_201:\n        /* \"#utility.yul\":1742:1825   */\n      swap5\n      pop\n      swap5\n      pop\n        /* \"#utility.yul\":1538:1835   */\n      pop\n        /* \"#utility.yul\":1902:1904   */\n      0x20\n        /* \"#utility.yul\":1891:1900   */\n      dup6\n        /* \"#utility.yul\":1887:1905   */\n      add\n        /* \"#utility.yul\":1874:1906   */\n      calldataload\n        /* \"#utility.yul\":1933:1951   */\n      0xffffffffffffffff\n        /* \"#utility.yul\":1925:1931   */\n      dup2\n        /* \"#utility.yul\":1922:1952   */\n      gt\n        /* \"#utility.yul\":1919:2036   */\n      iszero\n      tag_202\n      jumpi\n        /* \"#utility.yul\":1955:2034   */\n      tag_203\n      tag_131\n      jump\t// in\n    tag_203:\n        /* \"#utility.yul\":1919:2036   */\n    tag_202:\n        /* \"#utility.yul\":2068:2133   */\n      tag_204\n        /* \"#utility.yul\":2125:2132   */\n      dup8\n        /* \"#utility.yul\":2116:2122   */\n      dup3\n        /* \"#utility.yul\":2105:2114   */\n      dup9\n        /* \"#utility.yul\":2101:2123   */\n      add\n        /* \"#utility.yul\":2068:2133   */\n      tag_135\n      jump\t// in\n    tag_204:\n        /* \"#utility.yul\":2050:2133   */\n      swap3\n      pop\n      swap3\n      pop\n        /* \"#utility.yul\":1845:2143   */\n      pop\n        /* \"#utility.yul\":1276:2150   */\n      swap3\n      swap6\n      swap2\n      swap5\n      pop\n      swap3\n      pop\n      jump\t// out\n        /* \"#utility.yul\":2156:2233   */\n    tag_136:\n        /* \"#utility.yul\":2193:2200   */\n      0x00\n        /* \"#utility.yul\":2222:2227   */\n      dup2\n        /* \"#utility.yul\":2211:2227   */\n      swap1\n      pop\n        /* \"#utility.yul\":2156:2233   */\n      swap2\n      swap1\n      pop\n      jump\t// out\n        /* \"#utility.yul\":2239:2361   */\n    tag_137:\n        /* \"#utility.yul\":2312:2336   */\n      tag_207\n        /* \"#utility.yul\":2330:2335   */\n      dup2\n        /* \"#utility.yul\":2312:2336   */\n      tag_136\n      jump\t// in\n    tag_207:\n        /* \"#utility.yul\":2305:2310   */\n      dup2\n        /* \"#utility.yul\":2302:2337   */\n      eq\n        /* \"#utility.yul\":2292:2355   */\n      tag_208\n      jumpi\n        /* \"#utility.yul\":2351:2352   */\n      0x00\n        /* \"#utility.yul\":2348:2349   */\n      dup1\n        /* \"#utility.yul\":2341:2353   */\n      revert\n        /* \"#utility.yul\":2292:2355   */\n    tag_208:\n        /* \"#utility.yul\":2239:2361   */\n      pop\n      jump\t// out\n        /* \"#utility.yul\":2367:2506   */\n    tag_138:\n        /* \"#utility.yul\":2413:2418   */\n      0x00\n        /* \"#utility.yul\":2451:2457   */\n      dup2\n        /* \"#utility.yul\":2438:2458   */\n      calldataload\n        /* \"#utility.yul\":2429:2458   */\n      swap1\n      pop\n        /* \"#utility.yul\":2467:2500   */\n      tag_210\n        /* \"#utility.yul\":2494:2499   */\n      dup2\n        /* \"#utility.yul\":2467:2500   */\n      tag_137\n      jump\t// in\n    tag_210:\n        /* \"#utility.yul\":2367:2506   */\n      swap3\n      swap2\n      pop\n      pop\n      jump\t// out\n        /* \"#utility.yul\":2512:2841   */\n    tag_13:\n        /* \"#utility.yul\":2571:2577   */\n      0x00\n        /* \"#utility.yul\":2620:2622   */\n      0x20\n        /* \"#utility.yul\":2608:2617   */\n      dup3\n        /* \"#utility.yul\":2599:2606   */\n      dup5\n        /* \"#utility.yul\":2595:2618   */\n      sub\n        /* \"#utility.yul\":2591:2623   */\n      slt\n        /* \"#utility.yul\":2588:2707   */\n      iszero\n      tag_212\n      jumpi\n        /* \"#utility.yul\":2626:2705   */\n      tag_213\n      tag_130\n      jump\t// in\n    tag_213:\n        /* \"#utility.yul\":2588:2707   */\n    tag_212:\n        /* \"#utility.yul\":2746:2747   */\n      0x00\n        /* \"#utility.yul\":2771:2824   */\n      tag_214\n        /* \"#utility.yul\":2816:2823   */\n      dup5\n        /* \"#utility.yul\":2807:2813   */\n      dup3\n        /* \"#utility.yul\":2796:2805   */\n      dup6\n        /* \"#utility.yul\":2792:2814   */\n      add\n        /* \"#utility.yul\":2771:2824   */\n      tag_138\n      jump\t// in\n    tag_214:\n        /* \"#utility.yul\":2761:2824   */\n      swap2\n      pop\n        /* \"#utility.yul\":2717:2834   */\n      pop\n        /* \"#utility.yul\":2512:2841   */\n      swap3\n      swap2\n      pop\n      pop\n      jump\t// out\n        /* \"#utility.yul\":2847:2946   */\n    tag_139:\n        /* \"#utility.yul\":2899:2905   */\n      0x00\n        /* \"#utility.yul\":2933:2938   */\n      dup2\n        /* \"#utility.yul\":2927:2939   */\n      mload\n        /* \"#utility.yul\":2917:2939   */\n      swap1\n      pop\n        /* \"#utility.yul\":2847:2946   */\n      swap2\n      swap1\n      pop\n      jump\t// out\n        /* \"#utility.yul\":2952:3111   */\n    tag_140:\n        /* \"#utility.yul\":3026:3037   */\n      0x00\n        /* \"#utility.yul\":3060:3066   */\n      dup3\n        /* \"#utility.yul\":3055:3058   */\n      dup3\n        /* \"#utility.yul\":3048:3067   */\n      mstore\n        /* \"#utility.yul\":3100:3104   */\n      0x20\n        /* \"#utility.yul\":3095:3098   */\n      dup3\n        /* \"#utility.yul\":3091:3105   */\n      add\n        /* \"#utility.yul\":3076:3105   */\n      swap1\n      pop\n        /* \"#utility.yul\":2952:3111   */\n      swap3\n      swap2\n      pop\n      pop\n      jump\t// out\n        /* \"#utility.yul\":3117:3256   */\n    tag_141:\n        /* \"#utility.yul\":3206:3212   */\n      dup3\n        /* \"#utility.yul\":3201:3204   */\n      dup2\n        /* \"#utility.yul\":3196:3199   */\n      dup4\n        /* \"#utility.yul\":3190:3213   */\n      mcopy\n        /* \"#utility.yul\":3247:3248   */\n      0x00\n        /* \"#utility.yul\":3238:3244   */\n      dup4\n        /* \"#utility.yul\":3233:3236   */\n      dup4\n        /* \"#utility.yul\":3229:3245   */\n      add\n        /* \"#utility.yul\":3222:3249   */\n      mstore\n        /* \"#utility.yul\":3117:3256   */\n      pop\n      pop\n      pop\n      jump\t// out\n        /* \"#utility.yul\":3262:3364   */\n    tag_142:\n        /* \"#utility.yul\":3303:3309   */\n      0x00\n        /* \"#utility.yul\":3354:3356   */\n      0x1f\n        /* \"#utility.yul\":3350:3357   */\n      not\n        /* \"#utility.yul\":3345:3347   */\n      0x1f\n        /* \"#utility.yul\":3338:3343   */\n      dup4\n        /* \"#utility.yul\":3334:3348   */\n      add\n        /* \"#utility.yul\":3330:3358   */\n      and\n        /* \"#utility.yul\":3320:3358   */\n      swap1\n      pop\n        /* \"#utility.yul\":3262:3364   */\n      swap2\n      swap1\n      pop\n      jump\t// out\n        /* \"#utility.yul\":3370:3727   */\n    tag_143:\n        /* \"#utility.yul\":3448:3451   */\n      0x00\n        /* \"#utility.yul\":3476:3515   */\n      tag_220\n        /* \"#utility.yul\":3509:3514   */\n      dup3\n        /* \"#utility.yul\":3476:3515   */\n      tag_139\n      jump\t// in\n    tag_220:\n        /* \"#utility.yul\":3531:3592   */\n      tag_221\n        /* \"#utility.yul\":3585:3591   */\n      dup2\n        /* \"#utility.yul\":3580:3583   */\n      dup6\n        /* \"#utility.yul\":3531:3592   */\n      tag_140\n      jump\t// in\n    tag_221:\n        /* \"#utility.yul\":3524:3592   */\n      swap4\n      pop\n        /* \"#utility.yul\":3601:3666   */\n      tag_222\n        /* \"#utility.yul\":3659:3665   */\n      dup2\n        /* \"#utility.yul\":3654:3657   */\n      dup6\n        /* \"#utility.yul\":3647:3651   */\n      0x20\n        /* \"#utility.yul\":3640:3645   */\n      dup7\n        /* \"#utility.yul\":3636:3652   */\n      add\n        /* \"#utility.yul\":3601:3666   */\n      tag_141\n      jump\t// in\n    tag_222:\n        /* \"#utility.yul\":3691:3720   */\n      tag_223\n        /* \"#utility.yul\":3713:3719   */\n      dup2\n        /* \"#utility.yul\":3691:3720   */\n      tag_142\n      jump\t// in\n    tag_223:\n        /* \"#utility.yul\":3686:3689   */\n      dup5\n        /* \"#utility.yul\":3682:3721   */\n      add\n        /* \"#utility.yul\":3675:3721   */\n      swap2\n      pop\n        /* \"#utility.yul\":3452:3727   */\n      pop\n        /* \"#utility.yul\":3370:3727   */\n      swap3\n      swap2\n      pop\n      pop\n      jump\t// out\n        /* \"#utility.yul\":3733:3841   */\n    tag_144:\n        /* \"#utility.yul\":3810:3834   */\n      tag_225\n        /* \"#utility.yul\":3828:3833   */\n      dup2\n        /* \"#utility.yul\":3810:3834   */\n      tag_136\n      jump\t// in\n    tag_225:\n        /* \"#utility.yul\":3805:3808   */\n      dup3\n        /* \"#utility.yul\":3798:3835   */\n      mstore\n        /* \"#utility.yul\":3733:3841   */\n      pop\n      pop\n      jump\t// out\n        /* \"#utility.yul\":3847:3924   */\n    tag_145:\n        /* \"#utility.yul\":3884:3891   */\n      0x00\n        /* \"#utility.yul\":3913:3918   */\n      dup2\n        /* \"#utility.yul\":3902:3918   */\n      swap1\n      pop\n        /* \"#utility.yul\":3847:3924   */\n      swap2\n      swap1\n      pop\n      jump\t// out\n        /* \"#utility.yul\":3930:4038   */\n    tag_146:\n        /* \"#utility.yul\":4007:4031   */\n      tag_228\n        /* \"#utility.yul\":4025:4030   */\n      dup2\n        /* \"#utility.yul\":4007:4031   */\n      tag_145\n      jump\t// in\n    tag_228:\n        /* \"#utility.yul\":4002:4005   */\n      dup3\n        /* \"#utility.yul\":3995:4032   */\n      mstore\n        /* \"#utility.yul\":3930:4038   */\n      pop\n      pop\n      jump\t// out\n        /* \"#utility.yul\":4116:5143   */\n    tag_147:\n        /* \"#utility.yul\":4233:4236   */\n      0x00\n        /* \"#utility.yul\":4269:4273   */\n      0x80\n        /* \"#utility.yul\":4264:4267   */\n      dup4\n        /* \"#utility.yul\":4260:4274   */\n      add\n        /* \"#utility.yul\":4356:4360   */\n      0x00\n        /* \"#utility.yul\":4349:4354   */\n      dup4\n        /* \"#utility.yul\":4345:4361   */\n      add\n        /* \"#utility.yul\":4339:4362   */\n      mload\n        /* \"#utility.yul\":4409:4412   */\n      dup5\n        /* \"#utility.yul\":4403:4407   */\n      dup3\n        /* \"#utility.yul\":4399:4413   */\n      sub\n        /* \"#utility.yul\":4392:4396   */\n      0x00\n        /* \"#utility.yul\":4387:4390   */\n      dup7\n        /* \"#utility.yul\":4383:4397   */\n      add\n        /* \"#utility.yul\":4376:4414   */\n      mstore\n        /* \"#utility.yul\":4435:4508   */\n      tag_230\n        /* \"#utility.yul\":4503:4507   */\n      dup3\n        /* \"#utility.yul\":4489:4501   */\n      dup3\n        /* \"#utility.yul\":4435:4508   */\n      tag_143\n      jump\t// in\n    tag_230:\n        /* \"#utility.yul\":4427:4508   */\n      swap2\n      pop\n        /* \"#utility.yul\":4284:4519   */\n      pop\n        /* \"#utility.yul\":4599:4603   */\n      0x20\n        /* \"#utility.yul\":4592:4597   */\n      dup4\n        /* \"#utility.yul\":4588:4604   */\n      add\n        /* \"#utility.yul\":4582:4605   */\n      mload\n        /* \"#utility.yul\":4618:4681   */\n      tag_231\n        /* \"#utility.yul\":4675:4679   */\n      0x20\n        /* \"#utility.yul\":4670:4673   */\n      dup7\n        /* \"#utility.yul\":4666:4680   */\n      add\n        /* \"#utility.yul\":4652:4664   */\n      dup3\n        /* \"#utility.yul\":4618:4681   */\n      tag_144\n      jump\t// in\n    tag_231:\n        /* \"#utility.yul\":4529:4691   */\n      pop\n        /* \"#utility.yul\":4774:4778   */\n      0x40\n        /* \"#utility.yul\":4767:4772   */\n      dup4\n        /* \"#utility.yul\":4763:4779   */\n      add\n        /* \"#utility.yul\":4757:4780   */\n      mload\n        /* \"#utility.yul\":4827:4830   */\n      dup5\n        /* \"#utility.yul\":4821:4825   */\n      dup3\n        /* \"#utility.yul\":4817:4831   */\n      sub\n        /* \"#utility.yul\":4810:4814   */\n      0x40\n        /* \"#utility.yul\":4805:4808   */\n      dup7\n        /* \"#utility.yul\":4801:4815   */\n      add\n        /* \"#utility.yul\":4794:4832   */\n      mstore\n        /* \"#utility.yul\":4853:4926   */\n      tag_232\n        /* \"#utility.yul\":4921:4925   */\n      dup3\n        /* \"#utility.yul\":4907:4919   */\n      dup3\n        /* \"#utility.yul\":4853:4926   */\n      tag_143\n      jump\t// in\n    tag_232:\n        /* \"#utility.yul\":4845:4926   */\n      swap2\n      pop\n        /* \"#utility.yul\":4701:4937   */\n      pop\n        /* \"#utility.yul\":5024:5028   */\n      0x60\n        /* \"#utility.yul\":5017:5022   */\n      dup4\n        /* \"#utility.yul\":5013:5029   */\n      add\n        /* \"#utility.yul\":5007:5030   */\n      mload\n        /* \"#utility.yul\":5043:5106   */\n      tag_233\n        /* \"#utility.yul\":5100:5104   */\n      0x60\n        /* \"#utility.yul\":5095:5098   */\n      dup7\n        /* \"#utility.yul\":5091:5105   */\n      add\n        /* \"#utility.yul\":5077:5089   */\n      dup3\n        /* \"#utility.yul\":5043:5106   */\n      tag_146\n      jump\t// in\n    tag_233:\n        /* \"#utility.yul\":4947:5116   */\n      pop\n        /* \"#utility.yul\":5133:5137   */\n      dup1\n        /* \"#utility.yul\":5126:5137   */\n      swap2\n      pop\n        /* \"#utility.yul\":4238:5143   */\n      pop\n        /* \"#utility.yul\":4116:5143   */\n      swap3\n      swap2\n      pop\n      pop\n      jump\t// out\n        /* \"#utility.yul\":5149:5518   */\n    tag_16:\n        /* \"#utility.yul\":5290:5294   */\n      0x00\n        /* \"#utility.yul\":5328:5330   */\n      0x20\n        /* \"#utility.yul\":5317:5326   */\n      dup3\n        /* \"#utility.yul\":5313:5331   */\n      add\n        /* \"#utility.yul\":5305:5331   */\n      swap1\n      pop\n        /* \"#utility.yul\":5377:5386   */\n      dup2\n        /* \"#utility.yul\":5371:5375   */\n      dup2\n        /* \"#utility.yul\":5367:5387   */\n      sub\n        /* \"#utility.yul\":5363:5364   */\n      0x00\n        /* \"#utility.yul\":5352:5361   */\n      dup4\n        /* \"#utility.yul\":5348:5365   */\n      add\n        /* \"#utility.yul\":5341:5388   */\n      mstore\n        /* \"#utility.yul\":5405:5511   */\n      tag_235\n        /* \"#utility.yul\":5506:5510   */\n      dup2\n        /* \"#utility.yul\":5497:5503   */\n      dup5\n        /* \"#utility.yul\":5405:5511   */\n      tag_147\n      jump\t// in\n    tag_235:\n        /* \"#utility.yul\":5397:5511   */\n      swap1\n      pop\n        /* \"#utility.yul\":5149:5518   */\n      swap3\n      swap2\n      pop\n      pop\n      jump\t// out\n        /* \"#utility.yul\":5524:5662   */\n    tag_148:\n        /* \"#utility.yul\":5615:5621   */\n      0x00\n        /* \"#utility.yul\":5649:5654   */\n      dup2\n        /* \"#utility.yul\":5643:5655   */\n      mload\n        /* \"#utility.yul\":5633:5655   */\n      swap1\n      pop\n        /* \"#utility.yul\":5524:5662   */\n      swap2\n      swap1\n      pop\n      jump\t// out\n        /* \"#utility.yul\":5668:5876   */\n    tag_149:\n        /* \"#utility.yul\":5791:5802   */\n      0x00\n        /* \"#utility.yul\":5825:5831   */\n      dup3\n        /* \"#utility.yul\":5820:5823   */\n      dup3\n        /* \"#utility.yul\":5813:5832   */\n      mstore\n        /* \"#utility.yul\":5865:5869   */\n      0x20\n        /* \"#utility.yul\":5860:5863   */\n      dup3\n        /* \"#utility.yul\":5856:5870   */\n      add\n        /* \"#utility.yul\":5841:5870   */\n      swap1\n      pop\n        /* \"#utility.yul\":5668:5876   */\n      swap3\n      swap2\n      pop\n      pop\n      jump\t// out\n        /* \"#utility.yul\":5882:6038   */\n    tag_150:\n        /* \"#utility.yul\":5973:5977   */\n      0x00\n        /* \"#utility.yul\":5996:5999   */\n      dup2\n        /* \"#utility.yul\":5988:5999   */\n      swap1\n      pop\n        /* \"#utility.yul\":6026:6030   */\n      0x20\n        /* \"#utility.yul\":6021:6024   */\n      dup3\n        /* \"#utility.yul\":6017:6031   */\n      add\n        /* \"#utility.yul\":6009:6031   */\n      swap1\n      pop\n        /* \"#utility.yul\":5882:6038   */\n      swap2\n      swap1\n      pop\n      jump\t// out\n        /* \"#utility.yul\":6116:7133   */\n    tag_151:\n        /* \"#utility.yul\":6223:6226   */\n      0x00\n        /* \"#utility.yul\":6259:6263   */\n      0x80\n        /* \"#utility.yul\":6254:6257   */\n      dup4\n        /* \"#utility.yul\":6250:6264   */\n      add\n        /* \"#utility.yul\":6346:6350   */\n      0x00\n        /* \"#utility.yul\":6339:6344   */\n      dup4\n        /* \"#utility.yul\":6335:6351   */\n      add\n        /* \"#utility.yul\":6329:6352   */\n      mload\n        /* \"#utility.yul\":6399:6402   */\n      dup5\n        /* \"#utility.yul\":6393:6397   */\n      dup3\n        /* \"#utility.yul\":6389:6403   */\n      sub\n        /* \"#utility.yul\":6382:6386   */\n      0x00\n        /* \"#utility.yul\":6377:6380   */\n      dup7\n        /* \"#utility.yul\":6373:6387   */\n      add\n        /* \"#utility.yul\":6366:6404   */\n      mstore\n        /* \"#utility.yul\":6425:6498   */\n      tag_240\n        /* \"#utility.yul\":6493:6497   */\n      dup3\n        /* \"#utility.yul\":6479:6491   */\n      dup3\n        /* \"#utility.yul\":6425:6498   */\n      tag_143\n      jump\t// in\n    tag_240:\n        /* \"#utility.yul\":6417:6498   */\n      swap2\n      pop\n        /* \"#utility.yul\":6274:6509   */\n      pop\n        /* \"#utility.yul\":6589:6593   */\n      0x20\n        /* \"#utility.yul\":6582:6587   */\n      dup4\n        /* \"#utility.yul\":6578:6594   */\n      add\n        /* \"#utility.yul\":6572:6595   */\n      mload\n        /* \"#utility.yul\":6608:6671   */\n      tag_241\n        /* \"#utility.yul\":6665:6669   */\n      0x20\n        /* \"#utility.yul\":6660:6663   */\n      dup7\n        /* \"#utility.yul\":6656:6670   */\n      add\n        /* \"#utility.yul\":6642:6654   */\n      dup3\n        /* \"#utility.yul\":6608:6671   */\n      tag_144\n      jump\t// in\n    tag_241:\n        /* \"#utility.yul\":6519:6681   */\n      pop\n        /* \"#utility.yul\":6764:6768   */\n      0x40\n        /* \"#utility.yul\":6757:6762   */\n      dup4\n        /* \"#utility.yul\":6753:6769   */\n      add\n        /* \"#utility.yul\":6747:6770   */\n      mload\n        /* \"#utility.yul\":6817:6820   */\n      dup5\n        /* \"#utility.yul\":6811:6815   */\n      dup3\n        /* \"#utility.yul\":6807:6821   */\n      sub\n        /* \"#utility.yul\":6800:6804   */\n      0x40\n        /* \"#utility.yul\":6795:6798   */\n      dup7\n        /* \"#utility.yul\":6791:6805   */\n      add\n        /* \"#utility.yul\":6784:6822   */\n      mstore\n        /* \"#utility.yul\":6843:6916   */\n      tag_242\n        /* \"#utility.yul\":6911:6915   */\n      dup3\n        /* \"#utility.yul\":6897:6909   */\n      dup3\n        /* \"#utility.yul\":6843:6916   */\n      tag_143\n      jump\t// in\n    tag_242:\n        /* \"#utility.yul\":6835:6916   */\n      swap2\n      pop\n        /* \"#utility.yul\":6691:6927   */\n      pop\n        /* \"#utility.yul\":7014:7018   */\n      0x60\n        /* \"#utility.yul\":7007:7012   */\n      dup4\n        /* \"#utility.yul\":7003:7019   */\n      add\n        /* \"#utility.yul\":6997:7020   */\n      mload\n        /* \"#utility.yul\":7033:7096   */\n      tag_243\n        /* \"#utility.yul\":7090:7094   */\n      0x60\n        /* \"#utility.yul\":7085:7088   */\n      dup7\n        /* \"#utility.yul\":7081:7095   */\n      add\n        /* \"#utility.yul\":7067:7079   */\n      dup3\n        /* \"#utility.yul\":7033:7096   */\n      tag_146\n      jump\t// in\n    tag_243:\n        /* \"#utility.yul\":6937:7106   */\n      pop\n        /* \"#utility.yul\":7123:7127   */\n      dup1\n        /* \"#utility.yul\":7116:7127   */\n      swap2\n      pop\n        /* \"#utility.yul\":6228:7133   */\n      pop\n        /* \"#utility.yul\":6116:7133   */\n      swap3\n      swap2\n      pop\n      pop\n      jump\t// out\n        /* \"#utility.yul\":7139:7391   */\n    tag_152:\n        /* \"#utility.yul\":7256:7266   */\n      0x00\n        /* \"#utility.yul\":7291:7385   */\n      tag_245\n        /* \"#utility.yul\":7381:7384   */\n      dup4\n        /* \"#utility.yul\":7373:7379   */\n      dup4\n        /* \"#utility.yul\":7291:7385   */\n      tag_151\n      jump\t// in\n    tag_245:\n        /* \"#utility.yul\":7277:7385   */\n      swap1\n      pop\n        /* \"#utility.yul\":7139:7391   */\n      swap3\n      swap2\n      pop\n      pop\n      jump\t// out\n        /* \"#utility.yul\":7397:7534   */\n    tag_153:\n        /* \"#utility.yul\":7491:7495   */\n      0x00\n        /* \"#utility.yul\":7523:7527   */\n      0x20\n        /* \"#utility.yul\":7518:7521   */\n      dup3\n        /* \"#utility.yul\":7514:7528   */\n      add\n        /* \"#utility.yul\":7506:7528   */\n      swap1\n      pop\n        /* \"#utility.yul\":7397:7534   */\n      swap2\n      swap1\n      pop\n      jump\t// out\n        /* \"#utility.yul\":7616:8719   */\n    tag_154:\n        /* \"#utility.yul\":7783:7786   */\n      0x00\n        /* \"#utility.yul\":7812:7890   */\n      tag_248\n        /* \"#utility.yul\":7884:7889   */\n      dup3\n        /* \"#utility.yul\":7812:7890   */\n      tag_148\n      jump\t// in\n    tag_248:\n        /* \"#utility.yul\":7906:8016   */\n      tag_249\n        /* \"#utility.yul\":8009:8015   */\n      dup2\n        /* \"#utility.yul\":8004:8007   */\n      dup6\n        /* \"#utility.yul\":7906:8016   */\n      tag_149\n      jump\t// in\n    tag_249:\n        /* \"#utility.yul\":7899:8016   */\n      swap4\n      pop\n        /* \"#utility.yul\":8042:8045   */\n      dup4\n        /* \"#utility.yul\":8087:8091   */\n      0x20\n        /* \"#utility.yul\":8079:8085   */\n      dup3\n        /* \"#utility.yul\":8075:8092   */\n      mul\n        /* \"#utility.yul\":8070:8073   */\n      dup6\n        /* \"#utility.yul\":8066:8093   */\n      add\n        /* \"#utility.yul\":8117:8197   */\n      tag_250\n        /* \"#utility.yul\":8191:8196   */\n      dup6\n        /* \"#utility.yul\":8117:8197   */\n      tag_150\n      jump\t// in\n    tag_250:\n        /* \"#utility.yul\":8220:8227   */\n      dup1\n        /* \"#utility.yul\":8251:8252   */\n      0x00\n        /* \"#utility.yul\":8236:8674   */\n    tag_251:\n        /* \"#utility.yul\":8261:8267   */\n      dup6\n        /* \"#utility.yul\":8258:8259   */\n      dup2\n        /* \"#utility.yul\":8255:8268   */\n      lt\n        /* \"#utility.yul\":8236:8674   */\n      iszero\n      tag_253\n      jumpi\n        /* \"#utility.yul\":8332:8341   */\n      dup5\n        /* \"#utility.yul\":8326:8330   */\n      dup5\n        /* \"#utility.yul\":8322:8342   */\n      sub\n        /* \"#utility.yul\":8317:8320   */\n      dup10\n        /* \"#utility.yul\":8310:8343   */\n      mstore\n        /* \"#utility.yul\":8383:8389   */\n      dup2\n        /* \"#utility.yul\":8377:8390   */\n      mload\n        /* \"#utility.yul\":8411:8523   */\n      tag_254\n        /* \"#utility.yul\":8518:8522   */\n      dup6\n        /* \"#utility.yul\":8503:8516   */\n      dup3\n        /* \"#utility.yul\":8411:8523   */\n      tag_152\n      jump\t// in\n    tag_254:\n        /* \"#utility.yul\":8403:8523   */\n      swap5\n      pop\n        /* \"#utility.yul\":8546:8630   */\n      tag_255\n        /* \"#utility.yul\":8623:8629   */\n      dup4\n        /* \"#utility.yul\":8546:8630   */\n      tag_153\n      jump\t// in\n    tag_255:\n        /* \"#utility.yul\":8536:8630   */\n      swap3\n      pop\n        /* \"#utility.yul\":8659:8663   */\n      0x20\n        /* \"#utility.yul\":8654:8657   */\n      dup11\n        /* \"#utility.yul\":8650:8664   */\n      add\n        /* \"#utility.yul\":8643:8664   */\n      swap10\n      pop\n        /* \"#utility.yul\":8296:8674   */\n      pop\n        /* \"#utility.yul\":8283:8284   */\n      0x01\n        /* \"#utility.yul\":8280:8281   */\n      dup2\n        /* \"#utility.yul\":8276:8285   */\n      add\n        /* \"#utility.yul\":8271:8285   */\n      swap1\n      pop\n        /* \"#utility.yul\":8236:8674   */\n      jump(tag_251)\n    tag_253:\n        /* \"#utility.yul\":8240:8254   */\n      pop\n        /* \"#utility.yul\":8690:8694   */\n      dup3\n        /* \"#utility.yul\":8683:8694   */\n      swap8\n      pop\n        /* \"#utility.yul\":8710:8713   */\n      dup8\n        /* \"#utility.yul\":8703:8713   */\n      swap6\n      pop\n        /* \"#utility.yul\":7788:8719   */\n      pop\n      pop\n      pop\n      pop\n      pop\n        /* \"#utility.yul\":7616:8719   */\n      swap3\n      swap2\n      pop\n      pop\n      jump\t// out\n        /* \"#utility.yul\":8725:9194   */\n    tag_20:\n        /* \"#utility.yul\":8916:8920   */\n      0x00\n        /* \"#utility.yul\":8954:8956   */\n      0x20\n        /* \"#utility.yul\":8943:8952   */\n      dup3\n        /* \"#utility.yul\":8939:8957   */\n      add\n        /* \"#utility.yul\":8931:8957   */\n      swap1\n      pop\n        /* \"#utility.yul\":9003:9012   */\n      dup2\n        /* \"#utility.yul\":8997:9001   */\n      dup2\n        /* \"#utility.yul\":8993:9013   */\n      sub\n        /* \"#utility.yul\":8989:8990   */\n      0x00\n        /* \"#utility.yul\":8978:8987   */\n      dup4\n        /* \"#utility.yul\":8974:8991   */\n      add\n        /* \"#utility.yul\":8967:9014   */\n      mstore\n        /* \"#utility.yul\":9031:9187   */\n      tag_257\n        /* \"#utility.yul\":9182:9186   */\n      dup2\n        /* \"#utility.yul\":9173:9179   */\n      dup5\n        /* \"#utility.yul\":9031:9187   */\n      tag_154\n      jump\t// in\n    tag_257:\n        /* \"#utility.yul\":9023:9187   */\n      swap1\n      pop\n        /* \"#utility.yul\":8725:9194   */\n      swap3\n      swap2\n      pop\n      pop\n      jump\t// out\n        /* \"#utility.yul\":9200:9729   */\n    tag_23:\n        /* \"#utility.yul\":9271:9277   */\n      0x00\n        /* \"#utility.yul\":9279:9285   */\n      dup1\n        /* \"#utility.yul\":9328:9330   */\n      0x20\n        /* \"#utility.yul\":9316:9325   */\n      dup4\n        /* \"#utility.yul\":9307:9314   */\n      dup6\n        /* \"#utility.yul\":9303:9326   */\n      sub\n        /* \"#utility.yul\":9299:9331   */\n      slt\n        /* \"#utility.yul\":9296:9415   */\n      iszero\n      tag_259\n      jumpi\n        /* \"#utility.yul\":9334:9413   */\n      tag_260\n      tag_130\n      jump\t// in\n    tag_260:\n        /* \"#utility.yul\":9296:9415   */\n    tag_259:\n        /* \"#utility.yul\":9482:9483   */\n      0x00\n        /* \"#utility.yul\":9471:9480   */\n      dup4\n        /* \"#utility.yul\":9467:9484   */\n      add\n        /* \"#utility.yul\":9454:9485   */\n      calldataload\n        /* \"#utility.yul\":9512:9530   */\n      0xffffffffffffffff\n        /* \"#utility.yul\":9504:9510   */\n      dup2\n        /* \"#utility.yul\":9501:9531   */\n      gt\n        /* \"#utility.yul\":9498:9615   */\n      iszero\n      tag_261\n      jumpi\n        /* \"#utility.yul\":9534:9613   */\n      tag_262\n      tag_131\n      jump\t// in\n    tag_262:\n        /* \"#utility.yul\":9498:9615   */\n    tag_261:\n        /* \"#utility.yul\":9647:9712   */\n      tag_263\n        /* \"#utility.yul\":9704:9711   */\n      dup6\n        /* \"#utility.yul\":9695:9701   */\n      dup3\n        /* \"#utility.yul\":9684:9693   */\n      dup7\n        /* \"#utility.yul\":9680:9702   */\n      add\n        /* \"#utility.yul\":9647:9712   */\n      tag_135\n      jump\t// in\n    tag_263:\n        /* \"#utility.yul\":9629:9712   */\n      swap3\n      pop\n      swap3\n      pop\n        /* \"#utility.yul\":9425:9722   */\n      pop\n        /* \"#utility.yul\":9200:9729   */\n      swap3\n      pop\n      swap3\n      swap1\n      pop\n      jump\t// out\n        /* \"#utility.yul\":9735:9904   */\n    tag_155:\n        /* \"#utility.yul\":9819:9830   */\n      0x00\n        /* \"#utility.yul\":9853:9859   */\n      dup3\n        /* \"#utility.yul\":9848:9851   */\n      dup3\n        /* \"#utility.yul\":9841:9860   */\n      mstore\n        /* \"#utility.yul\":9893:9897   */\n      0x20\n        /* \"#utility.yul\":9888:9891   */\n      dup3\n        /* \"#utility.yul\":9884:9898   */\n      add\n        /* \"#utility.yul\":9869:9898   */\n      swap1\n      pop\n        /* \"#utility.yul\":9735:9904   */\n      swap3\n      swap2\n      pop\n      pop\n      jump\t// out\n        /* \"#utility.yul\":9910:10092   */\n    tag_156:\n        /* \"#utility.yul\":10050:10084   */\n      0x6f6e6c79207363686f6f6c2063616e20757365207468652066756e6374696f6e\n        /* \"#utility.yul\":10046:10047   */\n      0x00\n        /* \"#utility.yul\":10038:10044   */\n      dup3\n        /* \"#utility.yul\":10034:10048   */\n      add\n        /* \"#utility.yul\":10027:10085   */\n      mstore\n        /* \"#utility.yul\":9910:10092   */\n      pop\n      jump\t// out\n        /* \"#utility.yul\":10098:10464   */\n    tag_157:\n        /* \"#utility.yul\":10240:10243   */\n      0x00\n        /* \"#utility.yul\":10261:10328   */\n      tag_267\n        /* \"#utility.yul\":10325:10327   */\n      0x20\n        /* \"#utility.yul\":10320:10323   */\n      dup4\n        /* \"#utility.yul\":10261:10328   */\n      tag_155\n      jump\t// in\n    tag_267:\n        /* \"#utility.yul\":10254:10328   */\n      swap2\n      pop\n        /* \"#utility.yul\":10337:10430   */\n      tag_268\n        /* \"#utility.yul\":10426:10429   */\n      dup3\n        /* \"#utility.yul\":10337:10430   */\n      tag_156\n      jump\t// in\n    tag_268:\n        /* \"#utility.yul\":10455:10457   */\n      0x20\n        /* \"#utility.yul\":10450:10453   */\n      dup3\n        /* \"#utility.yul\":10446:10458   */\n      add\n        /* \"#utility.yul\":10439:10458   */\n      swap1\n      pop\n        /* \"#utility.yul\":10098:10464   */\n      swap2\n      swap1\n      pop\n      jump\t// out\n        /* \"#utility.yul\":10470:10889   */\n    tag_29:\n        /* \"#utility.yul\":10636:10640   */\n      0x00\n        /* \"#utility.yul\":10674:10676   */\n      0x20\n        /* \"#utility.yul\":10663:10672   */\n      dup3\n        /* \"#utility.yul\":10659:10677   */\n      add\n        /* \"#utility.yul\":10651:10677   */\n      swap1\n      pop\n        /* \"#utility.yul\":10723:10732   */\n      dup2\n        /* \"#utility.yul\":10717:10721   */\n      dup2\n        /* \"#utility.yul\":10713:10733   */\n      sub\n        /* \"#utility.yul\":10709:10710   */\n      0x00\n        /* \"#utility.yul\":10698:10707   */\n      dup4\n        /* \"#utility.yul\":10694:10711   */\n      add\n        /* \"#utility.yul\":10687:10734   */\n      mstore\n        /* \"#utility.yul\":10751:10882   */\n      tag_270\n        /* \"#utility.yul\":10877:10881   */\n      dup2\n        /* \"#utility.yul\":10751:10882   */\n      tag_157\n      jump\t// in\n    tag_270:\n        /* \"#utility.yul\":10743:10882   */\n      swap1\n      pop\n        /* \"#utility.yul\":10470:10889   */\n      swap2\n      swap1\n      pop\n      jump\t// out\n        /* \"#utility.yul\":10895:11075   */\n    tag_158:\n        /* \"#utility.yul\":10943:11020   */\n      0x4e487b7100000000000000000000000000000000000000000000000000000000\n        /* \"#utility.yul\":10940:10941   */\n      0x00\n        /* \"#utility.yul\":10933:11021   */\n      mstore\n        /* \"#utility.yul\":11040:11044   */\n      0x11\n        /* \"#utility.yul\":11037:11038   */\n      0x04\n        /* \"#utility.yul\":11030:11045   */\n      mstore\n        /* \"#utility.yul\":11064:11068   */\n      0x24\n        /* \"#utility.yul\":11061:11062   */\n      0x00\n        /* \"#utility.yul\":11054:11069   */\n      revert\n        /* \"#utility.yul\":11081:11314   */\n    tag_34:\n        /* \"#utility.yul\":11120:11123   */\n      0x00\n        /* \"#utility.yul\":11143:11167   */\n      tag_273\n        /* \"#utility.yul\":11161:11166   */\n      dup3\n        /* \"#utility.yul\":11143:11167   */\n      tag_136\n      jump\t// in\n    tag_273:\n        /* \"#utility.yul\":11134:11167   */\n      swap2\n      pop\n        /* \"#utility.yul\":11189:11255   */\n      0xffffffffffffffffffffffffffffffffffffffffffffffffffffffffffffffff\n        /* \"#utility.yul\":11182:11187   */\n      dup3\n        /* \"#utility.yul\":11179:11256   */\n      sub\n        /* \"#utility.yul\":11176:11279   */\n      tag_274\n      jumpi\n        /* \"#utility.yul\":11259:11277   */\n      tag_275\n      tag_158\n      jump\t// in\n    tag_275:\n        /* \"#utility.yul\":11176:11279   */\n    tag_274:\n        /* \"#utility.yul\":11306:11307   */\n      0x01\n        /* \"#utility.yul\":11299:11304   */\n      dup3\n        /* \"#utility.yul\":11295:11308   */\n      add\n        /* \"#utility.yul\":11288:11308   */\n      swap1\n      pop\n        /* \"#utility.yul\":11081:11314   */\n      swap2\n      swap1\n      pop\n      jump\t// out\n        /* \"#utility.yul\":11320:11500   */\n    tag_110:\n        /* \"#utility.yul\":11368:11445   */\n      0x4e487b7100000000000000000000000000000000000000000000000000000000\n        /* \"#utility.yul\":11365:11366   */\n      0x00\n        /* \"#utility.yul\":11358:11446   */\n      mstore\n        /* \"#utility.yul\":11465:11469   */\n      0x41\n        /* \"#utility.yul\":11462:11463   */\n      0x04\n        /* \"#utility.yul\":11455:11470   */\n      mstore\n        /* \"#utility.yul\":11489:11493   */\n      0x24\n        /* \"#utility.yul\":11486:11487   */\n      0x00\n        /* \"#utility.yul\":11479:11494   */\n      revert\n        /* \"#utility.yul\":11506:11686   */\n    tag_159:\n        /* \"#utility.yul\":11554:11631   */\n      0x4e487b7100000000000000000000000000000000000000000000000000000000\n        /* \"#utility.yul\":11551:11552   */\n      0x00\n        /* \"#utility.yul\":11544:11632   */\n      mstore\n        /* \"#utility.yul\":11651:11655   */\n      0x22\n        /* \"#utility.yul\":11648:11649   */\n      0x04\n        /* \"#utility.yul\":11641:11656   */\n      mstore\n        /* \"#utility.yul\":11675:11679   */\n      0x24\n        /* \"#utility.yul\":11672:11673   */\n      0x00\n        /* \"#utility.yul\":11665:11680   */\n      revert\n        /* \"#utility.yul\":11692:12012   */\n    tag_48:\n        /* \"#utility.yul\":11736:11742   */\n      0x00\n        /* \"#utility.yul\":11773:11774   */\n      0x02\n        /* \"#utility.yul\":11767:11771   */\n      dup3\n        /* \"#utility.yul\":11763:11775   */\n      div\n        /* \"#utility.yul\":11753:11775   */\n      swap1\n      pop\n        /* \"#utility.yul\":11820:11821   */\n      0x01\n        /* \"#utility.yul\":11814:11818   */\n      dup3\n        /* \"#utility.yul\":11810:11822   */\n      and\n        /* \"#utility.yul\":11841:11859   */\n      dup1\n        /* \"#utility.yul\":11831:11912   */\n      tag_279\n      jumpi\n        /* \"#utility.yul\":11897:11901   */\n      0x7f\n        /* \"#utility.yul\":11889:11895   */\n      dup3\n        /* \"#utility.yul\":11885:11902   */\n      and\n        /* \"#utility.yul\":11875:11902   */\n      swap2\n      pop\n        /* \"#utility.yul\":11831:11912   */\n    tag_279:\n        /* \"#utility.yul\":11959:11961   */\n      0x20\n        /* \"#utility.yul\":11951:11957   */\n      dup3\n        /* \"#utility.yul\":11948:11962   */\n      lt\n        /* \"#utility.yul\":11928:11946   */\n      dup2\n        /* \"#utility.yul\":11925:11963   */\n      sub\n        /* \"#utility.yul\":11922:12006   */\n      tag_280\n      jumpi\n        /* \"#utility.yul\":11978:11996   */\n      tag_281\n      tag_159\n      jump\t// in\n    tag_281:\n        /* \"#utility.yul\":11922:12006   */\n    tag_280:\n        /* \"#utility.yul\":11743:12012   */\n      pop\n        /* \"#utility.yul\":11692:12012   */\n      swap2\n      swap1\n      pop\n      jump\t// out\n        /* \"#utility.yul\":12018:12159   */\n    tag_160:\n        /* \"#utility.yul\":12067:12071   */\n      0x00\n        /* \"#utility.yul\":12090:12093   */\n      dup2\n        /* \"#utility.yul\":12082:12093   */\n      swap1\n      pop\n        /* \"#utility.yul\":12113:12116   */\n      dup2\n        /* \"#utility.yul\":12110:12111   */\n      0x00\n        /* \"#utility.yul\":12103:12117   */\n      mstore\n        /* \"#utility.yul\":12147:12151   */\n      0x20\n        /* \"#utility.yul\":12144:12145   */\n      0x00\n        /* \"#utility.yul\":12134:12152   */\n      keccak256\n        /* \"#utility.yul\":12126:12152   */\n      swap1\n      pop\n        /* \"#utility.yul\":12018:12159   */\n      swap2\n      swap1\n      pop\n      jump\t// out\n        /* \"#utility.yul\":12165:12258   */\n    tag_161:\n        /* \"#utility.yul\":12202:12208   */\n      0x00\n        /* \"#utility.yul\":12249:12251   */\n      0x20\n        /* \"#utility.yul\":12244:12246   */\n      0x1f\n        /* \"#utility.yul\":12237:12242   */\n      dup4\n        /* \"#utility.yul\":12233:12247   */\n      add\n        /* \"#utility.yul\":12229:12252   */\n      div\n        /* \"#utility.yul\":12219:12252   */\n      swap1\n      pop\n        /* \"#utility.yul\":12165:12258   */\n      swap2\n      swap1\n      pop\n      jump\t// out\n        /* \"#utility.yul\":12264:12371   */\n    tag_162:\n        /* \"#utility.yul\":12308:12316   */\n      0x00\n        /* \"#utility.yul\":12358:12363   */\n      dup3\n        /* \"#utility.yul\":12352:12356   */\n      dup3\n        /* \"#utility.yul\":12348:12364   */\n      shl\n        /* \"#utility.yul\":12327:12364   */\n      swap1\n      pop\n        /* \"#utility.yul\":12264:12371   */\n      swap3\n      swap2\n      pop\n      pop\n      jump\t// out\n        /* \"#utility.yul\":12377:12770   */\n    tag_163:\n        /* \"#utility.yul\":12446:12452   */\n      0x00\n        /* \"#utility.yul\":12496:12497   */\n      0x08\n        /* \"#utility.yul\":12484:12494   */\n      dup4\n        /* \"#utility.yul\":12480:12498   */\n      mul\n        /* \"#utility.yul\":12519:12616   */\n      tag_286\n        /* \"#utility.yul\":12549:12615   */\n      0xffffffffffffffffffffffffffffffffffffffffffffffffffffffffffffffff\n        /* \"#utility.yul\":12538:12547   */\n      dup3\n        /* \"#utility.yul\":12519:12616   */\n      tag_162\n      jump\t// in\n    tag_286:\n        /* \"#utility.yul\":12637:12676   */\n      tag_287\n        /* \"#utility.yul\":12667:12675   */\n      dup7\n        /* \"#utility.yul\":12656:12665   */\n      dup4\n        /* \"#utility.yul\":12637:12676   */\n      tag_162\n      jump\t// in\n    tag_287:\n        /* \"#utility.yul\":12625:12676   */\n      swap6\n      pop\n        /* \"#utility.yul\":12709:12713   */\n      dup1\n        /* \"#utility.yul\":12705:12714   */\n      not\n        /* \"#utility.yul\":12698:12703   */\n      dup5\n        /* \"#utility.yul\":12694:12715   */\n      and\n        /* \"#utility.yul\":12685:12715   */\n      swap4\n      pop\n        /* \"#utility.yul\":12758:12762   */\n      dup1\n        /* \"#utility.yul\":12748:12756   */\n      dup7\n        /* \"#utility.yul\":12744:12763   */\n      and\n        /* \"#utility.yul\":12737:12742   */\n      dup5\n        /* \"#utility.yul\":12734:12764   */\n      or\n        /* \"#utility.yul\":12724:12764   */\n      swap3\n      pop\n        /* \"#utility.yul\":12453:12770   */\n      pop\n      pop\n        /* \"#utility.yul\":12377:12770   */\n      swap4\n      swap3\n      pop\n      pop\n      pop\n      jump\t// out\n        /* \"#utility.yul\":12776:12836   */\n    tag_164:\n        /* \"#utility.yul\":12804:12807   */\n      0x00\n        /* \"#utility.yul\":12825:12830   */\n      dup2\n        /* \"#utility.yul\":12818:12830   */\n      swap1\n      pop\n        /* \"#utility.yul\":12776:12836   */\n      swap2\n      swap1\n      pop\n      jump\t// out\n        /* \"#utility.yul\":12842:12984   */\n    tag_165:\n        /* \"#utility.yul\":12892:12901   */\n      0x00\n        /* \"#utility.yul\":12925:12978   */\n      tag_290\n        /* \"#utility.yul\":12943:12977   */\n      tag_291\n        /* \"#utility.yul\":12952:12976   */\n      tag_292\n        /* \"#utility.yul\":12970:12975   */\n      dup5\n        /* \"#utility.yul\":12952:12976   */\n      tag_136\n      jump\t// in\n    tag_292:\n        /* \"#utility.yul\":12943:12977   */\n      tag_164\n      jump\t// in\n    tag_291:\n        /* \"#utility.yul\":12925:12978   */\n      tag_136\n      jump\t// in\n    tag_290:\n        /* \"#utility.yul\":12912:12978   */\n      swap1\n      pop\n        /* \"#utility.yul\":12842:12984   */\n      swap2\n      swap1\n      pop\n      jump\t// out\n        /* \"#utility.yul\":12990:13065   */\n    tag_166:\n        /* \"#utility.yul\":13033:13036   */\n      0x00\n        /* \"#utility.yul\":13054:13059   */\n      dup2\n        /* \"#utility.yul\":13047:13059   */\n      swap1\n      pop\n        /* \"#utility.yul\":12990:13065   */\n      swap2\n      swap1\n      pop\n      jump\t// out\n        /* \"#utility.yul\":13071:13340   */\n    tag_167:\n        /* \"#utility.yul\":13181:13220   */\n      tag_295\n        /* \"#utility.yul\":13212:13219   */\n      dup4\n        /* \"#utility.yul\":13181:13220   */\n      tag_165\n      jump\t// in\n    tag_295:\n        /* \"#utility.yul\":13242:13333   */\n      tag_296\n        /* \"#utility.yul\":13291:13332   */\n      tag_297\n        /* \"#utility.yul\":13315:13331   */\n      dup3\n        /* \"#utility.yul\":13291:13332   */\n      tag_166\n      jump\t// in\n    tag_297:\n        /* \"#utility.yul\":13283:13289   */\n      dup5\n        /* \"#utility.yul\":13276:13280   */\n      dup5\n        /* \"#utility.yul\":13270:13281   */\n      sload\n        /* \"#utility.yul\":13242:13333   */\n      tag_163\n      jump\t// in\n    tag_296:\n        /* \"#utility.yul\":13236:13240   */\n      dup3\n        /* \"#utility.yul\":13229:13334   */\n      sstore\n        /* \"#utility.yul\":13147:13340   */\n      pop\n        /* \"#utility.yul\":13071:13340   */\n      pop\n      pop\n      pop\n      jump\t// out\n        /* \"#utility.yul\":13346:13419   */\n    tag_168:\n        /* \"#utility.yul\":13391:13394   */\n      0x00\n        /* \"#utility.yul\":13346:13419   */\n      swap1\n      jump\t// out\n        /* \"#utility.yul\":13425:13614   */\n    tag_169:\n        /* \"#utility.yul\":13502:13534   */\n      tag_300\n      tag_168\n      jump\t// in\n    tag_300:\n        /* \"#utility.yul\":13543:13608   */\n      tag_301\n        /* \"#utility.yul\":13601:13607   */\n      dup2\n        /* \"#utility.yul\":13593:13599   */\n      dup5\n        /* \"#utility.yul\":13587:13591   */\n      dup5\n        /* \"#utility.yul\":13543:13608   */\n      tag_167\n      jump\t// in\n    tag_301:\n        /* \"#utility.yul\":13478:13614   */\n      pop\n        /* \"#utility.yul\":13425:13614   */\n      pop\n      pop\n      jump\t// out\n        /* \"#utility.yul\":13620:13806   */\n    tag_170:\n        /* \"#utility.yul\":13680:13800   */\n    tag_303:\n        /* \"#utility.yul\":13697:13700   */\n      dup2\n        /* \"#utility.yul\":13690:13695   */\n      dup2\n        /* \"#utility.yul\":13687:13701   */\n      lt\n        /* \"#utility.yul\":13680:13800   */\n      iszero\n      tag_305\n      jumpi\n        /* \"#utility.yul\":13751:13790   */\n      tag_306\n        /* \"#utility.yul\":13788:13789   */\n      0x00\n        /* \"#utility.yul\":13781:13786   */\n      dup3\n        /* \"#utility.yul\":13751:13790   */\n      tag_169\n      jump\t// in\n    tag_306:\n        /* \"#utility.yul\":13724:13725   */\n      0x01\n        /* \"#utility.yul\":13717:13722   */\n      dup2\n        /* \"#utility.yul\":13713:13726   */\n      add\n        /* \"#utility.yul\":13704:13726   */\n      swap1\n      pop\n        /* \"#utility.yul\":13680:13800   */\n      jump(tag_303)\n    tag_305:\n        /* \"#utility.yul\":13620:13806   */\n      pop\n      pop\n      jump\t// out\n        /* \"#utility.yul\":13812:14355   */\n    tag_171:\n        /* \"#utility.yul\":13913:13915   */\n      0x1f\n        /* \"#utility.yul\":13908:13911   */\n      dup3\n        /* \"#utility.yul\":13905:13916   */\n      gt\n        /* \"#utility.yul\":13902:14348   */\n      iszero\n      tag_308\n      jumpi\n        /* \"#utility.yul\":13947:13985   */\n      tag_309\n        /* \"#utility.yul\":13979:13984   */\n      dup2\n        /* \"#utility.yul\":13947:13985   */\n      tag_160\n      jump\t// in\n    tag_309:\n        /* \"#utility.yul\":14031:14060   */\n      tag_310\n        /* \"#utility.yul\":14049:14059   */\n      dup5\n        /* \"#utility.yul\":14031:14060   */\n      tag_161\n      jump\t// in\n    tag_310:\n        /* \"#utility.yul\":14021:14029   */\n      dup2\n        /* \"#utility.yul\":14017:14061   */\n      add\n        /* \"#utility.yul\":14214:14216   */\n      0x20\n        /* \"#utility.yul\":14202:14212   */\n      dup6\n        /* \"#utility.yul\":14199:14217   */\n      lt\n        /* \"#utility.yul\":14196:14245   */\n      iszero\n      tag_311\n      jumpi\n        /* \"#utility.yul\":14235:14243   */\n      dup2\n        /* \"#utility.yul\":14220:14243   */\n      swap1\n      pop\n        /* \"#utility.yul\":14196:14245   */\n    tag_311:\n        /* \"#utility.yul\":14258:14338   */\n      tag_312\n        /* \"#utility.yul\":14314:14336   */\n      tag_313\n        /* \"#utility.yul\":14332:14335   */\n      dup6\n        /* \"#utility.yul\":14314:14336   */\n      tag_161\n      jump\t// in\n    tag_313:\n        /* \"#utility.yul\":14304:14312   */\n      dup4\n        /* \"#utility.yul\":14300:14337   */\n      add\n        /* \"#utility.yul\":14287:14298   */\n      dup3\n        /* \"#utility.yul\":14258:14338   */\n      tag_170\n      jump\t// in\n    tag_312:\n        /* \"#utility.yul\":13917:14348   */\n      pop\n      pop\n        /* \"#utility.yul\":13902:14348   */\n    tag_308:\n        /* \"#utility.yul\":13812:14355   */\n      pop\n      pop\n      pop\n      jump\t// out\n        /* \"#utility.yul\":14361:14478   */\n    tag_172:\n        /* \"#utility.yul\":14415:14423   */\n      0x00\n        /* \"#utility.yul\":14465:14470   */\n      dup3\n        /* \"#utility.yul\":14459:14463   */\n      dup3\n        /* \"#utility.yul\":14455:14471   */\n      shr\n        /* \"#utility.yul\":14434:14471   */\n      swap1\n      pop\n        /* \"#utility.yul\":14361:14478   */\n      swap3\n      swap2\n      pop\n      pop\n      jump\t// out\n        /* \"#utility.yul\":14484:14653   */\n    tag_173:\n        /* \"#utility.yul\":14528:14534   */\n      0x00\n        /* \"#utility.yul\":14561:14612   */\n      tag_316\n        /* \"#utility.yul\":14609:14610   */\n      0x00\n        /* \"#utility.yul\":14605:14611   */\n      not\n        /* \"#utility.yul\":14597:14602   */\n      dup5\n        /* \"#utility.yul\":14594:14595   */\n      0x08\n        /* \"#utility.yul\":14590:14603   */\n      mul\n        /* \"#utility.yul\":14561:14612   */\n      tag_172\n      jump\t// in\n    tag_316:\n        /* \"#utility.yul\":14557:14613   */\n      not\n        /* \"#utility.yul\":14642:14646   */\n      dup1\n        /* \"#utility.yul\":14636:14640   */\n      dup4\n        /* \"#utility.yul\":14632:14647   */\n      and\n        /* \"#utility.yul\":14622:14647   */\n      swap2\n      pop\n        /* \"#utility.yul\":14535:14653   */\n      pop\n        /* \"#utility.yul\":14484:14653   */\n      swap3\n      swap2\n      pop\n      pop\n      jump\t// out\n        /* \"#utility.yul\":14658:14953   */\n    tag_174:\n        /* \"#utility.yul\":14734:14738   */\n      0x00\n        /* \"#utility.yul\":14880:14909   */\n      tag_318\n        /* \"#utility.yul\":14905:14908   */\n      dup4\n        /* \"#utility.yul\":14899:14903   */\n      dup4\n        /* \"#utility.yul\":14880:14909   */\n      tag_173\n      jump\t// in\n    tag_318:\n        /* \"#utility.yul\":14872:14909   */\n      swap2\n      pop\n        /* \"#utility.yul\":14942:14945   */\n      dup3\n        /* \"#utility.yul\":14939:14940   */\n      0x02\n        /* \"#utility.yul\":14935:14946   */\n      mul\n        /* \"#utility.yul\":14929:14933   */\n      dup3\n        /* \"#utility.yul\":14926:14947   */\n      or\n        /* \"#utility.yul\":14918:14947   */\n      swap1\n      pop\n        /* \"#utility.yul\":14658:14953   */\n      swap3\n      swap2\n      pop\n      pop\n      jump\t// out\n        /* \"#utility.yul\":14958:16353   */\n    tag_37:\n        /* \"#utility.yul\":15075:15112   */\n      tag_320\n        /* \"#utility.yul\":15108:15111   */\n      dup3\n        /* \"#utility.yul\":15075:15112   */\n      tag_139\n      jump\t// in\n    tag_320:\n        /* \"#utility.yul\":15177:15195   */\n      0xffffffffffffffff\n        /* \"#utility.yul\":15169:15175   */\n      dup2\n        /* \"#utility.yul\":15166:15196   */\n      gt\n        /* \"#utility.yul\":15163:15219   */\n      iszero\n      tag_321\n      jumpi\n        /* \"#utility.yul\":15199:15217   */\n      tag_322\n      tag_110\n      jump\t// in\n    tag_322:\n        /* \"#utility.yul\":15163:15219   */\n    tag_321:\n        /* \"#utility.yul\":15243:15281   */\n      tag_323\n        /* \"#utility.yul\":15275:15279   */\n      dup3\n        /* \"#utility.yul\":15269:15280   */\n      sload\n        /* \"#utility.yul\":15243:15281   */\n      tag_48\n      jump\t// in\n    tag_323:\n        /* \"#utility.yul\":15328:15395   */\n      tag_324\n        /* \"#utility.yul\":15388:15394   */\n      dup3\n        /* \"#utility.yul\":15380:15386   */\n      dup3\n        /* \"#utility.yul\":15374:15378   */\n      dup6\n        /* \"#utility.yul\":15328:15395   */\n      tag_171\n      jump\t// in\n    tag_324:\n        /* \"#utility.yul\":15422:15423   */\n      0x00\n        /* \"#utility.yul\":15446:15450   */\n      0x20\n        /* \"#utility.yul\":15433:15450   */\n      swap1\n      pop\n        /* \"#utility.yul\":15478:15480   */\n      0x1f\n        /* \"#utility.yul\":15470:15476   */\n      dup4\n        /* \"#utility.yul\":15467:15481   */\n      gt\n        /* \"#utility.yul\":15495:15496   */\n      0x01\n        /* \"#utility.yul\":15490:16108   */\n      dup2\n      eq\n      tag_326\n      jumpi\n        /* \"#utility.yul\":16152:16153   */\n      0x00\n        /* \"#utility.yul\":16169:16175   */\n      dup5\n        /* \"#utility.yul\":16166:16243   */\n      iszero\n      tag_327\n      jumpi\n        /* \"#utility.yul\":16218:16227   */\n      dup3\n        /* \"#utility.yul\":16213:16216   */\n      dup8\n        /* \"#utility.yul\":16209:16228   */\n      add\n        /* \"#utility.yul\":16203:16229   */\n      mload\n        /* \"#utility.yul\":16194:16229   */\n      swap1\n      pop\n        /* \"#utility.yul\":16166:16243   */\n    tag_327:\n        /* \"#utility.yul\":16269:16336   */\n      tag_328\n        /* \"#utility.yul\":16329:16335   */\n      dup6\n        /* \"#utility.yul\":16322:16327   */\n      dup3\n        /* \"#utility.yul\":16269:16336   */\n      tag_174\n      jump\t// in\n    tag_328:\n        /* \"#utility.yul\":16263:16267   */\n      dup7\n        /* \"#utility.yul\":16256:16337   */\n      sstore\n        /* \"#utility.yul\":16125:16347   */\n      pop\n        /* \"#utility.yul\":15460:16347   */\n      jump(tag_325)\n        /* \"#utility.yul\":15490:16108   */\n    tag_326:\n        /* \"#utility.yul\":15542:15546   */\n      0x1f\n        /* \"#utility.yul\":15538:15547   */\n      not\n        /* \"#utility.yul\":15530:15536   */\n      dup5\n        /* \"#utility.yul\":15526:15548   */\n      and\n        /* \"#utility.yul\":15576:15613   */\n      tag_329\n        /* \"#utility.yul\":15608:15612   */\n      dup7\n        /* \"#utility.yul\":15576:15613   */\n      tag_160\n      jump\t// in\n    tag_329:\n        /* \"#utility.yul\":15635:15636   */\n      0x00\n        /* \"#utility.yul\":15649:15857   */\n    tag_330:\n        /* \"#utility.yul\":15663:15670   */\n      dup3\n        /* \"#utility.yul\":15660:15661   */\n      dup2\n        /* \"#utility.yul\":15657:15671   */\n      lt\n        /* \"#utility.yul\":15649:15857   */\n      iszero\n      tag_332\n      jumpi\n        /* \"#utility.yul\":15742:15751   */\n      dup5\n        /* \"#utility.yul\":15737:15740   */\n      dup10\n        /* \"#utility.yul\":15733:15752   */\n      add\n        /* \"#utility.yul\":15727:15753   */\n      mload\n        /* \"#utility.yul\":15719:15725   */\n      dup3\n        /* \"#utility.yul\":15712:15754   */\n      sstore\n        /* \"#utility.yul\":15793:15794   */\n      0x01\n        /* \"#utility.yul\":15785:15791   */\n      dup3\n        /* \"#utility.yul\":15781:15795   */\n      add\n        /* \"#utility.yul\":15771:15795   */\n      swap2\n      pop\n        /* \"#utility.yul\":15840:15842   */\n      0x20\n        /* \"#utility.yul\":15829:15838   */\n      dup6\n        /* \"#utility.yul\":15825:15843   */\n      add\n        /* \"#utility.yul\":15812:15843   */\n      swap5\n      pop\n        /* \"#utility.yul\":15686:15690   */\n      0x20\n        /* \"#utility.yul\":15683:15684   */\n      dup2\n        /* \"#utility.yul\":15679:15691   */\n      add\n        /* \"#utility.yul\":15674:15691   */\n      swap1\n      pop\n        /* \"#utility.yul\":15649:15857   */\n      jump(tag_330)\n    tag_332:\n        /* \"#utility.yul\":15885:15891   */\n      dup7\n        /* \"#utility.yul\":15876:15883   */\n      dup4\n        /* \"#utility.yul\":15873:15892   */\n      lt\n        /* \"#utility.yul\":15870:16049   */\n      iszero\n      tag_333\n      jumpi\n        /* \"#utility.yul\":15943:15952   */\n      dup5\n        /* \"#utility.yul\":15938:15941   */\n      dup10\n        /* \"#utility.yul\":15934:15953   */\n      add\n        /* \"#utility.yul\":15928:15954   */\n      mload\n        /* \"#utility.yul\":15986:16034   */\n      tag_334\n        /* \"#utility.yul\":16028:16032   */\n      0x1f\n        /* \"#utility.yul\":16020:16026   */\n      dup10\n        /* \"#utility.yul\":16016:16033   */\n      and\n        /* \"#utility.yul\":16005:16014   */\n      dup3\n        /* \"#utility.yul\":15986:16034   */\n      tag_173\n      jump\t// in\n    tag_334:\n        /* \"#utility.yul\":15978:15984   */\n      dup4\n        /* \"#utility.yul\":15971:16035   */\n      sstore\n        /* \"#utility.yul\":15893:16049   */\n      pop\n        /* \"#utility.yul\":15870:16049   */\n    tag_333:\n        /* \"#utility.yul\":16095:16096   */\n      0x01\n        /* \"#utility.yul\":16091:16092   */\n      0x02\n        /* \"#utility.yul\":16083:16089   */\n      dup9\n        /* \"#utility.yul\":16079:16093   */\n      mul\n        /* \"#utility.yul\":16075:16097   */\n      add\n        /* \"#utility.yul\":16069:16073   */\n      dup9\n        /* \"#utility.yul\":16062:16098   */\n      sstore\n        /* \"#utility.yul\":15497:16108   */\n      pop\n      pop\n      pop\n        /* \"#utility.yul\":15460:16347   */\n    tag_325:\n      pop\n        /* \"#utility.yul\":15050:16353   */\n      pop\n      pop\n      pop\n        /* \"#utility.yul\":14958:16353   */\n      pop\n      pop\n      jump\t// out\n        /* \"#utility.yul\":16359:16477   */\n    tag_175:\n        /* \"#utility.yul\":16446:16470   */\n      tag_336\n        /* \"#utility.yul\":16464:16469   */\n      dup2\n        /* \"#utility.yul\":16446:16470   */\n      tag_136\n      jump\t// in\n    tag_336:\n        /* \"#utility.yul\":16441:16444   */\n      dup3\n        /* \"#utility.yul\":16434:16471   */\n      mstore\n        /* \"#utility.yul\":16359:16477   */\n      pop\n      pop\n      jump\t// out\n        /* \"#utility.yul\":16483:16631   */\n    tag_176:\n        /* \"#utility.yul\":16581:16587   */\n      dup3\n        /* \"#utility.yul\":16576:16579   */\n      dup2\n        /* \"#utility.yul\":16571:16574   */\n      dup4\n        /* \"#utility.yul\":16558:16588   */\n      calldatacopy\n        /* \"#utility.yul\":16622:16623   */\n      0x00\n        /* \"#utility.yul\":16613:16619   */\n      dup4\n        /* \"#utility.yul\":16608:16611   */\n      dup4\n        /* \"#utility.yul\":16604:16620   */\n      add\n        /* \"#utility.yul\":16597:16624   */\n      mstore\n        /* \"#utility.yul\":16483:16631   */\n      pop\n      pop\n      pop\n      jump\t// out\n        /* \"#utility.yul\":16661:16978   */\n    tag_177:\n        /* \"#utility.yul\":16759:16762   */\n      0x00\n        /* \"#utility.yul\":16780:16851   */\n      tag_339\n        /* \"#utility.yul\":16844:16850   */\n      dup4\n        /* \"#utility.yul\":16839:16842   */\n      dup6\n        /* \"#utility.yul\":16780:16851   */\n      tag_155\n      jump\t// in\n    tag_339:\n        /* \"#utility.yul\":16773:16851   */\n      swap4\n      pop\n        /* \"#utility.yul\":16861:16917   */\n      tag_340\n        /* \"#utility.yul\":16910:16916   */\n      dup4\n        /* \"#utility.yul\":16905:16908   */\n      dup6\n        /* \"#utility.yul\":16898:16903   */\n      dup5\n        /* \"#utility.yul\":16861:16917   */\n      tag_176\n      jump\t// in\n    tag_340:\n        /* \"#utility.yul\":16942:16971   */\n      tag_341\n        /* \"#utility.yul\":16964:16970   */\n      dup4\n        /* \"#utility.yul\":16942:16971   */\n      tag_142\n      jump\t// in\n    tag_341:\n        /* \"#utility.yul\":16937:16940   */\n      dup5\n        /* \"#utility.yul\":16933:16972   */\n      add\n        /* \"#utility.yul\":16926:16972   */\n      swap1\n      pop\n        /* \"#utility.yul\":16661:16978   */\n      swap4\n      swap3\n      pop\n      pop\n      pop\n      jump\t// out\n        /* \"#utility.yul\":16984:17648   */\n    tag_40:\n        /* \"#utility.yul\":17193:17197   */\n      0x00\n        /* \"#utility.yul\":17231:17233   */\n      0x60\n        /* \"#utility.yul\":17220:17229   */\n      dup3\n        /* \"#utility.yul\":17216:17234   */\n      add\n        /* \"#utility.yul\":17208:17234   */\n      swap1\n      pop\n        /* \"#utility.yul\":17244:17315   */\n      tag_343\n        /* \"#utility.yul\":17312:17313   */\n      0x00\n        /* \"#utility.yul\":17301:17310   */\n      dup4\n        /* \"#utility.yul\":17297:17314   */\n      add\n        /* \"#utility.yul\":17288:17294   */\n      dup9\n        /* \"#utility.yul\":17244:17315   */\n      tag_175\n      jump\t// in\n    tag_343:\n        /* \"#utility.yul\":17362:17371   */\n      dup2\n        /* \"#utility.yul\":17356:17360   */\n      dup2\n        /* \"#utility.yul\":17352:17372   */\n      sub\n        /* \"#utility.yul\":17347:17349   */\n      0x20\n        /* \"#utility.yul\":17336:17345   */\n      dup4\n        /* \"#utility.yul\":17332:17350   */\n      add\n        /* \"#utility.yul\":17325:17373   */\n      mstore\n        /* \"#utility.yul\":17390:17478   */\n      tag_344\n        /* \"#utility.yul\":17473:17477   */\n      dup2\n        /* \"#utility.yul\":17464:17470   */\n      dup7\n        /* \"#utility.yul\":17456:17462   */\n      dup9\n        /* \"#utility.yul\":17390:17478   */\n      tag_177\n      jump\t// in\n    tag_344:\n        /* \"#utility.yul\":17382:17478   */\n      swap1\n      pop\n        /* \"#utility.yul\":17525:17534   */\n      dup2\n        /* \"#utility.yul\":17519:17523   */\n      dup2\n        /* \"#utility.yul\":17515:17535   */\n      sub\n        /* \"#utility.yul\":17510:17512   */\n      0x40\n        /* \"#utility.yul\":17499:17508   */\n      dup4\n        /* \"#utility.yul\":17495:17513   */\n      add\n        /* \"#utility.yul\":17488:17536   */\n      mstore\n        /* \"#utility.yul\":17553:17641   */\n      tag_345\n        /* \"#utility.yul\":17636:17640   */\n      dup2\n        /* \"#utility.yul\":17627:17633   */\n      dup5\n        /* \"#utility.yul\":17619:17625   */\n      dup7\n        /* \"#utility.yul\":17553:17641   */\n      tag_177\n      jump\t// in\n    tag_345:\n        /* \"#utility.yul\":17545:17641   */\n      swap1\n      pop\n        /* \"#utility.yul\":16984:17648   */\n      swap7\n      swap6\n      pop\n      pop\n      pop\n      pop\n      pop\n      pop\n      jump\t// out\n        /* \"#utility.yul\":17654:17834   */\n    tag_63:\n        /* \"#utility.yul\":17702:17779   */\n      0x4e487b7100000000000000000000000000000000000000000000000000000000\n        /* \"#utility.yul\":17699:17700   */\n      0x00\n        /* \"#utility.yul\":17692:17780   */\n      mstore\n        /* \"#utility.yul\":17799:17803   */\n      0x32\n        /* \"#utility.yul\":17796:17797   */\n      0x04\n        /* \"#utility.yul\":17789:17804   */\n      mstore\n        /* \"#utility.yul\":17823:17827   */\n      0x24\n        /* \"#utility.yul\":17820:17821   */\n      0x00\n        /* \"#utility.yul\":17813:17828   */\n      revert\n        /* \"#utility.yul\":17840:18006   */\n    tag_178:\n        /* \"#utility.yul\":17980:17998   */\n      0x6e6f2073747564656e7420666f756e6400000000000000000000000000000000\n        /* \"#utility.yul\":17976:17977   */\n      0x00\n        /* \"#utility.yul\":17968:17974   */\n      dup3\n        /* \"#utility.yul\":17964:17978   */\n      add\n        /* \"#utility.yul\":17957:17999   */\n      mstore\n        /* \"#utility.yul\":17840:18006   */\n      pop\n      jump\t// out\n        /* \"#utility.yul\":18012:18378   */\n    tag_179:\n        /* \"#utility.yul\":18154:18157   */\n      0x00\n        /* \"#utility.yul\":18175:18242   */\n      tag_349\n        /* \"#utility.yul\":18239:18241   */\n      0x10\n        /* \"#utility.yul\":18234:18237   */\n      dup4\n        /* \"#utility.yul\":18175:18242   */\n      tag_155\n      jump\t// in\n    tag_349:\n        /* \"#utility.yul\":18168:18242   */\n      swap2\n      pop\n        /* \"#utility.yul\":18251:18344   */\n      tag_350\n        /* \"#utility.yul\":18340:18343   */\n      dup3\n        /* \"#utility.yul\":18251:18344   */\n      tag_178\n      jump\t// in\n    tag_350:\n        /* \"#utility.yul\":18369:18371   */\n      0x20\n        /* \"#utility.yul\":18364:18367   */\n      dup3\n        /* \"#utility.yul\":18360:18372   */\n      add\n        /* \"#utility.yul\":18353:18372   */\n      swap1\n      pop\n        /* \"#utility.yul\":18012:18378   */\n      swap2\n      swap1\n      pop\n      jump\t// out\n        /* \"#utility.yul\":18384:18803   */\n    tag_68:\n        /* \"#utility.yul\":18550:18554   */\n      0x00\n        /* \"#utility.yul\":18588:18590   */\n      0x20\n        /* \"#utility.yul\":18577:18586   */\n      dup3\n        /* \"#utility.yul\":18573:18591   */\n      add\n        /* \"#utility.yul\":18565:18591   */\n      swap1\n      pop\n        /* \"#utility.yul\":18637:18646   */\n      dup2\n        /* \"#utility.yul\":18631:18635   */\n      dup2\n        /* \"#utility.yul\":18627:18647   */\n      sub\n        /* \"#utility.yul\":18623:18624   */\n      0x00\n        /* \"#utility.yul\":18612:18621   */\n      dup4\n        /* \"#utility.yul\":18608:18625   */\n      add\n        /* \"#utility.yul\":18601:18648   */\n      mstore\n        /* \"#utility.yul\":18665:18796   */\n      tag_352\n        /* \"#utility.yul\":18791:18795   */\n      dup2\n        /* \"#utility.yul\":18665:18796   */\n      tag_179\n      jump\t// in\n    tag_352:\n        /* \"#utility.yul\":18657:18796   */\n      swap1\n      pop\n        /* \"#utility.yul\":18384:18803   */\n      swap2\n      swap1\n      pop\n      jump\t// out\n        /* \"#utility.yul\":18809:18957   */\n    tag_180:\n        /* \"#utility.yul\":18911:18922   */\n      0x00\n        /* \"#utility.yul\":18948:18951   */\n      dup2\n        /* \"#utility.yul\":18933:18951   */\n      swap1\n      pop\n        /* \"#utility.yul\":18809:18957   */\n      swap3\n      swap2\n      pop\n      pop\n      jump\t// out\n        /* \"#utility.yul\":18963:19353   */\n    tag_181:\n        /* \"#utility.yul\":19069:19072   */\n      0x00\n        /* \"#utility.yul\":19097:19136   */\n      tag_355\n        /* \"#utility.yul\":19130:19135   */\n      dup3\n        /* \"#utility.yul\":19097:19136   */\n      tag_139\n      jump\t// in\n    tag_355:\n        /* \"#utility.yul\":19152:19241   */\n      tag_356\n        /* \"#utility.yul\":19234:19240   */\n      dup2\n        /* \"#utility.yul\":19229:19232   */\n      dup6\n        /* \"#utility.yul\":19152:19241   */\n      tag_180\n      jump\t// in\n    tag_356:\n        /* \"#utility.yul\":19145:19241   */\n      swap4\n      pop\n        /* \"#utility.yul\":19250:19315   */\n      tag_357\n        /* \"#utility.yul\":19308:19314   */\n      dup2\n        /* \"#utility.yul\":19303:19306   */\n      dup6\n        /* \"#utility.yul\":19296:19300   */\n      0x20\n        /* \"#utility.yul\":19289:19294   */\n      dup7\n        /* \"#utility.yul\":19285:19301   */\n      add\n        /* \"#utility.yul\":19250:19315   */\n      tag_141\n      jump\t// in\n    tag_357:\n        /* \"#utility.yul\":19340:19346   */\n      dup1\n        /* \"#utility.yul\":19335:19338   */\n      dup5\n        /* \"#utility.yul\":19331:19347   */\n      add\n        /* \"#utility.yul\":19324:19347   */\n      swap2\n      pop\n        /* \"#utility.yul\":19073:19353   */\n      pop\n        /* \"#utility.yul\":18963:19353   */\n      swap3\n      swap2\n      pop\n      pop\n      jump\t// out\n        /* \"#utility.yul\":19359:19634   */\n    tag_128:\n        /* \"#utility.yul\":19491:19494   */\n      0x00\n        /* \"#utility.yul\":19513:19608   */\n      tag_359\n        /* \"#utility.yul\":19604:19607   */\n      dup3\n        /* \"#utility.yul\":19595:19601   */\n      dup5\n        /* \"#utility.yul\":19513:19608   */\n      tag_181\n      jump\t// in\n    tag_359:\n        /* \"#utility.yul\":19506:19608   */\n      swap2\n      pop\n        /* \"#utility.yul\":19625:19628   */\n      dup2\n        /* \"#utility.yul\":19618:19628   */\n      swap1\n      pop\n        /* \"#utility.yul\":19359:19634   */\n      swap3\n      swap2\n      pop\n      pop\n      jump\t// out\n\n    auxdata: 0xa2646970667358221220a59d0e065aab5aa97555baeb03ccf37c3a50b80d4c28cdaa634061386785607264736f6c634300081a0033\n}\n",
				"bytecode": {
					"linkReferences": {},
					"object": "608060405260016002553480156013575f80fd5b50335f806101000a81548173ffffffffffffffffffffffffffffffffffffffff021916908373ffffffffffffffffffffffffffffffffffffffff1602179055506115a2806100605f395ff3fe608060405234801561000f575f80fd5b506004361061004a575f3560e01c80630a1b776c1461004e578063701bc86e1461006a5780638f747a7e1461009a578063a24ba4a7146100b8575b5f80fd5b61006860048036038101906100639190610c8e565b6100e8565b005b610084600480360381019061007f9190610d3f565b61036f565b6040516100919190610e68565b60405180910390f35b6100a26105df565b6040516100af9190610faa565b60405180910390f35b6100d260048036038101906100cd9190610fca565b610836565b6040516100df9190610faa565b60405180910390f35b5f8054906101000a900473ffffffffffffffffffffffffffffffffffffffff1673ffffffffffffffffffffffffffffffffffffffff163373ffffffffffffffffffffffffffffffffffffffff1614610175576040517f08c379a000000000000000000000000000000000000000000000000000000000815260040161016c9061106f565b60405180910390fd5b5f604051806080016040528086868080601f0160208091040260200160405190810160405280939291908181526020018383808284375f81840152601f19601f820116905080830192505050505050508152602001600254815260200184848080601f0160208091040260200160405190810160405280939291908181526020018383808284375f81840152601f19601f82011690508083019250505050505050815260200161026785858080601f0160208091040260200160405190810160405280939291908181526020018383808284375f81840152601f19601f82011690508083019250505050505050610bcd565b815250905060025f81548092919061027e906110ba565b919050555060015f3373ffffffffffffffffffffffffffffffffffffffff1673ffffffffffffffffffffffffffffffffffffffff1681526020019081526020015f2081908060018154018082558091505060019003905f5260205f2090600402015f909190919091505f820151815f0190816102fa9190611328565b5060208201518160010155604082015181600201908161031a9190611328565b506060820151816003015550507f1abee9ccca1384cda6aa3d635b8681141bf3957e457c5b9c0071b0aeddfb1e7260025486868686604051610360959493929190611440565b60405180910390a15050505050565b610377610bfc565b5f60015f3373ffffffffffffffffffffffffffffffffffffffff1673ffffffffffffffffffffffffffffffffffffffff1681526020019081526020015f20805480602002602001604051908101604052809291908181526020015f905b82821015610537578382905f5260205f2090600402016040518060800160405290815f820180546104049061115b565b80601f01602080910402602001604051908101604052809291908181526020018280546104309061115b565b801561047b5780601f106104525761010080835404028352916020019161047b565b820191905f5260205f20905b81548152906001019060200180831161045e57829003601f168201915b505050505081526020016001820154815260200160028201805461049e9061115b565b80601f01602080910402602001604051908101604052809291908181526020018280546104ca9061115b565b80156105155780601f106104ec57610100808354040283529160200191610515565b820191905f5260205f20905b8154815290600101906020018083116104f857829003601f168201915b50505050508152602001600382015481525050815260200190600101906103d4565b5050505090505f5b815181101561059e578382828151811061055c5761055b611487565b5b60200260200101516020015103610591578181815181106105805761057f611487565b5b6020026020010151925050506105da565b808060010191505061053f565b506040517f08c379a00000000000000000000000000000000000000000000000000000000081526004016105d1906114fe565b60405180910390fd5b919050565b60605f8054906101000a900473ffffffffffffffffffffffffffffffffffffffff1673ffffffffffffffffffffffffffffffffffffffff163373ffffffffffffffffffffffffffffffffffffffff161461066e576040517f08c379a00000000000000000000000000000000000000000000000000000000081526004016106659061106f565b60405180910390fd5b60015f3373ffffffffffffffffffffffffffffffffffffffff1673ffffffffffffffffffffffffffffffffffffffff1681526020019081526020015f20805480602002602001604051908101604052809291908181526020015f905b8282101561082d578382905f5260205f2090600402016040518060800160405290815f820180546106fa9061115b565b80601f01602080910402602001604051908101604052809291908181526020018280546107269061115b565b80156107715780601f1061074857610100808354040283529160200191610771565b820191905f5260205f20905b81548152906001019060200180831161075457829003601f168201915b50505050508152602001600182015481526020016002820180546107949061115b565b80601f01602080910402602001604051908101604052809291908181526020018280546107c09061115b565b801561080b5780601f106107e25761010080835404028352916020019161080b565b820191905f5260205f20905b8154815290600101906020018083116107ee57829003601f168201915b50505050508152602001600382015481525050815260200190600101906106ca565b50505050905090565b60605f60015f3373ffffffffffffffffffffffffffffffffffffffff1673ffffffffffffffffffffffffffffffffffffffff1681526020019081526020015f20805480602002602001604051908101604052809291908181526020015f905b828210156109f8578382905f5260205f2090600402016040518060800160405290815f820180546108c59061115b565b80601f01602080910402602001604051908101604052809291908181526020018280546108f19061115b565b801561093c5780601f106109135761010080835404028352916020019161093c565b820191905f5260205f20905b81548152906001019060200180831161091f57829003601f168201915b505050505081526020016001820154815260200160028201805461095f9061115b565b80601f016020809104026020016040519081016040528092919081815260200182805461098b9061115b565b80156109d65780601f106109ad576101008083540402835291602001916109d6565b820191905f5260205f20905b8154815290600101906020018083116109b957829003601f168201915b5050505050815260200160038201548152505081526020019060010190610895565b5050505090505f805b8251811015610a9657610a5686868080601f0160208091040260200160405190810160405280939291908181526020018383808284375f81840152601f19601f82011690508083019250505050505050610bcd565b838281518110610a6957610a68611487565b5b60200260200101516060015103610a89578180610a85906110ba565b9250505b8080600101915050610a01565b505f8167ffffffffffffffff811115610ab257610ab1611101565b5b604051908082528060200260200182016040528015610aeb57816020015b610ad8610bfc565b815260200190600190039081610ad05790505b5090505f805b8451811015610bbf57610b4688888080601f0160208091040260200160405190810160405280939291908181526020018383808284375f81840152601f19601f82011690508083019250505050505050610bcd565b858281518110610b5957610b58611487565b5b60200260200101516060015103610bb257848181518110610b7d57610b7c611487565b5b6020026020010151838381518110610b9857610b97611487565b5b60200260200101819052508180610bae906110ba565b9250505b8080600101915050610af1565b508194505050505092915050565b5f81604051602001610bdf9190611556565b604051602081830303815290604052805190602001209050919050565b6040518060800160405280606081526020015f8152602001606081526020015f80191681525090565b5f80fd5b5f80fd5b5f80fd5b5f80fd5b5f80fd5b5f8083601f840112610c4e57610c4d610c2d565b5b8235905067ffffffffffffffff811115610c6b57610c6a610c31565b5b602083019150836001820283011115610c8757610c86610c35565b5b9250929050565b5f805f8060408587031215610ca657610ca5610c25565b5b5f85013567ffffffffffffffff811115610cc357610cc2610c29565b5b610ccf87828801610c39565b9450945050602085013567ffffffffffffffff811115610cf257610cf1610c29565b5b610cfe87828801610c39565b925092505092959194509250565b5f819050919050565b610d1e81610d0c565b8114610d28575f80fd5b50565b5f81359050610d3981610d15565b92915050565b5f60208284031215610d5457610d53610c25565b5b5f610d6184828501610d2b565b91505092915050565b5f81519050919050565b5f82825260208201905092915050565b8281835e5f83830152505050565b5f601f19601f8301169050919050565b5f610dac82610d6a565b610db68185610d74565b9350610dc6818560208601610d84565b610dcf81610d92565b840191505092915050565b610de381610d0c565b82525050565b5f819050919050565b610dfb81610de9565b82525050565b5f608083015f8301518482035f860152610e1b8282610da2565b9150506020830151610e306020860182610dda565b5060408301518482036040860152610e488282610da2565b9150506060830151610e5d6060860182610df2565b508091505092915050565b5f6020820190508181035f830152610e808184610e01565b905092915050565b5f81519050919050565b5f82825260208201905092915050565b5f819050602082019050919050565b5f608083015f8301518482035f860152610ecb8282610da2565b9150506020830151610ee06020860182610dda565b5060408301518482036040860152610ef88282610da2565b9150506060830151610f0d6060860182610df2565b508091505092915050565b5f610f238383610eb1565b905092915050565b5f602082019050919050565b5f610f4182610e88565b610f4b8185610e92565b935083602082028501610f5d85610ea2565b805f5b85811015610f985784840389528151610f798582610f18565b9450610f8483610f2b565b925060208a01995050600181019050610f60565b50829750879550505050505092915050565b5f6020820190508181035f830152610fc28184610f37565b905092915050565b5f8060208385031215610fe057610fdf610c25565b5b5f83013567ffffffffffffffff811115610ffd57610ffc610c29565b5b61100985828601610c39565b92509250509250929050565b5f82825260208201905092915050565b7f6f6e6c79207363686f6f6c2063616e20757365207468652066756e6374696f6e5f82015250565b5f611059602083611015565b915061106482611025565b602082019050919050565b5f6020820190508181035f8301526110868161104d565b9050919050565b7f4e487b71000000000000000000000000000000000000000000000000000000005f52601160045260245ffd5b5f6110c482610d0c565b91507fffffffffffffffffffffffffffffffffffffffffffffffffffffffffffffffff82036110f6576110f561108d565b5b600182019050919050565b7f4e487b71000000000000000000000000000000000000000000000000000000005f52604160045260245ffd5b7f4e487b71000000000000000000000000000000000000000000000000000000005f52602260045260245ffd5b5f600282049050600182168061117257607f821691505b6020821081036111855761118461112e565b5b50919050565b5f819050815f5260205f209050919050565b5f6020601f8301049050919050565b5f82821b905092915050565b5f600883026111e77fffffffffffffffffffffffffffffffffffffffffffffffffffffffffffffffff826111ac565b6111f186836111ac565b95508019841693508086168417925050509392505050565b5f819050919050565b5f61122c61122761122284610d0c565b611209565b610d0c565b9050919050565b5f819050919050565b61124583611212565b61125961125182611233565b8484546111b8565b825550505050565b5f90565b61126d611261565b61127881848461123c565b505050565b5b8181101561129b576112905f82611265565b60018101905061127e565b5050565b601f8211156112e0576112b18161118b565b6112ba8461119d565b810160208510156112c9578190505b6112dd6112d58561119d565b83018261127d565b50505b505050565b5f82821c905092915050565b5f6113005f19846008026112e5565b1980831691505092915050565b5f61131883836112f1565b9150826002028217905092915050565b61133182610d6a565b67ffffffffffffffff81111561134a57611349611101565b5b611354825461115b565b61135f82828561129f565b5f60209050601f831160018114611390575f841561137e578287015190505b611388858261130d565b8655506113ef565b601f19841661139e8661118b565b5f5b828110156113c5578489015182556001820191506020850194506020810190506113a0565b868310156113e257848901516113de601f8916826112f1565b8355505b6001600288020188555050505b505050505050565b61140081610d0c565b82525050565b828183375f83830152505050565b5f61141f8385611015565b935061142c838584611406565b61143583610d92565b840190509392505050565b5f6060820190506114535f8301886113f7565b8181036020830152611466818688611414565b9050818103604083015261147b818486611414565b90509695505050505050565b7f4e487b71000000000000000000000000000000000000000000000000000000005f52603260045260245ffd5b7f6e6f2073747564656e7420666f756e64000000000000000000000000000000005f82015250565b5f6114e8601083611015565b91506114f3826114b4565b602082019050919050565b5f6020820190508181035f830152611515816114dc565b9050919050565b5f81905092915050565b5f61153082610d6a565b61153a818561151c565b935061154a818560208601610d84565b80840191505092915050565b5f6115618284611526565b91508190509291505056fea2646970667358221220a59d0e065aab5aa97555baeb03ccf37c3a50b80d4c28cdaa634061386785607264736f6c634300081a0033",
					"opcodes": "PUSH1 0x80 PUSH1 0x40 MSTORE PUSH1 0x1 PUSH1 0x2 SSTORE CALLVALUE DUP1 ISZERO PUSH1 0x13 JUMPI PUSH0 DUP1 REVERT JUMPDEST POP CALLER PUSH0 DUP1 PUSH2 0x100 EXP DUP2 SLOAD DUP2 PUSH20 0xFFFFFFFFFFFFFFFFFFFFFFFFFFFFFFFFFFFFFFFF MUL NOT AND SWAP1 DUP4 PUSH20 0xFFFFFFFFFFFFFFFFFFFFFFFFFFFFFFFFFFFFFFFF AND MUL OR SWAP1 SSTORE POP PUSH2 0x15A2 DUP1 PUSH2 0x60 PUSH0 CODECOPY PUSH0 RETURN INVALID PUSH1 0x80 PUSH1 0x40 MSTORE CALLVALUE DUP1 ISZERO PUSH2 0xF JUMPI PUSH0 DUP1 REVERT JUMPDEST POP PUSH1 0x4 CALLDATASIZE LT PUSH2 0x4A JUMPI PUSH0 CALLDATALOAD PUSH1 0xE0 SHR DUP1 PUSH4 0xA1B776C EQ PUSH2 0x4E JUMPI DUP1 PUSH4 0x701BC86E EQ PUSH2 0x6A JUMPI DUP1 PUSH4 0x8F747A7E EQ PUSH2 0x9A JUMPI DUP1 PUSH4 0xA24BA4A7 EQ PUSH2 0xB8 JUMPI JUMPDEST PUSH0 DUP1 REVERT JUMPDEST PUSH2 0x68 PUSH1 0x4 DUP1 CALLDATASIZE SUB DUP2 ADD SWAP1 PUSH2 0x63 SWAP2 SWAP1 PUSH2 0xC8E JUMP JUMPDEST PUSH2 0xE8 JUMP JUMPDEST STOP JUMPDEST PUSH2 0x84 PUSH1 0x4 DUP1 CALLDATASIZE SUB DUP2 ADD SWAP1 PUSH2 0x7F SWAP2 SWAP1 PUSH2 0xD3F JUMP JUMPDEST PUSH2 0x36F JUMP JUMPDEST PUSH1 0x40 MLOAD PUSH2 0x91 SWAP2 SWAP1 PUSH2 0xE68 JUMP JUMPDEST PUSH1 0x40 MLOAD DUP1 SWAP2 SUB SWAP1 RETURN JUMPDEST PUSH2 0xA2 PUSH2 0x5DF JUMP JUMPDEST PUSH1 0x40 MLOAD PUSH2 0xAF SWAP2 SWAP1 PUSH2 0xFAA JUMP JUMPDEST PUSH1 0x40 MLOAD DUP1 SWAP2 SUB SWAP1 RETURN JUMPDEST PUSH2 0xD2 PUSH1 0x4 DUP1 CALLDATASIZE SUB DUP2 ADD SWAP1 PUSH2 0xCD SWAP2 SWAP1 PUSH2 0xFCA JUMP JUMPDEST PUSH2 0x836 JUMP JUMPDEST PUSH1 0x40 MLOAD PUSH2 0xDF SWAP2 SWAP1 PUSH2 0xFAA JUMP JUMPDEST PUSH1 0x40 MLOAD DUP1 SWAP2 SUB SWAP1 RETURN JUMPDEST PUSH0 DUP1 SLOAD SWAP1 PUSH2 0x100 EXP SWAP1 DIV PUSH20 0xFFFFFFFFFFFFFFFFFFFFFFFFFFFFFFFFFFFFFFFF AND PUSH20 0xFFFFFFFFFFFFFFFFFFFFFFFFFFFFFFFFFFFFFFFF AND CALLER PUSH20 0xFFFFFFFFFFFFFFFFFFFFFFFFFFFFFFFFFFFFFFFF AND EQ PUSH2 0x175 JUMPI PUSH1 0x40 MLOAD PUSH32 0x8C379A000000000000000000000000000000000000000000000000000000000 DUP2 MSTORE PUSH1 0x4 ADD PUSH2 0x16C SWAP1 PUSH2 0x106F JUMP JUMPDEST PUSH1 0x40 MLOAD DUP1 SWAP2 SUB SWAP1 REVERT JUMPDEST PUSH0 PUSH1 0x40 MLOAD DUP1 PUSH1 0x80 ADD PUSH1 0x40 MSTORE DUP1 DUP7 DUP7 DUP1 DUP1 PUSH1 0x1F ADD PUSH1 0x20 DUP1 SWAP2 DIV MUL PUSH1 0x20 ADD PUSH1 0x40 MLOAD SWAP1 DUP2 ADD PUSH1 0x40 MSTORE DUP1 SWAP4 SWAP3 SWAP2 SWAP1 DUP2 DUP2 MSTORE PUSH1 0x20 ADD DUP4 DUP4 DUP1 DUP3 DUP5 CALLDATACOPY PUSH0 DUP2 DUP5 ADD MSTORE PUSH1 0x1F NOT PUSH1 0x1F DUP3 ADD AND SWAP1 POP DUP1 DUP4 ADD SWAP3 POP POP POP POP POP POP POP DUP2 MSTORE PUSH1 0x20 ADD PUSH1 0x2 SLOAD DUP2 MSTORE PUSH1 0x20 ADD DUP5 DUP5 DUP1 DUP1 PUSH1 0x1F ADD PUSH1 0x20 DUP1 SWAP2 DIV MUL PUSH1 0x20 ADD PUSH1 0x40 MLOAD SWAP1 DUP2 ADD PUSH1 0x40 MSTORE DUP1 SWAP4 SWAP3 SWAP2 SWAP1 DUP2 DUP2 MSTORE PUSH1 0x20 ADD DUP4 DUP4 DUP1 DUP3 DUP5 CALLDATACOPY PUSH0 DUP2 DUP5 ADD MSTORE PUSH1 0x1F NOT PUSH1 0x1F DUP3 ADD AND SWAP1 POP DUP1 DUP4 ADD SWAP3 POP POP POP POP POP POP POP DUP2 MSTORE PUSH1 0x20 ADD PUSH2 0x267 DUP6 DUP6 DUP1 DUP1 PUSH1 0x1F ADD PUSH1 0x20 DUP1 SWAP2 DIV MUL PUSH1 0x20 ADD PUSH1 0x40 MLOAD SWAP1 DUP2 ADD PUSH1 0x40 MSTORE DUP1 SWAP4 SWAP3 SWAP2 SWAP1 DUP2 DUP2 MSTORE PUSH1 0x20 ADD DUP4 DUP4 DUP1 DUP3 DUP5 CALLDATACOPY PUSH0 DUP2 DUP5 ADD MSTORE PUSH1 0x1F NOT PUSH1 0x1F DUP3 ADD AND SWAP1 POP DUP1 DUP4 ADD SWAP3 POP POP POP POP POP POP POP PUSH2 0xBCD JUMP JUMPDEST DUP2 MSTORE POP SWAP1 POP PUSH1 0x2 PUSH0 DUP2 SLOAD DUP1 SWAP3 SWAP2 SWAP1 PUSH2 0x27E SWAP1 PUSH2 0x10BA JUMP JUMPDEST SWAP2 SWAP1 POP SSTORE POP PUSH1 0x1 PUSH0 CALLER PUSH20 0xFFFFFFFFFFFFFFFFFFFFFFFFFFFFFFFFFFFFFFFF AND PUSH20 0xFFFFFFFFFFFFFFFFFFFFFFFFFFFFFFFFFFFFFFFF AND DUP2 MSTORE PUSH1 0x20 ADD SWAP1 DUP2 MSTORE PUSH1 0x20 ADD PUSH0 KECCAK256 DUP2 SWAP1 DUP1 PUSH1 0x1 DUP2 SLOAD ADD DUP1 DUP3 SSTORE DUP1 SWAP2 POP POP PUSH1 0x1 SWAP1 SUB SWAP1 PUSH0 MSTORE PUSH1 0x20 PUSH0 KECCAK256 SWAP1 PUSH1 0x4 MUL ADD PUSH0 SWAP1 SWAP2 SWAP1 SWAP2 SWAP1 SWAP2 POP PUSH0 DUP3 ADD MLOAD DUP2 PUSH0 ADD SWAP1 DUP2 PUSH2 0x2FA SWAP2 SWAP1 PUSH2 0x1328 JUMP JUMPDEST POP PUSH1 0x20 DUP3 ADD MLOAD DUP2 PUSH1 0x1 ADD SSTORE PUSH1 0x40 DUP3 ADD MLOAD DUP2 PUSH1 0x2 ADD SWAP1 DUP2 PUSH2 0x31A SWAP2 SWAP1 PUSH2 0x1328 JUMP JUMPDEST POP PUSH1 0x60 DUP3 ADD MLOAD DUP2 PUSH1 0x3 ADD SSTORE POP POP PUSH32 0x1ABEE9CCCA1384CDA6AA3D635B8681141BF3957E457C5B9C0071B0AEDDFB1E72 PUSH1 0x2 SLOAD DUP7 DUP7 DUP7 DUP7 PUSH1 0x40 MLOAD PUSH2 0x360 SWAP6 SWAP5 SWAP4 SWAP3 SWAP2 SWAP1 PUSH2 0x1440 JUMP JUMPDEST PUSH1 0x40 MLOAD DUP1 SWAP2 SUB SWAP1 LOG1 POP POP POP POP POP JUMP JUMPDEST PUSH2 0x377 PUSH2 0xBFC JUMP JUMPDEST PUSH0 PUSH1 0x1 PUSH0 CALLER PUSH20 0xFFFFFFFFFFFFFFFFFFFFFFFFFFFFFFFFFFFFFFFF AND PUSH20 0xFFFFFFFFFFFFFFFFFFFFFFFFFFFFFFFFFFFFFFFF AND DUP2 MSTORE PUSH1 0x20 ADD SWAP1 DUP2 MSTORE PUSH1 0x20 ADD PUSH0 KECCAK256 DUP1 SLOAD DUP1 PUSH1 0x20 MUL PUSH1 0x20 ADD PUSH1 0x40 MLOAD SWAP1 DUP2 ADD PUSH1 0x40 MSTORE DUP1 SWAP3 SWAP2 SWAP1 DUP2 DUP2 MSTORE PUSH1 0x20 ADD PUSH0 SWAP1 JUMPDEST DUP3 DUP3 LT ISZERO PUSH2 0x537 JUMPI DUP4 DUP3 SWAP1 PUSH0 MSTORE PUSH1 0x20 PUSH0 KECCAK256 SWAP1 PUSH1 0x4 MUL ADD PUSH1 0x40 MLOAD DUP1 PUSH1 0x80 ADD PUSH1 0x40 MSTORE SWAP1 DUP2 PUSH0 DUP3 ADD DUP1 SLOAD PUSH2 0x404 SWAP1 PUSH2 0x115B JUMP JUMPDEST DUP1 PUSH1 0x1F ADD PUSH1 0x20 DUP1 SWAP2 DIV MUL PUSH1 0x20 ADD PUSH1 0x40 MLOAD SWAP1 DUP2 ADD PUSH1 0x40 MSTORE DUP1 SWAP3 SWAP2 SWAP1 DUP2 DUP2 MSTORE PUSH1 0x20 ADD DUP3 DUP1 SLOAD PUSH2 0x430 SWAP1 PUSH2 0x115B JUMP JUMPDEST DUP1 ISZERO PUSH2 0x47B JUMPI DUP1 PUSH1 0x1F LT PUSH2 0x452 JUMPI PUSH2 0x100 DUP1 DUP4 SLOAD DIV MUL DUP4 MSTORE SWAP2 PUSH1 0x20 ADD SWAP2 PUSH2 0x47B JUMP JUMPDEST DUP3 ADD SWAP2 SWAP1 PUSH0 MSTORE PUSH1 0x20 PUSH0 KECCAK256 SWAP1 JUMPDEST DUP2 SLOAD DUP2 MSTORE SWAP1 PUSH1 0x1 ADD SWAP1 PUSH1 0x20 ADD DUP1 DUP4 GT PUSH2 0x45E JUMPI DUP3 SWAP1 SUB PUSH1 0x1F AND DUP3 ADD SWAP2 JUMPDEST POP POP POP POP POP DUP2 MSTORE PUSH1 0x20 ADD PUSH1 0x1 DUP3 ADD SLOAD DUP2 MSTORE PUSH1 0x20 ADD PUSH1 0x2 DUP3 ADD DUP1 SLOAD PUSH2 0x49E SWAP1 PUSH2 0x115B JUMP JUMPDEST DUP1 PUSH1 0x1F ADD PUSH1 0x20 DUP1 SWAP2 DIV MUL PUSH1 0x20 ADD PUSH1 0x40 MLOAD SWAP1 DUP2 ADD PUSH1 0x40 MSTORE DUP1 SWAP3 SWAP2 SWAP1 DUP2 DUP2 MSTORE PUSH1 0x20 ADD DUP3 DUP1 SLOAD PUSH2 0x4CA SWAP1 PUSH2 0x115B JUMP JUMPDEST DUP1 ISZERO PUSH2 0x515 JUMPI DUP1 PUSH1 0x1F LT PUSH2 0x4EC JUMPI PUSH2 0x100 DUP1 DUP4 SLOAD DIV MUL DUP4 MSTORE SWAP2 PUSH1 0x20 ADD SWAP2 PUSH2 0x515 JUMP JUMPDEST DUP3 ADD SWAP2 SWAP1 PUSH0 MSTORE PUSH1 0x20 PUSH0 KECCAK256 SWAP1 JUMPDEST DUP2 SLOAD DUP2 MSTORE SWAP1 PUSH1 0x1 ADD SWAP1 PUSH1 0x20 ADD DUP1 DUP4 GT PUSH2 0x4F8 JUMPI DUP3 SWAP1 SUB PUSH1 0x1F AND DUP3 ADD SWAP2 JUMPDEST POP POP POP POP POP DUP2 MSTORE PUSH1 0x20 ADD PUSH1 0x3 DUP3 ADD SLOAD DUP2 MSTORE POP POP DUP2 MSTORE PUSH1 0x20 ADD SWAP1 PUSH1 0x1 ADD SWAP1 PUSH2 0x3D4 JUMP JUMPDEST POP POP POP POP SWAP1 POP PUSH0 JUMPDEST DUP2 MLOAD DUP2 LT ISZERO PUSH2 0x59E JUMPI DUP4 DUP3 DUP3 DUP2 MLOAD DUP2 LT PUSH2 0x55C JUMPI PUSH2 0x55B PUSH2 0x1487 JUMP JUMPDEST JUMPDEST PUSH1 0x20 MUL PUSH1 0x20 ADD ADD MLOAD PUSH1 0x20 ADD MLOAD SUB PUSH2 0x591 JUMPI DUP2 DUP2 DUP2 MLOAD DUP2 LT PUSH2 0x580 JUMPI PUSH2 0x57F PUSH2 0x1487 JUMP JUMPDEST JUMPDEST PUSH1 0x20 MUL PUSH1 0x20 ADD ADD MLOAD SWAP3 POP POP POP PUSH2 0x5DA JUMP JUMPDEST DUP1 DUP1 PUSH1 0x1 ADD SWAP2 POP POP PUSH2 0x53F JUMP JUMPDEST POP PUSH1 0x40 MLOAD PUSH32 0x8C379A000000000000000000000000000000000000000000000000000000000 DUP2 MSTORE PUSH1 0x4 ADD PUSH2 0x5D1 SWAP1 PUSH2 0x14FE JUMP JUMPDEST PUSH1 0x40 MLOAD DUP1 SWAP2 SUB SWAP1 REVERT JUMPDEST SWAP2 SWAP1 POP JUMP JUMPDEST PUSH1 0x60 PUSH0 DUP1 SLOAD SWAP1 PUSH2 0x100 EXP SWAP1 DIV PUSH20 0xFFFFFFFFFFFFFFFFFFFFFFFFFFFFFFFFFFFFFFFF AND PUSH20 0xFFFFFFFFFFFFFFFFFFFFFFFFFFFFFFFFFFFFFFFF AND CALLER PUSH20 0xFFFFFFFFFFFFFFFFFFFFFFFFFFFFFFFFFFFFFFFF AND EQ PUSH2 0x66E JUMPI PUSH1 0x40 MLOAD PUSH32 0x8C379A000000000000000000000000000000000000000000000000000000000 DUP2 MSTORE PUSH1 0x4 ADD PUSH2 0x665 SWAP1 PUSH2 0x106F JUMP JUMPDEST PUSH1 0x40 MLOAD DUP1 SWAP2 SUB SWAP1 REVERT JUMPDEST PUSH1 0x1 PUSH0 CALLER PUSH20 0xFFFFFFFFFFFFFFFFFFFFFFFFFFFFFFFFFFFFFFFF AND PUSH20 0xFFFFFFFFFFFFFFFFFFFFFFFFFFFFFFFFFFFFFFFF AND DUP2 MSTORE PUSH1 0x20 ADD SWAP1 DUP2 MSTORE PUSH1 0x20 ADD PUSH0 KECCAK256 DUP1 SLOAD DUP1 PUSH1 0x20 MUL PUSH1 0x20 ADD PUSH1 0x40 MLOAD SWAP1 DUP2 ADD PUSH1 0x40 MSTORE DUP1 SWAP3 SWAP2 SWAP1 DUP2 DUP2 MSTORE PUSH1 0x20 ADD PUSH0 SWAP1 JUMPDEST DUP3 DUP3 LT ISZERO PUSH2 0x82D JUMPI DUP4 DUP3 SWAP1 PUSH0 MSTORE PUSH1 0x20 PUSH0 KECCAK256 SWAP1 PUSH1 0x4 MUL ADD PUSH1 0x40 MLOAD DUP1 PUSH1 0x80 ADD PUSH1 0x40 MSTORE SWAP1 DUP2 PUSH0 DUP3 ADD DUP1 SLOAD PUSH2 0x6FA SWAP1 PUSH2 0x115B JUMP JUMPDEST DUP1 PUSH1 0x1F ADD PUSH1 0x20 DUP1 SWAP2 DIV MUL PUSH1 0x20 ADD PUSH1 0x40 MLOAD SWAP1 DUP2 ADD PUSH1 0x40 MSTORE DUP1 SWAP3 SWAP2 SWAP1 DUP2 DUP2 MSTORE PUSH1 0x20 ADD DUP3 DUP1 SLOAD PUSH2 0x726 SWAP1 PUSH2 0x115B JUMP JUMPDEST DUP1 ISZERO PUSH2 0x771 JUMPI DUP1 PUSH1 0x1F LT PUSH2 0x748 JUMPI PUSH2 0x100 DUP1 DUP4 SLOAD DIV MUL DUP4 MSTORE SWAP2 PUSH1 0x20 ADD SWAP2 PUSH2 0x771 JUMP JUMPDEST DUP3 ADD SWAP2 SWAP1 PUSH0 MSTORE PUSH1 0x20 PUSH0 KECCAK256 SWAP1 JUMPDEST DUP2 SLOAD DUP2 MSTORE SWAP1 PUSH1 0x1 ADD SWAP1 PUSH1 0x20 ADD DUP1 DUP4 GT PUSH2 0x754 JUMPI DUP3 SWAP1 SUB PUSH1 0x1F AND DUP3 ADD SWAP2 JUMPDEST POP POP POP POP POP DUP2 MSTORE PUSH1 0x20 ADD PUSH1 0x1 DUP3 ADD SLOAD DUP2 MSTORE PUSH1 0x20 ADD PUSH1 0x2 DUP3 ADD DUP1 SLOAD PUSH2 0x794 SWAP1 PUSH2 0x115B JUMP JUMPDEST DUP1 PUSH1 0x1F ADD PUSH1 0x20 DUP1 SWAP2 DIV MUL PUSH1 0x20 ADD PUSH1 0x40 MLOAD SWAP1 DUP2 ADD PUSH1 0x40 MSTORE DUP1 SWAP3 SWAP2 SWAP1 DUP2 DUP2 MSTORE PUSH1 0x20 ADD DUP3 DUP1 SLOAD PUSH2 0x7C0 SWAP1 PUSH2 0x115B JUMP JUMPDEST DUP1 ISZERO PUSH2 0x80B JUMPI DUP1 PUSH1 0x1F LT PUSH2 0x7E2 JUMPI PUSH2 0x100 DUP1 DUP4 SLOAD DIV MUL DUP4 MSTORE SWAP2 PUSH1 0x20 ADD SWAP2 PUSH2 0x80B JUMP JUMPDEST DUP3 ADD SWAP2 SWAP1 PUSH0 MSTORE PUSH1 0x20 PUSH0 KECCAK256 SWAP1 JUMPDEST DUP2 SLOAD DUP2 MSTORE SWAP1 PUSH1 0x1 ADD SWAP1 PUSH1 0x20 ADD DUP1 DUP4 GT PUSH2 0x7EE JUMPI DUP3 SWAP1 SUB PUSH1 0x1F AND DUP3 ADD SWAP2 JUMPDEST POP POP POP POP POP DUP2 MSTORE PUSH1 0x20 ADD PUSH1 0x3 DUP3 ADD SLOAD DUP2 MSTORE POP POP DUP2 MSTORE PUSH1 0x20 ADD SWAP1 PUSH1 0x1 ADD SWAP1 PUSH2 0x6CA JUMP JUMPDEST POP POP POP POP SWAP1 POP SWAP1 JUMP JUMPDEST PUSH1 0x60 PUSH0 PUSH1 0x1 PUSH0 CALLER PUSH20 0xFFFFFFFFFFFFFFFFFFFFFFFFFFFFFFFFFFFFFFFF AND PUSH20 0xFFFFFFFFFFFFFFFFFFFFFFFFFFFFFFFFFFFFFFFF AND DUP2 MSTORE PUSH1 0x20 ADD SWAP1 DUP2 MSTORE PUSH1 0x20 ADD PUSH0 KECCAK256 DUP1 SLOAD DUP1 PUSH1 0x20 MUL PUSH1 0x20 ADD PUSH1 0x40 MLOAD SWAP1 DUP2 ADD PUSH1 0x40 MSTORE DUP1 SWAP3 SWAP2 SWAP1 DUP2 DUP2 MSTORE PUSH1 0x20 ADD PUSH0 SWAP1 JUMPDEST DUP3 DUP3 LT ISZERO PUSH2 0x9F8 JUMPI DUP4 DUP3 SWAP1 PUSH0 MSTORE PUSH1 0x20 PUSH0 KECCAK256 SWAP1 PUSH1 0x4 MUL ADD PUSH1 0x40 MLOAD DUP1 PUSH1 0x80 ADD PUSH1 0x40 MSTORE SWAP1 DUP2 PUSH0 DUP3 ADD DUP1 SLOAD PUSH2 0x8C5 SWAP1 PUSH2 0x115B JUMP JUMPDEST DUP1 PUSH1 0x1F ADD PUSH1 0x20 DUP1 SWAP2 DIV MUL PUSH1 0x20 ADD PUSH1 0x40 MLOAD SWAP1 DUP2 ADD PUSH1 0x40 MSTORE DUP1 SWAP3 SWAP2 SWAP1 DUP2 DUP2 MSTORE PUSH1 0x20 ADD DUP3 DUP1 SLOAD PUSH2 0x8F1 SWAP1 PUSH2 0x115B JUMP JUMPDEST DUP1 ISZERO PUSH2 0x93C JUMPI DUP1 PUSH1 0x1F LT PUSH2 0x913 JUMPI PUSH2 0x100 DUP1 DUP4 SLOAD DIV MUL DUP4 MSTORE SWAP2 PUSH1 0x20 ADD SWAP2 PUSH2 0x93C JUMP JUMPDEST DUP3 ADD SWAP2 SWAP1 PUSH0 MSTORE PUSH1 0x20 PUSH0 KECCAK256 SWAP1 JUMPDEST DUP2 SLOAD DUP2 MSTORE SWAP1 PUSH1 0x1 ADD SWAP1 PUSH1 0x20 ADD DUP1 DUP4 GT PUSH2 0x91F JUMPI DUP3 SWAP1 SUB PUSH1 0x1F AND DUP3 ADD SWAP2 JUMPDEST POP POP POP POP POP DUP2 MSTORE PUSH1 0x20 ADD PUSH1 0x1 DUP3 ADD SLOAD DUP2 MSTORE PUSH1 0x20 ADD PUSH1 0x2 DUP3 ADD DUP1 SLOAD PUSH2 0x95F SWAP1 PUSH2 0x115B JUMP JUMPDEST DUP1 PUSH1 0x1F ADD PUSH1 0x20 DUP1 SWAP2 DIV MUL PUSH1 0x20 ADD PUSH1 0x40 MLOAD SWAP1 DUP2 ADD PUSH1 0x40 MSTORE DUP1 SWAP3 SWAP2 SWAP1 DUP2 DUP2 MSTORE PUSH1 0x20 ADD DUP3 DUP1 SLOAD PUSH2 0x98B SWAP1 PUSH2 0x115B JUMP JUMPDEST DUP1 ISZERO PUSH2 0x9D6 JUMPI DUP1 PUSH1 0x1F LT PUSH2 0x9AD JUMPI PUSH2 0x100 DUP1 DUP4 SLOAD DIV MUL DUP4 MSTORE SWAP2 PUSH1 0x20 ADD SWAP2 PUSH2 0x9D6 JUMP JUMPDEST DUP3 ADD SWAP2 SWAP1 PUSH0 MSTORE PUSH1 0x20 PUSH0 KECCAK256 SWAP1 JUMPDEST DUP2 SLOAD DUP2 MSTORE SWAP1 PUSH1 0x1 ADD SWAP1 PUSH1 0x20 ADD DUP1 DUP4 GT PUSH2 0x9B9 JUMPI DUP3 SWAP1 SUB PUSH1 0x1F AND DUP3 ADD SWAP2 JUMPDEST POP POP POP POP POP DUP2 MSTORE PUSH1 0x20 ADD PUSH1 0x3 DUP3 ADD SLOAD DUP2 MSTORE POP POP DUP2 MSTORE PUSH1 0x20 ADD SWAP1 PUSH1 0x1 ADD SWAP1 PUSH2 0x895 JUMP JUMPDEST POP POP POP POP SWAP1 POP PUSH0 DUP1 JUMPDEST DUP3 MLOAD DUP2 LT ISZERO PUSH2 0xA96 JUMPI PUSH2 0xA56 DUP7 DUP7 DUP1 DUP1 PUSH1 0x1F ADD PUSH1 0x20 DUP1 SWAP2 DIV MUL PUSH1 0x20 ADD PUSH1 0x40 MLOAD SWAP1 DUP2 ADD PUSH1 0x40 MSTORE DUP1 SWAP4 SWAP3 SWAP2 SWAP1 DUP2 DUP2 MSTORE PUSH1 0x20 ADD DUP4 DUP4 DUP1 DUP3 DUP5 CALLDATACOPY PUSH0 DUP2 DUP5 ADD MSTORE PUSH1 0x1F NOT PUSH1 0x1F DUP3 ADD AND SWAP1 POP DUP1 DUP4 ADD SWAP3 POP POP POP POP POP POP POP PUSH2 0xBCD JUMP JUMPDEST DUP4 DUP3 DUP2 MLOAD DUP2 LT PUSH2 0xA69 JUMPI PUSH2 0xA68 PUSH2 0x1487 JUMP JUMPDEST JUMPDEST PUSH1 0x20 MUL PUSH1 0x20 ADD ADD MLOAD PUSH1 0x60 ADD MLOAD SUB PUSH2 0xA89 JUMPI DUP2 DUP1 PUSH2 0xA85 SWAP1 PUSH2 0x10BA JUMP JUMPDEST SWAP3 POP POP JUMPDEST DUP1 DUP1 PUSH1 0x1 ADD SWAP2 POP POP PUSH2 0xA01 JUMP JUMPDEST POP PUSH0 DUP2 PUSH8 0xFFFFFFFFFFFFFFFF DUP2 GT ISZERO PUSH2 0xAB2 JUMPI PUSH2 0xAB1 PUSH2 0x1101 JUMP JUMPDEST JUMPDEST PUSH1 0x40 MLOAD SWAP1 DUP1 DUP3 MSTORE DUP1 PUSH1 0x20 MUL PUSH1 0x20 ADD DUP3 ADD PUSH1 0x40 MSTORE DUP1 ISZERO PUSH2 0xAEB JUMPI DUP2 PUSH1 0x20 ADD JUMPDEST PUSH2 0xAD8 PUSH2 0xBFC JUMP JUMPDEST DUP2 MSTORE PUSH1 0x20 ADD SWAP1 PUSH1 0x1 SWAP1 SUB SWAP1 DUP2 PUSH2 0xAD0 JUMPI SWAP1 POP JUMPDEST POP SWAP1 POP PUSH0 DUP1 JUMPDEST DUP5 MLOAD DUP2 LT ISZERO PUSH2 0xBBF JUMPI PUSH2 0xB46 DUP9 DUP9 DUP1 DUP1 PUSH1 0x1F ADD PUSH1 0x20 DUP1 SWAP2 DIV MUL PUSH1 0x20 ADD PUSH1 0x40 MLOAD SWAP1 DUP2 ADD PUSH1 0x40 MSTORE DUP1 SWAP4 SWAP3 SWAP2 SWAP1 DUP2 DUP2 MSTORE PUSH1 0x20 ADD DUP4 DUP4 DUP1 DUP3 DUP5 CALLDATACOPY PUSH0 DUP2 DUP5 ADD MSTORE PUSH1 0x1F NOT PUSH1 0x1F DUP3 ADD AND SWAP1 POP DUP1 DUP4 ADD SWAP3 POP POP POP POP POP POP POP PUSH2 0xBCD JUMP JUMPDEST DUP6 DUP3 DUP2 MLOAD DUP2 LT PUSH2 0xB59 JUMPI PUSH2 0xB58 PUSH2 0x1487 JUMP JUMPDEST JUMPDEST PUSH1 0x20 MUL PUSH1 0x20 ADD ADD MLOAD PUSH1 0x60 ADD MLOAD SUB PUSH2 0xBB2 JUMPI DUP5 DUP2 DUP2 MLOAD DUP2 LT PUSH2 0xB7D JUMPI PUSH2 0xB7C PUSH2 0x1487 JUMP JUMPDEST JUMPDEST PUSH1 0x20 MUL PUSH1 0x20 ADD ADD MLOAD DUP4 DUP4 DUP2 MLOAD DUP2 LT PUSH2 0xB98 JUMPI PUSH2 0xB97 PUSH2 0x1487 JUMP JUMPDEST JUMPDEST PUSH1 0x20 MUL PUSH1 0x20 ADD ADD DUP2 SWAP1 MSTORE POP DUP2 DUP1 PUSH2 0xBAE SWAP1 PUSH2 0x10BA JUMP JUMPDEST SWAP3 POP POP JUMPDEST DUP1 DUP1 PUSH1 0x1 ADD SWAP2 POP POP PUSH2 0xAF1 JUMP JUMPDEST POP DUP2 SWAP5 POP POP POP POP POP SWAP3 SWAP2 POP POP JUMP JUMPDEST PUSH0 DUP2 PUSH1 0x40 MLOAD PUSH1 0x20 ADD PUSH2 0xBDF SWAP2 SWAP1 PUSH2 0x1556 JUMP JUMPDEST PUSH1 0x40 MLOAD PUSH1 0x20 DUP2 DUP4 SUB SUB DUP2 MSTORE SWAP1 PUSH1 0x40 MSTORE DUP1 MLOAD SWAP1 PUSH1 0x20 ADD KECCAK256 SWAP1 POP SWAP2 SWAP1 POP JUMP JUMPDEST PUSH1 0x40 MLOAD DUP1 PUSH1 0x80 ADD PUSH1 0x40 MSTORE DUP1 PUSH1 0x60 DUP2 MSTORE PUSH1 0x20 ADD PUSH0 DUP2 MSTORE PUSH1 0x20 ADD PUSH1 0x60 DUP2 MSTORE PUSH1 0x20 ADD PUSH0 DUP1 NOT AND DUP2 MSTORE POP SWAP1 JUMP JUMPDEST PUSH0 DUP1 REVERT JUMPDEST PUSH0 DUP1 REVERT JUMPDEST PUSH0 DUP1 REVERT JUMPDEST PUSH0 DUP1 REVERT JUMPDEST PUSH0 DUP1 REVERT JUMPDEST PUSH0 DUP1 DUP4 PUSH1 0x1F DUP5 ADD SLT PUSH2 0xC4E JUMPI PUSH2 0xC4D PUSH2 0xC2D JUMP JUMPDEST JUMPDEST DUP3 CALLDATALOAD SWAP1 POP PUSH8 0xFFFFFFFFFFFFFFFF DUP2 GT ISZERO PUSH2 0xC6B JUMPI PUSH2 0xC6A PUSH2 0xC31 JUMP JUMPDEST JUMPDEST PUSH1 0x20 DUP4 ADD SWAP2 POP DUP4 PUSH1 0x1 DUP3 MUL DUP4 ADD GT ISZERO PUSH2 0xC87 JUMPI PUSH2 0xC86 PUSH2 0xC35 JUMP JUMPDEST JUMPDEST SWAP3 POP SWAP3 SWAP1 POP JUMP JUMPDEST PUSH0 DUP1 PUSH0 DUP1 PUSH1 0x40 DUP6 DUP8 SUB SLT ISZERO PUSH2 0xCA6 JUMPI PUSH2 0xCA5 PUSH2 0xC25 JUMP JUMPDEST JUMPDEST PUSH0 DUP6 ADD CALLDATALOAD PUSH8 0xFFFFFFFFFFFFFFFF DUP2 GT ISZERO PUSH2 0xCC3 JUMPI PUSH2 0xCC2 PUSH2 0xC29 JUMP JUMPDEST JUMPDEST PUSH2 0xCCF DUP8 DUP3 DUP9 ADD PUSH2 0xC39 JUMP JUMPDEST SWAP5 POP SWAP5 POP POP PUSH1 0x20 DUP6 ADD CALLDATALOAD PUSH8 0xFFFFFFFFFFFFFFFF DUP2 GT ISZERO PUSH2 0xCF2 JUMPI PUSH2 0xCF1 PUSH2 0xC29 JUMP JUMPDEST JUMPDEST PUSH2 0xCFE DUP8 DUP3 DUP9 ADD PUSH2 0xC39 JUMP JUMPDEST SWAP3 POP SWAP3 POP POP SWAP3 SWAP6 SWAP2 SWAP5 POP SWAP3 POP JUMP JUMPDEST PUSH0 DUP2 SWAP1 POP SWAP2 SWAP1 POP JUMP JUMPDEST PUSH2 0xD1E DUP2 PUSH2 0xD0C JUMP JUMPDEST DUP2 EQ PUSH2 0xD28 JUMPI PUSH0 DUP1 REVERT JUMPDEST POP JUMP JUMPDEST PUSH0 DUP2 CALLDATALOAD SWAP1 POP PUSH2 0xD39 DUP2 PUSH2 0xD15 JUMP JUMPDEST SWAP3 SWAP2 POP POP JUMP JUMPDEST PUSH0 PUSH1 0x20 DUP3 DUP5 SUB SLT ISZERO PUSH2 0xD54 JUMPI PUSH2 0xD53 PUSH2 0xC25 JUMP JUMPDEST JUMPDEST PUSH0 PUSH2 0xD61 DUP5 DUP3 DUP6 ADD PUSH2 0xD2B JUMP JUMPDEST SWAP2 POP POP SWAP3 SWAP2 POP POP JUMP JUMPDEST PUSH0 DUP2 MLOAD SWAP1 POP SWAP2 SWAP1 POP JUMP JUMPDEST PUSH0 DUP3 DUP3 MSTORE PUSH1 0x20 DUP3 ADD SWAP1 POP SWAP3 SWAP2 POP POP JUMP JUMPDEST DUP3 DUP2 DUP4 MCOPY PUSH0 DUP4 DUP4 ADD MSTORE POP POP POP JUMP JUMPDEST PUSH0 PUSH1 0x1F NOT PUSH1 0x1F DUP4 ADD AND SWAP1 POP SWAP2 SWAP1 POP JUMP JUMPDEST PUSH0 PUSH2 0xDAC DUP3 PUSH2 0xD6A JUMP JUMPDEST PUSH2 0xDB6 DUP2 DUP6 PUSH2 0xD74 JUMP JUMPDEST SWAP4 POP PUSH2 0xDC6 DUP2 DUP6 PUSH1 0x20 DUP7 ADD PUSH2 0xD84 JUMP JUMPDEST PUSH2 0xDCF DUP2 PUSH2 0xD92 JUMP JUMPDEST DUP5 ADD SWAP2 POP POP SWAP3 SWAP2 POP POP JUMP JUMPDEST PUSH2 0xDE3 DUP2 PUSH2 0xD0C JUMP JUMPDEST DUP3 MSTORE POP POP JUMP JUMPDEST PUSH0 DUP2 SWAP1 POP SWAP2 SWAP1 POP JUMP JUMPDEST PUSH2 0xDFB DUP2 PUSH2 0xDE9 JUMP JUMPDEST DUP3 MSTORE POP POP JUMP JUMPDEST PUSH0 PUSH1 0x80 DUP4 ADD PUSH0 DUP4 ADD MLOAD DUP5 DUP3 SUB PUSH0 DUP7 ADD MSTORE PUSH2 0xE1B DUP3 DUP3 PUSH2 0xDA2 JUMP JUMPDEST SWAP2 POP POP PUSH1 0x20 DUP4 ADD MLOAD PUSH2 0xE30 PUSH1 0x20 DUP7 ADD DUP3 PUSH2 0xDDA JUMP JUMPDEST POP PUSH1 0x40 DUP4 ADD MLOAD DUP5 DUP3 SUB PUSH1 0x40 DUP7 ADD MSTORE PUSH2 0xE48 DUP3 DUP3 PUSH2 0xDA2 JUMP JUMPDEST SWAP2 POP POP PUSH1 0x60 DUP4 ADD MLOAD PUSH2 0xE5D PUSH1 0x60 DUP7 ADD DUP3 PUSH2 0xDF2 JUMP JUMPDEST POP DUP1 SWAP2 POP POP SWAP3 SWAP2 POP POP JUMP JUMPDEST PUSH0 PUSH1 0x20 DUP3 ADD SWAP1 POP DUP2 DUP2 SUB PUSH0 DUP4 ADD MSTORE PUSH2 0xE80 DUP2 DUP5 PUSH2 0xE01 JUMP JUMPDEST SWAP1 POP SWAP3 SWAP2 POP POP JUMP JUMPDEST PUSH0 DUP2 MLOAD SWAP1 POP SWAP2 SWAP1 POP JUMP JUMPDEST PUSH0 DUP3 DUP3 MSTORE PUSH1 0x20 DUP3 ADD SWAP1 POP SWAP3 SWAP2 POP POP JUMP JUMPDEST PUSH0 DUP2 SWAP1 POP PUSH1 0x20 DUP3 ADD SWAP1 POP SWAP2 SWAP1 POP JUMP JUMPDEST PUSH0 PUSH1 0x80 DUP4 ADD PUSH0 DUP4 ADD MLOAD DUP5 DUP3 SUB PUSH0 DUP7 ADD MSTORE PUSH2 0xECB DUP3 DUP3 PUSH2 0xDA2 JUMP JUMPDEST SWAP2 POP POP PUSH1 0x20 DUP4 ADD MLOAD PUSH2 0xEE0 PUSH1 0x20 DUP7 ADD DUP3 PUSH2 0xDDA JUMP JUMPDEST POP PUSH1 0x40 DUP4 ADD MLOAD DUP5 DUP3 SUB PUSH1 0x40 DUP7 ADD MSTORE PUSH2 0xEF8 DUP3 DUP3 PUSH2 0xDA2 JUMP JUMPDEST SWAP2 POP POP PUSH1 0x60 DUP4 ADD MLOAD PUSH2 0xF0D PUSH1 0x60 DUP7 ADD DUP3 PUSH2 0xDF2 JUMP JUMPDEST POP DUP1 SWAP2 POP POP SWAP3 SWAP2 POP POP JUMP JUMPDEST PUSH0 PUSH2 0xF23 DUP4 DUP4 PUSH2 0xEB1 JUMP JUMPDEST SWAP1 POP SWAP3 SWAP2 POP POP JUMP JUMPDEST PUSH0 PUSH1 0x20 DUP3 ADD SWAP1 POP SWAP2 SWAP1 POP JUMP JUMPDEST PUSH0 PUSH2 0xF41 DUP3 PUSH2 0xE88 JUMP JUMPDEST PUSH2 0xF4B DUP2 DUP6 PUSH2 0xE92 JUMP JUMPDEST SWAP4 POP DUP4 PUSH1 0x20 DUP3 MUL DUP6 ADD PUSH2 0xF5D DUP6 PUSH2 0xEA2 JUMP JUMPDEST DUP1 PUSH0 JUMPDEST DUP6 DUP2 LT ISZERO PUSH2 0xF98 JUMPI DUP5 DUP5 SUB DUP10 MSTORE DUP2 MLOAD PUSH2 0xF79 DUP6 DUP3 PUSH2 0xF18 JUMP JUMPDEST SWAP5 POP PUSH2 0xF84 DUP4 PUSH2 0xF2B JUMP JUMPDEST SWAP3 POP PUSH1 0x20 DUP11 ADD SWAP10 POP POP PUSH1 0x1 DUP2 ADD SWAP1 POP PUSH2 0xF60 JUMP JUMPDEST POP DUP3 SWAP8 POP DUP8 SWAP6 POP POP POP POP POP POP SWAP3 SWAP2 POP POP JUMP JUMPDEST PUSH0 PUSH1 0x20 DUP3 ADD SWAP1 POP DUP2 DUP2 SUB PUSH0 DUP4 ADD MSTORE PUSH2 0xFC2 DUP2 DUP5 PUSH2 0xF37 JUMP JUMPDEST SWAP1 POP SWAP3 SWAP2 POP POP JUMP JUMPDEST PUSH0 DUP1 PUSH1 0x20 DUP4 DUP6 SUB SLT ISZERO PUSH2 0xFE0 JUMPI PUSH2 0xFDF PUSH2 0xC25 JUMP JUMPDEST JUMPDEST PUSH0 DUP4 ADD CALLDATALOAD PUSH8 0xFFFFFFFFFFFFFFFF DUP2 GT ISZERO PUSH2 0xFFD JUMPI PUSH2 0xFFC PUSH2 0xC29 JUMP JUMPDEST JUMPDEST PUSH2 0x1009 DUP6 DUP3 DUP7 ADD PUSH2 0xC39 JUMP JUMPDEST SWAP3 POP SWAP3 POP POP SWAP3 POP SWAP3 SWAP1 POP JUMP JUMPDEST PUSH0 DUP3 DUP3 MSTORE PUSH1 0x20 DUP3 ADD SWAP1 POP SWAP3 SWAP2 POP POP JUMP JUMPDEST PUSH32 0x6F6E6C79207363686F6F6C2063616E20757365207468652066756E6374696F6E PUSH0 DUP3 ADD MSTORE POP JUMP JUMPDEST PUSH0 PUSH2 0x1059 PUSH1 0x20 DUP4 PUSH2 0x1015 JUMP JUMPDEST SWAP2 POP PUSH2 0x1064 DUP3 PUSH2 0x1025 JUMP JUMPDEST PUSH1 0x20 DUP3 ADD SWAP1 POP SWAP2 SWAP1 POP JUMP JUMPDEST PUSH0 PUSH1 0x20 DUP3 ADD SWAP1 POP DUP2 DUP2 SUB PUSH0 DUP4 ADD MSTORE PUSH2 0x1086 DUP2 PUSH2 0x104D JUMP JUMPDEST SWAP1 POP SWAP2 SWAP1 POP JUMP JUMPDEST PUSH32 0x4E487B7100000000000000000000000000000000000000000000000000000000 PUSH0 MSTORE PUSH1 0x11 PUSH1 0x4 MSTORE PUSH1 0x24 PUSH0 REVERT JUMPDEST PUSH0 PUSH2 0x10C4 DUP3 PUSH2 0xD0C JUMP JUMPDEST SWAP2 POP PUSH32 0xFFFFFFFFFFFFFFFFFFFFFFFFFFFFFFFFFFFFFFFFFFFFFFFFFFFFFFFFFFFFFFFF DUP3 SUB PUSH2 0x10F6 JUMPI PUSH2 0x10F5 PUSH2 0x108D JUMP JUMPDEST JUMPDEST PUSH1 0x1 DUP3 ADD SWAP1 POP SWAP2 SWAP1 POP JUMP JUMPDEST PUSH32 0x4E487B7100000000000000000000000000000000000000000000000000000000 PUSH0 MSTORE PUSH1 0x41 PUSH1 0x4 MSTORE PUSH1 0x24 PUSH0 REVERT JUMPDEST PUSH32 0x4E487B7100000000000000000000000000000000000000000000000000000000 PUSH0 MSTORE PUSH1 0x22 PUSH1 0x4 MSTORE PUSH1 0x24 PUSH0 REVERT JUMPDEST PUSH0 PUSH1 0x2 DUP3 DIV SWAP1 POP PUSH1 0x1 DUP3 AND DUP1 PUSH2 0x1172 JUMPI PUSH1 0x7F DUP3 AND SWAP2 POP JUMPDEST PUSH1 0x20 DUP3 LT DUP2 SUB PUSH2 0x1185 JUMPI PUSH2 0x1184 PUSH2 0x112E JUMP JUMPDEST JUMPDEST POP SWAP2 SWAP1 POP JUMP JUMPDEST PUSH0 DUP2 SWAP1 POP DUP2 PUSH0 MSTORE PUSH1 0x20 PUSH0 KECCAK256 SWAP1 POP SWAP2 SWAP1 POP JUMP JUMPDEST PUSH0 PUSH1 0x20 PUSH1 0x1F DUP4 ADD DIV SWAP1 POP SWAP2 SWAP1 POP JUMP JUMPDEST PUSH0 DUP3 DUP3 SHL SWAP1 POP SWAP3 SWAP2 POP POP JUMP JUMPDEST PUSH0 PUSH1 0x8 DUP4 MUL PUSH2 0x11E7 PUSH32 0xFFFFFFFFFFFFFFFFFFFFFFFFFFFFFFFFFFFFFFFFFFFFFFFFFFFFFFFFFFFFFFFF DUP3 PUSH2 0x11AC JUMP JUMPDEST PUSH2 0x11F1 DUP7 DUP4 PUSH2 0x11AC JUMP JUMPDEST SWAP6 POP DUP1 NOT DUP5 AND SWAP4 POP DUP1 DUP7 AND DUP5 OR SWAP3 POP POP POP SWAP4 SWAP3 POP POP POP JUMP JUMPDEST PUSH0 DUP2 SWAP1 POP SWAP2 SWAP1 POP JUMP JUMPDEST PUSH0 PUSH2 0x122C PUSH2 0x1227 PUSH2 0x1222 DUP5 PUSH2 0xD0C JUMP JUMPDEST PUSH2 0x1209 JUMP JUMPDEST PUSH2 0xD0C JUMP JUMPDEST SWAP1 POP SWAP2 SWAP1 POP JUMP JUMPDEST PUSH0 DUP2 SWAP1 POP SWAP2 SWAP1 POP JUMP JUMPDEST PUSH2 0x1245 DUP4 PUSH2 0x1212 JUMP JUMPDEST PUSH2 0x1259 PUSH2 0x1251 DUP3 PUSH2 0x1233 JUMP JUMPDEST DUP5 DUP5 SLOAD PUSH2 0x11B8 JUMP JUMPDEST DUP3 SSTORE POP POP POP POP JUMP JUMPDEST PUSH0 SWAP1 JUMP JUMPDEST PUSH2 0x126D PUSH2 0x1261 JUMP JUMPDEST PUSH2 0x1278 DUP2 DUP5 DUP5 PUSH2 0x123C JUMP JUMPDEST POP POP POP JUMP JUMPDEST JUMPDEST DUP2 DUP2 LT ISZERO PUSH2 0x129B JUMPI PUSH2 0x1290 PUSH0 DUP3 PUSH2 0x1265 JUMP JUMPDEST PUSH1 0x1 DUP2 ADD SWAP1 POP PUSH2 0x127E JUMP JUMPDEST POP POP JUMP JUMPDEST PUSH1 0x1F DUP3 GT ISZERO PUSH2 0x12E0 JUMPI PUSH2 0x12B1 DUP2 PUSH2 0x118B JUMP JUMPDEST PUSH2 0x12BA DUP5 PUSH2 0x119D JUMP JUMPDEST DUP2 ADD PUSH1 0x20 DUP6 LT ISZERO PUSH2 0x12C9 JUMPI DUP2 SWAP1 POP JUMPDEST PUSH2 0x12DD PUSH2 0x12D5 DUP6 PUSH2 0x119D JUMP JUMPDEST DUP4 ADD DUP3 PUSH2 0x127D JUMP JUMPDEST POP POP JUMPDEST POP POP POP JUMP JUMPDEST PUSH0 DUP3 DUP3 SHR SWAP1 POP SWAP3 SWAP2 POP POP JUMP JUMPDEST PUSH0 PUSH2 0x1300 PUSH0 NOT DUP5 PUSH1 0x8 MUL PUSH2 0x12E5 JUMP JUMPDEST NOT DUP1 DUP4 AND SWAP2 POP POP SWAP3 SWAP2 POP POP JUMP JUMPDEST PUSH0 PUSH2 0x1318 DUP4 DUP4 PUSH2 0x12F1 JUMP JUMPDEST SWAP2 POP DUP3 PUSH1 0x2 MUL DUP3 OR SWAP1 POP SWAP3 SWAP2 POP POP JUMP JUMPDEST PUSH2 0x1331 DUP3 PUSH2 0xD6A JUMP JUMPDEST PUSH8 0xFFFFFFFFFFFFFFFF DUP2 GT ISZERO PUSH2 0x134A JUMPI PUSH2 0x1349 PUSH2 0x1101 JUMP JUMPDEST JUMPDEST PUSH2 0x1354 DUP3 SLOAD PUSH2 0x115B JUMP JUMPDEST PUSH2 0x135F DUP3 DUP3 DUP6 PUSH2 0x129F JUMP JUMPDEST PUSH0 PUSH1 0x20 SWAP1 POP PUSH1 0x1F DUP4 GT PUSH1 0x1 DUP2 EQ PUSH2 0x1390 JUMPI PUSH0 DUP5 ISZERO PUSH2 0x137E JUMPI DUP3 DUP8 ADD MLOAD SWAP1 POP JUMPDEST PUSH2 0x1388 DUP6 DUP3 PUSH2 0x130D JUMP JUMPDEST DUP7 SSTORE POP PUSH2 0x13EF JUMP JUMPDEST PUSH1 0x1F NOT DUP5 AND PUSH2 0x139E DUP7 PUSH2 0x118B JUMP JUMPDEST PUSH0 JUMPDEST DUP3 DUP2 LT ISZERO PUSH2 0x13C5 JUMPI DUP5 DUP10 ADD MLOAD DUP3 SSTORE PUSH1 0x1 DUP3 ADD SWAP2 POP PUSH1 0x20 DUP6 ADD SWAP5 POP PUSH1 0x20 DUP2 ADD SWAP1 POP PUSH2 0x13A0 JUMP JUMPDEST DUP7 DUP4 LT ISZERO PUSH2 0x13E2 JUMPI DUP5 DUP10 ADD MLOAD PUSH2 0x13DE PUSH1 0x1F DUP10 AND DUP3 PUSH2 0x12F1 JUMP JUMPDEST DUP4 SSTORE POP JUMPDEST PUSH1 0x1 PUSH1 0x2 DUP9 MUL ADD DUP9 SSTORE POP POP POP JUMPDEST POP POP POP POP POP POP JUMP JUMPDEST PUSH2 0x1400 DUP2 PUSH2 0xD0C JUMP JUMPDEST DUP3 MSTORE POP POP JUMP JUMPDEST DUP3 DUP2 DUP4 CALLDATACOPY PUSH0 DUP4 DUP4 ADD MSTORE POP POP POP JUMP JUMPDEST PUSH0 PUSH2 0x141F DUP4 DUP6 PUSH2 0x1015 JUMP JUMPDEST SWAP4 POP PUSH2 0x142C DUP4 DUP6 DUP5 PUSH2 0x1406 JUMP JUMPDEST PUSH2 0x1435 DUP4 PUSH2 0xD92 JUMP JUMPDEST DUP5 ADD SWAP1 POP SWAP4 SWAP3 POP POP POP JUMP JUMPDEST PUSH0 PUSH1 0x60 DUP3 ADD SWAP1 POP PUSH2 0x1453 PUSH0 DUP4 ADD DUP9 PUSH2 0x13F7 JUMP JUMPDEST DUP2 DUP2 SUB PUSH1 0x20 DUP4 ADD MSTORE PUSH2 0x1466 DUP2 DUP7 DUP9 PUSH2 0x1414 JUMP JUMPDEST SWAP1 POP DUP2 DUP2 SUB PUSH1 0x40 DUP4 ADD MSTORE PUSH2 0x147B DUP2 DUP5 DUP7 PUSH2 0x1414 JUMP JUMPDEST SWAP1 POP SWAP7 SWAP6 POP POP POP POP POP POP JUMP JUMPDEST PUSH32 0x4E487B7100000000000000000000000000000000000000000000000000000000 PUSH0 MSTORE PUSH1 0x32 PUSH1 0x4 MSTORE PUSH1 0x24 PUSH0 REVERT JUMPDEST PUSH32 0x6E6F2073747564656E7420666F756E6400000000000000000000000000000000 PUSH0 DUP3 ADD MSTORE POP JUMP JUMPDEST PUSH0 PUSH2 0x14E8 PUSH1 0x10 DUP4 PUSH2 0x1015 JUMP JUMPDEST SWAP2 POP PUSH2 0x14F3 DUP3 PUSH2 0x14B4 JUMP JUMPDEST PUSH1 0x20 DUP3 ADD SWAP1 POP SWAP2 SWAP1 POP JUMP JUMPDEST PUSH0 PUSH1 0x20 DUP3 ADD SWAP1 POP DUP2 DUP2 SUB PUSH0 DUP4 ADD MSTORE PUSH2 0x1515 DUP2 PUSH2 0x14DC JUMP JUMPDEST SWAP1 POP SWAP2 SWAP1 POP JUMP JUMPDEST PUSH0 DUP2 SWAP1 POP SWAP3 SWAP2 POP POP JUMP JUMPDEST PUSH0 PUSH2 0x1530 DUP3 PUSH2 0xD6A JUMP JUMPDEST PUSH2 0x153A DUP2 DUP6 PUSH2 0x151C JUMP JUMPDEST SWAP4 POP PUSH2 0x154A DUP2 DUP6 PUSH1 0x20 DUP7 ADD PUSH2 0xD84 JUMP JUMPDEST DUP1 DUP5 ADD SWAP2 POP POP SWAP3 SWAP2 POP POP JUMP JUMPDEST PUSH0 PUSH2 0x1561 DUP3 DUP5 PUSH2 0x1526 JUMP JUMPDEST SWAP2 POP DUP2 SWAP1 POP SWAP3 SWAP2 POP POP JUMP INVALID LOG2 PUSH5 0x6970667358 0x22 SLT KECCAK256 0xA5 SWAP14 0xE MOD GAS 0xAB GAS 0xA9 PUSH22 0x55BAEB03CCF37C3A50B80D4C28CDAA63406138678560 PUSH19 0x64736F6C634300081A00330000000000000000 "
				},
				"gasEstimates": {
					"creation": {
						"codeDepositCost": "1107600",
						"executionCost": "47523",
						"totalCost": "1155123"
					},
					"external": {
						"getAllStudentRecord()": "infinite",
						"getStudentByClass(string)": "infinite",
						"getstudentRecordById(uint256)": "infinite",
						"registerStudent(string,string)": "infinite"
					},
					"internal": {
						"hashString(string memory)": "infinite"
					}
				},
				"methodIdentifiers": {
					"getAllStudentRecord()": "8f747a7e",
					"getStudentByClass(string)": "a24ba4a7",
					"getstudentRecordById(uint256)": "701bc86e",
					"registerStudent(string,string)": "0a1b776c"
				}
			},
			"storageLayout": {
				"storage": [
					{
						"astId": 12,
						"contract": "school-registery/register.sol:SchoolRegister",
						"label": "owner",
						"offset": 0,
						"slot": "0",
						"type": "t_address"
					},
					{
						"astId": 18,
						"contract": "school-registery/register.sol:SchoolRegister",
						"label": "schoolrecord",
						"offset": 0,
						"slot": "1",
						"type": "t_mapping(t_address,t_array(t_struct(Register)10_storage)dyn_storage)"
					},
					{
						"astId": 50,
						"contract": "school-registery/register.sol:SchoolRegister",
						"label": "studentIdCount",
						"offset": 0,
						"slot": "2",
						"type": "t_uint256"
					}
				],
				"types": {
					"t_address": {
						"encoding": "inplace",
						"label": "address",
						"numberOfBytes": "20"
					},
					"t_array(t_struct(Register)10_storage)dyn_storage": {
						"base": "t_struct(Register)10_storage",
						"encoding": "dynamic_array",
						"label": "struct SchoolRegister.Register[]",
						"numberOfBytes": "32"
					},
					"t_bytes32": {
						"encoding": "inplace",
						"label": "bytes32",
						"numberOfBytes": "32"
					},
					"t_mapping(t_address,t_array(t_struct(Register)10_storage)dyn_storage)": {
						"encoding": "mapping",
						"key": "t_address",
						"label": "mapping(address => struct SchoolRegister.Register[])",
						"numberOfBytes": "32",
						"value": "t_array(t_struct(Register)10_storage)dyn_storage"
					},
					"t_string_storage": {
						"encoding": "bytes",
						"label": "string",
						"numberOfBytes": "32"
					},
					"t_struct(Register)10_storage": {
						"encoding": "inplace",
						"label": "struct SchoolRegister.Register",
						"members": [
							{
								"astId": 3,
								"contract": "school-registery/register.sol:SchoolRegister",
								"label": "name",
								"offset": 0,
								"slot": "0",
								"type": "t_string_storage"
							},
							{
								"astId": 5,
								"contract": "school-registery/register.sol:SchoolRegister",
								"label": "id",
								"offset": 0,
								"slot": "1",
								"type": "t_uint256"
							},
							{
								"astId": 7,
								"contract": "school-registery/register.sol:SchoolRegister",
								"label": "class",
								"offset": 0,
								"slot": "2",
								"type": "t_string_storage"
							},
							{
								"astId": 9,
								"contract": "school-registery/register.sol:SchoolRegister",
								"label": "hashClass",
								"offset": 0,
								"slot": "3",
								"type": "t_bytes32"
							}
						],
						"numberOfBytes": "128"
					},
					"t_uint256": {
						"encoding": "inplace",
						"label": "uint256",
						"numberOfBytes": "32"
					}
				}
			},
			"userdoc": {
				"kind": "user",
				"methods": {},
				"version": 1
			}
		}
	}
}