{
	"message-board/board.sol": {
		"MessageBoard": {
			"abi": [
				{
					"anonymous": false,
					"inputs": [
						{
							"indexed": true,
							"internalType": "address",
							"name": "_from",
							"type": "address"
						},
						{
							"indexed": true,
							"internalType": "address",
							"name": "_to",
							"type": "address"
						},
						{
							"indexed": false,
							"internalType": "string",
							"name": "_text",
							"type": "string"
						},
						{
							"indexed": true,
							"internalType": "uint256",
							"name": "_timestamp",
							"type": "uint256"
						}
					],
					"name": "MessageSent",
					"type": "event"
				},
				{
					"inputs": [
						{
							"internalType": "address",
							"name": "_reciever",
							"type": "address"
						}
					],
					"name": "getMessages",
					"outputs": [
						{
							"components": [
								{
									"internalType": "string",
									"name": "text",
									"type": "string"
								},
								{
									"internalType": "uint256",
									"name": "sentTime",
									"type": "uint256"
								},
								{
									"internalType": "address",
									"name": "sender",
									"type": "address"
								}
							],
							"internalType": "struct MessageBoard.Message[]",
							"name": "",
							"type": "tuple[]"
						}
					],
					"stateMutability": "view",
					"type": "function"
				},
				{
					"inputs": [],
					"name": "getSenderMessages",
					"outputs": [
						{
							"components": [
								{
									"internalType": "string",
									"name": "text",
									"type": "string"
								},
								{
									"internalType": "uint256",
									"name": "sentTime",
									"type": "uint256"
								},
								{
									"internalType": "address",
									"name": "sender",
									"type": "address"
								}
							],
							"internalType": "struct MessageBoard.Message[]",
							"name": "",
							"type": "tuple[]"
						}
					],
					"stateMutability": "view",
					"type": "function"
				},
				{
					"inputs": [
						{
							"internalType": "address",
							"name": "_reciever",
							"type": "address"
						},
						{
							"internalType": "string",
							"name": "_text",
							"type": "string"
						}
					],
					"name": "send",
					"outputs": [],
					"stateMutability": "nonpayable",
					"type": "function"
				}
			],
			"devdoc": {
				"kind": "dev",
				"methods": {},
				"version": 1
			},
			"evm": {
				"assembly": "    /* \"message-board/board.sol\":57:1782  contract MessageBoard {... */\n  mstore(0x40, 0x80)\n  callvalue\n  dup1\n  iszero\n  tag_1\n  jumpi\n  0x00\n  dup1\n  revert\ntag_1:\n  pop\n  dataSize(sub_0)\n  dup1\n  dataOffset(sub_0)\n  0x00\n  codecopy\n  0x00\n  return\nstop\n\nsub_0: assembly {\n        /* \"message-board/board.sol\":57:1782  contract MessageBoard {... */\n      mstore(0x40, 0x80)\n      callvalue\n      dup1\n      iszero\n      tag_1\n      jumpi\n      0x00\n      dup1\n      revert\n    tag_1:\n      pop\n      jumpi(tag_2, lt(calldatasize, 0x04))\n      shr(0xe0, calldataload(0x00))\n      dup1\n      0x5efe1ab8\n      eq\n      tag_3\n      jumpi\n      dup1\n      0x99142b5f\n      eq\n      tag_4\n      jumpi\n      dup1\n      0xb2f71322\n      eq\n      tag_5\n      jumpi\n    tag_2:\n      0x00\n      dup1\n      revert\n        /* \"message-board/board.sol\":1585:1780  function getSenderMessages() external view returns (Message[] memory) {... */\n    tag_3:\n      tag_6\n      tag_7\n      jump\t// in\n    tag_6:\n      mload(0x40)\n      tag_8\n      swap2\n      swap1\n      tag_9\n      jump\t// in\n    tag_8:\n      mload(0x40)\n      dup1\n      swap2\n      sub\n      swap1\n      return\n        /* \"message-board/board.sol\":583:1155  function send(address _reciever, string memory _text) public {... */\n    tag_4:\n      tag_10\n      0x04\n      dup1\n      calldatasize\n      sub\n      dup2\n      add\n      swap1\n      tag_11\n      swap2\n      swap1\n      tag_12\n      jump\t// in\n    tag_11:\n      tag_13\n      jump\t// in\n    tag_10:\n      stop\n        /* \"message-board/board.sol\":1184:1534  function getMessages(address _reciever)... */\n    tag_5:\n      tag_14\n      0x04\n      dup1\n      calldatasize\n      sub\n      dup2\n      add\n      swap1\n      tag_15\n      swap2\n      swap1\n      tag_16\n      jump\t// in\n    tag_15:\n      tag_17\n      jump\t// in\n    tag_14:\n      mload(0x40)\n      tag_18\n      swap2\n      swap1\n      tag_9\n      jump\t// in\n    tag_18:\n      mload(0x40)\n      dup1\n      swap2\n      sub\n      swap1\n      return\n        /* \"message-board/board.sol\":1585:1780  function getSenderMessages() external view returns (Message[] memory) {... */\n    tag_7:\n        /* \"message-board/board.sol\":1637:1653  Message[] memory */\n      0x60\n        /* \"message-board/board.sol\":1703:1704  0 */\n      0x00\n        /* \"message-board/board.sol\":1673:1681  messages */\n      dup1\n        /* \"message-board/board.sol\":1673:1693  messages[msg.sender] */\n      0x00\n        /* \"message-board/board.sol\":1682:1692  msg.sender */\n      caller\n        /* \"message-board/board.sol\":1673:1693  messages[msg.sender] */\n      0xffffffffffffffffffffffffffffffffffffffff\n      and\n      0xffffffffffffffffffffffffffffffffffffffff\n      and\n      dup2\n      mstore\n      0x20\n      add\n      swap1\n      dup2\n      mstore\n      0x20\n      add\n      0x00\n      keccak256\n        /* \"message-board/board.sol\":1673:1700  messages[msg.sender].length */\n      dup1\n      sload\n      swap1\n      pop\n        /* \"message-board/board.sol\":1673:1704  messages[msg.sender].length > 0 */\n      gt\n        /* \"message-board/board.sol\":1665:1735  require(messages[msg.sender].length > 0, \"user does not have message\") */\n      tag_20\n      jumpi\n      mload(0x40)\n      0x08c379a000000000000000000000000000000000000000000000000000000000\n      dup2\n      mstore\n      0x04\n      add\n      tag_21\n      swap1\n      tag_22\n      jump\t// in\n    tag_21:\n      mload(0x40)\n      dup1\n      swap2\n      sub\n      swap1\n      revert\n    tag_20:\n        /* \"message-board/board.sol\":1753:1761  messages */\n      0x00\n        /* \"message-board/board.sol\":1753:1773  messages[msg.sender] */\n      dup1\n        /* \"message-board/board.sol\":1762:1772  msg.sender */\n      caller\n        /* \"message-board/board.sol\":1753:1773  messages[msg.sender] */\n      0xffffffffffffffffffffffffffffffffffffffff\n      and\n      0xffffffffffffffffffffffffffffffffffffffff\n      and\n      dup2\n      mstore\n      0x20\n      add\n      swap1\n      dup2\n      mstore\n      0x20\n      add\n      0x00\n      keccak256\n        /* \"message-board/board.sol\":1746:1773  return messages[msg.sender] */\n      dup1\n      sload\n      dup1\n      0x20\n      mul\n      0x20\n      add\n      mload(0x40)\n      swap1\n      dup2\n      add\n      0x40\n      mstore\n      dup1\n      swap3\n      swap2\n      swap1\n      dup2\n      dup2\n      mstore\n      0x20\n      add\n      0x00\n      swap1\n    tag_23:\n      dup3\n      dup3\n      lt\n      iszero\n      tag_24\n      jumpi\n      dup4\n      dup3\n      swap1\n      0x00\n      mstore\n      keccak256(0x00, 0x20)\n      swap1\n      0x03\n      mul\n      add\n      mload(0x40)\n      dup1\n      0x60\n      add\n      0x40\n      mstore\n      swap1\n      dup2\n      0x00\n      dup3\n      add\n      dup1\n      sload\n      tag_26\n      swap1\n      tag_27\n      jump\t// in\n    tag_26:\n      dup1\n      0x1f\n      add\n      0x20\n      dup1\n      swap2\n      div\n      mul\n      0x20\n      add\n      mload(0x40)\n      swap1\n      dup2\n      add\n      0x40\n      mstore\n      dup1\n      swap3\n      swap2\n      swap1\n      dup2\n      dup2\n      mstore\n      0x20\n      add\n      dup3\n      dup1\n      sload\n      tag_28\n      swap1\n      tag_27\n      jump\t// in\n    tag_28:\n      dup1\n      iszero\n      tag_29\n      jumpi\n      dup1\n      0x1f\n      lt\n      tag_30\n      jumpi\n      0x0100\n      dup1\n      dup4\n      sload\n      div\n      mul\n      dup4\n      mstore\n      swap2\n      0x20\n      add\n      swap2\n      jump(tag_29)\n    tag_30:\n      dup3\n      add\n      swap2\n      swap1\n      0x00\n      mstore\n      keccak256(0x00, 0x20)\n      swap1\n    tag_31:\n      dup2\n      sload\n      dup2\n      mstore\n      swap1\n      0x01\n      add\n      swap1\n      0x20\n      add\n      dup1\n      dup4\n      gt\n      tag_31\n      jumpi\n      dup3\n      swap1\n      sub\n      0x1f\n      and\n      dup3\n      add\n      swap2\n    tag_29:\n      pop\n      pop\n      pop\n      pop\n      pop\n      dup2\n      mstore\n      0x20\n      add\n      0x01\n      dup3\n      add\n      sload\n      dup2\n      mstore\n      0x20\n      add\n      0x02\n      dup3\n      add\n      0x00\n      swap1\n      sload\n      swap1\n      0x0100\n      exp\n      swap1\n      div\n      0xffffffffffffffffffffffffffffffffffffffff\n      and\n      0xffffffffffffffffffffffffffffffffffffffff\n      and\n      0xffffffffffffffffffffffffffffffffffffffff\n      and\n      dup2\n      mstore\n      pop\n      pop\n      dup2\n      mstore\n      0x20\n      add\n      swap1\n      0x01\n      add\n      swap1\n      jump(tag_23)\n    tag_24:\n      pop\n      pop\n      pop\n      pop\n      swap1\n      pop\n        /* \"message-board/board.sol\":1585:1780  function getSenderMessages() external view returns (Message[] memory) {... */\n      swap1\n      jump\t// out\n        /* \"message-board/board.sol\":583:1155  function send(address _reciever, string memory _text) public {... */\n    tag_13:\n        /* \"message-board/board.sol\":688:698  msg.sender */\n      caller\n        /* \"message-board/board.sol\":675:698  _reciever != msg.sender */\n      0xffffffffffffffffffffffffffffffffffffffff\n      and\n        /* \"message-board/board.sol\":675:684  _reciever */\n      dup3\n        /* \"message-board/board.sol\":675:698  _reciever != msg.sender */\n      0xffffffffffffffffffffffffffffffffffffffff\n      and\n      sub\n        /* \"message-board/board.sol\":654:760  require(... */\n      tag_33\n      jumpi\n      mload(0x40)\n      0x08c379a000000000000000000000000000000000000000000000000000000000\n      dup2\n      mstore\n      0x04\n      add\n      tag_34\n      swap1\n      tag_35\n      jump\t// in\n    tag_34:\n      mload(0x40)\n      dup1\n      swap2\n      sub\n      swap1\n      revert\n    tag_33:\n        /* \"message-board/board.sol\":818:833  block.timestamp */\n      timestamp\n        /* \"message-board/board.sol\":799:809  msg.sender */\n      caller\n        /* \"message-board/board.sol\":776:834  MessageSent(_reciever, msg.sender, _text, block.timestamp) */\n      0xffffffffffffffffffffffffffffffffffffffff\n      and\n        /* \"message-board/board.sol\":788:797  _reciever */\n      dup4\n        /* \"message-board/board.sol\":776:834  MessageSent(_reciever, msg.sender, _text, block.timestamp) */\n      0xffffffffffffffffffffffffffffffffffffffff\n      and\n      0x7e49d574e0305424aa957cb3f69b25f92aa58d53fdee73f05e40019210a70bce\n        /* \"message-board/board.sol\":811:816  _text */\n      dup5\n        /* \"message-board/board.sol\":776:834  MessageSent(_reciever, msg.sender, _text, block.timestamp) */\n      mload(0x40)\n      tag_36\n      swap2\n      swap1\n      tag_37\n      jump\t// in\n    tag_36:\n      mload(0x40)\n      dup1\n      swap2\n      sub\n      swap1\n      log4\n        /* \"message-board/board.sol\":902:921  Message memory data */\n      0x00\n        /* \"message-board/board.sol\":924:1038  Message({... */\n      mload(0x40)\n      dup1\n      0x60\n      add\n      0x40\n      mstore\n      dup1\n        /* \"message-board/board.sol\":952:957  _text */\n      dup4\n        /* \"message-board/board.sol\":924:1038  Message({... */\n      dup2\n      mstore\n      0x20\n      add\n        /* \"message-board/board.sol\":1012:1027  block.timestamp */\n      timestamp\n        /* \"message-board/board.sol\":924:1038  Message({... */\n      dup2\n      mstore\n      0x20\n      add\n        /* \"message-board/board.sol\":979:988  _reciever */\n      dup5\n        /* \"message-board/board.sol\":924:1038  Message({... */\n      0xffffffffffffffffffffffffffffffffffffffff\n      and\n      dup2\n      mstore\n      pop\n        /* \"message-board/board.sol\":902:1038  Message memory data = Message({... */\n      swap1\n      pop\n        /* \"message-board/board.sol\":1118:1126  messages */\n      0x00\n        /* \"message-board/board.sol\":1118:1137  messages[_reciever] */\n      dup1\n        /* \"message-board/board.sol\":1127:1136  _reciever */\n      dup5\n        /* \"message-board/board.sol\":1118:1137  messages[_reciever] */\n      0xffffffffffffffffffffffffffffffffffffffff\n      and\n      0xffffffffffffffffffffffffffffffffffffffff\n      and\n      dup2\n      mstore\n      0x20\n      add\n      swap1\n      dup2\n      mstore\n      0x20\n      add\n      0x00\n      keccak256\n        /* \"message-board/board.sol\":1143:1147  data */\n      dup2\n        /* \"message-board/board.sol\":1118:1148  messages[_reciever].push(data) */\n      swap1\n      dup1\n      0x01\n      dup2\n      sload\n      add\n      dup1\n      dup3\n      sstore\n      dup1\n      swap2\n      pop\n      pop\n      0x01\n      swap1\n      sub\n      swap1\n      0x00\n      mstore\n      keccak256(0x00, 0x20)\n      swap1\n      0x03\n      mul\n      add\n      0x00\n      swap1\n      swap2\n      swap1\n      swap2\n      swap1\n      swap2\n      pop\n      0x00\n      dup3\n      add\n      mload\n      dup2\n      0x00\n      add\n      swap1\n      dup2\n      tag_39\n      swap2\n      swap1\n      tag_40\n      jump\t// in\n    tag_39:\n      pop\n      0x20\n      dup3\n      add\n      mload\n      dup2\n      0x01\n      add\n      sstore\n      0x40\n      dup3\n      add\n      mload\n      dup2\n      0x02\n      add\n      exp(0x0100, 0x00)\n      dup2\n      sload\n      dup2\n      0xffffffffffffffffffffffffffffffffffffffff\n      mul\n      not\n      and\n      swap1\n      dup4\n      0xffffffffffffffffffffffffffffffffffffffff\n      and\n      mul\n      or\n      swap1\n      sstore\n      pop\n      pop\n      pop\n        /* \"message-board/board.sol\":644:1155  {... */\n      pop\n        /* \"message-board/board.sol\":583:1155  function send(address _reciever, string memory _text) public {... */\n      pop\n      pop\n      jump\t// out\n        /* \"message-board/board.sol\":1184:1534  function getMessages(address _reciever)... */\n    tag_17:\n        /* \"message-board/board.sol\":1271:1287  Message[] memory */\n      0x60\n        /* \"message-board/board.sol\":1337:1347  msg.sender */\n      caller\n        /* \"message-board/board.sol\":1324:1347  _reciever != msg.sender */\n      0xffffffffffffffffffffffffffffffffffffffff\n      and\n        /* \"message-board/board.sol\":1324:1333  _reciever */\n      dup3\n        /* \"message-board/board.sol\":1324:1347  _reciever != msg.sender */\n      0xffffffffffffffffffffffffffffffffffffffff\n      and\n      sub\n        /* \"message-board/board.sol\":1303:1411  require(... */\n      tag_42\n      jumpi\n      mload(0x40)\n      0x08c379a000000000000000000000000000000000000000000000000000000000\n      dup2\n      mstore\n      0x04\n      add\n      tag_43\n      swap1\n      tag_44\n      jump\t// in\n    tag_43:\n      mload(0x40)\n      dup1\n      swap2\n      sub\n      swap1\n      revert\n    tag_42:\n        /* \"message-board/board.sol\":1458:1459  0 */\n      0x00\n        /* \"message-board/board.sol\":1429:1437  messages */\n      dup1\n        /* \"message-board/board.sol\":1429:1448  messages[_reciever] */\n      0x00\n        /* \"message-board/board.sol\":1438:1447  _reciever */\n      dup5\n        /* \"message-board/board.sol\":1429:1448  messages[_reciever] */\n      0xffffffffffffffffffffffffffffffffffffffff\n      and\n      0xffffffffffffffffffffffffffffffffffffffff\n      and\n      dup2\n      mstore\n      0x20\n      add\n      swap1\n      dup2\n      mstore\n      0x20\n      add\n      0x00\n      keccak256\n        /* \"message-board/board.sol\":1429:1455  messages[_reciever].length */\n      dup1\n      sload\n      swap1\n      pop\n        /* \"message-board/board.sol\":1429:1459  messages[_reciever].length > 0 */\n      gt\n        /* \"message-board/board.sol\":1421:1490  require(messages[_reciever].length > 0, \"user does not have message\") */\n      tag_45\n      jumpi\n      mload(0x40)\n      0x08c379a000000000000000000000000000000000000000000000000000000000\n      dup2\n      mstore\n      0x04\n      add\n      tag_46\n      swap1\n      tag_22\n      jump\t// in\n    tag_46:\n      mload(0x40)\n      dup1\n      swap2\n      sub\n      swap1\n      revert\n    tag_45:\n        /* \"message-board/board.sol\":1508:1516  messages */\n      0x00\n        /* \"message-board/board.sol\":1508:1527  messages[_reciever] */\n      dup1\n        /* \"message-board/board.sol\":1517:1526  _reciever */\n      dup4\n        /* \"message-board/board.sol\":1508:1527  messages[_reciever] */\n      0xffffffffffffffffffffffffffffffffffffffff\n      and\n      0xffffffffffffffffffffffffffffffffffffffff\n      and\n      dup2\n      mstore\n      0x20\n      add\n      swap1\n      dup2\n      mstore\n      0x20\n      add\n      0x00\n      keccak256\n        /* \"message-board/board.sol\":1501:1527  return messages[_reciever] */\n      dup1\n      sload\n      dup1\n      0x20\n      mul\n      0x20\n      add\n      mload(0x40)\n      swap1\n      dup2\n      add\n      0x40\n      mstore\n      dup1\n      swap3\n      swap2\n      swap1\n      dup2\n      dup2\n      mstore\n      0x20\n      add\n      0x00\n      swap1\n    tag_47:\n      dup3\n      dup3\n      lt\n      iszero\n      tag_48\n      jumpi\n      dup4\n      dup3\n      swap1\n      0x00\n      mstore\n      keccak256(0x00, 0x20)\n      swap1\n      0x03\n      mul\n      add\n      mload(0x40)\n      dup1\n      0x60\n      add\n      0x40\n      mstore\n      swap1\n      dup2\n      0x00\n      dup3\n      add\n      dup1\n      sload\n      tag_50\n      swap1\n      tag_27\n      jump\t// in\n    tag_50:\n      dup1\n      0x1f\n      add\n      0x20\n      dup1\n      swap2\n      div\n      mul\n      0x20\n      add\n      mload(0x40)\n      swap1\n      dup2\n      add\n      0x40\n      mstore\n      dup1\n      swap3\n      swap2\n      swap1\n      dup2\n      dup2\n      mstore\n      0x20\n      add\n      dup3\n      dup1\n      sload\n      tag_51\n      swap1\n      tag_27\n      jump\t// in\n    tag_51:\n      dup1\n      iszero\n      tag_52\n      jumpi\n      dup1\n      0x1f\n      lt\n      tag_53\n      jumpi\n      0x0100\n      dup1\n      dup4\n      sload\n      div\n      mul\n      dup4\n      mstore\n      swap2\n      0x20\n      add\n      swap2\n      jump(tag_52)\n    tag_53:\n      dup3\n      add\n      swap2\n      swap1\n      0x00\n      mstore\n      keccak256(0x00, 0x20)\n      swap1\n    tag_54:\n      dup2\n      sload\n      dup2\n      mstore\n      swap1\n      0x01\n      add\n      swap1\n      0x20\n      add\n      dup1\n      dup4\n      gt\n      tag_54\n      jumpi\n      dup3\n      swap1\n      sub\n      0x1f\n      and\n      dup3\n      add\n      swap2\n    tag_52:\n      pop\n      pop\n      pop\n      pop\n      pop\n      dup2\n      mstore\n      0x20\n      add\n      0x01\n      dup3\n      add\n      sload\n      dup2\n      mstore\n      0x20\n      add\n      0x02\n      dup3\n      add\n      0x00\n      swap1\n      sload\n      swap1\n      0x0100\n      exp\n      swap1\n      div\n      0xffffffffffffffffffffffffffffffffffffffff\n      and\n      0xffffffffffffffffffffffffffffffffffffffff\n      and\n      0xffffffffffffffffffffffffffffffffffffffff\n      and\n      dup2\n      mstore\n      pop\n      pop\n      dup2\n      mstore\n      0x20\n      add\n      swap1\n      0x01\n      add\n      swap1\n      jump(tag_47)\n    tag_48:\n      pop\n      pop\n      pop\n      pop\n      swap1\n      pop\n        /* \"message-board/board.sol\":1184:1534  function getMessages(address _reciever)... */\n      swap2\n      swap1\n      pop\n      jump\t// out\n        /* \"#utility.yul\":7:143   */\n    tag_55:\n        /* \"#utility.yul\":96:102   */\n      0x00\n        /* \"#utility.yul\":130:135   */\n      dup2\n        /* \"#utility.yul\":124:136   */\n      mload\n        /* \"#utility.yul\":114:136   */\n      swap1\n      pop\n        /* \"#utility.yul\":7:143   */\n      swap2\n      swap1\n      pop\n      jump\t// out\n        /* \"#utility.yul\":149:355   */\n    tag_56:\n        /* \"#utility.yul\":270:281   */\n      0x00\n        /* \"#utility.yul\":304:310   */\n      dup3\n        /* \"#utility.yul\":299:302   */\n      dup3\n        /* \"#utility.yul\":292:311   */\n      mstore\n        /* \"#utility.yul\":344:348   */\n      0x20\n        /* \"#utility.yul\":339:342   */\n      dup3\n        /* \"#utility.yul\":335:349   */\n      add\n        /* \"#utility.yul\":320:349   */\n      swap1\n      pop\n        /* \"#utility.yul\":149:355   */\n      swap3\n      swap2\n      pop\n      pop\n      jump\t// out\n        /* \"#utility.yul\":361:515   */\n    tag_57:\n        /* \"#utility.yul\":450:454   */\n      0x00\n        /* \"#utility.yul\":473:476   */\n      dup2\n        /* \"#utility.yul\":465:476   */\n      swap1\n      pop\n        /* \"#utility.yul\":503:507   */\n      0x20\n        /* \"#utility.yul\":498:501   */\n      dup3\n        /* \"#utility.yul\":494:508   */\n      add\n        /* \"#utility.yul\":486:508   */\n      swap1\n      pop\n        /* \"#utility.yul\":361:515   */\n      swap2\n      swap1\n      pop\n      jump\t// out\n        /* \"#utility.yul\":521:620   */\n    tag_58:\n        /* \"#utility.yul\":573:579   */\n      0x00\n        /* \"#utility.yul\":607:612   */\n      dup2\n        /* \"#utility.yul\":601:613   */\n      mload\n        /* \"#utility.yul\":591:613   */\n      swap1\n      pop\n        /* \"#utility.yul\":521:620   */\n      swap2\n      swap1\n      pop\n      jump\t// out\n        /* \"#utility.yul\":626:785   */\n    tag_59:\n        /* \"#utility.yul\":700:711   */\n      0x00\n        /* \"#utility.yul\":734:740   */\n      dup3\n        /* \"#utility.yul\":729:732   */\n      dup3\n        /* \"#utility.yul\":722:741   */\n      mstore\n        /* \"#utility.yul\":774:778   */\n      0x20\n        /* \"#utility.yul\":769:772   */\n      dup3\n        /* \"#utility.yul\":765:779   */\n      add\n        /* \"#utility.yul\":750:779   */\n      swap1\n      pop\n        /* \"#utility.yul\":626:785   */\n      swap3\n      swap2\n      pop\n      pop\n      jump\t// out\n        /* \"#utility.yul\":791:930   */\n    tag_60:\n        /* \"#utility.yul\":880:886   */\n      dup3\n        /* \"#utility.yul\":875:878   */\n      dup2\n        /* \"#utility.yul\":870:873   */\n      dup4\n        /* \"#utility.yul\":864:887   */\n      mcopy\n        /* \"#utility.yul\":921:922   */\n      0x00\n        /* \"#utility.yul\":912:918   */\n      dup4\n        /* \"#utility.yul\":907:910   */\n      dup4\n        /* \"#utility.yul\":903:919   */\n      add\n        /* \"#utility.yul\":896:923   */\n      mstore\n        /* \"#utility.yul\":791:930   */\n      pop\n      pop\n      pop\n      jump\t// out\n        /* \"#utility.yul\":936:1038   */\n    tag_61:\n        /* \"#utility.yul\":977:983   */\n      0x00\n        /* \"#utility.yul\":1028:1030   */\n      0x1f\n        /* \"#utility.yul\":1024:1031   */\n      not\n        /* \"#utility.yul\":1019:1021   */\n      0x1f\n        /* \"#utility.yul\":1012:1017   */\n      dup4\n        /* \"#utility.yul\":1008:1022   */\n      add\n        /* \"#utility.yul\":1004:1032   */\n      and\n        /* \"#utility.yul\":994:1032   */\n      swap1\n      pop\n        /* \"#utility.yul\":936:1038   */\n      swap2\n      swap1\n      pop\n      jump\t// out\n        /* \"#utility.yul\":1044:1401   */\n    tag_62:\n        /* \"#utility.yul\":1122:1125   */\n      0x00\n        /* \"#utility.yul\":1150:1189   */\n      tag_119\n        /* \"#utility.yul\":1183:1188   */\n      dup3\n        /* \"#utility.yul\":1150:1189   */\n      tag_58\n      jump\t// in\n    tag_119:\n        /* \"#utility.yul\":1205:1266   */\n      tag_120\n        /* \"#utility.yul\":1259:1265   */\n      dup2\n        /* \"#utility.yul\":1254:1257   */\n      dup6\n        /* \"#utility.yul\":1205:1266   */\n      tag_59\n      jump\t// in\n    tag_120:\n        /* \"#utility.yul\":1198:1266   */\n      swap4\n      pop\n        /* \"#utility.yul\":1275:1340   */\n      tag_121\n        /* \"#utility.yul\":1333:1339   */\n      dup2\n        /* \"#utility.yul\":1328:1331   */\n      dup6\n        /* \"#utility.yul\":1321:1325   */\n      0x20\n        /* \"#utility.yul\":1314:1319   */\n      dup7\n        /* \"#utility.yul\":1310:1326   */\n      add\n        /* \"#utility.yul\":1275:1340   */\n      tag_60\n      jump\t// in\n    tag_121:\n        /* \"#utility.yul\":1365:1394   */\n      tag_122\n        /* \"#utility.yul\":1387:1393   */\n      dup2\n        /* \"#utility.yul\":1365:1394   */\n      tag_61\n      jump\t// in\n    tag_122:\n        /* \"#utility.yul\":1360:1363   */\n      dup5\n        /* \"#utility.yul\":1356:1395   */\n      add\n        /* \"#utility.yul\":1349:1395   */\n      swap2\n      pop\n        /* \"#utility.yul\":1126:1401   */\n      pop\n        /* \"#utility.yul\":1044:1401   */\n      swap3\n      swap2\n      pop\n      pop\n      jump\t// out\n        /* \"#utility.yul\":1407:1484   */\n    tag_63:\n        /* \"#utility.yul\":1444:1451   */\n      0x00\n        /* \"#utility.yul\":1473:1478   */\n      dup2\n        /* \"#utility.yul\":1462:1478   */\n      swap1\n      pop\n        /* \"#utility.yul\":1407:1484   */\n      swap2\n      swap1\n      pop\n      jump\t// out\n        /* \"#utility.yul\":1490:1598   */\n    tag_64:\n        /* \"#utility.yul\":1567:1591   */\n      tag_125\n        /* \"#utility.yul\":1585:1590   */\n      dup2\n        /* \"#utility.yul\":1567:1591   */\n      tag_63\n      jump\t// in\n    tag_125:\n        /* \"#utility.yul\":1562:1565   */\n      dup3\n        /* \"#utility.yul\":1555:1592   */\n      mstore\n        /* \"#utility.yul\":1490:1598   */\n      pop\n      pop\n      jump\t// out\n        /* \"#utility.yul\":1604:1730   */\n    tag_65:\n        /* \"#utility.yul\":1641:1648   */\n      0x00\n        /* \"#utility.yul\":1681:1723   */\n      0xffffffffffffffffffffffffffffffffffffffff\n        /* \"#utility.yul\":1674:1679   */\n      dup3\n        /* \"#utility.yul\":1670:1724   */\n      and\n        /* \"#utility.yul\":1659:1724   */\n      swap1\n      pop\n        /* \"#utility.yul\":1604:1730   */\n      swap2\n      swap1\n      pop\n      jump\t// out\n        /* \"#utility.yul\":1736:1832   */\n    tag_66:\n        /* \"#utility.yul\":1773:1780   */\n      0x00\n        /* \"#utility.yul\":1802:1826   */\n      tag_128\n        /* \"#utility.yul\":1820:1825   */\n      dup3\n        /* \"#utility.yul\":1802:1826   */\n      tag_65\n      jump\t// in\n    tag_128:\n        /* \"#utility.yul\":1791:1826   */\n      swap1\n      pop\n        /* \"#utility.yul\":1736:1832   */\n      swap2\n      swap1\n      pop\n      jump\t// out\n        /* \"#utility.yul\":1838:1946   */\n    tag_67:\n        /* \"#utility.yul\":1915:1939   */\n      tag_130\n        /* \"#utility.yul\":1933:1938   */\n      dup2\n        /* \"#utility.yul\":1915:1939   */\n      tag_66\n      jump\t// in\n    tag_130:\n        /* \"#utility.yul\":1910:1913   */\n      dup3\n        /* \"#utility.yul\":1903:1940   */\n      mstore\n        /* \"#utility.yul\":1838:1946   */\n      pop\n      pop\n      jump\t// out\n        /* \"#utility.yul\":2018:2788   */\n    tag_68:\n        /* \"#utility.yul\":2121:2124   */\n      0x00\n        /* \"#utility.yul\":2157:2161   */\n      0x60\n        /* \"#utility.yul\":2152:2155   */\n      dup4\n        /* \"#utility.yul\":2148:2162   */\n      add\n        /* \"#utility.yul\":2244:2248   */\n      0x00\n        /* \"#utility.yul\":2237:2242   */\n      dup4\n        /* \"#utility.yul\":2233:2249   */\n      add\n        /* \"#utility.yul\":2227:2250   */\n      mload\n        /* \"#utility.yul\":2297:2300   */\n      dup5\n        /* \"#utility.yul\":2291:2295   */\n      dup3\n        /* \"#utility.yul\":2287:2301   */\n      sub\n        /* \"#utility.yul\":2280:2284   */\n      0x00\n        /* \"#utility.yul\":2275:2278   */\n      dup7\n        /* \"#utility.yul\":2271:2285   */\n      add\n        /* \"#utility.yul\":2264:2302   */\n      mstore\n        /* \"#utility.yul\":2323:2396   */\n      tag_132\n        /* \"#utility.yul\":2391:2395   */\n      dup3\n        /* \"#utility.yul\":2377:2389   */\n      dup3\n        /* \"#utility.yul\":2323:2396   */\n      tag_62\n      jump\t// in\n    tag_132:\n        /* \"#utility.yul\":2315:2396   */\n      swap2\n      pop\n        /* \"#utility.yul\":2172:2407   */\n      pop\n        /* \"#utility.yul\":2493:2497   */\n      0x20\n        /* \"#utility.yul\":2486:2491   */\n      dup4\n        /* \"#utility.yul\":2482:2498   */\n      add\n        /* \"#utility.yul\":2476:2499   */\n      mload\n        /* \"#utility.yul\":2512:2575   */\n      tag_133\n        /* \"#utility.yul\":2569:2573   */\n      0x20\n        /* \"#utility.yul\":2564:2567   */\n      dup7\n        /* \"#utility.yul\":2560:2574   */\n      add\n        /* \"#utility.yul\":2546:2558   */\n      dup3\n        /* \"#utility.yul\":2512:2575   */\n      tag_64\n      jump\t// in\n    tag_133:\n        /* \"#utility.yul\":2417:2585   */\n      pop\n        /* \"#utility.yul\":2669:2673   */\n      0x40\n        /* \"#utility.yul\":2662:2667   */\n      dup4\n        /* \"#utility.yul\":2658:2674   */\n      add\n        /* \"#utility.yul\":2652:2675   */\n      mload\n        /* \"#utility.yul\":2688:2751   */\n      tag_134\n        /* \"#utility.yul\":2745:2749   */\n      0x40\n        /* \"#utility.yul\":2740:2743   */\n      dup7\n        /* \"#utility.yul\":2736:2750   */\n      add\n        /* \"#utility.yul\":2722:2734   */\n      dup3\n        /* \"#utility.yul\":2688:2751   */\n      tag_67\n      jump\t// in\n    tag_134:\n        /* \"#utility.yul\":2595:2761   */\n      pop\n        /* \"#utility.yul\":2778:2782   */\n      dup1\n        /* \"#utility.yul\":2771:2782   */\n      swap2\n      pop\n        /* \"#utility.yul\":2126:2788   */\n      pop\n        /* \"#utility.yul\":2018:2788   */\n      swap3\n      swap2\n      pop\n      pop\n      jump\t// out\n        /* \"#utility.yul\":2794:3038   */\n    tag_69:\n        /* \"#utility.yul\":2907:2917   */\n      0x00\n        /* \"#utility.yul\":2942:3032   */\n      tag_136\n        /* \"#utility.yul\":3028:3031   */\n      dup4\n        /* \"#utility.yul\":3020:3026   */\n      dup4\n        /* \"#utility.yul\":2942:3032   */\n      tag_68\n      jump\t// in\n    tag_136:\n        /* \"#utility.yul\":2928:3032   */\n      swap1\n      pop\n        /* \"#utility.yul\":2794:3038   */\n      swap3\n      swap2\n      pop\n      pop\n      jump\t// out\n        /* \"#utility.yul\":3044:3179   */\n    tag_70:\n        /* \"#utility.yul\":3136:3140   */\n      0x00\n        /* \"#utility.yul\":3168:3172   */\n      0x20\n        /* \"#utility.yul\":3163:3166   */\n      dup3\n        /* \"#utility.yul\":3159:3173   */\n      add\n        /* \"#utility.yul\":3151:3173   */\n      swap1\n      pop\n        /* \"#utility.yul\":3044:3179   */\n      swap2\n      swap1\n      pop\n      jump\t// out\n        /* \"#utility.yul\":3255:4342   */\n    tag_71:\n        /* \"#utility.yul\":3418:3421   */\n      0x00\n        /* \"#utility.yul\":3447:3523   */\n      tag_139\n        /* \"#utility.yul\":3517:3522   */\n      dup3\n        /* \"#utility.yul\":3447:3523   */\n      tag_55\n      jump\t// in\n    tag_139:\n        /* \"#utility.yul\":3539:3647   */\n      tag_140\n        /* \"#utility.yul\":3640:3646   */\n      dup2\n        /* \"#utility.yul\":3635:3638   */\n      dup6\n        /* \"#utility.yul\":3539:3647   */\n      tag_56\n      jump\t// in\n    tag_140:\n        /* \"#utility.yul\":3532:3647   */\n      swap4\n      pop\n        /* \"#utility.yul\":3673:3676   */\n      dup4\n        /* \"#utility.yul\":3718:3722   */\n      0x20\n        /* \"#utility.yul\":3710:3716   */\n      dup3\n        /* \"#utility.yul\":3706:3723   */\n      mul\n        /* \"#utility.yul\":3701:3704   */\n      dup6\n        /* \"#utility.yul\":3697:3724   */\n      add\n        /* \"#utility.yul\":3748:3826   */\n      tag_141\n        /* \"#utility.yul\":3820:3825   */\n      dup6\n        /* \"#utility.yul\":3748:3826   */\n      tag_57\n      jump\t// in\n    tag_141:\n        /* \"#utility.yul\":3849:3856   */\n      dup1\n        /* \"#utility.yul\":3880:3881   */\n      0x00\n        /* \"#utility.yul\":3865:4297   */\n    tag_142:\n        /* \"#utility.yul\":3890:3896   */\n      dup6\n        /* \"#utility.yul\":3887:3888   */\n      dup2\n        /* \"#utility.yul\":3884:3897   */\n      lt\n        /* \"#utility.yul\":3865:4297   */\n      iszero\n      tag_144\n      jumpi\n        /* \"#utility.yul\":3961:3970   */\n      dup5\n        /* \"#utility.yul\":3955:3959   */\n      dup5\n        /* \"#utility.yul\":3951:3971   */\n      sub\n        /* \"#utility.yul\":3946:3949   */\n      dup10\n        /* \"#utility.yul\":3939:3972   */\n      mstore\n        /* \"#utility.yul\":4012:4018   */\n      dup2\n        /* \"#utility.yul\":4006:4019   */\n      mload\n        /* \"#utility.yul\":4040:4148   */\n      tag_145\n        /* \"#utility.yul\":4143:4147   */\n      dup6\n        /* \"#utility.yul\":4128:4141   */\n      dup3\n        /* \"#utility.yul\":4040:4148   */\n      tag_69\n      jump\t// in\n    tag_145:\n        /* \"#utility.yul\":4032:4148   */\n      swap5\n      pop\n        /* \"#utility.yul\":4171:4253   */\n      tag_146\n        /* \"#utility.yul\":4246:4252   */\n      dup4\n        /* \"#utility.yul\":4171:4253   */\n      tag_70\n      jump\t// in\n    tag_146:\n        /* \"#utility.yul\":4161:4253   */\n      swap3\n      pop\n        /* \"#utility.yul\":4282:4286   */\n      0x20\n        /* \"#utility.yul\":4277:4280   */\n      dup11\n        /* \"#utility.yul\":4273:4287   */\n      add\n        /* \"#utility.yul\":4266:4287   */\n      swap10\n      pop\n        /* \"#utility.yul\":3925:4297   */\n      pop\n        /* \"#utility.yul\":3912:3913   */\n      0x01\n        /* \"#utility.yul\":3909:3910   */\n      dup2\n        /* \"#utility.yul\":3905:3914   */\n      add\n        /* \"#utility.yul\":3900:3914   */\n      swap1\n      pop\n        /* \"#utility.yul\":3865:4297   */\n      jump(tag_142)\n    tag_144:\n        /* \"#utility.yul\":3869:3883   */\n      pop\n        /* \"#utility.yul\":4313:4317   */\n      dup3\n        /* \"#utility.yul\":4306:4317   */\n      swap8\n      pop\n        /* \"#utility.yul\":4333:4336   */\n      dup8\n        /* \"#utility.yul\":4326:4336   */\n      swap6\n      pop\n        /* \"#utility.yul\":3423:4342   */\n      pop\n      pop\n      pop\n      pop\n      pop\n        /* \"#utility.yul\":3255:4342   */\n      swap3\n      swap2\n      pop\n      pop\n      jump\t// out\n        /* \"#utility.yul\":4348:4809   */\n    tag_9:\n        /* \"#utility.yul\":4535:4539   */\n      0x00\n        /* \"#utility.yul\":4573:4575   */\n      0x20\n        /* \"#utility.yul\":4562:4571   */\n      dup3\n        /* \"#utility.yul\":4558:4576   */\n      add\n        /* \"#utility.yul\":4550:4576   */\n      swap1\n      pop\n        /* \"#utility.yul\":4622:4631   */\n      dup2\n        /* \"#utility.yul\":4616:4620   */\n      dup2\n        /* \"#utility.yul\":4612:4632   */\n      sub\n        /* \"#utility.yul\":4608:4609   */\n      0x00\n        /* \"#utility.yul\":4597:4606   */\n      dup4\n        /* \"#utility.yul\":4593:4610   */\n      add\n        /* \"#utility.yul\":4586:4633   */\n      mstore\n        /* \"#utility.yul\":4650:4802   */\n      tag_148\n        /* \"#utility.yul\":4797:4801   */\n      dup2\n        /* \"#utility.yul\":4788:4794   */\n      dup5\n        /* \"#utility.yul\":4650:4802   */\n      tag_71\n      jump\t// in\n    tag_148:\n        /* \"#utility.yul\":4642:4802   */\n      swap1\n      pop\n        /* \"#utility.yul\":4348:4809   */\n      swap3\n      swap2\n      pop\n      pop\n      jump\t// out\n        /* \"#utility.yul\":4815:4890   */\n    tag_72:\n        /* \"#utility.yul\":4848:4854   */\n      0x00\n        /* \"#utility.yul\":4881:4883   */\n      0x40\n        /* \"#utility.yul\":4875:4884   */\n      mload\n        /* \"#utility.yul\":4865:4884   */\n      swap1\n      pop\n        /* \"#utility.yul\":4815:4890   */\n      swap1\n      jump\t// out\n        /* \"#utility.yul\":4896:5013   */\n    tag_73:\n        /* \"#utility.yul\":5005:5006   */\n      0x00\n        /* \"#utility.yul\":5002:5003   */\n      dup1\n        /* \"#utility.yul\":4995:5007   */\n      revert\n        /* \"#utility.yul\":5019:5136   */\n    tag_74:\n        /* \"#utility.yul\":5128:5129   */\n      0x00\n        /* \"#utility.yul\":5125:5126   */\n      dup1\n        /* \"#utility.yul\":5118:5130   */\n      revert\n        /* \"#utility.yul\":5142:5264   */\n    tag_75:\n        /* \"#utility.yul\":5215:5239   */\n      tag_153\n        /* \"#utility.yul\":5233:5238   */\n      dup2\n        /* \"#utility.yul\":5215:5239   */\n      tag_66\n      jump\t// in\n    tag_153:\n        /* \"#utility.yul\":5208:5213   */\n      dup2\n        /* \"#utility.yul\":5205:5240   */\n      eq\n        /* \"#utility.yul\":5195:5258   */\n      tag_154\n      jumpi\n        /* \"#utility.yul\":5254:5255   */\n      0x00\n        /* \"#utility.yul\":5251:5252   */\n      dup1\n        /* \"#utility.yul\":5244:5256   */\n      revert\n        /* \"#utility.yul\":5195:5258   */\n    tag_154:\n        /* \"#utility.yul\":5142:5264   */\n      pop\n      jump\t// out\n        /* \"#utility.yul\":5270:5409   */\n    tag_76:\n        /* \"#utility.yul\":5316:5321   */\n      0x00\n        /* \"#utility.yul\":5354:5360   */\n      dup2\n        /* \"#utility.yul\":5341:5361   */\n      calldataload\n        /* \"#utility.yul\":5332:5361   */\n      swap1\n      pop\n        /* \"#utility.yul\":5370:5403   */\n      tag_156\n        /* \"#utility.yul\":5397:5402   */\n      dup2\n        /* \"#utility.yul\":5370:5403   */\n      tag_75\n      jump\t// in\n    tag_156:\n        /* \"#utility.yul\":5270:5409   */\n      swap3\n      swap2\n      pop\n      pop\n      jump\t// out\n        /* \"#utility.yul\":5415:5532   */\n    tag_77:\n        /* \"#utility.yul\":5524:5525   */\n      0x00\n        /* \"#utility.yul\":5521:5522   */\n      dup1\n        /* \"#utility.yul\":5514:5526   */\n      revert\n        /* \"#utility.yul\":5538:5655   */\n    tag_78:\n        /* \"#utility.yul\":5647:5648   */\n      0x00\n        /* \"#utility.yul\":5644:5645   */\n      dup1\n        /* \"#utility.yul\":5637:5649   */\n      revert\n        /* \"#utility.yul\":5661:5841   */\n    tag_79:\n        /* \"#utility.yul\":5709:5786   */\n      0x4e487b7100000000000000000000000000000000000000000000000000000000\n        /* \"#utility.yul\":5706:5707   */\n      0x00\n        /* \"#utility.yul\":5699:5787   */\n      mstore\n        /* \"#utility.yul\":5806:5810   */\n      0x41\n        /* \"#utility.yul\":5803:5804   */\n      0x04\n        /* \"#utility.yul\":5796:5811   */\n      mstore\n        /* \"#utility.yul\":5830:5834   */\n      0x24\n        /* \"#utility.yul\":5827:5828   */\n      0x00\n        /* \"#utility.yul\":5820:5835   */\n      revert\n        /* \"#utility.yul\":5847:6128   */\n    tag_80:\n        /* \"#utility.yul\":5930:5957   */\n      tag_161\n        /* \"#utility.yul\":5952:5956   */\n      dup3\n        /* \"#utility.yul\":5930:5957   */\n      tag_61\n      jump\t// in\n    tag_161:\n        /* \"#utility.yul\":5922:5928   */\n      dup2\n        /* \"#utility.yul\":5918:5958   */\n      add\n        /* \"#utility.yul\":6060:6066   */\n      dup2\n        /* \"#utility.yul\":6048:6058   */\n      dup2\n        /* \"#utility.yul\":6045:6067   */\n      lt\n        /* \"#utility.yul\":6024:6042   */\n      0xffffffffffffffff\n        /* \"#utility.yul\":6012:6022   */\n      dup3\n        /* \"#utility.yul\":6009:6043   */\n      gt\n        /* \"#utility.yul\":6006:6068   */\n      or\n        /* \"#utility.yul\":6003:6091   */\n      iszero\n      tag_162\n      jumpi\n        /* \"#utility.yul\":6071:6089   */\n      tag_163\n      tag_79\n      jump\t// in\n    tag_163:\n        /* \"#utility.yul\":6003:6091   */\n    tag_162:\n        /* \"#utility.yul\":6111:6121   */\n      dup1\n        /* \"#utility.yul\":6107:6109   */\n      0x40\n        /* \"#utility.yul\":6100:6122   */\n      mstore\n        /* \"#utility.yul\":5890:6128   */\n      pop\n        /* \"#utility.yul\":5847:6128   */\n      pop\n      pop\n      jump\t// out\n        /* \"#utility.yul\":6134:6263   */\n    tag_81:\n        /* \"#utility.yul\":6168:6174   */\n      0x00\n        /* \"#utility.yul\":6195:6215   */\n      tag_165\n      tag_72\n      jump\t// in\n    tag_165:\n        /* \"#utility.yul\":6185:6215   */\n      swap1\n      pop\n        /* \"#utility.yul\":6224:6257   */\n      tag_166\n        /* \"#utility.yul\":6252:6256   */\n      dup3\n        /* \"#utility.yul\":6244:6250   */\n      dup3\n        /* \"#utility.yul\":6224:6257   */\n      tag_80\n      jump\t// in\n    tag_166:\n        /* \"#utility.yul\":6134:6263   */\n      swap2\n      swap1\n      pop\n      jump\t// out\n        /* \"#utility.yul\":6269:6577   */\n    tag_82:\n        /* \"#utility.yul\":6331:6335   */\n      0x00\n        /* \"#utility.yul\":6421:6439   */\n      0xffffffffffffffff\n        /* \"#utility.yul\":6413:6419   */\n      dup3\n        /* \"#utility.yul\":6410:6440   */\n      gt\n        /* \"#utility.yul\":6407:6463   */\n      iszero\n      tag_168\n      jumpi\n        /* \"#utility.yul\":6443:6461   */\n      tag_169\n      tag_79\n      jump\t// in\n    tag_169:\n        /* \"#utility.yul\":6407:6463   */\n    tag_168:\n        /* \"#utility.yul\":6481:6510   */\n      tag_170\n        /* \"#utility.yul\":6503:6509   */\n      dup3\n        /* \"#utility.yul\":6481:6510   */\n      tag_61\n      jump\t// in\n    tag_170:\n        /* \"#utility.yul\":6473:6510   */\n      swap1\n      pop\n        /* \"#utility.yul\":6565:6569   */\n      0x20\n        /* \"#utility.yul\":6559:6563   */\n      dup2\n        /* \"#utility.yul\":6555:6570   */\n      add\n        /* \"#utility.yul\":6547:6570   */\n      swap1\n      pop\n        /* \"#utility.yul\":6269:6577   */\n      swap2\n      swap1\n      pop\n      jump\t// out\n        /* \"#utility.yul\":6583:6731   */\n    tag_83:\n        /* \"#utility.yul\":6681:6687   */\n      dup3\n        /* \"#utility.yul\":6676:6679   */\n      dup2\n        /* \"#utility.yul\":6671:6674   */\n      dup4\n        /* \"#utility.yul\":6658:6688   */\n      calldatacopy\n        /* \"#utility.yul\":6722:6723   */\n      0x00\n        /* \"#utility.yul\":6713:6719   */\n      dup4\n        /* \"#utility.yul\":6708:6711   */\n      dup4\n        /* \"#utility.yul\":6704:6720   */\n      add\n        /* \"#utility.yul\":6697:6724   */\n      mstore\n        /* \"#utility.yul\":6583:6731   */\n      pop\n      pop\n      pop\n      jump\t// out\n        /* \"#utility.yul\":6737:7162   */\n    tag_84:\n        /* \"#utility.yul\":6815:6820   */\n      0x00\n        /* \"#utility.yul\":6840:6906   */\n      tag_173\n        /* \"#utility.yul\":6856:6905   */\n      tag_174\n        /* \"#utility.yul\":6898:6904   */\n      dup5\n        /* \"#utility.yul\":6856:6905   */\n      tag_82\n      jump\t// in\n    tag_174:\n        /* \"#utility.yul\":6840:6906   */\n      tag_81\n      jump\t// in\n    tag_173:\n        /* \"#utility.yul\":6831:6906   */\n      swap1\n      pop\n        /* \"#utility.yul\":6929:6935   */\n      dup3\n        /* \"#utility.yul\":6922:6927   */\n      dup2\n        /* \"#utility.yul\":6915:6936   */\n      mstore\n        /* \"#utility.yul\":6967:6971   */\n      0x20\n        /* \"#utility.yul\":6960:6965   */\n      dup2\n        /* \"#utility.yul\":6956:6972   */\n      add\n        /* \"#utility.yul\":7005:7008   */\n      dup5\n        /* \"#utility.yul\":6996:7002   */\n      dup5\n        /* \"#utility.yul\":6991:6994   */\n      dup5\n        /* \"#utility.yul\":6987:7003   */\n      add\n        /* \"#utility.yul\":6984:7009   */\n      gt\n        /* \"#utility.yul\":6981:7093   */\n      iszero\n      tag_175\n      jumpi\n        /* \"#utility.yul\":7012:7091   */\n      tag_176\n      tag_78\n      jump\t// in\n    tag_176:\n        /* \"#utility.yul\":6981:7093   */\n    tag_175:\n        /* \"#utility.yul\":7102:7156   */\n      tag_177\n        /* \"#utility.yul\":7149:7155   */\n      dup5\n        /* \"#utility.yul\":7144:7147   */\n      dup3\n        /* \"#utility.yul\":7139:7142   */\n      dup6\n        /* \"#utility.yul\":7102:7156   */\n      tag_83\n      jump\t// in\n    tag_177:\n        /* \"#utility.yul\":6821:7162   */\n      pop\n        /* \"#utility.yul\":6737:7162   */\n      swap4\n      swap3\n      pop\n      pop\n      pop\n      jump\t// out\n        /* \"#utility.yul\":7182:7522   */\n    tag_85:\n        /* \"#utility.yul\":7238:7243   */\n      0x00\n        /* \"#utility.yul\":7287:7290   */\n      dup3\n        /* \"#utility.yul\":7280:7284   */\n      0x1f\n        /* \"#utility.yul\":7272:7278   */\n      dup4\n        /* \"#utility.yul\":7268:7285   */\n      add\n        /* \"#utility.yul\":7264:7291   */\n      slt\n        /* \"#utility.yul\":7254:7376   */\n      tag_179\n      jumpi\n        /* \"#utility.yul\":7295:7374   */\n      tag_180\n      tag_77\n      jump\t// in\n    tag_180:\n        /* \"#utility.yul\":7254:7376   */\n    tag_179:\n        /* \"#utility.yul\":7412:7418   */\n      dup2\n        /* \"#utility.yul\":7399:7419   */\n      calldataload\n        /* \"#utility.yul\":7437:7516   */\n      tag_181\n        /* \"#utility.yul\":7512:7515   */\n      dup5\n        /* \"#utility.yul\":7504:7510   */\n      dup3\n        /* \"#utility.yul\":7497:7501   */\n      0x20\n        /* \"#utility.yul\":7489:7495   */\n      dup7\n        /* \"#utility.yul\":7485:7502   */\n      add\n        /* \"#utility.yul\":7437:7516   */\n      tag_84\n      jump\t// in\n    tag_181:\n        /* \"#utility.yul\":7428:7516   */\n      swap2\n      pop\n        /* \"#utility.yul\":7244:7522   */\n      pop\n        /* \"#utility.yul\":7182:7522   */\n      swap3\n      swap2\n      pop\n      pop\n      jump\t// out\n        /* \"#utility.yul\":7528:8182   */\n    tag_12:\n        /* \"#utility.yul\":7606:7612   */\n      0x00\n        /* \"#utility.yul\":7614:7620   */\n      dup1\n        /* \"#utility.yul\":7663:7665   */\n      0x40\n        /* \"#utility.yul\":7651:7660   */\n      dup4\n        /* \"#utility.yul\":7642:7649   */\n      dup6\n        /* \"#utility.yul\":7638:7661   */\n      sub\n        /* \"#utility.yul\":7634:7666   */\n      slt\n        /* \"#utility.yul\":7631:7750   */\n      iszero\n      tag_183\n      jumpi\n        /* \"#utility.yul\":7669:7748   */\n      tag_184\n      tag_73\n      jump\t// in\n    tag_184:\n        /* \"#utility.yul\":7631:7750   */\n    tag_183:\n        /* \"#utility.yul\":7789:7790   */\n      0x00\n        /* \"#utility.yul\":7814:7867   */\n      tag_185\n        /* \"#utility.yul\":7859:7866   */\n      dup6\n        /* \"#utility.yul\":7850:7856   */\n      dup3\n        /* \"#utility.yul\":7839:7848   */\n      dup7\n        /* \"#utility.yul\":7835:7857   */\n      add\n        /* \"#utility.yul\":7814:7867   */\n      tag_76\n      jump\t// in\n    tag_185:\n        /* \"#utility.yul\":7804:7867   */\n      swap3\n      pop\n        /* \"#utility.yul\":7760:7877   */\n      pop\n        /* \"#utility.yul\":7944:7946   */\n      0x20\n        /* \"#utility.yul\":7933:7942   */\n      dup4\n        /* \"#utility.yul\":7929:7947   */\n      add\n        /* \"#utility.yul\":7916:7948   */\n      calldataload\n        /* \"#utility.yul\":7975:7993   */\n      0xffffffffffffffff\n        /* \"#utility.yul\":7967:7973   */\n      dup2\n        /* \"#utility.yul\":7964:7994   */\n      gt\n        /* \"#utility.yul\":7961:8078   */\n      iszero\n      tag_186\n      jumpi\n        /* \"#utility.yul\":7997:8076   */\n      tag_187\n      tag_74\n      jump\t// in\n    tag_187:\n        /* \"#utility.yul\":7961:8078   */\n    tag_186:\n        /* \"#utility.yul\":8102:8165   */\n      tag_188\n        /* \"#utility.yul\":8157:8164   */\n      dup6\n        /* \"#utility.yul\":8148:8154   */\n      dup3\n        /* \"#utility.yul\":8137:8146   */\n      dup7\n        /* \"#utility.yul\":8133:8155   */\n      add\n        /* \"#utility.yul\":8102:8165   */\n      tag_85\n      jump\t// in\n    tag_188:\n        /* \"#utility.yul\":8092:8165   */\n      swap2\n      pop\n        /* \"#utility.yul\":7887:8175   */\n      pop\n        /* \"#utility.yul\":7528:8182   */\n      swap3\n      pop\n      swap3\n      swap1\n      pop\n      jump\t// out\n        /* \"#utility.yul\":8188:8517   */\n    tag_16:\n        /* \"#utility.yul\":8247:8253   */\n      0x00\n        /* \"#utility.yul\":8296:8298   */\n      0x20\n        /* \"#utility.yul\":8284:8293   */\n      dup3\n        /* \"#utility.yul\":8275:8282   */\n      dup5\n        /* \"#utility.yul\":8271:8294   */\n      sub\n        /* \"#utility.yul\":8267:8299   */\n      slt\n        /* \"#utility.yul\":8264:8383   */\n      iszero\n      tag_190\n      jumpi\n        /* \"#utility.yul\":8302:8381   */\n      tag_191\n      tag_73\n      jump\t// in\n    tag_191:\n        /* \"#utility.yul\":8264:8383   */\n    tag_190:\n        /* \"#utility.yul\":8422:8423   */\n      0x00\n        /* \"#utility.yul\":8447:8500   */\n      tag_192\n        /* \"#utility.yul\":8492:8499   */\n      dup5\n        /* \"#utility.yul\":8483:8489   */\n      dup3\n        /* \"#utility.yul\":8472:8481   */\n      dup6\n        /* \"#utility.yul\":8468:8490   */\n      add\n        /* \"#utility.yul\":8447:8500   */\n      tag_76\n      jump\t// in\n    tag_192:\n        /* \"#utility.yul\":8437:8500   */\n      swap2\n      pop\n        /* \"#utility.yul\":8393:8510   */\n      pop\n        /* \"#utility.yul\":8188:8517   */\n      swap3\n      swap2\n      pop\n      pop\n      jump\t// out\n        /* \"#utility.yul\":8523:8692   */\n    tag_86:\n        /* \"#utility.yul\":8607:8618   */\n      0x00\n        /* \"#utility.yul\":8641:8647   */\n      dup3\n        /* \"#utility.yul\":8636:8639   */\n      dup3\n        /* \"#utility.yul\":8629:8648   */\n      mstore\n        /* \"#utility.yul\":8681:8685   */\n      0x20\n        /* \"#utility.yul\":8676:8679   */\n      dup3\n        /* \"#utility.yul\":8672:8686   */\n      add\n        /* \"#utility.yul\":8657:8686   */\n      swap1\n      pop\n        /* \"#utility.yul\":8523:8692   */\n      swap3\n      swap2\n      pop\n      pop\n      jump\t// out\n        /* \"#utility.yul\":8698:8874   */\n    tag_87:\n        /* \"#utility.yul\":8838:8866   */\n      0x7573657220646f6573206e6f742068617665206d657373616765000000000000\n        /* \"#utility.yul\":8834:8835   */\n      0x00\n        /* \"#utility.yul\":8826:8832   */\n      dup3\n        /* \"#utility.yul\":8822:8836   */\n      add\n        /* \"#utility.yul\":8815:8867   */\n      mstore\n        /* \"#utility.yul\":8698:8874   */\n      pop\n      jump\t// out\n        /* \"#utility.yul\":8880:9246   */\n    tag_88:\n        /* \"#utility.yul\":9022:9025   */\n      0x00\n        /* \"#utility.yul\":9043:9110   */\n      tag_196\n        /* \"#utility.yul\":9107:9109   */\n      0x1a\n        /* \"#utility.yul\":9102:9105   */\n      dup4\n        /* \"#utility.yul\":9043:9110   */\n      tag_86\n      jump\t// in\n    tag_196:\n        /* \"#utility.yul\":9036:9110   */\n      swap2\n      pop\n        /* \"#utility.yul\":9119:9212   */\n      tag_197\n        /* \"#utility.yul\":9208:9211   */\n      dup3\n        /* \"#utility.yul\":9119:9212   */\n      tag_87\n      jump\t// in\n    tag_197:\n        /* \"#utility.yul\":9237:9239   */\n      0x20\n        /* \"#utility.yul\":9232:9235   */\n      dup3\n        /* \"#utility.yul\":9228:9240   */\n      add\n        /* \"#utility.yul\":9221:9240   */\n      swap1\n      pop\n        /* \"#utility.yul\":8880:9246   */\n      swap2\n      swap1\n      pop\n      jump\t// out\n        /* \"#utility.yul\":9252:9671   */\n    tag_22:\n        /* \"#utility.yul\":9418:9422   */\n      0x00\n        /* \"#utility.yul\":9456:9458   */\n      0x20\n        /* \"#utility.yul\":9445:9454   */\n      dup3\n        /* \"#utility.yul\":9441:9459   */\n      add\n        /* \"#utility.yul\":9433:9459   */\n      swap1\n      pop\n        /* \"#utility.yul\":9505:9514   */\n      dup2\n        /* \"#utility.yul\":9499:9503   */\n      dup2\n        /* \"#utility.yul\":9495:9515   */\n      sub\n        /* \"#utility.yul\":9491:9492   */\n      0x00\n        /* \"#utility.yul\":9480:9489   */\n      dup4\n        /* \"#utility.yul\":9476:9493   */\n      add\n        /* \"#utility.yul\":9469:9516   */\n      mstore\n        /* \"#utility.yul\":9533:9664   */\n      tag_199\n        /* \"#utility.yul\":9659:9663   */\n      dup2\n        /* \"#utility.yul\":9533:9664   */\n      tag_88\n      jump\t// in\n    tag_199:\n        /* \"#utility.yul\":9525:9664   */\n      swap1\n      pop\n        /* \"#utility.yul\":9252:9671   */\n      swap2\n      swap1\n      pop\n      jump\t// out\n        /* \"#utility.yul\":9677:9857   */\n    tag_89:\n        /* \"#utility.yul\":9725:9802   */\n      0x4e487b7100000000000000000000000000000000000000000000000000000000\n        /* \"#utility.yul\":9722:9723   */\n      0x00\n        /* \"#utility.yul\":9715:9803   */\n      mstore\n        /* \"#utility.yul\":9822:9826   */\n      0x22\n        /* \"#utility.yul\":9819:9820   */\n      0x04\n        /* \"#utility.yul\":9812:9827   */\n      mstore\n        /* \"#utility.yul\":9846:9850   */\n      0x24\n        /* \"#utility.yul\":9843:9844   */\n      0x00\n        /* \"#utility.yul\":9836:9851   */\n      revert\n        /* \"#utility.yul\":9863:10183   */\n    tag_27:\n        /* \"#utility.yul\":9907:9913   */\n      0x00\n        /* \"#utility.yul\":9944:9945   */\n      0x02\n        /* \"#utility.yul\":9938:9942   */\n      dup3\n        /* \"#utility.yul\":9934:9946   */\n      div\n        /* \"#utility.yul\":9924:9946   */\n      swap1\n      pop\n        /* \"#utility.yul\":9991:9992   */\n      0x01\n        /* \"#utility.yul\":9985:9989   */\n      dup3\n        /* \"#utility.yul\":9981:9993   */\n      and\n        /* \"#utility.yul\":10012:10030   */\n      dup1\n        /* \"#utility.yul\":10002:10083   */\n      tag_202\n      jumpi\n        /* \"#utility.yul\":10068:10072   */\n      0x7f\n        /* \"#utility.yul\":10060:10066   */\n      dup3\n        /* \"#utility.yul\":10056:10073   */\n      and\n        /* \"#utility.yul\":10046:10073   */\n      swap2\n      pop\n        /* \"#utility.yul\":10002:10083   */\n    tag_202:\n        /* \"#utility.yul\":10130:10132   */\n      0x20\n        /* \"#utility.yul\":10122:10128   */\n      dup3\n        /* \"#utility.yul\":10119:10133   */\n      lt\n        /* \"#utility.yul\":10099:10117   */\n      dup2\n        /* \"#utility.yul\":10096:10134   */\n      sub\n        /* \"#utility.yul\":10093:10177   */\n      tag_203\n      jumpi\n        /* \"#utility.yul\":10149:10167   */\n      tag_204\n      tag_89\n      jump\t// in\n    tag_204:\n        /* \"#utility.yul\":10093:10177   */\n    tag_203:\n        /* \"#utility.yul\":9914:10183   */\n      pop\n        /* \"#utility.yul\":9863:10183   */\n      swap2\n      swap1\n      pop\n      jump\t// out\n        /* \"#utility.yul\":10189:10412   */\n    tag_90:\n        /* \"#utility.yul\":10329:10363   */\n      0x796f752063616e27742073656e642061206d65737361676520746f20796f7572\n        /* \"#utility.yul\":10325:10326   */\n      0x00\n        /* \"#utility.yul\":10317:10323   */\n      dup3\n        /* \"#utility.yul\":10313:10327   */\n      add\n        /* \"#utility.yul\":10306:10364   */\n      mstore\n        /* \"#utility.yul\":10398:10404   */\n      0x73656c6600000000000000000000000000000000000000000000000000000000\n        /* \"#utility.yul\":10393:10395   */\n      0x20\n        /* \"#utility.yul\":10385:10391   */\n      dup3\n        /* \"#utility.yul\":10381:10396   */\n      add\n        /* \"#utility.yul\":10374:10405   */\n      mstore\n        /* \"#utility.yul\":10189:10412   */\n      pop\n      jump\t// out\n        /* \"#utility.yul\":10418:10784   */\n    tag_91:\n        /* \"#utility.yul\":10560:10563   */\n      0x00\n        /* \"#utility.yul\":10581:10648   */\n      tag_207\n        /* \"#utility.yul\":10645:10647   */\n      0x24\n        /* \"#utility.yul\":10640:10643   */\n      dup4\n        /* \"#utility.yul\":10581:10648   */\n      tag_86\n      jump\t// in\n    tag_207:\n        /* \"#utility.yul\":10574:10648   */\n      swap2\n      pop\n        /* \"#utility.yul\":10657:10750   */\n      tag_208\n        /* \"#utility.yul\":10746:10749   */\n      dup3\n        /* \"#utility.yul\":10657:10750   */\n      tag_90\n      jump\t// in\n    tag_208:\n        /* \"#utility.yul\":10775:10777   */\n      0x40\n        /* \"#utility.yul\":10770:10773   */\n      dup3\n        /* \"#utility.yul\":10766:10778   */\n      add\n        /* \"#utility.yul\":10759:10778   */\n      swap1\n      pop\n        /* \"#utility.yul\":10418:10784   */\n      swap2\n      swap1\n      pop\n      jump\t// out\n        /* \"#utility.yul\":10790:11209   */\n    tag_35:\n        /* \"#utility.yul\":10956:10960   */\n      0x00\n        /* \"#utility.yul\":10994:10996   */\n      0x20\n        /* \"#utility.yul\":10983:10992   */\n      dup3\n        /* \"#utility.yul\":10979:10997   */\n      add\n        /* \"#utility.yul\":10971:10997   */\n      swap1\n      pop\n        /* \"#utility.yul\":11043:11052   */\n      dup2\n        /* \"#utility.yul\":11037:11041   */\n      dup2\n        /* \"#utility.yul\":11033:11053   */\n      sub\n        /* \"#utility.yul\":11029:11030   */\n      0x00\n        /* \"#utility.yul\":11018:11027   */\n      dup4\n        /* \"#utility.yul\":11014:11031   */\n      add\n        /* \"#utility.yul\":11007:11054   */\n      mstore\n        /* \"#utility.yul\":11071:11202   */\n      tag_210\n        /* \"#utility.yul\":11197:11201   */\n      dup2\n        /* \"#utility.yul\":11071:11202   */\n      tag_91\n      jump\t// in\n    tag_210:\n        /* \"#utility.yul\":11063:11202   */\n      swap1\n      pop\n        /* \"#utility.yul\":10790:11209   */\n      swap2\n      swap1\n      pop\n      jump\t// out\n        /* \"#utility.yul\":11215:11592   */\n    tag_92:\n        /* \"#utility.yul\":11303:11306   */\n      0x00\n        /* \"#utility.yul\":11331:11370   */\n      tag_212\n        /* \"#utility.yul\":11364:11369   */\n      dup3\n        /* \"#utility.yul\":11331:11370   */\n      tag_58\n      jump\t// in\n    tag_212:\n        /* \"#utility.yul\":11386:11457   */\n      tag_213\n        /* \"#utility.yul\":11450:11456   */\n      dup2\n        /* \"#utility.yul\":11445:11448   */\n      dup6\n        /* \"#utility.yul\":11386:11457   */\n      tag_86\n      jump\t// in\n    tag_213:\n        /* \"#utility.yul\":11379:11457   */\n      swap4\n      pop\n        /* \"#utility.yul\":11466:11531   */\n      tag_214\n        /* \"#utility.yul\":11524:11530   */\n      dup2\n        /* \"#utility.yul\":11519:11522   */\n      dup6\n        /* \"#utility.yul\":11512:11516   */\n      0x20\n        /* \"#utility.yul\":11505:11510   */\n      dup7\n        /* \"#utility.yul\":11501:11517   */\n      add\n        /* \"#utility.yul\":11466:11531   */\n      tag_60\n      jump\t// in\n    tag_214:\n        /* \"#utility.yul\":11556:11585   */\n      tag_215\n        /* \"#utility.yul\":11578:11584   */\n      dup2\n        /* \"#utility.yul\":11556:11585   */\n      tag_61\n      jump\t// in\n    tag_215:\n        /* \"#utility.yul\":11551:11554   */\n      dup5\n        /* \"#utility.yul\":11547:11586   */\n      add\n        /* \"#utility.yul\":11540:11586   */\n      swap2\n      pop\n        /* \"#utility.yul\":11307:11592   */\n      pop\n        /* \"#utility.yul\":11215:11592   */\n      swap3\n      swap2\n      pop\n      pop\n      jump\t// out\n        /* \"#utility.yul\":11598:11911   */\n    tag_37:\n        /* \"#utility.yul\":11711:11715   */\n      0x00\n        /* \"#utility.yul\":11749:11751   */\n      0x20\n        /* \"#utility.yul\":11738:11747   */\n      dup3\n        /* \"#utility.yul\":11734:11752   */\n      add\n        /* \"#utility.yul\":11726:11752   */\n      swap1\n      pop\n        /* \"#utility.yul\":11798:11807   */\n      dup2\n        /* \"#utility.yul\":11792:11796   */\n      dup2\n        /* \"#utility.yul\":11788:11808   */\n      sub\n        /* \"#utility.yul\":11784:11785   */\n      0x00\n        /* \"#utility.yul\":11773:11782   */\n      dup4\n        /* \"#utility.yul\":11769:11786   */\n      add\n        /* \"#utility.yul\":11762:11809   */\n      mstore\n        /* \"#utility.yul\":11826:11904   */\n      tag_217\n        /* \"#utility.yul\":11899:11903   */\n      dup2\n        /* \"#utility.yul\":11890:11896   */\n      dup5\n        /* \"#utility.yul\":11826:11904   */\n      tag_92\n      jump\t// in\n    tag_217:\n        /* \"#utility.yul\":11818:11904   */\n      swap1\n      pop\n        /* \"#utility.yul\":11598:11911   */\n      swap3\n      swap2\n      pop\n      pop\n      jump\t// out\n        /* \"#utility.yul\":11917:12058   */\n    tag_93:\n        /* \"#utility.yul\":11966:11970   */\n      0x00\n        /* \"#utility.yul\":11989:11992   */\n      dup2\n        /* \"#utility.yul\":11981:11992   */\n      swap1\n      pop\n        /* \"#utility.yul\":12012:12015   */\n      dup2\n        /* \"#utility.yul\":12009:12010   */\n      0x00\n        /* \"#utility.yul\":12002:12016   */\n      mstore\n        /* \"#utility.yul\":12046:12050   */\n      0x20\n        /* \"#utility.yul\":12043:12044   */\n      0x00\n        /* \"#utility.yul\":12033:12051   */\n      keccak256\n        /* \"#utility.yul\":12025:12051   */\n      swap1\n      pop\n        /* \"#utility.yul\":11917:12058   */\n      swap2\n      swap1\n      pop\n      jump\t// out\n        /* \"#utility.yul\":12064:12157   */\n    tag_94:\n        /* \"#utility.yul\":12101:12107   */\n      0x00\n        /* \"#utility.yul\":12148:12150   */\n      0x20\n        /* \"#utility.yul\":12143:12145   */\n      0x1f\n        /* \"#utility.yul\":12136:12141   */\n      dup4\n        /* \"#utility.yul\":12132:12146   */\n      add\n        /* \"#utility.yul\":12128:12151   */\n      div\n        /* \"#utility.yul\":12118:12151   */\n      swap1\n      pop\n        /* \"#utility.yul\":12064:12157   */\n      swap2\n      swap1\n      pop\n      jump\t// out\n        /* \"#utility.yul\":12163:12270   */\n    tag_95:\n        /* \"#utility.yul\":12207:12215   */\n      0x00\n        /* \"#utility.yul\":12257:12262   */\n      dup3\n        /* \"#utility.yul\":12251:12255   */\n      dup3\n        /* \"#utility.yul\":12247:12263   */\n      shl\n        /* \"#utility.yul\":12226:12263   */\n      swap1\n      pop\n        /* \"#utility.yul\":12163:12270   */\n      swap3\n      swap2\n      pop\n      pop\n      jump\t// out\n        /* \"#utility.yul\":12276:12669   */\n    tag_96:\n        /* \"#utility.yul\":12345:12351   */\n      0x00\n        /* \"#utility.yul\":12395:12396   */\n      0x08\n        /* \"#utility.yul\":12383:12393   */\n      dup4\n        /* \"#utility.yul\":12379:12397   */\n      mul\n        /* \"#utility.yul\":12418:12515   */\n      tag_222\n        /* \"#utility.yul\":12448:12514   */\n      0xffffffffffffffffffffffffffffffffffffffffffffffffffffffffffffffff\n        /* \"#utility.yul\":12437:12446   */\n      dup3\n        /* \"#utility.yul\":12418:12515   */\n      tag_95\n      jump\t// in\n    tag_222:\n        /* \"#utility.yul\":12536:12575   */\n      tag_223\n        /* \"#utility.yul\":12566:12574   */\n      dup7\n        /* \"#utility.yul\":12555:12564   */\n      dup4\n        /* \"#utility.yul\":12536:12575   */\n      tag_95\n      jump\t// in\n    tag_223:\n        /* \"#utility.yul\":12524:12575   */\n      swap6\n      pop\n        /* \"#utility.yul\":12608:12612   */\n      dup1\n        /* \"#utility.yul\":12604:12613   */\n      not\n        /* \"#utility.yul\":12597:12602   */\n      dup5\n        /* \"#utility.yul\":12593:12614   */\n      and\n        /* \"#utility.yul\":12584:12614   */\n      swap4\n      pop\n        /* \"#utility.yul\":12657:12661   */\n      dup1\n        /* \"#utility.yul\":12647:12655   */\n      dup7\n        /* \"#utility.yul\":12643:12662   */\n      and\n        /* \"#utility.yul\":12636:12641   */\n      dup5\n        /* \"#utility.yul\":12633:12663   */\n      or\n        /* \"#utility.yul\":12623:12663   */\n      swap3\n      pop\n        /* \"#utility.yul\":12352:12669   */\n      pop\n      pop\n        /* \"#utility.yul\":12276:12669   */\n      swap4\n      swap3\n      pop\n      pop\n      pop\n      jump\t// out\n        /* \"#utility.yul\":12675:12735   */\n    tag_97:\n        /* \"#utility.yul\":12703:12706   */\n      0x00\n        /* \"#utility.yul\":12724:12729   */\n      dup2\n        /* \"#utility.yul\":12717:12729   */\n      swap1\n      pop\n        /* \"#utility.yul\":12675:12735   */\n      swap2\n      swap1\n      pop\n      jump\t// out\n        /* \"#utility.yul\":12741:12883   */\n    tag_98:\n        /* \"#utility.yul\":12791:12800   */\n      0x00\n        /* \"#utility.yul\":12824:12877   */\n      tag_226\n        /* \"#utility.yul\":12842:12876   */\n      tag_227\n        /* \"#utility.yul\":12851:12875   */\n      tag_228\n        /* \"#utility.yul\":12869:12874   */\n      dup5\n        /* \"#utility.yul\":12851:12875   */\n      tag_63\n      jump\t// in\n    tag_228:\n        /* \"#utility.yul\":12842:12876   */\n      tag_97\n      jump\t// in\n    tag_227:\n        /* \"#utility.yul\":12824:12877   */\n      tag_63\n      jump\t// in\n    tag_226:\n        /* \"#utility.yul\":12811:12877   */\n      swap1\n      pop\n        /* \"#utility.yul\":12741:12883   */\n      swap2\n      swap1\n      pop\n      jump\t// out\n        /* \"#utility.yul\":12889:12964   */\n    tag_99:\n        /* \"#utility.yul\":12932:12935   */\n      0x00\n        /* \"#utility.yul\":12953:12958   */\n      dup2\n        /* \"#utility.yul\":12946:12958   */\n      swap1\n      pop\n        /* \"#utility.yul\":12889:12964   */\n      swap2\n      swap1\n      pop\n      jump\t// out\n        /* \"#utility.yul\":12970:13239   */\n    tag_100:\n        /* \"#utility.yul\":13080:13119   */\n      tag_231\n        /* \"#utility.yul\":13111:13118   */\n      dup4\n        /* \"#utility.yul\":13080:13119   */\n      tag_98\n      jump\t// in\n    tag_231:\n        /* \"#utility.yul\":13141:13232   */\n      tag_232\n        /* \"#utility.yul\":13190:13231   */\n      tag_233\n        /* \"#utility.yul\":13214:13230   */\n      dup3\n        /* \"#utility.yul\":13190:13231   */\n      tag_99\n      jump\t// in\n    tag_233:\n        /* \"#utility.yul\":13182:13188   */\n      dup5\n        /* \"#utility.yul\":13175:13179   */\n      dup5\n        /* \"#utility.yul\":13169:13180   */\n      sload\n        /* \"#utility.yul\":13141:13232   */\n      tag_96\n      jump\t// in\n    tag_232:\n        /* \"#utility.yul\":13135:13139   */\n      dup3\n        /* \"#utility.yul\":13128:13233   */\n      sstore\n        /* \"#utility.yul\":13046:13239   */\n      pop\n        /* \"#utility.yul\":12970:13239   */\n      pop\n      pop\n      pop\n      jump\t// out\n        /* \"#utility.yul\":13245:13318   */\n    tag_101:\n        /* \"#utility.yul\":13290:13293   */\n      0x00\n        /* \"#utility.yul\":13245:13318   */\n      swap1\n      jump\t// out\n        /* \"#utility.yul\":13324:13513   */\n    tag_102:\n        /* \"#utility.yul\":13401:13433   */\n      tag_236\n      tag_101\n      jump\t// in\n    tag_236:\n        /* \"#utility.yul\":13442:13507   */\n      tag_237\n        /* \"#utility.yul\":13500:13506   */\n      dup2\n        /* \"#utility.yul\":13492:13498   */\n      dup5\n        /* \"#utility.yul\":13486:13490   */\n      dup5\n        /* \"#utility.yul\":13442:13507   */\n      tag_100\n      jump\t// in\n    tag_237:\n        /* \"#utility.yul\":13377:13513   */\n      pop\n        /* \"#utility.yul\":13324:13513   */\n      pop\n      pop\n      jump\t// out\n        /* \"#utility.yul\":13519:13705   */\n    tag_103:\n        /* \"#utility.yul\":13579:13699   */\n    tag_239:\n        /* \"#utility.yul\":13596:13599   */\n      dup2\n        /* \"#utility.yul\":13589:13594   */\n      dup2\n        /* \"#utility.yul\":13586:13600   */\n      lt\n        /* \"#utility.yul\":13579:13699   */\n      iszero\n      tag_241\n      jumpi\n        /* \"#utility.yul\":13650:13689   */\n      tag_242\n        /* \"#utility.yul\":13687:13688   */\n      0x00\n        /* \"#utility.yul\":13680:13685   */\n      dup3\n        /* \"#utility.yul\":13650:13689   */\n      tag_102\n      jump\t// in\n    tag_242:\n        /* \"#utility.yul\":13623:13624   */\n      0x01\n        /* \"#utility.yul\":13616:13621   */\n      dup2\n        /* \"#utility.yul\":13612:13625   */\n      add\n        /* \"#utility.yul\":13603:13625   */\n      swap1\n      pop\n        /* \"#utility.yul\":13579:13699   */\n      jump(tag_239)\n    tag_241:\n        /* \"#utility.yul\":13519:13705   */\n      pop\n      pop\n      jump\t// out\n        /* \"#utility.yul\":13711:14254   */\n    tag_104:\n        /* \"#utility.yul\":13812:13814   */\n      0x1f\n        /* \"#utility.yul\":13807:13810   */\n      dup3\n        /* \"#utility.yul\":13804:13815   */\n      gt\n        /* \"#utility.yul\":13801:14247   */\n      iszero\n      tag_244\n      jumpi\n        /* \"#utility.yul\":13846:13884   */\n      tag_245\n        /* \"#utility.yul\":13878:13883   */\n      dup2\n        /* \"#utility.yul\":13846:13884   */\n      tag_93\n      jump\t// in\n    tag_245:\n        /* \"#utility.yul\":13930:13959   */\n      tag_246\n        /* \"#utility.yul\":13948:13958   */\n      dup5\n        /* \"#utility.yul\":13930:13959   */\n      tag_94\n      jump\t// in\n    tag_246:\n        /* \"#utility.yul\":13920:13928   */\n      dup2\n        /* \"#utility.yul\":13916:13960   */\n      add\n        /* \"#utility.yul\":14113:14115   */\n      0x20\n        /* \"#utility.yul\":14101:14111   */\n      dup6\n        /* \"#utility.yul\":14098:14116   */\n      lt\n        /* \"#utility.yul\":14095:14144   */\n      iszero\n      tag_247\n      jumpi\n        /* \"#utility.yul\":14134:14142   */\n      dup2\n        /* \"#utility.yul\":14119:14142   */\n      swap1\n      pop\n        /* \"#utility.yul\":14095:14144   */\n    tag_247:\n        /* \"#utility.yul\":14157:14237   */\n      tag_248\n        /* \"#utility.yul\":14213:14235   */\n      tag_249\n        /* \"#utility.yul\":14231:14234   */\n      dup6\n        /* \"#utility.yul\":14213:14235   */\n      tag_94\n      jump\t// in\n    tag_249:\n        /* \"#utility.yul\":14203:14211   */\n      dup4\n        /* \"#utility.yul\":14199:14236   */\n      add\n        /* \"#utility.yul\":14186:14197   */\n      dup3\n        /* \"#utility.yul\":14157:14237   */\n      tag_103\n      jump\t// in\n    tag_248:\n        /* \"#utility.yul\":13816:14247   */\n      pop\n      pop\n        /* \"#utility.yul\":13801:14247   */\n    tag_244:\n        /* \"#utility.yul\":13711:14254   */\n      pop\n      pop\n      pop\n      jump\t// out\n        /* \"#utility.yul\":14260:14377   */\n    tag_105:\n        /* \"#utility.yul\":14314:14322   */\n      0x00\n        /* \"#utility.yul\":14364:14369   */\n      dup3\n        /* \"#utility.yul\":14358:14362   */\n      dup3\n        /* \"#utility.yul\":14354:14370   */\n      shr\n        /* \"#utility.yul\":14333:14370   */\n      swap1\n      pop\n        /* \"#utility.yul\":14260:14377   */\n      swap3\n      swap2\n      pop\n      pop\n      jump\t// out\n        /* \"#utility.yul\":14383:14552   */\n    tag_106:\n        /* \"#utility.yul\":14427:14433   */\n      0x00\n        /* \"#utility.yul\":14460:14511   */\n      tag_252\n        /* \"#utility.yul\":14508:14509   */\n      0x00\n        /* \"#utility.yul\":14504:14510   */\n      not\n        /* \"#utility.yul\":14496:14501   */\n      dup5\n        /* \"#utility.yul\":14493:14494   */\n      0x08\n        /* \"#utility.yul\":14489:14502   */\n      mul\n        /* \"#utility.yul\":14460:14511   */\n      tag_105\n      jump\t// in\n    tag_252:\n        /* \"#utility.yul\":14456:14512   */\n      not\n        /* \"#utility.yul\":14541:14545   */\n      dup1\n        /* \"#utility.yul\":14535:14539   */\n      dup4\n        /* \"#utility.yul\":14531:14546   */\n      and\n        /* \"#utility.yul\":14521:14546   */\n      swap2\n      pop\n        /* \"#utility.yul\":14434:14552   */\n      pop\n        /* \"#utility.yul\":14383:14552   */\n      swap3\n      swap2\n      pop\n      pop\n      jump\t// out\n        /* \"#utility.yul\":14557:14852   */\n    tag_107:\n        /* \"#utility.yul\":14633:14637   */\n      0x00\n        /* \"#utility.yul\":14779:14808   */\n      tag_254\n        /* \"#utility.yul\":14804:14807   */\n      dup4\n        /* \"#utility.yul\":14798:14802   */\n      dup4\n        /* \"#utility.yul\":14779:14808   */\n      tag_106\n      jump\t// in\n    tag_254:\n        /* \"#utility.yul\":14771:14808   */\n      swap2\n      pop\n        /* \"#utility.yul\":14841:14844   */\n      dup3\n        /* \"#utility.yul\":14838:14839   */\n      0x02\n        /* \"#utility.yul\":14834:14845   */\n      mul\n        /* \"#utility.yul\":14828:14832   */\n      dup3\n        /* \"#utility.yul\":14825:14846   */\n      or\n        /* \"#utility.yul\":14817:14846   */\n      swap1\n      pop\n        /* \"#utility.yul\":14557:14852   */\n      swap3\n      swap2\n      pop\n      pop\n      jump\t// out\n        /* \"#utility.yul\":14857:16252   */\n    tag_40:\n        /* \"#utility.yul\":14974:15011   */\n      tag_256\n        /* \"#utility.yul\":15007:15010   */\n      dup3\n        /* \"#utility.yul\":14974:15011   */\n      tag_58\n      jump\t// in\n    tag_256:\n        /* \"#utility.yul\":15076:15094   */\n      0xffffffffffffffff\n        /* \"#utility.yul\":15068:15074   */\n      dup2\n        /* \"#utility.yul\":15065:15095   */\n      gt\n        /* \"#utility.yul\":15062:15118   */\n      iszero\n      tag_257\n      jumpi\n        /* \"#utility.yul\":15098:15116   */\n      tag_258\n      tag_79\n      jump\t// in\n    tag_258:\n        /* \"#utility.yul\":15062:15118   */\n    tag_257:\n        /* \"#utility.yul\":15142:15180   */\n      tag_259\n        /* \"#utility.yul\":15174:15178   */\n      dup3\n        /* \"#utility.yul\":15168:15179   */\n      sload\n        /* \"#utility.yul\":15142:15180   */\n      tag_27\n      jump\t// in\n    tag_259:\n        /* \"#utility.yul\":15227:15294   */\n      tag_260\n        /* \"#utility.yul\":15287:15293   */\n      dup3\n        /* \"#utility.yul\":15279:15285   */\n      dup3\n        /* \"#utility.yul\":15273:15277   */\n      dup6\n        /* \"#utility.yul\":15227:15294   */\n      tag_104\n      jump\t// in\n    tag_260:\n        /* \"#utility.yul\":15321:15322   */\n      0x00\n        /* \"#utility.yul\":15345:15349   */\n      0x20\n        /* \"#utility.yul\":15332:15349   */\n      swap1\n      pop\n        /* \"#utility.yul\":15377:15379   */\n      0x1f\n        /* \"#utility.yul\":15369:15375   */\n      dup4\n        /* \"#utility.yul\":15366:15380   */\n      gt\n        /* \"#utility.yul\":15394:15395   */\n      0x01\n        /* \"#utility.yul\":15389:16007   */\n      dup2\n      eq\n      tag_262\n      jumpi\n        /* \"#utility.yul\":16051:16052   */\n      0x00\n        /* \"#utility.yul\":16068:16074   */\n      dup5\n        /* \"#utility.yul\":16065:16142   */\n      iszero\n      tag_263\n      jumpi\n        /* \"#utility.yul\":16117:16126   */\n      dup3\n        /* \"#utility.yul\":16112:16115   */\n      dup8\n        /* \"#utility.yul\":16108:16127   */\n      add\n        /* \"#utility.yul\":16102:16128   */\n      mload\n        /* \"#utility.yul\":16093:16128   */\n      swap1\n      pop\n        /* \"#utility.yul\":16065:16142   */\n    tag_263:\n        /* \"#utility.yul\":16168:16235   */\n      tag_264\n        /* \"#utility.yul\":16228:16234   */\n      dup6\n        /* \"#utility.yul\":16221:16226   */\n      dup3\n        /* \"#utility.yul\":16168:16235   */\n      tag_107\n      jump\t// in\n    tag_264:\n        /* \"#utility.yul\":16162:16166   */\n      dup7\n        /* \"#utility.yul\":16155:16236   */\n      sstore\n        /* \"#utility.yul\":16024:16246   */\n      pop\n        /* \"#utility.yul\":15359:16246   */\n      jump(tag_261)\n        /* \"#utility.yul\":15389:16007   */\n    tag_262:\n        /* \"#utility.yul\":15441:15445   */\n      0x1f\n        /* \"#utility.yul\":15437:15446   */\n      not\n        /* \"#utility.yul\":15429:15435   */\n      dup5\n        /* \"#utility.yul\":15425:15447   */\n      and\n        /* \"#utility.yul\":15475:15512   */\n      tag_265\n        /* \"#utility.yul\":15507:15511   */\n      dup7\n        /* \"#utility.yul\":15475:15512   */\n      tag_93\n      jump\t// in\n    tag_265:\n        /* \"#utility.yul\":15534:15535   */\n      0x00\n        /* \"#utility.yul\":15548:15756   */\n    tag_266:\n        /* \"#utility.yul\":15562:15569   */\n      dup3\n        /* \"#utility.yul\":15559:15560   */\n      dup2\n        /* \"#utility.yul\":15556:15570   */\n      lt\n        /* \"#utility.yul\":15548:15756   */\n      iszero\n      tag_268\n      jumpi\n        /* \"#utility.yul\":15641:15650   */\n      dup5\n        /* \"#utility.yul\":15636:15639   */\n      dup10\n        /* \"#utility.yul\":15632:15651   */\n      add\n        /* \"#utility.yul\":15626:15652   */\n      mload\n        /* \"#utility.yul\":15618:15624   */\n      dup3\n        /* \"#utility.yul\":15611:15653   */\n      sstore\n        /* \"#utility.yul\":15692:15693   */\n      0x01\n        /* \"#utility.yul\":15684:15690   */\n      dup3\n        /* \"#utility.yul\":15680:15694   */\n      add\n        /* \"#utility.yul\":15670:15694   */\n      swap2\n      pop\n        /* \"#utility.yul\":15739:15741   */\n      0x20\n        /* \"#utility.yul\":15728:15737   */\n      dup6\n        /* \"#utility.yul\":15724:15742   */\n      add\n        /* \"#utility.yul\":15711:15742   */\n      swap5\n      pop\n        /* \"#utility.yul\":15585:15589   */\n      0x20\n        /* \"#utility.yul\":15582:15583   */\n      dup2\n        /* \"#utility.yul\":15578:15590   */\n      add\n        /* \"#utility.yul\":15573:15590   */\n      swap1\n      pop\n        /* \"#utility.yul\":15548:15756   */\n      jump(tag_266)\n    tag_268:\n        /* \"#utility.yul\":15784:15790   */\n      dup7\n        /* \"#utility.yul\":15775:15782   */\n      dup4\n        /* \"#utility.yul\":15772:15791   */\n      lt\n        /* \"#utility.yul\":15769:15948   */\n      iszero\n      tag_269\n      jumpi\n        /* \"#utility.yul\":15842:15851   */\n      dup5\n        /* \"#utility.yul\":15837:15840   */\n      dup10\n        /* \"#utility.yul\":15833:15852   */\n      add\n        /* \"#utility.yul\":15827:15853   */\n      mload\n        /* \"#utility.yul\":15885:15933   */\n      tag_270\n        /* \"#utility.yul\":15927:15931   */\n      0x1f\n        /* \"#utility.yul\":15919:15925   */\n      dup10\n        /* \"#utility.yul\":15915:15932   */\n      and\n        /* \"#utility.yul\":15904:15913   */\n      dup3\n        /* \"#utility.yul\":15885:15933   */\n      tag_106\n      jump\t// in\n    tag_270:\n        /* \"#utility.yul\":15877:15883   */\n      dup4\n        /* \"#utility.yul\":15870:15934   */\n      sstore\n        /* \"#utility.yul\":15792:15948   */\n      pop\n        /* \"#utility.yul\":15769:15948   */\n    tag_269:\n        /* \"#utility.yul\":15994:15995   */\n      0x01\n        /* \"#utility.yul\":15990:15991   */\n      0x02\n        /* \"#utility.yul\":15982:15988   */\n      dup9\n        /* \"#utility.yul\":15978:15992   */\n      mul\n        /* \"#utility.yul\":15974:15996   */\n      add\n        /* \"#utility.yul\":15968:15972   */\n      dup9\n        /* \"#utility.yul\":15961:15997   */\n      sstore\n        /* \"#utility.yul\":15396:16007   */\n      pop\n      pop\n      pop\n        /* \"#utility.yul\":15359:16246   */\n    tag_261:\n      pop\n        /* \"#utility.yul\":14949:16252   */\n      pop\n      pop\n      pop\n        /* \"#utility.yul\":14857:16252   */\n      pop\n      pop\n      jump\t// out\n        /* \"#utility.yul\":16258:16483   */\n    tag_108:\n        /* \"#utility.yul\":16398:16432   */\n      0x796f752063616e206e6f742073656520616e6f74686572207573657273206d65\n        /* \"#utility.yul\":16394:16395   */\n      0x00\n        /* \"#utility.yul\":16386:16392   */\n      dup3\n        /* \"#utility.yul\":16382:16396   */\n      add\n        /* \"#utility.yul\":16375:16433   */\n      mstore\n        /* \"#utility.yul\":16467:16475   */\n      0x7373616765730000000000000000000000000000000000000000000000000000\n        /* \"#utility.yul\":16462:16464   */\n      0x20\n        /* \"#utility.yul\":16454:16460   */\n      dup3\n        /* \"#utility.yul\":16450:16465   */\n      add\n        /* \"#utility.yul\":16443:16476   */\n      mstore\n        /* \"#utility.yul\":16258:16483   */\n      pop\n      jump\t// out\n        /* \"#utility.yul\":16489:16855   */\n    tag_109:\n        /* \"#utility.yul\":16631:16634   */\n      0x00\n        /* \"#utility.yul\":16652:16719   */\n      tag_273\n        /* \"#utility.yul\":16716:16718   */\n      0x26\n        /* \"#utility.yul\":16711:16714   */\n      dup4\n        /* \"#utility.yul\":16652:16719   */\n      tag_86\n      jump\t// in\n    tag_273:\n        /* \"#utility.yul\":16645:16719   */\n      swap2\n      pop\n        /* \"#utility.yul\":16728:16821   */\n      tag_274\n        /* \"#utility.yul\":16817:16820   */\n      dup3\n        /* \"#utility.yul\":16728:16821   */\n      tag_108\n      jump\t// in\n    tag_274:\n        /* \"#utility.yul\":16846:16848   */\n      0x40\n        /* \"#utility.yul\":16841:16844   */\n      dup3\n        /* \"#utility.yul\":16837:16849   */\n      add\n        /* \"#utility.yul\":16830:16849   */\n      swap1\n      pop\n        /* \"#utility.yul\":16489:16855   */\n      swap2\n      swap1\n      pop\n      jump\t// out\n        /* \"#utility.yul\":16861:17280   */\n    tag_44:\n        /* \"#utility.yul\":17027:17031   */\n      0x00\n        /* \"#utility.yul\":17065:17067   */\n      0x20\n        /* \"#utility.yul\":17054:17063   */\n      dup3\n        /* \"#utility.yul\":17050:17068   */\n      add\n        /* \"#utility.yul\":17042:17068   */\n      swap1\n      pop\n        /* \"#utility.yul\":17114:17123   */\n      dup2\n        /* \"#utility.yul\":17108:17112   */\n      dup2\n        /* \"#utility.yul\":17104:17124   */\n      sub\n        /* \"#utility.yul\":17100:17101   */\n      0x00\n        /* \"#utility.yul\":17089:17098   */\n      dup4\n        /* \"#utility.yul\":17085:17102   */\n      add\n        /* \"#utility.yul\":17078:17125   */\n      mstore\n        /* \"#utility.yul\":17142:17273   */\n      tag_276\n        /* \"#utility.yul\":17268:17272   */\n      dup2\n        /* \"#utility.yul\":17142:17273   */\n      tag_109\n      jump\t// in\n    tag_276:\n        /* \"#utility.yul\":17134:17273   */\n      swap1\n      pop\n        /* \"#utility.yul\":16861:17280   */\n      swap2\n      swap1\n      pop\n      jump\t// out\n\n    auxdata: 0xa26469706673582212207555cd5a2e4606099ad79979b4190f6d4177ba1feac5b5e63f73bc5f0b66b04564736f6c634300081a0033\n}\n",
				"bytecode": {
					"linkReferences": {},
					"object": "6080604052348015600e575f80fd5b50610fc38061001c5f395ff3fe608060405234801561000f575f80fd5b506004361061003f575f3560e01c80635efe1ab81461004357806399142b5f14610061578063b2f713221461007d575b5f80fd5b61004b6100ad565b60405161005891906108cc565b60405180910390f35b61007b60048036038101906100769190610a53565b6102b2565b005b61009760048036038101906100929190610aad565b610488565b6040516100a491906108cc565b60405180910390f35b60605f805f3373ffffffffffffffffffffffffffffffffffffffff1673ffffffffffffffffffffffffffffffffffffffff1681526020019081526020015f208054905011610130576040517f08c379a000000000000000000000000000000000000000000000000000000000815260040161012790610b32565b60405180910390fd5b5f803373ffffffffffffffffffffffffffffffffffffffff1673ffffffffffffffffffffffffffffffffffffffff1681526020019081526020015f20805480602002602001604051908101604052809291908181526020015f905b828210156102a9578382905f5260205f2090600302016040518060600160405290815f820180546101bb90610b7d565b80601f01602080910402602001604051908101604052809291908181526020018280546101e790610b7d565b80156102325780601f1061020957610100808354040283529160200191610232565b820191905f5260205f20905b81548152906001019060200180831161021557829003601f168201915b5050505050815260200160018201548152602001600282015f9054906101000a900473ffffffffffffffffffffffffffffffffffffffff1673ffffffffffffffffffffffffffffffffffffffff1673ffffffffffffffffffffffffffffffffffffffff16815250508152602001906001019061018b565b50505050905090565b3373ffffffffffffffffffffffffffffffffffffffff168273ffffffffffffffffffffffffffffffffffffffff1603610320576040517f08c379a000000000000000000000000000000000000000000000000000000000815260040161031790610c1d565b60405180910390fd5b423373ffffffffffffffffffffffffffffffffffffffff168373ffffffffffffffffffffffffffffffffffffffff167f7e49d574e0305424aa957cb3f69b25f92aa58d53fdee73f05e40019210a70bce8460405161037e9190610c73565b60405180910390a45f60405180606001604052808381526020014281526020018473ffffffffffffffffffffffffffffffffffffffff1681525090505f808473ffffffffffffffffffffffffffffffffffffffff1673ffffffffffffffffffffffffffffffffffffffff1681526020019081526020015f2081908060018154018082558091505060019003905f5260205f2090600302015f909190919091505f820151815f0190816104309190610e30565b50602082015181600101556040820151816002015f6101000a81548173ffffffffffffffffffffffffffffffffffffffff021916908373ffffffffffffffffffffffffffffffffffffffff1602179055505050505050565b60603373ffffffffffffffffffffffffffffffffffffffff168273ffffffffffffffffffffffffffffffffffffffff16036104f8576040517f08c379a00000000000000000000000000000000000000000000000000000000081526004016104ef90610f6f565b60405180910390fd5b5f805f8473ffffffffffffffffffffffffffffffffffffffff1673ffffffffffffffffffffffffffffffffffffffff1681526020019081526020015f208054905011610579576040517f08c379a000000000000000000000000000000000000000000000000000000000815260040161057090610b32565b60405180910390fd5b5f808373ffffffffffffffffffffffffffffffffffffffff1673ffffffffffffffffffffffffffffffffffffffff1681526020019081526020015f20805480602002602001604051908101604052809291908181526020015f905b828210156106f2578382905f5260205f2090600302016040518060600160405290815f8201805461060490610b7d565b80601f016020809104026020016040519081016040528092919081815260200182805461063090610b7d565b801561067b5780601f106106525761010080835404028352916020019161067b565b820191905f5260205f20905b81548152906001019060200180831161065e57829003601f168201915b5050505050815260200160018201548152602001600282015f9054906101000a900473ffffffffffffffffffffffffffffffffffffffff1673ffffffffffffffffffffffffffffffffffffffff1673ffffffffffffffffffffffffffffffffffffffff1681525050815260200190600101906105d4565b505050509050919050565b5f81519050919050565b5f82825260208201905092915050565b5f819050602082019050919050565b5f81519050919050565b5f82825260208201905092915050565b8281835e5f83830152505050565b5f601f19601f8301169050919050565b5f61076882610726565b6107728185610730565b9350610782818560208601610740565b61078b8161074e565b840191505092915050565b5f819050919050565b6107a881610796565b82525050565b5f73ffffffffffffffffffffffffffffffffffffffff82169050919050565b5f6107d7826107ae565b9050919050565b6107e7816107cd565b82525050565b5f606083015f8301518482035f860152610807828261075e565b915050602083015161081c602086018261079f565b50604083015161082f60408601826107de565b508091505092915050565b5f61084583836107ed565b905092915050565b5f602082019050919050565b5f610863826106fd565b61086d8185610707565b93508360208202850161087f85610717565b805f5b858110156108ba578484038952815161089b858261083a565b94506108a68361084d565b925060208a01995050600181019050610882565b50829750879550505050505092915050565b5f6020820190508181035f8301526108e48184610859565b905092915050565b5f604051905090565b5f80fd5b5f80fd5b610906816107cd565b8114610910575f80fd5b50565b5f81359050610921816108fd565b92915050565b5f80fd5b5f80fd5b7f4e487b71000000000000000000000000000000000000000000000000000000005f52604160045260245ffd5b6109658261074e565b810181811067ffffffffffffffff821117156109845761098361092f565b5b80604052505050565b5f6109966108ec565b90506109a2828261095c565b919050565b5f67ffffffffffffffff8211156109c1576109c061092f565b5b6109ca8261074e565b9050602081019050919050565b828183375f83830152505050565b5f6109f76109f2846109a7565b61098d565b905082815260208101848484011115610a1357610a1261092b565b5b610a1e8482856109d7565b509392505050565b5f82601f830112610a3a57610a39610927565b5b8135610a4a8482602086016109e5565b91505092915050565b5f8060408385031215610a6957610a686108f5565b5b5f610a7685828601610913565b925050602083013567ffffffffffffffff811115610a9757610a966108f9565b5b610aa385828601610a26565b9150509250929050565b5f60208284031215610ac257610ac16108f5565b5b5f610acf84828501610913565b91505092915050565b5f82825260208201905092915050565b7f7573657220646f6573206e6f742068617665206d6573736167650000000000005f82015250565b5f610b1c601a83610ad8565b9150610b2782610ae8565b602082019050919050565b5f6020820190508181035f830152610b4981610b10565b9050919050565b7f4e487b71000000000000000000000000000000000000000000000000000000005f52602260045260245ffd5b5f6002820490506001821680610b9457607f821691505b602082108103610ba757610ba6610b50565b5b50919050565b7f796f752063616e27742073656e642061206d65737361676520746f20796f75725f8201527f73656c6600000000000000000000000000000000000000000000000000000000602082015250565b5f610c07602483610ad8565b9150610c1282610bad565b604082019050919050565b5f6020820190508181035f830152610c3481610bfb565b9050919050565b5f610c4582610726565b610c4f8185610ad8565b9350610c5f818560208601610740565b610c688161074e565b840191505092915050565b5f6020820190508181035f830152610c8b8184610c3b565b905092915050565b5f819050815f5260205f209050919050565b5f6020601f8301049050919050565b5f82821b905092915050565b5f60088302610cef7fffffffffffffffffffffffffffffffffffffffffffffffffffffffffffffffff82610cb4565b610cf98683610cb4565b95508019841693508086168417925050509392505050565b5f819050919050565b5f610d34610d2f610d2a84610796565b610d11565b610796565b9050919050565b5f819050919050565b610d4d83610d1a565b610d61610d5982610d3b565b848454610cc0565b825550505050565b5f90565b610d75610d69565b610d80818484610d44565b505050565b5b81811015610da357610d985f82610d6d565b600181019050610d86565b5050565b601f821115610de857610db981610c93565b610dc284610ca5565b81016020851015610dd1578190505b610de5610ddd85610ca5565b830182610d85565b50505b505050565b5f82821c905092915050565b5f610e085f1984600802610ded565b1980831691505092915050565b5f610e208383610df9565b9150826002028217905092915050565b610e3982610726565b67ffffffffffffffff811115610e5257610e5161092f565b5b610e5c8254610b7d565b610e67828285610da7565b5f60209050601f831160018114610e98575f8415610e86578287015190505b610e908582610e15565b865550610ef7565b601f198416610ea686610c93565b5f5b82811015610ecd57848901518255600182019150602085019450602081019050610ea8565b86831015610eea5784890151610ee6601f891682610df9565b8355505b6001600288020188555050505b505050505050565b7f796f752063616e206e6f742073656520616e6f74686572207573657273206d655f8201527f7373616765730000000000000000000000000000000000000000000000000000602082015250565b5f610f59602683610ad8565b9150610f6482610eff565b604082019050919050565b5f6020820190508181035f830152610f8681610f4d565b905091905056fea26469706673582212207555cd5a2e4606099ad79979b4190f6d4177ba1feac5b5e63f73bc5f0b66b04564736f6c634300081a0033",
					"opcodes": "PUSH1 0x80 PUSH1 0x40 MSTORE CALLVALUE DUP1 ISZERO PUSH1 0xE JUMPI PUSH0 DUP1 REVERT JUMPDEST POP PUSH2 0xFC3 DUP1 PUSH2 0x1C PUSH0 CODECOPY PUSH0 RETURN INVALID PUSH1 0x80 PUSH1 0x40 MSTORE CALLVALUE DUP1 ISZERO PUSH2 0xF JUMPI PUSH0 DUP1 REVERT JUMPDEST POP PUSH1 0x4 CALLDATASIZE LT PUSH2 0x3F JUMPI PUSH0 CALLDATALOAD PUSH1 0xE0 SHR DUP1 PUSH4 0x5EFE1AB8 EQ PUSH2 0x43 JUMPI DUP1 PUSH4 0x99142B5F EQ PUSH2 0x61 JUMPI DUP1 PUSH4 0xB2F71322 EQ PUSH2 0x7D JUMPI JUMPDEST PUSH0 DUP1 REVERT JUMPDEST PUSH2 0x4B PUSH2 0xAD JUMP JUMPDEST PUSH1 0x40 MLOAD PUSH2 0x58 SWAP2 SWAP1 PUSH2 0x8CC JUMP JUMPDEST PUSH1 0x40 MLOAD DUP1 SWAP2 SUB SWAP1 RETURN JUMPDEST PUSH2 0x7B PUSH1 0x4 DUP1 CALLDATASIZE SUB DUP2 ADD SWAP1 PUSH2 0x76 SWAP2 SWAP1 PUSH2 0xA53 JUMP JUMPDEST PUSH2 0x2B2 JUMP JUMPDEST STOP JUMPDEST PUSH2 0x97 PUSH1 0x4 DUP1 CALLDATASIZE SUB DUP2 ADD SWAP1 PUSH2 0x92 SWAP2 SWAP1 PUSH2 0xAAD JUMP JUMPDEST PUSH2 0x488 JUMP JUMPDEST PUSH1 0x40 MLOAD PUSH2 0xA4 SWAP2 SWAP1 PUSH2 0x8CC JUMP JUMPDEST PUSH1 0x40 MLOAD DUP1 SWAP2 SUB SWAP1 RETURN JUMPDEST PUSH1 0x60 PUSH0 DUP1 PUSH0 CALLER PUSH20 0xFFFFFFFFFFFFFFFFFFFFFFFFFFFFFFFFFFFFFFFF AND PUSH20 0xFFFFFFFFFFFFFFFFFFFFFFFFFFFFFFFFFFFFFFFF AND DUP2 MSTORE PUSH1 0x20 ADD SWAP1 DUP2 MSTORE PUSH1 0x20 ADD PUSH0 KECCAK256 DUP1 SLOAD SWAP1 POP GT PUSH2 0x130 JUMPI PUSH1 0x40 MLOAD PUSH32 0x8C379A000000000000000000000000000000000000000000000000000000000 DUP2 MSTORE PUSH1 0x4 ADD PUSH2 0x127 SWAP1 PUSH2 0xB32 JUMP JUMPDEST PUSH1 0x40 MLOAD DUP1 SWAP2 SUB SWAP1 REVERT JUMPDEST PUSH0 DUP1 CALLER PUSH20 0xFFFFFFFFFFFFFFFFFFFFFFFFFFFFFFFFFFFFFFFF AND PUSH20 0xFFFFFFFFFFFFFFFFFFFFFFFFFFFFFFFFFFFFFFFF AND DUP2 MSTORE PUSH1 0x20 ADD SWAP1 DUP2 MSTORE PUSH1 0x20 ADD PUSH0 KECCAK256 DUP1 SLOAD DUP1 PUSH1 0x20 MUL PUSH1 0x20 ADD PUSH1 0x40 MLOAD SWAP1 DUP2 ADD PUSH1 0x40 MSTORE DUP1 SWAP3 SWAP2 SWAP1 DUP2 DUP2 MSTORE PUSH1 0x20 ADD PUSH0 SWAP1 JUMPDEST DUP3 DUP3 LT ISZERO PUSH2 0x2A9 JUMPI DUP4 DUP3 SWAP1 PUSH0 MSTORE PUSH1 0x20 PUSH0 KECCAK256 SWAP1 PUSH1 0x3 MUL ADD PUSH1 0x40 MLOAD DUP1 PUSH1 0x60 ADD PUSH1 0x40 MSTORE SWAP1 DUP2 PUSH0 DUP3 ADD DUP1 SLOAD PUSH2 0x1BB SWAP1 PUSH2 0xB7D JUMP JUMPDEST DUP1 PUSH1 0x1F ADD PUSH1 0x20 DUP1 SWAP2 DIV MUL PUSH1 0x20 ADD PUSH1 0x40 MLOAD SWAP1 DUP2 ADD PUSH1 0x40 MSTORE DUP1 SWAP3 SWAP2 SWAP1 DUP2 DUP2 MSTORE PUSH1 0x20 ADD DUP3 DUP1 SLOAD PUSH2 0x1E7 SWAP1 PUSH2 0xB7D JUMP JUMPDEST DUP1 ISZERO PUSH2 0x232 JUMPI DUP1 PUSH1 0x1F LT PUSH2 0x209 JUMPI PUSH2 0x100 DUP1 DUP4 SLOAD DIV MUL DUP4 MSTORE SWAP2 PUSH1 0x20 ADD SWAP2 PUSH2 0x232 JUMP JUMPDEST DUP3 ADD SWAP2 SWAP1 PUSH0 MSTORE PUSH1 0x20 PUSH0 KECCAK256 SWAP1 JUMPDEST DUP2 SLOAD DUP2 MSTORE SWAP1 PUSH1 0x1 ADD SWAP1 PUSH1 0x20 ADD DUP1 DUP4 GT PUSH2 0x215 JUMPI DUP3 SWAP1 SUB PUSH1 0x1F AND DUP3 ADD SWAP2 JUMPDEST POP POP POP POP POP DUP2 MSTORE PUSH1 0x20 ADD PUSH1 0x1 DUP3 ADD SLOAD DUP2 MSTORE PUSH1 0x20 ADD PUSH1 0x2 DUP3 ADD PUSH0 SWAP1 SLOAD SWAP1 PUSH2 0x100 EXP SWAP1 DIV PUSH20 0xFFFFFFFFFFFFFFFFFFFFFFFFFFFFFFFFFFFFFFFF AND PUSH20 0xFFFFFFFFFFFFFFFFFFFFFFFFFFFFFFFFFFFFFFFF AND PUSH20 0xFFFFFFFFFFFFFFFFFFFFFFFFFFFFFFFFFFFFFFFF AND DUP2 MSTORE POP POP DUP2 MSTORE PUSH1 0x20 ADD SWAP1 PUSH1 0x1 ADD SWAP1 PUSH2 0x18B JUMP JUMPDEST POP POP POP POP SWAP1 POP SWAP1 JUMP JUMPDEST CALLER PUSH20 0xFFFFFFFFFFFFFFFFFFFFFFFFFFFFFFFFFFFFFFFF AND DUP3 PUSH20 0xFFFFFFFFFFFFFFFFFFFFFFFFFFFFFFFFFFFFFFFF AND SUB PUSH2 0x320 JUMPI PUSH1 0x40 MLOAD PUSH32 0x8C379A000000000000000000000000000000000000000000000000000000000 DUP2 MSTORE PUSH1 0x4 ADD PUSH2 0x317 SWAP1 PUSH2 0xC1D JUMP JUMPDEST PUSH1 0x40 MLOAD DUP1 SWAP2 SUB SWAP1 REVERT JUMPDEST TIMESTAMP CALLER PUSH20 0xFFFFFFFFFFFFFFFFFFFFFFFFFFFFFFFFFFFFFFFF AND DUP4 PUSH20 0xFFFFFFFFFFFFFFFFFFFFFFFFFFFFFFFFFFFFFFFF AND PUSH32 0x7E49D574E0305424AA957CB3F69B25F92AA58D53FDEE73F05E40019210A70BCE DUP5 PUSH1 0x40 MLOAD PUSH2 0x37E SWAP2 SWAP1 PUSH2 0xC73 JUMP JUMPDEST PUSH1 0x40 MLOAD DUP1 SWAP2 SUB SWAP1 LOG4 PUSH0 PUSH1 0x40 MLOAD DUP1 PUSH1 0x60 ADD PUSH1 0x40 MSTORE DUP1 DUP4 DUP2 MSTORE PUSH1 0x20 ADD TIMESTAMP DUP2 MSTORE PUSH1 0x20 ADD DUP5 PUSH20 0xFFFFFFFFFFFFFFFFFFFFFFFFFFFFFFFFFFFFFFFF AND DUP2 MSTORE POP SWAP1 POP PUSH0 DUP1 DUP5 PUSH20 0xFFFFFFFFFFFFFFFFFFFFFFFFFFFFFFFFFFFFFFFF AND PUSH20 0xFFFFFFFFFFFFFFFFFFFFFFFFFFFFFFFFFFFFFFFF AND DUP2 MSTORE PUSH1 0x20 ADD SWAP1 DUP2 MSTORE PUSH1 0x20 ADD PUSH0 KECCAK256 DUP2 SWAP1 DUP1 PUSH1 0x1 DUP2 SLOAD ADD DUP1 DUP3 SSTORE DUP1 SWAP2 POP POP PUSH1 0x1 SWAP1 SUB SWAP1 PUSH0 MSTORE PUSH1 0x20 PUSH0 KECCAK256 SWAP1 PUSH1 0x3 MUL ADD PUSH0 SWAP1 SWAP2 SWAP1 SWAP2 SWAP1 SWAP2 POP PUSH0 DUP3 ADD MLOAD DUP2 PUSH0 ADD SWAP1 DUP2 PUSH2 0x430 SWAP2 SWAP1 PUSH2 0xE30 JUMP JUMPDEST POP PUSH1 0x20 DUP3 ADD MLOAD DUP2 PUSH1 0x1 ADD SSTORE PUSH1 0x40 DUP3 ADD MLOAD DUP2 PUSH1 0x2 ADD PUSH0 PUSH2 0x100 EXP DUP2 SLOAD DUP2 PUSH20 0xFFFFFFFFFFFFFFFFFFFFFFFFFFFFFFFFFFFFFFFF MUL NOT AND SWAP1 DUP4 PUSH20 0xFFFFFFFFFFFFFFFFFFFFFFFFFFFFFFFFFFFFFFFF AND MUL OR SWAP1 SSTORE POP POP POP POP POP POP JUMP JUMPDEST PUSH1 0x60 CALLER PUSH20 0xFFFFFFFFFFFFFFFFFFFFFFFFFFFFFFFFFFFFFFFF AND DUP3 PUSH20 0xFFFFFFFFFFFFFFFFFFFFFFFFFFFFFFFFFFFFFFFF AND SUB PUSH2 0x4F8 JUMPI PUSH1 0x40 MLOAD PUSH32 0x8C379A000000000000000000000000000000000000000000000000000000000 DUP2 MSTORE PUSH1 0x4 ADD PUSH2 0x4EF SWAP1 PUSH2 0xF6F JUMP JUMPDEST PUSH1 0x40 MLOAD DUP1 SWAP2 SUB SWAP1 REVERT JUMPDEST PUSH0 DUP1 PUSH0 DUP5 PUSH20 0xFFFFFFFFFFFFFFFFFFFFFFFFFFFFFFFFFFFFFFFF AND PUSH20 0xFFFFFFFFFFFFFFFFFFFFFFFFFFFFFFFFFFFFFFFF AND DUP2 MSTORE PUSH1 0x20 ADD SWAP1 DUP2 MSTORE PUSH1 0x20 ADD PUSH0 KECCAK256 DUP1 SLOAD SWAP1 POP GT PUSH2 0x579 JUMPI PUSH1 0x40 MLOAD PUSH32 0x8C379A000000000000000000000000000000000000000000000000000000000 DUP2 MSTORE PUSH1 0x4 ADD PUSH2 0x570 SWAP1 PUSH2 0xB32 JUMP JUMPDEST PUSH1 0x40 MLOAD DUP1 SWAP2 SUB SWAP1 REVERT JUMPDEST PUSH0 DUP1 DUP4 PUSH20 0xFFFFFFFFFFFFFFFFFFFFFFFFFFFFFFFFFFFFFFFF AND PUSH20 0xFFFFFFFFFFFFFFFFFFFFFFFFFFFFFFFFFFFFFFFF AND DUP2 MSTORE PUSH1 0x20 ADD SWAP1 DUP2 MSTORE PUSH1 0x20 ADD PUSH0 KECCAK256 DUP1 SLOAD DUP1 PUSH1 0x20 MUL PUSH1 0x20 ADD PUSH1 0x40 MLOAD SWAP1 DUP2 ADD PUSH1 0x40 MSTORE DUP1 SWAP3 SWAP2 SWAP1 DUP2 DUP2 MSTORE PUSH1 0x20 ADD PUSH0 SWAP1 JUMPDEST DUP3 DUP3 LT ISZERO PUSH2 0x6F2 JUMPI DUP4 DUP3 SWAP1 PUSH0 MSTORE PUSH1 0x20 PUSH0 KECCAK256 SWAP1 PUSH1 0x3 MUL ADD PUSH1 0x40 MLOAD DUP1 PUSH1 0x60 ADD PUSH1 0x40 MSTORE SWAP1 DUP2 PUSH0 DUP3 ADD DUP1 SLOAD PUSH2 0x604 SWAP1 PUSH2 0xB7D JUMP JUMPDEST DUP1 PUSH1 0x1F ADD PUSH1 0x20 DUP1 SWAP2 DIV MUL PUSH1 0x20 ADD PUSH1 0x40 MLOAD SWAP1 DUP2 ADD PUSH1 0x40 MSTORE DUP1 SWAP3 SWAP2 SWAP1 DUP2 DUP2 MSTORE PUSH1 0x20 ADD DUP3 DUP1 SLOAD PUSH2 0x630 SWAP1 PUSH2 0xB7D JUMP JUMPDEST DUP1 ISZERO PUSH2 0x67B JUMPI DUP1 PUSH1 0x1F LT PUSH2 0x652 JUMPI PUSH2 0x100 DUP1 DUP4 SLOAD DIV MUL DUP4 MSTORE SWAP2 PUSH1 0x20 ADD SWAP2 PUSH2 0x67B JUMP JUMPDEST DUP3 ADD SWAP2 SWAP1 PUSH0 MSTORE PUSH1 0x20 PUSH0 KECCAK256 SWAP1 JUMPDEST DUP2 SLOAD DUP2 MSTORE SWAP1 PUSH1 0x1 ADD SWAP1 PUSH1 0x20 ADD DUP1 DUP4 GT PUSH2 0x65E JUMPI DUP3 SWAP1 SUB PUSH1 0x1F AND DUP3 ADD SWAP2 JUMPDEST POP POP POP POP POP DUP2 MSTORE PUSH1 0x20 ADD PUSH1 0x1 DUP3 ADD SLOAD DUP2 MSTORE PUSH1 0x20 ADD PUSH1 0x2 DUP3 ADD PUSH0 SWAP1 SLOAD SWAP1 PUSH2 0x100 EXP SWAP1 DIV PUSH20 0xFFFFFFFFFFFFFFFFFFFFFFFFFFFFFFFFFFFFFFFF AND PUSH20 0xFFFFFFFFFFFFFFFFFFFFFFFFFFFFFFFFFFFFFFFF AND PUSH20 0xFFFFFFFFFFFFFFFFFFFFFFFFFFFFFFFFFFFFFFFF AND DUP2 MSTORE POP POP DUP2 MSTORE PUSH1 0x20 ADD SWAP1 PUSH1 0x1 ADD SWAP1 PUSH2 0x5D4 JUMP JUMPDEST POP POP POP POP SWAP1 POP SWAP2 SWAP1 POP JUMP JUMPDEST PUSH0 DUP2 MLOAD SWAP1 POP SWAP2 SWAP1 POP JUMP JUMPDEST PUSH0 DUP3 DUP3 MSTORE PUSH1 0x20 DUP3 ADD SWAP1 POP SWAP3 SWAP2 POP POP JUMP JUMPDEST PUSH0 DUP2 SWAP1 POP PUSH1 0x20 DUP3 ADD SWAP1 POP SWAP2 SWAP1 POP JUMP JUMPDEST PUSH0 DUP2 MLOAD SWAP1 POP SWAP2 SWAP1 POP JUMP JUMPDEST PUSH0 DUP3 DUP3 MSTORE PUSH1 0x20 DUP3 ADD SWAP1 POP SWAP3 SWAP2 POP POP JUMP JUMPDEST DUP3 DUP2 DUP4 MCOPY PUSH0 DUP4 DUP4 ADD MSTORE POP POP POP JUMP JUMPDEST PUSH0 PUSH1 0x1F NOT PUSH1 0x1F DUP4 ADD AND SWAP1 POP SWAP2 SWAP1 POP JUMP JUMPDEST PUSH0 PUSH2 0x768 DUP3 PUSH2 0x726 JUMP JUMPDEST PUSH2 0x772 DUP2 DUP6 PUSH2 0x730 JUMP JUMPDEST SWAP4 POP PUSH2 0x782 DUP2 DUP6 PUSH1 0x20 DUP7 ADD PUSH2 0x740 JUMP JUMPDEST PUSH2 0x78B DUP2 PUSH2 0x74E JUMP JUMPDEST DUP5 ADD SWAP2 POP POP SWAP3 SWAP2 POP POP JUMP JUMPDEST PUSH0 DUP2 SWAP1 POP SWAP2 SWAP1 POP JUMP JUMPDEST PUSH2 0x7A8 DUP2 PUSH2 0x796 JUMP JUMPDEST DUP3 MSTORE POP POP JUMP JUMPDEST PUSH0 PUSH20 0xFFFFFFFFFFFFFFFFFFFFFFFFFFFFFFFFFFFFFFFF DUP3 AND SWAP1 POP SWAP2 SWAP1 POP JUMP JUMPDEST PUSH0 PUSH2 0x7D7 DUP3 PUSH2 0x7AE JUMP JUMPDEST SWAP1 POP SWAP2 SWAP1 POP JUMP JUMPDEST PUSH2 0x7E7 DUP2 PUSH2 0x7CD JUMP JUMPDEST DUP3 MSTORE POP POP JUMP JUMPDEST PUSH0 PUSH1 0x60 DUP4 ADD PUSH0 DUP4 ADD MLOAD DUP5 DUP3 SUB PUSH0 DUP7 ADD MSTORE PUSH2 0x807 DUP3 DUP3 PUSH2 0x75E JUMP JUMPDEST SWAP2 POP POP PUSH1 0x20 DUP4 ADD MLOAD PUSH2 0x81C PUSH1 0x20 DUP7 ADD DUP3 PUSH2 0x79F JUMP JUMPDEST POP PUSH1 0x40 DUP4 ADD MLOAD PUSH2 0x82F PUSH1 0x40 DUP7 ADD DUP3 PUSH2 0x7DE JUMP JUMPDEST POP DUP1 SWAP2 POP POP SWAP3 SWAP2 POP POP JUMP JUMPDEST PUSH0 PUSH2 0x845 DUP4 DUP4 PUSH2 0x7ED JUMP JUMPDEST SWAP1 POP SWAP3 SWAP2 POP POP JUMP JUMPDEST PUSH0 PUSH1 0x20 DUP3 ADD SWAP1 POP SWAP2 SWAP1 POP JUMP JUMPDEST PUSH0 PUSH2 0x863 DUP3 PUSH2 0x6FD JUMP JUMPDEST PUSH2 0x86D DUP2 DUP6 PUSH2 0x707 JUMP JUMPDEST SWAP4 POP DUP4 PUSH1 0x20 DUP3 MUL DUP6 ADD PUSH2 0x87F DUP6 PUSH2 0x717 JUMP JUMPDEST DUP1 PUSH0 JUMPDEST DUP6 DUP2 LT ISZERO PUSH2 0x8BA JUMPI DUP5 DUP5 SUB DUP10 MSTORE DUP2 MLOAD PUSH2 0x89B DUP6 DUP3 PUSH2 0x83A JUMP JUMPDEST SWAP5 POP PUSH2 0x8A6 DUP4 PUSH2 0x84D JUMP JUMPDEST SWAP3 POP PUSH1 0x20 DUP11 ADD SWAP10 POP POP PUSH1 0x1 DUP2 ADD SWAP1 POP PUSH2 0x882 JUMP JUMPDEST POP DUP3 SWAP8 POP DUP8 SWAP6 POP POP POP POP POP POP SWAP3 SWAP2 POP POP JUMP JUMPDEST PUSH0 PUSH1 0x20 DUP3 ADD SWAP1 POP DUP2 DUP2 SUB PUSH0 DUP4 ADD MSTORE PUSH2 0x8E4 DUP2 DUP5 PUSH2 0x859 JUMP JUMPDEST SWAP1 POP SWAP3 SWAP2 POP POP JUMP JUMPDEST PUSH0 PUSH1 0x40 MLOAD SWAP1 POP SWAP1 JUMP JUMPDEST PUSH0 DUP1 REVERT JUMPDEST PUSH0 DUP1 REVERT JUMPDEST PUSH2 0x906 DUP2 PUSH2 0x7CD JUMP JUMPDEST DUP2 EQ PUSH2 0x910 JUMPI PUSH0 DUP1 REVERT JUMPDEST POP JUMP JUMPDEST PUSH0 DUP2 CALLDATALOAD SWAP1 POP PUSH2 0x921 DUP2 PUSH2 0x8FD JUMP JUMPDEST SWAP3 SWAP2 POP POP JUMP JUMPDEST PUSH0 DUP1 REVERT JUMPDEST PUSH0 DUP1 REVERT JUMPDEST PUSH32 0x4E487B7100000000000000000000000000000000000000000000000000000000 PUSH0 MSTORE PUSH1 0x41 PUSH1 0x4 MSTORE PUSH1 0x24 PUSH0 REVERT JUMPDEST PUSH2 0x965 DUP3 PUSH2 0x74E JUMP JUMPDEST DUP2 ADD DUP2 DUP2 LT PUSH8 0xFFFFFFFFFFFFFFFF DUP3 GT OR ISZERO PUSH2 0x984 JUMPI PUSH2 0x983 PUSH2 0x92F JUMP JUMPDEST JUMPDEST DUP1 PUSH1 0x40 MSTORE POP POP POP JUMP JUMPDEST PUSH0 PUSH2 0x996 PUSH2 0x8EC JUMP JUMPDEST SWAP1 POP PUSH2 0x9A2 DUP3 DUP3 PUSH2 0x95C JUMP JUMPDEST SWAP2 SWAP1 POP JUMP JUMPDEST PUSH0 PUSH8 0xFFFFFFFFFFFFFFFF DUP3 GT ISZERO PUSH2 0x9C1 JUMPI PUSH2 0x9C0 PUSH2 0x92F JUMP JUMPDEST JUMPDEST PUSH2 0x9CA DUP3 PUSH2 0x74E JUMP JUMPDEST SWAP1 POP PUSH1 0x20 DUP2 ADD SWAP1 POP SWAP2 SWAP1 POP JUMP JUMPDEST DUP3 DUP2 DUP4 CALLDATACOPY PUSH0 DUP4 DUP4 ADD MSTORE POP POP POP JUMP JUMPDEST PUSH0 PUSH2 0x9F7 PUSH2 0x9F2 DUP5 PUSH2 0x9A7 JUMP JUMPDEST PUSH2 0x98D JUMP JUMPDEST SWAP1 POP DUP3 DUP2 MSTORE PUSH1 0x20 DUP2 ADD DUP5 DUP5 DUP5 ADD GT ISZERO PUSH2 0xA13 JUMPI PUSH2 0xA12 PUSH2 0x92B JUMP JUMPDEST JUMPDEST PUSH2 0xA1E DUP5 DUP3 DUP6 PUSH2 0x9D7 JUMP JUMPDEST POP SWAP4 SWAP3 POP POP POP JUMP JUMPDEST PUSH0 DUP3 PUSH1 0x1F DUP4 ADD SLT PUSH2 0xA3A JUMPI PUSH2 0xA39 PUSH2 0x927 JUMP JUMPDEST JUMPDEST DUP2 CALLDATALOAD PUSH2 0xA4A DUP5 DUP3 PUSH1 0x20 DUP7 ADD PUSH2 0x9E5 JUMP JUMPDEST SWAP2 POP POP SWAP3 SWAP2 POP POP JUMP JUMPDEST PUSH0 DUP1 PUSH1 0x40 DUP4 DUP6 SUB SLT ISZERO PUSH2 0xA69 JUMPI PUSH2 0xA68 PUSH2 0x8F5 JUMP JUMPDEST JUMPDEST PUSH0 PUSH2 0xA76 DUP6 DUP3 DUP7 ADD PUSH2 0x913 JUMP JUMPDEST SWAP3 POP POP PUSH1 0x20 DUP4 ADD CALLDATALOAD PUSH8 0xFFFFFFFFFFFFFFFF DUP2 GT ISZERO PUSH2 0xA97 JUMPI PUSH2 0xA96 PUSH2 0x8F9 JUMP JUMPDEST JUMPDEST PUSH2 0xAA3 DUP6 DUP3 DUP7 ADD PUSH2 0xA26 JUMP JUMPDEST SWAP2 POP POP SWAP3 POP SWAP3 SWAP1 POP JUMP JUMPDEST PUSH0 PUSH1 0x20 DUP3 DUP5 SUB SLT ISZERO PUSH2 0xAC2 JUMPI PUSH2 0xAC1 PUSH2 0x8F5 JUMP JUMPDEST JUMPDEST PUSH0 PUSH2 0xACF DUP5 DUP3 DUP6 ADD PUSH2 0x913 JUMP JUMPDEST SWAP2 POP POP SWAP3 SWAP2 POP POP JUMP JUMPDEST PUSH0 DUP3 DUP3 MSTORE PUSH1 0x20 DUP3 ADD SWAP1 POP SWAP3 SWAP2 POP POP JUMP JUMPDEST PUSH32 0x7573657220646F6573206E6F742068617665206D657373616765000000000000 PUSH0 DUP3 ADD MSTORE POP JUMP JUMPDEST PUSH0 PUSH2 0xB1C PUSH1 0x1A DUP4 PUSH2 0xAD8 JUMP JUMPDEST SWAP2 POP PUSH2 0xB27 DUP3 PUSH2 0xAE8 JUMP JUMPDEST PUSH1 0x20 DUP3 ADD SWAP1 POP SWAP2 SWAP1 POP JUMP JUMPDEST PUSH0 PUSH1 0x20 DUP3 ADD SWAP1 POP DUP2 DUP2 SUB PUSH0 DUP4 ADD MSTORE PUSH2 0xB49 DUP2 PUSH2 0xB10 JUMP JUMPDEST SWAP1 POP SWAP2 SWAP1 POP JUMP JUMPDEST PUSH32 0x4E487B7100000000000000000000000000000000000000000000000000000000 PUSH0 MSTORE PUSH1 0x22 PUSH1 0x4 MSTORE PUSH1 0x24 PUSH0 REVERT JUMPDEST PUSH0 PUSH1 0x2 DUP3 DIV SWAP1 POP PUSH1 0x1 DUP3 AND DUP1 PUSH2 0xB94 JUMPI PUSH1 0x7F DUP3 AND SWAP2 POP JUMPDEST PUSH1 0x20 DUP3 LT DUP2 SUB PUSH2 0xBA7 JUMPI PUSH2 0xBA6 PUSH2 0xB50 JUMP JUMPDEST JUMPDEST POP SWAP2 SWAP1 POP JUMP JUMPDEST PUSH32 0x796F752063616E27742073656E642061206D65737361676520746F20796F7572 PUSH0 DUP3 ADD MSTORE PUSH32 0x73656C6600000000000000000000000000000000000000000000000000000000 PUSH1 0x20 DUP3 ADD MSTORE POP JUMP JUMPDEST PUSH0 PUSH2 0xC07 PUSH1 0x24 DUP4 PUSH2 0xAD8 JUMP JUMPDEST SWAP2 POP PUSH2 0xC12 DUP3 PUSH2 0xBAD JUMP JUMPDEST PUSH1 0x40 DUP3 ADD SWAP1 POP SWAP2 SWAP1 POP JUMP JUMPDEST PUSH0 PUSH1 0x20 DUP3 ADD SWAP1 POP DUP2 DUP2 SUB PUSH0 DUP4 ADD MSTORE PUSH2 0xC34 DUP2 PUSH2 0xBFB JUMP JUMPDEST SWAP1 POP SWAP2 SWAP1 POP JUMP JUMPDEST PUSH0 PUSH2 0xC45 DUP3 PUSH2 0x726 JUMP JUMPDEST PUSH2 0xC4F DUP2 DUP6 PUSH2 0xAD8 JUMP JUMPDEST SWAP4 POP PUSH2 0xC5F DUP2 DUP6 PUSH1 0x20 DUP7 ADD PUSH2 0x740 JUMP JUMPDEST PUSH2 0xC68 DUP2 PUSH2 0x74E JUMP JUMPDEST DUP5 ADD SWAP2 POP POP SWAP3 SWAP2 POP POP JUMP JUMPDEST PUSH0 PUSH1 0x20 DUP3 ADD SWAP1 POP DUP2 DUP2 SUB PUSH0 DUP4 ADD MSTORE PUSH2 0xC8B DUP2 DUP5 PUSH2 0xC3B JUMP JUMPDEST SWAP1 POP SWAP3 SWAP2 POP POP JUMP JUMPDEST PUSH0 DUP2 SWAP1 POP DUP2 PUSH0 MSTORE PUSH1 0x20 PUSH0 KECCAK256 SWAP1 POP SWAP2 SWAP1 POP JUMP JUMPDEST PUSH0 PUSH1 0x20 PUSH1 0x1F DUP4 ADD DIV SWAP1 POP SWAP2 SWAP1 POP JUMP JUMPDEST PUSH0 DUP3 DUP3 SHL SWAP1 POP SWAP3 SWAP2 POP POP JUMP JUMPDEST PUSH0 PUSH1 0x8 DUP4 MUL PUSH2 0xCEF PUSH32 0xFFFFFFFFFFFFFFFFFFFFFFFFFFFFFFFFFFFFFFFFFFFFFFFFFFFFFFFFFFFFFFFF DUP3 PUSH2 0xCB4 JUMP JUMPDEST PUSH2 0xCF9 DUP7 DUP4 PUSH2 0xCB4 JUMP JUMPDEST SWAP6 POP DUP1 NOT DUP5 AND SWAP4 POP DUP1 DUP7 AND DUP5 OR SWAP3 POP POP POP SWAP4 SWAP3 POP POP POP JUMP JUMPDEST PUSH0 DUP2 SWAP1 POP SWAP2 SWAP1 POP JUMP JUMPDEST PUSH0 PUSH2 0xD34 PUSH2 0xD2F PUSH2 0xD2A DUP5 PUSH2 0x796 JUMP JUMPDEST PUSH2 0xD11 JUMP JUMPDEST PUSH2 0x796 JUMP JUMPDEST SWAP1 POP SWAP2 SWAP1 POP JUMP JUMPDEST PUSH0 DUP2 SWAP1 POP SWAP2 SWAP1 POP JUMP JUMPDEST PUSH2 0xD4D DUP4 PUSH2 0xD1A JUMP JUMPDEST PUSH2 0xD61 PUSH2 0xD59 DUP3 PUSH2 0xD3B JUMP JUMPDEST DUP5 DUP5 SLOAD PUSH2 0xCC0 JUMP JUMPDEST DUP3 SSTORE POP POP POP POP JUMP JUMPDEST PUSH0 SWAP1 JUMP JUMPDEST PUSH2 0xD75 PUSH2 0xD69 JUMP JUMPDEST PUSH2 0xD80 DUP2 DUP5 DUP5 PUSH2 0xD44 JUMP JUMPDEST POP POP POP JUMP JUMPDEST JUMPDEST DUP2 DUP2 LT ISZERO PUSH2 0xDA3 JUMPI PUSH2 0xD98 PUSH0 DUP3 PUSH2 0xD6D JUMP JUMPDEST PUSH1 0x1 DUP2 ADD SWAP1 POP PUSH2 0xD86 JUMP JUMPDEST POP POP JUMP JUMPDEST PUSH1 0x1F DUP3 GT ISZERO PUSH2 0xDE8 JUMPI PUSH2 0xDB9 DUP2 PUSH2 0xC93 JUMP JUMPDEST PUSH2 0xDC2 DUP5 PUSH2 0xCA5 JUMP JUMPDEST DUP2 ADD PUSH1 0x20 DUP6 LT ISZERO PUSH2 0xDD1 JUMPI DUP2 SWAP1 POP JUMPDEST PUSH2 0xDE5 PUSH2 0xDDD DUP6 PUSH2 0xCA5 JUMP JUMPDEST DUP4 ADD DUP3 PUSH2 0xD85 JUMP JUMPDEST POP POP JUMPDEST POP POP POP JUMP JUMPDEST PUSH0 DUP3 DUP3 SHR SWAP1 POP SWAP3 SWAP2 POP POP JUMP JUMPDEST PUSH0 PUSH2 0xE08 PUSH0 NOT DUP5 PUSH1 0x8 MUL PUSH2 0xDED JUMP JUMPDEST NOT DUP1 DUP4 AND SWAP2 POP POP SWAP3 SWAP2 POP POP JUMP JUMPDEST PUSH0 PUSH2 0xE20 DUP4 DUP4 PUSH2 0xDF9 JUMP JUMPDEST SWAP2 POP DUP3 PUSH1 0x2 MUL DUP3 OR SWAP1 POP SWAP3 SWAP2 POP POP JUMP JUMPDEST PUSH2 0xE39 DUP3 PUSH2 0x726 JUMP JUMPDEST PUSH8 0xFFFFFFFFFFFFFFFF DUP2 GT ISZERO PUSH2 0xE52 JUMPI PUSH2 0xE51 PUSH2 0x92F JUMP JUMPDEST JUMPDEST PUSH2 0xE5C DUP3 SLOAD PUSH2 0xB7D JUMP JUMPDEST PUSH2 0xE67 DUP3 DUP3 DUP6 PUSH2 0xDA7 JUMP JUMPDEST PUSH0 PUSH1 0x20 SWAP1 POP PUSH1 0x1F DUP4 GT PUSH1 0x1 DUP2 EQ PUSH2 0xE98 JUMPI PUSH0 DUP5 ISZERO PUSH2 0xE86 JUMPI DUP3 DUP8 ADD MLOAD SWAP1 POP JUMPDEST PUSH2 0xE90 DUP6 DUP3 PUSH2 0xE15 JUMP JUMPDEST DUP7 SSTORE POP PUSH2 0xEF7 JUMP JUMPDEST PUSH1 0x1F NOT DUP5 AND PUSH2 0xEA6 DUP7 PUSH2 0xC93 JUMP JUMPDEST PUSH0 JUMPDEST DUP3 DUP2 LT ISZERO PUSH2 0xECD JUMPI DUP5 DUP10 ADD MLOAD DUP3 SSTORE PUSH1 0x1 DUP3 ADD SWAP2 POP PUSH1 0x20 DUP6 ADD SWAP5 POP PUSH1 0x20 DUP2 ADD SWAP1 POP PUSH2 0xEA8 JUMP JUMPDEST DUP7 DUP4 LT ISZERO PUSH2 0xEEA JUMPI DUP5 DUP10 ADD MLOAD PUSH2 0xEE6 PUSH1 0x1F DUP10 AND DUP3 PUSH2 0xDF9 JUMP JUMPDEST DUP4 SSTORE POP JUMPDEST PUSH1 0x1 PUSH1 0x2 DUP9 MUL ADD DUP9 SSTORE POP POP POP JUMPDEST POP POP POP POP POP POP JUMP JUMPDEST PUSH32 0x796F752063616E206E6F742073656520616E6F74686572207573657273206D65 PUSH0 DUP3 ADD MSTORE PUSH32 0x7373616765730000000000000000000000000000000000000000000000000000 PUSH1 0x20 DUP3 ADD MSTORE POP JUMP JUMPDEST PUSH0 PUSH2 0xF59 PUSH1 0x26 DUP4 PUSH2 0xAD8 JUMP JUMPDEST SWAP2 POP PUSH2 0xF64 DUP3 PUSH2 0xEFF JUMP JUMPDEST PUSH1 0x40 DUP3 ADD SWAP1 POP SWAP2 SWAP1 POP JUMP JUMPDEST PUSH0 PUSH1 0x20 DUP3 ADD SWAP1 POP DUP2 DUP2 SUB PUSH0 DUP4 ADD MSTORE PUSH2 0xF86 DUP2 PUSH2 0xF4D JUMP JUMPDEST SWAP1 POP SWAP2 SWAP1 POP JUMP INVALID LOG2 PUSH5 0x6970667358 0x22 SLT KECCAK256 PUSH22 0x55CD5A2E4606099AD79979B4190F6D4177BA1FEAC5B5 0xE6 EXTCODEHASH PUSH20 0xBC5F0B66B04564736F6C634300081A0033000000 "
				},
				"gasEstimates": {
					"creation": {
						"codeDepositCost": "807000",
						"executionCost": "842",
						"totalCost": "807842"
					},
					"external": {
						"getMessages(address)": "infinite",
						"getSenderMessages()": "infinite",
						"send(address,string)": "infinite"
					}
				},
				"methodIdentifiers": {
					"getMessages(address)": "b2f71322",
					"getSenderMessages()": "5efe1ab8",
					"send(address,string)": "99142b5f"
				}
			},
			"storageLayout": {
				"storage": [
					{
						"astId": 14,
						"contract": "message-board/board.sol:MessageBoard",
						"label": "messages",
						"offset": 0,
						"slot": "0",
						"type": "t_mapping(t_address,t_array(t_struct(Message)8_storage)dyn_storage)"
					}
				],
				"types": {
					"t_address": {
						"encoding": "inplace",
						"label": "address",
						"numberOfBytes": "20"
					},
					"t_array(t_struct(Message)8_storage)dyn_storage": {
						"base": "t_struct(Message)8_storage",
						"encoding": "dynamic_array",
						"label": "struct MessageBoard.Message[]",
						"numberOfBytes": "32"
					},
					"t_mapping(t_address,t_array(t_struct(Message)8_storage)dyn_storage)": {
						"encoding": "mapping",
						"key": "t_address",
						"label": "mapping(address => struct MessageBoard.Message[])",
						"numberOfBytes": "32",
						"value": "t_array(t_struct(Message)8_storage)dyn_storage"
					},
					"t_string_storage": {
						"encoding": "bytes",
						"label": "string",
						"numberOfBytes": "32"
					},
					"t_struct(Message)8_storage": {
						"encoding": "inplace",
						"label": "struct MessageBoard.Message",
						"members": [
							{
								"astId": 3,
								"contract": "message-board/board.sol:MessageBoard",
								"label": "text",
								"offset": 0,
								"slot": "0",
								"type": "t_string_storage"
							},
							{
								"astId": 5,
								"contract": "message-board/board.sol:MessageBoard",
								"label": "sentTime",
								"offset": 0,
								"slot": "1",
								"type": "t_uint256"
							},
							{
								"astId": 7,
								"contract": "message-board/board.sol:MessageBoard",
								"label": "sender",
								"offset": 0,
								"slot": "2",
								"type": "t_address"
							}
						],
						"numberOfBytes": "96"
					},
					"t_uint256": {
						"encoding": "inplace",
						"label": "uint256",
						"numberOfBytes": "32"
					}
				}
			},
			"userdoc": {
				"kind": "user",
				"methods": {},
				"version": 1
			}
		}
	}
}