{
	"stake/stake.sol": {
		"FitechStaking": {
			"abi": [
				{
					"inputs": [
						{
							"internalType": "address",
							"name": "_rewardToken",
							"type": "address"
						}
					],
					"stateMutability": "nonpayable",
					"type": "constructor"
				},
				{
					"anonymous": false,
					"inputs": [
						{
							"indexed": true,
							"internalType": "address",
							"name": "_user",
							"type": "address"
						},
						{
							"indexed": false,
							"internalType": "uint256",
							"name": "_amount",
							"type": "uint256"
						},
						{
							"indexed": false,
							"internalType": "uint256",
							"name": "stakedTime",
							"type": "uint256"
						}
					],
					"name": "Staked",
					"type": "event"
				},
				{
					"anonymous": false,
					"inputs": [
						{
							"indexed": true,
							"internalType": "address",
							"name": "_user",
							"type": "address"
						},
						{
							"indexed": false,
							"internalType": "uint256",
							"name": "_amount",
							"type": "uint256"
						},
						{
							"indexed": false,
							"internalType": "uint256",
							"name": "unstakedTime",
							"type": "uint256"
						}
					],
					"name": "unStaked",
					"type": "event"
				},
				{
					"inputs": [],
					"name": "rewardsToken",
					"outputs": [
						{
							"internalType": "contract IERC20",
							"name": "",
							"type": "address"
						}
					],
					"stateMutability": "view",
					"type": "function"
				},
				{
					"inputs": [
						{
							"internalType": "uint256",
							"name": "_durationInDay",
							"type": "uint256"
						}
					],
					"name": "stake",
					"outputs": [],
					"stateMutability": "payable",
					"type": "function"
				},
				{
					"inputs": [],
					"name": "updatStaking",
					"outputs": [],
					"stateMutability": "payable",
					"type": "function"
				},
				{
					"inputs": [],
					"name": "withdraw",
					"outputs": [],
					"stateMutability": "nonpayable",
					"type": "function"
				}
			],
			"devdoc": {
				"kind": "dev",
				"methods": {},
				"version": 1
			},
			"evm": {
				"assembly": "    /* \"stake/stake.sol\":128:2116  contract FitechStaking {... */\n  mstore(0x40, 0x80)\n    /* \"stake/stake.sol\":208:210  10 */\n  0x0a\n    /* \"stake/stake.sol\":191:210  uint256 reward = 10 */\n  0x01\n  sstore\n    /* \"stake/stake.sol\":797:914  constructor(address _rewardToken) {... */\n  callvalue\n  dup1\n  iszero\n  tag_1\n  jumpi\n  0x00\n  dup1\n  revert\ntag_1:\n  pop\n  mload(0x40)\n  sub(codesize, bytecodeSize)\n  dup1\n  bytecodeSize\n  dup4\n  codecopy\n  dup2\n  dup2\n  add\n  0x40\n  mstore\n  dup2\n  add\n  swap1\n  tag_2\n  swap2\n  swap1\n  tag_3\n  jump\t// in\ntag_2:\n    /* \"stake/stake.sol\":864:876  _rewardToken */\n  dup1\n    /* \"stake/stake.sol\":842:854  rewardsToken */\n  0x00\n  dup1\n    /* \"stake/stake.sol\":842:877  rewardsToken = IERC20(_rewardToken) */\n  0x0100\n  exp\n  dup2\n  sload\n  dup2\n  0xffffffffffffffffffffffffffffffffffffffff\n  mul\n  not\n  and\n  swap1\n  dup4\n  0xffffffffffffffffffffffffffffffffffffffff\n  and\n  mul\n  or\n  swap1\n  sstore\n  pop\n    /* \"stake/stake.sol\":896:906  msg.sender */\n  caller\n    /* \"stake/stake.sol\":888:893  owner */\n  0x03\n  0x00\n    /* \"stake/stake.sol\":888:906  owner = msg.sender */\n  0x0100\n  exp\n  dup2\n  sload\n  dup2\n  0xffffffffffffffffffffffffffffffffffffffff\n  mul\n  not\n  and\n  swap1\n  dup4\n  0xffffffffffffffffffffffffffffffffffffffff\n  and\n  mul\n  or\n  swap1\n  sstore\n  pop\n    /* \"stake/stake.sol\":797:914  constructor(address _rewardToken) {... */\n  pop\n    /* \"stake/stake.sol\":128:2116  contract FitechStaking {... */\n  jump(tag_6)\n    /* \"#utility.yul\":88:205   */\ntag_8:\n    /* \"#utility.yul\":197:198   */\n  0x00\n    /* \"#utility.yul\":194:195   */\n  dup1\n    /* \"#utility.yul\":187:199   */\n  revert\n    /* \"#utility.yul\":334:460   */\ntag_10:\n    /* \"#utility.yul\":371:378   */\n  0x00\n    /* \"#utility.yul\":411:453   */\n  0xffffffffffffffffffffffffffffffffffffffff\n    /* \"#utility.yul\":404:409   */\n  dup3\n    /* \"#utility.yul\":400:454   */\n  and\n    /* \"#utility.yul\":389:454   */\n  swap1\n  pop\n    /* \"#utility.yul\":334:460   */\n  swap2\n  swap1\n  pop\n  jump\t// out\n    /* \"#utility.yul\":466:562   */\ntag_11:\n    /* \"#utility.yul\":503:510   */\n  0x00\n    /* \"#utility.yul\":532:556   */\n  tag_20\n    /* \"#utility.yul\":550:555   */\n  dup3\n    /* \"#utility.yul\":532:556   */\n  tag_10\n  jump\t// in\ntag_20:\n    /* \"#utility.yul\":521:556   */\n  swap1\n  pop\n    /* \"#utility.yul\":466:562   */\n  swap2\n  swap1\n  pop\n  jump\t// out\n    /* \"#utility.yul\":568:690   */\ntag_12:\n    /* \"#utility.yul\":641:665   */\n  tag_22\n    /* \"#utility.yul\":659:664   */\n  dup2\n    /* \"#utility.yul\":641:665   */\n  tag_11\n  jump\t// in\ntag_22:\n    /* \"#utility.yul\":634:639   */\n  dup2\n    /* \"#utility.yul\":631:666   */\n  eq\n    /* \"#utility.yul\":621:684   */\n  tag_23\n  jumpi\n    /* \"#utility.yul\":680:681   */\n  0x00\n    /* \"#utility.yul\":677:678   */\n  dup1\n    /* \"#utility.yul\":670:682   */\n  revert\n    /* \"#utility.yul\":621:684   */\ntag_23:\n    /* \"#utility.yul\":568:690   */\n  pop\n  jump\t// out\n    /* \"#utility.yul\":696:839   */\ntag_13:\n    /* \"#utility.yul\":753:758   */\n  0x00\n    /* \"#utility.yul\":784:790   */\n  dup2\n    /* \"#utility.yul\":778:791   */\n  mload\n    /* \"#utility.yul\":769:791   */\n  swap1\n  pop\n    /* \"#utility.yul\":800:833   */\n  tag_25\n    /* \"#utility.yul\":827:832   */\n  dup2\n    /* \"#utility.yul\":800:833   */\n  tag_12\n  jump\t// in\ntag_25:\n    /* \"#utility.yul\":696:839   */\n  swap3\n  swap2\n  pop\n  pop\n  jump\t// out\n    /* \"#utility.yul\":845:1196   */\ntag_3:\n    /* \"#utility.yul\":915:921   */\n  0x00\n    /* \"#utility.yul\":964:966   */\n  0x20\n    /* \"#utility.yul\":952:961   */\n  dup3\n    /* \"#utility.yul\":943:950   */\n  dup5\n    /* \"#utility.yul\":939:962   */\n  sub\n    /* \"#utility.yul\":935:967   */\n  slt\n    /* \"#utility.yul\":932:1051   */\n  iszero\n  tag_27\n  jumpi\n    /* \"#utility.yul\":970:1049   */\n  tag_28\n  tag_8\n  jump\t// in\ntag_28:\n    /* \"#utility.yul\":932:1051   */\ntag_27:\n    /* \"#utility.yul\":1090:1091   */\n  0x00\n    /* \"#utility.yul\":1115:1179   */\n  tag_29\n    /* \"#utility.yul\":1171:1178   */\n  dup5\n    /* \"#utility.yul\":1162:1168   */\n  dup3\n    /* \"#utility.yul\":1151:1160   */\n  dup6\n    /* \"#utility.yul\":1147:1169   */\n  add\n    /* \"#utility.yul\":1115:1179   */\n  tag_13\n  jump\t// in\ntag_29:\n    /* \"#utility.yul\":1105:1179   */\n  swap2\n  pop\n    /* \"#utility.yul\":1061:1189   */\n  pop\n    /* \"#utility.yul\":845:1196   */\n  swap3\n  swap2\n  pop\n  pop\n  jump\t// out\n    /* \"stake/stake.sol\":128:2116  contract FitechStaking {... */\ntag_6:\n  dataSize(sub_0)\n  dup1\n  dataOffset(sub_0)\n  0x00\n  codecopy\n  0x00\n  return\nstop\n\nsub_0: assembly {\n        /* \"stake/stake.sol\":128:2116  contract FitechStaking {... */\n      mstore(0x40, 0x80)\n      jumpi(tag_1, lt(calldatasize, 0x04))\n      shr(0xe0, calldataload(0x00))\n      dup1\n      0x3139b12b\n      eq\n      tag_2\n      jumpi\n      dup1\n      0x3ccfd60b\n      eq\n      tag_3\n      jumpi\n      dup1\n      0xa694fc3a\n      eq\n      tag_4\n      jumpi\n      dup1\n      0xd1af0c7d\n      eq\n      tag_5\n      jumpi\n    tag_1:\n      0x00\n      dup1\n      revert\n        /* \"stake/stake.sol\":922:1194  function updatStaking() external payable {... */\n    tag_2:\n      tag_6\n      tag_7\n      jump\t// in\n    tag_6:\n      stop\n        /* \"stake/stake.sol\":2082:2113  function withdraw() external {} */\n    tag_3:\n      callvalue\n      dup1\n      iszero\n      tag_8\n      jumpi\n      0x00\n      dup1\n      revert\n    tag_8:\n      pop\n      tag_9\n      tag_10\n      jump\t// in\n    tag_9:\n      stop\n        /* \"stake/stake.sol\":1202:2074  function stake(uint256 _durationInDay) external payable {... */\n    tag_4:\n      tag_11\n      0x04\n      dup1\n      calldatasize\n      sub\n      dup2\n      add\n      swap1\n      tag_12\n      swap2\n      swap1\n      tag_13\n      jump\t// in\n    tag_12:\n      tag_14\n      jump\t// in\n    tag_11:\n      stop\n        /* \"stake/stake.sol\":158:184  IERC20 public rewardsToken */\n    tag_5:\n      callvalue\n      dup1\n      iszero\n      tag_15\n      jumpi\n      0x00\n      dup1\n      revert\n    tag_15:\n      pop\n      tag_16\n      tag_17\n      jump\t// in\n    tag_16:\n      mload(0x40)\n      tag_18\n      swap2\n      swap1\n      tag_19\n      jump\t// in\n    tag_18:\n      mload(0x40)\n      dup1\n      swap2\n      sub\n      swap1\n      return\n        /* \"stake/stake.sol\":922:1194  function updatStaking() external payable {... */\n    tag_7:\n        /* \"stake/stake.sol\":995:996  0 */\n      0x00\n        /* \"stake/stake.sol\":982:991  msg.value */\n      callvalue\n        /* \"stake/stake.sol\":982:996  msg.value != 0 */\n      sub\n        /* \"stake/stake.sol\":974:1032  require(msg.value != 0, \"you can not stake zero ethereum\") */\n      tag_21\n      jumpi\n      mload(0x40)\n      0x08c379a000000000000000000000000000000000000000000000000000000000\n      dup2\n      mstore\n      0x04\n      add\n      tag_22\n      swap1\n      tag_23\n      jump\t// in\n    tag_22:\n      mload(0x40)\n      dup1\n      swap2\n      sub\n      swap1\n      revert\n    tag_21:\n        /* \"stake/stake.sol\":1073:1074  0 */\n      0x00\n        /* \"stake/stake.sol\":1051:1075  msg.sender != address(0) */\n      0xffffffffffffffffffffffffffffffffffffffff\n      and\n        /* \"stake/stake.sol\":1051:1061  msg.sender */\n      caller\n        /* \"stake/stake.sol\":1051:1075  msg.sender != address(0) */\n      0xffffffffffffffffffffffffffffffffffffffff\n      and\n      sub\n        /* \"stake/stake.sol\":1043:1095  require(msg.sender != address(0), \"invalid address\") */\n      tag_24\n      jumpi\n      mload(0x40)\n      0x08c379a000000000000000000000000000000000000000000000000000000000\n      dup2\n      mstore\n      0x04\n      add\n      tag_25\n      swap1\n      tag_26\n      jump\t// in\n    tag_25:\n      mload(0x40)\n      dup1\n      swap2\n      sub\n      swap1\n      revert\n    tag_24:\n        /* \"stake/stake.sol\":1108:1125  User storage user */\n      0x00\n        /* \"stake/stake.sol\":1128:1137  userStake */\n      0x04\n        /* \"stake/stake.sol\":1128:1149  userStake[msg.sender] */\n      0x00\n        /* \"stake/stake.sol\":1138:1148  msg.sender */\n      caller\n        /* \"stake/stake.sol\":1128:1149  userStake[msg.sender] */\n      0xffffffffffffffffffffffffffffffffffffffff\n      and\n      0xffffffffffffffffffffffffffffffffffffffff\n      and\n      dup2\n      mstore\n      0x20\n      add\n      swap1\n      dup2\n      mstore\n      0x20\n      add\n      0x00\n      keccak256\n        /* \"stake/stake.sol\":1108:1149  User storage user = userStake[msg.sender] */\n      swap1\n      pop\n        /* \"stake/stake.sol\":1177:1186  msg.value */\n      callvalue\n        /* \"stake/stake.sol\":1162:1166  user */\n      dup2\n        /* \"stake/stake.sol\":1162:1173  user.amount */\n      0x00\n      add\n      0x00\n        /* \"stake/stake.sol\":1162:1186  user.amount += msg.value */\n      dup3\n      dup3\n      sload\n      tag_27\n      swap2\n      swap1\n      tag_28\n      jump\t// in\n    tag_27:\n      swap3\n      pop\n      pop\n      dup2\n      swap1\n      sstore\n      pop\n        /* \"stake/stake.sol\":963:1194  {... */\n      pop\n        /* \"stake/stake.sol\":922:1194  function updatStaking() external payable {... */\n      jump\t// out\n        /* \"stake/stake.sol\":2082:2113  function withdraw() external {} */\n    tag_10:\n      jump\t// out\n        /* \"stake/stake.sol\":1202:2074  function stake(uint256 _durationInDay) external payable {... */\n    tag_14:\n        /* \"stake/stake.sol\":1290:1291  0 */\n      0x00\n        /* \"stake/stake.sol\":1277:1286  msg.value */\n      callvalue\n        /* \"stake/stake.sol\":1277:1291  msg.value != 0 */\n      sub\n        /* \"stake/stake.sol\":1269:1326  require(msg.value != 0, \"Staking amount can not be zero\") */\n      tag_31\n      jumpi\n      mload(0x40)\n      0x08c379a000000000000000000000000000000000000000000000000000000000\n      dup2\n      mstore\n      0x04\n      add\n      tag_32\n      swap1\n      tag_33\n      jump\t// in\n    tag_32:\n      mload(0x40)\n      dup1\n      swap2\n      sub\n      swap1\n      revert\n    tag_31:\n        /* \"stake/stake.sol\":1363:1364  0 */\n      0x00\n        /* \"stake/stake.sol\":1345:1359  _durationInDay */\n      dup2\n        /* \"stake/stake.sol\":1345:1364  _durationInDay != 0 */\n      sub\n        /* \"stake/stake.sol\":1337:1393  require(_durationInDay != 0, \"diration can not be zero\") */\n      tag_34\n      jumpi\n      mload(0x40)\n      0x08c379a000000000000000000000000000000000000000000000000000000000\n      dup2\n      mstore\n      0x04\n      add\n      tag_35\n      swap1\n      tag_36\n      jump\t// in\n    tag_35:\n      mload(0x40)\n      dup1\n      swap2\n      sub\n      swap1\n      revert\n    tag_34:\n        /* \"stake/stake.sol\":1434:1435  0 */\n      0x00\n        /* \"stake/stake.sol\":1412:1436  msg.sender != address(0) */\n      0xffffffffffffffffffffffffffffffffffffffff\n      and\n        /* \"stake/stake.sol\":1412:1422  msg.sender */\n      caller\n        /* \"stake/stake.sol\":1412:1436  msg.sender != address(0) */\n      0xffffffffffffffffffffffffffffffffffffffff\n      and\n      sub\n        /* \"stake/stake.sol\":1404:1456  require(msg.sender != address(0), \"invalid address\") */\n      tag_37\n      jumpi\n      mload(0x40)\n      0x08c379a000000000000000000000000000000000000000000000000000000000\n      dup2\n      mstore\n      0x04\n      add\n      tag_38\n      swap1\n      tag_26\n      jump\t// in\n    tag_38:\n      mload(0x40)\n      dup1\n      swap2\n      sub\n      swap1\n      revert\n    tag_37:\n        /* \"stake/stake.sol\":1469:1484  uint256 _amount */\n      0x00\n        /* \"stake/stake.sol\":1487:1496  msg.value */\n      callvalue\n        /* \"stake/stake.sol\":1469:1496  uint256 _amount = msg.value */\n      swap1\n      pop\n        /* \"stake/stake.sol\":1530:1539  userStake */\n      0x04\n        /* \"stake/stake.sol\":1530:1551  userStake[msg.sender] */\n      0x00\n        /* \"stake/stake.sol\":1540:1550  msg.sender */\n      caller\n        /* \"stake/stake.sol\":1530:1551  userStake[msg.sender] */\n      0xffffffffffffffffffffffffffffffffffffffff\n      and\n      0xffffffffffffffffffffffffffffffffffffffff\n      and\n      dup2\n      mstore\n      0x20\n      add\n      swap1\n      dup2\n      mstore\n      0x20\n      add\n      0x00\n      keccak256\n        /* \"stake/stake.sol\":1530:1558  userStake[msg.sender].active */\n      0x04\n      add\n      0x00\n      swap1\n      sload\n      swap1\n      0x0100\n      exp\n      swap1\n      div\n      0xff\n      and\n        /* \"stake/stake.sol\":1529:1558  !userStake[msg.sender].active */\n      iszero\n        /* \"stake/stake.sol\":1507:1643  require(... */\n      tag_39\n      jumpi\n      mload(0x40)\n      0x08c379a000000000000000000000000000000000000000000000000000000000\n      dup2\n      mstore\n      0x04\n      add\n      tag_40\n      swap1\n      tag_41\n      jump\t// in\n    tag_40:\n      mload(0x40)\n      dup1\n      swap2\n      sub\n      swap1\n      revert\n    tag_39:\n        /* \"stake/stake.sol\":1680:1917  User({... */\n      mload(0x40)\n      dup1\n      0xa0\n      add\n      0x40\n      mstore\n      dup1\n        /* \"stake/stake.sol\":1708:1715  _amount */\n      dup3\n        /* \"stake/stake.sol\":1680:1917  User({... */\n      dup2\n      mstore\n      0x20\n      add\n        /* \"stake/stake.sol\":1758:1764  1 days */\n      0x015180\n        /* \"stake/stake.sol\":1741:1755  _durationInDay */\n      dup5\n        /* \"stake/stake.sol\":1741:1764  _durationInDay * 1 days */\n      tag_42\n      swap2\n      swap1\n      tag_43\n      jump\t// in\n    tag_42:\n        /* \"stake/stake.sol\":1680:1917  User({... */\n      dup2\n      mstore\n      0x20\n      add\n        /* \"stake/stake.sol\":1792:1807  block.timestamp */\n      timestamp\n        /* \"stake/stake.sol\":1680:1917  User({... */\n      dup2\n      mstore\n      0x20\n      add\n        /* \"stake/stake.sol\":1871:1877  1 days */\n      0x015180\n        /* \"stake/stake.sol\":1854:1868  _durationInDay */\n      dup5\n        /* \"stake/stake.sol\":1854:1877  _durationInDay * 1 days */\n      tag_44\n      swap2\n      swap1\n      tag_43\n      jump\t// in\n    tag_44:\n        /* \"stake/stake.sol\":1835:1850  block.timestamp */\n      timestamp\n        /* \"stake/stake.sol\":1835:1878  block.timestamp + (_durationInDay * 1 days) */\n      tag_45\n      swap2\n      swap1\n      tag_28\n      jump\t// in\n    tag_45:\n        /* \"stake/stake.sol\":1680:1917  User({... */\n      dup2\n      mstore\n      0x20\n      add\n        /* \"stake/stake.sol\":1901:1905  true */\n      0x01\n        /* \"stake/stake.sol\":1680:1917  User({... */\n      iszero\n      iszero\n      dup2\n      mstore\n      pop\n        /* \"stake/stake.sol\":1656:1665  userStake */\n      0x04\n        /* \"stake/stake.sol\":1656:1677  userStake[msg.sender] */\n      0x00\n        /* \"stake/stake.sol\":1666:1676  msg.sender */\n      caller\n        /* \"stake/stake.sol\":1656:1677  userStake[msg.sender] */\n      0xffffffffffffffffffffffffffffffffffffffff\n      and\n      0xffffffffffffffffffffffffffffffffffffffff\n      and\n      dup2\n      mstore\n      0x20\n      add\n      swap1\n      dup2\n      mstore\n      0x20\n      add\n      0x00\n      keccak256\n        /* \"stake/stake.sol\":1656:1917  userStake[msg.sender] = User({... */\n      0x00\n      dup3\n      add\n      mload\n      dup2\n      0x00\n      add\n      sstore\n      0x20\n      dup3\n      add\n      mload\n      dup2\n      0x01\n      add\n      sstore\n      0x40\n      dup3\n      add\n      mload\n      dup2\n      0x02\n      add\n      sstore\n      0x60\n      dup3\n      add\n      mload\n      dup2\n      0x03\n      add\n      sstore\n      0x80\n      dup3\n      add\n      mload\n      dup2\n      0x04\n      add\n      exp(0x0100, 0x00)\n      dup2\n      sload\n      dup2\n      0xff\n      mul\n      not\n      and\n      swap1\n      dup4\n      iszero\n      iszero\n      mul\n      or\n      swap1\n      sstore\n      pop\n      swap1\n      pop\n      pop\n        /* \"stake/stake.sol\":1964:1971  _amount */\n      dup1\n        /* \"stake/stake.sol\":1930:1948  stakedAmountByUser */\n      0x05\n        /* \"stake/stake.sol\":1930:1960  stakedAmountByUser[msg.sender] */\n      0x00\n        /* \"stake/stake.sol\":1949:1959  msg.sender */\n      caller\n        /* \"stake/stake.sol\":1930:1960  stakedAmountByUser[msg.sender] */\n      0xffffffffffffffffffffffffffffffffffffffff\n      and\n      0xffffffffffffffffffffffffffffffffffffffff\n      and\n      dup2\n      mstore\n      0x20\n      add\n      swap1\n      dup2\n      mstore\n      0x20\n      add\n      0x00\n      keccak256\n      0x00\n        /* \"stake/stake.sol\":1930:1971  stakedAmountByUser[msg.sender] += _amount */\n      dup3\n      dup3\n      sload\n      tag_46\n      swap2\n      swap1\n      tag_28\n      jump\t// in\n    tag_46:\n      swap3\n      pop\n      pop\n      dup2\n      swap1\n      sstore\n      pop\n        /* \"stake/stake.sol\":1997:2004  _amount */\n      dup1\n        /* \"stake/stake.sol\":1982:1993  totalStaked */\n      0x02\n      0x00\n        /* \"stake/stake.sol\":1982:2004  totalStaked += _amount */\n      dup3\n      dup3\n      sload\n      tag_47\n      swap2\n      swap1\n      tag_28\n      jump\t// in\n    tag_47:\n      swap3\n      pop\n      pop\n      dup2\n      swap1\n      sstore\n      pop\n        /* \"stake/stake.sol\":2029:2039  msg.sender */\n      caller\n        /* \"stake/stake.sol\":2022:2066  Staked(msg.sender, _amount, block.timestamp) */\n      0xffffffffffffffffffffffffffffffffffffffff\n      and\n      0x1449c6dd7851abc30abf37f57715f492010519147cc2652fbc38202c18a6ee90\n        /* \"stake/stake.sol\":2041:2048  _amount */\n      dup3\n        /* \"stake/stake.sol\":2050:2065  block.timestamp */\n      timestamp\n        /* \"stake/stake.sol\":2022:2066  Staked(msg.sender, _amount, block.timestamp) */\n      mload(0x40)\n      tag_48\n      swap3\n      swap2\n      swap1\n      tag_49\n      jump\t// in\n    tag_48:\n      mload(0x40)\n      dup1\n      swap2\n      sub\n      swap1\n      log2\n        /* \"stake/stake.sol\":1258:2074  {... */\n      pop\n        /* \"stake/stake.sol\":1202:2074  function stake(uint256 _durationInDay) external payable {... */\n      pop\n      jump\t// out\n        /* \"stake/stake.sol\":158:184  IERC20 public rewardsToken */\n    tag_17:\n      0x00\n      dup1\n      sload\n      swap1\n      0x0100\n      exp\n      swap1\n      div\n      0xffffffffffffffffffffffffffffffffffffffff\n      and\n      dup2\n      jump\t// out\n        /* \"#utility.yul\":88:205   */\n    tag_51:\n        /* \"#utility.yul\":197:198   */\n      0x00\n        /* \"#utility.yul\":194:195   */\n      dup1\n        /* \"#utility.yul\":187:199   */\n      revert\n        /* \"#utility.yul\":334:411   */\n    tag_53:\n        /* \"#utility.yul\":371:378   */\n      0x00\n        /* \"#utility.yul\":400:405   */\n      dup2\n        /* \"#utility.yul\":389:405   */\n      swap1\n      pop\n        /* \"#utility.yul\":334:411   */\n      swap2\n      swap1\n      pop\n      jump\t// out\n        /* \"#utility.yul\":417:539   */\n    tag_54:\n        /* \"#utility.yul\":490:514   */\n      tag_81\n        /* \"#utility.yul\":508:513   */\n      dup2\n        /* \"#utility.yul\":490:514   */\n      tag_53\n      jump\t// in\n    tag_81:\n        /* \"#utility.yul\":483:488   */\n      dup2\n        /* \"#utility.yul\":480:515   */\n      eq\n        /* \"#utility.yul\":470:533   */\n      tag_82\n      jumpi\n        /* \"#utility.yul\":529:530   */\n      0x00\n        /* \"#utility.yul\":526:527   */\n      dup1\n        /* \"#utility.yul\":519:531   */\n      revert\n        /* \"#utility.yul\":470:533   */\n    tag_82:\n        /* \"#utility.yul\":417:539   */\n      pop\n      jump\t// out\n        /* \"#utility.yul\":545:684   */\n    tag_55:\n        /* \"#utility.yul\":591:596   */\n      0x00\n        /* \"#utility.yul\":629:635   */\n      dup2\n        /* \"#utility.yul\":616:636   */\n      calldataload\n        /* \"#utility.yul\":607:636   */\n      swap1\n      pop\n        /* \"#utility.yul\":645:678   */\n      tag_84\n        /* \"#utility.yul\":672:677   */\n      dup2\n        /* \"#utility.yul\":645:678   */\n      tag_54\n      jump\t// in\n    tag_84:\n        /* \"#utility.yul\":545:684   */\n      swap3\n      swap2\n      pop\n      pop\n      jump\t// out\n        /* \"#utility.yul\":690:1019   */\n    tag_13:\n        /* \"#utility.yul\":749:755   */\n      0x00\n        /* \"#utility.yul\":798:800   */\n      0x20\n        /* \"#utility.yul\":786:795   */\n      dup3\n        /* \"#utility.yul\":777:784   */\n      dup5\n        /* \"#utility.yul\":773:796   */\n      sub\n        /* \"#utility.yul\":769:801   */\n      slt\n        /* \"#utility.yul\":766:885   */\n      iszero\n      tag_86\n      jumpi\n        /* \"#utility.yul\":804:883   */\n      tag_87\n      tag_51\n      jump\t// in\n    tag_87:\n        /* \"#utility.yul\":766:885   */\n    tag_86:\n        /* \"#utility.yul\":924:925   */\n      0x00\n        /* \"#utility.yul\":949:1002   */\n      tag_88\n        /* \"#utility.yul\":994:1001   */\n      dup5\n        /* \"#utility.yul\":985:991   */\n      dup3\n        /* \"#utility.yul\":974:983   */\n      dup6\n        /* \"#utility.yul\":970:992   */\n      add\n        /* \"#utility.yul\":949:1002   */\n      tag_55\n      jump\t// in\n    tag_88:\n        /* \"#utility.yul\":939:1002   */\n      swap2\n      pop\n        /* \"#utility.yul\":895:1012   */\n      pop\n        /* \"#utility.yul\":690:1019   */\n      swap3\n      swap2\n      pop\n      pop\n      jump\t// out\n        /* \"#utility.yul\":1025:1151   */\n    tag_56:\n        /* \"#utility.yul\":1062:1069   */\n      0x00\n        /* \"#utility.yul\":1102:1144   */\n      0xffffffffffffffffffffffffffffffffffffffff\n        /* \"#utility.yul\":1095:1100   */\n      dup3\n        /* \"#utility.yul\":1091:1145   */\n      and\n        /* \"#utility.yul\":1080:1145   */\n      swap1\n      pop\n        /* \"#utility.yul\":1025:1151   */\n      swap2\n      swap1\n      pop\n      jump\t// out\n        /* \"#utility.yul\":1157:1217   */\n    tag_57:\n        /* \"#utility.yul\":1185:1188   */\n      0x00\n        /* \"#utility.yul\":1206:1211   */\n      dup2\n        /* \"#utility.yul\":1199:1211   */\n      swap1\n      pop\n        /* \"#utility.yul\":1157:1217   */\n      swap2\n      swap1\n      pop\n      jump\t// out\n        /* \"#utility.yul\":1223:1365   */\n    tag_58:\n        /* \"#utility.yul\":1273:1282   */\n      0x00\n        /* \"#utility.yul\":1306:1359   */\n      tag_92\n        /* \"#utility.yul\":1324:1358   */\n      tag_93\n        /* \"#utility.yul\":1333:1357   */\n      tag_94\n        /* \"#utility.yul\":1351:1356   */\n      dup5\n        /* \"#utility.yul\":1333:1357   */\n      tag_56\n      jump\t// in\n    tag_94:\n        /* \"#utility.yul\":1324:1358   */\n      tag_57\n      jump\t// in\n    tag_93:\n        /* \"#utility.yul\":1306:1359   */\n      tag_56\n      jump\t// in\n    tag_92:\n        /* \"#utility.yul\":1293:1359   */\n      swap1\n      pop\n        /* \"#utility.yul\":1223:1365   */\n      swap2\n      swap1\n      pop\n      jump\t// out\n        /* \"#utility.yul\":1371:1497   */\n    tag_59:\n        /* \"#utility.yul\":1421:1430   */\n      0x00\n        /* \"#utility.yul\":1454:1491   */\n      tag_96\n        /* \"#utility.yul\":1485:1490   */\n      dup3\n        /* \"#utility.yul\":1454:1491   */\n      tag_58\n      jump\t// in\n    tag_96:\n        /* \"#utility.yul\":1441:1491   */\n      swap1\n      pop\n        /* \"#utility.yul\":1371:1497   */\n      swap2\n      swap1\n      pop\n      jump\t// out\n        /* \"#utility.yul\":1503:1642   */\n    tag_60:\n        /* \"#utility.yul\":1566:1575   */\n      0x00\n        /* \"#utility.yul\":1599:1636   */\n      tag_98\n        /* \"#utility.yul\":1630:1635   */\n      dup3\n        /* \"#utility.yul\":1599:1636   */\n      tag_59\n      jump\t// in\n    tag_98:\n        /* \"#utility.yul\":1586:1636   */\n      swap1\n      pop\n        /* \"#utility.yul\":1503:1642   */\n      swap2\n      swap1\n      pop\n      jump\t// out\n        /* \"#utility.yul\":1648:1805   */\n    tag_61:\n        /* \"#utility.yul\":1748:1798   */\n      tag_100\n        /* \"#utility.yul\":1792:1797   */\n      dup2\n        /* \"#utility.yul\":1748:1798   */\n      tag_60\n      jump\t// in\n    tag_100:\n        /* \"#utility.yul\":1743:1746   */\n      dup3\n        /* \"#utility.yul\":1736:1799   */\n      mstore\n        /* \"#utility.yul\":1648:1805   */\n      pop\n      pop\n      jump\t// out\n        /* \"#utility.yul\":1811:2059   */\n    tag_19:\n        /* \"#utility.yul\":1917:1921   */\n      0x00\n        /* \"#utility.yul\":1955:1957   */\n      0x20\n        /* \"#utility.yul\":1944:1953   */\n      dup3\n        /* \"#utility.yul\":1940:1958   */\n      add\n        /* \"#utility.yul\":1932:1958   */\n      swap1\n      pop\n        /* \"#utility.yul\":1968:2052   */\n      tag_102\n        /* \"#utility.yul\":2049:2050   */\n      0x00\n        /* \"#utility.yul\":2038:2047   */\n      dup4\n        /* \"#utility.yul\":2034:2051   */\n      add\n        /* \"#utility.yul\":2025:2031   */\n      dup5\n        /* \"#utility.yul\":1968:2052   */\n      tag_61\n      jump\t// in\n    tag_102:\n        /* \"#utility.yul\":1811:2059   */\n      swap3\n      swap2\n      pop\n      pop\n      jump\t// out\n        /* \"#utility.yul\":2065:2234   */\n    tag_62:\n        /* \"#utility.yul\":2149:2160   */\n      0x00\n        /* \"#utility.yul\":2183:2189   */\n      dup3\n        /* \"#utility.yul\":2178:2181   */\n      dup3\n        /* \"#utility.yul\":2171:2190   */\n      mstore\n        /* \"#utility.yul\":2223:2227   */\n      0x20\n        /* \"#utility.yul\":2218:2221   */\n      dup3\n        /* \"#utility.yul\":2214:2228   */\n      add\n        /* \"#utility.yul\":2199:2228   */\n      swap1\n      pop\n        /* \"#utility.yul\":2065:2234   */\n      swap3\n      swap2\n      pop\n      pop\n      jump\t// out\n        /* \"#utility.yul\":2240:2421   */\n    tag_63:\n        /* \"#utility.yul\":2380:2413   */\n      0x796f752063616e206e6f74207374616b65207a65726f20657468657265756d00\n        /* \"#utility.yul\":2376:2377   */\n      0x00\n        /* \"#utility.yul\":2368:2374   */\n      dup3\n        /* \"#utility.yul\":2364:2378   */\n      add\n        /* \"#utility.yul\":2357:2414   */\n      mstore\n        /* \"#utility.yul\":2240:2421   */\n      pop\n      jump\t// out\n        /* \"#utility.yul\":2427:2793   */\n    tag_64:\n        /* \"#utility.yul\":2569:2572   */\n      0x00\n        /* \"#utility.yul\":2590:2657   */\n      tag_106\n        /* \"#utility.yul\":2654:2656   */\n      0x1f\n        /* \"#utility.yul\":2649:2652   */\n      dup4\n        /* \"#utility.yul\":2590:2657   */\n      tag_62\n      jump\t// in\n    tag_106:\n        /* \"#utility.yul\":2583:2657   */\n      swap2\n      pop\n        /* \"#utility.yul\":2666:2759   */\n      tag_107\n        /* \"#utility.yul\":2755:2758   */\n      dup3\n        /* \"#utility.yul\":2666:2759   */\n      tag_63\n      jump\t// in\n    tag_107:\n        /* \"#utility.yul\":2784:2786   */\n      0x20\n        /* \"#utility.yul\":2779:2782   */\n      dup3\n        /* \"#utility.yul\":2775:2787   */\n      add\n        /* \"#utility.yul\":2768:2787   */\n      swap1\n      pop\n        /* \"#utility.yul\":2427:2793   */\n      swap2\n      swap1\n      pop\n      jump\t// out\n        /* \"#utility.yul\":2799:3218   */\n    tag_23:\n        /* \"#utility.yul\":2965:2969   */\n      0x00\n        /* \"#utility.yul\":3003:3005   */\n      0x20\n        /* \"#utility.yul\":2992:3001   */\n      dup3\n        /* \"#utility.yul\":2988:3006   */\n      add\n        /* \"#utility.yul\":2980:3006   */\n      swap1\n      pop\n        /* \"#utility.yul\":3052:3061   */\n      dup2\n        /* \"#utility.yul\":3046:3050   */\n      dup2\n        /* \"#utility.yul\":3042:3062   */\n      sub\n        /* \"#utility.yul\":3038:3039   */\n      0x00\n        /* \"#utility.yul\":3027:3036   */\n      dup4\n        /* \"#utility.yul\":3023:3040   */\n      add\n        /* \"#utility.yul\":3016:3063   */\n      mstore\n        /* \"#utility.yul\":3080:3211   */\n      tag_109\n        /* \"#utility.yul\":3206:3210   */\n      dup2\n        /* \"#utility.yul\":3080:3211   */\n      tag_64\n      jump\t// in\n    tag_109:\n        /* \"#utility.yul\":3072:3211   */\n      swap1\n      pop\n        /* \"#utility.yul\":2799:3218   */\n      swap2\n      swap1\n      pop\n      jump\t// out\n        /* \"#utility.yul\":3224:3389   */\n    tag_65:\n        /* \"#utility.yul\":3364:3381   */\n      0x696e76616c696420616464726573730000000000000000000000000000000000\n        /* \"#utility.yul\":3360:3361   */\n      0x00\n        /* \"#utility.yul\":3352:3358   */\n      dup3\n        /* \"#utility.yul\":3348:3362   */\n      add\n        /* \"#utility.yul\":3341:3382   */\n      mstore\n        /* \"#utility.yul\":3224:3389   */\n      pop\n      jump\t// out\n        /* \"#utility.yul\":3395:3761   */\n    tag_66:\n        /* \"#utility.yul\":3537:3540   */\n      0x00\n        /* \"#utility.yul\":3558:3625   */\n      tag_112\n        /* \"#utility.yul\":3622:3624   */\n      0x0f\n        /* \"#utility.yul\":3617:3620   */\n      dup4\n        /* \"#utility.yul\":3558:3625   */\n      tag_62\n      jump\t// in\n    tag_112:\n        /* \"#utility.yul\":3551:3625   */\n      swap2\n      pop\n        /* \"#utility.yul\":3634:3727   */\n      tag_113\n        /* \"#utility.yul\":3723:3726   */\n      dup3\n        /* \"#utility.yul\":3634:3727   */\n      tag_65\n      jump\t// in\n    tag_113:\n        /* \"#utility.yul\":3752:3754   */\n      0x20\n        /* \"#utility.yul\":3747:3750   */\n      dup3\n        /* \"#utility.yul\":3743:3755   */\n      add\n        /* \"#utility.yul\":3736:3755   */\n      swap1\n      pop\n        /* \"#utility.yul\":3395:3761   */\n      swap2\n      swap1\n      pop\n      jump\t// out\n        /* \"#utility.yul\":3767:4186   */\n    tag_26:\n        /* \"#utility.yul\":3933:3937   */\n      0x00\n        /* \"#utility.yul\":3971:3973   */\n      0x20\n        /* \"#utility.yul\":3960:3969   */\n      dup3\n        /* \"#utility.yul\":3956:3974   */\n      add\n        /* \"#utility.yul\":3948:3974   */\n      swap1\n      pop\n        /* \"#utility.yul\":4020:4029   */\n      dup2\n        /* \"#utility.yul\":4014:4018   */\n      dup2\n        /* \"#utility.yul\":4010:4030   */\n      sub\n        /* \"#utility.yul\":4006:4007   */\n      0x00\n        /* \"#utility.yul\":3995:4004   */\n      dup4\n        /* \"#utility.yul\":3991:4008   */\n      add\n        /* \"#utility.yul\":3984:4031   */\n      mstore\n        /* \"#utility.yul\":4048:4179   */\n      tag_115\n        /* \"#utility.yul\":4174:4178   */\n      dup2\n        /* \"#utility.yul\":4048:4179   */\n      tag_66\n      jump\t// in\n    tag_115:\n        /* \"#utility.yul\":4040:4179   */\n      swap1\n      pop\n        /* \"#utility.yul\":3767:4186   */\n      swap2\n      swap1\n      pop\n      jump\t// out\n        /* \"#utility.yul\":4192:4372   */\n    tag_67:\n        /* \"#utility.yul\":4240:4317   */\n      0x4e487b7100000000000000000000000000000000000000000000000000000000\n        /* \"#utility.yul\":4237:4238   */\n      0x00\n        /* \"#utility.yul\":4230:4318   */\n      mstore\n        /* \"#utility.yul\":4337:4341   */\n      0x11\n        /* \"#utility.yul\":4334:4335   */\n      0x04\n        /* \"#utility.yul\":4327:4342   */\n      mstore\n        /* \"#utility.yul\":4361:4365   */\n      0x24\n        /* \"#utility.yul\":4358:4359   */\n      0x00\n        /* \"#utility.yul\":4351:4366   */\n      revert\n        /* \"#utility.yul\":4378:4569   */\n    tag_28:\n        /* \"#utility.yul\":4418:4421   */\n      0x00\n        /* \"#utility.yul\":4437:4457   */\n      tag_118\n        /* \"#utility.yul\":4455:4456   */\n      dup3\n        /* \"#utility.yul\":4437:4457   */\n      tag_53\n      jump\t// in\n    tag_118:\n        /* \"#utility.yul\":4432:4457   */\n      swap2\n      pop\n        /* \"#utility.yul\":4471:4491   */\n      tag_119\n        /* \"#utility.yul\":4489:4490   */\n      dup4\n        /* \"#utility.yul\":4471:4491   */\n      tag_53\n      jump\t// in\n    tag_119:\n        /* \"#utility.yul\":4466:4491   */\n      swap3\n      pop\n        /* \"#utility.yul\":4514:4515   */\n      dup3\n        /* \"#utility.yul\":4511:4512   */\n      dup3\n        /* \"#utility.yul\":4507:4516   */\n      add\n        /* \"#utility.yul\":4500:4516   */\n      swap1\n      pop\n        /* \"#utility.yul\":4535:4538   */\n      dup1\n        /* \"#utility.yul\":4532:4533   */\n      dup3\n        /* \"#utility.yul\":4529:4539   */\n      gt\n        /* \"#utility.yul\":4526:4562   */\n      iszero\n      tag_120\n      jumpi\n        /* \"#utility.yul\":4542:4560   */\n      tag_121\n      tag_67\n      jump\t// in\n    tag_121:\n        /* \"#utility.yul\":4526:4562   */\n    tag_120:\n        /* \"#utility.yul\":4378:4569   */\n      swap3\n      swap2\n      pop\n      pop\n      jump\t// out\n        /* \"#utility.yul\":4575:4755   */\n    tag_68:\n        /* \"#utility.yul\":4715:4747   */\n      0x5374616b696e6720616d6f756e742063616e206e6f74206265207a65726f0000\n        /* \"#utility.yul\":4711:4712   */\n      0x00\n        /* \"#utility.yul\":4703:4709   */\n      dup3\n        /* \"#utility.yul\":4699:4713   */\n      add\n        /* \"#utility.yul\":4692:4748   */\n      mstore\n        /* \"#utility.yul\":4575:4755   */\n      pop\n      jump\t// out\n        /* \"#utility.yul\":4761:5127   */\n    tag_69:\n        /* \"#utility.yul\":4903:4906   */\n      0x00\n        /* \"#utility.yul\":4924:4991   */\n      tag_124\n        /* \"#utility.yul\":4988:4990   */\n      0x1e\n        /* \"#utility.yul\":4983:4986   */\n      dup4\n        /* \"#utility.yul\":4924:4991   */\n      tag_62\n      jump\t// in\n    tag_124:\n        /* \"#utility.yul\":4917:4991   */\n      swap2\n      pop\n        /* \"#utility.yul\":5000:5093   */\n      tag_125\n        /* \"#utility.yul\":5089:5092   */\n      dup3\n        /* \"#utility.yul\":5000:5093   */\n      tag_68\n      jump\t// in\n    tag_125:\n        /* \"#utility.yul\":5118:5120   */\n      0x20\n        /* \"#utility.yul\":5113:5116   */\n      dup3\n        /* \"#utility.yul\":5109:5121   */\n      add\n        /* \"#utility.yul\":5102:5121   */\n      swap1\n      pop\n        /* \"#utility.yul\":4761:5127   */\n      swap2\n      swap1\n      pop\n      jump\t// out\n        /* \"#utility.yul\":5133:5552   */\n    tag_33:\n        /* \"#utility.yul\":5299:5303   */\n      0x00\n        /* \"#utility.yul\":5337:5339   */\n      0x20\n        /* \"#utility.yul\":5326:5335   */\n      dup3\n        /* \"#utility.yul\":5322:5340   */\n      add\n        /* \"#utility.yul\":5314:5340   */\n      swap1\n      pop\n        /* \"#utility.yul\":5386:5395   */\n      dup2\n        /* \"#utility.yul\":5380:5384   */\n      dup2\n        /* \"#utility.yul\":5376:5396   */\n      sub\n        /* \"#utility.yul\":5372:5373   */\n      0x00\n        /* \"#utility.yul\":5361:5370   */\n      dup4\n        /* \"#utility.yul\":5357:5374   */\n      add\n        /* \"#utility.yul\":5350:5397   */\n      mstore\n        /* \"#utility.yul\":5414:5545   */\n      tag_127\n        /* \"#utility.yul\":5540:5544   */\n      dup2\n        /* \"#utility.yul\":5414:5545   */\n      tag_69\n      jump\t// in\n    tag_127:\n        /* \"#utility.yul\":5406:5545   */\n      swap1\n      pop\n        /* \"#utility.yul\":5133:5552   */\n      swap2\n      swap1\n      pop\n      jump\t// out\n        /* \"#utility.yul\":5558:5732   */\n    tag_70:\n        /* \"#utility.yul\":5698:5724   */\n      0x6469726174696f6e2063616e206e6f74206265207a65726f0000000000000000\n        /* \"#utility.yul\":5694:5695   */\n      0x00\n        /* \"#utility.yul\":5686:5692   */\n      dup3\n        /* \"#utility.yul\":5682:5696   */\n      add\n        /* \"#utility.yul\":5675:5725   */\n      mstore\n        /* \"#utility.yul\":5558:5732   */\n      pop\n      jump\t// out\n        /* \"#utility.yul\":5738:6104   */\n    tag_71:\n        /* \"#utility.yul\":5880:5883   */\n      0x00\n        /* \"#utility.yul\":5901:5968   */\n      tag_130\n        /* \"#utility.yul\":5965:5967   */\n      0x18\n        /* \"#utility.yul\":5960:5963   */\n      dup4\n        /* \"#utility.yul\":5901:5968   */\n      tag_62\n      jump\t// in\n    tag_130:\n        /* \"#utility.yul\":5894:5968   */\n      swap2\n      pop\n        /* \"#utility.yul\":5977:6070   */\n      tag_131\n        /* \"#utility.yul\":6066:6069   */\n      dup3\n        /* \"#utility.yul\":5977:6070   */\n      tag_70\n      jump\t// in\n    tag_131:\n        /* \"#utility.yul\":6095:6097   */\n      0x20\n        /* \"#utility.yul\":6090:6093   */\n      dup3\n        /* \"#utility.yul\":6086:6098   */\n      add\n        /* \"#utility.yul\":6079:6098   */\n      swap1\n      pop\n        /* \"#utility.yul\":5738:6104   */\n      swap2\n      swap1\n      pop\n      jump\t// out\n        /* \"#utility.yul\":6110:6529   */\n    tag_36:\n        /* \"#utility.yul\":6276:6280   */\n      0x00\n        /* \"#utility.yul\":6314:6316   */\n      0x20\n        /* \"#utility.yul\":6303:6312   */\n      dup3\n        /* \"#utility.yul\":6299:6317   */\n      add\n        /* \"#utility.yul\":6291:6317   */\n      swap1\n      pop\n        /* \"#utility.yul\":6363:6372   */\n      dup2\n        /* \"#utility.yul\":6357:6361   */\n      dup2\n        /* \"#utility.yul\":6353:6373   */\n      sub\n        /* \"#utility.yul\":6349:6350   */\n      0x00\n        /* \"#utility.yul\":6338:6347   */\n      dup4\n        /* \"#utility.yul\":6334:6351   */\n      add\n        /* \"#utility.yul\":6327:6374   */\n      mstore\n        /* \"#utility.yul\":6391:6522   */\n      tag_133\n        /* \"#utility.yul\":6517:6521   */\n      dup2\n        /* \"#utility.yul\":6391:6522   */\n      tag_71\n      jump\t// in\n    tag_133:\n        /* \"#utility.yul\":6383:6522   */\n      swap1\n      pop\n        /* \"#utility.yul\":6110:6529   */\n      swap2\n      swap1\n      pop\n      jump\t// out\n        /* \"#utility.yul\":6535:6779   */\n    tag_72:\n        /* \"#utility.yul\":6675:6709   */\n      0x796f75206861766520616e20616374697665207374616b6520706c6561736520\n        /* \"#utility.yul\":6671:6672   */\n      0x00\n        /* \"#utility.yul\":6663:6669   */\n      dup3\n        /* \"#utility.yul\":6659:6673   */\n      add\n        /* \"#utility.yul\":6652:6710   */\n      mstore\n        /* \"#utility.yul\":6744:6771   */\n      0x747279207570646174696e677374616b6520696e737465616400000000000000\n        /* \"#utility.yul\":6739:6741   */\n      0x20\n        /* \"#utility.yul\":6731:6737   */\n      dup3\n        /* \"#utility.yul\":6727:6742   */\n      add\n        /* \"#utility.yul\":6720:6772   */\n      mstore\n        /* \"#utility.yul\":6535:6779   */\n      pop\n      jump\t// out\n        /* \"#utility.yul\":6785:7151   */\n    tag_73:\n        /* \"#utility.yul\":6927:6930   */\n      0x00\n        /* \"#utility.yul\":6948:7015   */\n      tag_136\n        /* \"#utility.yul\":7012:7014   */\n      0x39\n        /* \"#utility.yul\":7007:7010   */\n      dup4\n        /* \"#utility.yul\":6948:7015   */\n      tag_62\n      jump\t// in\n    tag_136:\n        /* \"#utility.yul\":6941:7015   */\n      swap2\n      pop\n        /* \"#utility.yul\":7024:7117   */\n      tag_137\n        /* \"#utility.yul\":7113:7116   */\n      dup3\n        /* \"#utility.yul\":7024:7117   */\n      tag_72\n      jump\t// in\n    tag_137:\n        /* \"#utility.yul\":7142:7144   */\n      0x40\n        /* \"#utility.yul\":7137:7140   */\n      dup3\n        /* \"#utility.yul\":7133:7145   */\n      add\n        /* \"#utility.yul\":7126:7145   */\n      swap1\n      pop\n        /* \"#utility.yul\":6785:7151   */\n      swap2\n      swap1\n      pop\n      jump\t// out\n        /* \"#utility.yul\":7157:7576   */\n    tag_41:\n        /* \"#utility.yul\":7323:7327   */\n      0x00\n        /* \"#utility.yul\":7361:7363   */\n      0x20\n        /* \"#utility.yul\":7350:7359   */\n      dup3\n        /* \"#utility.yul\":7346:7364   */\n      add\n        /* \"#utility.yul\":7338:7364   */\n      swap1\n      pop\n        /* \"#utility.yul\":7410:7419   */\n      dup2\n        /* \"#utility.yul\":7404:7408   */\n      dup2\n        /* \"#utility.yul\":7400:7420   */\n      sub\n        /* \"#utility.yul\":7396:7397   */\n      0x00\n        /* \"#utility.yul\":7385:7394   */\n      dup4\n        /* \"#utility.yul\":7381:7398   */\n      add\n        /* \"#utility.yul\":7374:7421   */\n      mstore\n        /* \"#utility.yul\":7438:7569   */\n      tag_139\n        /* \"#utility.yul\":7564:7568   */\n      dup2\n        /* \"#utility.yul\":7438:7569   */\n      tag_73\n      jump\t// in\n    tag_139:\n        /* \"#utility.yul\":7430:7569   */\n      swap1\n      pop\n        /* \"#utility.yul\":7157:7576   */\n      swap2\n      swap1\n      pop\n      jump\t// out\n        /* \"#utility.yul\":7582:7992   */\n    tag_43:\n        /* \"#utility.yul\":7622:7629   */\n      0x00\n        /* \"#utility.yul\":7645:7665   */\n      tag_141\n        /* \"#utility.yul\":7663:7664   */\n      dup3\n        /* \"#utility.yul\":7645:7665   */\n      tag_53\n      jump\t// in\n    tag_141:\n        /* \"#utility.yul\":7640:7665   */\n      swap2\n      pop\n        /* \"#utility.yul\":7679:7699   */\n      tag_142\n        /* \"#utility.yul\":7697:7698   */\n      dup4\n        /* \"#utility.yul\":7679:7699   */\n      tag_53\n      jump\t// in\n    tag_142:\n        /* \"#utility.yul\":7674:7699   */\n      swap3\n      pop\n        /* \"#utility.yul\":7734:7735   */\n      dup3\n        /* \"#utility.yul\":7731:7732   */\n      dup3\n        /* \"#utility.yul\":7727:7736   */\n      mul\n        /* \"#utility.yul\":7756:7786   */\n      tag_143\n        /* \"#utility.yul\":7774:7785   */\n      dup2\n        /* \"#utility.yul\":7756:7786   */\n      tag_53\n      jump\t// in\n    tag_143:\n        /* \"#utility.yul\":7745:7786   */\n      swap2\n      pop\n        /* \"#utility.yul\":7935:7936   */\n      dup3\n        /* \"#utility.yul\":7926:7933   */\n      dup3\n        /* \"#utility.yul\":7922:7937   */\n      div\n        /* \"#utility.yul\":7919:7920   */\n      dup5\n        /* \"#utility.yul\":7916:7938   */\n      eq\n        /* \"#utility.yul\":7896:7897   */\n      dup4\n        /* \"#utility.yul\":7889:7898   */\n      iszero\n        /* \"#utility.yul\":7869:7952   */\n      or\n        /* \"#utility.yul\":7846:7985   */\n      tag_144\n      jumpi\n        /* \"#utility.yul\":7965:7983   */\n      tag_145\n      tag_67\n      jump\t// in\n    tag_145:\n        /* \"#utility.yul\":7846:7985   */\n    tag_144:\n        /* \"#utility.yul\":7630:7992   */\n      pop\n        /* \"#utility.yul\":7582:7992   */\n      swap3\n      swap2\n      pop\n      pop\n      jump\t// out\n        /* \"#utility.yul\":7998:8116   */\n    tag_74:\n        /* \"#utility.yul\":8085:8109   */\n      tag_147\n        /* \"#utility.yul\":8103:8108   */\n      dup2\n        /* \"#utility.yul\":8085:8109   */\n      tag_53\n      jump\t// in\n    tag_147:\n        /* \"#utility.yul\":8080:8083   */\n      dup3\n        /* \"#utility.yul\":8073:8110   */\n      mstore\n        /* \"#utility.yul\":7998:8116   */\n      pop\n      pop\n      jump\t// out\n        /* \"#utility.yul\":8122:8454   */\n    tag_49:\n        /* \"#utility.yul\":8243:8247   */\n      0x00\n        /* \"#utility.yul\":8281:8283   */\n      0x40\n        /* \"#utility.yul\":8270:8279   */\n      dup3\n        /* \"#utility.yul\":8266:8284   */\n      add\n        /* \"#utility.yul\":8258:8284   */\n      swap1\n      pop\n        /* \"#utility.yul\":8294:8365   */\n      tag_149\n        /* \"#utility.yul\":8362:8363   */\n      0x00\n        /* \"#utility.yul\":8351:8360   */\n      dup4\n        /* \"#utility.yul\":8347:8364   */\n      add\n        /* \"#utility.yul\":8338:8344   */\n      dup6\n        /* \"#utility.yul\":8294:8365   */\n      tag_74\n      jump\t// in\n    tag_149:\n        /* \"#utility.yul\":8375:8447   */\n      tag_150\n        /* \"#utility.yul\":8443:8445   */\n      0x20\n        /* \"#utility.yul\":8432:8441   */\n      dup4\n        /* \"#utility.yul\":8428:8446   */\n      add\n        /* \"#utility.yul\":8419:8425   */\n      dup5\n        /* \"#utility.yul\":8375:8447   */\n      tag_74\n      jump\t// in\n    tag_150:\n        /* \"#utility.yul\":8122:8454   */\n      swap4\n      swap3\n      pop\n      pop\n      pop\n      jump\t// out\n\n    auxdata: 0xa26469706673582212208e3ec44295359ccbf262b8a42837927559eec7fb42cedf6cdd63821397cde27e64736f6c634300081a0033\n}\n",
				"bytecode": {
					"linkReferences": {},
					"object": "6080604052600a600155348015610014575f80fd5b50604051610a82380380610a8283398181016040528101906100369190610119565b805f806101000a81548173ffffffffffffffffffffffffffffffffffffffff021916908373ffffffffffffffffffffffffffffffffffffffff1602179055503360035f6101000a81548173ffffffffffffffffffffffffffffffffffffffff021916908373ffffffffffffffffffffffffffffffffffffffff16021790555050610144565b5f80fd5b5f73ffffffffffffffffffffffffffffffffffffffff82169050919050565b5f6100e8826100bf565b9050919050565b6100f8816100de565b8114610102575f80fd5b50565b5f81519050610113816100ef565b92915050565b5f6020828403121561012e5761012d6100bb565b5b5f61013b84828501610105565b91505092915050565b610931806101515f395ff3fe60806040526004361061003e575f3560e01c80633139b12b146100425780633ccfd60b1461004c578063a694fc3a14610062578063d1af0c7d1461007e575b5f80fd5b61004a6100a8565b005b348015610057575f80fd5b506100606101b4565b005b61007c60048036038101906100779190610528565b6101b6565b005b348015610089575f80fd5b506100926104ce565b60405161009f91906105cd565b60405180910390f35b5f34036100ea576040517f08c379a00000000000000000000000000000000000000000000000000000000081526004016100e190610640565b60405180910390fd5b5f73ffffffffffffffffffffffffffffffffffffffff163373ffffffffffffffffffffffffffffffffffffffff1603610158576040517f08c379a000000000000000000000000000000000000000000000000000000000815260040161014f906106a8565b60405180910390fd5b5f60045f3373ffffffffffffffffffffffffffffffffffffffff1673ffffffffffffffffffffffffffffffffffffffff1681526020019081526020015f20905034815f015f8282546101aa91906106f3565b9250508190555050565b565b5f34036101f8576040517f08c379a00000000000000000000000000000000000000000000000000000000081526004016101ef90610770565b60405180910390fd5b5f810361023a576040517f08c379a0000000000000000000000000000000000000000000000000000000008152600401610231906107d8565b60405180910390fd5b5f73ffffffffffffffffffffffffffffffffffffffff163373ffffffffffffffffffffffffffffffffffffffff16036102a8576040517f08c379a000000000000000000000000000000000000000000000000000000000815260040161029f906106a8565b60405180910390fd5b5f34905060045f3373ffffffffffffffffffffffffffffffffffffffff1673ffffffffffffffffffffffffffffffffffffffff1681526020019081526020015f206004015f9054906101000a900460ff1615610339576040517f08c379a000000000000000000000000000000000000000000000000000000000815260040161033090610866565b60405180910390fd5b6040518060a0016040528082815260200162015180846103599190610884565b815260200142815260200162015180846103739190610884565b4261037e91906106f3565b81526020016001151581525060045f3373ffffffffffffffffffffffffffffffffffffffff1673ffffffffffffffffffffffffffffffffffffffff1681526020019081526020015f205f820151815f01556020820151816001015560408201518160020155606082015181600301556080820151816004015f6101000a81548160ff0219169083151502179055509050508060055f3373ffffffffffffffffffffffffffffffffffffffff1673ffffffffffffffffffffffffffffffffffffffff1681526020019081526020015f205f82825461045b91906106f3565b925050819055508060025f82825461047391906106f3565b925050819055503373ffffffffffffffffffffffffffffffffffffffff167f1449c6dd7851abc30abf37f57715f492010519147cc2652fbc38202c18a6ee9082426040516104c29291906108d4565b60405180910390a25050565b5f8054906101000a900473ffffffffffffffffffffffffffffffffffffffff1681565b5f80fd5b5f819050919050565b610507816104f5565b8114610511575f80fd5b50565b5f81359050610522816104fe565b92915050565b5f6020828403121561053d5761053c6104f1565b5b5f61054a84828501610514565b91505092915050565b5f73ffffffffffffffffffffffffffffffffffffffff82169050919050565b5f819050919050565b5f61059561059061058b84610553565b610572565b610553565b9050919050565b5f6105a68261057b565b9050919050565b5f6105b78261059c565b9050919050565b6105c7816105ad565b82525050565b5f6020820190506105e05f8301846105be565b92915050565b5f82825260208201905092915050565b7f796f752063616e206e6f74207374616b65207a65726f20657468657265756d005f82015250565b5f61062a601f836105e6565b9150610635826105f6565b602082019050919050565b5f6020820190508181035f8301526106578161061e565b9050919050565b7f696e76616c6964206164647265737300000000000000000000000000000000005f82015250565b5f610692600f836105e6565b915061069d8261065e565b602082019050919050565b5f6020820190508181035f8301526106bf81610686565b9050919050565b7f4e487b71000000000000000000000000000000000000000000000000000000005f52601160045260245ffd5b5f6106fd826104f5565b9150610708836104f5565b92508282019050808211156107205761071f6106c6565b5b92915050565b7f5374616b696e6720616d6f756e742063616e206e6f74206265207a65726f00005f82015250565b5f61075a601e836105e6565b915061076582610726565b602082019050919050565b5f6020820190508181035f8301526107878161074e565b9050919050565b7f6469726174696f6e2063616e206e6f74206265207a65726f00000000000000005f82015250565b5f6107c26018836105e6565b91506107cd8261078e565b602082019050919050565b5f6020820190508181035f8301526107ef816107b6565b9050919050565b7f796f75206861766520616e20616374697665207374616b6520706c65617365205f8201527f747279207570646174696e677374616b6520696e737465616400000000000000602082015250565b5f6108506039836105e6565b915061085b826107f6565b604082019050919050565b5f6020820190508181035f83015261087d81610844565b9050919050565b5f61088e826104f5565b9150610899836104f5565b92508282026108a7816104f5565b915082820484148315176108be576108bd6106c6565b5b5092915050565b6108ce816104f5565b82525050565b5f6040820190506108e75f8301856108c5565b6108f460208301846108c5565b939250505056fea26469706673582212208e3ec44295359ccbf262b8a42837927559eec7fb42cedf6cdd63821397cde27e64736f6c634300081a0033",
					"opcodes": "PUSH1 0x80 PUSH1 0x40 MSTORE PUSH1 0xA PUSH1 0x1 SSTORE CALLVALUE DUP1 ISZERO PUSH2 0x14 JUMPI PUSH0 DUP1 REVERT JUMPDEST POP PUSH1 0x40 MLOAD PUSH2 0xA82 CODESIZE SUB DUP1 PUSH2 0xA82 DUP4 CODECOPY DUP2 DUP2 ADD PUSH1 0x40 MSTORE DUP2 ADD SWAP1 PUSH2 0x36 SWAP2 SWAP1 PUSH2 0x119 JUMP JUMPDEST DUP1 PUSH0 DUP1 PUSH2 0x100 EXP DUP2 SLOAD DUP2 PUSH20 0xFFFFFFFFFFFFFFFFFFFFFFFFFFFFFFFFFFFFFFFF MUL NOT AND SWAP1 DUP4 PUSH20 0xFFFFFFFFFFFFFFFFFFFFFFFFFFFFFFFFFFFFFFFF AND MUL OR SWAP1 SSTORE POP CALLER PUSH1 0x3 PUSH0 PUSH2 0x100 EXP DUP2 SLOAD DUP2 PUSH20 0xFFFFFFFFFFFFFFFFFFFFFFFFFFFFFFFFFFFFFFFF MUL NOT AND SWAP1 DUP4 PUSH20 0xFFFFFFFFFFFFFFFFFFFFFFFFFFFFFFFFFFFFFFFF AND MUL OR SWAP1 SSTORE POP POP PUSH2 0x144 JUMP JUMPDEST PUSH0 DUP1 REVERT JUMPDEST PUSH0 PUSH20 0xFFFFFFFFFFFFFFFFFFFFFFFFFFFFFFFFFFFFFFFF DUP3 AND SWAP1 POP SWAP2 SWAP1 POP JUMP JUMPDEST PUSH0 PUSH2 0xE8 DUP3 PUSH2 0xBF JUMP JUMPDEST SWAP1 POP SWAP2 SWAP1 POP JUMP JUMPDEST PUSH2 0xF8 DUP2 PUSH2 0xDE JUMP JUMPDEST DUP2 EQ PUSH2 0x102 JUMPI PUSH0 DUP1 REVERT JUMPDEST POP JUMP JUMPDEST PUSH0 DUP2 MLOAD SWAP1 POP PUSH2 0x113 DUP2 PUSH2 0xEF JUMP JUMPDEST SWAP3 SWAP2 POP POP JUMP JUMPDEST PUSH0 PUSH1 0x20 DUP3 DUP5 SUB SLT ISZERO PUSH2 0x12E JUMPI PUSH2 0x12D PUSH2 0xBB JUMP JUMPDEST JUMPDEST PUSH0 PUSH2 0x13B DUP5 DUP3 DUP6 ADD PUSH2 0x105 JUMP JUMPDEST SWAP2 POP POP SWAP3 SWAP2 POP POP JUMP JUMPDEST PUSH2 0x931 DUP1 PUSH2 0x151 PUSH0 CODECOPY PUSH0 RETURN INVALID PUSH1 0x80 PUSH1 0x40 MSTORE PUSH1 0x4 CALLDATASIZE LT PUSH2 0x3E JUMPI PUSH0 CALLDATALOAD PUSH1 0xE0 SHR DUP1 PUSH4 0x3139B12B EQ PUSH2 0x42 JUMPI DUP1 PUSH4 0x3CCFD60B EQ PUSH2 0x4C JUMPI DUP1 PUSH4 0xA694FC3A EQ PUSH2 0x62 JUMPI DUP1 PUSH4 0xD1AF0C7D EQ PUSH2 0x7E JUMPI JUMPDEST PUSH0 DUP1 REVERT JUMPDEST PUSH2 0x4A PUSH2 0xA8 JUMP JUMPDEST STOP JUMPDEST CALLVALUE DUP1 ISZERO PUSH2 0x57 JUMPI PUSH0 DUP1 REVERT JUMPDEST POP PUSH2 0x60 PUSH2 0x1B4 JUMP JUMPDEST STOP JUMPDEST PUSH2 0x7C PUSH1 0x4 DUP1 CALLDATASIZE SUB DUP2 ADD SWAP1 PUSH2 0x77 SWAP2 SWAP1 PUSH2 0x528 JUMP JUMPDEST PUSH2 0x1B6 JUMP JUMPDEST STOP JUMPDEST CALLVALUE DUP1 ISZERO PUSH2 0x89 JUMPI PUSH0 DUP1 REVERT JUMPDEST POP PUSH2 0x92 PUSH2 0x4CE JUMP JUMPDEST PUSH1 0x40 MLOAD PUSH2 0x9F SWAP2 SWAP1 PUSH2 0x5CD JUMP JUMPDEST PUSH1 0x40 MLOAD DUP1 SWAP2 SUB SWAP1 RETURN JUMPDEST PUSH0 CALLVALUE SUB PUSH2 0xEA JUMPI PUSH1 0x40 MLOAD PUSH32 0x8C379A000000000000000000000000000000000000000000000000000000000 DUP2 MSTORE PUSH1 0x4 ADD PUSH2 0xE1 SWAP1 PUSH2 0x640 JUMP JUMPDEST PUSH1 0x40 MLOAD DUP1 SWAP2 SUB SWAP1 REVERT JUMPDEST PUSH0 PUSH20 0xFFFFFFFFFFFFFFFFFFFFFFFFFFFFFFFFFFFFFFFF AND CALLER PUSH20 0xFFFFFFFFFFFFFFFFFFFFFFFFFFFFFFFFFFFFFFFF AND SUB PUSH2 0x158 JUMPI PUSH1 0x40 MLOAD PUSH32 0x8C379A000000000000000000000000000000000000000000000000000000000 DUP2 MSTORE PUSH1 0x4 ADD PUSH2 0x14F SWAP1 PUSH2 0x6A8 JUMP JUMPDEST PUSH1 0x40 MLOAD DUP1 SWAP2 SUB SWAP1 REVERT JUMPDEST PUSH0 PUSH1 0x4 PUSH0 CALLER PUSH20 0xFFFFFFFFFFFFFFFFFFFFFFFFFFFFFFFFFFFFFFFF AND PUSH20 0xFFFFFFFFFFFFFFFFFFFFFFFFFFFFFFFFFFFFFFFF AND DUP2 MSTORE PUSH1 0x20 ADD SWAP1 DUP2 MSTORE PUSH1 0x20 ADD PUSH0 KECCAK256 SWAP1 POP CALLVALUE DUP2 PUSH0 ADD PUSH0 DUP3 DUP3 SLOAD PUSH2 0x1AA SWAP2 SWAP1 PUSH2 0x6F3 JUMP JUMPDEST SWAP3 POP POP DUP2 SWAP1 SSTORE POP POP JUMP JUMPDEST JUMP JUMPDEST PUSH0 CALLVALUE SUB PUSH2 0x1F8 JUMPI PUSH1 0x40 MLOAD PUSH32 0x8C379A000000000000000000000000000000000000000000000000000000000 DUP2 MSTORE PUSH1 0x4 ADD PUSH2 0x1EF SWAP1 PUSH2 0x770 JUMP JUMPDEST PUSH1 0x40 MLOAD DUP1 SWAP2 SUB SWAP1 REVERT JUMPDEST PUSH0 DUP2 SUB PUSH2 0x23A JUMPI PUSH1 0x40 MLOAD PUSH32 0x8C379A000000000000000000000000000000000000000000000000000000000 DUP2 MSTORE PUSH1 0x4 ADD PUSH2 0x231 SWAP1 PUSH2 0x7D8 JUMP JUMPDEST PUSH1 0x40 MLOAD DUP1 SWAP2 SUB SWAP1 REVERT JUMPDEST PUSH0 PUSH20 0xFFFFFFFFFFFFFFFFFFFFFFFFFFFFFFFFFFFFFFFF AND CALLER PUSH20 0xFFFFFFFFFFFFFFFFFFFFFFFFFFFFFFFFFFFFFFFF AND SUB PUSH2 0x2A8 JUMPI PUSH1 0x40 MLOAD PUSH32 0x8C379A000000000000000000000000000000000000000000000000000000000 DUP2 MSTORE PUSH1 0x4 ADD PUSH2 0x29F SWAP1 PUSH2 0x6A8 JUMP JUMPDEST PUSH1 0x40 MLOAD DUP1 SWAP2 SUB SWAP1 REVERT JUMPDEST PUSH0 CALLVALUE SWAP1 POP PUSH1 0x4 PUSH0 CALLER PUSH20 0xFFFFFFFFFFFFFFFFFFFFFFFFFFFFFFFFFFFFFFFF AND PUSH20 0xFFFFFFFFFFFFFFFFFFFFFFFFFFFFFFFFFFFFFFFF AND DUP2 MSTORE PUSH1 0x20 ADD SWAP1 DUP2 MSTORE PUSH1 0x20 ADD PUSH0 KECCAK256 PUSH1 0x4 ADD PUSH0 SWAP1 SLOAD SWAP1 PUSH2 0x100 EXP SWAP1 DIV PUSH1 0xFF AND ISZERO PUSH2 0x339 JUMPI PUSH1 0x40 MLOAD PUSH32 0x8C379A000000000000000000000000000000000000000000000000000000000 DUP2 MSTORE PUSH1 0x4 ADD PUSH2 0x330 SWAP1 PUSH2 0x866 JUMP JUMPDEST PUSH1 0x40 MLOAD DUP1 SWAP2 SUB SWAP1 REVERT JUMPDEST PUSH1 0x40 MLOAD DUP1 PUSH1 0xA0 ADD PUSH1 0x40 MSTORE DUP1 DUP3 DUP2 MSTORE PUSH1 0x20 ADD PUSH3 0x15180 DUP5 PUSH2 0x359 SWAP2 SWAP1 PUSH2 0x884 JUMP JUMPDEST DUP2 MSTORE PUSH1 0x20 ADD TIMESTAMP DUP2 MSTORE PUSH1 0x20 ADD PUSH3 0x15180 DUP5 PUSH2 0x373 SWAP2 SWAP1 PUSH2 0x884 JUMP JUMPDEST TIMESTAMP PUSH2 0x37E SWAP2 SWAP1 PUSH2 0x6F3 JUMP JUMPDEST DUP2 MSTORE PUSH1 0x20 ADD PUSH1 0x1 ISZERO ISZERO DUP2 MSTORE POP PUSH1 0x4 PUSH0 CALLER PUSH20 0xFFFFFFFFFFFFFFFFFFFFFFFFFFFFFFFFFFFFFFFF AND PUSH20 0xFFFFFFFFFFFFFFFFFFFFFFFFFFFFFFFFFFFFFFFF AND DUP2 MSTORE PUSH1 0x20 ADD SWAP1 DUP2 MSTORE PUSH1 0x20 ADD PUSH0 KECCAK256 PUSH0 DUP3 ADD MLOAD DUP2 PUSH0 ADD SSTORE PUSH1 0x20 DUP3 ADD MLOAD DUP2 PUSH1 0x1 ADD SSTORE PUSH1 0x40 DUP3 ADD MLOAD DUP2 PUSH1 0x2 ADD SSTORE PUSH1 0x60 DUP3 ADD MLOAD DUP2 PUSH1 0x3 ADD SSTORE PUSH1 0x80 DUP3 ADD MLOAD DUP2 PUSH1 0x4 ADD PUSH0 PUSH2 0x100 EXP DUP2 SLOAD DUP2 PUSH1 0xFF MUL NOT AND SWAP1 DUP4 ISZERO ISZERO MUL OR SWAP1 SSTORE POP SWAP1 POP POP DUP1 PUSH1 0x5 PUSH0 CALLER PUSH20 0xFFFFFFFFFFFFFFFFFFFFFFFFFFFFFFFFFFFFFFFF AND PUSH20 0xFFFFFFFFFFFFFFFFFFFFFFFFFFFFFFFFFFFFFFFF AND DUP2 MSTORE PUSH1 0x20 ADD SWAP1 DUP2 MSTORE PUSH1 0x20 ADD PUSH0 KECCAK256 PUSH0 DUP3 DUP3 SLOAD PUSH2 0x45B SWAP2 SWAP1 PUSH2 0x6F3 JUMP JUMPDEST SWAP3 POP POP DUP2 SWAP1 SSTORE POP DUP1 PUSH1 0x2 PUSH0 DUP3 DUP3 SLOAD PUSH2 0x473 SWAP2 SWAP1 PUSH2 0x6F3 JUMP JUMPDEST SWAP3 POP POP DUP2 SWAP1 SSTORE POP CALLER PUSH20 0xFFFFFFFFFFFFFFFFFFFFFFFFFFFFFFFFFFFFFFFF AND PUSH32 0x1449C6DD7851ABC30ABF37F57715F492010519147CC2652FBC38202C18A6EE90 DUP3 TIMESTAMP PUSH1 0x40 MLOAD PUSH2 0x4C2 SWAP3 SWAP2 SWAP1 PUSH2 0x8D4 JUMP JUMPDEST PUSH1 0x40 MLOAD DUP1 SWAP2 SUB SWAP1 LOG2 POP POP JUMP JUMPDEST PUSH0 DUP1 SLOAD SWAP1 PUSH2 0x100 EXP SWAP1 DIV PUSH20 0xFFFFFFFFFFFFFFFFFFFFFFFFFFFFFFFFFFFFFFFF AND DUP2 JUMP JUMPDEST PUSH0 DUP1 REVERT JUMPDEST PUSH0 DUP2 SWAP1 POP SWAP2 SWAP1 POP JUMP JUMPDEST PUSH2 0x507 DUP2 PUSH2 0x4F5 JUMP JUMPDEST DUP2 EQ PUSH2 0x511 JUMPI PUSH0 DUP1 REVERT JUMPDEST POP JUMP JUMPDEST PUSH0 DUP2 CALLDATALOAD SWAP1 POP PUSH2 0x522 DUP2 PUSH2 0x4FE JUMP JUMPDEST SWAP3 SWAP2 POP POP JUMP JUMPDEST PUSH0 PUSH1 0x20 DUP3 DUP5 SUB SLT ISZERO PUSH2 0x53D JUMPI PUSH2 0x53C PUSH2 0x4F1 JUMP JUMPDEST JUMPDEST PUSH0 PUSH2 0x54A DUP5 DUP3 DUP6 ADD PUSH2 0x514 JUMP JUMPDEST SWAP2 POP POP SWAP3 SWAP2 POP POP JUMP JUMPDEST PUSH0 PUSH20 0xFFFFFFFFFFFFFFFFFFFFFFFFFFFFFFFFFFFFFFFF DUP3 AND SWAP1 POP SWAP2 SWAP1 POP JUMP JUMPDEST PUSH0 DUP2 SWAP1 POP SWAP2 SWAP1 POP JUMP JUMPDEST PUSH0 PUSH2 0x595 PUSH2 0x590 PUSH2 0x58B DUP5 PUSH2 0x553 JUMP JUMPDEST PUSH2 0x572 JUMP JUMPDEST PUSH2 0x553 JUMP JUMPDEST SWAP1 POP SWAP2 SWAP1 POP JUMP JUMPDEST PUSH0 PUSH2 0x5A6 DUP3 PUSH2 0x57B JUMP JUMPDEST SWAP1 POP SWAP2 SWAP1 POP JUMP JUMPDEST PUSH0 PUSH2 0x5B7 DUP3 PUSH2 0x59C JUMP JUMPDEST SWAP1 POP SWAP2 SWAP1 POP JUMP JUMPDEST PUSH2 0x5C7 DUP2 PUSH2 0x5AD JUMP JUMPDEST DUP3 MSTORE POP POP JUMP JUMPDEST PUSH0 PUSH1 0x20 DUP3 ADD SWAP1 POP PUSH2 0x5E0 PUSH0 DUP4 ADD DUP5 PUSH2 0x5BE JUMP JUMPDEST SWAP3 SWAP2 POP POP JUMP JUMPDEST PUSH0 DUP3 DUP3 MSTORE PUSH1 0x20 DUP3 ADD SWAP1 POP SWAP3 SWAP2 POP POP JUMP JUMPDEST PUSH32 0x796F752063616E206E6F74207374616B65207A65726F20657468657265756D00 PUSH0 DUP3 ADD MSTORE POP JUMP JUMPDEST PUSH0 PUSH2 0x62A PUSH1 0x1F DUP4 PUSH2 0x5E6 JUMP JUMPDEST SWAP2 POP PUSH2 0x635 DUP3 PUSH2 0x5F6 JUMP JUMPDEST PUSH1 0x20 DUP3 ADD SWAP1 POP SWAP2 SWAP1 POP JUMP JUMPDEST PUSH0 PUSH1 0x20 DUP3 ADD SWAP1 POP DUP2 DUP2 SUB PUSH0 DUP4 ADD MSTORE PUSH2 0x657 DUP2 PUSH2 0x61E JUMP JUMPDEST SWAP1 POP SWAP2 SWAP1 POP JUMP JUMPDEST PUSH32 0x696E76616C696420616464726573730000000000000000000000000000000000 PUSH0 DUP3 ADD MSTORE POP JUMP JUMPDEST PUSH0 PUSH2 0x692 PUSH1 0xF DUP4 PUSH2 0x5E6 JUMP JUMPDEST SWAP2 POP PUSH2 0x69D DUP3 PUSH2 0x65E JUMP JUMPDEST PUSH1 0x20 DUP3 ADD SWAP1 POP SWAP2 SWAP1 POP JUMP JUMPDEST PUSH0 PUSH1 0x20 DUP3 ADD SWAP1 POP DUP2 DUP2 SUB PUSH0 DUP4 ADD MSTORE PUSH2 0x6BF DUP2 PUSH2 0x686 JUMP JUMPDEST SWAP1 POP SWAP2 SWAP1 POP JUMP JUMPDEST PUSH32 0x4E487B7100000000000000000000000000000000000000000000000000000000 PUSH0 MSTORE PUSH1 0x11 PUSH1 0x4 MSTORE PUSH1 0x24 PUSH0 REVERT JUMPDEST PUSH0 PUSH2 0x6FD DUP3 PUSH2 0x4F5 JUMP JUMPDEST SWAP2 POP PUSH2 0x708 DUP4 PUSH2 0x4F5 JUMP JUMPDEST SWAP3 POP DUP3 DUP3 ADD SWAP1 POP DUP1 DUP3 GT ISZERO PUSH2 0x720 JUMPI PUSH2 0x71F PUSH2 0x6C6 JUMP JUMPDEST JUMPDEST SWAP3 SWAP2 POP POP JUMP JUMPDEST PUSH32 0x5374616B696E6720616D6F756E742063616E206E6F74206265207A65726F0000 PUSH0 DUP3 ADD MSTORE POP JUMP JUMPDEST PUSH0 PUSH2 0x75A PUSH1 0x1E DUP4 PUSH2 0x5E6 JUMP JUMPDEST SWAP2 POP PUSH2 0x765 DUP3 PUSH2 0x726 JUMP JUMPDEST PUSH1 0x20 DUP3 ADD SWAP1 POP SWAP2 SWAP1 POP JUMP JUMPDEST PUSH0 PUSH1 0x20 DUP3 ADD SWAP1 POP DUP2 DUP2 SUB PUSH0 DUP4 ADD MSTORE PUSH2 0x787 DUP2 PUSH2 0x74E JUMP JUMPDEST SWAP1 POP SWAP2 SWAP1 POP JUMP JUMPDEST PUSH32 0x6469726174696F6E2063616E206E6F74206265207A65726F0000000000000000 PUSH0 DUP3 ADD MSTORE POP JUMP JUMPDEST PUSH0 PUSH2 0x7C2 PUSH1 0x18 DUP4 PUSH2 0x5E6 JUMP JUMPDEST SWAP2 POP PUSH2 0x7CD DUP3 PUSH2 0x78E JUMP JUMPDEST PUSH1 0x20 DUP3 ADD SWAP1 POP SWAP2 SWAP1 POP JUMP JUMPDEST PUSH0 PUSH1 0x20 DUP3 ADD SWAP1 POP DUP2 DUP2 SUB PUSH0 DUP4 ADD MSTORE PUSH2 0x7EF DUP2 PUSH2 0x7B6 JUMP JUMPDEST SWAP1 POP SWAP2 SWAP1 POP JUMP JUMPDEST PUSH32 0x796F75206861766520616E20616374697665207374616B6520706C6561736520 PUSH0 DUP3 ADD MSTORE PUSH32 0x747279207570646174696E677374616B6520696E737465616400000000000000 PUSH1 0x20 DUP3 ADD MSTORE POP JUMP JUMPDEST PUSH0 PUSH2 0x850 PUSH1 0x39 DUP4 PUSH2 0x5E6 JUMP JUMPDEST SWAP2 POP PUSH2 0x85B DUP3 PUSH2 0x7F6 JUMP JUMPDEST PUSH1 0x40 DUP3 ADD SWAP1 POP SWAP2 SWAP1 POP JUMP JUMPDEST PUSH0 PUSH1 0x20 DUP3 ADD SWAP1 POP DUP2 DUP2 SUB PUSH0 DUP4 ADD MSTORE PUSH2 0x87D DUP2 PUSH2 0x844 JUMP JUMPDEST SWAP1 POP SWAP2 SWAP1 POP JUMP JUMPDEST PUSH0 PUSH2 0x88E DUP3 PUSH2 0x4F5 JUMP JUMPDEST SWAP2 POP PUSH2 0x899 DUP4 PUSH2 0x4F5 JUMP JUMPDEST SWAP3 POP DUP3 DUP3 MUL PUSH2 0x8A7 DUP2 PUSH2 0x4F5 JUMP JUMPDEST SWAP2 POP DUP3 DUP3 DIV DUP5 EQ DUP4 ISZERO OR PUSH2 0x8BE JUMPI PUSH2 0x8BD PUSH2 0x6C6 JUMP JUMPDEST JUMPDEST POP SWAP3 SWAP2 POP POP JUMP JUMPDEST PUSH2 0x8CE DUP2 PUSH2 0x4F5 JUMP JUMPDEST DUP3 MSTORE POP POP JUMP JUMPDEST PUSH0 PUSH1 0x40 DUP3 ADD SWAP1 POP PUSH2 0x8E7 PUSH0 DUP4 ADD DUP6 PUSH2 0x8C5 JUMP JUMPDEST PUSH2 0x8F4 PUSH1 0x20 DUP4 ADD DUP5 PUSH2 0x8C5 JUMP JUMPDEST SWAP4 SWAP3 POP POP POP JUMP INVALID LOG2 PUSH5 0x6970667358 0x22 SLT KECCAK256 DUP15 RETURNDATACOPY 0xC4 TIMESTAMP SWAP6 CALLDATALOAD SWAP13 0xCB CALLCODE PUSH3 0xB8A428 CALLDATACOPY SWAP3 PUSH22 0x59EEC7FB42CEDF6CDD63821397CDE27E64736F6C6343 STOP ADDMOD BYTE STOP CALLER "
				},
				"gasEstimates": {
					"creation": {
						"codeDepositCost": "470600",
						"executionCost": "infinite",
						"totalCost": "infinite"
					},
					"external": {
						"rewardsToken()": "infinite",
						"stake(uint256)": "infinite",
						"updatStaking()": "infinite",
						"withdraw()": "143"
					}
				},
				"methodIdentifiers": {
					"rewardsToken()": "d1af0c7d",
					"stake(uint256)": "a694fc3a",
					"updatStaking()": "3139b12b",
					"withdraw()": "3ccfd60b"
				}
			},
			"storageLayout": {
				"storage": [
					{
						"astId": 83,
						"contract": "stake/stake.sol:FitechStaking",
						"label": "rewardsToken",
						"offset": 0,
						"slot": "0",
						"type": "t_contract(IERC20)77"
					},
					{
						"astId": 86,
						"contract": "stake/stake.sol:FitechStaking",
						"label": "reward",
						"offset": 0,
						"slot": "1",
						"type": "t_uint256"
					},
					{
						"astId": 88,
						"contract": "stake/stake.sol:FitechStaking",
						"label": "totalStaked",
						"offset": 0,
						"slot": "2",
						"type": "t_uint256"
					},
					{
						"astId": 90,
						"contract": "stake/stake.sol:FitechStaking",
						"label": "owner",
						"offset": 0,
						"slot": "3",
						"type": "t_address"
					},
					{
						"astId": 106,
						"contract": "stake/stake.sol:FitechStaking",
						"label": "userStake",
						"offset": 0,
						"slot": "4",
						"type": "t_mapping(t_address,t_struct(User)101_storage)"
					},
					{
						"astId": 110,
						"contract": "stake/stake.sol:FitechStaking",
						"label": "stakedAmountByUser",
						"offset": 0,
						"slot": "5",
						"type": "t_mapping(t_address,t_uint256)"
					},
					{
						"astId": 114,
						"contract": "stake/stake.sol:FitechStaking",
						"label": "rewardAmountByUser",
						"offset": 0,
						"slot": "6",
						"type": "t_mapping(t_address,t_uint256)"
					}
				],
				"types": {
					"t_address": {
						"encoding": "inplace",
						"label": "address",
						"numberOfBytes": "20"
					},
					"t_bool": {
						"encoding": "inplace",
						"label": "bool",
						"numberOfBytes": "1"
					},
					"t_contract(IERC20)77": {
						"encoding": "inplace",
						"label": "contract IERC20",
						"numberOfBytes": "20"
					},
					"t_mapping(t_address,t_struct(User)101_storage)": {
						"encoding": "mapping",
						"key": "t_address",
						"label": "mapping(address => struct FitechStaking.User)",
						"numberOfBytes": "32",
						"value": "t_struct(User)101_storage"
					},
					"t_mapping(t_address,t_uint256)": {
						"encoding": "mapping",
						"key": "t_address",
						"label": "mapping(address => uint256)",
						"numberOfBytes": "32",
						"value": "t_uint256"
					},
					"t_struct(User)101_storage": {
						"encoding": "inplace",
						"label": "struct FitechStaking.User",
						"members": [
							{
								"astId": 92,
								"contract": "stake/stake.sol:FitechStaking",
								"label": "amount",
								"offset": 0,
								"slot": "0",
								"type": "t_uint256"
							},
							{
								"astId": 94,
								"contract": "stake/stake.sol:FitechStaking",
								"label": "duration",
								"offset": 0,
								"slot": "1",
								"type": "t_uint256"
							},
							{
								"astId": 96,
								"contract": "stake/stake.sol:FitechStaking",
								"label": "stakedTime",
								"offset": 0,
								"slot": "2",
								"type": "t_uint256"
							},
							{
								"astId": 98,
								"contract": "stake/stake.sol:FitechStaking",
								"label": "unStakeTime",
								"offset": 0,
								"slot": "3",
								"type": "t_uint256"
							},
							{
								"astId": 100,
								"contract": "stake/stake.sol:FitechStaking",
								"label": "active",
								"offset": 0,
								"slot": "4",
								"type": "t_bool"
							}
						],
						"numberOfBytes": "160"
					},
					"t_uint256": {
						"encoding": "inplace",
						"label": "uint256",
						"numberOfBytes": "32"
					}
				}
			},
			"userdoc": {
				"kind": "user",
				"methods": {},
				"version": 1
			}
		}
	}
}