{
	"ERC20-Token/token.sol": {
		"ERC20Token": {
			"abi": [
				{
					"inputs": [
						{
							"internalType": "string",
							"name": "_tokenName",
							"type": "string"
						},
						{
							"internalType": "string",
							"name": "_tokenSymbol",
							"type": "string"
						},
						{
							"internalType": "uint256",
							"name": "_tokenDecimal",
							"type": "uint256"
						},
						{
							"internalType": "uint256",
							"name": "_initialSupply",
							"type": "uint256"
						}
					],
					"stateMutability": "nonpayable",
					"type": "constructor"
				},
				{
					"anonymous": false,
					"inputs": [
						{
							"indexed": true,
							"internalType": "address",
							"name": "owner",
							"type": "address"
						},
						{
							"indexed": true,
							"internalType": "address",
							"name": "spender",
							"type": "address"
						},
						{
							"indexed": false,
							"internalType": "uint256",
							"name": "value",
							"type": "uint256"
						}
					],
					"name": "Approval",
					"type": "event"
				},
				{
					"anonymous": false,
					"inputs": [
						{
							"indexed": true,
							"internalType": "address",
							"name": "from",
							"type": "address"
						},
						{
							"indexed": true,
							"internalType": "address",
							"name": "to",
							"type": "address"
						},
						{
							"indexed": false,
							"internalType": "uint256",
							"name": "value",
							"type": "uint256"
						}
					],
					"name": "Transfer",
					"type": "event"
				},
				{
					"inputs": [
						{
							"internalType": "address",
							"name": "_owner",
							"type": "address"
						},
						{
							"internalType": "address",
							"name": "_spender",
							"type": "address"
						}
					],
					"name": "allowance",
					"outputs": [
						{
							"internalType": "uint256",
							"name": "",
							"type": "uint256"
						}
					],
					"stateMutability": "view",
					"type": "function"
				},
				{
					"inputs": [
						{
							"internalType": "address",
							"name": "_spender",
							"type": "address"
						},
						{
							"internalType": "uint256",
							"name": "_amount",
							"type": "uint256"
						}
					],
					"name": "approve",
					"outputs": [
						{
							"internalType": "bool",
							"name": "",
							"type": "bool"
						}
					],
					"stateMutability": "nonpayable",
					"type": "function"
				},
				{
					"inputs": [
						{
							"internalType": "address",
							"name": "_owner",
							"type": "address"
						}
					],
					"name": "balanceOf",
					"outputs": [
						{
							"internalType": "uint256",
							"name": "",
							"type": "uint256"
						}
					],
					"stateMutability": "view",
					"type": "function"
				},
				{
					"inputs": [],
					"name": "tokenDecimal",
					"outputs": [
						{
							"internalType": "uint256",
							"name": "",
							"type": "uint256"
						}
					],
					"stateMutability": "view",
					"type": "function"
				},
				{
					"inputs": [],
					"name": "tokenName",
					"outputs": [
						{
							"internalType": "string",
							"name": "",
							"type": "string"
						}
					],
					"stateMutability": "view",
					"type": "function"
				},
				{
					"inputs": [],
					"name": "tokenSymbol",
					"outputs": [
						{
							"internalType": "string",
							"name": "",
							"type": "string"
						}
					],
					"stateMutability": "view",
					"type": "function"
				},
				{
					"inputs": [],
					"name": "totalSupply",
					"outputs": [
						{
							"internalType": "uint256",
							"name": "",
							"type": "uint256"
						}
					],
					"stateMutability": "view",
					"type": "function"
				},
				{
					"inputs": [
						{
							"internalType": "address",
							"name": "_recipient",
							"type": "address"
						},
						{
							"internalType": "uint256",
							"name": "_amount",
							"type": "uint256"
						}
					],
					"name": "transfer",
					"outputs": [
						{
							"internalType": "bool",
							"name": "",
							"type": "bool"
						}
					],
					"stateMutability": "nonpayable",
					"type": "function"
				},
				{
					"inputs": [
						{
							"internalType": "address",
							"name": "_sender",
							"type": "address"
						},
						{
							"internalType": "address",
							"name": "_recipient",
							"type": "address"
						},
						{
							"internalType": "uint256",
							"name": "_amount",
							"type": "uint256"
						}
					],
					"name": "transferFrom",
					"outputs": [
						{
							"internalType": "bool",
							"name": "",
							"type": "bool"
						}
					],
					"stateMutability": "nonpayable",
					"type": "function"
				}
			],
			"devdoc": {
				"kind": "dev",
				"methods": {},
				"version": 1
			},
			"evm": {
				"assembly": "    /* \"ERC20-Token/token.sol\":839:3804  contract ERC20Token is IERC20T {... */\n  mstore(0x40, 0x80)\n    /* \"ERC20-Token/token.sol\":1136:1590  constructor(... */\n  callvalue\n  dup1\n  iszero\n  tag_1\n  jumpi\n  0x00\n  dup1\n  revert\ntag_1:\n  pop\n  mload(0x40)\n  sub(codesize, bytecodeSize)\n  dup1\n  bytecodeSize\n  dup4\n  codecopy\n  dup2\n  dup2\n  add\n  0x40\n  mstore\n  dup2\n  add\n  swap1\n  tag_2\n  swap2\n  swap1\n  tag_3\n  jump\t// in\ntag_2:\n    /* \"ERC20-Token/token.sol\":1309:1319  _tokenName */\n  dup4\n    /* \"ERC20-Token/token.sol\":1297:1306  tokenName */\n  0x00\n    /* \"ERC20-Token/token.sol\":1297:1319  tokenName = _tokenName */\n  swap1\n  dup2\n  tag_6\n  swap2\n  swap1\n  tag_7\n  jump\t// in\ntag_6:\n  pop\n    /* \"ERC20-Token/token.sol\":1343:1355  _tokenSymbol */\n  dup3\n    /* \"ERC20-Token/token.sol\":1329:1340  tokenSymbol */\n  0x01\n    /* \"ERC20-Token/token.sol\":1329:1355  tokenSymbol = _tokenSymbol */\n  swap1\n  dup2\n  tag_8\n  swap2\n  swap1\n  tag_7\n  jump\t// in\ntag_8:\n  pop\n    /* \"ERC20-Token/token.sol\":1380:1393  _tokenDecimal */\n  dup2\n    /* \"ERC20-Token/token.sol\":1365:1377  tokenDecimal */\n  0x02\n    /* \"ERC20-Token/token.sol\":1365:1393  tokenDecimal = _tokenDecimal */\n  dup2\n  swap1\n  sstore\n  pop\n    /* \"ERC20-Token/token.sol\":1451:1463  tokenDecimal */\n  sload(0x02)\n    /* \"ERC20-Token/token.sol\":1439:1441  10 */\n  0x0a\n    /* \"ERC20-Token/token.sol\":1439:1464  10**uint256(tokenDecimal) */\n  tag_9\n  swap2\n  swap1\n  tag_10\n  jump\t// in\ntag_9:\n    /* \"ERC20-Token/token.sol\":1422:1436  _initialSupply */\n  dup2\n    /* \"ERC20-Token/token.sol\":1422:1464  _initialSupply * 10**uint256(tokenDecimal) */\n  tag_11\n  swap2\n  swap1\n  tag_12\n  jump\t// in\ntag_11:\n    /* \"ERC20-Token/token.sol\":1403:1419  tokenTotalSupply */\n  0x03\n    /* \"ERC20-Token/token.sol\":1403:1464  tokenTotalSupply = _initialSupply * 10**uint256(tokenDecimal) */\n  dup2\n  swap1\n  sstore\n  pop\n    /* \"ERC20-Token/token.sol\":1502:1518  tokenTotalSupply */\n  sload(0x03)\n    /* \"ERC20-Token/token.sol\":1474:1487  _ownerBalance */\n  0x04\n    /* \"ERC20-Token/token.sol\":1474:1499  _ownerBalance[msg.sender] */\n  0x00\n    /* \"ERC20-Token/token.sol\":1488:1498  msg.sender */\n  caller\n    /* \"ERC20-Token/token.sol\":1474:1499  _ownerBalance[msg.sender] */\n  0xffffffffffffffffffffffffffffffffffffffff\n  and\n  0xffffffffffffffffffffffffffffffffffffffff\n  and\n  dup2\n  mstore\n  0x20\n  add\n  swap1\n  dup2\n  mstore\n  0x20\n  add\n  0x00\n  keccak256\n    /* \"ERC20-Token/token.sol\":1474:1518  _ownerBalance[msg.sender] = tokenTotalSupply */\n  dup2\n  swap1\n  sstore\n  pop\n    /* \"ERC20-Token/token.sol\":1554:1564  msg.sender */\n  caller\n    /* \"ERC20-Token/token.sol\":1533:1583  Transfer(address(0), msg.sender, tokenTotalSupply) */\n  0xffffffffffffffffffffffffffffffffffffffff\n  and\n    /* \"ERC20-Token/token.sol\":1550:1551  0 */\n  0x00\n    /* \"ERC20-Token/token.sol\":1533:1583  Transfer(address(0), msg.sender, tokenTotalSupply) */\n  0xffffffffffffffffffffffffffffffffffffffff\n  and\n  0xddf252ad1be2c89b69c2b068fc378daa952ba7f163c4a11628f55a4df523b3ef\n    /* \"ERC20-Token/token.sol\":1566:1582  tokenTotalSupply */\n  sload(0x03)\n    /* \"ERC20-Token/token.sol\":1533:1583  Transfer(address(0), msg.sender, tokenTotalSupply) */\n  mload(0x40)\n  tag_13\n  swap2\n  swap1\n  tag_14\n  jump\t// in\ntag_13:\n  mload(0x40)\n  dup1\n  swap2\n  sub\n  swap1\n  log3\n    /* \"ERC20-Token/token.sol\":1136:1590  constructor(... */\n  pop\n  pop\n  pop\n  pop\n    /* \"ERC20-Token/token.sol\":839:3804  contract ERC20Token is IERC20T {... */\n  jump(tag_15)\n    /* \"#utility.yul\":7:82   */\ntag_16:\n    /* \"#utility.yul\":40:46   */\n  0x00\n    /* \"#utility.yul\":73:75   */\n  0x40\n    /* \"#utility.yul\":67:76   */\n  mload\n    /* \"#utility.yul\":57:76   */\n  swap1\n  pop\n    /* \"#utility.yul\":7:82   */\n  swap1\n  jump\t// out\n    /* \"#utility.yul\":88:205   */\ntag_17:\n    /* \"#utility.yul\":197:198   */\n  0x00\n    /* \"#utility.yul\":194:195   */\n  dup1\n    /* \"#utility.yul\":187:199   */\n  revert\n    /* \"#utility.yul\":211:328   */\ntag_18:\n    /* \"#utility.yul\":320:321   */\n  0x00\n    /* \"#utility.yul\":317:318   */\n  dup1\n    /* \"#utility.yul\":310:322   */\n  revert\n    /* \"#utility.yul\":334:451   */\ntag_19:\n    /* \"#utility.yul\":443:444   */\n  0x00\n    /* \"#utility.yul\":440:441   */\n  dup1\n    /* \"#utility.yul\":433:445   */\n  revert\n    /* \"#utility.yul\":457:574   */\ntag_20:\n    /* \"#utility.yul\":566:567   */\n  0x00\n    /* \"#utility.yul\":563:564   */\n  dup1\n    /* \"#utility.yul\":556:568   */\n  revert\n    /* \"#utility.yul\":580:682   */\ntag_21:\n    /* \"#utility.yul\":621:627   */\n  0x00\n    /* \"#utility.yul\":672:674   */\n  0x1f\n    /* \"#utility.yul\":668:675   */\n  not\n    /* \"#utility.yul\":663:665   */\n  0x1f\n    /* \"#utility.yul\":656:661   */\n  dup4\n    /* \"#utility.yul\":652:666   */\n  add\n    /* \"#utility.yul\":648:676   */\n  and\n    /* \"#utility.yul\":638:676   */\n  swap1\n  pop\n    /* \"#utility.yul\":580:682   */\n  swap2\n  swap1\n  pop\n  jump\t// out\n    /* \"#utility.yul\":688:868   */\ntag_22:\n    /* \"#utility.yul\":736:813   */\n  0x4e487b7100000000000000000000000000000000000000000000000000000000\n    /* \"#utility.yul\":733:734   */\n  0x00\n    /* \"#utility.yul\":726:814   */\n  mstore\n    /* \"#utility.yul\":833:837   */\n  0x41\n    /* \"#utility.yul\":830:831   */\n  0x04\n    /* \"#utility.yul\":823:838   */\n  mstore\n    /* \"#utility.yul\":857:861   */\n  0x24\n    /* \"#utility.yul\":854:855   */\n  0x00\n    /* \"#utility.yul\":847:862   */\n  revert\n    /* \"#utility.yul\":874:1155   */\ntag_23:\n    /* \"#utility.yul\":957:984   */\n  tag_64\n    /* \"#utility.yul\":979:983   */\n  dup3\n    /* \"#utility.yul\":957:984   */\n  tag_21\n  jump\t// in\ntag_64:\n    /* \"#utility.yul\":949:955   */\n  dup2\n    /* \"#utility.yul\":945:985   */\n  add\n    /* \"#utility.yul\":1087:1093   */\n  dup2\n    /* \"#utility.yul\":1075:1085   */\n  dup2\n    /* \"#utility.yul\":1072:1094   */\n  lt\n    /* \"#utility.yul\":1051:1069   */\n  0xffffffffffffffff\n    /* \"#utility.yul\":1039:1049   */\n  dup3\n    /* \"#utility.yul\":1036:1070   */\n  gt\n    /* \"#utility.yul\":1033:1095   */\n  or\n    /* \"#utility.yul\":1030:1118   */\n  iszero\n  tag_65\n  jumpi\n    /* \"#utility.yul\":1098:1116   */\n  tag_66\n  tag_22\n  jump\t// in\ntag_66:\n    /* \"#utility.yul\":1030:1118   */\ntag_65:\n    /* \"#utility.yul\":1138:1148   */\n  dup1\n    /* \"#utility.yul\":1134:1136   */\n  0x40\n    /* \"#utility.yul\":1127:1149   */\n  mstore\n    /* \"#utility.yul\":917:1155   */\n  pop\n    /* \"#utility.yul\":874:1155   */\n  pop\n  pop\n  jump\t// out\n    /* \"#utility.yul\":1161:1290   */\ntag_24:\n    /* \"#utility.yul\":1195:1201   */\n  0x00\n    /* \"#utility.yul\":1222:1242   */\n  tag_68\n  tag_16\n  jump\t// in\ntag_68:\n    /* \"#utility.yul\":1212:1242   */\n  swap1\n  pop\n    /* \"#utility.yul\":1251:1284   */\n  tag_69\n    /* \"#utility.yul\":1279:1283   */\n  dup3\n    /* \"#utility.yul\":1271:1277   */\n  dup3\n    /* \"#utility.yul\":1251:1284   */\n  tag_23\n  jump\t// in\ntag_69:\n    /* \"#utility.yul\":1161:1290   */\n  swap2\n  swap1\n  pop\n  jump\t// out\n    /* \"#utility.yul\":1296:1604   */\ntag_25:\n    /* \"#utility.yul\":1358:1362   */\n  0x00\n    /* \"#utility.yul\":1448:1466   */\n  0xffffffffffffffff\n    /* \"#utility.yul\":1440:1446   */\n  dup3\n    /* \"#utility.yul\":1437:1467   */\n  gt\n    /* \"#utility.yul\":1434:1490   */\n  iszero\n  tag_71\n  jumpi\n    /* \"#utility.yul\":1470:1488   */\n  tag_72\n  tag_22\n  jump\t// in\ntag_72:\n    /* \"#utility.yul\":1434:1490   */\ntag_71:\n    /* \"#utility.yul\":1508:1537   */\n  tag_73\n    /* \"#utility.yul\":1530:1536   */\n  dup3\n    /* \"#utility.yul\":1508:1537   */\n  tag_21\n  jump\t// in\ntag_73:\n    /* \"#utility.yul\":1500:1537   */\n  swap1\n  pop\n    /* \"#utility.yul\":1592:1596   */\n  0x20\n    /* \"#utility.yul\":1586:1590   */\n  dup2\n    /* \"#utility.yul\":1582:1597   */\n  add\n    /* \"#utility.yul\":1574:1597   */\n  swap1\n  pop\n    /* \"#utility.yul\":1296:1604   */\n  swap2\n  swap1\n  pop\n  jump\t// out\n    /* \"#utility.yul\":1610:1749   */\ntag_26:\n    /* \"#utility.yul\":1699:1705   */\n  dup3\n    /* \"#utility.yul\":1694:1697   */\n  dup2\n    /* \"#utility.yul\":1689:1692   */\n  dup4\n    /* \"#utility.yul\":1683:1706   */\n  mcopy\n    /* \"#utility.yul\":1740:1741   */\n  0x00\n    /* \"#utility.yul\":1731:1737   */\n  dup4\n    /* \"#utility.yul\":1726:1729   */\n  dup4\n    /* \"#utility.yul\":1722:1738   */\n  add\n    /* \"#utility.yul\":1715:1742   */\n  mstore\n    /* \"#utility.yul\":1610:1749   */\n  pop\n  pop\n  pop\n  jump\t// out\n    /* \"#utility.yul\":1755:2189   */\ntag_27:\n    /* \"#utility.yul\":1844:1849   */\n  0x00\n    /* \"#utility.yul\":1869:1935   */\n  tag_76\n    /* \"#utility.yul\":1885:1934   */\n  tag_77\n    /* \"#utility.yul\":1927:1933   */\n  dup5\n    /* \"#utility.yul\":1885:1934   */\n  tag_25\n  jump\t// in\ntag_77:\n    /* \"#utility.yul\":1869:1935   */\n  tag_24\n  jump\t// in\ntag_76:\n    /* \"#utility.yul\":1860:1935   */\n  swap1\n  pop\n    /* \"#utility.yul\":1958:1964   */\n  dup3\n    /* \"#utility.yul\":1951:1956   */\n  dup2\n    /* \"#utility.yul\":1944:1965   */\n  mstore\n    /* \"#utility.yul\":1996:2000   */\n  0x20\n    /* \"#utility.yul\":1989:1994   */\n  dup2\n    /* \"#utility.yul\":1985:2001   */\n  add\n    /* \"#utility.yul\":2034:2037   */\n  dup5\n    /* \"#utility.yul\":2025:2031   */\n  dup5\n    /* \"#utility.yul\":2020:2023   */\n  dup5\n    /* \"#utility.yul\":2016:2032   */\n  add\n    /* \"#utility.yul\":2013:2038   */\n  gt\n    /* \"#utility.yul\":2010:2122   */\n  iszero\n  tag_78\n  jumpi\n    /* \"#utility.yul\":2041:2120   */\n  tag_79\n  tag_20\n  jump\t// in\ntag_79:\n    /* \"#utility.yul\":2010:2122   */\ntag_78:\n    /* \"#utility.yul\":2131:2183   */\n  tag_80\n    /* \"#utility.yul\":2176:2182   */\n  dup5\n    /* \"#utility.yul\":2171:2174   */\n  dup3\n    /* \"#utility.yul\":2166:2169   */\n  dup6\n    /* \"#utility.yul\":2131:2183   */\n  tag_26\n  jump\t// in\ntag_80:\n    /* \"#utility.yul\":1850:2189   */\n  pop\n    /* \"#utility.yul\":1755:2189   */\n  swap4\n  swap3\n  pop\n  pop\n  pop\n  jump\t// out\n    /* \"#utility.yul\":2209:2564   */\ntag_28:\n    /* \"#utility.yul\":2276:2281   */\n  0x00\n    /* \"#utility.yul\":2325:2328   */\n  dup3\n    /* \"#utility.yul\":2318:2322   */\n  0x1f\n    /* \"#utility.yul\":2310:2316   */\n  dup4\n    /* \"#utility.yul\":2306:2323   */\n  add\n    /* \"#utility.yul\":2302:2329   */\n  slt\n    /* \"#utility.yul\":2292:2414   */\n  tag_82\n  jumpi\n    /* \"#utility.yul\":2333:2412   */\n  tag_83\n  tag_19\n  jump\t// in\ntag_83:\n    /* \"#utility.yul\":2292:2414   */\ntag_82:\n    /* \"#utility.yul\":2443:2449   */\n  dup2\n    /* \"#utility.yul\":2437:2450   */\n  mload\n    /* \"#utility.yul\":2468:2558   */\n  tag_84\n    /* \"#utility.yul\":2554:2557   */\n  dup5\n    /* \"#utility.yul\":2546:2552   */\n  dup3\n    /* \"#utility.yul\":2539:2543   */\n  0x20\n    /* \"#utility.yul\":2531:2537   */\n  dup7\n    /* \"#utility.yul\":2527:2544   */\n  add\n    /* \"#utility.yul\":2468:2558   */\n  tag_27\n  jump\t// in\ntag_84:\n    /* \"#utility.yul\":2459:2558   */\n  swap2\n  pop\n    /* \"#utility.yul\":2282:2564   */\n  pop\n    /* \"#utility.yul\":2209:2564   */\n  swap3\n  swap2\n  pop\n  pop\n  jump\t// out\n    /* \"#utility.yul\":2570:2647   */\ntag_29:\n    /* \"#utility.yul\":2607:2614   */\n  0x00\n    /* \"#utility.yul\":2636:2641   */\n  dup2\n    /* \"#utility.yul\":2625:2641   */\n  swap1\n  pop\n    /* \"#utility.yul\":2570:2647   */\n  swap2\n  swap1\n  pop\n  jump\t// out\n    /* \"#utility.yul\":2653:2775   */\ntag_30:\n    /* \"#utility.yul\":2726:2750   */\n  tag_87\n    /* \"#utility.yul\":2744:2749   */\n  dup2\n    /* \"#utility.yul\":2726:2750   */\n  tag_29\n  jump\t// in\ntag_87:\n    /* \"#utility.yul\":2719:2724   */\n  dup2\n    /* \"#utility.yul\":2716:2751   */\n  eq\n    /* \"#utility.yul\":2706:2769   */\n  tag_88\n  jumpi\n    /* \"#utility.yul\":2765:2766   */\n  0x00\n    /* \"#utility.yul\":2762:2763   */\n  dup1\n    /* \"#utility.yul\":2755:2767   */\n  revert\n    /* \"#utility.yul\":2706:2769   */\ntag_88:\n    /* \"#utility.yul\":2653:2775   */\n  pop\n  jump\t// out\n    /* \"#utility.yul\":2781:2924   */\ntag_31:\n    /* \"#utility.yul\":2838:2843   */\n  0x00\n    /* \"#utility.yul\":2869:2875   */\n  dup2\n    /* \"#utility.yul\":2863:2876   */\n  mload\n    /* \"#utility.yul\":2854:2876   */\n  swap1\n  pop\n    /* \"#utility.yul\":2885:2918   */\n  tag_90\n    /* \"#utility.yul\":2912:2917   */\n  dup2\n    /* \"#utility.yul\":2885:2918   */\n  tag_30\n  jump\t// in\ntag_90:\n    /* \"#utility.yul\":2781:2924   */\n  swap3\n  swap2\n  pop\n  pop\n  jump\t// out\n    /* \"#utility.yul\":2930:4096   */\ntag_3:\n    /* \"#utility.yul\":3047:3053   */\n  0x00\n    /* \"#utility.yul\":3055:3061   */\n  dup1\n    /* \"#utility.yul\":3063:3069   */\n  0x00\n    /* \"#utility.yul\":3071:3077   */\n  dup1\n    /* \"#utility.yul\":3120:3123   */\n  0x80\n    /* \"#utility.yul\":3108:3117   */\n  dup6\n    /* \"#utility.yul\":3099:3106   */\n  dup8\n    /* \"#utility.yul\":3095:3118   */\n  sub\n    /* \"#utility.yul\":3091:3124   */\n  slt\n    /* \"#utility.yul\":3088:3208   */\n  iszero\n  tag_92\n  jumpi\n    /* \"#utility.yul\":3127:3206   */\n  tag_93\n  tag_17\n  jump\t// in\ntag_93:\n    /* \"#utility.yul\":3088:3208   */\ntag_92:\n    /* \"#utility.yul\":3268:3269   */\n  0x00\n    /* \"#utility.yul\":3257:3266   */\n  dup6\n    /* \"#utility.yul\":3253:3270   */\n  add\n    /* \"#utility.yul\":3247:3271   */\n  mload\n    /* \"#utility.yul\":3298:3316   */\n  0xffffffffffffffff\n    /* \"#utility.yul\":3290:3296   */\n  dup2\n    /* \"#utility.yul\":3287:3317   */\n  gt\n    /* \"#utility.yul\":3284:3401   */\n  iszero\n  tag_94\n  jumpi\n    /* \"#utility.yul\":3320:3399   */\n  tag_95\n  tag_18\n  jump\t// in\ntag_95:\n    /* \"#utility.yul\":3284:3401   */\ntag_94:\n    /* \"#utility.yul\":3425:3499   */\n  tag_96\n    /* \"#utility.yul\":3491:3498   */\n  dup8\n    /* \"#utility.yul\":3482:3488   */\n  dup3\n    /* \"#utility.yul\":3471:3480   */\n  dup9\n    /* \"#utility.yul\":3467:3489   */\n  add\n    /* \"#utility.yul\":3425:3499   */\n  tag_28\n  jump\t// in\ntag_96:\n    /* \"#utility.yul\":3415:3499   */\n  swap5\n  pop\n    /* \"#utility.yul\":3218:3509   */\n  pop\n    /* \"#utility.yul\":3569:3571   */\n  0x20\n    /* \"#utility.yul\":3558:3567   */\n  dup6\n    /* \"#utility.yul\":3554:3572   */\n  add\n    /* \"#utility.yul\":3548:3573   */\n  mload\n    /* \"#utility.yul\":3600:3618   */\n  0xffffffffffffffff\n    /* \"#utility.yul\":3592:3598   */\n  dup2\n    /* \"#utility.yul\":3589:3619   */\n  gt\n    /* \"#utility.yul\":3586:3703   */\n  iszero\n  tag_97\n  jumpi\n    /* \"#utility.yul\":3622:3701   */\n  tag_98\n  tag_18\n  jump\t// in\ntag_98:\n    /* \"#utility.yul\":3586:3703   */\ntag_97:\n    /* \"#utility.yul\":3727:3801   */\n  tag_99\n    /* \"#utility.yul\":3793:3800   */\n  dup8\n    /* \"#utility.yul\":3784:3790   */\n  dup3\n    /* \"#utility.yul\":3773:3782   */\n  dup9\n    /* \"#utility.yul\":3769:3791   */\n  add\n    /* \"#utility.yul\":3727:3801   */\n  tag_28\n  jump\t// in\ntag_99:\n    /* \"#utility.yul\":3717:3801   */\n  swap4\n  pop\n    /* \"#utility.yul\":3519:3811   */\n  pop\n    /* \"#utility.yul\":3850:3852   */\n  0x40\n    /* \"#utility.yul\":3876:3940   */\n  tag_100\n    /* \"#utility.yul\":3932:3939   */\n  dup8\n    /* \"#utility.yul\":3923:3929   */\n  dup3\n    /* \"#utility.yul\":3912:3921   */\n  dup9\n    /* \"#utility.yul\":3908:3930   */\n  add\n    /* \"#utility.yul\":3876:3940   */\n  tag_31\n  jump\t// in\ntag_100:\n    /* \"#utility.yul\":3866:3940   */\n  swap3\n  pop\n    /* \"#utility.yul\":3821:3950   */\n  pop\n    /* \"#utility.yul\":3989:3991   */\n  0x60\n    /* \"#utility.yul\":4015:4079   */\n  tag_101\n    /* \"#utility.yul\":4071:4078   */\n  dup8\n    /* \"#utility.yul\":4062:4068   */\n  dup3\n    /* \"#utility.yul\":4051:4060   */\n  dup9\n    /* \"#utility.yul\":4047:4069   */\n  add\n    /* \"#utility.yul\":4015:4079   */\n  tag_31\n  jump\t// in\ntag_101:\n    /* \"#utility.yul\":4005:4079   */\n  swap2\n  pop\n    /* \"#utility.yul\":3960:4089   */\n  pop\n    /* \"#utility.yul\":2930:4096   */\n  swap3\n  swap6\n  swap2\n  swap5\n  pop\n  swap3\n  pop\n  jump\t// out\n    /* \"#utility.yul\":4102:4201   */\ntag_32:\n    /* \"#utility.yul\":4154:4160   */\n  0x00\n    /* \"#utility.yul\":4188:4193   */\n  dup2\n    /* \"#utility.yul\":4182:4194   */\n  mload\n    /* \"#utility.yul\":4172:4194   */\n  swap1\n  pop\n    /* \"#utility.yul\":4102:4201   */\n  swap2\n  swap1\n  pop\n  jump\t// out\n    /* \"#utility.yul\":4207:4387   */\ntag_33:\n    /* \"#utility.yul\":4255:4332   */\n  0x4e487b7100000000000000000000000000000000000000000000000000000000\n    /* \"#utility.yul\":4252:4253   */\n  0x00\n    /* \"#utility.yul\":4245:4333   */\n  mstore\n    /* \"#utility.yul\":4352:4356   */\n  0x22\n    /* \"#utility.yul\":4349:4350   */\n  0x04\n    /* \"#utility.yul\":4342:4357   */\n  mstore\n    /* \"#utility.yul\":4376:4380   */\n  0x24\n    /* \"#utility.yul\":4373:4374   */\n  0x00\n    /* \"#utility.yul\":4366:4381   */\n  revert\n    /* \"#utility.yul\":4393:4713   */\ntag_34:\n    /* \"#utility.yul\":4437:4443   */\n  0x00\n    /* \"#utility.yul\":4474:4475   */\n  0x02\n    /* \"#utility.yul\":4468:4472   */\n  dup3\n    /* \"#utility.yul\":4464:4476   */\n  div\n    /* \"#utility.yul\":4454:4476   */\n  swap1\n  pop\n    /* \"#utility.yul\":4521:4522   */\n  0x01\n    /* \"#utility.yul\":4515:4519   */\n  dup3\n    /* \"#utility.yul\":4511:4523   */\n  and\n    /* \"#utility.yul\":4542:4560   */\n  dup1\n    /* \"#utility.yul\":4532:4613   */\n  tag_105\n  jumpi\n    /* \"#utility.yul\":4598:4602   */\n  0x7f\n    /* \"#utility.yul\":4590:4596   */\n  dup3\n    /* \"#utility.yul\":4586:4603   */\n  and\n    /* \"#utility.yul\":4576:4603   */\n  swap2\n  pop\n    /* \"#utility.yul\":4532:4613   */\ntag_105:\n    /* \"#utility.yul\":4660:4662   */\n  0x20\n    /* \"#utility.yul\":4652:4658   */\n  dup3\n    /* \"#utility.yul\":4649:4663   */\n  lt\n    /* \"#utility.yul\":4629:4647   */\n  dup2\n    /* \"#utility.yul\":4626:4664   */\n  sub\n    /* \"#utility.yul\":4623:4707   */\n  tag_106\n  jumpi\n    /* \"#utility.yul\":4679:4697   */\n  tag_107\n  tag_33\n  jump\t// in\ntag_107:\n    /* \"#utility.yul\":4623:4707   */\ntag_106:\n    /* \"#utility.yul\":4444:4713   */\n  pop\n    /* \"#utility.yul\":4393:4713   */\n  swap2\n  swap1\n  pop\n  jump\t// out\n    /* \"#utility.yul\":4719:4860   */\ntag_35:\n    /* \"#utility.yul\":4768:4772   */\n  0x00\n    /* \"#utility.yul\":4791:4794   */\n  dup2\n    /* \"#utility.yul\":4783:4794   */\n  swap1\n  pop\n    /* \"#utility.yul\":4814:4817   */\n  dup2\n    /* \"#utility.yul\":4811:4812   */\n  0x00\n    /* \"#utility.yul\":4804:4818   */\n  mstore\n    /* \"#utility.yul\":4848:4852   */\n  0x20\n    /* \"#utility.yul\":4845:4846   */\n  0x00\n    /* \"#utility.yul\":4835:4853   */\n  keccak256\n    /* \"#utility.yul\":4827:4853   */\n  swap1\n  pop\n    /* \"#utility.yul\":4719:4860   */\n  swap2\n  swap1\n  pop\n  jump\t// out\n    /* \"#utility.yul\":4866:4959   */\ntag_36:\n    /* \"#utility.yul\":4903:4909   */\n  0x00\n    /* \"#utility.yul\":4950:4952   */\n  0x20\n    /* \"#utility.yul\":4945:4947   */\n  0x1f\n    /* \"#utility.yul\":4938:4943   */\n  dup4\n    /* \"#utility.yul\":4934:4948   */\n  add\n    /* \"#utility.yul\":4930:4953   */\n  div\n    /* \"#utility.yul\":4920:4953   */\n  swap1\n  pop\n    /* \"#utility.yul\":4866:4959   */\n  swap2\n  swap1\n  pop\n  jump\t// out\n    /* \"#utility.yul\":4965:5072   */\ntag_37:\n    /* \"#utility.yul\":5009:5017   */\n  0x00\n    /* \"#utility.yul\":5059:5064   */\n  dup3\n    /* \"#utility.yul\":5053:5057   */\n  dup3\n    /* \"#utility.yul\":5049:5065   */\n  shl\n    /* \"#utility.yul\":5028:5065   */\n  swap1\n  pop\n    /* \"#utility.yul\":4965:5072   */\n  swap3\n  swap2\n  pop\n  pop\n  jump\t// out\n    /* \"#utility.yul\":5078:5471   */\ntag_38:\n    /* \"#utility.yul\":5147:5153   */\n  0x00\n    /* \"#utility.yul\":5197:5198   */\n  0x08\n    /* \"#utility.yul\":5185:5195   */\n  dup4\n    /* \"#utility.yul\":5181:5199   */\n  mul\n    /* \"#utility.yul\":5220:5317   */\n  tag_112\n    /* \"#utility.yul\":5250:5316   */\n  0xffffffffffffffffffffffffffffffffffffffffffffffffffffffffffffffff\n    /* \"#utility.yul\":5239:5248   */\n  dup3\n    /* \"#utility.yul\":5220:5317   */\n  tag_37\n  jump\t// in\ntag_112:\n    /* \"#utility.yul\":5338:5377   */\n  tag_113\n    /* \"#utility.yul\":5368:5376   */\n  dup7\n    /* \"#utility.yul\":5357:5366   */\n  dup4\n    /* \"#utility.yul\":5338:5377   */\n  tag_37\n  jump\t// in\ntag_113:\n    /* \"#utility.yul\":5326:5377   */\n  swap6\n  pop\n    /* \"#utility.yul\":5410:5414   */\n  dup1\n    /* \"#utility.yul\":5406:5415   */\n  not\n    /* \"#utility.yul\":5399:5404   */\n  dup5\n    /* \"#utility.yul\":5395:5416   */\n  and\n    /* \"#utility.yul\":5386:5416   */\n  swap4\n  pop\n    /* \"#utility.yul\":5459:5463   */\n  dup1\n    /* \"#utility.yul\":5449:5457   */\n  dup7\n    /* \"#utility.yul\":5445:5464   */\n  and\n    /* \"#utility.yul\":5438:5443   */\n  dup5\n    /* \"#utility.yul\":5435:5465   */\n  or\n    /* \"#utility.yul\":5425:5465   */\n  swap3\n  pop\n    /* \"#utility.yul\":5154:5471   */\n  pop\n  pop\n    /* \"#utility.yul\":5078:5471   */\n  swap4\n  swap3\n  pop\n  pop\n  pop\n  jump\t// out\n    /* \"#utility.yul\":5477:5537   */\ntag_39:\n    /* \"#utility.yul\":5505:5508   */\n  0x00\n    /* \"#utility.yul\":5526:5531   */\n  dup2\n    /* \"#utility.yul\":5519:5531   */\n  swap1\n  pop\n    /* \"#utility.yul\":5477:5537   */\n  swap2\n  swap1\n  pop\n  jump\t// out\n    /* \"#utility.yul\":5543:5685   */\ntag_40:\n    /* \"#utility.yul\":5593:5602   */\n  0x00\n    /* \"#utility.yul\":5626:5679   */\n  tag_116\n    /* \"#utility.yul\":5644:5678   */\n  tag_117\n    /* \"#utility.yul\":5653:5677   */\n  tag_118\n    /* \"#utility.yul\":5671:5676   */\n  dup5\n    /* \"#utility.yul\":5653:5677   */\n  tag_29\n  jump\t// in\ntag_118:\n    /* \"#utility.yul\":5644:5678   */\n  tag_39\n  jump\t// in\ntag_117:\n    /* \"#utility.yul\":5626:5679   */\n  tag_29\n  jump\t// in\ntag_116:\n    /* \"#utility.yul\":5613:5679   */\n  swap1\n  pop\n    /* \"#utility.yul\":5543:5685   */\n  swap2\n  swap1\n  pop\n  jump\t// out\n    /* \"#utility.yul\":5691:5766   */\ntag_41:\n    /* \"#utility.yul\":5734:5737   */\n  0x00\n    /* \"#utility.yul\":5755:5760   */\n  dup2\n    /* \"#utility.yul\":5748:5760   */\n  swap1\n  pop\n    /* \"#utility.yul\":5691:5766   */\n  swap2\n  swap1\n  pop\n  jump\t// out\n    /* \"#utility.yul\":5772:6041   */\ntag_42:\n    /* \"#utility.yul\":5882:5921   */\n  tag_121\n    /* \"#utility.yul\":5913:5920   */\n  dup4\n    /* \"#utility.yul\":5882:5921   */\n  tag_40\n  jump\t// in\ntag_121:\n    /* \"#utility.yul\":5943:6034   */\n  tag_122\n    /* \"#utility.yul\":5992:6033   */\n  tag_123\n    /* \"#utility.yul\":6016:6032   */\n  dup3\n    /* \"#utility.yul\":5992:6033   */\n  tag_41\n  jump\t// in\ntag_123:\n    /* \"#utility.yul\":5984:5990   */\n  dup5\n    /* \"#utility.yul\":5977:5981   */\n  dup5\n    /* \"#utility.yul\":5971:5982   */\n  sload\n    /* \"#utility.yul\":5943:6034   */\n  tag_38\n  jump\t// in\ntag_122:\n    /* \"#utility.yul\":5937:5941   */\n  dup3\n    /* \"#utility.yul\":5930:6035   */\n  sstore\n    /* \"#utility.yul\":5848:6041   */\n  pop\n    /* \"#utility.yul\":5772:6041   */\n  pop\n  pop\n  pop\n  jump\t// out\n    /* \"#utility.yul\":6047:6120   */\ntag_43:\n    /* \"#utility.yul\":6092:6095   */\n  0x00\n    /* \"#utility.yul\":6047:6120   */\n  swap1\n  jump\t// out\n    /* \"#utility.yul\":6126:6315   */\ntag_44:\n    /* \"#utility.yul\":6203:6235   */\n  tag_126\n  tag_43\n  jump\t// in\ntag_126:\n    /* \"#utility.yul\":6244:6309   */\n  tag_127\n    /* \"#utility.yul\":6302:6308   */\n  dup2\n    /* \"#utility.yul\":6294:6300   */\n  dup5\n    /* \"#utility.yul\":6288:6292   */\n  dup5\n    /* \"#utility.yul\":6244:6309   */\n  tag_42\n  jump\t// in\ntag_127:\n    /* \"#utility.yul\":6179:6315   */\n  pop\n    /* \"#utility.yul\":6126:6315   */\n  pop\n  pop\n  jump\t// out\n    /* \"#utility.yul\":6321:6507   */\ntag_45:\n    /* \"#utility.yul\":6381:6501   */\ntag_129:\n    /* \"#utility.yul\":6398:6401   */\n  dup2\n    /* \"#utility.yul\":6391:6396   */\n  dup2\n    /* \"#utility.yul\":6388:6402   */\n  lt\n    /* \"#utility.yul\":6381:6501   */\n  iszero\n  tag_131\n  jumpi\n    /* \"#utility.yul\":6452:6491   */\n  tag_132\n    /* \"#utility.yul\":6489:6490   */\n  0x00\n    /* \"#utility.yul\":6482:6487   */\n  dup3\n    /* \"#utility.yul\":6452:6491   */\n  tag_44\n  jump\t// in\ntag_132:\n    /* \"#utility.yul\":6425:6426   */\n  0x01\n    /* \"#utility.yul\":6418:6423   */\n  dup2\n    /* \"#utility.yul\":6414:6427   */\n  add\n    /* \"#utility.yul\":6405:6427   */\n  swap1\n  pop\n    /* \"#utility.yul\":6381:6501   */\n  jump(tag_129)\ntag_131:\n    /* \"#utility.yul\":6321:6507   */\n  pop\n  pop\n  jump\t// out\n    /* \"#utility.yul\":6513:7056   */\ntag_46:\n    /* \"#utility.yul\":6614:6616   */\n  0x1f\n    /* \"#utility.yul\":6609:6612   */\n  dup3\n    /* \"#utility.yul\":6606:6617   */\n  gt\n    /* \"#utility.yul\":6603:7049   */\n  iszero\n  tag_134\n  jumpi\n    /* \"#utility.yul\":6648:6686   */\n  tag_135\n    /* \"#utility.yul\":6680:6685   */\n  dup2\n    /* \"#utility.yul\":6648:6686   */\n  tag_35\n  jump\t// in\ntag_135:\n    /* \"#utility.yul\":6732:6761   */\n  tag_136\n    /* \"#utility.yul\":6750:6760   */\n  dup5\n    /* \"#utility.yul\":6732:6761   */\n  tag_36\n  jump\t// in\ntag_136:\n    /* \"#utility.yul\":6722:6730   */\n  dup2\n    /* \"#utility.yul\":6718:6762   */\n  add\n    /* \"#utility.yul\":6915:6917   */\n  0x20\n    /* \"#utility.yul\":6903:6913   */\n  dup6\n    /* \"#utility.yul\":6900:6918   */\n  lt\n    /* \"#utility.yul\":6897:6946   */\n  iszero\n  tag_137\n  jumpi\n    /* \"#utility.yul\":6936:6944   */\n  dup2\n    /* \"#utility.yul\":6921:6944   */\n  swap1\n  pop\n    /* \"#utility.yul\":6897:6946   */\ntag_137:\n    /* \"#utility.yul\":6959:7039   */\n  tag_138\n    /* \"#utility.yul\":7015:7037   */\n  tag_139\n    /* \"#utility.yul\":7033:7036   */\n  dup6\n    /* \"#utility.yul\":7015:7037   */\n  tag_36\n  jump\t// in\ntag_139:\n    /* \"#utility.yul\":7005:7013   */\n  dup4\n    /* \"#utility.yul\":7001:7038   */\n  add\n    /* \"#utility.yul\":6988:6999   */\n  dup3\n    /* \"#utility.yul\":6959:7039   */\n  tag_45\n  jump\t// in\ntag_138:\n    /* \"#utility.yul\":6618:7049   */\n  pop\n  pop\n    /* \"#utility.yul\":6603:7049   */\ntag_134:\n    /* \"#utility.yul\":6513:7056   */\n  pop\n  pop\n  pop\n  jump\t// out\n    /* \"#utility.yul\":7062:7179   */\ntag_47:\n    /* \"#utility.yul\":7116:7124   */\n  0x00\n    /* \"#utility.yul\":7166:7171   */\n  dup3\n    /* \"#utility.yul\":7160:7164   */\n  dup3\n    /* \"#utility.yul\":7156:7172   */\n  shr\n    /* \"#utility.yul\":7135:7172   */\n  swap1\n  pop\n    /* \"#utility.yul\":7062:7179   */\n  swap3\n  swap2\n  pop\n  pop\n  jump\t// out\n    /* \"#utility.yul\":7185:7354   */\ntag_48:\n    /* \"#utility.yul\":7229:7235   */\n  0x00\n    /* \"#utility.yul\":7262:7313   */\n  tag_142\n    /* \"#utility.yul\":7310:7311   */\n  0x00\n    /* \"#utility.yul\":7306:7312   */\n  not\n    /* \"#utility.yul\":7298:7303   */\n  dup5\n    /* \"#utility.yul\":7295:7296   */\n  0x08\n    /* \"#utility.yul\":7291:7304   */\n  mul\n    /* \"#utility.yul\":7262:7313   */\n  tag_47\n  jump\t// in\ntag_142:\n    /* \"#utility.yul\":7258:7314   */\n  not\n    /* \"#utility.yul\":7343:7347   */\n  dup1\n    /* \"#utility.yul\":7337:7341   */\n  dup4\n    /* \"#utility.yul\":7333:7348   */\n  and\n    /* \"#utility.yul\":7323:7348   */\n  swap2\n  pop\n    /* \"#utility.yul\":7236:7354   */\n  pop\n    /* \"#utility.yul\":7185:7354   */\n  swap3\n  swap2\n  pop\n  pop\n  jump\t// out\n    /* \"#utility.yul\":7359:7654   */\ntag_49:\n    /* \"#utility.yul\":7435:7439   */\n  0x00\n    /* \"#utility.yul\":7581:7610   */\n  tag_144\n    /* \"#utility.yul\":7606:7609   */\n  dup4\n    /* \"#utility.yul\":7600:7604   */\n  dup4\n    /* \"#utility.yul\":7581:7610   */\n  tag_48\n  jump\t// in\ntag_144:\n    /* \"#utility.yul\":7573:7610   */\n  swap2\n  pop\n    /* \"#utility.yul\":7643:7646   */\n  dup3\n    /* \"#utility.yul\":7640:7641   */\n  0x02\n    /* \"#utility.yul\":7636:7647   */\n  mul\n    /* \"#utility.yul\":7630:7634   */\n  dup3\n    /* \"#utility.yul\":7627:7648   */\n  or\n    /* \"#utility.yul\":7619:7648   */\n  swap1\n  pop\n    /* \"#utility.yul\":7359:7654   */\n  swap3\n  swap2\n  pop\n  pop\n  jump\t// out\n    /* \"#utility.yul\":7659:9054   */\ntag_7:\n    /* \"#utility.yul\":7776:7813   */\n  tag_146\n    /* \"#utility.yul\":7809:7812   */\n  dup3\n    /* \"#utility.yul\":7776:7813   */\n  tag_32\n  jump\t// in\ntag_146:\n    /* \"#utility.yul\":7878:7896   */\n  0xffffffffffffffff\n    /* \"#utility.yul\":7870:7876   */\n  dup2\n    /* \"#utility.yul\":7867:7897   */\n  gt\n    /* \"#utility.yul\":7864:7920   */\n  iszero\n  tag_147\n  jumpi\n    /* \"#utility.yul\":7900:7918   */\n  tag_148\n  tag_22\n  jump\t// in\ntag_148:\n    /* \"#utility.yul\":7864:7920   */\ntag_147:\n    /* \"#utility.yul\":7944:7982   */\n  tag_149\n    /* \"#utility.yul\":7976:7980   */\n  dup3\n    /* \"#utility.yul\":7970:7981   */\n  sload\n    /* \"#utility.yul\":7944:7982   */\n  tag_34\n  jump\t// in\ntag_149:\n    /* \"#utility.yul\":8029:8096   */\n  tag_150\n    /* \"#utility.yul\":8089:8095   */\n  dup3\n    /* \"#utility.yul\":8081:8087   */\n  dup3\n    /* \"#utility.yul\":8075:8079   */\n  dup6\n    /* \"#utility.yul\":8029:8096   */\n  tag_46\n  jump\t// in\ntag_150:\n    /* \"#utility.yul\":8123:8124   */\n  0x00\n    /* \"#utility.yul\":8147:8151   */\n  0x20\n    /* \"#utility.yul\":8134:8151   */\n  swap1\n  pop\n    /* \"#utility.yul\":8179:8181   */\n  0x1f\n    /* \"#utility.yul\":8171:8177   */\n  dup4\n    /* \"#utility.yul\":8168:8182   */\n  gt\n    /* \"#utility.yul\":8196:8197   */\n  0x01\n    /* \"#utility.yul\":8191:8809   */\n  dup2\n  eq\n  tag_152\n  jumpi\n    /* \"#utility.yul\":8853:8854   */\n  0x00\n    /* \"#utility.yul\":8870:8876   */\n  dup5\n    /* \"#utility.yul\":8867:8944   */\n  iszero\n  tag_153\n  jumpi\n    /* \"#utility.yul\":8919:8928   */\n  dup3\n    /* \"#utility.yul\":8914:8917   */\n  dup8\n    /* \"#utility.yul\":8910:8929   */\n  add\n    /* \"#utility.yul\":8904:8930   */\n  mload\n    /* \"#utility.yul\":8895:8930   */\n  swap1\n  pop\n    /* \"#utility.yul\":8867:8944   */\ntag_153:\n    /* \"#utility.yul\":8970:9037   */\n  tag_154\n    /* \"#utility.yul\":9030:9036   */\n  dup6\n    /* \"#utility.yul\":9023:9028   */\n  dup3\n    /* \"#utility.yul\":8970:9037   */\n  tag_49\n  jump\t// in\ntag_154:\n    /* \"#utility.yul\":8964:8968   */\n  dup7\n    /* \"#utility.yul\":8957:9038   */\n  sstore\n    /* \"#utility.yul\":8826:9048   */\n  pop\n    /* \"#utility.yul\":8161:9048   */\n  jump(tag_151)\n    /* \"#utility.yul\":8191:8809   */\ntag_152:\n    /* \"#utility.yul\":8243:8247   */\n  0x1f\n    /* \"#utility.yul\":8239:8248   */\n  not\n    /* \"#utility.yul\":8231:8237   */\n  dup5\n    /* \"#utility.yul\":8227:8249   */\n  and\n    /* \"#utility.yul\":8277:8314   */\n  tag_155\n    /* \"#utility.yul\":8309:8313   */\n  dup7\n    /* \"#utility.yul\":8277:8314   */\n  tag_35\n  jump\t// in\ntag_155:\n    /* \"#utility.yul\":8336:8337   */\n  0x00\n    /* \"#utility.yul\":8350:8558   */\ntag_156:\n    /* \"#utility.yul\":8364:8371   */\n  dup3\n    /* \"#utility.yul\":8361:8362   */\n  dup2\n    /* \"#utility.yul\":8358:8372   */\n  lt\n    /* \"#utility.yul\":8350:8558   */\n  iszero\n  tag_158\n  jumpi\n    /* \"#utility.yul\":8443:8452   */\n  dup5\n    /* \"#utility.yul\":8438:8441   */\n  dup10\n    /* \"#utility.yul\":8434:8453   */\n  add\n    /* \"#utility.yul\":8428:8454   */\n  mload\n    /* \"#utility.yul\":8420:8426   */\n  dup3\n    /* \"#utility.yul\":8413:8455   */\n  sstore\n    /* \"#utility.yul\":8494:8495   */\n  0x01\n    /* \"#utility.yul\":8486:8492   */\n  dup3\n    /* \"#utility.yul\":8482:8496   */\n  add\n    /* \"#utility.yul\":8472:8496   */\n  swap2\n  pop\n    /* \"#utility.yul\":8541:8543   */\n  0x20\n    /* \"#utility.yul\":8530:8539   */\n  dup6\n    /* \"#utility.yul\":8526:8544   */\n  add\n    /* \"#utility.yul\":8513:8544   */\n  swap5\n  pop\n    /* \"#utility.yul\":8387:8391   */\n  0x20\n    /* \"#utility.yul\":8384:8385   */\n  dup2\n    /* \"#utility.yul\":8380:8392   */\n  add\n    /* \"#utility.yul\":8375:8392   */\n  swap1\n  pop\n    /* \"#utility.yul\":8350:8558   */\n  jump(tag_156)\ntag_158:\n    /* \"#utility.yul\":8586:8592   */\n  dup7\n    /* \"#utility.yul\":8577:8584   */\n  dup4\n    /* \"#utility.yul\":8574:8593   */\n  lt\n    /* \"#utility.yul\":8571:8750   */\n  iszero\n  tag_159\n  jumpi\n    /* \"#utility.yul\":8644:8653   */\n  dup5\n    /* \"#utility.yul\":8639:8642   */\n  dup10\n    /* \"#utility.yul\":8635:8654   */\n  add\n    /* \"#utility.yul\":8629:8655   */\n  mload\n    /* \"#utility.yul\":8687:8735   */\n  tag_160\n    /* \"#utility.yul\":8729:8733   */\n  0x1f\n    /* \"#utility.yul\":8721:8727   */\n  dup10\n    /* \"#utility.yul\":8717:8734   */\n  and\n    /* \"#utility.yul\":8706:8715   */\n  dup3\n    /* \"#utility.yul\":8687:8735   */\n  tag_48\n  jump\t// in\ntag_160:\n    /* \"#utility.yul\":8679:8685   */\n  dup4\n    /* \"#utility.yul\":8672:8736   */\n  sstore\n    /* \"#utility.yul\":8594:8750   */\n  pop\n    /* \"#utility.yul\":8571:8750   */\ntag_159:\n    /* \"#utility.yul\":8796:8797   */\n  0x01\n    /* \"#utility.yul\":8792:8793   */\n  0x02\n    /* \"#utility.yul\":8784:8790   */\n  dup9\n    /* \"#utility.yul\":8780:8794   */\n  mul\n    /* \"#utility.yul\":8776:8798   */\n  add\n    /* \"#utility.yul\":8770:8774   */\n  dup9\n    /* \"#utility.yul\":8763:8799   */\n  sstore\n    /* \"#utility.yul\":8198:8809   */\n  pop\n  pop\n  pop\n    /* \"#utility.yul\":8161:9048   */\ntag_151:\n  pop\n    /* \"#utility.yul\":7751:9054   */\n  pop\n  pop\n  pop\n    /* \"#utility.yul\":7659:9054   */\n  pop\n  pop\n  jump\t// out\n    /* \"#utility.yul\":9060:9240   */\ntag_50:\n    /* \"#utility.yul\":9108:9185   */\n  0x4e487b7100000000000000000000000000000000000000000000000000000000\n    /* \"#utility.yul\":9105:9106   */\n  0x00\n    /* \"#utility.yul\":9098:9186   */\n  mstore\n    /* \"#utility.yul\":9205:9209   */\n  0x11\n    /* \"#utility.yul\":9202:9203   */\n  0x04\n    /* \"#utility.yul\":9195:9210   */\n  mstore\n    /* \"#utility.yul\":9229:9233   */\n  0x24\n    /* \"#utility.yul\":9226:9227   */\n  0x00\n    /* \"#utility.yul\":9219:9234   */\n  revert\n    /* \"#utility.yul\":9246:9348   */\ntag_51:\n    /* \"#utility.yul\":9288:9296   */\n  0x00\n    /* \"#utility.yul\":9335:9340   */\n  dup2\n    /* \"#utility.yul\":9332:9333   */\n  0x01\n    /* \"#utility.yul\":9328:9341   */\n  shr\n    /* \"#utility.yul\":9307:9341   */\n  swap1\n  pop\n    /* \"#utility.yul\":9246:9348   */\n  swap2\n  swap1\n  pop\n  jump\t// out\n    /* \"#utility.yul\":9354:10202   */\ntag_52:\n    /* \"#utility.yul\":9415:9420   */\n  0x00\n    /* \"#utility.yul\":9422:9426   */\n  dup1\n    /* \"#utility.yul\":9446:9452   */\n  dup3\n    /* \"#utility.yul\":9437:9452   */\n  swap2\n  pop\n    /* \"#utility.yul\":9470:9475   */\n  dup4\n    /* \"#utility.yul\":9461:9475   */\n  swap1\n  pop\n    /* \"#utility.yul\":9484:10196   */\ntag_164:\n    /* \"#utility.yul\":9505:9506   */\n  0x01\n    /* \"#utility.yul\":9495:9503   */\n  dup6\n    /* \"#utility.yul\":9492:9507   */\n  gt\n    /* \"#utility.yul\":9484:10196   */\n  iszero\n  tag_166\n  jumpi\n    /* \"#utility.yul\":9600:9604   */\n  dup1\n    /* \"#utility.yul\":9595:9598   */\n  dup7\n    /* \"#utility.yul\":9591:9605   */\n  div\n    /* \"#utility.yul\":9585:9589   */\n  dup2\n    /* \"#utility.yul\":9582:9606   */\n  gt\n    /* \"#utility.yul\":9579:9629   */\n  iszero\n  tag_167\n  jumpi\n    /* \"#utility.yul\":9609:9627   */\n  tag_168\n  tag_50\n  jump\t// in\ntag_168:\n    /* \"#utility.yul\":9579:9629   */\ntag_167:\n    /* \"#utility.yul\":9659:9660   */\n  0x01\n    /* \"#utility.yul\":9649:9657   */\n  dup6\n    /* \"#utility.yul\":9645:9661   */\n  and\n    /* \"#utility.yul\":9642:10093   */\n  iszero\n  tag_169\n  jumpi\n    /* \"#utility.yul\":10074:10078   */\n  dup1\n    /* \"#utility.yul\":10067:10072   */\n  dup3\n    /* \"#utility.yul\":10063:10079   */\n  mul\n    /* \"#utility.yul\":10054:10079   */\n  swap2\n  pop\n    /* \"#utility.yul\":9642:10093   */\ntag_169:\n    /* \"#utility.yul\":10124:10128   */\n  dup1\n    /* \"#utility.yul\":10118:10122   */\n  dup2\n    /* \"#utility.yul\":10114:10129   */\n  mul\n    /* \"#utility.yul\":10106:10129   */\n  swap1\n  pop\n    /* \"#utility.yul\":10154:10186   */\n  tag_170\n    /* \"#utility.yul\":10177:10185   */\n  dup6\n    /* \"#utility.yul\":10154:10186   */\n  tag_51\n  jump\t// in\ntag_170:\n    /* \"#utility.yul\":10142:10186   */\n  swap5\n  pop\n    /* \"#utility.yul\":9484:10196   */\n  jump(tag_164)\ntag_166:\n    /* \"#utility.yul\":9354:10202   */\n  swap5\n  pop\n  swap5\n  swap3\n  pop\n  pop\n  pop\n  jump\t// out\n    /* \"#utility.yul\":10208:11281   */\ntag_53:\n    /* \"#utility.yul\":10262:10267   */\n  0x00\n    /* \"#utility.yul\":10453:10461   */\n  dup3\n    /* \"#utility.yul\":10443:10483   */\n  tag_172\n  jumpi\n    /* \"#utility.yul\":10474:10475   */\n  0x01\n    /* \"#utility.yul\":10465:10475   */\n  swap1\n  pop\n    /* \"#utility.yul\":10476:10481   */\n  jump(tag_171)\n    /* \"#utility.yul\":10443:10483   */\ntag_172:\n    /* \"#utility.yul\":10502:10506   */\n  dup2\n    /* \"#utility.yul\":10492:10528   */\n  tag_173\n  jumpi\n    /* \"#utility.yul\":10519:10520   */\n  0x00\n    /* \"#utility.yul\":10510:10520   */\n  swap1\n  pop\n    /* \"#utility.yul\":10521:10526   */\n  jump(tag_171)\n    /* \"#utility.yul\":10492:10528   */\ntag_173:\n    /* \"#utility.yul\":10588:10592   */\n  dup2\n    /* \"#utility.yul\":10636:10637   */\n  0x01\n    /* \"#utility.yul\":10631:10658   */\n  dup2\n  eq\n  tag_175\n  jumpi\n    /* \"#utility.yul\":10672:10673   */\n  0x02\n    /* \"#utility.yul\":10667:10858   */\n  dup2\n  eq\n  tag_176\n  jumpi\n    /* \"#utility.yul\":10581:10858   */\n  jump(tag_174)\n    /* \"#utility.yul\":10631:10658   */\ntag_175:\n    /* \"#utility.yul\":10649:10650   */\n  0x01\n    /* \"#utility.yul\":10640:10650   */\n  swap2\n  pop\n    /* \"#utility.yul\":10651:10656   */\n  pop\n  jump(tag_171)\n    /* \"#utility.yul\":10667:10858   */\ntag_176:\n    /* \"#utility.yul\":10712:10715   */\n  0xff\n    /* \"#utility.yul\":10702:10710   */\n  dup5\n    /* \"#utility.yul\":10699:10716   */\n  gt\n    /* \"#utility.yul\":10696:10739   */\n  iszero\n  tag_177\n  jumpi\n    /* \"#utility.yul\":10719:10737   */\n  tag_178\n  tag_50\n  jump\t// in\ntag_178:\n    /* \"#utility.yul\":10696:10739   */\ntag_177:\n    /* \"#utility.yul\":10768:10776   */\n  dup4\n    /* \"#utility.yul\":10765:10766   */\n  0x02\n    /* \"#utility.yul\":10761:10777   */\n  exp\n    /* \"#utility.yul\":10752:10777   */\n  swap2\n  pop\n    /* \"#utility.yul\":10803:10806   */\n  dup5\n    /* \"#utility.yul\":10796:10801   */\n  dup3\n    /* \"#utility.yul\":10793:10807   */\n  gt\n    /* \"#utility.yul\":10790:10830   */\n  iszero\n  tag_179\n  jumpi\n    /* \"#utility.yul\":10810:10828   */\n  tag_180\n  tag_50\n  jump\t// in\ntag_180:\n    /* \"#utility.yul\":10790:10830   */\ntag_179:\n    /* \"#utility.yul\":10843:10848   */\n  pop\n  jump(tag_171)\n    /* \"#utility.yul\":10581:10858   */\ntag_174:\n  pop\n    /* \"#utility.yul\":10967:10969   */\n  0x20\n    /* \"#utility.yul\":10957:10965   */\n  dup4\n    /* \"#utility.yul\":10954:10970   */\n  lt\n    /* \"#utility.yul\":10948:10951   */\n  0x0133\n    /* \"#utility.yul\":10942:10946   */\n  dup4\n    /* \"#utility.yul\":10939:10952   */\n  lt\n    /* \"#utility.yul\":10935:10971   */\n  and\n    /* \"#utility.yul\":10917:10919   */\n  0x4e\n    /* \"#utility.yul\":10907:10915   */\n  dup5\n    /* \"#utility.yul\":10904:10920   */\n  lt\n    /* \"#utility.yul\":10899:10901   */\n  0x0b\n    /* \"#utility.yul\":10893:10897   */\n  dup5\n    /* \"#utility.yul\":10890:10902   */\n  lt\n    /* \"#utility.yul\":10886:10921   */\n  and\n    /* \"#utility.yul\":10870:10981   */\n  or\n    /* \"#utility.yul\":10867:11113   */\n  iszero\n  tag_181\n  jumpi\n    /* \"#utility.yul\":11023:11031   */\n  dup3\n    /* \"#utility.yul\":11017:11021   */\n  dup3\n    /* \"#utility.yul\":11013:11032   */\n  exp\n    /* \"#utility.yul\":11004:11032   */\n  swap1\n  pop\n    /* \"#utility.yul\":11058:11061   */\n  dup4\n    /* \"#utility.yul\":11051:11056   */\n  dup2\n    /* \"#utility.yul\":11048:11062   */\n  gt\n    /* \"#utility.yul\":11045:11085   */\n  iszero\n  tag_182\n  jumpi\n    /* \"#utility.yul\":11065:11083   */\n  tag_183\n  tag_50\n  jump\t// in\ntag_183:\n    /* \"#utility.yul\":11045:11085   */\ntag_182:\n    /* \"#utility.yul\":11098:11103   */\n  jump(tag_171)\n    /* \"#utility.yul\":10867:11113   */\ntag_181:\n    /* \"#utility.yul\":11138:11180   */\n  tag_184\n    /* \"#utility.yul\":11176:11179   */\n  dup5\n    /* \"#utility.yul\":11166:11174   */\n  dup5\n    /* \"#utility.yul\":11160:11164   */\n  dup5\n    /* \"#utility.yul\":11157:11158   */\n  0x01\n    /* \"#utility.yul\":11138:11180   */\n  tag_52\n  jump\t// in\ntag_184:\n    /* \"#utility.yul\":11123:11180   */\n  swap3\n  pop\n  swap1\n  pop\n    /* \"#utility.yul\":11212:11216   */\n  dup2\n    /* \"#utility.yul\":11207:11210   */\n  dup5\n    /* \"#utility.yul\":11203:11217   */\n  div\n    /* \"#utility.yul\":11196:11201   */\n  dup2\n    /* \"#utility.yul\":11193:11218   */\n  gt\n    /* \"#utility.yul\":11190:11241   */\n  iszero\n  tag_185\n  jumpi\n    /* \"#utility.yul\":11221:11239   */\n  tag_186\n  tag_50\n  jump\t// in\ntag_186:\n    /* \"#utility.yul\":11190:11241   */\ntag_185:\n    /* \"#utility.yul\":11270:11274   */\n  dup2\n    /* \"#utility.yul\":11263:11268   */\n  dup2\n    /* \"#utility.yul\":11259:11275   */\n  mul\n    /* \"#utility.yul\":11250:11275   */\n  swap1\n  pop\n    /* \"#utility.yul\":10208:11281   */\ntag_171:\n  swap4\n  swap3\n  pop\n  pop\n  pop\n  jump\t// out\n    /* \"#utility.yul\":11287:11572   */\ntag_10:\n    /* \"#utility.yul\":11347:11352   */\n  0x00\n    /* \"#utility.yul\":11371:11394   */\n  tag_188\n    /* \"#utility.yul\":11389:11393   */\n  dup3\n    /* \"#utility.yul\":11371:11394   */\n  tag_29\n  jump\t// in\ntag_188:\n    /* \"#utility.yul\":11363:11394   */\n  swap2\n  pop\n    /* \"#utility.yul\":11415:11442   */\n  tag_189\n    /* \"#utility.yul\":11433:11441   */\n  dup4\n    /* \"#utility.yul\":11415:11442   */\n  tag_29\n  jump\t// in\ntag_189:\n    /* \"#utility.yul\":11403:11442   */\n  swap3\n  pop\n    /* \"#utility.yul\":11461:11565   */\n  tag_190\n    /* \"#utility.yul\":11498:11564   */\n  0xffffffffffffffffffffffffffffffffffffffffffffffffffffffffffffffff\n    /* \"#utility.yul\":11488:11496   */\n  dup5\n    /* \"#utility.yul\":11482:11486   */\n  dup5\n    /* \"#utility.yul\":11461:11565   */\n  tag_53\n  jump\t// in\ntag_190:\n    /* \"#utility.yul\":11452:11565   */\n  swap1\n  pop\n    /* \"#utility.yul\":11287:11572   */\n  swap3\n  swap2\n  pop\n  pop\n  jump\t// out\n    /* \"#utility.yul\":11578:11988   */\ntag_12:\n    /* \"#utility.yul\":11618:11625   */\n  0x00\n    /* \"#utility.yul\":11641:11661   */\n  tag_192\n    /* \"#utility.yul\":11659:11660   */\n  dup3\n    /* \"#utility.yul\":11641:11661   */\n  tag_29\n  jump\t// in\ntag_192:\n    /* \"#utility.yul\":11636:11661   */\n  swap2\n  pop\n    /* \"#utility.yul\":11675:11695   */\n  tag_193\n    /* \"#utility.yul\":11693:11694   */\n  dup4\n    /* \"#utility.yul\":11675:11695   */\n  tag_29\n  jump\t// in\ntag_193:\n    /* \"#utility.yul\":11670:11695   */\n  swap3\n  pop\n    /* \"#utility.yul\":11730:11731   */\n  dup3\n    /* \"#utility.yul\":11727:11728   */\n  dup3\n    /* \"#utility.yul\":11723:11732   */\n  mul\n    /* \"#utility.yul\":11752:11782   */\n  tag_194\n    /* \"#utility.yul\":11770:11781   */\n  dup2\n    /* \"#utility.yul\":11752:11782   */\n  tag_29\n  jump\t// in\ntag_194:\n    /* \"#utility.yul\":11741:11782   */\n  swap2\n  pop\n    /* \"#utility.yul\":11931:11932   */\n  dup3\n    /* \"#utility.yul\":11922:11929   */\n  dup3\n    /* \"#utility.yul\":11918:11933   */\n  div\n    /* \"#utility.yul\":11915:11916   */\n  dup5\n    /* \"#utility.yul\":11912:11934   */\n  eq\n    /* \"#utility.yul\":11892:11893   */\n  dup4\n    /* \"#utility.yul\":11885:11894   */\n  iszero\n    /* \"#utility.yul\":11865:11948   */\n  or\n    /* \"#utility.yul\":11842:11981   */\n  tag_195\n  jumpi\n    /* \"#utility.yul\":11961:11979   */\n  tag_196\n  tag_50\n  jump\t// in\ntag_196:\n    /* \"#utility.yul\":11842:11981   */\ntag_195:\n    /* \"#utility.yul\":11626:11988   */\n  pop\n    /* \"#utility.yul\":11578:11988   */\n  swap3\n  swap2\n  pop\n  pop\n  jump\t// out\n    /* \"#utility.yul\":11994:12112   */\ntag_54:\n    /* \"#utility.yul\":12081:12105   */\n  tag_198\n    /* \"#utility.yul\":12099:12104   */\n  dup2\n    /* \"#utility.yul\":12081:12105   */\n  tag_29\n  jump\t// in\ntag_198:\n    /* \"#utility.yul\":12076:12079   */\n  dup3\n    /* \"#utility.yul\":12069:12106   */\n  mstore\n    /* \"#utility.yul\":11994:12112   */\n  pop\n  pop\n  jump\t// out\n    /* \"#utility.yul\":12118:12340   */\ntag_14:\n    /* \"#utility.yul\":12211:12215   */\n  0x00\n    /* \"#utility.yul\":12249:12251   */\n  0x20\n    /* \"#utility.yul\":12238:12247   */\n  dup3\n    /* \"#utility.yul\":12234:12252   */\n  add\n    /* \"#utility.yul\":12226:12252   */\n  swap1\n  pop\n    /* \"#utility.yul\":12262:12333   */\n  tag_200\n    /* \"#utility.yul\":12330:12331   */\n  0x00\n    /* \"#utility.yul\":12319:12328   */\n  dup4\n    /* \"#utility.yul\":12315:12332   */\n  add\n    /* \"#utility.yul\":12306:12312   */\n  dup5\n    /* \"#utility.yul\":12262:12333   */\n  tag_54\n  jump\t// in\ntag_200:\n    /* \"#utility.yul\":12118:12340   */\n  swap3\n  swap2\n  pop\n  pop\n  jump\t// out\n    /* \"ERC20-Token/token.sol\":839:3804  contract ERC20Token is IERC20T {... */\ntag_15:\n  dataSize(sub_0)\n  dup1\n  dataOffset(sub_0)\n  0x00\n  codecopy\n  0x00\n  return\nstop\n\nsub_0: assembly {\n        /* \"ERC20-Token/token.sol\":839:3804  contract ERC20Token is IERC20T {... */\n      mstore(0x40, 0x80)\n      callvalue\n      dup1\n      iszero\n      tag_1\n      jumpi\n      0x00\n      dup1\n      revert\n    tag_1:\n      pop\n      jumpi(tag_2, lt(calldatasize, 0x04))\n      shr(0xe0, calldataload(0x00))\n      dup1\n      0x6c02a931\n      gt\n      tag_12\n      jumpi\n      dup1\n      0x6c02a931\n      eq\n      tag_7\n      jumpi\n      dup1\n      0x70a08231\n      eq\n      tag_8\n      jumpi\n      dup1\n      0x7b61c320\n      eq\n      tag_9\n      jumpi\n      dup1\n      0xa9059cbb\n      eq\n      tag_10\n      jumpi\n      dup1\n      0xdd62ed3e\n      eq\n      tag_11\n      jumpi\n      jump(tag_2)\n    tag_12:\n      dup1\n      0x095ea7b3\n      eq\n      tag_3\n      jumpi\n      dup1\n      0x18160ddd\n      eq\n      tag_4\n      jumpi\n      dup1\n      0x23b872dd\n      eq\n      tag_5\n      jumpi\n      dup1\n      0x5caed029\n      eq\n      tag_6\n      jumpi\n    tag_2:\n      0x00\n      dup1\n      revert\n        /* \"ERC20-Token/token.sol\":2296:2469  function approve(address _spender, uint256 _amount)... */\n    tag_3:\n      tag_13\n      0x04\n      dup1\n      calldatasize\n      sub\n      dup2\n      add\n      swap1\n      tag_14\n      swap2\n      swap1\n      tag_15\n      jump\t// in\n    tag_14:\n      tag_16\n      jump\t// in\n    tag_13:\n      mload(0x40)\n      tag_17\n      swap2\n      swap1\n      tag_18\n      jump\t// in\n    tag_17:\n      mload(0x40)\n      dup1\n      swap2\n      sub\n      swap1\n      return\n        /* \"ERC20-Token/token.sol\":1596:1698  function totalSupply() public view override returns (uint256) {... */\n    tag_4:\n      tag_19\n      tag_20\n      jump\t// in\n    tag_19:\n      mload(0x40)\n      tag_21\n      swap2\n      swap1\n      tag_22\n      jump\t// in\n    tag_21:\n      mload(0x40)\n      dup1\n      swap2\n      sub\n      swap1\n      return\n        /* \"ERC20-Token/token.sol\":2475:2880  function transferFrom(... */\n    tag_5:\n      tag_23\n      0x04\n      dup1\n      calldatasize\n      sub\n      dup2\n      add\n      swap1\n      tag_24\n      swap2\n      swap1\n      tag_25\n      jump\t// in\n    tag_24:\n      tag_26\n      jump\t// in\n    tag_23:\n      mload(0x40)\n      tag_27\n      swap2\n      swap1\n      tag_18\n      jump\t// in\n    tag_27:\n      mload(0x40)\n      dup1\n      swap2\n      sub\n      swap1\n      return\n        /* \"ERC20-Token/token.sol\":936:963  uint256 public tokenDecimal */\n    tag_6:\n      tag_28\n      tag_29\n      jump\t// in\n    tag_28:\n      mload(0x40)\n      tag_30\n      swap2\n      swap1\n      tag_22\n      jump\t// in\n    tag_30:\n      mload(0x40)\n      dup1\n      swap2\n      sub\n      swap1\n      return\n        /* \"ERC20-Token/token.sol\":876:899  string public tokenName */\n    tag_7:\n      tag_31\n      tag_32\n      jump\t// in\n    tag_31:\n      mload(0x40)\n      tag_33\n      swap2\n      swap1\n      tag_34\n      jump\t// in\n    tag_33:\n      mload(0x40)\n      dup1\n      swap2\n      sub\n      swap1\n      return\n        /* \"ERC20-Token/token.sol\":1704:1816  function balanceOf(address _owner) external view returns (uint256) {... */\n    tag_8:\n      tag_35\n      0x04\n      dup1\n      calldatasize\n      sub\n      dup2\n      add\n      swap1\n      tag_36\n      swap2\n      swap1\n      tag_37\n      jump\t// in\n    tag_36:\n      tag_38\n      jump\t// in\n    tag_35:\n      mload(0x40)\n      tag_39\n      swap2\n      swap1\n      tag_22\n      jump\t// in\n    tag_39:\n      mload(0x40)\n      dup1\n      swap2\n      sub\n      swap1\n      return\n        /* \"ERC20-Token/token.sol\":905:930  string public tokenSymbol */\n    tag_9:\n      tag_40\n      tag_41\n      jump\t// in\n    tag_40:\n      mload(0x40)\n      tag_42\n      swap2\n      swap1\n      tag_34\n      jump\t// in\n    tag_42:\n      mload(0x40)\n      dup1\n      swap2\n      sub\n      swap1\n      return\n        /* \"ERC20-Token/token.sol\":1822:2001  function transfer(address _recipient, uint256 _amount)... */\n    tag_10:\n      tag_43\n      0x04\n      dup1\n      calldatasize\n      sub\n      dup2\n      add\n      swap1\n      tag_44\n      swap2\n      swap1\n      tag_15\n      jump\t// in\n    tag_44:\n      tag_45\n      jump\t// in\n    tag_43:\n      mload(0x40)\n      tag_46\n      swap2\n      swap1\n      tag_18\n      jump\t// in\n    tag_46:\n      mload(0x40)\n      dup1\n      swap2\n      sub\n      swap1\n      return\n        /* \"ERC20-Token/token.sol\":2007:2290  function allowance(address _owner, address _spender)... */\n    tag_11:\n      tag_47\n      0x04\n      dup1\n      calldatasize\n      sub\n      dup2\n      add\n      swap1\n      tag_48\n      swap2\n      swap1\n      tag_49\n      jump\t// in\n    tag_48:\n      tag_50\n      jump\t// in\n    tag_47:\n      mload(0x40)\n      tag_51\n      swap2\n      swap1\n      tag_22\n      jump\t// in\n    tag_51:\n      mload(0x40)\n      dup1\n      swap2\n      sub\n      swap1\n      return\n        /* \"ERC20-Token/token.sol\":2296:2469  function approve(address _spender, uint256 _amount)... */\n    tag_16:\n        /* \"ERC20-Token/token.sol\":2382:2386  bool */\n      0x00\n        /* \"ERC20-Token/token.sol\":2402:2441  _approve(msg.sender, _spender, _amount) */\n      tag_53\n        /* \"ERC20-Token/token.sol\":2411:2421  msg.sender */\n      caller\n        /* \"ERC20-Token/token.sol\":2423:2431  _spender */\n      dup5\n        /* \"ERC20-Token/token.sol\":2433:2440  _amount */\n      dup5\n        /* \"ERC20-Token/token.sol\":2402:2410  _approve */\n      tag_54\n        /* \"ERC20-Token/token.sol\":2402:2441  _approve(msg.sender, _spender, _amount) */\n      jump\t// in\n    tag_53:\n        /* \"ERC20-Token/token.sol\":2458:2462  true */\n      0x01\n        /* \"ERC20-Token/token.sol\":2451:2462  return true */\n      swap1\n      pop\n        /* \"ERC20-Token/token.sol\":2296:2469  function approve(address _spender, uint256 _amount)... */\n      swap3\n      swap2\n      pop\n      pop\n      jump\t// out\n        /* \"ERC20-Token/token.sol\":1596:1698  function totalSupply() public view override returns (uint256) {... */\n    tag_20:\n        /* \"ERC20-Token/token.sol\":1649:1656  uint256 */\n      0x00\n        /* \"ERC20-Token/token.sol\":1675:1691  tokenTotalSupply */\n      sload(0x03)\n        /* \"ERC20-Token/token.sol\":1668:1691  return tokenTotalSupply */\n      swap1\n      pop\n        /* \"ERC20-Token/token.sol\":1596:1698  function totalSupply() public view override returns (uint256) {... */\n      swap1\n      jump\t// out\n        /* \"ERC20-Token/token.sol\":2475:2880  function transferFrom(... */\n    tag_26:\n        /* \"ERC20-Token/token.sol\":2599:2603  bool */\n      0x00\n        /* \"ERC20-Token/token.sol\":2615:2654  _transfer(_sender, _recipient, _amount) */\n      tag_57\n        /* \"ERC20-Token/token.sol\":2625:2632  _sender */\n      dup5\n        /* \"ERC20-Token/token.sol\":2634:2644  _recipient */\n      dup5\n        /* \"ERC20-Token/token.sol\":2646:2653  _amount */\n      dup5\n        /* \"ERC20-Token/token.sol\":2615:2624  _transfer */\n      tag_58\n        /* \"ERC20-Token/token.sol\":2615:2654  _transfer(_sender, _recipient, _amount) */\n      jump\t// in\n    tag_57:\n        /* \"ERC20-Token/token.sol\":2665:2689  uint256 currentAllowance */\n      0x00\n        /* \"ERC20-Token/token.sol\":2692:2702  _allowance */\n      0x05\n        /* \"ERC20-Token/token.sol\":2692:2711  _allowance[_sender] */\n      0x00\n        /* \"ERC20-Token/token.sol\":2703:2710  _sender */\n      dup7\n        /* \"ERC20-Token/token.sol\":2692:2711  _allowance[_sender] */\n      0xffffffffffffffffffffffffffffffffffffffff\n      and\n      0xffffffffffffffffffffffffffffffffffffffff\n      and\n      dup2\n      mstore\n      0x20\n      add\n      swap1\n      dup2\n      mstore\n      0x20\n      add\n      0x00\n      keccak256\n        /* \"ERC20-Token/token.sol\":2692:2723  _allowance[_sender][msg.sender] */\n      0x00\n        /* \"ERC20-Token/token.sol\":2712:2722  msg.sender */\n      caller\n        /* \"ERC20-Token/token.sol\":2692:2723  _allowance[_sender][msg.sender] */\n      0xffffffffffffffffffffffffffffffffffffffff\n      and\n      0xffffffffffffffffffffffffffffffffffffffff\n      and\n      dup2\n      mstore\n      0x20\n      add\n      swap1\n      dup2\n      mstore\n      0x20\n      add\n      0x00\n      keccak256\n      sload\n        /* \"ERC20-Token/token.sol\":2665:2723  uint256 currentAllowance = _allowance[_sender][msg.sender] */\n      swap1\n      pop\n        /* \"ERC20-Token/token.sol\":2761:2768  _amount */\n      dup3\n        /* \"ERC20-Token/token.sol\":2741:2757  currentAllowance */\n      dup2\n        /* \"ERC20-Token/token.sol\":2741:2768  currentAllowance >= _amount */\n      lt\n      iszero\n        /* \"ERC20-Token/token.sol\":2733:2804  require(currentAllowance >= _amount, \"Insufficient transfer allowance\") */\n      tag_59\n      jumpi\n      mload(0x40)\n      0x08c379a000000000000000000000000000000000000000000000000000000000\n      dup2\n      mstore\n      0x04\n      add\n      tag_60\n      swap1\n      tag_61\n      jump\t// in\n    tag_60:\n      mload(0x40)\n      dup1\n      swap2\n      sub\n      swap1\n      revert\n    tag_59:\n        /* \"ERC20-Token/token.sol\":2814:2852  _approve(_sender, msg.sender, _amount) */\n      tag_62\n        /* \"ERC20-Token/token.sol\":2823:2830  _sender */\n      dup6\n        /* \"ERC20-Token/token.sol\":2832:2842  msg.sender */\n      caller\n        /* \"ERC20-Token/token.sol\":2844:2851  _amount */\n      dup6\n        /* \"ERC20-Token/token.sol\":2814:2822  _approve */\n      tag_54\n        /* \"ERC20-Token/token.sol\":2814:2852  _approve(_sender, msg.sender, _amount) */\n      jump\t// in\n    tag_62:\n        /* \"ERC20-Token/token.sol\":2869:2873  true */\n      0x01\n        /* \"ERC20-Token/token.sol\":2862:2873  return true */\n      swap2\n      pop\n      pop\n        /* \"ERC20-Token/token.sol\":2475:2880  function transferFrom(... */\n      swap4\n      swap3\n      pop\n      pop\n      pop\n      jump\t// out\n        /* \"ERC20-Token/token.sol\":936:963  uint256 public tokenDecimal */\n    tag_29:\n      sload(0x02)\n      dup2\n      jump\t// out\n        /* \"ERC20-Token/token.sol\":876:899  string public tokenName */\n    tag_32:\n      0x00\n      dup1\n      sload\n      tag_63\n      swap1\n      tag_64\n      jump\t// in\n    tag_63:\n      dup1\n      0x1f\n      add\n      0x20\n      dup1\n      swap2\n      div\n      mul\n      0x20\n      add\n      mload(0x40)\n      swap1\n      dup2\n      add\n      0x40\n      mstore\n      dup1\n      swap3\n      swap2\n      swap1\n      dup2\n      dup2\n      mstore\n      0x20\n      add\n      dup3\n      dup1\n      sload\n      tag_65\n      swap1\n      tag_64\n      jump\t// in\n    tag_65:\n      dup1\n      iszero\n      tag_66\n      jumpi\n      dup1\n      0x1f\n      lt\n      tag_67\n      jumpi\n      0x0100\n      dup1\n      dup4\n      sload\n      div\n      mul\n      dup4\n      mstore\n      swap2\n      0x20\n      add\n      swap2\n      jump(tag_66)\n    tag_67:\n      dup3\n      add\n      swap2\n      swap1\n      0x00\n      mstore\n      keccak256(0x00, 0x20)\n      swap1\n    tag_68:\n      dup2\n      sload\n      dup2\n      mstore\n      swap1\n      0x01\n      add\n      swap1\n      0x20\n      add\n      dup1\n      dup4\n      gt\n      tag_68\n      jumpi\n      dup3\n      swap1\n      sub\n      0x1f\n      and\n      dup3\n      add\n      swap2\n    tag_66:\n      pop\n      pop\n      pop\n      pop\n      pop\n      dup2\n      jump\t// out\n        /* \"ERC20-Token/token.sol\":1704:1816  function balanceOf(address _owner) external view returns (uint256) {... */\n    tag_38:\n        /* \"ERC20-Token/token.sol\":1762:1769  uint256 */\n      0x00\n        /* \"ERC20-Token/token.sol\":1788:1801  _ownerBalance */\n      0x04\n        /* \"ERC20-Token/token.sol\":1788:1809  _ownerBalance[_owner] */\n      0x00\n        /* \"ERC20-Token/token.sol\":1802:1808  _owner */\n      dup4\n        /* \"ERC20-Token/token.sol\":1788:1809  _ownerBalance[_owner] */\n      0xffffffffffffffffffffffffffffffffffffffff\n      and\n      0xffffffffffffffffffffffffffffffffffffffff\n      and\n      dup2\n      mstore\n      0x20\n      add\n      swap1\n      dup2\n      mstore\n      0x20\n      add\n      0x00\n      keccak256\n      sload\n        /* \"ERC20-Token/token.sol\":1781:1809  return _ownerBalance[_owner] */\n      swap1\n      pop\n        /* \"ERC20-Token/token.sol\":1704:1816  function balanceOf(address _owner) external view returns (uint256) {... */\n      swap2\n      swap1\n      pop\n      jump\t// out\n        /* \"ERC20-Token/token.sol\":905:930  string public tokenSymbol */\n    tag_41:\n      0x01\n      dup1\n      sload\n      tag_70\n      swap1\n      tag_64\n      jump\t// in\n    tag_70:\n      dup1\n      0x1f\n      add\n      0x20\n      dup1\n      swap2\n      div\n      mul\n      0x20\n      add\n      mload(0x40)\n      swap1\n      dup2\n      add\n      0x40\n      mstore\n      dup1\n      swap3\n      swap2\n      swap1\n      dup2\n      dup2\n      mstore\n      0x20\n      add\n      dup3\n      dup1\n      sload\n      tag_71\n      swap1\n      tag_64\n      jump\t// in\n    tag_71:\n      dup1\n      iszero\n      tag_72\n      jumpi\n      dup1\n      0x1f\n      lt\n      tag_73\n      jumpi\n      0x0100\n      dup1\n      dup4\n      sload\n      div\n      mul\n      dup4\n      mstore\n      swap2\n      0x20\n      add\n      swap2\n      jump(tag_72)\n    tag_73:\n      dup3\n      add\n      swap2\n      swap1\n      0x00\n      mstore\n      keccak256(0x00, 0x20)\n      swap1\n    tag_74:\n      dup2\n      sload\n      dup2\n      mstore\n      swap1\n      0x01\n      add\n      swap1\n      0x20\n      add\n      dup1\n      dup4\n      gt\n      tag_74\n      jumpi\n      dup3\n      swap1\n      sub\n      0x1f\n      and\n      dup3\n      add\n      swap2\n    tag_72:\n      pop\n      pop\n      pop\n      pop\n      pop\n      dup2\n      jump\t// out\n        /* \"ERC20-Token/token.sol\":1822:2001  function transfer(address _recipient, uint256 _amount)... */\n    tag_45:\n        /* \"ERC20-Token/token.sol\":1911:1915  bool */\n      0x00\n        /* \"ERC20-Token/token.sol\":1931:1973  _transfer(msg.sender, _recipient, _amount) */\n      tag_76\n        /* \"ERC20-Token/token.sol\":1941:1951  msg.sender */\n      caller\n        /* \"ERC20-Token/token.sol\":1953:1963  _recipient */\n      dup5\n        /* \"ERC20-Token/token.sol\":1965:1972  _amount */\n      dup5\n        /* \"ERC20-Token/token.sol\":1931:1940  _transfer */\n      tag_58\n        /* \"ERC20-Token/token.sol\":1931:1973  _transfer(msg.sender, _recipient, _amount) */\n      jump\t// in\n    tag_76:\n        /* \"ERC20-Token/token.sol\":1990:1994  true */\n      0x01\n        /* \"ERC20-Token/token.sol\":1983:1994  return true */\n      swap1\n      pop\n        /* \"ERC20-Token/token.sol\":1822:2001  function transfer(address _recipient, uint256 _amount)... */\n      swap3\n      swap2\n      pop\n      pop\n      jump\t// out\n        /* \"ERC20-Token/token.sol\":2007:2290  function allowance(address _owner, address _spender)... */\n    tag_50:\n        /* \"ERC20-Token/token.sol\":2107:2114  uint256 */\n      0x00\n        /* \"ERC20-Token/token.sol\":2156:2157  0 */\n      dup1\n        /* \"ERC20-Token/token.sol\":2138:2158  _owner != address(0) */\n      0xffffffffffffffffffffffffffffffffffffffff\n      and\n        /* \"ERC20-Token/token.sol\":2138:2144  _owner */\n      dup4\n        /* \"ERC20-Token/token.sol\":2138:2158  _owner != address(0) */\n      0xffffffffffffffffffffffffffffffffffffffff\n      and\n      sub\n        /* \"ERC20-Token/token.sol\":2130:2177  require(_owner != address(0), \"Invalid sender\") */\n      tag_78\n      jumpi\n      mload(0x40)\n      0x08c379a000000000000000000000000000000000000000000000000000000000\n      dup2\n      mstore\n      0x04\n      add\n      tag_79\n      swap1\n      tag_80\n      jump\t// in\n    tag_79:\n      mload(0x40)\n      dup1\n      swap2\n      sub\n      swap1\n      revert\n    tag_78:\n        /* \"ERC20-Token/token.sol\":2215:2216  0 */\n      0x00\n        /* \"ERC20-Token/token.sol\":2195:2217  _spender != address(0) */\n      0xffffffffffffffffffffffffffffffffffffffff\n      and\n        /* \"ERC20-Token/token.sol\":2195:2203  _spender */\n      dup3\n        /* \"ERC20-Token/token.sol\":2195:2217  _spender != address(0) */\n      0xffffffffffffffffffffffffffffffffffffffff\n      and\n      sub\n        /* \"ERC20-Token/token.sol\":2187:2237  require(_spender != address(0), \"Invalid spender\") */\n      tag_81\n      jumpi\n      mload(0x40)\n      0x08c379a000000000000000000000000000000000000000000000000000000000\n      dup2\n      mstore\n      0x04\n      add\n      tag_82\n      swap1\n      tag_83\n      jump\t// in\n    tag_82:\n      mload(0x40)\n      dup1\n      swap2\n      sub\n      swap1\n      revert\n    tag_81:\n        /* \"ERC20-Token/token.sol\":2255:2265  _allowance */\n      0x05\n        /* \"ERC20-Token/token.sol\":2255:2273  _allowance[_owner] */\n      0x00\n        /* \"ERC20-Token/token.sol\":2266:2272  _owner */\n      dup5\n        /* \"ERC20-Token/token.sol\":2255:2273  _allowance[_owner] */\n      0xffffffffffffffffffffffffffffffffffffffff\n      and\n      0xffffffffffffffffffffffffffffffffffffffff\n      and\n      dup2\n      mstore\n      0x20\n      add\n      swap1\n      dup2\n      mstore\n      0x20\n      add\n      0x00\n      keccak256\n        /* \"ERC20-Token/token.sol\":2255:2283  _allowance[_owner][_spender] */\n      0x00\n        /* \"ERC20-Token/token.sol\":2274:2282  _spender */\n      dup4\n        /* \"ERC20-Token/token.sol\":2255:2283  _allowance[_owner][_spender] */\n      0xffffffffffffffffffffffffffffffffffffffff\n      and\n      0xffffffffffffffffffffffffffffffffffffffff\n      and\n      dup2\n      mstore\n      0x20\n      add\n      swap1\n      dup2\n      mstore\n      0x20\n      add\n      0x00\n      keccak256\n      sload\n        /* \"ERC20-Token/token.sol\":2248:2283  return _allowance[_owner][_spender] */\n      swap1\n      pop\n        /* \"ERC20-Token/token.sol\":2007:2290  function allowance(address _owner, address _spender)... */\n      swap3\n      swap2\n      pop\n      pop\n      jump\t// out\n        /* \"ERC20-Token/token.sol\":3469:3802  function _approve(... */\n    tag_54:\n        /* \"ERC20-Token/token.sol\":3605:3606  0 */\n      0x00\n        /* \"ERC20-Token/token.sol\":3595:3602  _amount */\n      dup2\n        /* \"ERC20-Token/token.sol\":3595:3606  _amount > 0 */\n      gt\n        /* \"ERC20-Token/token.sol\":3587:3640  require(_amount > 0, \"Amount must be greater than 0\") */\n      tag_85\n      jumpi\n      mload(0x40)\n      0x08c379a000000000000000000000000000000000000000000000000000000000\n      dup2\n      mstore\n      0x04\n      add\n      tag_86\n      swap1\n      tag_87\n      jump\t// in\n    tag_86:\n      mload(0x40)\n      dup1\n      swap2\n      sub\n      swap1\n      revert\n    tag_85:\n        /* \"ERC20-Token/token.sol\":3678:3679  0 */\n      0x00\n        /* \"ERC20-Token/token.sol\":3658:3680  _spender != address(0) */\n      0xffffffffffffffffffffffffffffffffffffffff\n      and\n        /* \"ERC20-Token/token.sol\":3658:3666  _spender */\n      dup3\n        /* \"ERC20-Token/token.sol\":3658:3680  _spender != address(0) */\n      0xffffffffffffffffffffffffffffffffffffffff\n      and\n      sub\n        /* \"ERC20-Token/token.sol\":3650:3700  require(_spender != address(0), \"Invalid spender\") */\n      tag_88\n      jumpi\n      mload(0x40)\n      0x08c379a000000000000000000000000000000000000000000000000000000000\n      dup2\n      mstore\n      0x04\n      add\n      tag_89\n      swap1\n      tag_83\n      jump\t// in\n    tag_89:\n      mload(0x40)\n      dup1\n      swap2\n      sub\n      swap1\n      revert\n    tag_88:\n        /* \"ERC20-Token/token.sol\":3737:3744  _amount */\n      dup1\n        /* \"ERC20-Token/token.sol\":3711:3724  _ownerBalance */\n      0x04\n        /* \"ERC20-Token/token.sol\":3711:3734  _ownerBalance[_spender] */\n      0x00\n        /* \"ERC20-Token/token.sol\":3725:3733  _spender */\n      dup5\n        /* \"ERC20-Token/token.sol\":3711:3734  _ownerBalance[_spender] */\n      0xffffffffffffffffffffffffffffffffffffffff\n      and\n      0xffffffffffffffffffffffffffffffffffffffff\n      and\n      dup2\n      mstore\n      0x20\n      add\n      swap1\n      dup2\n      mstore\n      0x20\n      add\n      0x00\n      keccak256\n        /* \"ERC20-Token/token.sol\":3711:3744  _ownerBalance[_spender] = _amount */\n      dup2\n      swap1\n      sstore\n      pop\n        /* \"ERC20-Token/token.sol\":3777:3785  _spender */\n      dup2\n        /* \"ERC20-Token/token.sol\":3760:3795  Approval(_owner, _spender, _amount) */\n      0xffffffffffffffffffffffffffffffffffffffff\n      and\n        /* \"ERC20-Token/token.sol\":3769:3775  _owner */\n      dup4\n        /* \"ERC20-Token/token.sol\":3760:3795  Approval(_owner, _spender, _amount) */\n      0xffffffffffffffffffffffffffffffffffffffff\n      and\n      0x8c5be1e5ebec7d5bd14f71427d1e84f3dd0314c0f7b2291e5b200ac8c7c3b925\n        /* \"ERC20-Token/token.sol\":3787:3794  _amount */\n      dup4\n        /* \"ERC20-Token/token.sol\":3760:3795  Approval(_owner, _spender, _amount) */\n      mload(0x40)\n      tag_90\n      swap2\n      swap1\n      tag_22\n      jump\t// in\n    tag_90:\n      mload(0x40)\n      dup1\n      swap2\n      sub\n      swap1\n      log3\n        /* \"ERC20-Token/token.sol\":3469:3802  function _approve(... */\n      pop\n      pop\n      pop\n      jump\t// out\n        /* \"ERC20-Token/token.sol\":2886:3463  function _transfer(... */\n    tag_58:\n        /* \"ERC20-Token/token.sol\":3026:3027  0 */\n      0x00\n        /* \"ERC20-Token/token.sol\":3016:3023  _amount */\n      dup2\n        /* \"ERC20-Token/token.sol\":3016:3027  _amount > 0 */\n      gt\n        /* \"ERC20-Token/token.sol\":3008:3061  require(_amount > 0, \"Amount must be greater than 0\") */\n      tag_92\n      jumpi\n      mload(0x40)\n      0x08c379a000000000000000000000000000000000000000000000000000000000\n      dup2\n      mstore\n      0x04\n      add\n      tag_93\n      swap1\n      tag_87\n      jump\t// in\n    tag_93:\n      mload(0x40)\n      dup1\n      swap2\n      sub\n      swap1\n      revert\n    tag_92:\n        /* \"ERC20-Token/token.sol\":3090:3100  _recipient */\n      dup2\n        /* \"ERC20-Token/token.sol\":3079:3100  _sender != _recipient */\n      0xffffffffffffffffffffffffffffffffffffffff\n      and\n        /* \"ERC20-Token/token.sol\":3079:3086  _sender */\n      dup4\n        /* \"ERC20-Token/token.sol\":3079:3100  _sender != _recipient */\n      0xffffffffffffffffffffffffffffffffffffffff\n      and\n      sub\n        /* \"ERC20-Token/token.sol\":3071:3128  require(_sender != _recipient, \"Cannot transfer to self\") */\n      tag_94\n      jumpi\n      mload(0x40)\n      0x08c379a000000000000000000000000000000000000000000000000000000000\n      dup2\n      mstore\n      0x04\n      add\n      tag_95\n      swap1\n      tag_96\n      jump\t// in\n    tag_95:\n      mload(0x40)\n      dup1\n      swap2\n      sub\n      swap1\n      revert\n    tag_94:\n        /* \"ERC20-Token/token.sol\":3168:3169  0 */\n      0x00\n        /* \"ERC20-Token/token.sol\":3146:3170  _recipient != address(0) */\n      0xffffffffffffffffffffffffffffffffffffffff\n      and\n        /* \"ERC20-Token/token.sol\":3146:3156  _recipient */\n      dup3\n        /* \"ERC20-Token/token.sol\":3146:3170  _recipient != address(0) */\n      0xffffffffffffffffffffffffffffffffffffffff\n      and\n      sub\n        /* \"ERC20-Token/token.sol\":3138:3192  require(_recipient != address(0), \"Invalid recipient\") */\n      tag_97\n      jumpi\n      mload(0x40)\n      0x08c379a000000000000000000000000000000000000000000000000000000000\n      dup2\n      mstore\n      0x04\n      add\n      tag_98\n      swap1\n      tag_99\n      jump\t// in\n    tag_98:\n      mload(0x40)\n      dup1\n      swap2\n      sub\n      swap1\n      revert\n    tag_97:\n        /* \"ERC20-Token/token.sol\":3239:3246  _amount */\n      dup1\n        /* \"ERC20-Token/token.sol\":3210:3223  _ownerBalance */\n      0x04\n        /* \"ERC20-Token/token.sol\":3210:3235  _ownerBalance[msg.sender] */\n      0x00\n        /* \"ERC20-Token/token.sol\":3224:3234  msg.sender */\n      caller\n        /* \"ERC20-Token/token.sol\":3210:3235  _ownerBalance[msg.sender] */\n      0xffffffffffffffffffffffffffffffffffffffff\n      and\n      0xffffffffffffffffffffffffffffffffffffffff\n      and\n      dup2\n      mstore\n      0x20\n      add\n      swap1\n      dup2\n      mstore\n      0x20\n      add\n      0x00\n      keccak256\n      sload\n        /* \"ERC20-Token/token.sol\":3210:3246  _ownerBalance[msg.sender] >= _amount */\n      lt\n      iszero\n        /* \"ERC20-Token/token.sol\":3202:3271  require(_ownerBalance[msg.sender] >= _amount, \"Insufficient balance\") */\n      tag_100\n      jumpi\n      mload(0x40)\n      0x08c379a000000000000000000000000000000000000000000000000000000000\n      dup2\n      mstore\n      0x04\n      add\n      tag_101\n      swap1\n      tag_102\n      jump\t// in\n    tag_101:\n      mload(0x40)\n      dup1\n      swap2\n      sub\n      swap1\n      revert\n    tag_100:\n        /* \"ERC20-Token/token.sol\":3332:3339  _amount */\n      dup1\n        /* \"ERC20-Token/token.sol\":3306:3319  _ownerBalance */\n      0x04\n        /* \"ERC20-Token/token.sol\":3306:3328  _ownerBalance[_sender] */\n      0x00\n        /* \"ERC20-Token/token.sol\":3320:3327  _sender */\n      dup6\n        /* \"ERC20-Token/token.sol\":3306:3328  _ownerBalance[_sender] */\n      0xffffffffffffffffffffffffffffffffffffffff\n      and\n      0xffffffffffffffffffffffffffffffffffffffff\n      and\n      dup2\n      mstore\n      0x20\n      add\n      swap1\n      dup2\n      mstore\n      0x20\n      add\n      0x00\n      keccak256\n      0x00\n        /* \"ERC20-Token/token.sol\":3306:3339  _ownerBalance[_sender] -= _amount */\n      dup3\n      dup3\n      sload\n      sub\n      swap3\n      pop\n      pop\n      dup2\n      swap1\n      sstore\n      pop\n        /* \"ERC20-Token/token.sol\":3382:3389  _amount */\n      dup1\n        /* \"ERC20-Token/token.sol\":3353:3366  _ownerBalance */\n      0x04\n        /* \"ERC20-Token/token.sol\":3353:3378  _ownerBalance[_recipient] */\n      0x00\n        /* \"ERC20-Token/token.sol\":3367:3377  _recipient */\n      dup5\n        /* \"ERC20-Token/token.sol\":3353:3378  _ownerBalance[_recipient] */\n      0xffffffffffffffffffffffffffffffffffffffff\n      and\n      0xffffffffffffffffffffffffffffffffffffffff\n      and\n      dup2\n      mstore\n      0x20\n      add\n      swap1\n      dup2\n      mstore\n      0x20\n      add\n      0x00\n      keccak256\n      0x00\n        /* \"ERC20-Token/token.sol\":3353:3389  _ownerBalance[_recipient] += _amount */\n      dup3\n      dup3\n      sload\n      add\n      swap3\n      pop\n      pop\n      dup2\n      swap1\n      sstore\n      pop\n        /* \"ERC20-Token/token.sol\":3436:3446  _recipient */\n      dup2\n        /* \"ERC20-Token/token.sol\":3415:3456  Transfer(msg.sender, _recipient, _amount) */\n      0xffffffffffffffffffffffffffffffffffffffff\n      and\n        /* \"ERC20-Token/token.sol\":3424:3434  msg.sender */\n      caller\n        /* \"ERC20-Token/token.sol\":3415:3456  Transfer(msg.sender, _recipient, _amount) */\n      0xffffffffffffffffffffffffffffffffffffffff\n      and\n      0xddf252ad1be2c89b69c2b068fc378daa952ba7f163c4a11628f55a4df523b3ef\n        /* \"ERC20-Token/token.sol\":3448:3455  _amount */\n      dup4\n        /* \"ERC20-Token/token.sol\":3415:3456  Transfer(msg.sender, _recipient, _amount) */\n      mload(0x40)\n      tag_103\n      swap2\n      swap1\n      tag_22\n      jump\t// in\n    tag_103:\n      mload(0x40)\n      dup1\n      swap2\n      sub\n      swap1\n      log3\n        /* \"ERC20-Token/token.sol\":2886:3463  function _transfer(... */\n      pop\n      pop\n      pop\n      jump\t// out\n        /* \"#utility.yul\":88:205   */\n    tag_105:\n        /* \"#utility.yul\":197:198   */\n      0x00\n        /* \"#utility.yul\":194:195   */\n      dup1\n        /* \"#utility.yul\":187:199   */\n      revert\n        /* \"#utility.yul\":334:460   */\n    tag_107:\n        /* \"#utility.yul\":371:378   */\n      0x00\n        /* \"#utility.yul\":411:453   */\n      0xffffffffffffffffffffffffffffffffffffffff\n        /* \"#utility.yul\":404:409   */\n      dup3\n        /* \"#utility.yul\":400:454   */\n      and\n        /* \"#utility.yul\":389:454   */\n      swap1\n      pop\n        /* \"#utility.yul\":334:460   */\n      swap2\n      swap1\n      pop\n      jump\t// out\n        /* \"#utility.yul\":466:562   */\n    tag_108:\n        /* \"#utility.yul\":503:510   */\n      0x00\n        /* \"#utility.yul\":532:556   */\n      tag_143\n        /* \"#utility.yul\":550:555   */\n      dup3\n        /* \"#utility.yul\":532:556   */\n      tag_107\n      jump\t// in\n    tag_143:\n        /* \"#utility.yul\":521:556   */\n      swap1\n      pop\n        /* \"#utility.yul\":466:562   */\n      swap2\n      swap1\n      pop\n      jump\t// out\n        /* \"#utility.yul\":568:690   */\n    tag_109:\n        /* \"#utility.yul\":641:665   */\n      tag_145\n        /* \"#utility.yul\":659:664   */\n      dup2\n        /* \"#utility.yul\":641:665   */\n      tag_108\n      jump\t// in\n    tag_145:\n        /* \"#utility.yul\":634:639   */\n      dup2\n        /* \"#utility.yul\":631:666   */\n      eq\n        /* \"#utility.yul\":621:684   */\n      tag_146\n      jumpi\n        /* \"#utility.yul\":680:681   */\n      0x00\n        /* \"#utility.yul\":677:678   */\n      dup1\n        /* \"#utility.yul\":670:682   */\n      revert\n        /* \"#utility.yul\":621:684   */\n    tag_146:\n        /* \"#utility.yul\":568:690   */\n      pop\n      jump\t// out\n        /* \"#utility.yul\":696:835   */\n    tag_110:\n        /* \"#utility.yul\":742:747   */\n      0x00\n        /* \"#utility.yul\":780:786   */\n      dup2\n        /* \"#utility.yul\":767:787   */\n      calldataload\n        /* \"#utility.yul\":758:787   */\n      swap1\n      pop\n        /* \"#utility.yul\":796:829   */\n      tag_148\n        /* \"#utility.yul\":823:828   */\n      dup2\n        /* \"#utility.yul\":796:829   */\n      tag_109\n      jump\t// in\n    tag_148:\n        /* \"#utility.yul\":696:835   */\n      swap3\n      swap2\n      pop\n      pop\n      jump\t// out\n        /* \"#utility.yul\":841:918   */\n    tag_111:\n        /* \"#utility.yul\":878:885   */\n      0x00\n        /* \"#utility.yul\":907:912   */\n      dup2\n        /* \"#utility.yul\":896:912   */\n      swap1\n      pop\n        /* \"#utility.yul\":841:918   */\n      swap2\n      swap1\n      pop\n      jump\t// out\n        /* \"#utility.yul\":924:1046   */\n    tag_112:\n        /* \"#utility.yul\":997:1021   */\n      tag_151\n        /* \"#utility.yul\":1015:1020   */\n      dup2\n        /* \"#utility.yul\":997:1021   */\n      tag_111\n      jump\t// in\n    tag_151:\n        /* \"#utility.yul\":990:995   */\n      dup2\n        /* \"#utility.yul\":987:1022   */\n      eq\n        /* \"#utility.yul\":977:1040   */\n      tag_152\n      jumpi\n        /* \"#utility.yul\":1036:1037   */\n      0x00\n        /* \"#utility.yul\":1033:1034   */\n      dup1\n        /* \"#utility.yul\":1026:1038   */\n      revert\n        /* \"#utility.yul\":977:1040   */\n    tag_152:\n        /* \"#utility.yul\":924:1046   */\n      pop\n      jump\t// out\n        /* \"#utility.yul\":1052:1191   */\n    tag_113:\n        /* \"#utility.yul\":1098:1103   */\n      0x00\n        /* \"#utility.yul\":1136:1142   */\n      dup2\n        /* \"#utility.yul\":1123:1143   */\n      calldataload\n        /* \"#utility.yul\":1114:1143   */\n      swap1\n      pop\n        /* \"#utility.yul\":1152:1185   */\n      tag_154\n        /* \"#utility.yul\":1179:1184   */\n      dup2\n        /* \"#utility.yul\":1152:1185   */\n      tag_112\n      jump\t// in\n    tag_154:\n        /* \"#utility.yul\":1052:1191   */\n      swap3\n      swap2\n      pop\n      pop\n      jump\t// out\n        /* \"#utility.yul\":1197:1671   */\n    tag_15:\n        /* \"#utility.yul\":1265:1271   */\n      0x00\n        /* \"#utility.yul\":1273:1279   */\n      dup1\n        /* \"#utility.yul\":1322:1324   */\n      0x40\n        /* \"#utility.yul\":1310:1319   */\n      dup4\n        /* \"#utility.yul\":1301:1308   */\n      dup6\n        /* \"#utility.yul\":1297:1320   */\n      sub\n        /* \"#utility.yul\":1293:1325   */\n      slt\n        /* \"#utility.yul\":1290:1409   */\n      iszero\n      tag_156\n      jumpi\n        /* \"#utility.yul\":1328:1407   */\n      tag_157\n      tag_105\n      jump\t// in\n    tag_157:\n        /* \"#utility.yul\":1290:1409   */\n    tag_156:\n        /* \"#utility.yul\":1448:1449   */\n      0x00\n        /* \"#utility.yul\":1473:1526   */\n      tag_158\n        /* \"#utility.yul\":1518:1525   */\n      dup6\n        /* \"#utility.yul\":1509:1515   */\n      dup3\n        /* \"#utility.yul\":1498:1507   */\n      dup7\n        /* \"#utility.yul\":1494:1516   */\n      add\n        /* \"#utility.yul\":1473:1526   */\n      tag_110\n      jump\t// in\n    tag_158:\n        /* \"#utility.yul\":1463:1526   */\n      swap3\n      pop\n        /* \"#utility.yul\":1419:1536   */\n      pop\n        /* \"#utility.yul\":1575:1577   */\n      0x20\n        /* \"#utility.yul\":1601:1654   */\n      tag_159\n        /* \"#utility.yul\":1646:1653   */\n      dup6\n        /* \"#utility.yul\":1637:1643   */\n      dup3\n        /* \"#utility.yul\":1626:1635   */\n      dup7\n        /* \"#utility.yul\":1622:1644   */\n      add\n        /* \"#utility.yul\":1601:1654   */\n      tag_113\n      jump\t// in\n    tag_159:\n        /* \"#utility.yul\":1591:1654   */\n      swap2\n      pop\n        /* \"#utility.yul\":1546:1664   */\n      pop\n        /* \"#utility.yul\":1197:1671   */\n      swap3\n      pop\n      swap3\n      swap1\n      pop\n      jump\t// out\n        /* \"#utility.yul\":1677:1767   */\n    tag_114:\n        /* \"#utility.yul\":1711:1718   */\n      0x00\n        /* \"#utility.yul\":1754:1759   */\n      dup2\n        /* \"#utility.yul\":1747:1760   */\n      iszero\n        /* \"#utility.yul\":1740:1761   */\n      iszero\n        /* \"#utility.yul\":1729:1761   */\n      swap1\n      pop\n        /* \"#utility.yul\":1677:1767   */\n      swap2\n      swap1\n      pop\n      jump\t// out\n        /* \"#utility.yul\":1773:1882   */\n    tag_115:\n        /* \"#utility.yul\":1854:1875   */\n      tag_162\n        /* \"#utility.yul\":1869:1874   */\n      dup2\n        /* \"#utility.yul\":1854:1875   */\n      tag_114\n      jump\t// in\n    tag_162:\n        /* \"#utility.yul\":1849:1852   */\n      dup3\n        /* \"#utility.yul\":1842:1876   */\n      mstore\n        /* \"#utility.yul\":1773:1882   */\n      pop\n      pop\n      jump\t// out\n        /* \"#utility.yul\":1888:2098   */\n    tag_18:\n        /* \"#utility.yul\":1975:1979   */\n      0x00\n        /* \"#utility.yul\":2013:2015   */\n      0x20\n        /* \"#utility.yul\":2002:2011   */\n      dup3\n        /* \"#utility.yul\":1998:2016   */\n      add\n        /* \"#utility.yul\":1990:2016   */\n      swap1\n      pop\n        /* \"#utility.yul\":2026:2091   */\n      tag_164\n        /* \"#utility.yul\":2088:2089   */\n      0x00\n        /* \"#utility.yul\":2077:2086   */\n      dup4\n        /* \"#utility.yul\":2073:2090   */\n      add\n        /* \"#utility.yul\":2064:2070   */\n      dup5\n        /* \"#utility.yul\":2026:2091   */\n      tag_115\n      jump\t// in\n    tag_164:\n        /* \"#utility.yul\":1888:2098   */\n      swap3\n      swap2\n      pop\n      pop\n      jump\t// out\n        /* \"#utility.yul\":2104:2222   */\n    tag_116:\n        /* \"#utility.yul\":2191:2215   */\n      tag_166\n        /* \"#utility.yul\":2209:2214   */\n      dup2\n        /* \"#utility.yul\":2191:2215   */\n      tag_111\n      jump\t// in\n    tag_166:\n        /* \"#utility.yul\":2186:2189   */\n      dup3\n        /* \"#utility.yul\":2179:2216   */\n      mstore\n        /* \"#utility.yul\":2104:2222   */\n      pop\n      pop\n      jump\t// out\n        /* \"#utility.yul\":2228:2450   */\n    tag_22:\n        /* \"#utility.yul\":2321:2325   */\n      0x00\n        /* \"#utility.yul\":2359:2361   */\n      0x20\n        /* \"#utility.yul\":2348:2357   */\n      dup3\n        /* \"#utility.yul\":2344:2362   */\n      add\n        /* \"#utility.yul\":2336:2362   */\n      swap1\n      pop\n        /* \"#utility.yul\":2372:2443   */\n      tag_168\n        /* \"#utility.yul\":2440:2441   */\n      0x00\n        /* \"#utility.yul\":2429:2438   */\n      dup4\n        /* \"#utility.yul\":2425:2442   */\n      add\n        /* \"#utility.yul\":2416:2422   */\n      dup5\n        /* \"#utility.yul\":2372:2443   */\n      tag_116\n      jump\t// in\n    tag_168:\n        /* \"#utility.yul\":2228:2450   */\n      swap3\n      swap2\n      pop\n      pop\n      jump\t// out\n        /* \"#utility.yul\":2456:3075   */\n    tag_25:\n        /* \"#utility.yul\":2533:2539   */\n      0x00\n        /* \"#utility.yul\":2541:2547   */\n      dup1\n        /* \"#utility.yul\":2549:2555   */\n      0x00\n        /* \"#utility.yul\":2598:2600   */\n      0x60\n        /* \"#utility.yul\":2586:2595   */\n      dup5\n        /* \"#utility.yul\":2577:2584   */\n      dup7\n        /* \"#utility.yul\":2573:2596   */\n      sub\n        /* \"#utility.yul\":2569:2601   */\n      slt\n        /* \"#utility.yul\":2566:2685   */\n      iszero\n      tag_170\n      jumpi\n        /* \"#utility.yul\":2604:2683   */\n      tag_171\n      tag_105\n      jump\t// in\n    tag_171:\n        /* \"#utility.yul\":2566:2685   */\n    tag_170:\n        /* \"#utility.yul\":2724:2725   */\n      0x00\n        /* \"#utility.yul\":2749:2802   */\n      tag_172\n        /* \"#utility.yul\":2794:2801   */\n      dup7\n        /* \"#utility.yul\":2785:2791   */\n      dup3\n        /* \"#utility.yul\":2774:2783   */\n      dup8\n        /* \"#utility.yul\":2770:2792   */\n      add\n        /* \"#utility.yul\":2749:2802   */\n      tag_110\n      jump\t// in\n    tag_172:\n        /* \"#utility.yul\":2739:2802   */\n      swap4\n      pop\n        /* \"#utility.yul\":2695:2812   */\n      pop\n        /* \"#utility.yul\":2851:2853   */\n      0x20\n        /* \"#utility.yul\":2877:2930   */\n      tag_173\n        /* \"#utility.yul\":2922:2929   */\n      dup7\n        /* \"#utility.yul\":2913:2919   */\n      dup3\n        /* \"#utility.yul\":2902:2911   */\n      dup8\n        /* \"#utility.yul\":2898:2920   */\n      add\n        /* \"#utility.yul\":2877:2930   */\n      tag_110\n      jump\t// in\n    tag_173:\n        /* \"#utility.yul\":2867:2930   */\n      swap3\n      pop\n        /* \"#utility.yul\":2822:2940   */\n      pop\n        /* \"#utility.yul\":2979:2981   */\n      0x40\n        /* \"#utility.yul\":3005:3058   */\n      tag_174\n        /* \"#utility.yul\":3050:3057   */\n      dup7\n        /* \"#utility.yul\":3041:3047   */\n      dup3\n        /* \"#utility.yul\":3030:3039   */\n      dup8\n        /* \"#utility.yul\":3026:3048   */\n      add\n        /* \"#utility.yul\":3005:3058   */\n      tag_113\n      jump\t// in\n    tag_174:\n        /* \"#utility.yul\":2995:3058   */\n      swap2\n      pop\n        /* \"#utility.yul\":2950:3068   */\n      pop\n        /* \"#utility.yul\":2456:3075   */\n      swap3\n      pop\n      swap3\n      pop\n      swap3\n      jump\t// out\n        /* \"#utility.yul\":3081:3180   */\n    tag_117:\n        /* \"#utility.yul\":3133:3139   */\n      0x00\n        /* \"#utility.yul\":3167:3172   */\n      dup2\n        /* \"#utility.yul\":3161:3173   */\n      mload\n        /* \"#utility.yul\":3151:3173   */\n      swap1\n      pop\n        /* \"#utility.yul\":3081:3180   */\n      swap2\n      swap1\n      pop\n      jump\t// out\n        /* \"#utility.yul\":3186:3355   */\n    tag_118:\n        /* \"#utility.yul\":3270:3281   */\n      0x00\n        /* \"#utility.yul\":3304:3310   */\n      dup3\n        /* \"#utility.yul\":3299:3302   */\n      dup3\n        /* \"#utility.yul\":3292:3311   */\n      mstore\n        /* \"#utility.yul\":3344:3348   */\n      0x20\n        /* \"#utility.yul\":3339:3342   */\n      dup3\n        /* \"#utility.yul\":3335:3349   */\n      add\n        /* \"#utility.yul\":3320:3349   */\n      swap1\n      pop\n        /* \"#utility.yul\":3186:3355   */\n      swap3\n      swap2\n      pop\n      pop\n      jump\t// out\n        /* \"#utility.yul\":3361:3500   */\n    tag_119:\n        /* \"#utility.yul\":3450:3456   */\n      dup3\n        /* \"#utility.yul\":3445:3448   */\n      dup2\n        /* \"#utility.yul\":3440:3443   */\n      dup4\n        /* \"#utility.yul\":3434:3457   */\n      mcopy\n        /* \"#utility.yul\":3491:3492   */\n      0x00\n        /* \"#utility.yul\":3482:3488   */\n      dup4\n        /* \"#utility.yul\":3477:3480   */\n      dup4\n        /* \"#utility.yul\":3473:3489   */\n      add\n        /* \"#utility.yul\":3466:3493   */\n      mstore\n        /* \"#utility.yul\":3361:3500   */\n      pop\n      pop\n      pop\n      jump\t// out\n        /* \"#utility.yul\":3506:3608   */\n    tag_120:\n        /* \"#utility.yul\":3547:3553   */\n      0x00\n        /* \"#utility.yul\":3598:3600   */\n      0x1f\n        /* \"#utility.yul\":3594:3601   */\n      not\n        /* \"#utility.yul\":3589:3591   */\n      0x1f\n        /* \"#utility.yul\":3582:3587   */\n      dup4\n        /* \"#utility.yul\":3578:3592   */\n      add\n        /* \"#utility.yul\":3574:3602   */\n      and\n        /* \"#utility.yul\":3564:3602   */\n      swap1\n      pop\n        /* \"#utility.yul\":3506:3608   */\n      swap2\n      swap1\n      pop\n      jump\t// out\n        /* \"#utility.yul\":3614:3991   */\n    tag_121:\n        /* \"#utility.yul\":3702:3705   */\n      0x00\n        /* \"#utility.yul\":3730:3769   */\n      tag_180\n        /* \"#utility.yul\":3763:3768   */\n      dup3\n        /* \"#utility.yul\":3730:3769   */\n      tag_117\n      jump\t// in\n    tag_180:\n        /* \"#utility.yul\":3785:3856   */\n      tag_181\n        /* \"#utility.yul\":3849:3855   */\n      dup2\n        /* \"#utility.yul\":3844:3847   */\n      dup6\n        /* \"#utility.yul\":3785:3856   */\n      tag_118\n      jump\t// in\n    tag_181:\n        /* \"#utility.yul\":3778:3856   */\n      swap4\n      pop\n        /* \"#utility.yul\":3865:3930   */\n      tag_182\n        /* \"#utility.yul\":3923:3929   */\n      dup2\n        /* \"#utility.yul\":3918:3921   */\n      dup6\n        /* \"#utility.yul\":3911:3915   */\n      0x20\n        /* \"#utility.yul\":3904:3909   */\n      dup7\n        /* \"#utility.yul\":3900:3916   */\n      add\n        /* \"#utility.yul\":3865:3930   */\n      tag_119\n      jump\t// in\n    tag_182:\n        /* \"#utility.yul\":3955:3984   */\n      tag_183\n        /* \"#utility.yul\":3977:3983   */\n      dup2\n        /* \"#utility.yul\":3955:3984   */\n      tag_120\n      jump\t// in\n    tag_183:\n        /* \"#utility.yul\":3950:3953   */\n      dup5\n        /* \"#utility.yul\":3946:3985   */\n      add\n        /* \"#utility.yul\":3939:3985   */\n      swap2\n      pop\n        /* \"#utility.yul\":3706:3991   */\n      pop\n        /* \"#utility.yul\":3614:3991   */\n      swap3\n      swap2\n      pop\n      pop\n      jump\t// out\n        /* \"#utility.yul\":3997:4310   */\n    tag_34:\n        /* \"#utility.yul\":4110:4114   */\n      0x00\n        /* \"#utility.yul\":4148:4150   */\n      0x20\n        /* \"#utility.yul\":4137:4146   */\n      dup3\n        /* \"#utility.yul\":4133:4151   */\n      add\n        /* \"#utility.yul\":4125:4151   */\n      swap1\n      pop\n        /* \"#utility.yul\":4197:4206   */\n      dup2\n        /* \"#utility.yul\":4191:4195   */\n      dup2\n        /* \"#utility.yul\":4187:4207   */\n      sub\n        /* \"#utility.yul\":4183:4184   */\n      0x00\n        /* \"#utility.yul\":4172:4181   */\n      dup4\n        /* \"#utility.yul\":4168:4185   */\n      add\n        /* \"#utility.yul\":4161:4208   */\n      mstore\n        /* \"#utility.yul\":4225:4303   */\n      tag_185\n        /* \"#utility.yul\":4298:4302   */\n      dup2\n        /* \"#utility.yul\":4289:4295   */\n      dup5\n        /* \"#utility.yul\":4225:4303   */\n      tag_121\n      jump\t// in\n    tag_185:\n        /* \"#utility.yul\":4217:4303   */\n      swap1\n      pop\n        /* \"#utility.yul\":3997:4310   */\n      swap3\n      swap2\n      pop\n      pop\n      jump\t// out\n        /* \"#utility.yul\":4316:4645   */\n    tag_37:\n        /* \"#utility.yul\":4375:4381   */\n      0x00\n        /* \"#utility.yul\":4424:4426   */\n      0x20\n        /* \"#utility.yul\":4412:4421   */\n      dup3\n        /* \"#utility.yul\":4403:4410   */\n      dup5\n        /* \"#utility.yul\":4399:4422   */\n      sub\n        /* \"#utility.yul\":4395:4427   */\n      slt\n        /* \"#utility.yul\":4392:4511   */\n      iszero\n      tag_187\n      jumpi\n        /* \"#utility.yul\":4430:4509   */\n      tag_188\n      tag_105\n      jump\t// in\n    tag_188:\n        /* \"#utility.yul\":4392:4511   */\n    tag_187:\n        /* \"#utility.yul\":4550:4551   */\n      0x00\n        /* \"#utility.yul\":4575:4628   */\n      tag_189\n        /* \"#utility.yul\":4620:4627   */\n      dup5\n        /* \"#utility.yul\":4611:4617   */\n      dup3\n        /* \"#utility.yul\":4600:4609   */\n      dup6\n        /* \"#utility.yul\":4596:4618   */\n      add\n        /* \"#utility.yul\":4575:4628   */\n      tag_110\n      jump\t// in\n    tag_189:\n        /* \"#utility.yul\":4565:4628   */\n      swap2\n      pop\n        /* \"#utility.yul\":4521:4638   */\n      pop\n        /* \"#utility.yul\":4316:4645   */\n      swap3\n      swap2\n      pop\n      pop\n      jump\t// out\n        /* \"#utility.yul\":4651:5125   */\n    tag_49:\n        /* \"#utility.yul\":4719:4725   */\n      0x00\n        /* \"#utility.yul\":4727:4733   */\n      dup1\n        /* \"#utility.yul\":4776:4778   */\n      0x40\n        /* \"#utility.yul\":4764:4773   */\n      dup4\n        /* \"#utility.yul\":4755:4762   */\n      dup6\n        /* \"#utility.yul\":4751:4774   */\n      sub\n        /* \"#utility.yul\":4747:4779   */\n      slt\n        /* \"#utility.yul\":4744:4863   */\n      iszero\n      tag_191\n      jumpi\n        /* \"#utility.yul\":4782:4861   */\n      tag_192\n      tag_105\n      jump\t// in\n    tag_192:\n        /* \"#utility.yul\":4744:4863   */\n    tag_191:\n        /* \"#utility.yul\":4902:4903   */\n      0x00\n        /* \"#utility.yul\":4927:4980   */\n      tag_193\n        /* \"#utility.yul\":4972:4979   */\n      dup6\n        /* \"#utility.yul\":4963:4969   */\n      dup3\n        /* \"#utility.yul\":4952:4961   */\n      dup7\n        /* \"#utility.yul\":4948:4970   */\n      add\n        /* \"#utility.yul\":4927:4980   */\n      tag_110\n      jump\t// in\n    tag_193:\n        /* \"#utility.yul\":4917:4980   */\n      swap3\n      pop\n        /* \"#utility.yul\":4873:4990   */\n      pop\n        /* \"#utility.yul\":5029:5031   */\n      0x20\n        /* \"#utility.yul\":5055:5108   */\n      tag_194\n        /* \"#utility.yul\":5100:5107   */\n      dup6\n        /* \"#utility.yul\":5091:5097   */\n      dup3\n        /* \"#utility.yul\":5080:5089   */\n      dup7\n        /* \"#utility.yul\":5076:5098   */\n      add\n        /* \"#utility.yul\":5055:5108   */\n      tag_110\n      jump\t// in\n    tag_194:\n        /* \"#utility.yul\":5045:5108   */\n      swap2\n      pop\n        /* \"#utility.yul\":5000:5118   */\n      pop\n        /* \"#utility.yul\":4651:5125   */\n      swap3\n      pop\n      swap3\n      swap1\n      pop\n      jump\t// out\n        /* \"#utility.yul\":5131:5312   */\n    tag_122:\n        /* \"#utility.yul\":5271:5304   */\n      0x496e73756666696369656e74207472616e7366657220616c6c6f77616e636500\n        /* \"#utility.yul\":5267:5268   */\n      0x00\n        /* \"#utility.yul\":5259:5265   */\n      dup3\n        /* \"#utility.yul\":5255:5269   */\n      add\n        /* \"#utility.yul\":5248:5305   */\n      mstore\n        /* \"#utility.yul\":5131:5312   */\n      pop\n      jump\t// out\n        /* \"#utility.yul\":5318:5684   */\n    tag_123:\n        /* \"#utility.yul\":5460:5463   */\n      0x00\n        /* \"#utility.yul\":5481:5548   */\n      tag_197\n        /* \"#utility.yul\":5545:5547   */\n      0x1f\n        /* \"#utility.yul\":5540:5543   */\n      dup4\n        /* \"#utility.yul\":5481:5548   */\n      tag_118\n      jump\t// in\n    tag_197:\n        /* \"#utility.yul\":5474:5548   */\n      swap2\n      pop\n        /* \"#utility.yul\":5557:5650   */\n      tag_198\n        /* \"#utility.yul\":5646:5649   */\n      dup3\n        /* \"#utility.yul\":5557:5650   */\n      tag_122\n      jump\t// in\n    tag_198:\n        /* \"#utility.yul\":5675:5677   */\n      0x20\n        /* \"#utility.yul\":5670:5673   */\n      dup3\n        /* \"#utility.yul\":5666:5678   */\n      add\n        /* \"#utility.yul\":5659:5678   */\n      swap1\n      pop\n        /* \"#utility.yul\":5318:5684   */\n      swap2\n      swap1\n      pop\n      jump\t// out\n        /* \"#utility.yul\":5690:6109   */\n    tag_61:\n        /* \"#utility.yul\":5856:5860   */\n      0x00\n        /* \"#utility.yul\":5894:5896   */\n      0x20\n        /* \"#utility.yul\":5883:5892   */\n      dup3\n        /* \"#utility.yul\":5879:5897   */\n      add\n        /* \"#utility.yul\":5871:5897   */\n      swap1\n      pop\n        /* \"#utility.yul\":5943:5952   */\n      dup2\n        /* \"#utility.yul\":5937:5941   */\n      dup2\n        /* \"#utility.yul\":5933:5953   */\n      sub\n        /* \"#utility.yul\":5929:5930   */\n      0x00\n        /* \"#utility.yul\":5918:5927   */\n      dup4\n        /* \"#utility.yul\":5914:5931   */\n      add\n        /* \"#utility.yul\":5907:5954   */\n      mstore\n        /* \"#utility.yul\":5971:6102   */\n      tag_200\n        /* \"#utility.yul\":6097:6101   */\n      dup2\n        /* \"#utility.yul\":5971:6102   */\n      tag_123\n      jump\t// in\n    tag_200:\n        /* \"#utility.yul\":5963:6102   */\n      swap1\n      pop\n        /* \"#utility.yul\":5690:6109   */\n      swap2\n      swap1\n      pop\n      jump\t// out\n        /* \"#utility.yul\":6115:6295   */\n    tag_124:\n        /* \"#utility.yul\":6163:6240   */\n      0x4e487b7100000000000000000000000000000000000000000000000000000000\n        /* \"#utility.yul\":6160:6161   */\n      0x00\n        /* \"#utility.yul\":6153:6241   */\n      mstore\n        /* \"#utility.yul\":6260:6264   */\n      0x22\n        /* \"#utility.yul\":6257:6258   */\n      0x04\n        /* \"#utility.yul\":6250:6265   */\n      mstore\n        /* \"#utility.yul\":6284:6288   */\n      0x24\n        /* \"#utility.yul\":6281:6282   */\n      0x00\n        /* \"#utility.yul\":6274:6289   */\n      revert\n        /* \"#utility.yul\":6301:6621   */\n    tag_64:\n        /* \"#utility.yul\":6345:6351   */\n      0x00\n        /* \"#utility.yul\":6382:6383   */\n      0x02\n        /* \"#utility.yul\":6376:6380   */\n      dup3\n        /* \"#utility.yul\":6372:6384   */\n      div\n        /* \"#utility.yul\":6362:6384   */\n      swap1\n      pop\n        /* \"#utility.yul\":6429:6430   */\n      0x01\n        /* \"#utility.yul\":6423:6427   */\n      dup3\n        /* \"#utility.yul\":6419:6431   */\n      and\n        /* \"#utility.yul\":6450:6468   */\n      dup1\n        /* \"#utility.yul\":6440:6521   */\n      tag_203\n      jumpi\n        /* \"#utility.yul\":6506:6510   */\n      0x7f\n        /* \"#utility.yul\":6498:6504   */\n      dup3\n        /* \"#utility.yul\":6494:6511   */\n      and\n        /* \"#utility.yul\":6484:6511   */\n      swap2\n      pop\n        /* \"#utility.yul\":6440:6521   */\n    tag_203:\n        /* \"#utility.yul\":6568:6570   */\n      0x20\n        /* \"#utility.yul\":6560:6566   */\n      dup3\n        /* \"#utility.yul\":6557:6571   */\n      lt\n        /* \"#utility.yul\":6537:6555   */\n      dup2\n        /* \"#utility.yul\":6534:6572   */\n      sub\n        /* \"#utility.yul\":6531:6615   */\n      tag_204\n      jumpi\n        /* \"#utility.yul\":6587:6605   */\n      tag_205\n      tag_124\n      jump\t// in\n    tag_205:\n        /* \"#utility.yul\":6531:6615   */\n    tag_204:\n        /* \"#utility.yul\":6352:6621   */\n      pop\n        /* \"#utility.yul\":6301:6621   */\n      swap2\n      swap1\n      pop\n      jump\t// out\n        /* \"#utility.yul\":6627:6791   */\n    tag_125:\n        /* \"#utility.yul\":6767:6783   */\n      0x496e76616c69642073656e646572000000000000000000000000000000000000\n        /* \"#utility.yul\":6763:6764   */\n      0x00\n        /* \"#utility.yul\":6755:6761   */\n      dup3\n        /* \"#utility.yul\":6751:6765   */\n      add\n        /* \"#utility.yul\":6744:6784   */\n      mstore\n        /* \"#utility.yul\":6627:6791   */\n      pop\n      jump\t// out\n        /* \"#utility.yul\":6797:7163   */\n    tag_126:\n        /* \"#utility.yul\":6939:6942   */\n      0x00\n        /* \"#utility.yul\":6960:7027   */\n      tag_208\n        /* \"#utility.yul\":7024:7026   */\n      0x0e\n        /* \"#utility.yul\":7019:7022   */\n      dup4\n        /* \"#utility.yul\":6960:7027   */\n      tag_118\n      jump\t// in\n    tag_208:\n        /* \"#utility.yul\":6953:7027   */\n      swap2\n      pop\n        /* \"#utility.yul\":7036:7129   */\n      tag_209\n        /* \"#utility.yul\":7125:7128   */\n      dup3\n        /* \"#utility.yul\":7036:7129   */\n      tag_125\n      jump\t// in\n    tag_209:\n        /* \"#utility.yul\":7154:7156   */\n      0x20\n        /* \"#utility.yul\":7149:7152   */\n      dup3\n        /* \"#utility.yul\":7145:7157   */\n      add\n        /* \"#utility.yul\":7138:7157   */\n      swap1\n      pop\n        /* \"#utility.yul\":6797:7163   */\n      swap2\n      swap1\n      pop\n      jump\t// out\n        /* \"#utility.yul\":7169:7588   */\n    tag_80:\n        /* \"#utility.yul\":7335:7339   */\n      0x00\n        /* \"#utility.yul\":7373:7375   */\n      0x20\n        /* \"#utility.yul\":7362:7371   */\n      dup3\n        /* \"#utility.yul\":7358:7376   */\n      add\n        /* \"#utility.yul\":7350:7376   */\n      swap1\n      pop\n        /* \"#utility.yul\":7422:7431   */\n      dup2\n        /* \"#utility.yul\":7416:7420   */\n      dup2\n        /* \"#utility.yul\":7412:7432   */\n      sub\n        /* \"#utility.yul\":7408:7409   */\n      0x00\n        /* \"#utility.yul\":7397:7406   */\n      dup4\n        /* \"#utility.yul\":7393:7410   */\n      add\n        /* \"#utility.yul\":7386:7433   */\n      mstore\n        /* \"#utility.yul\":7450:7581   */\n      tag_211\n        /* \"#utility.yul\":7576:7580   */\n      dup2\n        /* \"#utility.yul\":7450:7581   */\n      tag_126\n      jump\t// in\n    tag_211:\n        /* \"#utility.yul\":7442:7581   */\n      swap1\n      pop\n        /* \"#utility.yul\":7169:7588   */\n      swap2\n      swap1\n      pop\n      jump\t// out\n        /* \"#utility.yul\":7594:7759   */\n    tag_127:\n        /* \"#utility.yul\":7734:7751   */\n      0x496e76616c6964207370656e6465720000000000000000000000000000000000\n        /* \"#utility.yul\":7730:7731   */\n      0x00\n        /* \"#utility.yul\":7722:7728   */\n      dup3\n        /* \"#utility.yul\":7718:7732   */\n      add\n        /* \"#utility.yul\":7711:7752   */\n      mstore\n        /* \"#utility.yul\":7594:7759   */\n      pop\n      jump\t// out\n        /* \"#utility.yul\":7765:8131   */\n    tag_128:\n        /* \"#utility.yul\":7907:7910   */\n      0x00\n        /* \"#utility.yul\":7928:7995   */\n      tag_214\n        /* \"#utility.yul\":7992:7994   */\n      0x0f\n        /* \"#utility.yul\":7987:7990   */\n      dup4\n        /* \"#utility.yul\":7928:7995   */\n      tag_118\n      jump\t// in\n    tag_214:\n        /* \"#utility.yul\":7921:7995   */\n      swap2\n      pop\n        /* \"#utility.yul\":8004:8097   */\n      tag_215\n        /* \"#utility.yul\":8093:8096   */\n      dup3\n        /* \"#utility.yul\":8004:8097   */\n      tag_127\n      jump\t// in\n    tag_215:\n        /* \"#utility.yul\":8122:8124   */\n      0x20\n        /* \"#utility.yul\":8117:8120   */\n      dup3\n        /* \"#utility.yul\":8113:8125   */\n      add\n        /* \"#utility.yul\":8106:8125   */\n      swap1\n      pop\n        /* \"#utility.yul\":7765:8131   */\n      swap2\n      swap1\n      pop\n      jump\t// out\n        /* \"#utility.yul\":8137:8556   */\n    tag_83:\n        /* \"#utility.yul\":8303:8307   */\n      0x00\n        /* \"#utility.yul\":8341:8343   */\n      0x20\n        /* \"#utility.yul\":8330:8339   */\n      dup3\n        /* \"#utility.yul\":8326:8344   */\n      add\n        /* \"#utility.yul\":8318:8344   */\n      swap1\n      pop\n        /* \"#utility.yul\":8390:8399   */\n      dup2\n        /* \"#utility.yul\":8384:8388   */\n      dup2\n        /* \"#utility.yul\":8380:8400   */\n      sub\n        /* \"#utility.yul\":8376:8377   */\n      0x00\n        /* \"#utility.yul\":8365:8374   */\n      dup4\n        /* \"#utility.yul\":8361:8378   */\n      add\n        /* \"#utility.yul\":8354:8401   */\n      mstore\n        /* \"#utility.yul\":8418:8549   */\n      tag_217\n        /* \"#utility.yul\":8544:8548   */\n      dup2\n        /* \"#utility.yul\":8418:8549   */\n      tag_128\n      jump\t// in\n    tag_217:\n        /* \"#utility.yul\":8410:8549   */\n      swap1\n      pop\n        /* \"#utility.yul\":8137:8556   */\n      swap2\n      swap1\n      pop\n      jump\t// out\n        /* \"#utility.yul\":8562:8741   */\n    tag_129:\n        /* \"#utility.yul\":8702:8733   */\n      0x416d6f756e74206d7573742062652067726561746572207468616e2030000000\n        /* \"#utility.yul\":8698:8699   */\n      0x00\n        /* \"#utility.yul\":8690:8696   */\n      dup3\n        /* \"#utility.yul\":8686:8700   */\n      add\n        /* \"#utility.yul\":8679:8734   */\n      mstore\n        /* \"#utility.yul\":8562:8741   */\n      pop\n      jump\t// out\n        /* \"#utility.yul\":8747:9113   */\n    tag_130:\n        /* \"#utility.yul\":8889:8892   */\n      0x00\n        /* \"#utility.yul\":8910:8977   */\n      tag_220\n        /* \"#utility.yul\":8974:8976   */\n      0x1d\n        /* \"#utility.yul\":8969:8972   */\n      dup4\n        /* \"#utility.yul\":8910:8977   */\n      tag_118\n      jump\t// in\n    tag_220:\n        /* \"#utility.yul\":8903:8977   */\n      swap2\n      pop\n        /* \"#utility.yul\":8986:9079   */\n      tag_221\n        /* \"#utility.yul\":9075:9078   */\n      dup3\n        /* \"#utility.yul\":8986:9079   */\n      tag_129\n      jump\t// in\n    tag_221:\n        /* \"#utility.yul\":9104:9106   */\n      0x20\n        /* \"#utility.yul\":9099:9102   */\n      dup3\n        /* \"#utility.yul\":9095:9107   */\n      add\n        /* \"#utility.yul\":9088:9107   */\n      swap1\n      pop\n        /* \"#utility.yul\":8747:9113   */\n      swap2\n      swap1\n      pop\n      jump\t// out\n        /* \"#utility.yul\":9119:9538   */\n    tag_87:\n        /* \"#utility.yul\":9285:9289   */\n      0x00\n        /* \"#utility.yul\":9323:9325   */\n      0x20\n        /* \"#utility.yul\":9312:9321   */\n      dup3\n        /* \"#utility.yul\":9308:9326   */\n      add\n        /* \"#utility.yul\":9300:9326   */\n      swap1\n      pop\n        /* \"#utility.yul\":9372:9381   */\n      dup2\n        /* \"#utility.yul\":9366:9370   */\n      dup2\n        /* \"#utility.yul\":9362:9382   */\n      sub\n        /* \"#utility.yul\":9358:9359   */\n      0x00\n        /* \"#utility.yul\":9347:9356   */\n      dup4\n        /* \"#utility.yul\":9343:9360   */\n      add\n        /* \"#utility.yul\":9336:9383   */\n      mstore\n        /* \"#utility.yul\":9400:9531   */\n      tag_223\n        /* \"#utility.yul\":9526:9530   */\n      dup2\n        /* \"#utility.yul\":9400:9531   */\n      tag_130\n      jump\t// in\n    tag_223:\n        /* \"#utility.yul\":9392:9531   */\n      swap1\n      pop\n        /* \"#utility.yul\":9119:9538   */\n      swap2\n      swap1\n      pop\n      jump\t// out\n        /* \"#utility.yul\":9544:9717   */\n    tag_131:\n        /* \"#utility.yul\":9684:9709   */\n      0x43616e6e6f74207472616e7366657220746f2073656c66000000000000000000\n        /* \"#utility.yul\":9680:9681   */\n      0x00\n        /* \"#utility.yul\":9672:9678   */\n      dup3\n        /* \"#utility.yul\":9668:9682   */\n      add\n        /* \"#utility.yul\":9661:9710   */\n      mstore\n        /* \"#utility.yul\":9544:9717   */\n      pop\n      jump\t// out\n        /* \"#utility.yul\":9723:10089   */\n    tag_132:\n        /* \"#utility.yul\":9865:9868   */\n      0x00\n        /* \"#utility.yul\":9886:9953   */\n      tag_226\n        /* \"#utility.yul\":9950:9952   */\n      0x17\n        /* \"#utility.yul\":9945:9948   */\n      dup4\n        /* \"#utility.yul\":9886:9953   */\n      tag_118\n      jump\t// in\n    tag_226:\n        /* \"#utility.yul\":9879:9953   */\n      swap2\n      pop\n        /* \"#utility.yul\":9962:10055   */\n      tag_227\n        /* \"#utility.yul\":10051:10054   */\n      dup3\n        /* \"#utility.yul\":9962:10055   */\n      tag_131\n      jump\t// in\n    tag_227:\n        /* \"#utility.yul\":10080:10082   */\n      0x20\n        /* \"#utility.yul\":10075:10078   */\n      dup3\n        /* \"#utility.yul\":10071:10083   */\n      add\n        /* \"#utility.yul\":10064:10083   */\n      swap1\n      pop\n        /* \"#utility.yul\":9723:10089   */\n      swap2\n      swap1\n      pop\n      jump\t// out\n        /* \"#utility.yul\":10095:10514   */\n    tag_96:\n        /* \"#utility.yul\":10261:10265   */\n      0x00\n        /* \"#utility.yul\":10299:10301   */\n      0x20\n        /* \"#utility.yul\":10288:10297   */\n      dup3\n        /* \"#utility.yul\":10284:10302   */\n      add\n        /* \"#utility.yul\":10276:10302   */\n      swap1\n      pop\n        /* \"#utility.yul\":10348:10357   */\n      dup2\n        /* \"#utility.yul\":10342:10346   */\n      dup2\n        /* \"#utility.yul\":10338:10358   */\n      sub\n        /* \"#utility.yul\":10334:10335   */\n      0x00\n        /* \"#utility.yul\":10323:10332   */\n      dup4\n        /* \"#utility.yul\":10319:10336   */\n      add\n        /* \"#utility.yul\":10312:10359   */\n      mstore\n        /* \"#utility.yul\":10376:10507   */\n      tag_229\n        /* \"#utility.yul\":10502:10506   */\n      dup2\n        /* \"#utility.yul\":10376:10507   */\n      tag_132\n      jump\t// in\n    tag_229:\n        /* \"#utility.yul\":10368:10507   */\n      swap1\n      pop\n        /* \"#utility.yul\":10095:10514   */\n      swap2\n      swap1\n      pop\n      jump\t// out\n        /* \"#utility.yul\":10520:10687   */\n    tag_133:\n        /* \"#utility.yul\":10660:10679   */\n      0x496e76616c696420726563697069656e74000000000000000000000000000000\n        /* \"#utility.yul\":10656:10657   */\n      0x00\n        /* \"#utility.yul\":10648:10654   */\n      dup3\n        /* \"#utility.yul\":10644:10658   */\n      add\n        /* \"#utility.yul\":10637:10680   */\n      mstore\n        /* \"#utility.yul\":10520:10687   */\n      pop\n      jump\t// out\n        /* \"#utility.yul\":10693:11059   */\n    tag_134:\n        /* \"#utility.yul\":10835:10838   */\n      0x00\n        /* \"#utility.yul\":10856:10923   */\n      tag_232\n        /* \"#utility.yul\":10920:10922   */\n      0x11\n        /* \"#utility.yul\":10915:10918   */\n      dup4\n        /* \"#utility.yul\":10856:10923   */\n      tag_118\n      jump\t// in\n    tag_232:\n        /* \"#utility.yul\":10849:10923   */\n      swap2\n      pop\n        /* \"#utility.yul\":10932:11025   */\n      tag_233\n        /* \"#utility.yul\":11021:11024   */\n      dup3\n        /* \"#utility.yul\":10932:11025   */\n      tag_133\n      jump\t// in\n    tag_233:\n        /* \"#utility.yul\":11050:11052   */\n      0x20\n        /* \"#utility.yul\":11045:11048   */\n      dup3\n        /* \"#utility.yul\":11041:11053   */\n      add\n        /* \"#utility.yul\":11034:11053   */\n      swap1\n      pop\n        /* \"#utility.yul\":10693:11059   */\n      swap2\n      swap1\n      pop\n      jump\t// out\n        /* \"#utility.yul\":11065:11484   */\n    tag_99:\n        /* \"#utility.yul\":11231:11235   */\n      0x00\n        /* \"#utility.yul\":11269:11271   */\n      0x20\n        /* \"#utility.yul\":11258:11267   */\n      dup3\n        /* \"#utility.yul\":11254:11272   */\n      add\n        /* \"#utility.yul\":11246:11272   */\n      swap1\n      pop\n        /* \"#utility.yul\":11318:11327   */\n      dup2\n        /* \"#utility.yul\":11312:11316   */\n      dup2\n        /* \"#utility.yul\":11308:11328   */\n      sub\n        /* \"#utility.yul\":11304:11305   */\n      0x00\n        /* \"#utility.yul\":11293:11302   */\n      dup4\n        /* \"#utility.yul\":11289:11306   */\n      add\n        /* \"#utility.yul\":11282:11329   */\n      mstore\n        /* \"#utility.yul\":11346:11477   */\n      tag_235\n        /* \"#utility.yul\":11472:11476   */\n      dup2\n        /* \"#utility.yul\":11346:11477   */\n      tag_134\n      jump\t// in\n    tag_235:\n        /* \"#utility.yul\":11338:11477   */\n      swap1\n      pop\n        /* \"#utility.yul\":11065:11484   */\n      swap2\n      swap1\n      pop\n      jump\t// out\n        /* \"#utility.yul\":11490:11660   */\n    tag_135:\n        /* \"#utility.yul\":11630:11652   */\n      0x496e73756666696369656e742062616c616e6365000000000000000000000000\n        /* \"#utility.yul\":11626:11627   */\n      0x00\n        /* \"#utility.yul\":11618:11624   */\n      dup3\n        /* \"#utility.yul\":11614:11628   */\n      add\n        /* \"#utility.yul\":11607:11653   */\n      mstore\n        /* \"#utility.yul\":11490:11660   */\n      pop\n      jump\t// out\n        /* \"#utility.yul\":11666:12032   */\n    tag_136:\n        /* \"#utility.yul\":11808:11811   */\n      0x00\n        /* \"#utility.yul\":11829:11896   */\n      tag_238\n        /* \"#utility.yul\":11893:11895   */\n      0x14\n        /* \"#utility.yul\":11888:11891   */\n      dup4\n        /* \"#utility.yul\":11829:11896   */\n      tag_118\n      jump\t// in\n    tag_238:\n        /* \"#utility.yul\":11822:11896   */\n      swap2\n      pop\n        /* \"#utility.yul\":11905:11998   */\n      tag_239\n        /* \"#utility.yul\":11994:11997   */\n      dup3\n        /* \"#utility.yul\":11905:11998   */\n      tag_135\n      jump\t// in\n    tag_239:\n        /* \"#utility.yul\":12023:12025   */\n      0x20\n        /* \"#utility.yul\":12018:12021   */\n      dup3\n        /* \"#utility.yul\":12014:12026   */\n      add\n        /* \"#utility.yul\":12007:12026   */\n      swap1\n      pop\n        /* \"#utility.yul\":11666:12032   */\n      swap2\n      swap1\n      pop\n      jump\t// out\n        /* \"#utility.yul\":12038:12457   */\n    tag_102:\n        /* \"#utility.yul\":12204:12208   */\n      0x00\n        /* \"#utility.yul\":12242:12244   */\n      0x20\n        /* \"#utility.yul\":12231:12240   */\n      dup3\n        /* \"#utility.yul\":12227:12245   */\n      add\n        /* \"#utility.yul\":12219:12245   */\n      swap1\n      pop\n        /* \"#utility.yul\":12291:12300   */\n      dup2\n        /* \"#utility.yul\":12285:12289   */\n      dup2\n        /* \"#utility.yul\":12281:12301   */\n      sub\n        /* \"#utility.yul\":12277:12278   */\n      0x00\n        /* \"#utility.yul\":12266:12275   */\n      dup4\n        /* \"#utility.yul\":12262:12279   */\n      add\n        /* \"#utility.yul\":12255:12302   */\n      mstore\n        /* \"#utility.yul\":12319:12450   */\n      tag_241\n        /* \"#utility.yul\":12445:12449   */\n      dup2\n        /* \"#utility.yul\":12319:12450   */\n      tag_136\n      jump\t// in\n    tag_241:\n        /* \"#utility.yul\":12311:12450   */\n      swap1\n      pop\n        /* \"#utility.yul\":12038:12457   */\n      swap2\n      swap1\n      pop\n      jump\t// out\n\n    auxdata: 0xa2646970667358221220bbc0120c9c64e236d5ae69ec0e3dd4d46726fe5f50eac638b30d1d49ecc5cae464736f6c634300081a0033\n}\n",
				"bytecode": {
					"linkReferences": {},
					"object": "608060405234801561000f575f80fd5b506040516117e13803806117e1833981810160405281019061003191906102ab565b835f908161003f919061054b565b50826001908161004f919061054b565b5081600281905550600254600a6100669190610776565b8161007191906107c0565b60038190555060035460045f3373ffffffffffffffffffffffffffffffffffffffff1673ffffffffffffffffffffffffffffffffffffffff1681526020019081526020015f20819055503373ffffffffffffffffffffffffffffffffffffffff165f73ffffffffffffffffffffffffffffffffffffffff167fddf252ad1be2c89b69c2b068fc378daa952ba7f163c4a11628f55a4df523b3ef60035460405161011a9190610810565b60405180910390a350505050610829565b5f604051905090565b5f80fd5b5f80fd5b5f80fd5b5f80fd5b5f601f19601f8301169050919050565b7f4e487b71000000000000000000000000000000000000000000000000000000005f52604160045260245ffd5b61018a82610144565b810181811067ffffffffffffffff821117156101a9576101a8610154565b5b80604052505050565b5f6101bb61012b565b90506101c78282610181565b919050565b5f67ffffffffffffffff8211156101e6576101e5610154565b5b6101ef82610144565b9050602081019050919050565b8281835e5f83830152505050565b5f61021c610217846101cc565b6101b2565b90508281526020810184848401111561023857610237610140565b5b6102438482856101fc565b509392505050565b5f82601f83011261025f5761025e61013c565b5b815161026f84826020860161020a565b91505092915050565b5f819050919050565b61028a81610278565b8114610294575f80fd5b50565b5f815190506102a581610281565b92915050565b5f805f80608085870312156102c3576102c2610134565b5b5f85015167ffffffffffffffff8111156102e0576102df610138565b5b6102ec8782880161024b565b945050602085015167ffffffffffffffff81111561030d5761030c610138565b5b6103198782880161024b565b935050604061032a87828801610297565b925050606061033b87828801610297565b91505092959194509250565b5f81519050919050565b7f4e487b71000000000000000000000000000000000000000000000000000000005f52602260045260245ffd5b5f600282049050600182168061039557607f821691505b6020821081036103a8576103a7610351565b5b50919050565b5f819050815f5260205f209050919050565b5f6020601f8301049050919050565b5f82821b905092915050565b5f6008830261040a7fffffffffffffffffffffffffffffffffffffffffffffffffffffffffffffffff826103cf565b61041486836103cf565b95508019841693508086168417925050509392505050565b5f819050919050565b5f61044f61044a61044584610278565b61042c565b610278565b9050919050565b5f819050919050565b61046883610435565b61047c61047482610456565b8484546103db565b825550505050565b5f90565b610490610484565b61049b81848461045f565b505050565b5b818110156104be576104b35f82610488565b6001810190506104a1565b5050565b601f821115610503576104d4816103ae565b6104dd846103c0565b810160208510156104ec578190505b6105006104f8856103c0565b8301826104a0565b50505b505050565b5f82821c905092915050565b5f6105235f1984600802610508565b1980831691505092915050565b5f61053b8383610514565b9150826002028217905092915050565b61055482610347565b67ffffffffffffffff81111561056d5761056c610154565b5b610577825461037e565b6105828282856104c2565b5f60209050601f8311600181146105b3575f84156105a1578287015190505b6105ab8582610530565b865550610612565b601f1984166105c1866103ae565b5f5b828110156105e8578489015182556001820191506020850194506020810190506105c3565b868310156106055784890151610601601f891682610514565b8355505b6001600288020188555050505b505050505050565b7f4e487b71000000000000000000000000000000000000000000000000000000005f52601160045260245ffd5b5f8160011c9050919050565b5f808291508390505b600185111561069c578086048111156106785761067761061a565b5b60018516156106875780820291505b808102905061069585610647565b945061065c565b94509492505050565b5f826106b4576001905061076f565b816106c1575f905061076f565b81600181146106d757600281146106e157610710565b600191505061076f565b60ff8411156106f3576106f261061a565b5b8360020a91508482111561070a5761070961061a565b5b5061076f565b5060208310610133831016604e8410600b84101617156107455782820a9050838111156107405761073f61061a565b5b61076f565b6107528484846001610653565b925090508184048111156107695761076861061a565b5b81810290505b9392505050565b5f61078082610278565b915061078b83610278565b92506107b87fffffffffffffffffffffffffffffffffffffffffffffffffffffffffffffffff84846106a5565b905092915050565b5f6107ca82610278565b91506107d583610278565b92508282026107e381610278565b915082820484148315176107fa576107f961061a565b5b5092915050565b61080a81610278565b82525050565b5f6020820190506108235f830184610801565b92915050565b610fab806108365f395ff3fe608060405234801561000f575f80fd5b5060043610610091575f3560e01c80636c02a931116100645780636c02a9311461013157806370a082311461014f5780637b61c3201461017f578063a9059cbb1461019d578063dd62ed3e146101cd57610091565b8063095ea7b31461009557806318160ddd146100c557806323b872dd146100e35780635caed02914610113575b5f80fd5b6100af60048036038101906100aa9190610a5e565b6101fd565b6040516100bc9190610ab6565b60405180910390f35b6100cd610213565b6040516100da9190610ade565b60405180910390f35b6100fd60048036038101906100f89190610af7565b61021c565b60405161010a9190610ab6565b60405180910390f35b61011b6102fe565b6040516101289190610ade565b60405180910390f35b610139610304565b6040516101469190610bb7565b60405180910390f35b61016960048036038101906101649190610bd7565b61038f565b6040516101769190610ade565b60405180910390f35b6101876103d5565b6040516101949190610bb7565b60405180910390f35b6101b760048036038101906101b29190610a5e565b610461565b6040516101c49190610ab6565b60405180910390f35b6101e760048036038101906101e29190610c02565b610477565b6040516101f49190610ade565b60405180910390f35b5f6102093384846105d5565b6001905092915050565b5f600354905090565b5f610228848484610731565b5f60055f8673ffffffffffffffffffffffffffffffffffffffff1673ffffffffffffffffffffffffffffffffffffffff1681526020019081526020015f205f3373ffffffffffffffffffffffffffffffffffffffff1673ffffffffffffffffffffffffffffffffffffffff1681526020019081526020015f20549050828110156102e7576040517f08c379a00000000000000000000000000000000000000000000000000000000081526004016102de90610c8a565b60405180910390fd5b6102f28533856105d5565b60019150509392505050565b60025481565b5f805461031090610cd5565b80601f016020809104026020016040519081016040528092919081815260200182805461033c90610cd5565b80156103875780601f1061035e57610100808354040283529160200191610387565b820191905f5260205f20905b81548152906001019060200180831161036a57829003601f168201915b505050505081565b5f60045f8373ffffffffffffffffffffffffffffffffffffffff1673ffffffffffffffffffffffffffffffffffffffff1681526020019081526020015f20549050919050565b600180546103e290610cd5565b80601f016020809104026020016040519081016040528092919081815260200182805461040e90610cd5565b80156104595780601f1061043057610100808354040283529160200191610459565b820191905f5260205f20905b81548152906001019060200180831161043c57829003601f168201915b505050505081565b5f61046d338484610731565b6001905092915050565b5f8073ffffffffffffffffffffffffffffffffffffffff168373ffffffffffffffffffffffffffffffffffffffff16036104e6576040517f08c379a00000000000000000000000000000000000000000000000000000000081526004016104dd90610d4f565b60405180910390fd5b5f73ffffffffffffffffffffffffffffffffffffffff168273ffffffffffffffffffffffffffffffffffffffff1603610554576040517f08c379a000000000000000000000000000000000000000000000000000000000815260040161054b90610db7565b60405180910390fd5b60055f8473ffffffffffffffffffffffffffffffffffffffff1673ffffffffffffffffffffffffffffffffffffffff1681526020019081526020015f205f8373ffffffffffffffffffffffffffffffffffffffff1673ffffffffffffffffffffffffffffffffffffffff1681526020019081526020015f2054905092915050565b5f8111610617576040517f08c379a000000000000000000000000000000000000000000000000000000000815260040161060e90610e1f565b60405180910390fd5b5f73ffffffffffffffffffffffffffffffffffffffff168273ffffffffffffffffffffffffffffffffffffffff1603610685576040517f08c379a000000000000000000000000000000000000000000000000000000000815260040161067c90610db7565b60405180910390fd5b8060045f8473ffffffffffffffffffffffffffffffffffffffff1673ffffffffffffffffffffffffffffffffffffffff1681526020019081526020015f20819055508173ffffffffffffffffffffffffffffffffffffffff168373ffffffffffffffffffffffffffffffffffffffff167f8c5be1e5ebec7d5bd14f71427d1e84f3dd0314c0f7b2291e5b200ac8c7c3b925836040516107249190610ade565b60405180910390a3505050565b5f8111610773576040517f08c379a000000000000000000000000000000000000000000000000000000000815260040161076a90610e1f565b60405180910390fd5b8173ffffffffffffffffffffffffffffffffffffffff168373ffffffffffffffffffffffffffffffffffffffff16036107e1576040517f08c379a00000000000000000000000000000000000000000000000000000000081526004016107d890610e87565b60405180910390fd5b5f73ffffffffffffffffffffffffffffffffffffffff168273ffffffffffffffffffffffffffffffffffffffff160361084f576040517f08c379a000000000000000000000000000000000000000000000000000000000815260040161084690610eef565b60405180910390fd5b8060045f3373ffffffffffffffffffffffffffffffffffffffff1673ffffffffffffffffffffffffffffffffffffffff1681526020019081526020015f205410156108cf576040517f08c379a00000000000000000000000000000000000000000000000000000000081526004016108c690610f57565b60405180910390fd5b8060045f8573ffffffffffffffffffffffffffffffffffffffff1673ffffffffffffffffffffffffffffffffffffffff1681526020019081526020015f205f82825403925050819055508060045f8473ffffffffffffffffffffffffffffffffffffffff1673ffffffffffffffffffffffffffffffffffffffff1681526020019081526020015f205f82825401925050819055508173ffffffffffffffffffffffffffffffffffffffff163373ffffffffffffffffffffffffffffffffffffffff167fddf252ad1be2c89b69c2b068fc378daa952ba7f163c4a11628f55a4df523b3ef836040516109c09190610ade565b60405180910390a3505050565b5f80fd5b5f73ffffffffffffffffffffffffffffffffffffffff82169050919050565b5f6109fa826109d1565b9050919050565b610a0a816109f0565b8114610a14575f80fd5b50565b5f81359050610a2581610a01565b92915050565b5f819050919050565b610a3d81610a2b565b8114610a47575f80fd5b50565b5f81359050610a5881610a34565b92915050565b5f8060408385031215610a7457610a736109cd565b5b5f610a8185828601610a17565b9250506020610a9285828601610a4a565b9150509250929050565b5f8115159050919050565b610ab081610a9c565b82525050565b5f602082019050610ac95f830184610aa7565b92915050565b610ad881610a2b565b82525050565b5f602082019050610af15f830184610acf565b92915050565b5f805f60608486031215610b0e57610b0d6109cd565b5b5f610b1b86828701610a17565b9350506020610b2c86828701610a17565b9250506040610b3d86828701610a4a565b9150509250925092565b5f81519050919050565b5f82825260208201905092915050565b8281835e5f83830152505050565b5f601f19601f8301169050919050565b5f610b8982610b47565b610b938185610b51565b9350610ba3818560208601610b61565b610bac81610b6f565b840191505092915050565b5f6020820190508181035f830152610bcf8184610b7f565b905092915050565b5f60208284031215610bec57610beb6109cd565b5b5f610bf984828501610a17565b91505092915050565b5f8060408385031215610c1857610c176109cd565b5b5f610c2585828601610a17565b9250506020610c3685828601610a17565b9150509250929050565b7f496e73756666696369656e74207472616e7366657220616c6c6f77616e6365005f82015250565b5f610c74601f83610b51565b9150610c7f82610c40565b602082019050919050565b5f6020820190508181035f830152610ca181610c68565b9050919050565b7f4e487b71000000000000000000000000000000000000000000000000000000005f52602260045260245ffd5b5f6002820490506001821680610cec57607f821691505b602082108103610cff57610cfe610ca8565b5b50919050565b7f496e76616c69642073656e6465720000000000000000000000000000000000005f82015250565b5f610d39600e83610b51565b9150610d4482610d05565b602082019050919050565b5f6020820190508181035f830152610d6681610d2d565b9050919050565b7f496e76616c6964207370656e64657200000000000000000000000000000000005f82015250565b5f610da1600f83610b51565b9150610dac82610d6d565b602082019050919050565b5f6020820190508181035f830152610dce81610d95565b9050919050565b7f416d6f756e74206d7573742062652067726561746572207468616e20300000005f82015250565b5f610e09601d83610b51565b9150610e1482610dd5565b602082019050919050565b5f6020820190508181035f830152610e3681610dfd565b9050919050565b7f43616e6e6f74207472616e7366657220746f2073656c660000000000000000005f82015250565b5f610e71601783610b51565b9150610e7c82610e3d565b602082019050919050565b5f6020820190508181035f830152610e9e81610e65565b9050919050565b7f496e76616c696420726563697069656e740000000000000000000000000000005f82015250565b5f610ed9601183610b51565b9150610ee482610ea5565b602082019050919050565b5f6020820190508181035f830152610f0681610ecd565b9050919050565b7f496e73756666696369656e742062616c616e63650000000000000000000000005f82015250565b5f610f41601483610b51565b9150610f4c82610f0d565b602082019050919050565b5f6020820190508181035f830152610f6e81610f35565b905091905056fea2646970667358221220bbc0120c9c64e236d5ae69ec0e3dd4d46726fe5f50eac638b30d1d49ecc5cae464736f6c634300081a0033",
					"opcodes": "PUSH1 0x80 PUSH1 0x40 MSTORE CALLVALUE DUP1 ISZERO PUSH2 0xF JUMPI PUSH0 DUP1 REVERT JUMPDEST POP PUSH1 0x40 MLOAD PUSH2 0x17E1 CODESIZE SUB DUP1 PUSH2 0x17E1 DUP4 CODECOPY DUP2 DUP2 ADD PUSH1 0x40 MSTORE DUP2 ADD SWAP1 PUSH2 0x31 SWAP2 SWAP1 PUSH2 0x2AB JUMP JUMPDEST DUP4 PUSH0 SWAP1 DUP2 PUSH2 0x3F SWAP2 SWAP1 PUSH2 0x54B JUMP JUMPDEST POP DUP3 PUSH1 0x1 SWAP1 DUP2 PUSH2 0x4F SWAP2 SWAP1 PUSH2 0x54B JUMP JUMPDEST POP DUP2 PUSH1 0x2 DUP2 SWAP1 SSTORE POP PUSH1 0x2 SLOAD PUSH1 0xA PUSH2 0x66 SWAP2 SWAP1 PUSH2 0x776 JUMP JUMPDEST DUP2 PUSH2 0x71 SWAP2 SWAP1 PUSH2 0x7C0 JUMP JUMPDEST PUSH1 0x3 DUP2 SWAP1 SSTORE POP PUSH1 0x3 SLOAD PUSH1 0x4 PUSH0 CALLER PUSH20 0xFFFFFFFFFFFFFFFFFFFFFFFFFFFFFFFFFFFFFFFF AND PUSH20 0xFFFFFFFFFFFFFFFFFFFFFFFFFFFFFFFFFFFFFFFF AND DUP2 MSTORE PUSH1 0x20 ADD SWAP1 DUP2 MSTORE PUSH1 0x20 ADD PUSH0 KECCAK256 DUP2 SWAP1 SSTORE POP CALLER PUSH20 0xFFFFFFFFFFFFFFFFFFFFFFFFFFFFFFFFFFFFFFFF AND PUSH0 PUSH20 0xFFFFFFFFFFFFFFFFFFFFFFFFFFFFFFFFFFFFFFFF AND PUSH32 0xDDF252AD1BE2C89B69C2B068FC378DAA952BA7F163C4A11628F55A4DF523B3EF PUSH1 0x3 SLOAD PUSH1 0x40 MLOAD PUSH2 0x11A SWAP2 SWAP1 PUSH2 0x810 JUMP JUMPDEST PUSH1 0x40 MLOAD DUP1 SWAP2 SUB SWAP1 LOG3 POP POP POP POP PUSH2 0x829 JUMP JUMPDEST PUSH0 PUSH1 0x40 MLOAD SWAP1 POP SWAP1 JUMP JUMPDEST PUSH0 DUP1 REVERT JUMPDEST PUSH0 DUP1 REVERT JUMPDEST PUSH0 DUP1 REVERT JUMPDEST PUSH0 DUP1 REVERT JUMPDEST PUSH0 PUSH1 0x1F NOT PUSH1 0x1F DUP4 ADD AND SWAP1 POP SWAP2 SWAP1 POP JUMP JUMPDEST PUSH32 0x4E487B7100000000000000000000000000000000000000000000000000000000 PUSH0 MSTORE PUSH1 0x41 PUSH1 0x4 MSTORE PUSH1 0x24 PUSH0 REVERT JUMPDEST PUSH2 0x18A DUP3 PUSH2 0x144 JUMP JUMPDEST DUP2 ADD DUP2 DUP2 LT PUSH8 0xFFFFFFFFFFFFFFFF DUP3 GT OR ISZERO PUSH2 0x1A9 JUMPI PUSH2 0x1A8 PUSH2 0x154 JUMP JUMPDEST JUMPDEST DUP1 PUSH1 0x40 MSTORE POP POP POP JUMP JUMPDEST PUSH0 PUSH2 0x1BB PUSH2 0x12B JUMP JUMPDEST SWAP1 POP PUSH2 0x1C7 DUP3 DUP3 PUSH2 0x181 JUMP JUMPDEST SWAP2 SWAP1 POP JUMP JUMPDEST PUSH0 PUSH8 0xFFFFFFFFFFFFFFFF DUP3 GT ISZERO PUSH2 0x1E6 JUMPI PUSH2 0x1E5 PUSH2 0x154 JUMP JUMPDEST JUMPDEST PUSH2 0x1EF DUP3 PUSH2 0x144 JUMP JUMPDEST SWAP1 POP PUSH1 0x20 DUP2 ADD SWAP1 POP SWAP2 SWAP1 POP JUMP JUMPDEST DUP3 DUP2 DUP4 MCOPY PUSH0 DUP4 DUP4 ADD MSTORE POP POP POP JUMP JUMPDEST PUSH0 PUSH2 0x21C PUSH2 0x217 DUP5 PUSH2 0x1CC JUMP JUMPDEST PUSH2 0x1B2 JUMP JUMPDEST SWAP1 POP DUP3 DUP2 MSTORE PUSH1 0x20 DUP2 ADD DUP5 DUP5 DUP5 ADD GT ISZERO PUSH2 0x238 JUMPI PUSH2 0x237 PUSH2 0x140 JUMP JUMPDEST JUMPDEST PUSH2 0x243 DUP5 DUP3 DUP6 PUSH2 0x1FC JUMP JUMPDEST POP SWAP4 SWAP3 POP POP POP JUMP JUMPDEST PUSH0 DUP3 PUSH1 0x1F DUP4 ADD SLT PUSH2 0x25F JUMPI PUSH2 0x25E PUSH2 0x13C JUMP JUMPDEST JUMPDEST DUP2 MLOAD PUSH2 0x26F DUP5 DUP3 PUSH1 0x20 DUP7 ADD PUSH2 0x20A JUMP JUMPDEST SWAP2 POP POP SWAP3 SWAP2 POP POP JUMP JUMPDEST PUSH0 DUP2 SWAP1 POP SWAP2 SWAP1 POP JUMP JUMPDEST PUSH2 0x28A DUP2 PUSH2 0x278 JUMP JUMPDEST DUP2 EQ PUSH2 0x294 JUMPI PUSH0 DUP1 REVERT JUMPDEST POP JUMP JUMPDEST PUSH0 DUP2 MLOAD SWAP1 POP PUSH2 0x2A5 DUP2 PUSH2 0x281 JUMP JUMPDEST SWAP3 SWAP2 POP POP JUMP JUMPDEST PUSH0 DUP1 PUSH0 DUP1 PUSH1 0x80 DUP6 DUP8 SUB SLT ISZERO PUSH2 0x2C3 JUMPI PUSH2 0x2C2 PUSH2 0x134 JUMP JUMPDEST JUMPDEST PUSH0 DUP6 ADD MLOAD PUSH8 0xFFFFFFFFFFFFFFFF DUP2 GT ISZERO PUSH2 0x2E0 JUMPI PUSH2 0x2DF PUSH2 0x138 JUMP JUMPDEST JUMPDEST PUSH2 0x2EC DUP8 DUP3 DUP9 ADD PUSH2 0x24B JUMP JUMPDEST SWAP5 POP POP PUSH1 0x20 DUP6 ADD MLOAD PUSH8 0xFFFFFFFFFFFFFFFF DUP2 GT ISZERO PUSH2 0x30D JUMPI PUSH2 0x30C PUSH2 0x138 JUMP JUMPDEST JUMPDEST PUSH2 0x319 DUP8 DUP3 DUP9 ADD PUSH2 0x24B JUMP JUMPDEST SWAP4 POP POP PUSH1 0x40 PUSH2 0x32A DUP8 DUP3 DUP9 ADD PUSH2 0x297 JUMP JUMPDEST SWAP3 POP POP PUSH1 0x60 PUSH2 0x33B DUP8 DUP3 DUP9 ADD PUSH2 0x297 JUMP JUMPDEST SWAP2 POP POP SWAP3 SWAP6 SWAP2 SWAP5 POP SWAP3 POP JUMP JUMPDEST PUSH0 DUP2 MLOAD SWAP1 POP SWAP2 SWAP1 POP JUMP JUMPDEST PUSH32 0x4E487B7100000000000000000000000000000000000000000000000000000000 PUSH0 MSTORE PUSH1 0x22 PUSH1 0x4 MSTORE PUSH1 0x24 PUSH0 REVERT JUMPDEST PUSH0 PUSH1 0x2 DUP3 DIV SWAP1 POP PUSH1 0x1 DUP3 AND DUP1 PUSH2 0x395 JUMPI PUSH1 0x7F DUP3 AND SWAP2 POP JUMPDEST PUSH1 0x20 DUP3 LT DUP2 SUB PUSH2 0x3A8 JUMPI PUSH2 0x3A7 PUSH2 0x351 JUMP JUMPDEST JUMPDEST POP SWAP2 SWAP1 POP JUMP JUMPDEST PUSH0 DUP2 SWAP1 POP DUP2 PUSH0 MSTORE PUSH1 0x20 PUSH0 KECCAK256 SWAP1 POP SWAP2 SWAP1 POP JUMP JUMPDEST PUSH0 PUSH1 0x20 PUSH1 0x1F DUP4 ADD DIV SWAP1 POP SWAP2 SWAP1 POP JUMP JUMPDEST PUSH0 DUP3 DUP3 SHL SWAP1 POP SWAP3 SWAP2 POP POP JUMP JUMPDEST PUSH0 PUSH1 0x8 DUP4 MUL PUSH2 0x40A PUSH32 0xFFFFFFFFFFFFFFFFFFFFFFFFFFFFFFFFFFFFFFFFFFFFFFFFFFFFFFFFFFFFFFFF DUP3 PUSH2 0x3CF JUMP JUMPDEST PUSH2 0x414 DUP7 DUP4 PUSH2 0x3CF JUMP JUMPDEST SWAP6 POP DUP1 NOT DUP5 AND SWAP4 POP DUP1 DUP7 AND DUP5 OR SWAP3 POP POP POP SWAP4 SWAP3 POP POP POP JUMP JUMPDEST PUSH0 DUP2 SWAP1 POP SWAP2 SWAP1 POP JUMP JUMPDEST PUSH0 PUSH2 0x44F PUSH2 0x44A PUSH2 0x445 DUP5 PUSH2 0x278 JUMP JUMPDEST PUSH2 0x42C JUMP JUMPDEST PUSH2 0x278 JUMP JUMPDEST SWAP1 POP SWAP2 SWAP1 POP JUMP JUMPDEST PUSH0 DUP2 SWAP1 POP SWAP2 SWAP1 POP JUMP JUMPDEST PUSH2 0x468 DUP4 PUSH2 0x435 JUMP JUMPDEST PUSH2 0x47C PUSH2 0x474 DUP3 PUSH2 0x456 JUMP JUMPDEST DUP5 DUP5 SLOAD PUSH2 0x3DB JUMP JUMPDEST DUP3 SSTORE POP POP POP POP JUMP JUMPDEST PUSH0 SWAP1 JUMP JUMPDEST PUSH2 0x490 PUSH2 0x484 JUMP JUMPDEST PUSH2 0x49B DUP2 DUP5 DUP5 PUSH2 0x45F JUMP JUMPDEST POP POP POP JUMP JUMPDEST JUMPDEST DUP2 DUP2 LT ISZERO PUSH2 0x4BE JUMPI PUSH2 0x4B3 PUSH0 DUP3 PUSH2 0x488 JUMP JUMPDEST PUSH1 0x1 DUP2 ADD SWAP1 POP PUSH2 0x4A1 JUMP JUMPDEST POP POP JUMP JUMPDEST PUSH1 0x1F DUP3 GT ISZERO PUSH2 0x503 JUMPI PUSH2 0x4D4 DUP2 PUSH2 0x3AE JUMP JUMPDEST PUSH2 0x4DD DUP5 PUSH2 0x3C0 JUMP JUMPDEST DUP2 ADD PUSH1 0x20 DUP6 LT ISZERO PUSH2 0x4EC JUMPI DUP2 SWAP1 POP JUMPDEST PUSH2 0x500 PUSH2 0x4F8 DUP6 PUSH2 0x3C0 JUMP JUMPDEST DUP4 ADD DUP3 PUSH2 0x4A0 JUMP JUMPDEST POP POP JUMPDEST POP POP POP JUMP JUMPDEST PUSH0 DUP3 DUP3 SHR SWAP1 POP SWAP3 SWAP2 POP POP JUMP JUMPDEST PUSH0 PUSH2 0x523 PUSH0 NOT DUP5 PUSH1 0x8 MUL PUSH2 0x508 JUMP JUMPDEST NOT DUP1 DUP4 AND SWAP2 POP POP SWAP3 SWAP2 POP POP JUMP JUMPDEST PUSH0 PUSH2 0x53B DUP4 DUP4 PUSH2 0x514 JUMP JUMPDEST SWAP2 POP DUP3 PUSH1 0x2 MUL DUP3 OR SWAP1 POP SWAP3 SWAP2 POP POP JUMP JUMPDEST PUSH2 0x554 DUP3 PUSH2 0x347 JUMP JUMPDEST PUSH8 0xFFFFFFFFFFFFFFFF DUP2 GT ISZERO PUSH2 0x56D JUMPI PUSH2 0x56C PUSH2 0x154 JUMP JUMPDEST JUMPDEST PUSH2 0x577 DUP3 SLOAD PUSH2 0x37E JUMP JUMPDEST PUSH2 0x582 DUP3 DUP3 DUP6 PUSH2 0x4C2 JUMP JUMPDEST PUSH0 PUSH1 0x20 SWAP1 POP PUSH1 0x1F DUP4 GT PUSH1 0x1 DUP2 EQ PUSH2 0x5B3 JUMPI PUSH0 DUP5 ISZERO PUSH2 0x5A1 JUMPI DUP3 DUP8 ADD MLOAD SWAP1 POP JUMPDEST PUSH2 0x5AB DUP6 DUP3 PUSH2 0x530 JUMP JUMPDEST DUP7 SSTORE POP PUSH2 0x612 JUMP JUMPDEST PUSH1 0x1F NOT DUP5 AND PUSH2 0x5C1 DUP7 PUSH2 0x3AE JUMP JUMPDEST PUSH0 JUMPDEST DUP3 DUP2 LT ISZERO PUSH2 0x5E8 JUMPI DUP5 DUP10 ADD MLOAD DUP3 SSTORE PUSH1 0x1 DUP3 ADD SWAP2 POP PUSH1 0x20 DUP6 ADD SWAP5 POP PUSH1 0x20 DUP2 ADD SWAP1 POP PUSH2 0x5C3 JUMP JUMPDEST DUP7 DUP4 LT ISZERO PUSH2 0x605 JUMPI DUP5 DUP10 ADD MLOAD PUSH2 0x601 PUSH1 0x1F DUP10 AND DUP3 PUSH2 0x514 JUMP JUMPDEST DUP4 SSTORE POP JUMPDEST PUSH1 0x1 PUSH1 0x2 DUP9 MUL ADD DUP9 SSTORE POP POP POP JUMPDEST POP POP POP POP POP POP JUMP JUMPDEST PUSH32 0x4E487B7100000000000000000000000000000000000000000000000000000000 PUSH0 MSTORE PUSH1 0x11 PUSH1 0x4 MSTORE PUSH1 0x24 PUSH0 REVERT JUMPDEST PUSH0 DUP2 PUSH1 0x1 SHR SWAP1 POP SWAP2 SWAP1 POP JUMP JUMPDEST PUSH0 DUP1 DUP3 SWAP2 POP DUP4 SWAP1 POP JUMPDEST PUSH1 0x1 DUP6 GT ISZERO PUSH2 0x69C JUMPI DUP1 DUP7 DIV DUP2 GT ISZERO PUSH2 0x678 JUMPI PUSH2 0x677 PUSH2 0x61A JUMP JUMPDEST JUMPDEST PUSH1 0x1 DUP6 AND ISZERO PUSH2 0x687 JUMPI DUP1 DUP3 MUL SWAP2 POP JUMPDEST DUP1 DUP2 MUL SWAP1 POP PUSH2 0x695 DUP6 PUSH2 0x647 JUMP JUMPDEST SWAP5 POP PUSH2 0x65C JUMP JUMPDEST SWAP5 POP SWAP5 SWAP3 POP POP POP JUMP JUMPDEST PUSH0 DUP3 PUSH2 0x6B4 JUMPI PUSH1 0x1 SWAP1 POP PUSH2 0x76F JUMP JUMPDEST DUP2 PUSH2 0x6C1 JUMPI PUSH0 SWAP1 POP PUSH2 0x76F JUMP JUMPDEST DUP2 PUSH1 0x1 DUP2 EQ PUSH2 0x6D7 JUMPI PUSH1 0x2 DUP2 EQ PUSH2 0x6E1 JUMPI PUSH2 0x710 JUMP JUMPDEST PUSH1 0x1 SWAP2 POP POP PUSH2 0x76F JUMP JUMPDEST PUSH1 0xFF DUP5 GT ISZERO PUSH2 0x6F3 JUMPI PUSH2 0x6F2 PUSH2 0x61A JUMP JUMPDEST JUMPDEST DUP4 PUSH1 0x2 EXP SWAP2 POP DUP5 DUP3 GT ISZERO PUSH2 0x70A JUMPI PUSH2 0x709 PUSH2 0x61A JUMP JUMPDEST JUMPDEST POP PUSH2 0x76F JUMP JUMPDEST POP PUSH1 0x20 DUP4 LT PUSH2 0x133 DUP4 LT AND PUSH1 0x4E DUP5 LT PUSH1 0xB DUP5 LT AND OR ISZERO PUSH2 0x745 JUMPI DUP3 DUP3 EXP SWAP1 POP DUP4 DUP2 GT ISZERO PUSH2 0x740 JUMPI PUSH2 0x73F PUSH2 0x61A JUMP JUMPDEST JUMPDEST PUSH2 0x76F JUMP JUMPDEST PUSH2 0x752 DUP5 DUP5 DUP5 PUSH1 0x1 PUSH2 0x653 JUMP JUMPDEST SWAP3 POP SWAP1 POP DUP2 DUP5 DIV DUP2 GT ISZERO PUSH2 0x769 JUMPI PUSH2 0x768 PUSH2 0x61A JUMP JUMPDEST JUMPDEST DUP2 DUP2 MUL SWAP1 POP JUMPDEST SWAP4 SWAP3 POP POP POP JUMP JUMPDEST PUSH0 PUSH2 0x780 DUP3 PUSH2 0x278 JUMP JUMPDEST SWAP2 POP PUSH2 0x78B DUP4 PUSH2 0x278 JUMP JUMPDEST SWAP3 POP PUSH2 0x7B8 PUSH32 0xFFFFFFFFFFFFFFFFFFFFFFFFFFFFFFFFFFFFFFFFFFFFFFFFFFFFFFFFFFFFFFFF DUP5 DUP5 PUSH2 0x6A5 JUMP JUMPDEST SWAP1 POP SWAP3 SWAP2 POP POP JUMP JUMPDEST PUSH0 PUSH2 0x7CA DUP3 PUSH2 0x278 JUMP JUMPDEST SWAP2 POP PUSH2 0x7D5 DUP4 PUSH2 0x278 JUMP JUMPDEST SWAP3 POP DUP3 DUP3 MUL PUSH2 0x7E3 DUP2 PUSH2 0x278 JUMP JUMPDEST SWAP2 POP DUP3 DUP3 DIV DUP5 EQ DUP4 ISZERO OR PUSH2 0x7FA JUMPI PUSH2 0x7F9 PUSH2 0x61A JUMP JUMPDEST JUMPDEST POP SWAP3 SWAP2 POP POP JUMP JUMPDEST PUSH2 0x80A DUP2 PUSH2 0x278 JUMP JUMPDEST DUP3 MSTORE POP POP JUMP JUMPDEST PUSH0 PUSH1 0x20 DUP3 ADD SWAP1 POP PUSH2 0x823 PUSH0 DUP4 ADD DUP5 PUSH2 0x801 JUMP JUMPDEST SWAP3 SWAP2 POP POP JUMP JUMPDEST PUSH2 0xFAB DUP1 PUSH2 0x836 PUSH0 CODECOPY PUSH0 RETURN INVALID PUSH1 0x80 PUSH1 0x40 MSTORE CALLVALUE DUP1 ISZERO PUSH2 0xF JUMPI PUSH0 DUP1 REVERT JUMPDEST POP PUSH1 0x4 CALLDATASIZE LT PUSH2 0x91 JUMPI PUSH0 CALLDATALOAD PUSH1 0xE0 SHR DUP1 PUSH4 0x6C02A931 GT PUSH2 0x64 JUMPI DUP1 PUSH4 0x6C02A931 EQ PUSH2 0x131 JUMPI DUP1 PUSH4 0x70A08231 EQ PUSH2 0x14F JUMPI DUP1 PUSH4 0x7B61C320 EQ PUSH2 0x17F JUMPI DUP1 PUSH4 0xA9059CBB EQ PUSH2 0x19D JUMPI DUP1 PUSH4 0xDD62ED3E EQ PUSH2 0x1CD JUMPI PUSH2 0x91 JUMP JUMPDEST DUP1 PUSH4 0x95EA7B3 EQ PUSH2 0x95 JUMPI DUP1 PUSH4 0x18160DDD EQ PUSH2 0xC5 JUMPI DUP1 PUSH4 0x23B872DD EQ PUSH2 0xE3 JUMPI DUP1 PUSH4 0x5CAED029 EQ PUSH2 0x113 JUMPI JUMPDEST PUSH0 DUP1 REVERT JUMPDEST PUSH2 0xAF PUSH1 0x4 DUP1 CALLDATASIZE SUB DUP2 ADD SWAP1 PUSH2 0xAA SWAP2 SWAP1 PUSH2 0xA5E JUMP JUMPDEST PUSH2 0x1FD JUMP JUMPDEST PUSH1 0x40 MLOAD PUSH2 0xBC SWAP2 SWAP1 PUSH2 0xAB6 JUMP JUMPDEST PUSH1 0x40 MLOAD DUP1 SWAP2 SUB SWAP1 RETURN JUMPDEST PUSH2 0xCD PUSH2 0x213 JUMP JUMPDEST PUSH1 0x40 MLOAD PUSH2 0xDA SWAP2 SWAP1 PUSH2 0xADE JUMP JUMPDEST PUSH1 0x40 MLOAD DUP1 SWAP2 SUB SWAP1 RETURN JUMPDEST PUSH2 0xFD PUSH1 0x4 DUP1 CALLDATASIZE SUB DUP2 ADD SWAP1 PUSH2 0xF8 SWAP2 SWAP1 PUSH2 0xAF7 JUMP JUMPDEST PUSH2 0x21C JUMP JUMPDEST PUSH1 0x40 MLOAD PUSH2 0x10A SWAP2 SWAP1 PUSH2 0xAB6 JUMP JUMPDEST PUSH1 0x40 MLOAD DUP1 SWAP2 SUB SWAP1 RETURN JUMPDEST PUSH2 0x11B PUSH2 0x2FE JUMP JUMPDEST PUSH1 0x40 MLOAD PUSH2 0x128 SWAP2 SWAP1 PUSH2 0xADE JUMP JUMPDEST PUSH1 0x40 MLOAD DUP1 SWAP2 SUB SWAP1 RETURN JUMPDEST PUSH2 0x139 PUSH2 0x304 JUMP JUMPDEST PUSH1 0x40 MLOAD PUSH2 0x146 SWAP2 SWAP1 PUSH2 0xBB7 JUMP JUMPDEST PUSH1 0x40 MLOAD DUP1 SWAP2 SUB SWAP1 RETURN JUMPDEST PUSH2 0x169 PUSH1 0x4 DUP1 CALLDATASIZE SUB DUP2 ADD SWAP1 PUSH2 0x164 SWAP2 SWAP1 PUSH2 0xBD7 JUMP JUMPDEST PUSH2 0x38F JUMP JUMPDEST PUSH1 0x40 MLOAD PUSH2 0x176 SWAP2 SWAP1 PUSH2 0xADE JUMP JUMPDEST PUSH1 0x40 MLOAD DUP1 SWAP2 SUB SWAP1 RETURN JUMPDEST PUSH2 0x187 PUSH2 0x3D5 JUMP JUMPDEST PUSH1 0x40 MLOAD PUSH2 0x194 SWAP2 SWAP1 PUSH2 0xBB7 JUMP JUMPDEST PUSH1 0x40 MLOAD DUP1 SWAP2 SUB SWAP1 RETURN JUMPDEST PUSH2 0x1B7 PUSH1 0x4 DUP1 CALLDATASIZE SUB DUP2 ADD SWAP1 PUSH2 0x1B2 SWAP2 SWAP1 PUSH2 0xA5E JUMP JUMPDEST PUSH2 0x461 JUMP JUMPDEST PUSH1 0x40 MLOAD PUSH2 0x1C4 SWAP2 SWAP1 PUSH2 0xAB6 JUMP JUMPDEST PUSH1 0x40 MLOAD DUP1 SWAP2 SUB SWAP1 RETURN JUMPDEST PUSH2 0x1E7 PUSH1 0x4 DUP1 CALLDATASIZE SUB DUP2 ADD SWAP1 PUSH2 0x1E2 SWAP2 SWAP1 PUSH2 0xC02 JUMP JUMPDEST PUSH2 0x477 JUMP JUMPDEST PUSH1 0x40 MLOAD PUSH2 0x1F4 SWAP2 SWAP1 PUSH2 0xADE JUMP JUMPDEST PUSH1 0x40 MLOAD DUP1 SWAP2 SUB SWAP1 RETURN JUMPDEST PUSH0 PUSH2 0x209 CALLER DUP5 DUP5 PUSH2 0x5D5 JUMP JUMPDEST PUSH1 0x1 SWAP1 POP SWAP3 SWAP2 POP POP JUMP JUMPDEST PUSH0 PUSH1 0x3 SLOAD SWAP1 POP SWAP1 JUMP JUMPDEST PUSH0 PUSH2 0x228 DUP5 DUP5 DUP5 PUSH2 0x731 JUMP JUMPDEST PUSH0 PUSH1 0x5 PUSH0 DUP7 PUSH20 0xFFFFFFFFFFFFFFFFFFFFFFFFFFFFFFFFFFFFFFFF AND PUSH20 0xFFFFFFFFFFFFFFFFFFFFFFFFFFFFFFFFFFFFFFFF AND DUP2 MSTORE PUSH1 0x20 ADD SWAP1 DUP2 MSTORE PUSH1 0x20 ADD PUSH0 KECCAK256 PUSH0 CALLER PUSH20 0xFFFFFFFFFFFFFFFFFFFFFFFFFFFFFFFFFFFFFFFF AND PUSH20 0xFFFFFFFFFFFFFFFFFFFFFFFFFFFFFFFFFFFFFFFF AND DUP2 MSTORE PUSH1 0x20 ADD SWAP1 DUP2 MSTORE PUSH1 0x20 ADD PUSH0 KECCAK256 SLOAD SWAP1 POP DUP3 DUP2 LT ISZERO PUSH2 0x2E7 JUMPI PUSH1 0x40 MLOAD PUSH32 0x8C379A000000000000000000000000000000000000000000000000000000000 DUP2 MSTORE PUSH1 0x4 ADD PUSH2 0x2DE SWAP1 PUSH2 0xC8A JUMP JUMPDEST PUSH1 0x40 MLOAD DUP1 SWAP2 SUB SWAP1 REVERT JUMPDEST PUSH2 0x2F2 DUP6 CALLER DUP6 PUSH2 0x5D5 JUMP JUMPDEST PUSH1 0x1 SWAP2 POP POP SWAP4 SWAP3 POP POP POP JUMP JUMPDEST PUSH1 0x2 SLOAD DUP2 JUMP JUMPDEST PUSH0 DUP1 SLOAD PUSH2 0x310 SWAP1 PUSH2 0xCD5 JUMP JUMPDEST DUP1 PUSH1 0x1F ADD PUSH1 0x20 DUP1 SWAP2 DIV MUL PUSH1 0x20 ADD PUSH1 0x40 MLOAD SWAP1 DUP2 ADD PUSH1 0x40 MSTORE DUP1 SWAP3 SWAP2 SWAP1 DUP2 DUP2 MSTORE PUSH1 0x20 ADD DUP3 DUP1 SLOAD PUSH2 0x33C SWAP1 PUSH2 0xCD5 JUMP JUMPDEST DUP1 ISZERO PUSH2 0x387 JUMPI DUP1 PUSH1 0x1F LT PUSH2 0x35E JUMPI PUSH2 0x100 DUP1 DUP4 SLOAD DIV MUL DUP4 MSTORE SWAP2 PUSH1 0x20 ADD SWAP2 PUSH2 0x387 JUMP JUMPDEST DUP3 ADD SWAP2 SWAP1 PUSH0 MSTORE PUSH1 0x20 PUSH0 KECCAK256 SWAP1 JUMPDEST DUP2 SLOAD DUP2 MSTORE SWAP1 PUSH1 0x1 ADD SWAP1 PUSH1 0x20 ADD DUP1 DUP4 GT PUSH2 0x36A JUMPI DUP3 SWAP1 SUB PUSH1 0x1F AND DUP3 ADD SWAP2 JUMPDEST POP POP POP POP POP DUP2 JUMP JUMPDEST PUSH0 PUSH1 0x4 PUSH0 DUP4 PUSH20 0xFFFFFFFFFFFFFFFFFFFFFFFFFFFFFFFFFFFFFFFF AND PUSH20 0xFFFFFFFFFFFFFFFFFFFFFFFFFFFFFFFFFFFFFFFF AND DUP2 MSTORE PUSH1 0x20 ADD SWAP1 DUP2 MSTORE PUSH1 0x20 ADD PUSH0 KECCAK256 SLOAD SWAP1 POP SWAP2 SWAP1 POP JUMP JUMPDEST PUSH1 0x1 DUP1 SLOAD PUSH2 0x3E2 SWAP1 PUSH2 0xCD5 JUMP JUMPDEST DUP1 PUSH1 0x1F ADD PUSH1 0x20 DUP1 SWAP2 DIV MUL PUSH1 0x20 ADD PUSH1 0x40 MLOAD SWAP1 DUP2 ADD PUSH1 0x40 MSTORE DUP1 SWAP3 SWAP2 SWAP1 DUP2 DUP2 MSTORE PUSH1 0x20 ADD DUP3 DUP1 SLOAD PUSH2 0x40E SWAP1 PUSH2 0xCD5 JUMP JUMPDEST DUP1 ISZERO PUSH2 0x459 JUMPI DUP1 PUSH1 0x1F LT PUSH2 0x430 JUMPI PUSH2 0x100 DUP1 DUP4 SLOAD DIV MUL DUP4 MSTORE SWAP2 PUSH1 0x20 ADD SWAP2 PUSH2 0x459 JUMP JUMPDEST DUP3 ADD SWAP2 SWAP1 PUSH0 MSTORE PUSH1 0x20 PUSH0 KECCAK256 SWAP1 JUMPDEST DUP2 SLOAD DUP2 MSTORE SWAP1 PUSH1 0x1 ADD SWAP1 PUSH1 0x20 ADD DUP1 DUP4 GT PUSH2 0x43C JUMPI DUP3 SWAP1 SUB PUSH1 0x1F AND DUP3 ADD SWAP2 JUMPDEST POP POP POP POP POP DUP2 JUMP JUMPDEST PUSH0 PUSH2 0x46D CALLER DUP5 DUP5 PUSH2 0x731 JUMP JUMPDEST PUSH1 0x1 SWAP1 POP SWAP3 SWAP2 POP POP JUMP JUMPDEST PUSH0 DUP1 PUSH20 0xFFFFFFFFFFFFFFFFFFFFFFFFFFFFFFFFFFFFFFFF AND DUP4 PUSH20 0xFFFFFFFFFFFFFFFFFFFFFFFFFFFFFFFFFFFFFFFF AND SUB PUSH2 0x4E6 JUMPI PUSH1 0x40 MLOAD PUSH32 0x8C379A000000000000000000000000000000000000000000000000000000000 DUP2 MSTORE PUSH1 0x4 ADD PUSH2 0x4DD SWAP1 PUSH2 0xD4F JUMP JUMPDEST PUSH1 0x40 MLOAD DUP1 SWAP2 SUB SWAP1 REVERT JUMPDEST PUSH0 PUSH20 0xFFFFFFFFFFFFFFFFFFFFFFFFFFFFFFFFFFFFFFFF AND DUP3 PUSH20 0xFFFFFFFFFFFFFFFFFFFFFFFFFFFFFFFFFFFFFFFF AND SUB PUSH2 0x554 JUMPI PUSH1 0x40 MLOAD PUSH32 0x8C379A000000000000000000000000000000000000000000000000000000000 DUP2 MSTORE PUSH1 0x4 ADD PUSH2 0x54B SWAP1 PUSH2 0xDB7 JUMP JUMPDEST PUSH1 0x40 MLOAD DUP1 SWAP2 SUB SWAP1 REVERT JUMPDEST PUSH1 0x5 PUSH0 DUP5 PUSH20 0xFFFFFFFFFFFFFFFFFFFFFFFFFFFFFFFFFFFFFFFF AND PUSH20 0xFFFFFFFFFFFFFFFFFFFFFFFFFFFFFFFFFFFFFFFF AND DUP2 MSTORE PUSH1 0x20 ADD SWAP1 DUP2 MSTORE PUSH1 0x20 ADD PUSH0 KECCAK256 PUSH0 DUP4 PUSH20 0xFFFFFFFFFFFFFFFFFFFFFFFFFFFFFFFFFFFFFFFF AND PUSH20 0xFFFFFFFFFFFFFFFFFFFFFFFFFFFFFFFFFFFFFFFF AND DUP2 MSTORE PUSH1 0x20 ADD SWAP1 DUP2 MSTORE PUSH1 0x20 ADD PUSH0 KECCAK256 SLOAD SWAP1 POP SWAP3 SWAP2 POP POP JUMP JUMPDEST PUSH0 DUP2 GT PUSH2 0x617 JUMPI PUSH1 0x40 MLOAD PUSH32 0x8C379A000000000000000000000000000000000000000000000000000000000 DUP2 MSTORE PUSH1 0x4 ADD PUSH2 0x60E SWAP1 PUSH2 0xE1F JUMP JUMPDEST PUSH1 0x40 MLOAD DUP1 SWAP2 SUB SWAP1 REVERT JUMPDEST PUSH0 PUSH20 0xFFFFFFFFFFFFFFFFFFFFFFFFFFFFFFFFFFFFFFFF AND DUP3 PUSH20 0xFFFFFFFFFFFFFFFFFFFFFFFFFFFFFFFFFFFFFFFF AND SUB PUSH2 0x685 JUMPI PUSH1 0x40 MLOAD PUSH32 0x8C379A000000000000000000000000000000000000000000000000000000000 DUP2 MSTORE PUSH1 0x4 ADD PUSH2 0x67C SWAP1 PUSH2 0xDB7 JUMP JUMPDEST PUSH1 0x40 MLOAD DUP1 SWAP2 SUB SWAP1 REVERT JUMPDEST DUP1 PUSH1 0x4 PUSH0 DUP5 PUSH20 0xFFFFFFFFFFFFFFFFFFFFFFFFFFFFFFFFFFFFFFFF AND PUSH20 0xFFFFFFFFFFFFFFFFFFFFFFFFFFFFFFFFFFFFFFFF AND DUP2 MSTORE PUSH1 0x20 ADD SWAP1 DUP2 MSTORE PUSH1 0x20 ADD PUSH0 KECCAK256 DUP2 SWAP1 SSTORE POP DUP2 PUSH20 0xFFFFFFFFFFFFFFFFFFFFFFFFFFFFFFFFFFFFFFFF AND DUP4 PUSH20 0xFFFFFFFFFFFFFFFFFFFFFFFFFFFFFFFFFFFFFFFF AND PUSH32 0x8C5BE1E5EBEC7D5BD14F71427D1E84F3DD0314C0F7B2291E5B200AC8C7C3B925 DUP4 PUSH1 0x40 MLOAD PUSH2 0x724 SWAP2 SWAP1 PUSH2 0xADE JUMP JUMPDEST PUSH1 0x40 MLOAD DUP1 SWAP2 SUB SWAP1 LOG3 POP POP POP JUMP JUMPDEST PUSH0 DUP2 GT PUSH2 0x773 JUMPI PUSH1 0x40 MLOAD PUSH32 0x8C379A000000000000000000000000000000000000000000000000000000000 DUP2 MSTORE PUSH1 0x4 ADD PUSH2 0x76A SWAP1 PUSH2 0xE1F JUMP JUMPDEST PUSH1 0x40 MLOAD DUP1 SWAP2 SUB SWAP1 REVERT JUMPDEST DUP2 PUSH20 0xFFFFFFFFFFFFFFFFFFFFFFFFFFFFFFFFFFFFFFFF AND DUP4 PUSH20 0xFFFFFFFFFFFFFFFFFFFFFFFFFFFFFFFFFFFFFFFF AND SUB PUSH2 0x7E1 JUMPI PUSH1 0x40 MLOAD PUSH32 0x8C379A000000000000000000000000000000000000000000000000000000000 DUP2 MSTORE PUSH1 0x4 ADD PUSH2 0x7D8 SWAP1 PUSH2 0xE87 JUMP JUMPDEST PUSH1 0x40 MLOAD DUP1 SWAP2 SUB SWAP1 REVERT JUMPDEST PUSH0 PUSH20 0xFFFFFFFFFFFFFFFFFFFFFFFFFFFFFFFFFFFFFFFF AND DUP3 PUSH20 0xFFFFFFFFFFFFFFFFFFFFFFFFFFFFFFFFFFFFFFFF AND SUB PUSH2 0x84F JUMPI PUSH1 0x40 MLOAD PUSH32 0x8C379A000000000000000000000000000000000000000000000000000000000 DUP2 MSTORE PUSH1 0x4 ADD PUSH2 0x846 SWAP1 PUSH2 0xEEF JUMP JUMPDEST PUSH1 0x40 MLOAD DUP1 SWAP2 SUB SWAP1 REVERT JUMPDEST DUP1 PUSH1 0x4 PUSH0 CALLER PUSH20 0xFFFFFFFFFFFFFFFFFFFFFFFFFFFFFFFFFFFFFFFF AND PUSH20 0xFFFFFFFFFFFFFFFFFFFFFFFFFFFFFFFFFFFFFFFF AND DUP2 MSTORE PUSH1 0x20 ADD SWAP1 DUP2 MSTORE PUSH1 0x20 ADD PUSH0 KECCAK256 SLOAD LT ISZERO PUSH2 0x8CF JUMPI PUSH1 0x40 MLOAD PUSH32 0x8C379A000000000000000000000000000000000000000000000000000000000 DUP2 MSTORE PUSH1 0x4 ADD PUSH2 0x8C6 SWAP1 PUSH2 0xF57 JUMP JUMPDEST PUSH1 0x40 MLOAD DUP1 SWAP2 SUB SWAP1 REVERT JUMPDEST DUP1 PUSH1 0x4 PUSH0 DUP6 PUSH20 0xFFFFFFFFFFFFFFFFFFFFFFFFFFFFFFFFFFFFFFFF AND PUSH20 0xFFFFFFFFFFFFFFFFFFFFFFFFFFFFFFFFFFFFFFFF AND DUP2 MSTORE PUSH1 0x20 ADD SWAP1 DUP2 MSTORE PUSH1 0x20 ADD PUSH0 KECCAK256 PUSH0 DUP3 DUP3 SLOAD SUB SWAP3 POP POP DUP2 SWAP1 SSTORE POP DUP1 PUSH1 0x4 PUSH0 DUP5 PUSH20 0xFFFFFFFFFFFFFFFFFFFFFFFFFFFFFFFFFFFFFFFF AND PUSH20 0xFFFFFFFFFFFFFFFFFFFFFFFFFFFFFFFFFFFFFFFF AND DUP2 MSTORE PUSH1 0x20 ADD SWAP1 DUP2 MSTORE PUSH1 0x20 ADD PUSH0 KECCAK256 PUSH0 DUP3 DUP3 SLOAD ADD SWAP3 POP POP DUP2 SWAP1 SSTORE POP DUP2 PUSH20 0xFFFFFFFFFFFFFFFFFFFFFFFFFFFFFFFFFFFFFFFF AND CALLER PUSH20 0xFFFFFFFFFFFFFFFFFFFFFFFFFFFFFFFFFFFFFFFF AND PUSH32 0xDDF252AD1BE2C89B69C2B068FC378DAA952BA7F163C4A11628F55A4DF523B3EF DUP4 PUSH1 0x40 MLOAD PUSH2 0x9C0 SWAP2 SWAP1 PUSH2 0xADE JUMP JUMPDEST PUSH1 0x40 MLOAD DUP1 SWAP2 SUB SWAP1 LOG3 POP POP POP JUMP JUMPDEST PUSH0 DUP1 REVERT JUMPDEST PUSH0 PUSH20 0xFFFFFFFFFFFFFFFFFFFFFFFFFFFFFFFFFFFFFFFF DUP3 AND SWAP1 POP SWAP2 SWAP1 POP JUMP JUMPDEST PUSH0 PUSH2 0x9FA DUP3 PUSH2 0x9D1 JUMP JUMPDEST SWAP1 POP SWAP2 SWAP1 POP JUMP JUMPDEST PUSH2 0xA0A DUP2 PUSH2 0x9F0 JUMP JUMPDEST DUP2 EQ PUSH2 0xA14 JUMPI PUSH0 DUP1 REVERT JUMPDEST POP JUMP JUMPDEST PUSH0 DUP2 CALLDATALOAD SWAP1 POP PUSH2 0xA25 DUP2 PUSH2 0xA01 JUMP JUMPDEST SWAP3 SWAP2 POP POP JUMP JUMPDEST PUSH0 DUP2 SWAP1 POP SWAP2 SWAP1 POP JUMP JUMPDEST PUSH2 0xA3D DUP2 PUSH2 0xA2B JUMP JUMPDEST DUP2 EQ PUSH2 0xA47 JUMPI PUSH0 DUP1 REVERT JUMPDEST POP JUMP JUMPDEST PUSH0 DUP2 CALLDATALOAD SWAP1 POP PUSH2 0xA58 DUP2 PUSH2 0xA34 JUMP JUMPDEST SWAP3 SWAP2 POP POP JUMP JUMPDEST PUSH0 DUP1 PUSH1 0x40 DUP4 DUP6 SUB SLT ISZERO PUSH2 0xA74 JUMPI PUSH2 0xA73 PUSH2 0x9CD JUMP JUMPDEST JUMPDEST PUSH0 PUSH2 0xA81 DUP6 DUP3 DUP7 ADD PUSH2 0xA17 JUMP JUMPDEST SWAP3 POP POP PUSH1 0x20 PUSH2 0xA92 DUP6 DUP3 DUP7 ADD PUSH2 0xA4A JUMP JUMPDEST SWAP2 POP POP SWAP3 POP SWAP3 SWAP1 POP JUMP JUMPDEST PUSH0 DUP2 ISZERO ISZERO SWAP1 POP SWAP2 SWAP1 POP JUMP JUMPDEST PUSH2 0xAB0 DUP2 PUSH2 0xA9C JUMP JUMPDEST DUP3 MSTORE POP POP JUMP JUMPDEST PUSH0 PUSH1 0x20 DUP3 ADD SWAP1 POP PUSH2 0xAC9 PUSH0 DUP4 ADD DUP5 PUSH2 0xAA7 JUMP JUMPDEST SWAP3 SWAP2 POP POP JUMP JUMPDEST PUSH2 0xAD8 DUP2 PUSH2 0xA2B JUMP JUMPDEST DUP3 MSTORE POP POP JUMP JUMPDEST PUSH0 PUSH1 0x20 DUP3 ADD SWAP1 POP PUSH2 0xAF1 PUSH0 DUP4 ADD DUP5 PUSH2 0xACF JUMP JUMPDEST SWAP3 SWAP2 POP POP JUMP JUMPDEST PUSH0 DUP1 PUSH0 PUSH1 0x60 DUP5 DUP7 SUB SLT ISZERO PUSH2 0xB0E JUMPI PUSH2 0xB0D PUSH2 0x9CD JUMP JUMPDEST JUMPDEST PUSH0 PUSH2 0xB1B DUP7 DUP3 DUP8 ADD PUSH2 0xA17 JUMP JUMPDEST SWAP4 POP POP PUSH1 0x20 PUSH2 0xB2C DUP7 DUP3 DUP8 ADD PUSH2 0xA17 JUMP JUMPDEST SWAP3 POP POP PUSH1 0x40 PUSH2 0xB3D DUP7 DUP3 DUP8 ADD PUSH2 0xA4A JUMP JUMPDEST SWAP2 POP POP SWAP3 POP SWAP3 POP SWAP3 JUMP JUMPDEST PUSH0 DUP2 MLOAD SWAP1 POP SWAP2 SWAP1 POP JUMP JUMPDEST PUSH0 DUP3 DUP3 MSTORE PUSH1 0x20 DUP3 ADD SWAP1 POP SWAP3 SWAP2 POP POP JUMP JUMPDEST DUP3 DUP2 DUP4 MCOPY PUSH0 DUP4 DUP4 ADD MSTORE POP POP POP JUMP JUMPDEST PUSH0 PUSH1 0x1F NOT PUSH1 0x1F DUP4 ADD AND SWAP1 POP SWAP2 SWAP1 POP JUMP JUMPDEST PUSH0 PUSH2 0xB89 DUP3 PUSH2 0xB47 JUMP JUMPDEST PUSH2 0xB93 DUP2 DUP6 PUSH2 0xB51 JUMP JUMPDEST SWAP4 POP PUSH2 0xBA3 DUP2 DUP6 PUSH1 0x20 DUP7 ADD PUSH2 0xB61 JUMP JUMPDEST PUSH2 0xBAC DUP2 PUSH2 0xB6F JUMP JUMPDEST DUP5 ADD SWAP2 POP POP SWAP3 SWAP2 POP POP JUMP JUMPDEST PUSH0 PUSH1 0x20 DUP3 ADD SWAP1 POP DUP2 DUP2 SUB PUSH0 DUP4 ADD MSTORE PUSH2 0xBCF DUP2 DUP5 PUSH2 0xB7F JUMP JUMPDEST SWAP1 POP SWAP3 SWAP2 POP POP JUMP JUMPDEST PUSH0 PUSH1 0x20 DUP3 DUP5 SUB SLT ISZERO PUSH2 0xBEC JUMPI PUSH2 0xBEB PUSH2 0x9CD JUMP JUMPDEST JUMPDEST PUSH0 PUSH2 0xBF9 DUP5 DUP3 DUP6 ADD PUSH2 0xA17 JUMP JUMPDEST SWAP2 POP POP SWAP3 SWAP2 POP POP JUMP JUMPDEST PUSH0 DUP1 PUSH1 0x40 DUP4 DUP6 SUB SLT ISZERO PUSH2 0xC18 JUMPI PUSH2 0xC17 PUSH2 0x9CD JUMP JUMPDEST JUMPDEST PUSH0 PUSH2 0xC25 DUP6 DUP3 DUP7 ADD PUSH2 0xA17 JUMP JUMPDEST SWAP3 POP POP PUSH1 0x20 PUSH2 0xC36 DUP6 DUP3 DUP7 ADD PUSH2 0xA17 JUMP JUMPDEST SWAP2 POP POP SWAP3 POP SWAP3 SWAP1 POP JUMP JUMPDEST PUSH32 0x496E73756666696369656E74207472616E7366657220616C6C6F77616E636500 PUSH0 DUP3 ADD MSTORE POP JUMP JUMPDEST PUSH0 PUSH2 0xC74 PUSH1 0x1F DUP4 PUSH2 0xB51 JUMP JUMPDEST SWAP2 POP PUSH2 0xC7F DUP3 PUSH2 0xC40 JUMP JUMPDEST PUSH1 0x20 DUP3 ADD SWAP1 POP SWAP2 SWAP1 POP JUMP JUMPDEST PUSH0 PUSH1 0x20 DUP3 ADD SWAP1 POP DUP2 DUP2 SUB PUSH0 DUP4 ADD MSTORE PUSH2 0xCA1 DUP2 PUSH2 0xC68 JUMP JUMPDEST SWAP1 POP SWAP2 SWAP1 POP JUMP JUMPDEST PUSH32 0x4E487B7100000000000000000000000000000000000000000000000000000000 PUSH0 MSTORE PUSH1 0x22 PUSH1 0x4 MSTORE PUSH1 0x24 PUSH0 REVERT JUMPDEST PUSH0 PUSH1 0x2 DUP3 DIV SWAP1 POP PUSH1 0x1 DUP3 AND DUP1 PUSH2 0xCEC JUMPI PUSH1 0x7F DUP3 AND SWAP2 POP JUMPDEST PUSH1 0x20 DUP3 LT DUP2 SUB PUSH2 0xCFF JUMPI PUSH2 0xCFE PUSH2 0xCA8 JUMP JUMPDEST JUMPDEST POP SWAP2 SWAP1 POP JUMP JUMPDEST PUSH32 0x496E76616C69642073656E646572000000000000000000000000000000000000 PUSH0 DUP3 ADD MSTORE POP JUMP JUMPDEST PUSH0 PUSH2 0xD39 PUSH1 0xE DUP4 PUSH2 0xB51 JUMP JUMPDEST SWAP2 POP PUSH2 0xD44 DUP3 PUSH2 0xD05 JUMP JUMPDEST PUSH1 0x20 DUP3 ADD SWAP1 POP SWAP2 SWAP1 POP JUMP JUMPDEST PUSH0 PUSH1 0x20 DUP3 ADD SWAP1 POP DUP2 DUP2 SUB PUSH0 DUP4 ADD MSTORE PUSH2 0xD66 DUP2 PUSH2 0xD2D JUMP JUMPDEST SWAP1 POP SWAP2 SWAP1 POP JUMP JUMPDEST PUSH32 0x496E76616C6964207370656E6465720000000000000000000000000000000000 PUSH0 DUP3 ADD MSTORE POP JUMP JUMPDEST PUSH0 PUSH2 0xDA1 PUSH1 0xF DUP4 PUSH2 0xB51 JUMP JUMPDEST SWAP2 POP PUSH2 0xDAC DUP3 PUSH2 0xD6D JUMP JUMPDEST PUSH1 0x20 DUP3 ADD SWAP1 POP SWAP2 SWAP1 POP JUMP JUMPDEST PUSH0 PUSH1 0x20 DUP3 ADD SWAP1 POP DUP2 DUP2 SUB PUSH0 DUP4 ADD MSTORE PUSH2 0xDCE DUP2 PUSH2 0xD95 JUMP JUMPDEST SWAP1 POP SWAP2 SWAP1 POP JUMP JUMPDEST PUSH32 0x416D6F756E74206D7573742062652067726561746572207468616E2030000000 PUSH0 DUP3 ADD MSTORE POP JUMP JUMPDEST PUSH0 PUSH2 0xE09 PUSH1 0x1D DUP4 PUSH2 0xB51 JUMP JUMPDEST SWAP2 POP PUSH2 0xE14 DUP3 PUSH2 0xDD5 JUMP JUMPDEST PUSH1 0x20 DUP3 ADD SWAP1 POP SWAP2 SWAP1 POP JUMP JUMPDEST PUSH0 PUSH1 0x20 DUP3 ADD SWAP1 POP DUP2 DUP2 SUB PUSH0 DUP4 ADD MSTORE PUSH2 0xE36 DUP2 PUSH2 0xDFD JUMP JUMPDEST SWAP1 POP SWAP2 SWAP1 POP JUMP JUMPDEST PUSH32 0x43616E6E6F74207472616E7366657220746F2073656C66000000000000000000 PUSH0 DUP3 ADD MSTORE POP JUMP JUMPDEST PUSH0 PUSH2 0xE71 PUSH1 0x17 DUP4 PUSH2 0xB51 JUMP JUMPDEST SWAP2 POP PUSH2 0xE7C DUP3 PUSH2 0xE3D JUMP JUMPDEST PUSH1 0x20 DUP3 ADD SWAP1 POP SWAP2 SWAP1 POP JUMP JUMPDEST PUSH0 PUSH1 0x20 DUP3 ADD SWAP1 POP DUP2 DUP2 SUB PUSH0 DUP4 ADD MSTORE PUSH2 0xE9E DUP2 PUSH2 0xE65 JUMP JUMPDEST SWAP1 POP SWAP2 SWAP1 POP JUMP JUMPDEST PUSH32 0x496E76616C696420726563697069656E74000000000000000000000000000000 PUSH0 DUP3 ADD MSTORE POP JUMP JUMPDEST PUSH0 PUSH2 0xED9 PUSH1 0x11 DUP4 PUSH2 0xB51 JUMP JUMPDEST SWAP2 POP PUSH2 0xEE4 DUP3 PUSH2 0xEA5 JUMP JUMPDEST PUSH1 0x20 DUP3 ADD SWAP1 POP SWAP2 SWAP1 POP JUMP JUMPDEST PUSH0 PUSH1 0x20 DUP3 ADD SWAP1 POP DUP2 DUP2 SUB PUSH0 DUP4 ADD MSTORE PUSH2 0xF06 DUP2 PUSH2 0xECD JUMP JUMPDEST SWAP1 POP SWAP2 SWAP1 POP JUMP JUMPDEST PUSH32 0x496E73756666696369656E742062616C616E6365000000000000000000000000 PUSH0 DUP3 ADD MSTORE POP JUMP JUMPDEST PUSH0 PUSH2 0xF41 PUSH1 0x14 DUP4 PUSH2 0xB51 JUMP JUMPDEST SWAP2 POP PUSH2 0xF4C DUP3 PUSH2 0xF0D JUMP JUMPDEST PUSH1 0x20 DUP3 ADD SWAP1 POP SWAP2 SWAP1 POP JUMP JUMPDEST PUSH0 PUSH1 0x20 DUP3 ADD SWAP1 POP DUP2 DUP2 SUB PUSH0 DUP4 ADD MSTORE PUSH2 0xF6E DUP2 PUSH2 0xF35 JUMP JUMPDEST SWAP1 POP SWAP2 SWAP1 POP JUMP INVALID LOG2 PUSH5 0x6970667358 0x22 SLT KECCAK256 0xBB 0xC0 SLT 0xC SWAP13 PUSH5 0xE236D5AE69 0xEC 0xE RETURNDATASIZE 0xD4 0xD4 PUSH8 0x26FE5F50EAC638B3 0xD SAR BLOBHASH 0xEC 0xC5 0xCA 0xE4 PUSH5 0x736F6C6343 STOP ADDMOD BYTE STOP CALLER "
				},
				"gasEstimates": {
					"creation": {
						"codeDepositCost": "802200",
						"executionCost": "infinite",
						"totalCost": "infinite"
					},
					"external": {
						"allowance(address,address)": "infinite",
						"approve(address,uint256)": "infinite",
						"balanceOf(address)": "2851",
						"tokenDecimal()": "2492",
						"tokenName()": "infinite",
						"tokenSymbol()": "infinite",
						"totalSupply()": "2455",
						"transfer(address,uint256)": "infinite",
						"transferFrom(address,address,uint256)": "infinite"
					},
					"internal": {
						"_approve(address,address,uint256)": "infinite",
						"_transfer(address,address,uint256)": "infinite"
					}
				},
				"methodIdentifiers": {
					"allowance(address,address)": "dd62ed3e",
					"approve(address,uint256)": "095ea7b3",
					"balanceOf(address)": "70a08231",
					"tokenDecimal()": "5caed029",
					"tokenName()": "6c02a931",
					"tokenSymbol()": "7b61c320",
					"totalSupply()": "18160ddd",
					"transfer(address,uint256)": "a9059cbb",
					"transferFrom(address,address,uint256)": "23b872dd"
				}
			},
			"storageLayout": {
				"storage": [
					{
						"astId": 72,
						"contract": "ERC20-Token/token.sol:ERC20Token",
						"label": "tokenName",
						"offset": 0,
						"slot": "0",
						"type": "t_string_storage"
					},
					{
						"astId": 74,
						"contract": "ERC20-Token/token.sol:ERC20Token",
						"label": "tokenSymbol",
						"offset": 0,
						"slot": "1",
						"type": "t_string_storage"
					},
					{
						"astId": 76,
						"contract": "ERC20-Token/token.sol:ERC20Token",
						"label": "tokenDecimal",
						"offset": 0,
						"slot": "2",
						"type": "t_uint256"
					},
					{
						"astId": 78,
						"contract": "ERC20-Token/token.sol:ERC20Token",
						"label": "tokenTotalSupply",
						"offset": 0,
						"slot": "3",
						"type": "t_uint256"
					},
					{
						"astId": 82,
						"contract": "ERC20-Token/token.sol:ERC20Token",
						"label": "_ownerBalance",
						"offset": 0,
						"slot": "4",
						"type": "t_mapping(t_address,t_uint256)"
					},
					{
						"astId": 88,
						"contract": "ERC20-Token/token.sol:ERC20Token",
						"label": "_allowance",
						"offset": 0,
						"slot": "5",
						"type": "t_mapping(t_address,t_mapping(t_address,t_uint256))"
					}
				],
				"types": {
					"t_address": {
						"encoding": "inplace",
						"label": "address",
						"numberOfBytes": "20"
					},
					"t_mapping(t_address,t_mapping(t_address,t_uint256))": {
						"encoding": "mapping",
						"key": "t_address",
						"label": "mapping(address => mapping(address => uint256))",
						"numberOfBytes": "32",
						"value": "t_mapping(t_address,t_uint256)"
					},
					"t_mapping(t_address,t_uint256)": {
						"encoding": "mapping",
						"key": "t_address",
						"label": "mapping(address => uint256)",
						"numberOfBytes": "32",
						"value": "t_uint256"
					},
					"t_string_storage": {
						"encoding": "bytes",
						"label": "string",
						"numberOfBytes": "32"
					},
					"t_uint256": {
						"encoding": "inplace",
						"label": "uint256",
						"numberOfBytes": "32"
					}
				}
			},
			"userdoc": {
				"kind": "user",
				"methods": {},
				"version": 1
			}
		}
	}
}