{
	"MarketPlace/sells.sol": {
		"TokenMarketPlace": {
			"abi": [
				{
					"inputs": [
						{
							"internalType": "uint256",
							"name": "_feePercentage",
							"type": "uint256"
						},
						{
							"internalType": "address",
							"name": "_feeCollector",
							"type": "address"
						}
					],
					"stateMutability": "nonpayable",
					"type": "constructor"
				},
				{
					"inputs": [
						{
							"internalType": "address",
							"name": "owner",
							"type": "address"
						}
					],
					"name": "OwnableInvalidOwner",
					"type": "error"
				},
				{
					"inputs": [
						{
							"internalType": "address",
							"name": "account",
							"type": "address"
						}
					],
					"name": "OwnableUnauthorizedAccount",
					"type": "error"
				},
				{
					"anonymous": false,
					"inputs": [
						{
							"indexed": true,
							"internalType": "address",
							"name": "previousOwner",
							"type": "address"
						},
						{
							"indexed": true,
							"internalType": "address",
							"name": "newOwner",
							"type": "address"
						}
					],
					"name": "OwnershipTransferred",
					"type": "event"
				},
				{
					"anonymous": false,
					"inputs": [
						{
							"indexed": true,
							"internalType": "uint256",
							"name": "listingId",
							"type": "uint256"
						},
						{
							"indexed": false,
							"internalType": "address",
							"name": "_tokenAddress",
							"type": "address"
						},
						{
							"indexed": false,
							"internalType": "uint256",
							"name": "amountUpdated",
							"type": "uint256"
						},
						{
							"indexed": false,
							"internalType": "uint256",
							"name": "_newTokenPrice",
							"type": "uint256"
						}
					],
					"name": "TokenAmountUpdated",
					"type": "event"
				},
				{
					"anonymous": false,
					"inputs": [
						{
							"indexed": true,
							"internalType": "uint256",
							"name": "listingId",
							"type": "uint256"
						},
						{
							"indexed": false,
							"internalType": "address",
							"name": "seller",
							"type": "address"
						},
						{
							"indexed": false,
							"internalType": "address",
							"name": "tokenAddress",
							"type": "address"
						},
						{
							"indexed": false,
							"internalType": "uint256",
							"name": "amount",
							"type": "uint256"
						},
						{
							"indexed": false,
							"internalType": "uint256",
							"name": "pricePerToken",
							"type": "uint256"
						}
					],
					"name": "TokenListed",
					"type": "event"
				},
				{
					"inputs": [
						{
							"internalType": "address",
							"name": "token",
							"type": "address"
						},
						{
							"internalType": "address",
							"name": "seller",
							"type": "address"
						}
					],
					"name": "_generatekeyId",
					"outputs": [
						{
							"internalType": "bytes32",
							"name": "",
							"type": "bytes32"
						}
					],
					"stateMutability": "pure",
					"type": "function"
				},
				{
					"inputs": [
						{
							"internalType": "address",
							"name": "_tokenAddress",
							"type": "address"
						}
					],
					"name": "cancelListing",
					"outputs": [],
					"stateMutability": "nonpayable",
					"type": "function"
				},
				{
					"inputs": [
						{
							"internalType": "address",
							"name": "_tokenAddress",
							"type": "address"
						},
						{
							"internalType": "uint256",
							"name": "_amount",
							"type": "uint256"
						},
						{
							"internalType": "uint256",
							"name": "_pricePerToken",
							"type": "uint256"
						}
					],
					"name": "creatListing",
					"outputs": [],
					"stateMutability": "nonpayable",
					"type": "function"
				},
				{
					"inputs": [],
					"name": "feeCollector",
					"outputs": [
						{
							"internalType": "address",
							"name": "",
							"type": "address"
						}
					],
					"stateMutability": "view",
					"type": "function"
				},
				{
					"inputs": [],
					"name": "feePercent",
					"outputs": [
						{
							"internalType": "uint256",
							"name": "",
							"type": "uint256"
						}
					],
					"stateMutability": "view",
					"type": "function"
				},
				{
					"inputs": [
						{
							"internalType": "bytes32",
							"name": "",
							"type": "bytes32"
						}
					],
					"name": "listingKey",
					"outputs": [
						{
							"internalType": "uint256",
							"name": "",
							"type": "uint256"
						}
					],
					"stateMutability": "view",
					"type": "function"
				},
				{
					"inputs": [
						{
							"internalType": "uint256",
							"name": "",
							"type": "uint256"
						}
					],
					"name": "listings",
					"outputs": [
						{
							"internalType": "address",
							"name": "seller",
							"type": "address"
						},
						{
							"internalType": "address",
							"name": "tokenAddress",
							"type": "address"
						},
						{
							"internalType": "string",
							"name": "tokenName",
							"type": "string"
						},
						{
							"internalType": "uint256",
							"name": "amount",
							"type": "uint256"
						},
						{
							"internalType": "uint256",
							"name": "pricePerToken",
							"type": "uint256"
						},
						{
							"internalType": "bool",
							"name": "active",
							"type": "bool"
						}
					],
					"stateMutability": "view",
					"type": "function"
				},
				{
					"inputs": [],
					"name": "owner",
					"outputs": [
						{
							"internalType": "address",
							"name": "",
							"type": "address"
						}
					],
					"stateMutability": "view",
					"type": "function"
				},
				{
					"inputs": [
						{
							"internalType": "address",
							"name": "_tokenAddress",
							"type": "address"
						}
					],
					"name": "reactivateListing",
					"outputs": [],
					"stateMutability": "nonpayable",
					"type": "function"
				},
				{
					"inputs": [],
					"name": "renounceOwnership",
					"outputs": [],
					"stateMutability": "nonpayable",
					"type": "function"
				},
				{
					"inputs": [
						{
							"internalType": "address",
							"name": "_tokenAddress",
							"type": "address"
						},
						{
							"internalType": "address",
							"name": "_account",
							"type": "address"
						}
					],
					"name": "tokenBalanceByAddress",
					"outputs": [
						{
							"internalType": "uint256",
							"name": "",
							"type": "uint256"
						}
					],
					"stateMutability": "view",
					"type": "function"
				},
				{
					"inputs": [
						{
							"internalType": "address",
							"name": "newOwner",
							"type": "address"
						}
					],
					"name": "transferOwnership",
					"outputs": [],
					"stateMutability": "nonpayable",
					"type": "function"
				}
			],
			"devdoc": {
				"errors": {
					"OwnableInvalidOwner(address)": [
						{
							"details": "The owner is not a valid owner account. (eg. `address(0)`)"
						}
					],
					"OwnableUnauthorizedAccount(address)": [
						{
							"details": "The caller account is not authorized to perform an operation."
						}
					]
				},
				"kind": "dev",
				"methods": {
					"owner()": {
						"details": "Returns the address of the current owner."
					},
					"renounceOwnership()": {
						"details": "Leaves the contract without owner. It will not be possible to call `onlyOwner` functions. Can only be called by the current owner. NOTE: Renouncing ownership will leave the contract without an owner, thereby disabling any functionality that is only available to the owner."
					},
					"transferOwnership(address)": {
						"details": "Transfers ownership of the contract to a new account (`newOwner`). Can only be called by the current owner."
					}
				},
				"version": 1
			},
			"evm": {
				"assembly": "    /* \"MarketPlace/sells.sol\":308:5196  contract TokenMarketPlace is Ownable, ReentrancyGuard {... */\n  mstore(0x40, 0x80)\n    /* \"MarketPlace/sells.sol\":906:907  1 */\n  0x01\n    /* \"MarketPlace/sells.sol\":882:907  uint256 nextListingId = 1 */\n  0x06\n  sstore\n    /* \"MarketPlace/sells.sol\":1254:1573  constructor(uint256 _feePercentage, address _feeCollector)... */\n  callvalue\n  dup1\n  iszero\n  tag_1\n  jumpi\n  0x00\n  dup1\n  revert\ntag_1:\n  pop\n  mload(0x40)\n  sub(codesize, bytecodeSize)\n  dup1\n  bytecodeSize\n  dup4\n  codecopy\n  dup2\n  dup2\n  add\n  0x40\n  mstore\n  dup2\n  add\n  swap1\n  tag_2\n  swap2\n  swap1\n  tag_3\n  jump\t// in\ntag_2:\n    /* \"MarketPlace/sells.sol\":1329:1339  msg.sender */\n  caller\n    /* \"@openzeppelin/contracts/access/Ownable.sol\":1297:1298  0 */\n  0x00\n    /* \"@openzeppelin/contracts/access/Ownable.sol\":1273:1299  initialOwner == address(0) */\n  0xffffffffffffffffffffffffffffffffffffffff\n  and\n    /* \"@openzeppelin/contracts/access/Ownable.sol\":1273:1285  initialOwner */\n  dup2\n    /* \"@openzeppelin/contracts/access/Ownable.sol\":1273:1299  initialOwner == address(0) */\n  0xffffffffffffffffffffffffffffffffffffffff\n  and\n  sub\n    /* \"@openzeppelin/contracts/access/Ownable.sol\":1269:1364  if (initialOwner == address(0)) {... */\n  tag_8\n  jumpi\n    /* \"@openzeppelin/contracts/access/Ownable.sol\":1350:1351  0 */\n  0x00\n    /* \"@openzeppelin/contracts/access/Ownable.sol\":1322:1353  OwnableInvalidOwner(address(0)) */\n  mload(0x40)\n  0x1e4fbdf700000000000000000000000000000000000000000000000000000000\n  dup2\n  mstore\n  0x04\n  add\n  tag_9\n  swap2\n  swap1\n  tag_10\n  jump\t// in\ntag_9:\n  mload(0x40)\n  dup1\n  swap2\n  sub\n  swap1\n  revert\n    /* \"@openzeppelin/contracts/access/Ownable.sol\":1269:1364  if (initialOwner == address(0)) {... */\ntag_8:\n    /* \"@openzeppelin/contracts/access/Ownable.sol\":1373:1405  _transferOwnership(initialOwner) */\n  tag_11\n    /* \"@openzeppelin/contracts/access/Ownable.sol\":1392:1404  initialOwner */\n  dup2\n    /* \"@openzeppelin/contracts/access/Ownable.sol\":1373:1391  _transferOwnership */\n  shl(0x20, tag_12)\n    /* \"@openzeppelin/contracts/access/Ownable.sol\":1373:1405  _transferOwnership(initialOwner) */\n  0x20\n  shr\n  jump\t// in\ntag_11:\n    /* \"@openzeppelin/contracts/access/Ownable.sol\":1225:1412  constructor(address initialOwner) {... */\n  pop\n    /* \"@openzeppelin/contracts/security/ReentrancyGuard.sol\":1716:1717  1 */\n  0x01\n    /* \"@openzeppelin/contracts/security/ReentrancyGuard.sol\":1821:1828  _status */\n  dup1\n    /* \"@openzeppelin/contracts/security/ReentrancyGuard.sol\":1821:1843  _status = _NOT_ENTERED */\n  dup2\n  swap1\n  sstore\n  pop\n    /* \"MarketPlace/sells.sol\":1381:1383  10 */\n  0x0a\n    /* \"MarketPlace/sells.sol\":1363:1377  _feePercentage */\n  dup3\n    /* \"MarketPlace/sells.sol\":1363:1383  _feePercentage <= 10 */\n  gt\n  iszero\n    /* \"MarketPlace/sells.sol\":1355:1411  require(_feePercentage <= 10, \"Fee must not exceed 10%\") */\n  tag_15\n  jumpi\n  mload(0x40)\n  0x08c379a000000000000000000000000000000000000000000000000000000000\n  dup2\n  mstore\n  0x04\n  add\n  tag_16\n  swap1\n  tag_17\n  jump\t// in\ntag_16:\n  mload(0x40)\n  dup1\n  swap2\n  sub\n  swap1\n  revert\ntag_15:\n    /* \"MarketPlace/sells.sol\":1454:1455  0 */\n  0x00\n    /* \"MarketPlace/sells.sol\":1429:1456  _feeCollector != address(0) */\n  0xffffffffffffffffffffffffffffffffffffffff\n  and\n    /* \"MarketPlace/sells.sol\":1429:1442  _feeCollector */\n  dup2\n    /* \"MarketPlace/sells.sol\":1429:1456  _feeCollector != address(0) */\n  0xffffffffffffffffffffffffffffffffffffffff\n  and\n  sub\n    /* \"MarketPlace/sells.sol\":1421:1490  require(_feeCollector != address(0), \"Invalid fee recipient address\") */\n  tag_18\n  jumpi\n  mload(0x40)\n  0x08c379a000000000000000000000000000000000000000000000000000000000\n  dup2\n  mstore\n  0x04\n  add\n  tag_19\n  swap1\n  tag_20\n  jump\t// in\ntag_19:\n  mload(0x40)\n  dup1\n  swap2\n  sub\n  swap1\n  revert\ntag_18:\n    /* \"MarketPlace/sells.sol\":1514:1528  _feePercentage */\n  dup2\n    /* \"MarketPlace/sells.sol\":1501:1511  feePercent */\n  0x02\n    /* \"MarketPlace/sells.sol\":1501:1528  feePercent = _feePercentage */\n  dup2\n  swap1\n  sstore\n  pop\n    /* \"MarketPlace/sells.sol\":1553:1566  _feeCollector */\n  dup1\n    /* \"MarketPlace/sells.sol\":1538:1550  feeCollector */\n  0x03\n  0x00\n    /* \"MarketPlace/sells.sol\":1538:1566  feeCollector = _feeCollector */\n  0x0100\n  exp\n  dup2\n  sload\n  dup2\n  0xffffffffffffffffffffffffffffffffffffffff\n  mul\n  not\n  and\n  swap1\n  dup4\n  0xffffffffffffffffffffffffffffffffffffffff\n  and\n  mul\n  or\n  swap1\n  sstore\n  pop\n    /* \"MarketPlace/sells.sol\":1254:1573  constructor(uint256 _feePercentage, address _feeCollector)... */\n  pop\n  pop\n    /* \"MarketPlace/sells.sol\":308:5196  contract TokenMarketPlace is Ownable, ReentrancyGuard {... */\n  jump(tag_21)\n    /* \"@openzeppelin/contracts/access/Ownable.sol\":2912:3099  function _transferOwnership(address newOwner) internal virtual {... */\ntag_12:\n    /* \"@openzeppelin/contracts/access/Ownable.sol\":2985:3001  address oldOwner */\n  0x00\n    /* \"@openzeppelin/contracts/access/Ownable.sol\":3004:3010  _owner */\n  dup1\n  0x00\n  swap1\n  sload\n  swap1\n  0x0100\n  exp\n  swap1\n  div\n  0xffffffffffffffffffffffffffffffffffffffff\n  and\n    /* \"@openzeppelin/contracts/access/Ownable.sol\":2985:3010  address oldOwner = _owner */\n  swap1\n  pop\n    /* \"@openzeppelin/contracts/access/Ownable.sol\":3029:3037  newOwner */\n  dup2\n    /* \"@openzeppelin/contracts/access/Ownable.sol\":3020:3026  _owner */\n  0x00\n  dup1\n    /* \"@openzeppelin/contracts/access/Ownable.sol\":3020:3037  _owner = newOwner */\n  0x0100\n  exp\n  dup2\n  sload\n  dup2\n  0xffffffffffffffffffffffffffffffffffffffff\n  mul\n  not\n  and\n  swap1\n  dup4\n  0xffffffffffffffffffffffffffffffffffffffff\n  and\n  mul\n  or\n  swap1\n  sstore\n  pop\n    /* \"@openzeppelin/contracts/access/Ownable.sol\":3083:3091  newOwner */\n  dup2\n    /* \"@openzeppelin/contracts/access/Ownable.sol\":3052:3092  OwnershipTransferred(oldOwner, newOwner) */\n  0xffffffffffffffffffffffffffffffffffffffff\n  and\n    /* \"@openzeppelin/contracts/access/Ownable.sol\":3073:3081  oldOwner */\n  dup2\n    /* \"@openzeppelin/contracts/access/Ownable.sol\":3052:3092  OwnershipTransferred(oldOwner, newOwner) */\n  0xffffffffffffffffffffffffffffffffffffffff\n  and\n  0x8be0079c531659141344cd1fd0a4f28419497f9722a3daafe3b4186f6b6457e0\n  mload(0x40)\n  mload(0x40)\n  dup1\n  swap2\n  sub\n  swap1\n  log3\n    /* \"@openzeppelin/contracts/access/Ownable.sol\":2975:3099  {... */\n  pop\n    /* \"@openzeppelin/contracts/access/Ownable.sol\":2912:3099  function _transferOwnership(address newOwner) internal virtual {... */\n  pop\n  jump\t// out\n    /* \"#utility.yul\":88:205   */\ntag_24:\n    /* \"#utility.yul\":197:198   */\n  0x00\n    /* \"#utility.yul\":194:195   */\n  dup1\n    /* \"#utility.yul\":187:199   */\n  revert\n    /* \"#utility.yul\":334:411   */\ntag_26:\n    /* \"#utility.yul\":371:378   */\n  0x00\n    /* \"#utility.yul\":400:405   */\n  dup2\n    /* \"#utility.yul\":389:405   */\n  swap1\n  pop\n    /* \"#utility.yul\":334:411   */\n  swap2\n  swap1\n  pop\n  jump\t// out\n    /* \"#utility.yul\":417:539   */\ntag_27:\n    /* \"#utility.yul\":490:514   */\n  tag_45\n    /* \"#utility.yul\":508:513   */\n  dup2\n    /* \"#utility.yul\":490:514   */\n  tag_26\n  jump\t// in\ntag_45:\n    /* \"#utility.yul\":483:488   */\n  dup2\n    /* \"#utility.yul\":480:515   */\n  eq\n    /* \"#utility.yul\":470:533   */\n  tag_46\n  jumpi\n    /* \"#utility.yul\":529:530   */\n  0x00\n    /* \"#utility.yul\":526:527   */\n  dup1\n    /* \"#utility.yul\":519:531   */\n  revert\n    /* \"#utility.yul\":470:533   */\ntag_46:\n    /* \"#utility.yul\":417:539   */\n  pop\n  jump\t// out\n    /* \"#utility.yul\":545:688   */\ntag_28:\n    /* \"#utility.yul\":602:607   */\n  0x00\n    /* \"#utility.yul\":633:639   */\n  dup2\n    /* \"#utility.yul\":627:640   */\n  mload\n    /* \"#utility.yul\":618:640   */\n  swap1\n  pop\n    /* \"#utility.yul\":649:682   */\n  tag_48\n    /* \"#utility.yul\":676:681   */\n  dup2\n    /* \"#utility.yul\":649:682   */\n  tag_27\n  jump\t// in\ntag_48:\n    /* \"#utility.yul\":545:688   */\n  swap3\n  swap2\n  pop\n  pop\n  jump\t// out\n    /* \"#utility.yul\":694:820   */\ntag_29:\n    /* \"#utility.yul\":731:738   */\n  0x00\n    /* \"#utility.yul\":771:813   */\n  0xffffffffffffffffffffffffffffffffffffffff\n    /* \"#utility.yul\":764:769   */\n  dup3\n    /* \"#utility.yul\":760:814   */\n  and\n    /* \"#utility.yul\":749:814   */\n  swap1\n  pop\n    /* \"#utility.yul\":694:820   */\n  swap2\n  swap1\n  pop\n  jump\t// out\n    /* \"#utility.yul\":826:922   */\ntag_30:\n    /* \"#utility.yul\":863:870   */\n  0x00\n    /* \"#utility.yul\":892:916   */\n  tag_51\n    /* \"#utility.yul\":910:915   */\n  dup3\n    /* \"#utility.yul\":892:916   */\n  tag_29\n  jump\t// in\ntag_51:\n    /* \"#utility.yul\":881:916   */\n  swap1\n  pop\n    /* \"#utility.yul\":826:922   */\n  swap2\n  swap1\n  pop\n  jump\t// out\n    /* \"#utility.yul\":928:1050   */\ntag_31:\n    /* \"#utility.yul\":1001:1025   */\n  tag_53\n    /* \"#utility.yul\":1019:1024   */\n  dup2\n    /* \"#utility.yul\":1001:1025   */\n  tag_30\n  jump\t// in\ntag_53:\n    /* \"#utility.yul\":994:999   */\n  dup2\n    /* \"#utility.yul\":991:1026   */\n  eq\n    /* \"#utility.yul\":981:1044   */\n  tag_54\n  jumpi\n    /* \"#utility.yul\":1040:1041   */\n  0x00\n    /* \"#utility.yul\":1037:1038   */\n  dup1\n    /* \"#utility.yul\":1030:1042   */\n  revert\n    /* \"#utility.yul\":981:1044   */\ntag_54:\n    /* \"#utility.yul\":928:1050   */\n  pop\n  jump\t// out\n    /* \"#utility.yul\":1056:1199   */\ntag_32:\n    /* \"#utility.yul\":1113:1118   */\n  0x00\n    /* \"#utility.yul\":1144:1150   */\n  dup2\n    /* \"#utility.yul\":1138:1151   */\n  mload\n    /* \"#utility.yul\":1129:1151   */\n  swap1\n  pop\n    /* \"#utility.yul\":1160:1193   */\n  tag_56\n    /* \"#utility.yul\":1187:1192   */\n  dup2\n    /* \"#utility.yul\":1160:1193   */\n  tag_31\n  jump\t// in\ntag_56:\n    /* \"#utility.yul\":1056:1199   */\n  swap3\n  swap2\n  pop\n  pop\n  jump\t// out\n    /* \"#utility.yul\":1205:1712   */\ntag_3:\n    /* \"#utility.yul\":1284:1290   */\n  0x00\n    /* \"#utility.yul\":1292:1298   */\n  dup1\n    /* \"#utility.yul\":1341:1343   */\n  0x40\n    /* \"#utility.yul\":1329:1338   */\n  dup4\n    /* \"#utility.yul\":1320:1327   */\n  dup6\n    /* \"#utility.yul\":1316:1339   */\n  sub\n    /* \"#utility.yul\":1312:1344   */\n  slt\n    /* \"#utility.yul\":1309:1428   */\n  iszero\n  tag_58\n  jumpi\n    /* \"#utility.yul\":1347:1426   */\n  tag_59\n  tag_24\n  jump\t// in\ntag_59:\n    /* \"#utility.yul\":1309:1428   */\ntag_58:\n    /* \"#utility.yul\":1467:1468   */\n  0x00\n    /* \"#utility.yul\":1492:1556   */\n  tag_60\n    /* \"#utility.yul\":1548:1555   */\n  dup6\n    /* \"#utility.yul\":1539:1545   */\n  dup3\n    /* \"#utility.yul\":1528:1537   */\n  dup7\n    /* \"#utility.yul\":1524:1546   */\n  add\n    /* \"#utility.yul\":1492:1556   */\n  tag_28\n  jump\t// in\ntag_60:\n    /* \"#utility.yul\":1482:1556   */\n  swap3\n  pop\n    /* \"#utility.yul\":1438:1566   */\n  pop\n    /* \"#utility.yul\":1605:1607   */\n  0x20\n    /* \"#utility.yul\":1631:1695   */\n  tag_61\n    /* \"#utility.yul\":1687:1694   */\n  dup6\n    /* \"#utility.yul\":1678:1684   */\n  dup3\n    /* \"#utility.yul\":1667:1676   */\n  dup7\n    /* \"#utility.yul\":1663:1685   */\n  add\n    /* \"#utility.yul\":1631:1695   */\n  tag_32\n  jump\t// in\ntag_61:\n    /* \"#utility.yul\":1621:1695   */\n  swap2\n  pop\n    /* \"#utility.yul\":1576:1705   */\n  pop\n    /* \"#utility.yul\":1205:1712   */\n  swap3\n  pop\n  swap3\n  swap1\n  pop\n  jump\t// out\n    /* \"#utility.yul\":1718:1836   */\ntag_33:\n    /* \"#utility.yul\":1805:1829   */\n  tag_63\n    /* \"#utility.yul\":1823:1828   */\n  dup2\n    /* \"#utility.yul\":1805:1829   */\n  tag_30\n  jump\t// in\ntag_63:\n    /* \"#utility.yul\":1800:1803   */\n  dup3\n    /* \"#utility.yul\":1793:1830   */\n  mstore\n    /* \"#utility.yul\":1718:1836   */\n  pop\n  pop\n  jump\t// out\n    /* \"#utility.yul\":1842:2064   */\ntag_10:\n    /* \"#utility.yul\":1935:1939   */\n  0x00\n    /* \"#utility.yul\":1973:1975   */\n  0x20\n    /* \"#utility.yul\":1962:1971   */\n  dup3\n    /* \"#utility.yul\":1958:1976   */\n  add\n    /* \"#utility.yul\":1950:1976   */\n  swap1\n  pop\n    /* \"#utility.yul\":1986:2057   */\n  tag_65\n    /* \"#utility.yul\":2054:2055   */\n  0x00\n    /* \"#utility.yul\":2043:2052   */\n  dup4\n    /* \"#utility.yul\":2039:2056   */\n  add\n    /* \"#utility.yul\":2030:2036   */\n  dup5\n    /* \"#utility.yul\":1986:2057   */\n  tag_33\n  jump\t// in\ntag_65:\n    /* \"#utility.yul\":1842:2064   */\n  swap3\n  swap2\n  pop\n  pop\n  jump\t// out\n    /* \"#utility.yul\":2070:2239   */\ntag_34:\n    /* \"#utility.yul\":2154:2165   */\n  0x00\n    /* \"#utility.yul\":2188:2194   */\n  dup3\n    /* \"#utility.yul\":2183:2186   */\n  dup3\n    /* \"#utility.yul\":2176:2195   */\n  mstore\n    /* \"#utility.yul\":2228:2232   */\n  0x20\n    /* \"#utility.yul\":2223:2226   */\n  dup3\n    /* \"#utility.yul\":2219:2233   */\n  add\n    /* \"#utility.yul\":2204:2233   */\n  swap1\n  pop\n    /* \"#utility.yul\":2070:2239   */\n  swap3\n  swap2\n  pop\n  pop\n  jump\t// out\n    /* \"#utility.yul\":2245:2418   */\ntag_35:\n    /* \"#utility.yul\":2385:2410   */\n  0x466565206d757374206e6f742065786365656420313025000000000000000000\n    /* \"#utility.yul\":2381:2382   */\n  0x00\n    /* \"#utility.yul\":2373:2379   */\n  dup3\n    /* \"#utility.yul\":2369:2383   */\n  add\n    /* \"#utility.yul\":2362:2411   */\n  mstore\n    /* \"#utility.yul\":2245:2418   */\n  pop\n  jump\t// out\n    /* \"#utility.yul\":2424:2790   */\ntag_36:\n    /* \"#utility.yul\":2566:2569   */\n  0x00\n    /* \"#utility.yul\":2587:2654   */\n  tag_69\n    /* \"#utility.yul\":2651:2653   */\n  0x17\n    /* \"#utility.yul\":2646:2649   */\n  dup4\n    /* \"#utility.yul\":2587:2654   */\n  tag_34\n  jump\t// in\ntag_69:\n    /* \"#utility.yul\":2580:2654   */\n  swap2\n  pop\n    /* \"#utility.yul\":2663:2756   */\n  tag_70\n    /* \"#utility.yul\":2752:2755   */\n  dup3\n    /* \"#utility.yul\":2663:2756   */\n  tag_35\n  jump\t// in\ntag_70:\n    /* \"#utility.yul\":2781:2783   */\n  0x20\n    /* \"#utility.yul\":2776:2779   */\n  dup3\n    /* \"#utility.yul\":2772:2784   */\n  add\n    /* \"#utility.yul\":2765:2784   */\n  swap1\n  pop\n    /* \"#utility.yul\":2424:2790   */\n  swap2\n  swap1\n  pop\n  jump\t// out\n    /* \"#utility.yul\":2796:3215   */\ntag_17:\n    /* \"#utility.yul\":2962:2966   */\n  0x00\n    /* \"#utility.yul\":3000:3002   */\n  0x20\n    /* \"#utility.yul\":2989:2998   */\n  dup3\n    /* \"#utility.yul\":2985:3003   */\n  add\n    /* \"#utility.yul\":2977:3003   */\n  swap1\n  pop\n    /* \"#utility.yul\":3049:3058   */\n  dup2\n    /* \"#utility.yul\":3043:3047   */\n  dup2\n    /* \"#utility.yul\":3039:3059   */\n  sub\n    /* \"#utility.yul\":3035:3036   */\n  0x00\n    /* \"#utility.yul\":3024:3033   */\n  dup4\n    /* \"#utility.yul\":3020:3037   */\n  add\n    /* \"#utility.yul\":3013:3060   */\n  mstore\n    /* \"#utility.yul\":3077:3208   */\n  tag_72\n    /* \"#utility.yul\":3203:3207   */\n  dup2\n    /* \"#utility.yul\":3077:3208   */\n  tag_36\n  jump\t// in\ntag_72:\n    /* \"#utility.yul\":3069:3208   */\n  swap1\n  pop\n    /* \"#utility.yul\":2796:3215   */\n  swap2\n  swap1\n  pop\n  jump\t// out\n    /* \"#utility.yul\":3221:3400   */\ntag_37:\n    /* \"#utility.yul\":3361:3392   */\n  0x496e76616c69642066656520726563697069656e742061646472657373000000\n    /* \"#utility.yul\":3357:3358   */\n  0x00\n    /* \"#utility.yul\":3349:3355   */\n  dup3\n    /* \"#utility.yul\":3345:3359   */\n  add\n    /* \"#utility.yul\":3338:3393   */\n  mstore\n    /* \"#utility.yul\":3221:3400   */\n  pop\n  jump\t// out\n    /* \"#utility.yul\":3406:3772   */\ntag_38:\n    /* \"#utility.yul\":3548:3551   */\n  0x00\n    /* \"#utility.yul\":3569:3636   */\n  tag_75\n    /* \"#utility.yul\":3633:3635   */\n  0x1d\n    /* \"#utility.yul\":3628:3631   */\n  dup4\n    /* \"#utility.yul\":3569:3636   */\n  tag_34\n  jump\t// in\ntag_75:\n    /* \"#utility.yul\":3562:3636   */\n  swap2\n  pop\n    /* \"#utility.yul\":3645:3738   */\n  tag_76\n    /* \"#utility.yul\":3734:3737   */\n  dup3\n    /* \"#utility.yul\":3645:3738   */\n  tag_37\n  jump\t// in\ntag_76:\n    /* \"#utility.yul\":3763:3765   */\n  0x20\n    /* \"#utility.yul\":3758:3761   */\n  dup3\n    /* \"#utility.yul\":3754:3766   */\n  add\n    /* \"#utility.yul\":3747:3766   */\n  swap1\n  pop\n    /* \"#utility.yul\":3406:3772   */\n  swap2\n  swap1\n  pop\n  jump\t// out\n    /* \"#utility.yul\":3778:4197   */\ntag_20:\n    /* \"#utility.yul\":3944:3948   */\n  0x00\n    /* \"#utility.yul\":3982:3984   */\n  0x20\n    /* \"#utility.yul\":3971:3980   */\n  dup3\n    /* \"#utility.yul\":3967:3985   */\n  add\n    /* \"#utility.yul\":3959:3985   */\n  swap1\n  pop\n    /* \"#utility.yul\":4031:4040   */\n  dup2\n    /* \"#utility.yul\":4025:4029   */\n  dup2\n    /* \"#utility.yul\":4021:4041   */\n  sub\n    /* \"#utility.yul\":4017:4018   */\n  0x00\n    /* \"#utility.yul\":4006:4015   */\n  dup4\n    /* \"#utility.yul\":4002:4019   */\n  add\n    /* \"#utility.yul\":3995:4042   */\n  mstore\n    /* \"#utility.yul\":4059:4190   */\n  tag_78\n    /* \"#utility.yul\":4185:4189   */\n  dup2\n    /* \"#utility.yul\":4059:4190   */\n  tag_38\n  jump\t// in\ntag_78:\n    /* \"#utility.yul\":4051:4190   */\n  swap1\n  pop\n    /* \"#utility.yul\":3778:4197   */\n  swap2\n  swap1\n  pop\n  jump\t// out\n    /* \"MarketPlace/sells.sol\":308:5196  contract TokenMarketPlace is Ownable, ReentrancyGuard {... */\ntag_21:\n  dataSize(sub_0)\n  dup1\n  dataOffset(sub_0)\n  0x00\n  codecopy\n  0x00\n  return\nstop\n\nsub_0: assembly {\n        /* \"MarketPlace/sells.sol\":308:5196  contract TokenMarketPlace is Ownable, ReentrancyGuard {... */\n      mstore(0x40, 0x80)\n      callvalue\n      dup1\n      iszero\n      tag_1\n      jumpi\n      0x00\n      dup1\n      revert\n    tag_1:\n      pop\n      jumpi(tag_2, lt(calldatasize, 0x04))\n      shr(0xe0, calldataload(0x00))\n      dup1\n      0xade9fbc6\n      gt\n      tag_15\n      jumpi\n      dup1\n      0xade9fbc6\n      eq\n      tag_9\n      jumpi\n      dup1\n      0xc415b95c\n      eq\n      tag_10\n      jumpi\n      dup1\n      0xc661aea6\n      eq\n      tag_11\n      jumpi\n      dup1\n      0xde74e57b\n      eq\n      tag_12\n      jumpi\n      dup1\n      0xdf5b7d63\n      eq\n      tag_13\n      jumpi\n      dup1\n      0xf2fde38b\n      eq\n      tag_14\n      jumpi\n      jump(tag_2)\n    tag_15:\n      dup1\n      0x37d9681d\n      eq\n      tag_3\n      jumpi\n      dup1\n      0x4724da6f\n      eq\n      tag_4\n      jumpi\n      dup1\n      0x715018a6\n      eq\n      tag_5\n      jumpi\n      dup1\n      0x7fd6f15c\n      eq\n      tag_6\n      jumpi\n      dup1\n      0x8da5cb5b\n      eq\n      tag_7\n      jumpi\n      dup1\n      0x920811fc\n      eq\n      tag_8\n      jumpi\n    tag_2:\n      0x00\n      dup1\n      revert\n        /* \"MarketPlace/sells.sol\":1579:1758  function _generatekeyId(address token, address seller)... */\n    tag_3:\n      tag_16\n      0x04\n      dup1\n      calldatasize\n      sub\n      dup2\n      add\n      swap1\n      tag_17\n      swap2\n      swap1\n      tag_18\n      jump\t// in\n    tag_17:\n      tag_19\n      jump\t// in\n    tag_16:\n      mload(0x40)\n      tag_20\n      swap2\n      swap1\n      tag_21\n      jump\t// in\n    tag_20:\n      mload(0x40)\n      dup1\n      swap2\n      sub\n      swap1\n      return\n        /* \"MarketPlace/sells.sol\":4343:4761  function cancelListing(address _tokenAddress) external {... */\n    tag_4:\n      tag_22\n      0x04\n      dup1\n      calldatasize\n      sub\n      dup2\n      add\n      swap1\n      tag_23\n      swap2\n      swap1\n      tag_24\n      jump\t// in\n    tag_23:\n      tag_25\n      jump\t// in\n    tag_22:\n      stop\n        /* \"@openzeppelin/contracts/access/Ownable.sol\":2293:2394  function renounceOwnership() public virtual onlyOwner {... */\n    tag_5:\n      tag_26\n      tag_27\n      jump\t// in\n    tag_26:\n      stop\n        /* \"MarketPlace/sells.sol\":368:393  uint256 public feePercent */\n    tag_6:\n      tag_28\n      tag_29\n      jump\t// in\n    tag_28:\n      mload(0x40)\n      tag_30\n      swap2\n      swap1\n      tag_31\n      jump\t// in\n    tag_30:\n      mload(0x40)\n      dup1\n      swap2\n      sub\n      swap1\n      return\n        /* \"@openzeppelin/contracts/access/Ownable.sol\":1638:1723  function owner() public view virtual returns (address) {... */\n    tag_7:\n      tag_32\n      tag_33\n      jump\t// in\n    tag_32:\n      mload(0x40)\n      tag_34\n      swap2\n      swap1\n      tag_35\n      jump\t// in\n    tag_34:\n      mload(0x40)\n      dup1\n      swap2\n      sub\n      swap1\n      return\n        /* \"MarketPlace/sells.sol\":4142:4337  function tokenBalanceByAddress(address _tokenAddress, address _account)... */\n    tag_8:\n      tag_36\n      0x04\n      dup1\n      calldatasize\n      sub\n      dup2\n      add\n      swap1\n      tag_37\n      swap2\n      swap1\n      tag_18\n      jump\t// in\n    tag_37:\n      tag_38\n      jump\t// in\n    tag_36:\n      mload(0x40)\n      tag_39\n      swap2\n      swap1\n      tag_31\n      jump\t// in\n    tag_39:\n      mload(0x40)\n      dup1\n      swap2\n      sub\n      swap1\n      return\n        /* \"MarketPlace/sells.sol\":831:876  mapping(bytes32 => uint256) public listingKey */\n    tag_9:\n      tag_40\n      0x04\n      dup1\n      calldatasize\n      sub\n      dup2\n      add\n      swap1\n      tag_41\n      swap2\n      swap1\n      tag_42\n      jump\t// in\n    tag_41:\n      tag_43\n      jump\t// in\n    tag_40:\n      mload(0x40)\n      tag_44\n      swap2\n      swap1\n      tag_31\n      jump\t// in\n    tag_44:\n      mload(0x40)\n      dup1\n      swap2\n      sub\n      swap1\n      return\n        /* \"MarketPlace/sells.sol\":399:426  address public feeCollector */\n    tag_10:\n      tag_45\n      tag_46\n      jump\t// in\n    tag_45:\n      mload(0x40)\n      tag_47\n      swap2\n      swap1\n      tag_35\n      jump\t// in\n    tag_47:\n      mload(0x40)\n      dup1\n      swap2\n      sub\n      swap1\n      return\n        /* \"MarketPlace/sells.sol\":1973:4136  function creatListing(... */\n    tag_11:\n      tag_48\n      0x04\n      dup1\n      calldatasize\n      sub\n      dup2\n      add\n      swap1\n      tag_49\n      swap2\n      swap1\n      tag_50\n      jump\t// in\n    tag_49:\n      tag_51\n      jump\t// in\n    tag_48:\n      stop\n        /* \"MarketPlace/sells.sol\":678:721  mapping(uint256 => Listing) public listings */\n    tag_12:\n      tag_52\n      0x04\n      dup1\n      calldatasize\n      sub\n      dup2\n      add\n      swap1\n      tag_53\n      swap2\n      swap1\n      tag_54\n      jump\t// in\n    tag_53:\n      tag_55\n      jump\t// in\n    tag_52:\n      mload(0x40)\n      tag_56\n      swap7\n      swap6\n      swap5\n      swap4\n      swap3\n      swap2\n      swap1\n      tag_57\n      jump\t// in\n    tag_56:\n      mload(0x40)\n      dup1\n      swap2\n      sub\n      swap1\n      return\n        /* \"MarketPlace/sells.sol\":4767:5194  function reactivateListing(address _tokenAddress) external {... */\n    tag_13:\n      tag_58\n      0x04\n      dup1\n      calldatasize\n      sub\n      dup2\n      add\n      swap1\n      tag_59\n      swap2\n      swap1\n      tag_24\n      jump\t// in\n    tag_59:\n      tag_60\n      jump\t// in\n    tag_58:\n      stop\n        /* \"@openzeppelin/contracts/access/Ownable.sol\":2543:2758  function transferOwnership(address newOwner) public virtual onlyOwner {... */\n    tag_14:\n      tag_61\n      0x04\n      dup1\n      calldatasize\n      sub\n      dup2\n      add\n      swap1\n      tag_62\n      swap2\n      swap1\n      tag_24\n      jump\t// in\n    tag_62:\n      tag_63\n      jump\t// in\n    tag_61:\n      stop\n        /* \"MarketPlace/sells.sol\":1579:1758  function _generatekeyId(address token, address seller)... */\n    tag_19:\n        /* \"MarketPlace/sells.sol\":1679:1686  bytes32 */\n      0x00\n        /* \"MarketPlace/sells.sol\":1736:1741  token */\n      dup3\n        /* \"MarketPlace/sells.sol\":1743:1749  seller */\n      dup3\n        /* \"MarketPlace/sells.sol\":1719:1750  abi.encodePacked(token, seller) */\n      add(0x20, mload(0x40))\n      tag_65\n      swap3\n      swap2\n      swap1\n      tag_66\n      jump\t// in\n    tag_65:\n      mload(0x40)\n      0x20\n      dup2\n      dup4\n      sub\n      sub\n      dup2\n      mstore\n      swap1\n      0x40\n      mstore\n        /* \"MarketPlace/sells.sol\":1709:1751  keccak256(abi.encodePacked(token, seller)) */\n      dup1\n      mload\n      swap1\n      0x20\n      add\n      keccak256\n        /* \"MarketPlace/sells.sol\":1702:1751  return keccak256(abi.encodePacked(token, seller)) */\n      swap1\n      pop\n        /* \"MarketPlace/sells.sol\":1579:1758  function _generatekeyId(address token, address seller)... */\n      swap3\n      swap2\n      pop\n      pop\n      jump\t// out\n        /* \"MarketPlace/sells.sol\":4343:4761  function cancelListing(address _tokenAddress) external {... */\n    tag_25:\n        /* \"MarketPlace/sells.sol\":4408:4421  bytes32 keyId */\n      0x00\n        /* \"MarketPlace/sells.sol\":4424:4465  _generatekeyId(_tokenAddress, msg.sender) */\n      tag_68\n        /* \"MarketPlace/sells.sol\":4439:4452  _tokenAddress */\n      dup3\n        /* \"MarketPlace/sells.sol\":4454:4464  msg.sender */\n      caller\n        /* \"MarketPlace/sells.sol\":4424:4438  _generatekeyId */\n      tag_19\n        /* \"MarketPlace/sells.sol\":4424:4465  _generatekeyId(_tokenAddress, msg.sender) */\n      jump\t// in\n    tag_68:\n        /* \"MarketPlace/sells.sol\":4408:4465  bytes32 keyId = _generatekeyId(_tokenAddress, msg.sender) */\n      swap1\n      pop\n        /* \"MarketPlace/sells.sol\":4475:4492  uint256 listingId */\n      0x00\n        /* \"MarketPlace/sells.sol\":4495:4505  listingKey */\n      0x05\n        /* \"MarketPlace/sells.sol\":4495:4512  listingKey[keyId] */\n      0x00\n        /* \"MarketPlace/sells.sol\":4506:4511  keyId */\n      dup4\n        /* \"MarketPlace/sells.sol\":4495:4512  listingKey[keyId] */\n      dup2\n      mstore\n      0x20\n      add\n      swap1\n      dup2\n      mstore\n      0x20\n      add\n      0x00\n      keccak256\n      sload\n        /* \"MarketPlace/sells.sol\":4475:4512  uint256 listingId = listingKey[keyId] */\n      swap1\n      pop\n        /* \"MarketPlace/sells.sol\":4574:4584  msg.sender */\n      caller\n        /* \"MarketPlace/sells.sol\":4544:4584  listings[listingId].seller == msg.sender */\n      0xffffffffffffffffffffffffffffffffffffffff\n      and\n        /* \"MarketPlace/sells.sol\":4544:4552  listings */\n      0x04\n        /* \"MarketPlace/sells.sol\":4544:4563  listings[listingId] */\n      0x00\n        /* \"MarketPlace/sells.sol\":4553:4562  listingId */\n      dup4\n        /* \"MarketPlace/sells.sol\":4544:4563  listings[listingId] */\n      dup2\n      mstore\n      0x20\n      add\n      swap1\n      dup2\n      mstore\n      0x20\n      add\n      0x00\n      keccak256\n        /* \"MarketPlace/sells.sol\":4544:4570  listings[listingId].seller */\n      0x00\n      add\n      0x00\n      swap1\n      sload\n      swap1\n      0x0100\n      exp\n      swap1\n      div\n      0xffffffffffffffffffffffffffffffffffffffff\n      and\n        /* \"MarketPlace/sells.sol\":4544:4584  listings[listingId].seller == msg.sender */\n      0xffffffffffffffffffffffffffffffffffffffff\n      and\n      eq\n        /* \"MarketPlace/sells.sol\":4523:4635  require(... */\n      tag_69\n      jumpi\n      mload(0x40)\n      0x08c379a000000000000000000000000000000000000000000000000000000000\n      dup2\n      mstore\n      0x04\n      add\n      tag_70\n      swap1\n      tag_71\n      jump\t// in\n    tag_70:\n      mload(0x40)\n      dup1\n      swap2\n      sub\n      swap1\n      revert\n    tag_69:\n        /* \"MarketPlace/sells.sol\":4654:4662  listings */\n      0x04\n        /* \"MarketPlace/sells.sol\":4654:4673  listings[listingId] */\n      0x00\n        /* \"MarketPlace/sells.sol\":4663:4672  listingId */\n      dup3\n        /* \"MarketPlace/sells.sol\":4654:4673  listings[listingId] */\n      dup2\n      mstore\n      0x20\n      add\n      swap1\n      dup2\n      mstore\n      0x20\n      add\n      0x00\n      keccak256\n        /* \"MarketPlace/sells.sol\":4654:4680  listings[listingId].active */\n      0x05\n      add\n      0x00\n      swap1\n      sload\n      swap1\n      0x0100\n      exp\n      swap1\n      div\n      0xff\n      and\n        /* \"MarketPlace/sells.sol\":4646:4709  require(listings[listingId].active, \"this token is not active\") */\n      tag_72\n      jumpi\n      mload(0x40)\n      0x08c379a000000000000000000000000000000000000000000000000000000000\n      dup2\n      mstore\n      0x04\n      add\n      tag_73\n      swap1\n      tag_74\n      jump\t// in\n    tag_73:\n      mload(0x40)\n      dup1\n      swap2\n      sub\n      swap1\n      revert\n    tag_72:\n        /* \"MarketPlace/sells.sol\":4749:4754  false */\n      0x00\n        /* \"MarketPlace/sells.sol\":4720:4728  listings */\n      0x04\n        /* \"MarketPlace/sells.sol\":4720:4739  listings[listingId] */\n      0x00\n        /* \"MarketPlace/sells.sol\":4729:4738  listingId */\n      dup4\n        /* \"MarketPlace/sells.sol\":4720:4739  listings[listingId] */\n      dup2\n      mstore\n      0x20\n      add\n      swap1\n      dup2\n      mstore\n      0x20\n      add\n      0x00\n      keccak256\n        /* \"MarketPlace/sells.sol\":4720:4746  listings[listingId].active */\n      0x05\n      add\n      0x00\n        /* \"MarketPlace/sells.sol\":4720:4754  listings[listingId].active = false */\n      0x0100\n      exp\n      dup2\n      sload\n      dup2\n      0xff\n      mul\n      not\n      and\n      swap1\n      dup4\n      iszero\n      iszero\n      mul\n      or\n      swap1\n      sstore\n      pop\n        /* \"MarketPlace/sells.sol\":4398:4761  {... */\n      pop\n      pop\n        /* \"MarketPlace/sells.sol\":4343:4761  function cancelListing(address _tokenAddress) external {... */\n      pop\n      jump\t// out\n        /* \"@openzeppelin/contracts/access/Ownable.sol\":2293:2394  function renounceOwnership() public virtual onlyOwner {... */\n    tag_27:\n        /* \"@openzeppelin/contracts/access/Ownable.sol\":1531:1544  _checkOwner() */\n      tag_76\n        /* \"@openzeppelin/contracts/access/Ownable.sol\":1531:1542  _checkOwner */\n      tag_77\n        /* \"@openzeppelin/contracts/access/Ownable.sol\":1531:1544  _checkOwner() */\n      jump\t// in\n    tag_76:\n        /* \"@openzeppelin/contracts/access/Ownable.sol\":2357:2387  _transferOwnership(address(0)) */\n      tag_79\n        /* \"@openzeppelin/contracts/access/Ownable.sol\":2384:2385  0 */\n      0x00\n        /* \"@openzeppelin/contracts/access/Ownable.sol\":2357:2375  _transferOwnership */\n      tag_80\n        /* \"@openzeppelin/contracts/access/Ownable.sol\":2357:2387  _transferOwnership(address(0)) */\n      jump\t// in\n    tag_79:\n        /* \"@openzeppelin/contracts/access/Ownable.sol\":2293:2394  function renounceOwnership() public virtual onlyOwner {... */\n      jump\t// out\n        /* \"MarketPlace/sells.sol\":368:393  uint256 public feePercent */\n    tag_29:\n      sload(0x02)\n      dup2\n      jump\t// out\n        /* \"@openzeppelin/contracts/access/Ownable.sol\":1638:1723  function owner() public view virtual returns (address) {... */\n    tag_33:\n        /* \"@openzeppelin/contracts/access/Ownable.sol\":1684:1691  address */\n      0x00\n        /* \"@openzeppelin/contracts/access/Ownable.sol\":1710:1716  _owner */\n      dup1\n      0x00\n      swap1\n      sload\n      swap1\n      0x0100\n      exp\n      swap1\n      div\n      0xffffffffffffffffffffffffffffffffffffffff\n      and\n        /* \"@openzeppelin/contracts/access/Ownable.sol\":1703:1716  return _owner */\n      swap1\n      pop\n        /* \"@openzeppelin/contracts/access/Ownable.sol\":1638:1723  function owner() public view virtual returns (address) {... */\n      swap1\n      jump\t// out\n        /* \"MarketPlace/sells.sol\":4142:4337  function tokenBalanceByAddress(address _tokenAddress, address _account)... */\n    tag_38:\n        /* \"MarketPlace/sells.sol\":4259:4266  uint256 */\n      0x00\n        /* \"MarketPlace/sells.sol\":4296:4309  _tokenAddress */\n      dup3\n        /* \"MarketPlace/sells.sol\":4289:4320  IERC20(_tokenAddress).balanceOf */\n      0xffffffffffffffffffffffffffffffffffffffff\n      and\n      0x70a08231\n        /* \"MarketPlace/sells.sol\":4321:4329  _account */\n      dup4\n        /* \"MarketPlace/sells.sol\":4289:4330  IERC20(_tokenAddress).balanceOf(_account) */\n      mload(0x40)\n      dup3\n      0xffffffff\n      and\n      0xe0\n      shl\n      dup2\n      mstore\n      0x04\n      add\n      tag_83\n      swap2\n      swap1\n      tag_35\n      jump\t// in\n    tag_83:\n      0x20\n      mload(0x40)\n      dup1\n      dup4\n      sub\n      dup2\n      dup7\n      gas\n      staticcall\n      iszero\n      dup1\n      iszero\n      tag_85\n      jumpi\n      returndatasize\n      0x00\n      dup1\n      returndatacopy\n      revert(0x00, returndatasize)\n    tag_85:\n      pop\n      pop\n      pop\n      pop\n      mload(0x40)\n      returndatasize\n      not(0x1f)\n      0x1f\n      dup3\n      add\n      and\n      dup3\n      add\n      dup1\n      0x40\n      mstore\n      pop\n      dup2\n      add\n      swap1\n      tag_86\n      swap2\n      swap1\n      tag_87\n      jump\t// in\n    tag_86:\n        /* \"MarketPlace/sells.sol\":4282:4330  return IERC20(_tokenAddress).balanceOf(_account) */\n      swap1\n      pop\n        /* \"MarketPlace/sells.sol\":4142:4337  function tokenBalanceByAddress(address _tokenAddress, address _account)... */\n      swap3\n      swap2\n      pop\n      pop\n      jump\t// out\n        /* \"MarketPlace/sells.sol\":831:876  mapping(bytes32 => uint256) public listingKey */\n    tag_43:\n      mstore(0x20, 0x05)\n      dup1\n      0x00\n      mstore\n      keccak256(0x00, 0x40)\n      0x00\n      swap2\n      pop\n      swap1\n      pop\n      sload\n      dup2\n      jump\t// out\n        /* \"MarketPlace/sells.sol\":399:426  address public feeCollector */\n    tag_46:\n      0x03\n      0x00\n      swap1\n      sload\n      swap1\n      0x0100\n      exp\n      swap1\n      div\n      0xffffffffffffffffffffffffffffffffffffffff\n      and\n      dup2\n      jump\t// out\n        /* \"MarketPlace/sells.sol\":1973:4136  function creatListing(... */\n    tag_51:\n        /* \"@openzeppelin/contracts/security/ReentrancyGuard.sol\":2261:2282  _nonReentrantBefore() */\n      tag_89\n        /* \"@openzeppelin/contracts/security/ReentrancyGuard.sol\":2261:2280  _nonReentrantBefore */\n      tag_90\n        /* \"@openzeppelin/contracts/security/ReentrancyGuard.sol\":2261:2282  _nonReentrantBefore() */\n      jump\t// in\n    tag_89:\n        /* \"MarketPlace/sells.sol\":2154:2155  0 */\n      0x00\n        /* \"MarketPlace/sells.sol\":2129:2156  _tokenAddress != address(0) */\n      0xffffffffffffffffffffffffffffffffffffffff\n      and\n        /* \"MarketPlace/sells.sol\":2129:2142  _tokenAddress */\n      dup4\n        /* \"MarketPlace/sells.sol\":2129:2156  _tokenAddress != address(0) */\n      0xffffffffffffffffffffffffffffffffffffffff\n      and\n      sub\n        /* \"MarketPlace/sells.sol\":2121:2174  require(_tokenAddress != address(0), \"Invalid token\") */\n      tag_92\n      jumpi\n      mload(0x40)\n      0x08c379a000000000000000000000000000000000000000000000000000000000\n      dup2\n      mstore\n      0x04\n      add\n      tag_93\n      swap1\n      tag_94\n      jump\t// in\n    tag_93:\n      mload(0x40)\n      dup1\n      swap2\n      sub\n      swap1\n      revert\n    tag_92:\n        /* \"MarketPlace/sells.sol\":2202:2203  0 */\n      0x00\n        /* \"MarketPlace/sells.sol\":2192:2199  _amount */\n      dup3\n        /* \"MarketPlace/sells.sol\":2192:2203  _amount > 0 */\n      gt\n        /* \"MarketPlace/sells.sol\":2184:2236  require(_amount > 0, \"Token amount can not be zero\") */\n      tag_95\n      jumpi\n      mload(0x40)\n      0x08c379a000000000000000000000000000000000000000000000000000000000\n      dup2\n      mstore\n      0x04\n      add\n      tag_96\n      swap1\n      tag_97\n      jump\t// in\n    tag_96:\n      mload(0x40)\n      dup1\n      swap2\n      sub\n      swap1\n      revert\n    tag_95:\n        /* \"MarketPlace/sells.sol\":2271:2272  0 */\n      0x00\n        /* \"MarketPlace/sells.sol\":2254:2268  _pricePerToken */\n      dup2\n        /* \"MarketPlace/sells.sol\":2254:2272  _pricePerToken > 0 */\n      gt\n        /* \"MarketPlace/sells.sol\":2246:2304  require(_pricePerToken > 0, \"Token price can not be zero\") */\n      tag_98\n      jumpi\n      mload(0x40)\n      0x08c379a000000000000000000000000000000000000000000000000000000000\n      dup2\n      mstore\n      0x04\n      add\n      tag_99\n      swap1\n      tag_100\n      jump\t// in\n    tag_99:\n      mload(0x40)\n      dup1\n      swap2\n      sub\n      swap1\n      revert\n    tag_98:\n        /* \"MarketPlace/sells.sol\":2386:2387  0 */\n      0x00\n        /* \"MarketPlace/sells.sol\":2336:2383  chekApproveAllowance(_tokenAddress, msg.sender) */\n      tag_101\n        /* \"MarketPlace/sells.sol\":2357:2370  _tokenAddress */\n      dup5\n        /* \"MarketPlace/sells.sol\":2372:2382  msg.sender */\n      caller\n        /* \"MarketPlace/sells.sol\":2336:2356  chekApproveAllowance */\n      tag_102\n        /* \"MarketPlace/sells.sol\":2336:2383  chekApproveAllowance(_tokenAddress, msg.sender) */\n      jump\t// in\n    tag_101:\n        /* \"MarketPlace/sells.sol\":2336:2387  chekApproveAllowance(_tokenAddress, msg.sender) > 0 */\n      gt\n        /* \"MarketPlace/sells.sol\":2315:2462  require(... */\n      tag_103\n      jumpi\n      mload(0x40)\n      0x08c379a000000000000000000000000000000000000000000000000000000000\n      dup2\n      mstore\n      0x04\n      add\n      tag_104\n      swap1\n      tag_105\n      jump\t// in\n    tag_104:\n      mload(0x40)\n      dup1\n      swap2\n      sub\n      swap1\n      revert\n    tag_103:\n        /* \"MarketPlace/sells.sol\":2617:2624  _amount */\n      dup2\n        /* \"MarketPlace/sells.sol\":2566:2613  chekApproveAllowance(_tokenAddress, msg.sender) */\n      tag_106\n        /* \"MarketPlace/sells.sol\":2587:2600  _tokenAddress */\n      dup5\n        /* \"MarketPlace/sells.sol\":2602:2612  msg.sender */\n      caller\n        /* \"MarketPlace/sells.sol\":2566:2586  chekApproveAllowance */\n      tag_102\n        /* \"MarketPlace/sells.sol\":2566:2613  chekApproveAllowance(_tokenAddress, msg.sender) */\n      jump\t// in\n    tag_106:\n        /* \"MarketPlace/sells.sol\":2566:2624  chekApproveAllowance(_tokenAddress, msg.sender) >= _amount */\n      lt\n      iszero\n        /* \"MarketPlace/sells.sol\":2545:2669  require(... */\n      tag_107\n      jumpi\n      mload(0x40)\n      0x08c379a000000000000000000000000000000000000000000000000000000000\n      dup2\n      mstore\n      0x04\n      add\n      tag_108\n      swap1\n      tag_109\n      jump\t// in\n    tag_108:\n      mload(0x40)\n      dup1\n      swap2\n      sub\n      swap1\n      revert\n    tag_107:\n        /* \"MarketPlace/sells.sol\":2716:2728  IERC20 token */\n      0x00\n        /* \"MarketPlace/sells.sol\":2738:2751  _tokenAddress */\n      dup4\n        /* \"MarketPlace/sells.sol\":2716:2752  IERC20 token = IERC20(_tokenAddress) */\n      swap1\n      pop\n        /* \"MarketPlace/sells.sol\":2762:2773  uint256 fee */\n      0x00\n        /* \"MarketPlace/sells.sol\":2801:2804  100 */\n      0x64\n        /* \"MarketPlace/sells.sol\":2790:2797  _amount */\n      dup5\n        /* \"MarketPlace/sells.sol\":2777:2787  feePercent */\n      sload(0x02)\n        /* \"MarketPlace/sells.sol\":2777:2797  feePercent * _amount */\n      tag_110\n      swap2\n      swap1\n      tag_111\n      jump\t// in\n    tag_110:\n        /* \"MarketPlace/sells.sol\":2776:2804  (feePercent * _amount) / 100 */\n      tag_112\n      swap2\n      swap1\n      tag_113\n      jump\t// in\n    tag_112:\n        /* \"MarketPlace/sells.sol\":2762:2804  uint256 fee = (feePercent * _amount) / 100 */\n      swap1\n      pop\n        /* \"MarketPlace/sells.sol\":2836:2841  token */\n      dup2\n        /* \"MarketPlace/sells.sol\":2836:2854  token.transferFrom */\n      0xffffffffffffffffffffffffffffffffffffffff\n      and\n      0x23b872dd\n        /* \"MarketPlace/sells.sol\":2855:2865  msg.sender */\n      caller\n        /* \"MarketPlace/sells.sol\":2875:2879  this */\n      address\n        /* \"MarketPlace/sells.sol\":2892:2895  fee */\n      dup5\n        /* \"MarketPlace/sells.sol\":2882:2889  _amount */\n      dup9\n        /* \"MarketPlace/sells.sol\":2882:2895  _amount - fee */\n      tag_114\n      swap2\n      swap1\n      tag_115\n      jump\t// in\n    tag_114:\n        /* \"MarketPlace/sells.sol\":2836:2896  token.transferFrom(msg.sender, address(this), _amount - fee) */\n      mload(0x40)\n      dup5\n      0xffffffff\n      and\n      0xe0\n      shl\n      dup2\n      mstore\n      0x04\n      add\n      tag_116\n      swap4\n      swap3\n      swap2\n      swap1\n      tag_117\n      jump\t// in\n    tag_116:\n      0x20\n      mload(0x40)\n      dup1\n      dup4\n      sub\n      dup2\n      0x00\n      dup8\n      gas\n      call\n      iszero\n      dup1\n      iszero\n      tag_119\n      jumpi\n      returndatasize\n      0x00\n      dup1\n      returndatacopy\n      revert(0x00, returndatasize)\n    tag_119:\n      pop\n      pop\n      pop\n      pop\n      mload(0x40)\n      returndatasize\n      not(0x1f)\n      0x1f\n      dup3\n      add\n      and\n      dup3\n      add\n      dup1\n      0x40\n      mstore\n      pop\n      dup2\n      add\n      swap1\n      tag_120\n      swap2\n      swap1\n      tag_121\n      jump\t// in\n    tag_120:\n        /* \"MarketPlace/sells.sol\":2815:2953  require(... */\n      tag_122\n      jumpi\n      mload(0x40)\n      0x08c379a000000000000000000000000000000000000000000000000000000000\n      dup2\n      mstore\n      0x04\n      add\n      tag_123\n      swap1\n      tag_124\n      jump\t// in\n    tag_123:\n      mload(0x40)\n      dup1\n      swap2\n      sub\n      swap1\n      revert\n    tag_122:\n        /* \"MarketPlace/sells.sol\":2964:2977  bytes32 keyId */\n      0x00\n        /* \"MarketPlace/sells.sol\":2980:3021  _generatekeyId(_tokenAddress, msg.sender) */\n      tag_125\n        /* \"MarketPlace/sells.sol\":2995:3008  _tokenAddress */\n      dup7\n        /* \"MarketPlace/sells.sol\":3010:3020  msg.sender */\n      caller\n        /* \"MarketPlace/sells.sol\":2980:2994  _generatekeyId */\n      tag_19\n        /* \"MarketPlace/sells.sol\":2980:3021  _generatekeyId(_tokenAddress, msg.sender) */\n      jump\t// in\n    tag_125:\n        /* \"MarketPlace/sells.sol\":2964:3021  bytes32 keyId = _generatekeyId(_tokenAddress, msg.sender) */\n      swap1\n      pop\n        /* \"MarketPlace/sells.sol\":3057:3058  0 */\n      0x00\n        /* \"MarketPlace/sells.sol\":3036:3046  listingKey */\n      0x05\n        /* \"MarketPlace/sells.sol\":3036:3053  listingKey[keyId] */\n      0x00\n        /* \"MarketPlace/sells.sol\":3047:3052  keyId */\n      dup4\n        /* \"MarketPlace/sells.sol\":3036:3053  listingKey[keyId] */\n      dup2\n      mstore\n      0x20\n      add\n      swap1\n      dup2\n      mstore\n      0x20\n      add\n      0x00\n      keccak256\n      sload\n        /* \"MarketPlace/sells.sol\":3036:3058  listingKey[keyId] == 0 */\n      sub\n        /* \"MarketPlace/sells.sol\":3032:4130  if (listingKey[keyId] == 0) {... */\n      tag_126\n      jumpi\n        /* \"MarketPlace/sells.sol\":3100:3385  Listing({... */\n      mload(0x40)\n      dup1\n      0xc0\n      add\n      0x40\n      mstore\n      dup1\n        /* \"MarketPlace/sells.sol\":3134:3144  msg.sender */\n      caller\n        /* \"MarketPlace/sells.sol\":3100:3385  Listing({... */\n      0xffffffffffffffffffffffffffffffffffffffff\n      and\n      dup2\n      mstore\n      0x20\n      add\n        /* \"MarketPlace/sells.sol\":3241:3254  _tokenAddress */\n      dup8\n        /* \"MarketPlace/sells.sol\":3100:3385  Listing({... */\n      0xffffffffffffffffffffffffffffffffffffffff\n      and\n      dup2\n      mstore\n      0x20\n      add\n        /* \"MarketPlace/sells.sol\":3188:3201  _tokenAddress */\n      dup8\n        /* \"MarketPlace/sells.sol\":3173:3207  IERC20Metadata(_tokenAddress).name */\n      0xffffffffffffffffffffffffffffffffffffffff\n      and\n      0x06fdde03\n        /* \"MarketPlace/sells.sol\":3173:3209  IERC20Metadata(_tokenAddress).name() */\n      mload(0x40)\n      dup2\n      0xffffffff\n      and\n      0xe0\n      shl\n      dup2\n      mstore\n      0x04\n      add\n      0x00\n      mload(0x40)\n      dup1\n      dup4\n      sub\n      dup2\n      dup7\n      gas\n      staticcall\n      iszero\n      dup1\n      iszero\n      tag_128\n      jumpi\n      returndatasize\n      0x00\n      dup1\n      returndatacopy\n      revert(0x00, returndatasize)\n    tag_128:\n      pop\n      pop\n      pop\n      pop\n      mload(0x40)\n      returndatasize\n      0x00\n      dup3\n      returndatacopy\n      returndatasize\n      not(0x1f)\n      0x1f\n      dup3\n      add\n      and\n      dup3\n      add\n      dup1\n      0x40\n      mstore\n      pop\n      dup2\n      add\n      swap1\n      tag_129\n      swap2\n      swap1\n      tag_130\n      jump\t// in\n    tag_129:\n        /* \"MarketPlace/sells.sol\":3100:3385  Listing({... */\n      dup2\n      mstore\n      0x20\n      add\n        /* \"MarketPlace/sells.sol\":3290:3293  fee */\n      dup4\n        /* \"MarketPlace/sells.sol\":3280:3287  _amount */\n      dup8\n        /* \"MarketPlace/sells.sol\":3280:3293  _amount - fee */\n      tag_131\n      swap2\n      swap1\n      tag_115\n      jump\t// in\n    tag_131:\n        /* \"MarketPlace/sells.sol\":3100:3385  Listing({... */\n      dup2\n      mstore\n      0x20\n      add\n        /* \"MarketPlace/sells.sol\":3326:3340  _pricePerToken */\n      dup6\n        /* \"MarketPlace/sells.sol\":3100:3385  Listing({... */\n      dup2\n      mstore\n      0x20\n      add\n        /* \"MarketPlace/sells.sol\":3366:3370  true */\n      0x01\n        /* \"MarketPlace/sells.sol\":3100:3385  Listing({... */\n      iszero\n      iszero\n      dup2\n      mstore\n      pop\n        /* \"MarketPlace/sells.sol\":3074:3082  listings */\n      0x04\n        /* \"MarketPlace/sells.sol\":3074:3097  listings[nextListingId] */\n      0x00\n        /* \"MarketPlace/sells.sol\":3083:3096  nextListingId */\n      sload(0x06)\n        /* \"MarketPlace/sells.sol\":3074:3097  listings[nextListingId] */\n      dup2\n      mstore\n      0x20\n      add\n      swap1\n      dup2\n      mstore\n      0x20\n      add\n      0x00\n      keccak256\n        /* \"MarketPlace/sells.sol\":3074:3385  listings[nextListingId] = Listing({... */\n      0x00\n      dup3\n      add\n      mload\n      dup2\n      0x00\n      add\n      exp(0x0100, 0x00)\n      dup2\n      sload\n      dup2\n      0xffffffffffffffffffffffffffffffffffffffff\n      mul\n      not\n      and\n      swap1\n      dup4\n      0xffffffffffffffffffffffffffffffffffffffff\n      and\n      mul\n      or\n      swap1\n      sstore\n      pop\n      0x20\n      dup3\n      add\n      mload\n      dup2\n      0x01\n      add\n      exp(0x0100, 0x00)\n      dup2\n      sload\n      dup2\n      0xffffffffffffffffffffffffffffffffffffffff\n      mul\n      not\n      and\n      swap1\n      dup4\n      0xffffffffffffffffffffffffffffffffffffffff\n      and\n      mul\n      or\n      swap1\n      sstore\n      pop\n      0x40\n      dup3\n      add\n      mload\n      dup2\n      0x02\n      add\n      swap1\n      dup2\n      tag_132\n      swap2\n      swap1\n      tag_133\n      jump\t// in\n    tag_132:\n      pop\n      0x60\n      dup3\n      add\n      mload\n      dup2\n      0x03\n      add\n      sstore\n      0x80\n      dup3\n      add\n      mload\n      dup2\n      0x04\n      add\n      sstore\n      0xa0\n      dup3\n      add\n      mload\n      dup2\n      0x05\n      add\n      exp(0x0100, 0x00)\n      dup2\n      sload\n      dup2\n      0xff\n      mul\n      not\n      and\n      swap1\n      dup4\n      iszero\n      iszero\n      mul\n      or\n      swap1\n      sstore\n      pop\n      swap1\n      pop\n      pop\n        /* \"MarketPlace/sells.sol\":3424:3429  token */\n      dup3\n        /* \"MarketPlace/sells.sol\":3424:3442  token.transferFrom */\n      0xffffffffffffffffffffffffffffffffffffffff\n      and\n      0x23b872dd\n        /* \"MarketPlace/sells.sol\":3443:3453  msg.sender */\n      caller\n        /* \"MarketPlace/sells.sol\":3455:3467  feeCollector */\n      0x03\n      0x00\n      swap1\n      sload\n      swap1\n      0x0100\n      exp\n      swap1\n      div\n      0xffffffffffffffffffffffffffffffffffffffff\n      and\n        /* \"MarketPlace/sells.sol\":3469:3472  fee */\n      dup6\n        /* \"MarketPlace/sells.sol\":3424:3473  token.transferFrom(msg.sender, feeCollector, fee) */\n      mload(0x40)\n      dup5\n      0xffffffff\n      and\n      0xe0\n      shl\n      dup2\n      mstore\n      0x04\n      add\n      tag_134\n      swap4\n      swap3\n      swap2\n      swap1\n      tag_117\n      jump\t// in\n    tag_134:\n      0x20\n      mload(0x40)\n      dup1\n      dup4\n      sub\n      dup2\n      0x00\n      dup8\n      gas\n      call\n      iszero\n      dup1\n      iszero\n      tag_136\n      jumpi\n      returndatasize\n      0x00\n      dup1\n      returndatacopy\n      revert(0x00, returndatasize)\n    tag_136:\n      pop\n      pop\n      pop\n      pop\n      mload(0x40)\n      returndatasize\n      not(0x1f)\n      0x1f\n      dup3\n      add\n      and\n      dup3\n      add\n      dup1\n      0x40\n      mstore\n      pop\n      dup2\n      add\n      swap1\n      tag_137\n      swap2\n      swap1\n      tag_121\n      jump\t// in\n    tag_137:\n        /* \"MarketPlace/sells.sol\":3399:3545  require(... */\n      tag_138\n      jumpi\n      mload(0x40)\n      0x08c379a000000000000000000000000000000000000000000000000000000000\n      dup2\n      mstore\n      0x04\n      add\n      tag_139\n      swap1\n      tag_140\n      jump\t// in\n    tag_139:\n      mload(0x40)\n      dup1\n      swap2\n      sub\n      swap1\n      revert\n    tag_138:\n        /* \"MarketPlace/sells.sol\":3580:3593  nextListingId */\n      sload(0x06)\n        /* \"MarketPlace/sells.sol\":3560:3570  listingKey */\n      0x05\n        /* \"MarketPlace/sells.sol\":3560:3577  listingKey[keyId] */\n      0x00\n        /* \"MarketPlace/sells.sol\":3571:3576  keyId */\n      dup4\n        /* \"MarketPlace/sells.sol\":3560:3577  listingKey[keyId] */\n      dup2\n      mstore\n      0x20\n      add\n      swap1\n      dup2\n      mstore\n      0x20\n      add\n      0x00\n      keccak256\n        /* \"MarketPlace/sells.sol\":3560:3593  listingKey[keyId] = nextListingId */\n      dup2\n      swap1\n      sstore\n      pop\n        /* \"MarketPlace/sells.sol\":3607:3620  nextListingId */\n      0x06\n      0x00\n        /* \"MarketPlace/sells.sol\":3607:3622  nextListingId++ */\n      dup2\n      sload\n      dup1\n      swap3\n      swap2\n      swap1\n      tag_141\n      swap1\n      tag_142\n      jump\t// in\n    tag_141:\n      swap2\n      swap1\n      pop\n      sstore\n      pop\n        /* \"MarketPlace/sells.sol\":3032:4130  if (listingKey[keyId] == 0) {... */\n      jump(tag_143)\n    tag_126:\n        /* \"MarketPlace/sells.sol\":3653:3670  uint256 listingId */\n      0x00\n        /* \"MarketPlace/sells.sol\":3673:3683  listingKey */\n      0x05\n        /* \"MarketPlace/sells.sol\":3673:3690  listingKey[keyId] */\n      0x00\n        /* \"MarketPlace/sells.sol\":3684:3689  keyId */\n      dup4\n        /* \"MarketPlace/sells.sol\":3673:3690  listingKey[keyId] */\n      dup2\n      mstore\n      0x20\n      add\n      swap1\n      dup2\n      mstore\n      0x20\n      add\n      0x00\n      keccak256\n      sload\n        /* \"MarketPlace/sells.sol\":3653:3690  uint256 listingId = listingKey[keyId] */\n      swap1\n      pop\n        /* \"MarketPlace/sells.sol\":3729:3737  listings */\n      0x04\n        /* \"MarketPlace/sells.sol\":3729:3748  listings[listingId] */\n      0x00\n        /* \"MarketPlace/sells.sol\":3738:3747  listingId */\n      dup3\n        /* \"MarketPlace/sells.sol\":3729:3748  listings[listingId] */\n      dup2\n      mstore\n      0x20\n      add\n      swap1\n      dup2\n      mstore\n      0x20\n      add\n      0x00\n      keccak256\n        /* \"MarketPlace/sells.sol\":3729:3755  listings[listingId].active */\n      0x05\n      add\n      0x00\n      swap1\n      sload\n      swap1\n      0x0100\n      exp\n      swap1\n      div\n      0xff\n      and\n        /* \"MarketPlace/sells.sol\":3704:3836  require(... */\n      tag_144\n      jumpi\n      mload(0x40)\n      0x08c379a000000000000000000000000000000000000000000000000000000000\n      dup2\n      mstore\n      0x04\n      add\n      tag_145\n      swap1\n      tag_146\n      jump\t// in\n    tag_145:\n      mload(0x40)\n      dup1\n      swap2\n      sub\n      swap1\n      revert\n    tag_144:\n        /* \"MarketPlace/sells.sol\":3891:3894  fee */\n      dup3\n        /* \"MarketPlace/sells.sol\":3881:3888  _amount */\n      dup7\n        /* \"MarketPlace/sells.sol\":3881:3894  _amount - fee */\n      tag_147\n      swap2\n      swap1\n      tag_115\n      jump\t// in\n    tag_147:\n        /* \"MarketPlace/sells.sol\":3851:3859  listings */\n      0x04\n        /* \"MarketPlace/sells.sol\":3851:3870  listings[listingId] */\n      0x00\n        /* \"MarketPlace/sells.sol\":3860:3869  listingId */\n      dup4\n        /* \"MarketPlace/sells.sol\":3851:3870  listings[listingId] */\n      dup2\n      mstore\n      0x20\n      add\n      swap1\n      dup2\n      mstore\n      0x20\n      add\n      0x00\n      keccak256\n        /* \"MarketPlace/sells.sol\":3851:3877  listings[listingId].amount */\n      0x03\n      add\n      0x00\n        /* \"MarketPlace/sells.sol\":3851:3894  listings[listingId].amount += _amount - fee */\n      dup3\n      dup3\n      sload\n      tag_148\n      swap2\n      swap1\n      tag_149\n      jump\t// in\n    tag_148:\n      swap3\n      pop\n      pop\n      dup2\n      swap1\n      sstore\n      pop\n        /* \"MarketPlace/sells.sol\":3944:3958  _pricePerToken */\n      dup5\n        /* \"MarketPlace/sells.sol\":3908:3916  listings */\n      0x04\n        /* \"MarketPlace/sells.sol\":3908:3927  listings[listingId] */\n      0x00\n        /* \"MarketPlace/sells.sol\":3917:3926  listingId */\n      dup4\n        /* \"MarketPlace/sells.sol\":3908:3927  listings[listingId] */\n      dup2\n      mstore\n      0x20\n      add\n      swap1\n      dup2\n      mstore\n      0x20\n      add\n      0x00\n      keccak256\n        /* \"MarketPlace/sells.sol\":3908:3941  listings[listingId].pricePerToken */\n      0x04\n      add\n        /* \"MarketPlace/sells.sol\":3908:3958  listings[listingId].pricePerToken = _pricePerToken */\n      dup2\n      swap1\n      sstore\n      pop\n        /* \"MarketPlace/sells.sol\":3998:4003  token */\n      dup4\n        /* \"MarketPlace/sells.sol\":3998:4016  token.transferFrom */\n      0xffffffffffffffffffffffffffffffffffffffff\n      and\n      0x23b872dd\n        /* \"MarketPlace/sells.sol\":4017:4027  msg.sender */\n      caller\n        /* \"MarketPlace/sells.sol\":4029:4041  feeCollector */\n      0x03\n      0x00\n      swap1\n      sload\n      swap1\n      0x0100\n      exp\n      swap1\n      div\n      0xffffffffffffffffffffffffffffffffffffffff\n      and\n        /* \"MarketPlace/sells.sol\":4043:4046  fee */\n      dup7\n        /* \"MarketPlace/sells.sol\":3998:4047  token.transferFrom(msg.sender, feeCollector, fee) */\n      mload(0x40)\n      dup5\n      0xffffffff\n      and\n      0xe0\n      shl\n      dup2\n      mstore\n      0x04\n      add\n      tag_150\n      swap4\n      swap3\n      swap2\n      swap1\n      tag_117\n      jump\t// in\n    tag_150:\n      0x20\n      mload(0x40)\n      dup1\n      dup4\n      sub\n      dup2\n      0x00\n      dup8\n      gas\n      call\n      iszero\n      dup1\n      iszero\n      tag_152\n      jumpi\n      returndatasize\n      0x00\n      dup1\n      returndatacopy\n      revert(0x00, returndatasize)\n    tag_152:\n      pop\n      pop\n      pop\n      pop\n      mload(0x40)\n      returndatasize\n      not(0x1f)\n      0x1f\n      dup3\n      add\n      and\n      dup3\n      add\n      dup1\n      0x40\n      mstore\n      pop\n      dup2\n      add\n      swap1\n      tag_153\n      swap2\n      swap1\n      tag_121\n      jump\t// in\n    tag_153:\n        /* \"MarketPlace/sells.sol\":3973:4119  require(... */\n      tag_154\n      jumpi\n      mload(0x40)\n      0x08c379a000000000000000000000000000000000000000000000000000000000\n      dup2\n      mstore\n      0x04\n      add\n      tag_155\n      swap1\n      tag_140\n      jump\t// in\n    tag_155:\n      mload(0x40)\n      dup1\n      swap2\n      sub\n      swap1\n      revert\n    tag_154:\n        /* \"MarketPlace/sells.sol\":3639:4130  {... */\n      pop\n        /* \"MarketPlace/sells.sol\":3032:4130  if (listingKey[keyId] == 0) {... */\n    tag_143:\n        /* \"MarketPlace/sells.sol\":2111:4136  {... */\n      pop\n      pop\n      pop\n        /* \"@openzeppelin/contracts/security/ReentrancyGuard.sol\":2303:2323  _nonReentrantAfter() */\n      tag_156\n        /* \"@openzeppelin/contracts/security/ReentrancyGuard.sol\":2303:2321  _nonReentrantAfter */\n      tag_157\n        /* \"@openzeppelin/contracts/security/ReentrancyGuard.sol\":2303:2323  _nonReentrantAfter() */\n      jump\t// in\n    tag_156:\n        /* \"MarketPlace/sells.sol\":1973:4136  function creatListing(... */\n      pop\n      pop\n      pop\n      jump\t// out\n        /* \"MarketPlace/sells.sol\":678:721  mapping(uint256 => Listing) public listings */\n    tag_55:\n      mstore(0x20, 0x04)\n      dup1\n      0x00\n      mstore\n      keccak256(0x00, 0x40)\n      0x00\n      swap2\n      pop\n      swap1\n      pop\n      dup1\n      0x00\n      add\n      0x00\n      swap1\n      sload\n      swap1\n      0x0100\n      exp\n      swap1\n      div\n      0xffffffffffffffffffffffffffffffffffffffff\n      and\n      swap1\n      dup1\n      0x01\n      add\n      0x00\n      swap1\n      sload\n      swap1\n      0x0100\n      exp\n      swap1\n      div\n      0xffffffffffffffffffffffffffffffffffffffff\n      and\n      swap1\n      dup1\n      0x02\n      add\n      dup1\n      sload\n      tag_158\n      swap1\n      tag_159\n      jump\t// in\n    tag_158:\n      dup1\n      0x1f\n      add\n      0x20\n      dup1\n      swap2\n      div\n      mul\n      0x20\n      add\n      mload(0x40)\n      swap1\n      dup2\n      add\n      0x40\n      mstore\n      dup1\n      swap3\n      swap2\n      swap1\n      dup2\n      dup2\n      mstore\n      0x20\n      add\n      dup3\n      dup1\n      sload\n      tag_160\n      swap1\n      tag_159\n      jump\t// in\n    tag_160:\n      dup1\n      iszero\n      tag_161\n      jumpi\n      dup1\n      0x1f\n      lt\n      tag_162\n      jumpi\n      0x0100\n      dup1\n      dup4\n      sload\n      div\n      mul\n      dup4\n      mstore\n      swap2\n      0x20\n      add\n      swap2\n      jump(tag_161)\n    tag_162:\n      dup3\n      add\n      swap2\n      swap1\n      0x00\n      mstore\n      keccak256(0x00, 0x20)\n      swap1\n    tag_163:\n      dup2\n      sload\n      dup2\n      mstore\n      swap1\n      0x01\n      add\n      swap1\n      0x20\n      add\n      dup1\n      dup4\n      gt\n      tag_163\n      jumpi\n      dup3\n      swap1\n      sub\n      0x1f\n      and\n      dup3\n      add\n      swap2\n    tag_161:\n      pop\n      pop\n      pop\n      pop\n      pop\n      swap1\n      dup1\n      0x03\n      add\n      sload\n      swap1\n      dup1\n      0x04\n      add\n      sload\n      swap1\n      dup1\n      0x05\n      add\n      0x00\n      swap1\n      sload\n      swap1\n      0x0100\n      exp\n      swap1\n      div\n      0xff\n      and\n      swap1\n      pop\n      dup7\n      jump\t// out\n        /* \"MarketPlace/sells.sol\":4767:5194  function reactivateListing(address _tokenAddress) external {... */\n    tag_60:\n        /* \"MarketPlace/sells.sol\":4836:4849  bytes32 keyId */\n      0x00\n        /* \"MarketPlace/sells.sol\":4852:4893  _generatekeyId(_tokenAddress, msg.sender) */\n      tag_165\n        /* \"MarketPlace/sells.sol\":4867:4880  _tokenAddress */\n      dup3\n        /* \"MarketPlace/sells.sol\":4882:4892  msg.sender */\n      caller\n        /* \"MarketPlace/sells.sol\":4852:4866  _generatekeyId */\n      tag_19\n        /* \"MarketPlace/sells.sol\":4852:4893  _generatekeyId(_tokenAddress, msg.sender) */\n      jump\t// in\n    tag_165:\n        /* \"MarketPlace/sells.sol\":4836:4893  bytes32 keyId = _generatekeyId(_tokenAddress, msg.sender) */\n      swap1\n      pop\n        /* \"MarketPlace/sells.sol\":4903:4920  uint256 listingId */\n      0x00\n        /* \"MarketPlace/sells.sol\":4923:4933  listingKey */\n      0x05\n        /* \"MarketPlace/sells.sol\":4923:4940  listingKey[keyId] */\n      0x00\n        /* \"MarketPlace/sells.sol\":4934:4939  keyId */\n      dup4\n        /* \"MarketPlace/sells.sol\":4923:4940  listingKey[keyId] */\n      dup2\n      mstore\n      0x20\n      add\n      swap1\n      dup2\n      mstore\n      0x20\n      add\n      0x00\n      keccak256\n      sload\n        /* \"MarketPlace/sells.sol\":4903:4940  uint256 listingId = listingKey[keyId] */\n      swap1\n      pop\n        /* \"MarketPlace/sells.sol\":5002:5012  msg.sender */\n      caller\n        /* \"MarketPlace/sells.sol\":4972:5012  listings[listingId].seller == msg.sender */\n      0xffffffffffffffffffffffffffffffffffffffff\n      and\n        /* \"MarketPlace/sells.sol\":4972:4980  listings */\n      0x04\n        /* \"MarketPlace/sells.sol\":4972:4991  listings[listingId] */\n      0x00\n        /* \"MarketPlace/sells.sol\":4981:4990  listingId */\n      dup4\n        /* \"MarketPlace/sells.sol\":4972:4991  listings[listingId] */\n      dup2\n      mstore\n      0x20\n      add\n      swap1\n      dup2\n      mstore\n      0x20\n      add\n      0x00\n      keccak256\n        /* \"MarketPlace/sells.sol\":4972:4998  listings[listingId].seller */\n      0x00\n      add\n      0x00\n      swap1\n      sload\n      swap1\n      0x0100\n      exp\n      swap1\n      div\n      0xffffffffffffffffffffffffffffffffffffffff\n      and\n        /* \"MarketPlace/sells.sol\":4972:5012  listings[listingId].seller == msg.sender */\n      0xffffffffffffffffffffffffffffffffffffffff\n      and\n      eq\n        /* \"MarketPlace/sells.sol\":4951:5063  require(... */\n      tag_166\n      jumpi\n      mload(0x40)\n      0x08c379a000000000000000000000000000000000000000000000000000000000\n      dup2\n      mstore\n      0x04\n      add\n      tag_167\n      swap1\n      tag_71\n      jump\t// in\n    tag_167:\n      mload(0x40)\n      dup1\n      swap2\n      sub\n      swap1\n      revert\n    tag_166:\n        /* \"MarketPlace/sells.sol\":5083:5091  listings */\n      0x04\n        /* \"MarketPlace/sells.sol\":5083:5102  listings[listingId] */\n      0x00\n        /* \"MarketPlace/sells.sol\":5092:5101  listingId */\n      dup3\n        /* \"MarketPlace/sells.sol\":5083:5102  listings[listingId] */\n      dup2\n      mstore\n      0x20\n      add\n      swap1\n      dup2\n      mstore\n      0x20\n      add\n      0x00\n      keccak256\n        /* \"MarketPlace/sells.sol\":5083:5109  listings[listingId].active */\n      0x05\n      add\n      0x00\n      swap1\n      sload\n      swap1\n      0x0100\n      exp\n      swap1\n      div\n      0xff\n      and\n        /* \"MarketPlace/sells.sol\":5082:5109  !listings[listingId].active */\n      iszero\n        /* \"MarketPlace/sells.sol\":5074:5143  require(!listings[listingId].active, \"this token is already active.\") */\n      tag_168\n      jumpi\n      mload(0x40)\n      0x08c379a000000000000000000000000000000000000000000000000000000000\n      dup2\n      mstore\n      0x04\n      add\n      tag_169\n      swap1\n      tag_170\n      jump\t// in\n    tag_169:\n      mload(0x40)\n      dup1\n      swap2\n      sub\n      swap1\n      revert\n    tag_168:\n        /* \"MarketPlace/sells.sol\":5183:5187  true */\n      0x01\n        /* \"MarketPlace/sells.sol\":5154:5162  listings */\n      0x04\n        /* \"MarketPlace/sells.sol\":5154:5173  listings[listingId] */\n      0x00\n        /* \"MarketPlace/sells.sol\":5163:5172  listingId */\n      dup4\n        /* \"MarketPlace/sells.sol\":5154:5173  listings[listingId] */\n      dup2\n      mstore\n      0x20\n      add\n      swap1\n      dup2\n      mstore\n      0x20\n      add\n      0x00\n      keccak256\n        /* \"MarketPlace/sells.sol\":5154:5180  listings[listingId].active */\n      0x05\n      add\n      0x00\n        /* \"MarketPlace/sells.sol\":5154:5187  listings[listingId].active = true */\n      0x0100\n      exp\n      dup2\n      sload\n      dup2\n      0xff\n      mul\n      not\n      and\n      swap1\n      dup4\n      iszero\n      iszero\n      mul\n      or\n      swap1\n      sstore\n      pop\n        /* \"MarketPlace/sells.sol\":4826:5194  {... */\n      pop\n      pop\n        /* \"MarketPlace/sells.sol\":4767:5194  function reactivateListing(address _tokenAddress) external {... */\n      pop\n      jump\t// out\n        /* \"@openzeppelin/contracts/access/Ownable.sol\":2543:2758  function transferOwnership(address newOwner) public virtual onlyOwner {... */\n    tag_63:\n        /* \"@openzeppelin/contracts/access/Ownable.sol\":1531:1544  _checkOwner() */\n      tag_172\n        /* \"@openzeppelin/contracts/access/Ownable.sol\":1531:1542  _checkOwner */\n      tag_77\n        /* \"@openzeppelin/contracts/access/Ownable.sol\":1531:1544  _checkOwner() */\n      jump\t// in\n    tag_172:\n        /* \"@openzeppelin/contracts/access/Ownable.sol\":2647:2648  0 */\n      0x00\n        /* \"@openzeppelin/contracts/access/Ownable.sol\":2627:2649  newOwner == address(0) */\n      0xffffffffffffffffffffffffffffffffffffffff\n      and\n        /* \"@openzeppelin/contracts/access/Ownable.sol\":2627:2635  newOwner */\n      dup2\n        /* \"@openzeppelin/contracts/access/Ownable.sol\":2627:2649  newOwner == address(0) */\n      0xffffffffffffffffffffffffffffffffffffffff\n      and\n      sub\n        /* \"@openzeppelin/contracts/access/Ownable.sol\":2623:2714  if (newOwner == address(0)) {... */\n      tag_174\n      jumpi\n        /* \"@openzeppelin/contracts/access/Ownable.sol\":2700:2701  0 */\n      0x00\n        /* \"@openzeppelin/contracts/access/Ownable.sol\":2672:2703  OwnableInvalidOwner(address(0)) */\n      mload(0x40)\n      0x1e4fbdf700000000000000000000000000000000000000000000000000000000\n      dup2\n      mstore\n      0x04\n      add\n      tag_175\n      swap2\n      swap1\n      tag_35\n      jump\t// in\n    tag_175:\n      mload(0x40)\n      dup1\n      swap2\n      sub\n      swap1\n      revert\n        /* \"@openzeppelin/contracts/access/Ownable.sol\":2623:2714  if (newOwner == address(0)) {... */\n    tag_174:\n        /* \"@openzeppelin/contracts/access/Ownable.sol\":2723:2751  _transferOwnership(newOwner) */\n      tag_176\n        /* \"@openzeppelin/contracts/access/Ownable.sol\":2742:2750  newOwner */\n      dup2\n        /* \"@openzeppelin/contracts/access/Ownable.sol\":2723:2741  _transferOwnership */\n      tag_80\n        /* \"@openzeppelin/contracts/access/Ownable.sol\":2723:2751  _transferOwnership(newOwner) */\n      jump\t// in\n    tag_176:\n        /* \"@openzeppelin/contracts/access/Ownable.sol\":2543:2758  function transferOwnership(address newOwner) public virtual onlyOwner {... */\n      pop\n      jump\t// out\n        /* \"@openzeppelin/contracts/access/Ownable.sol\":1796:1958  function _checkOwner() internal view virtual {... */\n    tag_77:\n        /* \"@openzeppelin/contracts/access/Ownable.sol\":1866:1878  _msgSender() */\n      tag_178\n        /* \"@openzeppelin/contracts/access/Ownable.sol\":1866:1876  _msgSender */\n      tag_179\n        /* \"@openzeppelin/contracts/access/Ownable.sol\":1866:1878  _msgSender() */\n      jump\t// in\n    tag_178:\n        /* \"@openzeppelin/contracts/access/Ownable.sol\":1855:1878  owner() != _msgSender() */\n      0xffffffffffffffffffffffffffffffffffffffff\n      and\n        /* \"@openzeppelin/contracts/access/Ownable.sol\":1855:1862  owner() */\n      tag_180\n        /* \"@openzeppelin/contracts/access/Ownable.sol\":1855:1860  owner */\n      tag_33\n        /* \"@openzeppelin/contracts/access/Ownable.sol\":1855:1862  owner() */\n      jump\t// in\n    tag_180:\n        /* \"@openzeppelin/contracts/access/Ownable.sol\":1855:1878  owner() != _msgSender() */\n      0xffffffffffffffffffffffffffffffffffffffff\n      and\n      eq\n        /* \"@openzeppelin/contracts/access/Ownable.sol\":1851:1952  if (owner() != _msgSender()) {... */\n      tag_181\n      jumpi\n        /* \"@openzeppelin/contracts/access/Ownable.sol\":1928:1940  _msgSender() */\n      tag_182\n        /* \"@openzeppelin/contracts/access/Ownable.sol\":1928:1938  _msgSender */\n      tag_179\n        /* \"@openzeppelin/contracts/access/Ownable.sol\":1928:1940  _msgSender() */\n      jump\t// in\n    tag_182:\n        /* \"@openzeppelin/contracts/access/Ownable.sol\":1901:1941  OwnableUnauthorizedAccount(_msgSender()) */\n      mload(0x40)\n      0x118cdaa700000000000000000000000000000000000000000000000000000000\n      dup2\n      mstore\n      0x04\n      add\n      tag_183\n      swap2\n      swap1\n      tag_35\n      jump\t// in\n    tag_183:\n      mload(0x40)\n      dup1\n      swap2\n      sub\n      swap1\n      revert\n        /* \"@openzeppelin/contracts/access/Ownable.sol\":1851:1952  if (owner() != _msgSender()) {... */\n    tag_181:\n        /* \"@openzeppelin/contracts/access/Ownable.sol\":1796:1958  function _checkOwner() internal view virtual {... */\n      jump\t// out\n        /* \"@openzeppelin/contracts/access/Ownable.sol\":2912:3099  function _transferOwnership(address newOwner) internal virtual {... */\n    tag_80:\n        /* \"@openzeppelin/contracts/access/Ownable.sol\":2985:3001  address oldOwner */\n      0x00\n        /* \"@openzeppelin/contracts/access/Ownable.sol\":3004:3010  _owner */\n      dup1\n      0x00\n      swap1\n      sload\n      swap1\n      0x0100\n      exp\n      swap1\n      div\n      0xffffffffffffffffffffffffffffffffffffffff\n      and\n        /* \"@openzeppelin/contracts/access/Ownable.sol\":2985:3010  address oldOwner = _owner */\n      swap1\n      pop\n        /* \"@openzeppelin/contracts/access/Ownable.sol\":3029:3037  newOwner */\n      dup2\n        /* \"@openzeppelin/contracts/access/Ownable.sol\":3020:3026  _owner */\n      0x00\n      dup1\n        /* \"@openzeppelin/contracts/access/Ownable.sol\":3020:3037  _owner = newOwner */\n      0x0100\n      exp\n      dup2\n      sload\n      dup2\n      0xffffffffffffffffffffffffffffffffffffffff\n      mul\n      not\n      and\n      swap1\n      dup4\n      0xffffffffffffffffffffffffffffffffffffffff\n      and\n      mul\n      or\n      swap1\n      sstore\n      pop\n        /* \"@openzeppelin/contracts/access/Ownable.sol\":3083:3091  newOwner */\n      dup2\n        /* \"@openzeppelin/contracts/access/Ownable.sol\":3052:3092  OwnershipTransferred(oldOwner, newOwner) */\n      0xffffffffffffffffffffffffffffffffffffffff\n      and\n        /* \"@openzeppelin/contracts/access/Ownable.sol\":3073:3081  oldOwner */\n      dup2\n        /* \"@openzeppelin/contracts/access/Ownable.sol\":3052:3092  OwnershipTransferred(oldOwner, newOwner) */\n      0xffffffffffffffffffffffffffffffffffffffff\n      and\n      0x8be0079c531659141344cd1fd0a4f28419497f9722a3daafe3b4186f6b6457e0\n      mload(0x40)\n      mload(0x40)\n      dup1\n      swap2\n      sub\n      swap1\n      log3\n        /* \"@openzeppelin/contracts/access/Ownable.sol\":2975:3099  {... */\n      pop\n        /* \"@openzeppelin/contracts/access/Ownable.sol\":2912:3099  function _transferOwnership(address newOwner) internal virtual {... */\n      pop\n      jump\t// out\n        /* \"@openzeppelin/contracts/security/ReentrancyGuard.sol\":2336:2623  function _nonReentrantBefore() private {... */\n    tag_90:\n        /* \"@openzeppelin/contracts/security/ReentrancyGuard.sol\":1759:1760  2 */\n      0x02\n        /* \"@openzeppelin/contracts/security/ReentrancyGuard.sol\":2468:2475  _status */\n      sload(0x01)\n        /* \"@openzeppelin/contracts/security/ReentrancyGuard.sol\":2468:2487  _status != _ENTERED */\n      sub\n        /* \"@openzeppelin/contracts/security/ReentrancyGuard.sol\":2460:2523  require(_status != _ENTERED, \"ReentrancyGuard: reentrant call\") */\n      tag_186\n      jumpi\n      mload(0x40)\n      0x08c379a000000000000000000000000000000000000000000000000000000000\n      dup2\n      mstore\n      0x04\n      add\n      tag_187\n      swap1\n      tag_188\n      jump\t// in\n    tag_187:\n      mload(0x40)\n      dup1\n      swap2\n      sub\n      swap1\n      revert\n    tag_186:\n        /* \"@openzeppelin/contracts/security/ReentrancyGuard.sol\":1759:1760  2 */\n      0x02\n        /* \"@openzeppelin/contracts/security/ReentrancyGuard.sol\":2598:2605  _status */\n      0x01\n        /* \"@openzeppelin/contracts/security/ReentrancyGuard.sol\":2598:2616  _status = _ENTERED */\n      dup2\n      swap1\n      sstore\n      pop\n        /* \"@openzeppelin/contracts/security/ReentrancyGuard.sol\":2336:2623  function _nonReentrantBefore() private {... */\n      jump\t// out\n        /* \"MarketPlace/sells.sol\":1764:1967  function chekApproveAllowance(address _tokenAddress, address user)... */\n    tag_102:\n        /* \"MarketPlace/sells.sol\":1878:1885  uint256 */\n      0x00\n        /* \"MarketPlace/sells.sol\":1915:1928  _tokenAddress */\n      dup3\n        /* \"MarketPlace/sells.sol\":1908:1939  IERC20(_tokenAddress).allowance */\n      0xffffffffffffffffffffffffffffffffffffffff\n      and\n      0xdd62ed3e\n        /* \"MarketPlace/sells.sol\":1940:1944  user */\n      dup4\n        /* \"MarketPlace/sells.sol\":1954:1958  this */\n      address\n        /* \"MarketPlace/sells.sol\":1908:1960  IERC20(_tokenAddress).allowance(user, address(this)) */\n      mload(0x40)\n      dup4\n      0xffffffff\n      and\n      0xe0\n      shl\n      dup2\n      mstore\n      0x04\n      add\n      tag_190\n      swap3\n      swap2\n      swap1\n      tag_191\n      jump\t// in\n    tag_190:\n      0x20\n      mload(0x40)\n      dup1\n      dup4\n      sub\n      dup2\n      dup7\n      gas\n      staticcall\n      iszero\n      dup1\n      iszero\n      tag_193\n      jumpi\n      returndatasize\n      0x00\n      dup1\n      returndatacopy\n      revert(0x00, returndatasize)\n    tag_193:\n      pop\n      pop\n      pop\n      pop\n      mload(0x40)\n      returndatasize\n      not(0x1f)\n      0x1f\n      dup3\n      add\n      and\n      dup3\n      add\n      dup1\n      0x40\n      mstore\n      pop\n      dup2\n      add\n      swap1\n      tag_194\n      swap2\n      swap1\n      tag_87\n      jump\t// in\n    tag_194:\n        /* \"MarketPlace/sells.sol\":1901:1960  return IERC20(_tokenAddress).allowance(user, address(this)) */\n      swap1\n      pop\n        /* \"MarketPlace/sells.sol\":1764:1967  function chekApproveAllowance(address _tokenAddress, address user)... */\n      swap3\n      swap2\n      pop\n      pop\n      jump\t// out\n        /* \"@openzeppelin/contracts/security/ReentrancyGuard.sol\":2629:2838  function _nonReentrantAfter() private {... */\n    tag_157:\n        /* \"@openzeppelin/contracts/security/ReentrancyGuard.sol\":1716:1717  1 */\n      0x01\n        /* \"@openzeppelin/contracts/security/ReentrancyGuard.sol\":2809:2816  _status */\n      dup1\n        /* \"@openzeppelin/contracts/security/ReentrancyGuard.sol\":2809:2831  _status = _NOT_ENTERED */\n      dup2\n      swap1\n      sstore\n      pop\n        /* \"@openzeppelin/contracts/security/ReentrancyGuard.sol\":2629:2838  function _nonReentrantAfter() private {... */\n      jump\t// out\n        /* \"@openzeppelin/contracts/utils/Context.sol\":656:752  function _msgSender() internal view virtual returns (address) {... */\n    tag_179:\n        /* \"@openzeppelin/contracts/utils/Context.sol\":709:716  address */\n      0x00\n        /* \"@openzeppelin/contracts/utils/Context.sol\":735:745  msg.sender */\n      caller\n        /* \"@openzeppelin/contracts/utils/Context.sol\":728:745  return msg.sender */\n      swap1\n      pop\n        /* \"@openzeppelin/contracts/utils/Context.sol\":656:752  function _msgSender() internal view virtual returns (address) {... */\n      swap1\n      jump\t// out\n        /* \"#utility.yul\":7:82   */\n    tag_197:\n        /* \"#utility.yul\":40:46   */\n      0x00\n        /* \"#utility.yul\":73:75   */\n      0x40\n        /* \"#utility.yul\":67:76   */\n      mload\n        /* \"#utility.yul\":57:76   */\n      swap1\n      pop\n        /* \"#utility.yul\":7:82   */\n      swap1\n      jump\t// out\n        /* \"#utility.yul\":88:205   */\n    tag_198:\n        /* \"#utility.yul\":197:198   */\n      0x00\n        /* \"#utility.yul\":194:195   */\n      dup1\n        /* \"#utility.yul\":187:199   */\n      revert\n        /* \"#utility.yul\":211:328   */\n    tag_199:\n        /* \"#utility.yul\":320:321   */\n      0x00\n        /* \"#utility.yul\":317:318   */\n      dup1\n        /* \"#utility.yul\":310:322   */\n      revert\n        /* \"#utility.yul\":334:460   */\n    tag_200:\n        /* \"#utility.yul\":371:378   */\n      0x00\n        /* \"#utility.yul\":411:453   */\n      0xffffffffffffffffffffffffffffffffffffffff\n        /* \"#utility.yul\":404:409   */\n      dup3\n        /* \"#utility.yul\":400:454   */\n      and\n        /* \"#utility.yul\":389:454   */\n      swap1\n      pop\n        /* \"#utility.yul\":334:460   */\n      swap2\n      swap1\n      pop\n      jump\t// out\n        /* \"#utility.yul\":466:562   */\n    tag_201:\n        /* \"#utility.yul\":503:510   */\n      0x00\n        /* \"#utility.yul\":532:556   */\n      tag_283\n        /* \"#utility.yul\":550:555   */\n      dup3\n        /* \"#utility.yul\":532:556   */\n      tag_200\n      jump\t// in\n    tag_283:\n        /* \"#utility.yul\":521:556   */\n      swap1\n      pop\n        /* \"#utility.yul\":466:562   */\n      swap2\n      swap1\n      pop\n      jump\t// out\n        /* \"#utility.yul\":568:690   */\n    tag_202:\n        /* \"#utility.yul\":641:665   */\n      tag_285\n        /* \"#utility.yul\":659:664   */\n      dup2\n        /* \"#utility.yul\":641:665   */\n      tag_201\n      jump\t// in\n    tag_285:\n        /* \"#utility.yul\":634:639   */\n      dup2\n        /* \"#utility.yul\":631:666   */\n      eq\n        /* \"#utility.yul\":621:684   */\n      tag_286\n      jumpi\n        /* \"#utility.yul\":680:681   */\n      0x00\n        /* \"#utility.yul\":677:678   */\n      dup1\n        /* \"#utility.yul\":670:682   */\n      revert\n        /* \"#utility.yul\":621:684   */\n    tag_286:\n        /* \"#utility.yul\":568:690   */\n      pop\n      jump\t// out\n        /* \"#utility.yul\":696:835   */\n    tag_203:\n        /* \"#utility.yul\":742:747   */\n      0x00\n        /* \"#utility.yul\":780:786   */\n      dup2\n        /* \"#utility.yul\":767:787   */\n      calldataload\n        /* \"#utility.yul\":758:787   */\n      swap1\n      pop\n        /* \"#utility.yul\":796:829   */\n      tag_288\n        /* \"#utility.yul\":823:828   */\n      dup2\n        /* \"#utility.yul\":796:829   */\n      tag_202\n      jump\t// in\n    tag_288:\n        /* \"#utility.yul\":696:835   */\n      swap3\n      swap2\n      pop\n      pop\n      jump\t// out\n        /* \"#utility.yul\":841:1315   */\n    tag_18:\n        /* \"#utility.yul\":909:915   */\n      0x00\n        /* \"#utility.yul\":917:923   */\n      dup1\n        /* \"#utility.yul\":966:968   */\n      0x40\n        /* \"#utility.yul\":954:963   */\n      dup4\n        /* \"#utility.yul\":945:952   */\n      dup6\n        /* \"#utility.yul\":941:964   */\n      sub\n        /* \"#utility.yul\":937:969   */\n      slt\n        /* \"#utility.yul\":934:1053   */\n      iszero\n      tag_290\n      jumpi\n        /* \"#utility.yul\":972:1051   */\n      tag_291\n      tag_198\n      jump\t// in\n    tag_291:\n        /* \"#utility.yul\":934:1053   */\n    tag_290:\n        /* \"#utility.yul\":1092:1093   */\n      0x00\n        /* \"#utility.yul\":1117:1170   */\n      tag_292\n        /* \"#utility.yul\":1162:1169   */\n      dup6\n        /* \"#utility.yul\":1153:1159   */\n      dup3\n        /* \"#utility.yul\":1142:1151   */\n      dup7\n        /* \"#utility.yul\":1138:1160   */\n      add\n        /* \"#utility.yul\":1117:1170   */\n      tag_203\n      jump\t// in\n    tag_292:\n        /* \"#utility.yul\":1107:1170   */\n      swap3\n      pop\n        /* \"#utility.yul\":1063:1180   */\n      pop\n        /* \"#utility.yul\":1219:1221   */\n      0x20\n        /* \"#utility.yul\":1245:1298   */\n      tag_293\n        /* \"#utility.yul\":1290:1297   */\n      dup6\n        /* \"#utility.yul\":1281:1287   */\n      dup3\n        /* \"#utility.yul\":1270:1279   */\n      dup7\n        /* \"#utility.yul\":1266:1288   */\n      add\n        /* \"#utility.yul\":1245:1298   */\n      tag_203\n      jump\t// in\n    tag_293:\n        /* \"#utility.yul\":1235:1298   */\n      swap2\n      pop\n        /* \"#utility.yul\":1190:1308   */\n      pop\n        /* \"#utility.yul\":841:1315   */\n      swap3\n      pop\n      swap3\n      swap1\n      pop\n      jump\t// out\n        /* \"#utility.yul\":1321:1398   */\n    tag_204:\n        /* \"#utility.yul\":1358:1365   */\n      0x00\n        /* \"#utility.yul\":1387:1392   */\n      dup2\n        /* \"#utility.yul\":1376:1392   */\n      swap1\n      pop\n        /* \"#utility.yul\":1321:1398   */\n      swap2\n      swap1\n      pop\n      jump\t// out\n        /* \"#utility.yul\":1404:1522   */\n    tag_205:\n        /* \"#utility.yul\":1491:1515   */\n      tag_296\n        /* \"#utility.yul\":1509:1514   */\n      dup2\n        /* \"#utility.yul\":1491:1515   */\n      tag_204\n      jump\t// in\n    tag_296:\n        /* \"#utility.yul\":1486:1489   */\n      dup3\n        /* \"#utility.yul\":1479:1516   */\n      mstore\n        /* \"#utility.yul\":1404:1522   */\n      pop\n      pop\n      jump\t// out\n        /* \"#utility.yul\":1528:1750   */\n    tag_21:\n        /* \"#utility.yul\":1621:1625   */\n      0x00\n        /* \"#utility.yul\":1659:1661   */\n      0x20\n        /* \"#utility.yul\":1648:1657   */\n      dup3\n        /* \"#utility.yul\":1644:1662   */\n      add\n        /* \"#utility.yul\":1636:1662   */\n      swap1\n      pop\n        /* \"#utility.yul\":1672:1743   */\n      tag_298\n        /* \"#utility.yul\":1740:1741   */\n      0x00\n        /* \"#utility.yul\":1729:1738   */\n      dup4\n        /* \"#utility.yul\":1725:1742   */\n      add\n        /* \"#utility.yul\":1716:1722   */\n      dup5\n        /* \"#utility.yul\":1672:1743   */\n      tag_205\n      jump\t// in\n    tag_298:\n        /* \"#utility.yul\":1528:1750   */\n      swap3\n      swap2\n      pop\n      pop\n      jump\t// out\n        /* \"#utility.yul\":1756:2085   */\n    tag_24:\n        /* \"#utility.yul\":1815:1821   */\n      0x00\n        /* \"#utility.yul\":1864:1866   */\n      0x20\n        /* \"#utility.yul\":1852:1861   */\n      dup3\n        /* \"#utility.yul\":1843:1850   */\n      dup5\n        /* \"#utility.yul\":1839:1862   */\n      sub\n        /* \"#utility.yul\":1835:1867   */\n      slt\n        /* \"#utility.yul\":1832:1951   */\n      iszero\n      tag_300\n      jumpi\n        /* \"#utility.yul\":1870:1949   */\n      tag_301\n      tag_198\n      jump\t// in\n    tag_301:\n        /* \"#utility.yul\":1832:1951   */\n    tag_300:\n        /* \"#utility.yul\":1990:1991   */\n      0x00\n        /* \"#utility.yul\":2015:2068   */\n      tag_302\n        /* \"#utility.yul\":2060:2067   */\n      dup5\n        /* \"#utility.yul\":2051:2057   */\n      dup3\n        /* \"#utility.yul\":2040:2049   */\n      dup6\n        /* \"#utility.yul\":2036:2058   */\n      add\n        /* \"#utility.yul\":2015:2068   */\n      tag_203\n      jump\t// in\n    tag_302:\n        /* \"#utility.yul\":2005:2068   */\n      swap2\n      pop\n        /* \"#utility.yul\":1961:2078   */\n      pop\n        /* \"#utility.yul\":1756:2085   */\n      swap3\n      swap2\n      pop\n      pop\n      jump\t// out\n        /* \"#utility.yul\":2091:2168   */\n    tag_206:\n        /* \"#utility.yul\":2128:2135   */\n      0x00\n        /* \"#utility.yul\":2157:2162   */\n      dup2\n        /* \"#utility.yul\":2146:2162   */\n      swap1\n      pop\n        /* \"#utility.yul\":2091:2168   */\n      swap2\n      swap1\n      pop\n      jump\t// out\n        /* \"#utility.yul\":2174:2292   */\n    tag_207:\n        /* \"#utility.yul\":2261:2285   */\n      tag_305\n        /* \"#utility.yul\":2279:2284   */\n      dup2\n        /* \"#utility.yul\":2261:2285   */\n      tag_206\n      jump\t// in\n    tag_305:\n        /* \"#utility.yul\":2256:2259   */\n      dup3\n        /* \"#utility.yul\":2249:2286   */\n      mstore\n        /* \"#utility.yul\":2174:2292   */\n      pop\n      pop\n      jump\t// out\n        /* \"#utility.yul\":2298:2520   */\n    tag_31:\n        /* \"#utility.yul\":2391:2395   */\n      0x00\n        /* \"#utility.yul\":2429:2431   */\n      0x20\n        /* \"#utility.yul\":2418:2427   */\n      dup3\n        /* \"#utility.yul\":2414:2432   */\n      add\n        /* \"#utility.yul\":2406:2432   */\n      swap1\n      pop\n        /* \"#utility.yul\":2442:2513   */\n      tag_307\n        /* \"#utility.yul\":2510:2511   */\n      0x00\n        /* \"#utility.yul\":2499:2508   */\n      dup4\n        /* \"#utility.yul\":2495:2512   */\n      add\n        /* \"#utility.yul\":2486:2492   */\n      dup5\n        /* \"#utility.yul\":2442:2513   */\n      tag_207\n      jump\t// in\n    tag_307:\n        /* \"#utility.yul\":2298:2520   */\n      swap3\n      swap2\n      pop\n      pop\n      jump\t// out\n        /* \"#utility.yul\":2526:2644   */\n    tag_208:\n        /* \"#utility.yul\":2613:2637   */\n      tag_309\n        /* \"#utility.yul\":2631:2636   */\n      dup2\n        /* \"#utility.yul\":2613:2637   */\n      tag_201\n      jump\t// in\n    tag_309:\n        /* \"#utility.yul\":2608:2611   */\n      dup3\n        /* \"#utility.yul\":2601:2638   */\n      mstore\n        /* \"#utility.yul\":2526:2644   */\n      pop\n      pop\n      jump\t// out\n        /* \"#utility.yul\":2650:2872   */\n    tag_35:\n        /* \"#utility.yul\":2743:2747   */\n      0x00\n        /* \"#utility.yul\":2781:2783   */\n      0x20\n        /* \"#utility.yul\":2770:2779   */\n      dup3\n        /* \"#utility.yul\":2766:2784   */\n      add\n        /* \"#utility.yul\":2758:2784   */\n      swap1\n      pop\n        /* \"#utility.yul\":2794:2865   */\n      tag_311\n        /* \"#utility.yul\":2862:2863   */\n      0x00\n        /* \"#utility.yul\":2851:2860   */\n      dup4\n        /* \"#utility.yul\":2847:2864   */\n      add\n        /* \"#utility.yul\":2838:2844   */\n      dup5\n        /* \"#utility.yul\":2794:2865   */\n      tag_208\n      jump\t// in\n    tag_311:\n        /* \"#utility.yul\":2650:2872   */\n      swap3\n      swap2\n      pop\n      pop\n      jump\t// out\n        /* \"#utility.yul\":2878:3000   */\n    tag_209:\n        /* \"#utility.yul\":2951:2975   */\n      tag_313\n        /* \"#utility.yul\":2969:2974   */\n      dup2\n        /* \"#utility.yul\":2951:2975   */\n      tag_204\n      jump\t// in\n    tag_313:\n        /* \"#utility.yul\":2944:2949   */\n      dup2\n        /* \"#utility.yul\":2941:2976   */\n      eq\n        /* \"#utility.yul\":2931:2994   */\n      tag_314\n      jumpi\n        /* \"#utility.yul\":2990:2991   */\n      0x00\n        /* \"#utility.yul\":2987:2988   */\n      dup1\n        /* \"#utility.yul\":2980:2992   */\n      revert\n        /* \"#utility.yul\":2931:2994   */\n    tag_314:\n        /* \"#utility.yul\":2878:3000   */\n      pop\n      jump\t// out\n        /* \"#utility.yul\":3006:3145   */\n    tag_210:\n        /* \"#utility.yul\":3052:3057   */\n      0x00\n        /* \"#utility.yul\":3090:3096   */\n      dup2\n        /* \"#utility.yul\":3077:3097   */\n      calldataload\n        /* \"#utility.yul\":3068:3097   */\n      swap1\n      pop\n        /* \"#utility.yul\":3106:3139   */\n      tag_316\n        /* \"#utility.yul\":3133:3138   */\n      dup2\n        /* \"#utility.yul\":3106:3139   */\n      tag_209\n      jump\t// in\n    tag_316:\n        /* \"#utility.yul\":3006:3145   */\n      swap3\n      swap2\n      pop\n      pop\n      jump\t// out\n        /* \"#utility.yul\":3151:3480   */\n    tag_42:\n        /* \"#utility.yul\":3210:3216   */\n      0x00\n        /* \"#utility.yul\":3259:3261   */\n      0x20\n        /* \"#utility.yul\":3247:3256   */\n      dup3\n        /* \"#utility.yul\":3238:3245   */\n      dup5\n        /* \"#utility.yul\":3234:3257   */\n      sub\n        /* \"#utility.yul\":3230:3262   */\n      slt\n        /* \"#utility.yul\":3227:3346   */\n      iszero\n      tag_318\n      jumpi\n        /* \"#utility.yul\":3265:3344   */\n      tag_319\n      tag_198\n      jump\t// in\n    tag_319:\n        /* \"#utility.yul\":3227:3346   */\n    tag_318:\n        /* \"#utility.yul\":3385:3386   */\n      0x00\n        /* \"#utility.yul\":3410:3463   */\n      tag_320\n        /* \"#utility.yul\":3455:3462   */\n      dup5\n        /* \"#utility.yul\":3446:3452   */\n      dup3\n        /* \"#utility.yul\":3435:3444   */\n      dup6\n        /* \"#utility.yul\":3431:3453   */\n      add\n        /* \"#utility.yul\":3410:3463   */\n      tag_210\n      jump\t// in\n    tag_320:\n        /* \"#utility.yul\":3400:3463   */\n      swap2\n      pop\n        /* \"#utility.yul\":3356:3473   */\n      pop\n        /* \"#utility.yul\":3151:3480   */\n      swap3\n      swap2\n      pop\n      pop\n      jump\t// out\n        /* \"#utility.yul\":3486:3608   */\n    tag_211:\n        /* \"#utility.yul\":3559:3583   */\n      tag_322\n        /* \"#utility.yul\":3577:3582   */\n      dup2\n        /* \"#utility.yul\":3559:3583   */\n      tag_206\n      jump\t// in\n    tag_322:\n        /* \"#utility.yul\":3552:3557   */\n      dup2\n        /* \"#utility.yul\":3549:3584   */\n      eq\n        /* \"#utility.yul\":3539:3602   */\n      tag_323\n      jumpi\n        /* \"#utility.yul\":3598:3599   */\n      0x00\n        /* \"#utility.yul\":3595:3596   */\n      dup1\n        /* \"#utility.yul\":3588:3600   */\n      revert\n        /* \"#utility.yul\":3539:3602   */\n    tag_323:\n        /* \"#utility.yul\":3486:3608   */\n      pop\n      jump\t// out\n        /* \"#utility.yul\":3614:3753   */\n    tag_212:\n        /* \"#utility.yul\":3660:3665   */\n      0x00\n        /* \"#utility.yul\":3698:3704   */\n      dup2\n        /* \"#utility.yul\":3685:3705   */\n      calldataload\n        /* \"#utility.yul\":3676:3705   */\n      swap1\n      pop\n        /* \"#utility.yul\":3714:3747   */\n      tag_325\n        /* \"#utility.yul\":3741:3746   */\n      dup2\n        /* \"#utility.yul\":3714:3747   */\n      tag_211\n      jump\t// in\n    tag_325:\n        /* \"#utility.yul\":3614:3753   */\n      swap3\n      swap2\n      pop\n      pop\n      jump\t// out\n        /* \"#utility.yul\":3759:4378   */\n    tag_50:\n        /* \"#utility.yul\":3836:3842   */\n      0x00\n        /* \"#utility.yul\":3844:3850   */\n      dup1\n        /* \"#utility.yul\":3852:3858   */\n      0x00\n        /* \"#utility.yul\":3901:3903   */\n      0x60\n        /* \"#utility.yul\":3889:3898   */\n      dup5\n        /* \"#utility.yul\":3880:3887   */\n      dup7\n        /* \"#utility.yul\":3876:3899   */\n      sub\n        /* \"#utility.yul\":3872:3904   */\n      slt\n        /* \"#utility.yul\":3869:3988   */\n      iszero\n      tag_327\n      jumpi\n        /* \"#utility.yul\":3907:3986   */\n      tag_328\n      tag_198\n      jump\t// in\n    tag_328:\n        /* \"#utility.yul\":3869:3988   */\n    tag_327:\n        /* \"#utility.yul\":4027:4028   */\n      0x00\n        /* \"#utility.yul\":4052:4105   */\n      tag_329\n        /* \"#utility.yul\":4097:4104   */\n      dup7\n        /* \"#utility.yul\":4088:4094   */\n      dup3\n        /* \"#utility.yul\":4077:4086   */\n      dup8\n        /* \"#utility.yul\":4073:4095   */\n      add\n        /* \"#utility.yul\":4052:4105   */\n      tag_203\n      jump\t// in\n    tag_329:\n        /* \"#utility.yul\":4042:4105   */\n      swap4\n      pop\n        /* \"#utility.yul\":3998:4115   */\n      pop\n        /* \"#utility.yul\":4154:4156   */\n      0x20\n        /* \"#utility.yul\":4180:4233   */\n      tag_330\n        /* \"#utility.yul\":4225:4232   */\n      dup7\n        /* \"#utility.yul\":4216:4222   */\n      dup3\n        /* \"#utility.yul\":4205:4214   */\n      dup8\n        /* \"#utility.yul\":4201:4223   */\n      add\n        /* \"#utility.yul\":4180:4233   */\n      tag_212\n      jump\t// in\n    tag_330:\n        /* \"#utility.yul\":4170:4233   */\n      swap3\n      pop\n        /* \"#utility.yul\":4125:4243   */\n      pop\n        /* \"#utility.yul\":4282:4284   */\n      0x40\n        /* \"#utility.yul\":4308:4361   */\n      tag_331\n        /* \"#utility.yul\":4353:4360   */\n      dup7\n        /* \"#utility.yul\":4344:4350   */\n      dup3\n        /* \"#utility.yul\":4333:4342   */\n      dup8\n        /* \"#utility.yul\":4329:4351   */\n      add\n        /* \"#utility.yul\":4308:4361   */\n      tag_212\n      jump\t// in\n    tag_331:\n        /* \"#utility.yul\":4298:4361   */\n      swap2\n      pop\n        /* \"#utility.yul\":4253:4371   */\n      pop\n        /* \"#utility.yul\":3759:4378   */\n      swap3\n      pop\n      swap3\n      pop\n      swap3\n      jump\t// out\n        /* \"#utility.yul\":4384:4713   */\n    tag_54:\n        /* \"#utility.yul\":4443:4449   */\n      0x00\n        /* \"#utility.yul\":4492:4494   */\n      0x20\n        /* \"#utility.yul\":4480:4489   */\n      dup3\n        /* \"#utility.yul\":4471:4478   */\n      dup5\n        /* \"#utility.yul\":4467:4490   */\n      sub\n        /* \"#utility.yul\":4463:4495   */\n      slt\n        /* \"#utility.yul\":4460:4579   */\n      iszero\n      tag_333\n      jumpi\n        /* \"#utility.yul\":4498:4577   */\n      tag_334\n      tag_198\n      jump\t// in\n    tag_334:\n        /* \"#utility.yul\":4460:4579   */\n    tag_333:\n        /* \"#utility.yul\":4618:4619   */\n      0x00\n        /* \"#utility.yul\":4643:4696   */\n      tag_335\n        /* \"#utility.yul\":4688:4695   */\n      dup5\n        /* \"#utility.yul\":4679:4685   */\n      dup3\n        /* \"#utility.yul\":4668:4677   */\n      dup6\n        /* \"#utility.yul\":4664:4686   */\n      add\n        /* \"#utility.yul\":4643:4696   */\n      tag_212\n      jump\t// in\n    tag_335:\n        /* \"#utility.yul\":4633:4696   */\n      swap2\n      pop\n        /* \"#utility.yul\":4589:4706   */\n      pop\n        /* \"#utility.yul\":4384:4713   */\n      swap3\n      swap2\n      pop\n      pop\n      jump\t// out\n        /* \"#utility.yul\":4719:4818   */\n    tag_213:\n        /* \"#utility.yul\":4771:4777   */\n      0x00\n        /* \"#utility.yul\":4805:4810   */\n      dup2\n        /* \"#utility.yul\":4799:4811   */\n      mload\n        /* \"#utility.yul\":4789:4811   */\n      swap1\n      pop\n        /* \"#utility.yul\":4719:4818   */\n      swap2\n      swap1\n      pop\n      jump\t// out\n        /* \"#utility.yul\":4824:4993   */\n    tag_214:\n        /* \"#utility.yul\":4908:4919   */\n      0x00\n        /* \"#utility.yul\":4942:4948   */\n      dup3\n        /* \"#utility.yul\":4937:4940   */\n      dup3\n        /* \"#utility.yul\":4930:4949   */\n      mstore\n        /* \"#utility.yul\":4982:4986   */\n      0x20\n        /* \"#utility.yul\":4977:4980   */\n      dup3\n        /* \"#utility.yul\":4973:4987   */\n      add\n        /* \"#utility.yul\":4958:4987   */\n      swap1\n      pop\n        /* \"#utility.yul\":4824:4993   */\n      swap3\n      swap2\n      pop\n      pop\n      jump\t// out\n        /* \"#utility.yul\":4999:5138   */\n    tag_215:\n        /* \"#utility.yul\":5088:5094   */\n      dup3\n        /* \"#utility.yul\":5083:5086   */\n      dup2\n        /* \"#utility.yul\":5078:5081   */\n      dup4\n        /* \"#utility.yul\":5072:5095   */\n      mcopy\n        /* \"#utility.yul\":5129:5130   */\n      0x00\n        /* \"#utility.yul\":5120:5126   */\n      dup4\n        /* \"#utility.yul\":5115:5118   */\n      dup4\n        /* \"#utility.yul\":5111:5127   */\n      add\n        /* \"#utility.yul\":5104:5131   */\n      mstore\n        /* \"#utility.yul\":4999:5138   */\n      pop\n      pop\n      pop\n      jump\t// out\n        /* \"#utility.yul\":5144:5246   */\n    tag_216:\n        /* \"#utility.yul\":5185:5191   */\n      0x00\n        /* \"#utility.yul\":5236:5238   */\n      0x1f\n        /* \"#utility.yul\":5232:5239   */\n      not\n        /* \"#utility.yul\":5227:5229   */\n      0x1f\n        /* \"#utility.yul\":5220:5225   */\n      dup4\n        /* \"#utility.yul\":5216:5230   */\n      add\n        /* \"#utility.yul\":5212:5240   */\n      and\n        /* \"#utility.yul\":5202:5240   */\n      swap1\n      pop\n        /* \"#utility.yul\":5144:5246   */\n      swap2\n      swap1\n      pop\n      jump\t// out\n        /* \"#utility.yul\":5252:5629   */\n    tag_217:\n        /* \"#utility.yul\":5340:5343   */\n      0x00\n        /* \"#utility.yul\":5368:5407   */\n      tag_341\n        /* \"#utility.yul\":5401:5406   */\n      dup3\n        /* \"#utility.yul\":5368:5407   */\n      tag_213\n      jump\t// in\n    tag_341:\n        /* \"#utility.yul\":5423:5494   */\n      tag_342\n        /* \"#utility.yul\":5487:5493   */\n      dup2\n        /* \"#utility.yul\":5482:5485   */\n      dup6\n        /* \"#utility.yul\":5423:5494   */\n      tag_214\n      jump\t// in\n    tag_342:\n        /* \"#utility.yul\":5416:5494   */\n      swap4\n      pop\n        /* \"#utility.yul\":5503:5568   */\n      tag_343\n        /* \"#utility.yul\":5561:5567   */\n      dup2\n        /* \"#utility.yul\":5556:5559   */\n      dup6\n        /* \"#utility.yul\":5549:5553   */\n      0x20\n        /* \"#utility.yul\":5542:5547   */\n      dup7\n        /* \"#utility.yul\":5538:5554   */\n      add\n        /* \"#utility.yul\":5503:5568   */\n      tag_215\n      jump\t// in\n    tag_343:\n        /* \"#utility.yul\":5593:5622   */\n      tag_344\n        /* \"#utility.yul\":5615:5621   */\n      dup2\n        /* \"#utility.yul\":5593:5622   */\n      tag_216\n      jump\t// in\n    tag_344:\n        /* \"#utility.yul\":5588:5591   */\n      dup5\n        /* \"#utility.yul\":5584:5623   */\n      add\n        /* \"#utility.yul\":5577:5623   */\n      swap2\n      pop\n        /* \"#utility.yul\":5344:5629   */\n      pop\n        /* \"#utility.yul\":5252:5629   */\n      swap3\n      swap2\n      pop\n      pop\n      jump\t// out\n        /* \"#utility.yul\":5635:5725   */\n    tag_218:\n        /* \"#utility.yul\":5669:5676   */\n      0x00\n        /* \"#utility.yul\":5712:5717   */\n      dup2\n        /* \"#utility.yul\":5705:5718   */\n      iszero\n        /* \"#utility.yul\":5698:5719   */\n      iszero\n        /* \"#utility.yul\":5687:5719   */\n      swap1\n      pop\n        /* \"#utility.yul\":5635:5725   */\n      swap2\n      swap1\n      pop\n      jump\t// out\n        /* \"#utility.yul\":5731:5840   */\n    tag_219:\n        /* \"#utility.yul\":5812:5833   */\n      tag_347\n        /* \"#utility.yul\":5827:5832   */\n      dup2\n        /* \"#utility.yul\":5812:5833   */\n      tag_218\n      jump\t// in\n    tag_347:\n        /* \"#utility.yul\":5807:5810   */\n      dup3\n        /* \"#utility.yul\":5800:5834   */\n      mstore\n        /* \"#utility.yul\":5731:5840   */\n      pop\n      pop\n      jump\t// out\n        /* \"#utility.yul\":5846:6700   */\n    tag_57:\n        /* \"#utility.yul\":6093:6097   */\n      0x00\n        /* \"#utility.yul\":6131:6134   */\n      0xc0\n        /* \"#utility.yul\":6120:6129   */\n      dup3\n        /* \"#utility.yul\":6116:6135   */\n      add\n        /* \"#utility.yul\":6108:6135   */\n      swap1\n      pop\n        /* \"#utility.yul\":6145:6216   */\n      tag_349\n        /* \"#utility.yul\":6213:6214   */\n      0x00\n        /* \"#utility.yul\":6202:6211   */\n      dup4\n        /* \"#utility.yul\":6198:6215   */\n      add\n        /* \"#utility.yul\":6189:6195   */\n      dup10\n        /* \"#utility.yul\":6145:6216   */\n      tag_208\n      jump\t// in\n    tag_349:\n        /* \"#utility.yul\":6226:6298   */\n      tag_350\n        /* \"#utility.yul\":6294:6296   */\n      0x20\n        /* \"#utility.yul\":6283:6292   */\n      dup4\n        /* \"#utility.yul\":6279:6297   */\n      add\n        /* \"#utility.yul\":6270:6276   */\n      dup9\n        /* \"#utility.yul\":6226:6298   */\n      tag_208\n      jump\t// in\n    tag_350:\n        /* \"#utility.yul\":6345:6354   */\n      dup2\n        /* \"#utility.yul\":6339:6343   */\n      dup2\n        /* \"#utility.yul\":6335:6355   */\n      sub\n        /* \"#utility.yul\":6330:6332   */\n      0x40\n        /* \"#utility.yul\":6319:6328   */\n      dup4\n        /* \"#utility.yul\":6315:6333   */\n      add\n        /* \"#utility.yul\":6308:6356   */\n      mstore\n        /* \"#utility.yul\":6373:6451   */\n      tag_351\n        /* \"#utility.yul\":6446:6450   */\n      dup2\n        /* \"#utility.yul\":6437:6443   */\n      dup8\n        /* \"#utility.yul\":6373:6451   */\n      tag_217\n      jump\t// in\n    tag_351:\n        /* \"#utility.yul\":6365:6451   */\n      swap1\n      pop\n        /* \"#utility.yul\":6461:6533   */\n      tag_352\n        /* \"#utility.yul\":6529:6531   */\n      0x60\n        /* \"#utility.yul\":6518:6527   */\n      dup4\n        /* \"#utility.yul\":6514:6532   */\n      add\n        /* \"#utility.yul\":6505:6511   */\n      dup7\n        /* \"#utility.yul\":6461:6533   */\n      tag_207\n      jump\t// in\n    tag_352:\n        /* \"#utility.yul\":6543:6616   */\n      tag_353\n        /* \"#utility.yul\":6611:6614   */\n      0x80\n        /* \"#utility.yul\":6600:6609   */\n      dup4\n        /* \"#utility.yul\":6596:6615   */\n      add\n        /* \"#utility.yul\":6587:6593   */\n      dup6\n        /* \"#utility.yul\":6543:6616   */\n      tag_207\n      jump\t// in\n    tag_353:\n        /* \"#utility.yul\":6626:6693   */\n      tag_354\n        /* \"#utility.yul\":6688:6691   */\n      0xa0\n        /* \"#utility.yul\":6677:6686   */\n      dup4\n        /* \"#utility.yul\":6673:6692   */\n      add\n        /* \"#utility.yul\":6664:6670   */\n      dup5\n        /* \"#utility.yul\":6626:6693   */\n      tag_219\n      jump\t// in\n    tag_354:\n        /* \"#utility.yul\":5846:6700   */\n      swap8\n      swap7\n      pop\n      pop\n      pop\n      pop\n      pop\n      pop\n      pop\n      jump\t// out\n        /* \"#utility.yul\":6706:6800   */\n    tag_220:\n        /* \"#utility.yul\":6739:6747   */\n      0x00\n        /* \"#utility.yul\":6787:6792   */\n      dup2\n        /* \"#utility.yul\":6783:6785   */\n      0x60\n        /* \"#utility.yul\":6779:6793   */\n      shl\n        /* \"#utility.yul\":6758:6793   */\n      swap1\n      pop\n        /* \"#utility.yul\":6706:6800   */\n      swap2\n      swap1\n      pop\n      jump\t// out\n        /* \"#utility.yul\":6806:6900   */\n    tag_221:\n        /* \"#utility.yul\":6845:6852   */\n      0x00\n        /* \"#utility.yul\":6874:6894   */\n      tag_357\n        /* \"#utility.yul\":6888:6893   */\n      dup3\n        /* \"#utility.yul\":6874:6894   */\n      tag_220\n      jump\t// in\n    tag_357:\n        /* \"#utility.yul\":6863:6894   */\n      swap1\n      pop\n        /* \"#utility.yul\":6806:6900   */\n      swap2\n      swap1\n      pop\n      jump\t// out\n        /* \"#utility.yul\":6906:7006   */\n    tag_222:\n        /* \"#utility.yul\":6945:6952   */\n      0x00\n        /* \"#utility.yul\":6974:7000   */\n      tag_359\n        /* \"#utility.yul\":6994:6999   */\n      dup3\n        /* \"#utility.yul\":6974:7000   */\n      tag_221\n      jump\t// in\n    tag_359:\n        /* \"#utility.yul\":6963:7000   */\n      swap1\n      pop\n        /* \"#utility.yul\":6906:7006   */\n      swap2\n      swap1\n      pop\n      jump\t// out\n        /* \"#utility.yul\":7012:7169   */\n    tag_223:\n        /* \"#utility.yul\":7117:7162   */\n      tag_361\n        /* \"#utility.yul\":7137:7161   */\n      tag_362\n        /* \"#utility.yul\":7155:7160   */\n      dup3\n        /* \"#utility.yul\":7137:7161   */\n      tag_201\n      jump\t// in\n    tag_362:\n        /* \"#utility.yul\":7117:7162   */\n      tag_222\n      jump\t// in\n    tag_361:\n        /* \"#utility.yul\":7112:7115   */\n      dup3\n        /* \"#utility.yul\":7105:7163   */\n      mstore\n        /* \"#utility.yul\":7012:7169   */\n      pop\n      pop\n      jump\t// out\n        /* \"#utility.yul\":7175:7572   */\n    tag_66:\n        /* \"#utility.yul\":7315:7318   */\n      0x00\n        /* \"#utility.yul\":7330:7405   */\n      tag_364\n        /* \"#utility.yul\":7401:7404   */\n      dup3\n        /* \"#utility.yul\":7392:7398   */\n      dup6\n        /* \"#utility.yul\":7330:7405   */\n      tag_223\n      jump\t// in\n    tag_364:\n        /* \"#utility.yul\":7430:7432   */\n      0x14\n        /* \"#utility.yul\":7425:7428   */\n      dup3\n        /* \"#utility.yul\":7421:7433   */\n      add\n        /* \"#utility.yul\":7414:7433   */\n      swap2\n      pop\n        /* \"#utility.yul\":7443:7518   */\n      tag_365\n        /* \"#utility.yul\":7514:7517   */\n      dup3\n        /* \"#utility.yul\":7505:7511   */\n      dup5\n        /* \"#utility.yul\":7443:7518   */\n      tag_223\n      jump\t// in\n    tag_365:\n        /* \"#utility.yul\":7543:7545   */\n      0x14\n        /* \"#utility.yul\":7538:7541   */\n      dup3\n        /* \"#utility.yul\":7534:7546   */\n      add\n        /* \"#utility.yul\":7527:7546   */\n      swap2\n      pop\n        /* \"#utility.yul\":7563:7566   */\n      dup2\n        /* \"#utility.yul\":7556:7566   */\n      swap1\n      pop\n        /* \"#utility.yul\":7175:7572   */\n      swap4\n      swap3\n      pop\n      pop\n      pop\n      jump\t// out\n        /* \"#utility.yul\":7578:7753   */\n    tag_224:\n        /* \"#utility.yul\":7718:7745   */\n      0x6f6e6c7920746865206f776e65722063616e2063616e63656c00000000000000\n        /* \"#utility.yul\":7714:7715   */\n      0x00\n        /* \"#utility.yul\":7706:7712   */\n      dup3\n        /* \"#utility.yul\":7702:7716   */\n      add\n        /* \"#utility.yul\":7695:7746   */\n      mstore\n        /* \"#utility.yul\":7578:7753   */\n      pop\n      jump\t// out\n        /* \"#utility.yul\":7759:8125   */\n    tag_225:\n        /* \"#utility.yul\":7901:7904   */\n      0x00\n        /* \"#utility.yul\":7922:7989   */\n      tag_368\n        /* \"#utility.yul\":7986:7988   */\n      0x19\n        /* \"#utility.yul\":7981:7984   */\n      dup4\n        /* \"#utility.yul\":7922:7989   */\n      tag_214\n      jump\t// in\n    tag_368:\n        /* \"#utility.yul\":7915:7989   */\n      swap2\n      pop\n        /* \"#utility.yul\":7998:8091   */\n      tag_369\n        /* \"#utility.yul\":8087:8090   */\n      dup3\n        /* \"#utility.yul\":7998:8091   */\n      tag_224\n      jump\t// in\n    tag_369:\n        /* \"#utility.yul\":8116:8118   */\n      0x20\n        /* \"#utility.yul\":8111:8114   */\n      dup3\n        /* \"#utility.yul\":8107:8119   */\n      add\n        /* \"#utility.yul\":8100:8119   */\n      swap1\n      pop\n        /* \"#utility.yul\":7759:8125   */\n      swap2\n      swap1\n      pop\n      jump\t// out\n        /* \"#utility.yul\":8131:8550   */\n    tag_71:\n        /* \"#utility.yul\":8297:8301   */\n      0x00\n        /* \"#utility.yul\":8335:8337   */\n      0x20\n        /* \"#utility.yul\":8324:8333   */\n      dup3\n        /* \"#utility.yul\":8320:8338   */\n      add\n        /* \"#utility.yul\":8312:8338   */\n      swap1\n      pop\n        /* \"#utility.yul\":8384:8393   */\n      dup2\n        /* \"#utility.yul\":8378:8382   */\n      dup2\n        /* \"#utility.yul\":8374:8394   */\n      sub\n        /* \"#utility.yul\":8370:8371   */\n      0x00\n        /* \"#utility.yul\":8359:8368   */\n      dup4\n        /* \"#utility.yul\":8355:8372   */\n      add\n        /* \"#utility.yul\":8348:8395   */\n      mstore\n        /* \"#utility.yul\":8412:8543   */\n      tag_371\n        /* \"#utility.yul\":8538:8542   */\n      dup2\n        /* \"#utility.yul\":8412:8543   */\n      tag_225\n      jump\t// in\n    tag_371:\n        /* \"#utility.yul\":8404:8543   */\n      swap1\n      pop\n        /* \"#utility.yul\":8131:8550   */\n      swap2\n      swap1\n      pop\n      jump\t// out\n        /* \"#utility.yul\":8556:8730   */\n    tag_226:\n        /* \"#utility.yul\":8696:8722   */\n      0x7468697320746f6b656e206973206e6f74206163746976650000000000000000\n        /* \"#utility.yul\":8692:8693   */\n      0x00\n        /* \"#utility.yul\":8684:8690   */\n      dup3\n        /* \"#utility.yul\":8680:8694   */\n      add\n        /* \"#utility.yul\":8673:8723   */\n      mstore\n        /* \"#utility.yul\":8556:8730   */\n      pop\n      jump\t// out\n        /* \"#utility.yul\":8736:9102   */\n    tag_227:\n        /* \"#utility.yul\":8878:8881   */\n      0x00\n        /* \"#utility.yul\":8899:8966   */\n      tag_374\n        /* \"#utility.yul\":8963:8965   */\n      0x18\n        /* \"#utility.yul\":8958:8961   */\n      dup4\n        /* \"#utility.yul\":8899:8966   */\n      tag_214\n      jump\t// in\n    tag_374:\n        /* \"#utility.yul\":8892:8966   */\n      swap2\n      pop\n        /* \"#utility.yul\":8975:9068   */\n      tag_375\n        /* \"#utility.yul\":9064:9067   */\n      dup3\n        /* \"#utility.yul\":8975:9068   */\n      tag_226\n      jump\t// in\n    tag_375:\n        /* \"#utility.yul\":9093:9095   */\n      0x20\n        /* \"#utility.yul\":9088:9091   */\n      dup3\n        /* \"#utility.yul\":9084:9096   */\n      add\n        /* \"#utility.yul\":9077:9096   */\n      swap1\n      pop\n        /* \"#utility.yul\":8736:9102   */\n      swap2\n      swap1\n      pop\n      jump\t// out\n        /* \"#utility.yul\":9108:9527   */\n    tag_74:\n        /* \"#utility.yul\":9274:9278   */\n      0x00\n        /* \"#utility.yul\":9312:9314   */\n      0x20\n        /* \"#utility.yul\":9301:9310   */\n      dup3\n        /* \"#utility.yul\":9297:9315   */\n      add\n        /* \"#utility.yul\":9289:9315   */\n      swap1\n      pop\n        /* \"#utility.yul\":9361:9370   */\n      dup2\n        /* \"#utility.yul\":9355:9359   */\n      dup2\n        /* \"#utility.yul\":9351:9371   */\n      sub\n        /* \"#utility.yul\":9347:9348   */\n      0x00\n        /* \"#utility.yul\":9336:9345   */\n      dup4\n        /* \"#utility.yul\":9332:9349   */\n      add\n        /* \"#utility.yul\":9325:9372   */\n      mstore\n        /* \"#utility.yul\":9389:9520   */\n      tag_377\n        /* \"#utility.yul\":9515:9519   */\n      dup2\n        /* \"#utility.yul\":9389:9520   */\n      tag_227\n      jump\t// in\n    tag_377:\n        /* \"#utility.yul\":9381:9520   */\n      swap1\n      pop\n        /* \"#utility.yul\":9108:9527   */\n      swap2\n      swap1\n      pop\n      jump\t// out\n        /* \"#utility.yul\":9533:9676   */\n    tag_228:\n        /* \"#utility.yul\":9590:9595   */\n      0x00\n        /* \"#utility.yul\":9621:9627   */\n      dup2\n        /* \"#utility.yul\":9615:9628   */\n      mload\n        /* \"#utility.yul\":9606:9628   */\n      swap1\n      pop\n        /* \"#utility.yul\":9637:9670   */\n      tag_379\n        /* \"#utility.yul\":9664:9669   */\n      dup2\n        /* \"#utility.yul\":9637:9670   */\n      tag_211\n      jump\t// in\n    tag_379:\n        /* \"#utility.yul\":9533:9676   */\n      swap3\n      swap2\n      pop\n      pop\n      jump\t// out\n        /* \"#utility.yul\":9682:10033   */\n    tag_87:\n        /* \"#utility.yul\":9752:9758   */\n      0x00\n        /* \"#utility.yul\":9801:9803   */\n      0x20\n        /* \"#utility.yul\":9789:9798   */\n      dup3\n        /* \"#utility.yul\":9780:9787   */\n      dup5\n        /* \"#utility.yul\":9776:9799   */\n      sub\n        /* \"#utility.yul\":9772:9804   */\n      slt\n        /* \"#utility.yul\":9769:9888   */\n      iszero\n      tag_381\n      jumpi\n        /* \"#utility.yul\":9807:9886   */\n      tag_382\n      tag_198\n      jump\t// in\n    tag_382:\n        /* \"#utility.yul\":9769:9888   */\n    tag_381:\n        /* \"#utility.yul\":9927:9928   */\n      0x00\n        /* \"#utility.yul\":9952:10016   */\n      tag_383\n        /* \"#utility.yul\":10008:10015   */\n      dup5\n        /* \"#utility.yul\":9999:10005   */\n      dup3\n        /* \"#utility.yul\":9988:9997   */\n      dup6\n        /* \"#utility.yul\":9984:10006   */\n      add\n        /* \"#utility.yul\":9952:10016   */\n      tag_228\n      jump\t// in\n    tag_383:\n        /* \"#utility.yul\":9942:10016   */\n      swap2\n      pop\n        /* \"#utility.yul\":9898:10026   */\n      pop\n        /* \"#utility.yul\":9682:10033   */\n      swap3\n      swap2\n      pop\n      pop\n      jump\t// out\n        /* \"#utility.yul\":10039:10202   */\n    tag_229:\n        /* \"#utility.yul\":10179:10194   */\n      0x496e76616c696420746f6b656e00000000000000000000000000000000000000\n        /* \"#utility.yul\":10175:10176   */\n      0x00\n        /* \"#utility.yul\":10167:10173   */\n      dup3\n        /* \"#utility.yul\":10163:10177   */\n      add\n        /* \"#utility.yul\":10156:10195   */\n      mstore\n        /* \"#utility.yul\":10039:10202   */\n      pop\n      jump\t// out\n        /* \"#utility.yul\":10208:10574   */\n    tag_230:\n        /* \"#utility.yul\":10350:10353   */\n      0x00\n        /* \"#utility.yul\":10371:10438   */\n      tag_386\n        /* \"#utility.yul\":10435:10437   */\n      0x0d\n        /* \"#utility.yul\":10430:10433   */\n      dup4\n        /* \"#utility.yul\":10371:10438   */\n      tag_214\n      jump\t// in\n    tag_386:\n        /* \"#utility.yul\":10364:10438   */\n      swap2\n      pop\n        /* \"#utility.yul\":10447:10540   */\n      tag_387\n        /* \"#utility.yul\":10536:10539   */\n      dup3\n        /* \"#utility.yul\":10447:10540   */\n      tag_229\n      jump\t// in\n    tag_387:\n        /* \"#utility.yul\":10565:10567   */\n      0x20\n        /* \"#utility.yul\":10560:10563   */\n      dup3\n        /* \"#utility.yul\":10556:10568   */\n      add\n        /* \"#utility.yul\":10549:10568   */\n      swap1\n      pop\n        /* \"#utility.yul\":10208:10574   */\n      swap2\n      swap1\n      pop\n      jump\t// out\n        /* \"#utility.yul\":10580:10999   */\n    tag_94:\n        /* \"#utility.yul\":10746:10750   */\n      0x00\n        /* \"#utility.yul\":10784:10786   */\n      0x20\n        /* \"#utility.yul\":10773:10782   */\n      dup3\n        /* \"#utility.yul\":10769:10787   */\n      add\n        /* \"#utility.yul\":10761:10787   */\n      swap1\n      pop\n        /* \"#utility.yul\":10833:10842   */\n      dup2\n        /* \"#utility.yul\":10827:10831   */\n      dup2\n        /* \"#utility.yul\":10823:10843   */\n      sub\n        /* \"#utility.yul\":10819:10820   */\n      0x00\n        /* \"#utility.yul\":10808:10817   */\n      dup4\n        /* \"#utility.yul\":10804:10821   */\n      add\n        /* \"#utility.yul\":10797:10844   */\n      mstore\n        /* \"#utility.yul\":10861:10992   */\n      tag_389\n        /* \"#utility.yul\":10987:10991   */\n      dup2\n        /* \"#utility.yul\":10861:10992   */\n      tag_230\n      jump\t// in\n    tag_389:\n        /* \"#utility.yul\":10853:10992   */\n      swap1\n      pop\n        /* \"#utility.yul\":10580:10999   */\n      swap2\n      swap1\n      pop\n      jump\t// out\n        /* \"#utility.yul\":11005:11183   */\n    tag_231:\n        /* \"#utility.yul\":11145:11175   */\n      0x546f6b656e20616d6f756e742063616e206e6f74206265207a65726f00000000\n        /* \"#utility.yul\":11141:11142   */\n      0x00\n        /* \"#utility.yul\":11133:11139   */\n      dup3\n        /* \"#utility.yul\":11129:11143   */\n      add\n        /* \"#utility.yul\":11122:11176   */\n      mstore\n        /* \"#utility.yul\":11005:11183   */\n      pop\n      jump\t// out\n        /* \"#utility.yul\":11189:11555   */\n    tag_232:\n        /* \"#utility.yul\":11331:11334   */\n      0x00\n        /* \"#utility.yul\":11352:11419   */\n      tag_392\n        /* \"#utility.yul\":11416:11418   */\n      0x1c\n        /* \"#utility.yul\":11411:11414   */\n      dup4\n        /* \"#utility.yul\":11352:11419   */\n      tag_214\n      jump\t// in\n    tag_392:\n        /* \"#utility.yul\":11345:11419   */\n      swap2\n      pop\n        /* \"#utility.yul\":11428:11521   */\n      tag_393\n        /* \"#utility.yul\":11517:11520   */\n      dup3\n        /* \"#utility.yul\":11428:11521   */\n      tag_231\n      jump\t// in\n    tag_393:\n        /* \"#utility.yul\":11546:11548   */\n      0x20\n        /* \"#utility.yul\":11541:11544   */\n      dup3\n        /* \"#utility.yul\":11537:11549   */\n      add\n        /* \"#utility.yul\":11530:11549   */\n      swap1\n      pop\n        /* \"#utility.yul\":11189:11555   */\n      swap2\n      swap1\n      pop\n      jump\t// out\n        /* \"#utility.yul\":11561:11980   */\n    tag_97:\n        /* \"#utility.yul\":11727:11731   */\n      0x00\n        /* \"#utility.yul\":11765:11767   */\n      0x20\n        /* \"#utility.yul\":11754:11763   */\n      dup3\n        /* \"#utility.yul\":11750:11768   */\n      add\n        /* \"#utility.yul\":11742:11768   */\n      swap1\n      pop\n        /* \"#utility.yul\":11814:11823   */\n      dup2\n        /* \"#utility.yul\":11808:11812   */\n      dup2\n        /* \"#utility.yul\":11804:11824   */\n      sub\n        /* \"#utility.yul\":11800:11801   */\n      0x00\n        /* \"#utility.yul\":11789:11798   */\n      dup4\n        /* \"#utility.yul\":11785:11802   */\n      add\n        /* \"#utility.yul\":11778:11825   */\n      mstore\n        /* \"#utility.yul\":11842:11973   */\n      tag_395\n        /* \"#utility.yul\":11968:11972   */\n      dup2\n        /* \"#utility.yul\":11842:11973   */\n      tag_232\n      jump\t// in\n    tag_395:\n        /* \"#utility.yul\":11834:11973   */\n      swap1\n      pop\n        /* \"#utility.yul\":11561:11980   */\n      swap2\n      swap1\n      pop\n      jump\t// out\n        /* \"#utility.yul\":11986:12163   */\n    tag_233:\n        /* \"#utility.yul\":12126:12155   */\n      0x546f6b656e2070726963652063616e206e6f74206265207a65726f0000000000\n        /* \"#utility.yul\":12122:12123   */\n      0x00\n        /* \"#utility.yul\":12114:12120   */\n      dup3\n        /* \"#utility.yul\":12110:12124   */\n      add\n        /* \"#utility.yul\":12103:12156   */\n      mstore\n        /* \"#utility.yul\":11986:12163   */\n      pop\n      jump\t// out\n        /* \"#utility.yul\":12169:12535   */\n    tag_234:\n        /* \"#utility.yul\":12311:12314   */\n      0x00\n        /* \"#utility.yul\":12332:12399   */\n      tag_398\n        /* \"#utility.yul\":12396:12398   */\n      0x1b\n        /* \"#utility.yul\":12391:12394   */\n      dup4\n        /* \"#utility.yul\":12332:12399   */\n      tag_214\n      jump\t// in\n    tag_398:\n        /* \"#utility.yul\":12325:12399   */\n      swap2\n      pop\n        /* \"#utility.yul\":12408:12501   */\n      tag_399\n        /* \"#utility.yul\":12497:12500   */\n      dup3\n        /* \"#utility.yul\":12408:12501   */\n      tag_233\n      jump\t// in\n    tag_399:\n        /* \"#utility.yul\":12526:12528   */\n      0x20\n        /* \"#utility.yul\":12521:12524   */\n      dup3\n        /* \"#utility.yul\":12517:12529   */\n      add\n        /* \"#utility.yul\":12510:12529   */\n      swap1\n      pop\n        /* \"#utility.yul\":12169:12535   */\n      swap2\n      swap1\n      pop\n      jump\t// out\n        /* \"#utility.yul\":12541:12960   */\n    tag_100:\n        /* \"#utility.yul\":12707:12711   */\n      0x00\n        /* \"#utility.yul\":12745:12747   */\n      0x20\n        /* \"#utility.yul\":12734:12743   */\n      dup3\n        /* \"#utility.yul\":12730:12748   */\n      add\n        /* \"#utility.yul\":12722:12748   */\n      swap1\n      pop\n        /* \"#utility.yul\":12794:12803   */\n      dup2\n        /* \"#utility.yul\":12788:12792   */\n      dup2\n        /* \"#utility.yul\":12784:12804   */\n      sub\n        /* \"#utility.yul\":12780:12781   */\n      0x00\n        /* \"#utility.yul\":12769:12778   */\n      dup4\n        /* \"#utility.yul\":12765:12782   */\n      add\n        /* \"#utility.yul\":12758:12805   */\n      mstore\n        /* \"#utility.yul\":12822:12953   */\n      tag_401\n        /* \"#utility.yul\":12948:12952   */\n      dup2\n        /* \"#utility.yul\":12822:12953   */\n      tag_234\n      jump\t// in\n    tag_401:\n        /* \"#utility.yul\":12814:12953   */\n      swap1\n      pop\n        /* \"#utility.yul\":12541:12960   */\n      swap2\n      swap1\n      pop\n      jump\t// out\n        /* \"#utility.yul\":12966:13202   */\n    tag_235:\n        /* \"#utility.yul\":13106:13140   */\n      0x596f75206d75737420617070726f7665207468697320636f6e74726163742074\n        /* \"#utility.yul\":13102:13103   */\n      0x00\n        /* \"#utility.yul\":13094:13100   */\n      dup3\n        /* \"#utility.yul\":13090:13104   */\n      add\n        /* \"#utility.yul\":13083:13141   */\n      mstore\n        /* \"#utility.yul\":13175:13194   */\n      0x6f2075736520796f757220746f6b656e73000000000000000000000000000000\n        /* \"#utility.yul\":13170:13172   */\n      0x20\n        /* \"#utility.yul\":13162:13168   */\n      dup3\n        /* \"#utility.yul\":13158:13173   */\n      add\n        /* \"#utility.yul\":13151:13195   */\n      mstore\n        /* \"#utility.yul\":12966:13202   */\n      pop\n      jump\t// out\n        /* \"#utility.yul\":13208:13574   */\n    tag_236:\n        /* \"#utility.yul\":13350:13353   */\n      0x00\n        /* \"#utility.yul\":13371:13438   */\n      tag_404\n        /* \"#utility.yul\":13435:13437   */\n      0x31\n        /* \"#utility.yul\":13430:13433   */\n      dup4\n        /* \"#utility.yul\":13371:13438   */\n      tag_214\n      jump\t// in\n    tag_404:\n        /* \"#utility.yul\":13364:13438   */\n      swap2\n      pop\n        /* \"#utility.yul\":13447:13540   */\n      tag_405\n        /* \"#utility.yul\":13536:13539   */\n      dup3\n        /* \"#utility.yul\":13447:13540   */\n      tag_235\n      jump\t// in\n    tag_405:\n        /* \"#utility.yul\":13565:13567   */\n      0x40\n        /* \"#utility.yul\":13560:13563   */\n      dup3\n        /* \"#utility.yul\":13556:13568   */\n      add\n        /* \"#utility.yul\":13549:13568   */\n      swap1\n      pop\n        /* \"#utility.yul\":13208:13574   */\n      swap2\n      swap1\n      pop\n      jump\t// out\n        /* \"#utility.yul\":13580:13999   */\n    tag_105:\n        /* \"#utility.yul\":13746:13750   */\n      0x00\n        /* \"#utility.yul\":13784:13786   */\n      0x20\n        /* \"#utility.yul\":13773:13782   */\n      dup3\n        /* \"#utility.yul\":13769:13787   */\n      add\n        /* \"#utility.yul\":13761:13787   */\n      swap1\n      pop\n        /* \"#utility.yul\":13833:13842   */\n      dup2\n        /* \"#utility.yul\":13827:13831   */\n      dup2\n        /* \"#utility.yul\":13823:13843   */\n      sub\n        /* \"#utility.yul\":13819:13820   */\n      0x00\n        /* \"#utility.yul\":13808:13817   */\n      dup4\n        /* \"#utility.yul\":13804:13821   */\n      add\n        /* \"#utility.yul\":13797:13844   */\n      mstore\n        /* \"#utility.yul\":13861:13992   */\n      tag_407\n        /* \"#utility.yul\":13987:13991   */\n      dup2\n        /* \"#utility.yul\":13861:13992   */\n      tag_236\n      jump\t// in\n    tag_407:\n        /* \"#utility.yul\":13853:13992   */\n      swap1\n      pop\n        /* \"#utility.yul\":13580:13999   */\n      swap2\n      swap1\n      pop\n      jump\t// out\n        /* \"#utility.yul\":14005:14174   */\n    tag_237:\n        /* \"#utility.yul\":14145:14166   */\n      0x496e73756666696369656e7420746f6b656e7300000000000000000000000000\n        /* \"#utility.yul\":14141:14142   */\n      0x00\n        /* \"#utility.yul\":14133:14139   */\n      dup3\n        /* \"#utility.yul\":14129:14143   */\n      add\n        /* \"#utility.yul\":14122:14167   */\n      mstore\n        /* \"#utility.yul\":14005:14174   */\n      pop\n      jump\t// out\n        /* \"#utility.yul\":14180:14546   */\n    tag_238:\n        /* \"#utility.yul\":14322:14325   */\n      0x00\n        /* \"#utility.yul\":14343:14410   */\n      tag_410\n        /* \"#utility.yul\":14407:14409   */\n      0x13\n        /* \"#utility.yul\":14402:14405   */\n      dup4\n        /* \"#utility.yul\":14343:14410   */\n      tag_214\n      jump\t// in\n    tag_410:\n        /* \"#utility.yul\":14336:14410   */\n      swap2\n      pop\n        /* \"#utility.yul\":14419:14512   */\n      tag_411\n        /* \"#utility.yul\":14508:14511   */\n      dup3\n        /* \"#utility.yul\":14419:14512   */\n      tag_237\n      jump\t// in\n    tag_411:\n        /* \"#utility.yul\":14537:14539   */\n      0x20\n        /* \"#utility.yul\":14532:14535   */\n      dup3\n        /* \"#utility.yul\":14528:14540   */\n      add\n        /* \"#utility.yul\":14521:14540   */\n      swap1\n      pop\n        /* \"#utility.yul\":14180:14546   */\n      swap2\n      swap1\n      pop\n      jump\t// out\n        /* \"#utility.yul\":14552:14971   */\n    tag_109:\n        /* \"#utility.yul\":14718:14722   */\n      0x00\n        /* \"#utility.yul\":14756:14758   */\n      0x20\n        /* \"#utility.yul\":14745:14754   */\n      dup3\n        /* \"#utility.yul\":14741:14759   */\n      add\n        /* \"#utility.yul\":14733:14759   */\n      swap1\n      pop\n        /* \"#utility.yul\":14805:14814   */\n      dup2\n        /* \"#utility.yul\":14799:14803   */\n      dup2\n        /* \"#utility.yul\":14795:14815   */\n      sub\n        /* \"#utility.yul\":14791:14792   */\n      0x00\n        /* \"#utility.yul\":14780:14789   */\n      dup4\n        /* \"#utility.yul\":14776:14793   */\n      add\n        /* \"#utility.yul\":14769:14816   */\n      mstore\n        /* \"#utility.yul\":14833:14964   */\n      tag_413\n        /* \"#utility.yul\":14959:14963   */\n      dup2\n        /* \"#utility.yul\":14833:14964   */\n      tag_238\n      jump\t// in\n    tag_413:\n        /* \"#utility.yul\":14825:14964   */\n      swap1\n      pop\n        /* \"#utility.yul\":14552:14971   */\n      swap2\n      swap1\n      pop\n      jump\t// out\n        /* \"#utility.yul\":14977:15157   */\n    tag_239:\n        /* \"#utility.yul\":15025:15102   */\n      0x4e487b7100000000000000000000000000000000000000000000000000000000\n        /* \"#utility.yul\":15022:15023   */\n      0x00\n        /* \"#utility.yul\":15015:15103   */\n      mstore\n        /* \"#utility.yul\":15122:15126   */\n      0x11\n        /* \"#utility.yul\":15119:15120   */\n      0x04\n        /* \"#utility.yul\":15112:15127   */\n      mstore\n        /* \"#utility.yul\":15146:15150   */\n      0x24\n        /* \"#utility.yul\":15143:15144   */\n      0x00\n        /* \"#utility.yul\":15136:15151   */\n      revert\n        /* \"#utility.yul\":15163:15573   */\n    tag_111:\n        /* \"#utility.yul\":15203:15210   */\n      0x00\n        /* \"#utility.yul\":15226:15246   */\n      tag_416\n        /* \"#utility.yul\":15244:15245   */\n      dup3\n        /* \"#utility.yul\":15226:15246   */\n      tag_206\n      jump\t// in\n    tag_416:\n        /* \"#utility.yul\":15221:15246   */\n      swap2\n      pop\n        /* \"#utility.yul\":15260:15280   */\n      tag_417\n        /* \"#utility.yul\":15278:15279   */\n      dup4\n        /* \"#utility.yul\":15260:15280   */\n      tag_206\n      jump\t// in\n    tag_417:\n        /* \"#utility.yul\":15255:15280   */\n      swap3\n      pop\n        /* \"#utility.yul\":15315:15316   */\n      dup3\n        /* \"#utility.yul\":15312:15313   */\n      dup3\n        /* \"#utility.yul\":15308:15317   */\n      mul\n        /* \"#utility.yul\":15337:15367   */\n      tag_418\n        /* \"#utility.yul\":15355:15366   */\n      dup2\n        /* \"#utility.yul\":15337:15367   */\n      tag_206\n      jump\t// in\n    tag_418:\n        /* \"#utility.yul\":15326:15367   */\n      swap2\n      pop\n        /* \"#utility.yul\":15516:15517   */\n      dup3\n        /* \"#utility.yul\":15507:15514   */\n      dup3\n        /* \"#utility.yul\":15503:15518   */\n      div\n        /* \"#utility.yul\":15500:15501   */\n      dup5\n        /* \"#utility.yul\":15497:15519   */\n      eq\n        /* \"#utility.yul\":15477:15478   */\n      dup4\n        /* \"#utility.yul\":15470:15479   */\n      iszero\n        /* \"#utility.yul\":15450:15533   */\n      or\n        /* \"#utility.yul\":15427:15566   */\n      tag_419\n      jumpi\n        /* \"#utility.yul\":15546:15564   */\n      tag_420\n      tag_239\n      jump\t// in\n    tag_420:\n        /* \"#utility.yul\":15427:15566   */\n    tag_419:\n        /* \"#utility.yul\":15211:15573   */\n      pop\n        /* \"#utility.yul\":15163:15573   */\n      swap3\n      swap2\n      pop\n      pop\n      jump\t// out\n        /* \"#utility.yul\":15579:15759   */\n    tag_240:\n        /* \"#utility.yul\":15627:15704   */\n      0x4e487b7100000000000000000000000000000000000000000000000000000000\n        /* \"#utility.yul\":15624:15625   */\n      0x00\n        /* \"#utility.yul\":15617:15705   */\n      mstore\n        /* \"#utility.yul\":15724:15728   */\n      0x12\n        /* \"#utility.yul\":15721:15722   */\n      0x04\n        /* \"#utility.yul\":15714:15729   */\n      mstore\n        /* \"#utility.yul\":15748:15752   */\n      0x24\n        /* \"#utility.yul\":15745:15746   */\n      0x00\n        /* \"#utility.yul\":15738:15753   */\n      revert\n        /* \"#utility.yul\":15765:15950   */\n    tag_113:\n        /* \"#utility.yul\":15805:15806   */\n      0x00\n        /* \"#utility.yul\":15822:15842   */\n      tag_423\n        /* \"#utility.yul\":15840:15841   */\n      dup3\n        /* \"#utility.yul\":15822:15842   */\n      tag_206\n      jump\t// in\n    tag_423:\n        /* \"#utility.yul\":15817:15842   */\n      swap2\n      pop\n        /* \"#utility.yul\":15856:15876   */\n      tag_424\n        /* \"#utility.yul\":15874:15875   */\n      dup4\n        /* \"#utility.yul\":15856:15876   */\n      tag_206\n      jump\t// in\n    tag_424:\n        /* \"#utility.yul\":15851:15876   */\n      swap3\n      pop\n        /* \"#utility.yul\":15895:15896   */\n      dup3\n        /* \"#utility.yul\":15885:15920   */\n      tag_425\n      jumpi\n        /* \"#utility.yul\":15900:15918   */\n      tag_426\n      tag_240\n      jump\t// in\n    tag_426:\n        /* \"#utility.yul\":15885:15920   */\n    tag_425:\n        /* \"#utility.yul\":15942:15943   */\n      dup3\n        /* \"#utility.yul\":15939:15940   */\n      dup3\n        /* \"#utility.yul\":15935:15944   */\n      div\n        /* \"#utility.yul\":15930:15944   */\n      swap1\n      pop\n        /* \"#utility.yul\":15765:15950   */\n      swap3\n      swap2\n      pop\n      pop\n      jump\t// out\n        /* \"#utility.yul\":15956:16150   */\n    tag_115:\n        /* \"#utility.yul\":15996:16000   */\n      0x00\n        /* \"#utility.yul\":16016:16036   */\n      tag_428\n        /* \"#utility.yul\":16034:16035   */\n      dup3\n        /* \"#utility.yul\":16016:16036   */\n      tag_206\n      jump\t// in\n    tag_428:\n        /* \"#utility.yul\":16011:16036   */\n      swap2\n      pop\n        /* \"#utility.yul\":16050:16070   */\n      tag_429\n        /* \"#utility.yul\":16068:16069   */\n      dup4\n        /* \"#utility.yul\":16050:16070   */\n      tag_206\n      jump\t// in\n    tag_429:\n        /* \"#utility.yul\":16045:16070   */\n      swap3\n      pop\n        /* \"#utility.yul\":16094:16095   */\n      dup3\n        /* \"#utility.yul\":16091:16092   */\n      dup3\n        /* \"#utility.yul\":16087:16096   */\n      sub\n        /* \"#utility.yul\":16079:16096   */\n      swap1\n      pop\n        /* \"#utility.yul\":16118:16119   */\n      dup2\n        /* \"#utility.yul\":16112:16116   */\n      dup2\n        /* \"#utility.yul\":16109:16120   */\n      gt\n        /* \"#utility.yul\":16106:16143   */\n      iszero\n      tag_430\n      jumpi\n        /* \"#utility.yul\":16123:16141   */\n      tag_431\n      tag_239\n      jump\t// in\n    tag_431:\n        /* \"#utility.yul\":16106:16143   */\n    tag_430:\n        /* \"#utility.yul\":15956:16150   */\n      swap3\n      swap2\n      pop\n      pop\n      jump\t// out\n        /* \"#utility.yul\":16156:16598   */\n    tag_117:\n        /* \"#utility.yul\":16305:16309   */\n      0x00\n        /* \"#utility.yul\":16343:16345   */\n      0x60\n        /* \"#utility.yul\":16332:16341   */\n      dup3\n        /* \"#utility.yul\":16328:16346   */\n      add\n        /* \"#utility.yul\":16320:16346   */\n      swap1\n      pop\n        /* \"#utility.yul\":16356:16427   */\n      tag_433\n        /* \"#utility.yul\":16424:16425   */\n      0x00\n        /* \"#utility.yul\":16413:16422   */\n      dup4\n        /* \"#utility.yul\":16409:16426   */\n      add\n        /* \"#utility.yul\":16400:16406   */\n      dup7\n        /* \"#utility.yul\":16356:16427   */\n      tag_208\n      jump\t// in\n    tag_433:\n        /* \"#utility.yul\":16437:16509   */\n      tag_434\n        /* \"#utility.yul\":16505:16507   */\n      0x20\n        /* \"#utility.yul\":16494:16503   */\n      dup4\n        /* \"#utility.yul\":16490:16508   */\n      add\n        /* \"#utility.yul\":16481:16487   */\n      dup6\n        /* \"#utility.yul\":16437:16509   */\n      tag_208\n      jump\t// in\n    tag_434:\n        /* \"#utility.yul\":16519:16591   */\n      tag_435\n        /* \"#utility.yul\":16587:16589   */\n      0x40\n        /* \"#utility.yul\":16576:16585   */\n      dup4\n        /* \"#utility.yul\":16572:16590   */\n      add\n        /* \"#utility.yul\":16563:16569   */\n      dup5\n        /* \"#utility.yul\":16519:16591   */\n      tag_207\n      jump\t// in\n    tag_435:\n        /* \"#utility.yul\":16156:16598   */\n      swap5\n      swap4\n      pop\n      pop\n      pop\n      pop\n      jump\t// out\n        /* \"#utility.yul\":16604:16720   */\n    tag_241:\n        /* \"#utility.yul\":16674:16695   */\n      tag_437\n        /* \"#utility.yul\":16689:16694   */\n      dup2\n        /* \"#utility.yul\":16674:16695   */\n      tag_218\n      jump\t// in\n    tag_437:\n        /* \"#utility.yul\":16667:16672   */\n      dup2\n        /* \"#utility.yul\":16664:16696   */\n      eq\n        /* \"#utility.yul\":16654:16714   */\n      tag_438\n      jumpi\n        /* \"#utility.yul\":16710:16711   */\n      0x00\n        /* \"#utility.yul\":16707:16708   */\n      dup1\n        /* \"#utility.yul\":16700:16712   */\n      revert\n        /* \"#utility.yul\":16654:16714   */\n    tag_438:\n        /* \"#utility.yul\":16604:16720   */\n      pop\n      jump\t// out\n        /* \"#utility.yul\":16726:16863   */\n    tag_242:\n        /* \"#utility.yul\":16780:16785   */\n      0x00\n        /* \"#utility.yul\":16811:16817   */\n      dup2\n        /* \"#utility.yul\":16805:16818   */\n      mload\n        /* \"#utility.yul\":16796:16818   */\n      swap1\n      pop\n        /* \"#utility.yul\":16827:16857   */\n      tag_440\n        /* \"#utility.yul\":16851:16856   */\n      dup2\n        /* \"#utility.yul\":16827:16857   */\n      tag_241\n      jump\t// in\n    tag_440:\n        /* \"#utility.yul\":16726:16863   */\n      swap3\n      swap2\n      pop\n      pop\n      jump\t// out\n        /* \"#utility.yul\":16869:17214   */\n    tag_121:\n        /* \"#utility.yul\":16936:16942   */\n      0x00\n        /* \"#utility.yul\":16985:16987   */\n      0x20\n        /* \"#utility.yul\":16973:16982   */\n      dup3\n        /* \"#utility.yul\":16964:16971   */\n      dup5\n        /* \"#utility.yul\":16960:16983   */\n      sub\n        /* \"#utility.yul\":16956:16988   */\n      slt\n        /* \"#utility.yul\":16953:17072   */\n      iszero\n      tag_442\n      jumpi\n        /* \"#utility.yul\":16991:17070   */\n      tag_443\n      tag_198\n      jump\t// in\n    tag_443:\n        /* \"#utility.yul\":16953:17072   */\n    tag_442:\n        /* \"#utility.yul\":17111:17112   */\n      0x00\n        /* \"#utility.yul\":17136:17197   */\n      tag_444\n        /* \"#utility.yul\":17189:17196   */\n      dup5\n        /* \"#utility.yul\":17180:17186   */\n      dup3\n        /* \"#utility.yul\":17169:17178   */\n      dup6\n        /* \"#utility.yul\":17165:17187   */\n      add\n        /* \"#utility.yul\":17136:17197   */\n      tag_242\n      jump\t// in\n    tag_444:\n        /* \"#utility.yul\":17126:17197   */\n      swap2\n      pop\n        /* \"#utility.yul\":17082:17207   */\n      pop\n        /* \"#utility.yul\":16869:17214   */\n      swap3\n      swap2\n      pop\n      pop\n      jump\t// out\n        /* \"#utility.yul\":17220:17401   */\n    tag_243:\n        /* \"#utility.yul\":17360:17393   */\n      0x4572726f72207768696c65207472616e7366657272696e6720746f6b656e7300\n        /* \"#utility.yul\":17356:17357   */\n      0x00\n        /* \"#utility.yul\":17348:17354   */\n      dup3\n        /* \"#utility.yul\":17344:17358   */\n      add\n        /* \"#utility.yul\":17337:17394   */\n      mstore\n        /* \"#utility.yul\":17220:17401   */\n      pop\n      jump\t// out\n        /* \"#utility.yul\":17407:17773   */\n    tag_244:\n        /* \"#utility.yul\":17549:17552   */\n      0x00\n        /* \"#utility.yul\":17570:17637   */\n      tag_447\n        /* \"#utility.yul\":17634:17636   */\n      0x1f\n        /* \"#utility.yul\":17629:17632   */\n      dup4\n        /* \"#utility.yul\":17570:17637   */\n      tag_214\n      jump\t// in\n    tag_447:\n        /* \"#utility.yul\":17563:17637   */\n      swap2\n      pop\n        /* \"#utility.yul\":17646:17739   */\n      tag_448\n        /* \"#utility.yul\":17735:17738   */\n      dup3\n        /* \"#utility.yul\":17646:17739   */\n      tag_243\n      jump\t// in\n    tag_448:\n        /* \"#utility.yul\":17764:17766   */\n      0x20\n        /* \"#utility.yul\":17759:17762   */\n      dup3\n        /* \"#utility.yul\":17755:17767   */\n      add\n        /* \"#utility.yul\":17748:17767   */\n      swap1\n      pop\n        /* \"#utility.yul\":17407:17773   */\n      swap2\n      swap1\n      pop\n      jump\t// out\n        /* \"#utility.yul\":17779:18198   */\n    tag_124:\n        /* \"#utility.yul\":17945:17949   */\n      0x00\n        /* \"#utility.yul\":17983:17985   */\n      0x20\n        /* \"#utility.yul\":17972:17981   */\n      dup3\n        /* \"#utility.yul\":17968:17986   */\n      add\n        /* \"#utility.yul\":17960:17986   */\n      swap1\n      pop\n        /* \"#utility.yul\":18032:18041   */\n      dup2\n        /* \"#utility.yul\":18026:18030   */\n      dup2\n        /* \"#utility.yul\":18022:18042   */\n      sub\n        /* \"#utility.yul\":18018:18019   */\n      0x00\n        /* \"#utility.yul\":18007:18016   */\n      dup4\n        /* \"#utility.yul\":18003:18020   */\n      add\n        /* \"#utility.yul\":17996:18043   */\n      mstore\n        /* \"#utility.yul\":18060:18191   */\n      tag_450\n        /* \"#utility.yul\":18186:18190   */\n      dup2\n        /* \"#utility.yul\":18060:18191   */\n      tag_244\n      jump\t// in\n    tag_450:\n        /* \"#utility.yul\":18052:18191   */\n      swap1\n      pop\n        /* \"#utility.yul\":17779:18198   */\n      swap2\n      swap1\n      pop\n      jump\t// out\n        /* \"#utility.yul\":18204:18321   */\n    tag_245:\n        /* \"#utility.yul\":18313:18314   */\n      0x00\n        /* \"#utility.yul\":18310:18311   */\n      dup1\n        /* \"#utility.yul\":18303:18315   */\n      revert\n        /* \"#utility.yul\":18327:18444   */\n    tag_246:\n        /* \"#utility.yul\":18436:18437   */\n      0x00\n        /* \"#utility.yul\":18433:18434   */\n      dup1\n        /* \"#utility.yul\":18426:18438   */\n      revert\n        /* \"#utility.yul\":18450:18630   */\n    tag_247:\n        /* \"#utility.yul\":18498:18575   */\n      0x4e487b7100000000000000000000000000000000000000000000000000000000\n        /* \"#utility.yul\":18495:18496   */\n      0x00\n        /* \"#utility.yul\":18488:18576   */\n      mstore\n        /* \"#utility.yul\":18595:18599   */\n      0x41\n        /* \"#utility.yul\":18592:18593   */\n      0x04\n        /* \"#utility.yul\":18585:18600   */\n      mstore\n        /* \"#utility.yul\":18619:18623   */\n      0x24\n        /* \"#utility.yul\":18616:18617   */\n      0x00\n        /* \"#utility.yul\":18609:18624   */\n      revert\n        /* \"#utility.yul\":18636:18917   */\n    tag_248:\n        /* \"#utility.yul\":18719:18746   */\n      tag_455\n        /* \"#utility.yul\":18741:18745   */\n      dup3\n        /* \"#utility.yul\":18719:18746   */\n      tag_216\n      jump\t// in\n    tag_455:\n        /* \"#utility.yul\":18711:18717   */\n      dup2\n        /* \"#utility.yul\":18707:18747   */\n      add\n        /* \"#utility.yul\":18849:18855   */\n      dup2\n        /* \"#utility.yul\":18837:18847   */\n      dup2\n        /* \"#utility.yul\":18834:18856   */\n      lt\n        /* \"#utility.yul\":18813:18831   */\n      0xffffffffffffffff\n        /* \"#utility.yul\":18801:18811   */\n      dup3\n        /* \"#utility.yul\":18798:18832   */\n      gt\n        /* \"#utility.yul\":18795:18857   */\n      or\n        /* \"#utility.yul\":18792:18880   */\n      iszero\n      tag_456\n      jumpi\n        /* \"#utility.yul\":18860:18878   */\n      tag_457\n      tag_247\n      jump\t// in\n    tag_457:\n        /* \"#utility.yul\":18792:18880   */\n    tag_456:\n        /* \"#utility.yul\":18900:18910   */\n      dup1\n        /* \"#utility.yul\":18896:18898   */\n      0x40\n        /* \"#utility.yul\":18889:18911   */\n      mstore\n        /* \"#utility.yul\":18679:18917   */\n      pop\n        /* \"#utility.yul\":18636:18917   */\n      pop\n      pop\n      jump\t// out\n        /* \"#utility.yul\":18923:19052   */\n    tag_249:\n        /* \"#utility.yul\":18957:18963   */\n      0x00\n        /* \"#utility.yul\":18984:19004   */\n      tag_459\n      tag_197\n      jump\t// in\n    tag_459:\n        /* \"#utility.yul\":18974:19004   */\n      swap1\n      pop\n        /* \"#utility.yul\":19013:19046   */\n      tag_460\n        /* \"#utility.yul\":19041:19045   */\n      dup3\n        /* \"#utility.yul\":19033:19039   */\n      dup3\n        /* \"#utility.yul\":19013:19046   */\n      tag_248\n      jump\t// in\n    tag_460:\n        /* \"#utility.yul\":18923:19052   */\n      swap2\n      swap1\n      pop\n      jump\t// out\n        /* \"#utility.yul\":19058:19366   */\n    tag_250:\n        /* \"#utility.yul\":19120:19124   */\n      0x00\n        /* \"#utility.yul\":19210:19228   */\n      0xffffffffffffffff\n        /* \"#utility.yul\":19202:19208   */\n      dup3\n        /* \"#utility.yul\":19199:19229   */\n      gt\n        /* \"#utility.yul\":19196:19252   */\n      iszero\n      tag_462\n      jumpi\n        /* \"#utility.yul\":19232:19250   */\n      tag_463\n      tag_247\n      jump\t// in\n    tag_463:\n        /* \"#utility.yul\":19196:19252   */\n    tag_462:\n        /* \"#utility.yul\":19270:19299   */\n      tag_464\n        /* \"#utility.yul\":19292:19298   */\n      dup3\n        /* \"#utility.yul\":19270:19299   */\n      tag_216\n      jump\t// in\n    tag_464:\n        /* \"#utility.yul\":19262:19299   */\n      swap1\n      pop\n        /* \"#utility.yul\":19354:19358   */\n      0x20\n        /* \"#utility.yul\":19348:19352   */\n      dup2\n        /* \"#utility.yul\":19344:19359   */\n      add\n        /* \"#utility.yul\":19336:19359   */\n      swap1\n      pop\n        /* \"#utility.yul\":19058:19366   */\n      swap2\n      swap1\n      pop\n      jump\t// out\n        /* \"#utility.yul\":19372:19806   */\n    tag_251:\n        /* \"#utility.yul\":19461:19466   */\n      0x00\n        /* \"#utility.yul\":19486:19552   */\n      tag_466\n        /* \"#utility.yul\":19502:19551   */\n      tag_467\n        /* \"#utility.yul\":19544:19550   */\n      dup5\n        /* \"#utility.yul\":19502:19551   */\n      tag_250\n      jump\t// in\n    tag_467:\n        /* \"#utility.yul\":19486:19552   */\n      tag_249\n      jump\t// in\n    tag_466:\n        /* \"#utility.yul\":19477:19552   */\n      swap1\n      pop\n        /* \"#utility.yul\":19575:19581   */\n      dup3\n        /* \"#utility.yul\":19568:19573   */\n      dup2\n        /* \"#utility.yul\":19561:19582   */\n      mstore\n        /* \"#utility.yul\":19613:19617   */\n      0x20\n        /* \"#utility.yul\":19606:19611   */\n      dup2\n        /* \"#utility.yul\":19602:19618   */\n      add\n        /* \"#utility.yul\":19651:19654   */\n      dup5\n        /* \"#utility.yul\":19642:19648   */\n      dup5\n        /* \"#utility.yul\":19637:19640   */\n      dup5\n        /* \"#utility.yul\":19633:19649   */\n      add\n        /* \"#utility.yul\":19630:19655   */\n      gt\n        /* \"#utility.yul\":19627:19739   */\n      iszero\n      tag_468\n      jumpi\n        /* \"#utility.yul\":19658:19737   */\n      tag_469\n      tag_246\n      jump\t// in\n    tag_469:\n        /* \"#utility.yul\":19627:19739   */\n    tag_468:\n        /* \"#utility.yul\":19748:19800   */\n      tag_470\n        /* \"#utility.yul\":19793:19799   */\n      dup5\n        /* \"#utility.yul\":19788:19791   */\n      dup3\n        /* \"#utility.yul\":19783:19786   */\n      dup6\n        /* \"#utility.yul\":19748:19800   */\n      tag_215\n      jump\t// in\n    tag_470:\n        /* \"#utility.yul\":19467:19806   */\n      pop\n        /* \"#utility.yul\":19372:19806   */\n      swap4\n      swap3\n      pop\n      pop\n      pop\n      jump\t// out\n        /* \"#utility.yul\":19826:20181   */\n    tag_252:\n        /* \"#utility.yul\":19893:19898   */\n      0x00\n        /* \"#utility.yul\":19942:19945   */\n      dup3\n        /* \"#utility.yul\":19935:19939   */\n      0x1f\n        /* \"#utility.yul\":19927:19933   */\n      dup4\n        /* \"#utility.yul\":19923:19940   */\n      add\n        /* \"#utility.yul\":19919:19946   */\n      slt\n        /* \"#utility.yul\":19909:20031   */\n      tag_472\n      jumpi\n        /* \"#utility.yul\":19950:20029   */\n      tag_473\n      tag_245\n      jump\t// in\n    tag_473:\n        /* \"#utility.yul\":19909:20031   */\n    tag_472:\n        /* \"#utility.yul\":20060:20066   */\n      dup2\n        /* \"#utility.yul\":20054:20067   */\n      mload\n        /* \"#utility.yul\":20085:20175   */\n      tag_474\n        /* \"#utility.yul\":20171:20174   */\n      dup5\n        /* \"#utility.yul\":20163:20169   */\n      dup3\n        /* \"#utility.yul\":20156:20160   */\n      0x20\n        /* \"#utility.yul\":20148:20154   */\n      dup7\n        /* \"#utility.yul\":20144:20161   */\n      add\n        /* \"#utility.yul\":20085:20175   */\n      tag_251\n      jump\t// in\n    tag_474:\n        /* \"#utility.yul\":20076:20175   */\n      swap2\n      pop\n        /* \"#utility.yul\":19899:20181   */\n      pop\n        /* \"#utility.yul\":19826:20181   */\n      swap3\n      swap2\n      pop\n      pop\n      jump\t// out\n        /* \"#utility.yul\":20187:20711   */\n    tag_130:\n        /* \"#utility.yul\":20267:20273   */\n      0x00\n        /* \"#utility.yul\":20316:20318   */\n      0x20\n        /* \"#utility.yul\":20304:20313   */\n      dup3\n        /* \"#utility.yul\":20295:20302   */\n      dup5\n        /* \"#utility.yul\":20291:20314   */\n      sub\n        /* \"#utility.yul\":20287:20319   */\n      slt\n        /* \"#utility.yul\":20284:20403   */\n      iszero\n      tag_476\n      jumpi\n        /* \"#utility.yul\":20322:20401   */\n      tag_477\n      tag_198\n      jump\t// in\n    tag_477:\n        /* \"#utility.yul\":20284:20403   */\n    tag_476:\n        /* \"#utility.yul\":20463:20464   */\n      0x00\n        /* \"#utility.yul\":20452:20461   */\n      dup3\n        /* \"#utility.yul\":20448:20465   */\n      add\n        /* \"#utility.yul\":20442:20466   */\n      mload\n        /* \"#utility.yul\":20493:20511   */\n      0xffffffffffffffff\n        /* \"#utility.yul\":20485:20491   */\n      dup2\n        /* \"#utility.yul\":20482:20512   */\n      gt\n        /* \"#utility.yul\":20479:20596   */\n      iszero\n      tag_478\n      jumpi\n        /* \"#utility.yul\":20515:20594   */\n      tag_479\n      tag_199\n      jump\t// in\n    tag_479:\n        /* \"#utility.yul\":20479:20596   */\n    tag_478:\n        /* \"#utility.yul\":20620:20694   */\n      tag_480\n        /* \"#utility.yul\":20686:20693   */\n      dup5\n        /* \"#utility.yul\":20677:20683   */\n      dup3\n        /* \"#utility.yul\":20666:20675   */\n      dup6\n        /* \"#utility.yul\":20662:20684   */\n      add\n        /* \"#utility.yul\":20620:20694   */\n      tag_252\n      jump\t// in\n    tag_480:\n        /* \"#utility.yul\":20610:20694   */\n      swap2\n      pop\n        /* \"#utility.yul\":20413:20704   */\n      pop\n        /* \"#utility.yul\":20187:20711   */\n      swap3\n      swap2\n      pop\n      pop\n      jump\t// out\n        /* \"#utility.yul\":20717:20897   */\n    tag_253:\n        /* \"#utility.yul\":20765:20842   */\n      0x4e487b7100000000000000000000000000000000000000000000000000000000\n        /* \"#utility.yul\":20762:20763   */\n      0x00\n        /* \"#utility.yul\":20755:20843   */\n      mstore\n        /* \"#utility.yul\":20862:20866   */\n      0x22\n        /* \"#utility.yul\":20859:20860   */\n      0x04\n        /* \"#utility.yul\":20852:20867   */\n      mstore\n        /* \"#utility.yul\":20886:20890   */\n      0x24\n        /* \"#utility.yul\":20883:20884   */\n      0x00\n        /* \"#utility.yul\":20876:20891   */\n      revert\n        /* \"#utility.yul\":20903:21223   */\n    tag_159:\n        /* \"#utility.yul\":20947:20953   */\n      0x00\n        /* \"#utility.yul\":20984:20985   */\n      0x02\n        /* \"#utility.yul\":20978:20982   */\n      dup3\n        /* \"#utility.yul\":20974:20986   */\n      div\n        /* \"#utility.yul\":20964:20986   */\n      swap1\n      pop\n        /* \"#utility.yul\":21031:21032   */\n      0x01\n        /* \"#utility.yul\":21025:21029   */\n      dup3\n        /* \"#utility.yul\":21021:21033   */\n      and\n        /* \"#utility.yul\":21052:21070   */\n      dup1\n        /* \"#utility.yul\":21042:21123   */\n      tag_483\n      jumpi\n        /* \"#utility.yul\":21108:21112   */\n      0x7f\n        /* \"#utility.yul\":21100:21106   */\n      dup3\n        /* \"#utility.yul\":21096:21113   */\n      and\n        /* \"#utility.yul\":21086:21113   */\n      swap2\n      pop\n        /* \"#utility.yul\":21042:21123   */\n    tag_483:\n        /* \"#utility.yul\":21170:21172   */\n      0x20\n        /* \"#utility.yul\":21162:21168   */\n      dup3\n        /* \"#utility.yul\":21159:21173   */\n      lt\n        /* \"#utility.yul\":21139:21157   */\n      dup2\n        /* \"#utility.yul\":21136:21174   */\n      sub\n        /* \"#utility.yul\":21133:21217   */\n      tag_484\n      jumpi\n        /* \"#utility.yul\":21189:21207   */\n      tag_485\n      tag_253\n      jump\t// in\n    tag_485:\n        /* \"#utility.yul\":21133:21217   */\n    tag_484:\n        /* \"#utility.yul\":20954:21223   */\n      pop\n        /* \"#utility.yul\":20903:21223   */\n      swap2\n      swap1\n      pop\n      jump\t// out\n        /* \"#utility.yul\":21229:21370   */\n    tag_254:\n        /* \"#utility.yul\":21278:21282   */\n      0x00\n        /* \"#utility.yul\":21301:21304   */\n      dup2\n        /* \"#utility.yul\":21293:21304   */\n      swap1\n      pop\n        /* \"#utility.yul\":21324:21327   */\n      dup2\n        /* \"#utility.yul\":21321:21322   */\n      0x00\n        /* \"#utility.yul\":21314:21328   */\n      mstore\n        /* \"#utility.yul\":21358:21362   */\n      0x20\n        /* \"#utility.yul\":21355:21356   */\n      0x00\n        /* \"#utility.yul\":21345:21363   */\n      keccak256\n        /* \"#utility.yul\":21337:21363   */\n      swap1\n      pop\n        /* \"#utility.yul\":21229:21370   */\n      swap2\n      swap1\n      pop\n      jump\t// out\n        /* \"#utility.yul\":21376:21469   */\n    tag_255:\n        /* \"#utility.yul\":21413:21419   */\n      0x00\n        /* \"#utility.yul\":21460:21462   */\n      0x20\n        /* \"#utility.yul\":21455:21457   */\n      0x1f\n        /* \"#utility.yul\":21448:21453   */\n      dup4\n        /* \"#utility.yul\":21444:21458   */\n      add\n        /* \"#utility.yul\":21440:21463   */\n      div\n        /* \"#utility.yul\":21430:21463   */\n      swap1\n      pop\n        /* \"#utility.yul\":21376:21469   */\n      swap2\n      swap1\n      pop\n      jump\t// out\n        /* \"#utility.yul\":21475:21582   */\n    tag_256:\n        /* \"#utility.yul\":21519:21527   */\n      0x00\n        /* \"#utility.yul\":21569:21574   */\n      dup3\n        /* \"#utility.yul\":21563:21567   */\n      dup3\n        /* \"#utility.yul\":21559:21575   */\n      shl\n        /* \"#utility.yul\":21538:21575   */\n      swap1\n      pop\n        /* \"#utility.yul\":21475:21582   */\n      swap3\n      swap2\n      pop\n      pop\n      jump\t// out\n        /* \"#utility.yul\":21588:21981   */\n    tag_257:\n        /* \"#utility.yul\":21657:21663   */\n      0x00\n        /* \"#utility.yul\":21707:21708   */\n      0x08\n        /* \"#utility.yul\":21695:21705   */\n      dup4\n        /* \"#utility.yul\":21691:21709   */\n      mul\n        /* \"#utility.yul\":21730:21827   */\n      tag_490\n        /* \"#utility.yul\":21760:21826   */\n      0xffffffffffffffffffffffffffffffffffffffffffffffffffffffffffffffff\n        /* \"#utility.yul\":21749:21758   */\n      dup3\n        /* \"#utility.yul\":21730:21827   */\n      tag_256\n      jump\t// in\n    tag_490:\n        /* \"#utility.yul\":21848:21887   */\n      tag_491\n        /* \"#utility.yul\":21878:21886   */\n      dup7\n        /* \"#utility.yul\":21867:21876   */\n      dup4\n        /* \"#utility.yul\":21848:21887   */\n      tag_256\n      jump\t// in\n    tag_491:\n        /* \"#utility.yul\":21836:21887   */\n      swap6\n      pop\n        /* \"#utility.yul\":21920:21924   */\n      dup1\n        /* \"#utility.yul\":21916:21925   */\n      not\n        /* \"#utility.yul\":21909:21914   */\n      dup5\n        /* \"#utility.yul\":21905:21926   */\n      and\n        /* \"#utility.yul\":21896:21926   */\n      swap4\n      pop\n        /* \"#utility.yul\":21969:21973   */\n      dup1\n        /* \"#utility.yul\":21959:21967   */\n      dup7\n        /* \"#utility.yul\":21955:21974   */\n      and\n        /* \"#utility.yul\":21948:21953   */\n      dup5\n        /* \"#utility.yul\":21945:21975   */\n      or\n        /* \"#utility.yul\":21935:21975   */\n      swap3\n      pop\n        /* \"#utility.yul\":21664:21981   */\n      pop\n      pop\n        /* \"#utility.yul\":21588:21981   */\n      swap4\n      swap3\n      pop\n      pop\n      pop\n      jump\t// out\n        /* \"#utility.yul\":21987:22047   */\n    tag_258:\n        /* \"#utility.yul\":22015:22018   */\n      0x00\n        /* \"#utility.yul\":22036:22041   */\n      dup2\n        /* \"#utility.yul\":22029:22041   */\n      swap1\n      pop\n        /* \"#utility.yul\":21987:22047   */\n      swap2\n      swap1\n      pop\n      jump\t// out\n        /* \"#utility.yul\":22053:22195   */\n    tag_259:\n        /* \"#utility.yul\":22103:22112   */\n      0x00\n        /* \"#utility.yul\":22136:22189   */\n      tag_494\n        /* \"#utility.yul\":22154:22188   */\n      tag_495\n        /* \"#utility.yul\":22163:22187   */\n      tag_496\n        /* \"#utility.yul\":22181:22186   */\n      dup5\n        /* \"#utility.yul\":22163:22187   */\n      tag_206\n      jump\t// in\n    tag_496:\n        /* \"#utility.yul\":22154:22188   */\n      tag_258\n      jump\t// in\n    tag_495:\n        /* \"#utility.yul\":22136:22189   */\n      tag_206\n      jump\t// in\n    tag_494:\n        /* \"#utility.yul\":22123:22189   */\n      swap1\n      pop\n        /* \"#utility.yul\":22053:22195   */\n      swap2\n      swap1\n      pop\n      jump\t// out\n        /* \"#utility.yul\":22201:22276   */\n    tag_260:\n        /* \"#utility.yul\":22244:22247   */\n      0x00\n        /* \"#utility.yul\":22265:22270   */\n      dup2\n        /* \"#utility.yul\":22258:22270   */\n      swap1\n      pop\n        /* \"#utility.yul\":22201:22276   */\n      swap2\n      swap1\n      pop\n      jump\t// out\n        /* \"#utility.yul\":22282:22551   */\n    tag_261:\n        /* \"#utility.yul\":22392:22431   */\n      tag_499\n        /* \"#utility.yul\":22423:22430   */\n      dup4\n        /* \"#utility.yul\":22392:22431   */\n      tag_259\n      jump\t// in\n    tag_499:\n        /* \"#utility.yul\":22453:22544   */\n      tag_500\n        /* \"#utility.yul\":22502:22543   */\n      tag_501\n        /* \"#utility.yul\":22526:22542   */\n      dup3\n        /* \"#utility.yul\":22502:22543   */\n      tag_260\n      jump\t// in\n    tag_501:\n        /* \"#utility.yul\":22494:22500   */\n      dup5\n        /* \"#utility.yul\":22487:22491   */\n      dup5\n        /* \"#utility.yul\":22481:22492   */\n      sload\n        /* \"#utility.yul\":22453:22544   */\n      tag_257\n      jump\t// in\n    tag_500:\n        /* \"#utility.yul\":22447:22451   */\n      dup3\n        /* \"#utility.yul\":22440:22545   */\n      sstore\n        /* \"#utility.yul\":22358:22551   */\n      pop\n        /* \"#utility.yul\":22282:22551   */\n      pop\n      pop\n      pop\n      jump\t// out\n        /* \"#utility.yul\":22557:22630   */\n    tag_262:\n        /* \"#utility.yul\":22602:22605   */\n      0x00\n        /* \"#utility.yul\":22557:22630   */\n      swap1\n      jump\t// out\n        /* \"#utility.yul\":22636:22825   */\n    tag_263:\n        /* \"#utility.yul\":22713:22745   */\n      tag_504\n      tag_262\n      jump\t// in\n    tag_504:\n        /* \"#utility.yul\":22754:22819   */\n      tag_505\n        /* \"#utility.yul\":22812:22818   */\n      dup2\n        /* \"#utility.yul\":22804:22810   */\n      dup5\n        /* \"#utility.yul\":22798:22802   */\n      dup5\n        /* \"#utility.yul\":22754:22819   */\n      tag_261\n      jump\t// in\n    tag_505:\n        /* \"#utility.yul\":22689:22825   */\n      pop\n        /* \"#utility.yul\":22636:22825   */\n      pop\n      pop\n      jump\t// out\n        /* \"#utility.yul\":22831:23017   */\n    tag_264:\n        /* \"#utility.yul\":22891:23011   */\n    tag_507:\n        /* \"#utility.yul\":22908:22911   */\n      dup2\n        /* \"#utility.yul\":22901:22906   */\n      dup2\n        /* \"#utility.yul\":22898:22912   */\n      lt\n        /* \"#utility.yul\":22891:23011   */\n      iszero\n      tag_509\n      jumpi\n        /* \"#utility.yul\":22962:23001   */\n      tag_510\n        /* \"#utility.yul\":22999:23000   */\n      0x00\n        /* \"#utility.yul\":22992:22997   */\n      dup3\n        /* \"#utility.yul\":22962:23001   */\n      tag_263\n      jump\t// in\n    tag_510:\n        /* \"#utility.yul\":22935:22936   */\n      0x01\n        /* \"#utility.yul\":22928:22933   */\n      dup2\n        /* \"#utility.yul\":22924:22937   */\n      add\n        /* \"#utility.yul\":22915:22937   */\n      swap1\n      pop\n        /* \"#utility.yul\":22891:23011   */\n      jump(tag_507)\n    tag_509:\n        /* \"#utility.yul\":22831:23017   */\n      pop\n      pop\n      jump\t// out\n        /* \"#utility.yul\":23023:23566   */\n    tag_265:\n        /* \"#utility.yul\":23124:23126   */\n      0x1f\n        /* \"#utility.yul\":23119:23122   */\n      dup3\n        /* \"#utility.yul\":23116:23127   */\n      gt\n        /* \"#utility.yul\":23113:23559   */\n      iszero\n      tag_512\n      jumpi\n        /* \"#utility.yul\":23158:23196   */\n      tag_513\n        /* \"#utility.yul\":23190:23195   */\n      dup2\n        /* \"#utility.yul\":23158:23196   */\n      tag_254\n      jump\t// in\n    tag_513:\n        /* \"#utility.yul\":23242:23271   */\n      tag_514\n        /* \"#utility.yul\":23260:23270   */\n      dup5\n        /* \"#utility.yul\":23242:23271   */\n      tag_255\n      jump\t// in\n    tag_514:\n        /* \"#utility.yul\":23232:23240   */\n      dup2\n        /* \"#utility.yul\":23228:23272   */\n      add\n        /* \"#utility.yul\":23425:23427   */\n      0x20\n        /* \"#utility.yul\":23413:23423   */\n      dup6\n        /* \"#utility.yul\":23410:23428   */\n      lt\n        /* \"#utility.yul\":23407:23456   */\n      iszero\n      tag_515\n      jumpi\n        /* \"#utility.yul\":23446:23454   */\n      dup2\n        /* \"#utility.yul\":23431:23454   */\n      swap1\n      pop\n        /* \"#utility.yul\":23407:23456   */\n    tag_515:\n        /* \"#utility.yul\":23469:23549   */\n      tag_516\n        /* \"#utility.yul\":23525:23547   */\n      tag_517\n        /* \"#utility.yul\":23543:23546   */\n      dup6\n        /* \"#utility.yul\":23525:23547   */\n      tag_255\n      jump\t// in\n    tag_517:\n        /* \"#utility.yul\":23515:23523   */\n      dup4\n        /* \"#utility.yul\":23511:23548   */\n      add\n        /* \"#utility.yul\":23498:23509   */\n      dup3\n        /* \"#utility.yul\":23469:23549   */\n      tag_264\n      jump\t// in\n    tag_516:\n        /* \"#utility.yul\":23128:23559   */\n      pop\n      pop\n        /* \"#utility.yul\":23113:23559   */\n    tag_512:\n        /* \"#utility.yul\":23023:23566   */\n      pop\n      pop\n      pop\n      jump\t// out\n        /* \"#utility.yul\":23572:23689   */\n    tag_266:\n        /* \"#utility.yul\":23626:23634   */\n      0x00\n        /* \"#utility.yul\":23676:23681   */\n      dup3\n        /* \"#utility.yul\":23670:23674   */\n      dup3\n        /* \"#utility.yul\":23666:23682   */\n      shr\n        /* \"#utility.yul\":23645:23682   */\n      swap1\n      pop\n        /* \"#utility.yul\":23572:23689   */\n      swap3\n      swap2\n      pop\n      pop\n      jump\t// out\n        /* \"#utility.yul\":23695:23864   */\n    tag_267:\n        /* \"#utility.yul\":23739:23745   */\n      0x00\n        /* \"#utility.yul\":23772:23823   */\n      tag_520\n        /* \"#utility.yul\":23820:23821   */\n      0x00\n        /* \"#utility.yul\":23816:23822   */\n      not\n        /* \"#utility.yul\":23808:23813   */\n      dup5\n        /* \"#utility.yul\":23805:23806   */\n      0x08\n        /* \"#utility.yul\":23801:23814   */\n      mul\n        /* \"#utility.yul\":23772:23823   */\n      tag_266\n      jump\t// in\n    tag_520:\n        /* \"#utility.yul\":23768:23824   */\n      not\n        /* \"#utility.yul\":23853:23857   */\n      dup1\n        /* \"#utility.yul\":23847:23851   */\n      dup4\n        /* \"#utility.yul\":23843:23858   */\n      and\n        /* \"#utility.yul\":23833:23858   */\n      swap2\n      pop\n        /* \"#utility.yul\":23746:23864   */\n      pop\n        /* \"#utility.yul\":23695:23864   */\n      swap3\n      swap2\n      pop\n      pop\n      jump\t// out\n        /* \"#utility.yul\":23869:24164   */\n    tag_268:\n        /* \"#utility.yul\":23945:23949   */\n      0x00\n        /* \"#utility.yul\":24091:24120   */\n      tag_522\n        /* \"#utility.yul\":24116:24119   */\n      dup4\n        /* \"#utility.yul\":24110:24114   */\n      dup4\n        /* \"#utility.yul\":24091:24120   */\n      tag_267\n      jump\t// in\n    tag_522:\n        /* \"#utility.yul\":24083:24120   */\n      swap2\n      pop\n        /* \"#utility.yul\":24153:24156   */\n      dup3\n        /* \"#utility.yul\":24150:24151   */\n      0x02\n        /* \"#utility.yul\":24146:24157   */\n      mul\n        /* \"#utility.yul\":24140:24144   */\n      dup3\n        /* \"#utility.yul\":24137:24158   */\n      or\n        /* \"#utility.yul\":24129:24158   */\n      swap1\n      pop\n        /* \"#utility.yul\":23869:24164   */\n      swap3\n      swap2\n      pop\n      pop\n      jump\t// out\n        /* \"#utility.yul\":24169:25564   */\n    tag_133:\n        /* \"#utility.yul\":24286:24323   */\n      tag_524\n        /* \"#utility.yul\":24319:24322   */\n      dup3\n        /* \"#utility.yul\":24286:24323   */\n      tag_213\n      jump\t// in\n    tag_524:\n        /* \"#utility.yul\":24388:24406   */\n      0xffffffffffffffff\n        /* \"#utility.yul\":24380:24386   */\n      dup2\n        /* \"#utility.yul\":24377:24407   */\n      gt\n        /* \"#utility.yul\":24374:24430   */\n      iszero\n      tag_525\n      jumpi\n        /* \"#utility.yul\":24410:24428   */\n      tag_526\n      tag_247\n      jump\t// in\n    tag_526:\n        /* \"#utility.yul\":24374:24430   */\n    tag_525:\n        /* \"#utility.yul\":24454:24492   */\n      tag_527\n        /* \"#utility.yul\":24486:24490   */\n      dup3\n        /* \"#utility.yul\":24480:24491   */\n      sload\n        /* \"#utility.yul\":24454:24492   */\n      tag_159\n      jump\t// in\n    tag_527:\n        /* \"#utility.yul\":24539:24606   */\n      tag_528\n        /* \"#utility.yul\":24599:24605   */\n      dup3\n        /* \"#utility.yul\":24591:24597   */\n      dup3\n        /* \"#utility.yul\":24585:24589   */\n      dup6\n        /* \"#utility.yul\":24539:24606   */\n      tag_265\n      jump\t// in\n    tag_528:\n        /* \"#utility.yul\":24633:24634   */\n      0x00\n        /* \"#utility.yul\":24657:24661   */\n      0x20\n        /* \"#utility.yul\":24644:24661   */\n      swap1\n      pop\n        /* \"#utility.yul\":24689:24691   */\n      0x1f\n        /* \"#utility.yul\":24681:24687   */\n      dup4\n        /* \"#utility.yul\":24678:24692   */\n      gt\n        /* \"#utility.yul\":24706:24707   */\n      0x01\n        /* \"#utility.yul\":24701:25319   */\n      dup2\n      eq\n      tag_530\n      jumpi\n        /* \"#utility.yul\":25363:25364   */\n      0x00\n        /* \"#utility.yul\":25380:25386   */\n      dup5\n        /* \"#utility.yul\":25377:25454   */\n      iszero\n      tag_531\n      jumpi\n        /* \"#utility.yul\":25429:25438   */\n      dup3\n        /* \"#utility.yul\":25424:25427   */\n      dup8\n        /* \"#utility.yul\":25420:25439   */\n      add\n        /* \"#utility.yul\":25414:25440   */\n      mload\n        /* \"#utility.yul\":25405:25440   */\n      swap1\n      pop\n        /* \"#utility.yul\":25377:25454   */\n    tag_531:\n        /* \"#utility.yul\":25480:25547   */\n      tag_532\n        /* \"#utility.yul\":25540:25546   */\n      dup6\n        /* \"#utility.yul\":25533:25538   */\n      dup3\n        /* \"#utility.yul\":25480:25547   */\n      tag_268\n      jump\t// in\n    tag_532:\n        /* \"#utility.yul\":25474:25478   */\n      dup7\n        /* \"#utility.yul\":25467:25548   */\n      sstore\n        /* \"#utility.yul\":25336:25558   */\n      pop\n        /* \"#utility.yul\":24671:25558   */\n      jump(tag_529)\n        /* \"#utility.yul\":24701:25319   */\n    tag_530:\n        /* \"#utility.yul\":24753:24757   */\n      0x1f\n        /* \"#utility.yul\":24749:24758   */\n      not\n        /* \"#utility.yul\":24741:24747   */\n      dup5\n        /* \"#utility.yul\":24737:24759   */\n      and\n        /* \"#utility.yul\":24787:24824   */\n      tag_533\n        /* \"#utility.yul\":24819:24823   */\n      dup7\n        /* \"#utility.yul\":24787:24824   */\n      tag_254\n      jump\t// in\n    tag_533:\n        /* \"#utility.yul\":24846:24847   */\n      0x00\n        /* \"#utility.yul\":24860:25068   */\n    tag_534:\n        /* \"#utility.yul\":24874:24881   */\n      dup3\n        /* \"#utility.yul\":24871:24872   */\n      dup2\n        /* \"#utility.yul\":24868:24882   */\n      lt\n        /* \"#utility.yul\":24860:25068   */\n      iszero\n      tag_536\n      jumpi\n        /* \"#utility.yul\":24953:24962   */\n      dup5\n        /* \"#utility.yul\":24948:24951   */\n      dup10\n        /* \"#utility.yul\":24944:24963   */\n      add\n        /* \"#utility.yul\":24938:24964   */\n      mload\n        /* \"#utility.yul\":24930:24936   */\n      dup3\n        /* \"#utility.yul\":24923:24965   */\n      sstore\n        /* \"#utility.yul\":25004:25005   */\n      0x01\n        /* \"#utility.yul\":24996:25002   */\n      dup3\n        /* \"#utility.yul\":24992:25006   */\n      add\n        /* \"#utility.yul\":24982:25006   */\n      swap2\n      pop\n        /* \"#utility.yul\":25051:25053   */\n      0x20\n        /* \"#utility.yul\":25040:25049   */\n      dup6\n        /* \"#utility.yul\":25036:25054   */\n      add\n        /* \"#utility.yul\":25023:25054   */\n      swap5\n      pop\n        /* \"#utility.yul\":24897:24901   */\n      0x20\n        /* \"#utility.yul\":24894:24895   */\n      dup2\n        /* \"#utility.yul\":24890:24902   */\n      add\n        /* \"#utility.yul\":24885:24902   */\n      swap1\n      pop\n        /* \"#utility.yul\":24860:25068   */\n      jump(tag_534)\n    tag_536:\n        /* \"#utility.yul\":25096:25102   */\n      dup7\n        /* \"#utility.yul\":25087:25094   */\n      dup4\n        /* \"#utility.yul\":25084:25103   */\n      lt\n        /* \"#utility.yul\":25081:25260   */\n      iszero\n      tag_537\n      jumpi\n        /* \"#utility.yul\":25154:25163   */\n      dup5\n        /* \"#utility.yul\":25149:25152   */\n      dup10\n        /* \"#utility.yul\":25145:25164   */\n      add\n        /* \"#utility.yul\":25139:25165   */\n      mload\n        /* \"#utility.yul\":25197:25245   */\n      tag_538\n        /* \"#utility.yul\":25239:25243   */\n      0x1f\n        /* \"#utility.yul\":25231:25237   */\n      dup10\n        /* \"#utility.yul\":25227:25244   */\n      and\n        /* \"#utility.yul\":25216:25225   */\n      dup3\n        /* \"#utility.yul\":25197:25245   */\n      tag_267\n      jump\t// in\n    tag_538:\n        /* \"#utility.yul\":25189:25195   */\n      dup4\n        /* \"#utility.yul\":25182:25246   */\n      sstore\n        /* \"#utility.yul\":25104:25260   */\n      pop\n        /* \"#utility.yul\":25081:25260   */\n    tag_537:\n        /* \"#utility.yul\":25306:25307   */\n      0x01\n        /* \"#utility.yul\":25302:25303   */\n      0x02\n        /* \"#utility.yul\":25294:25300   */\n      dup9\n        /* \"#utility.yul\":25290:25304   */\n      mul\n        /* \"#utility.yul\":25286:25308   */\n      add\n        /* \"#utility.yul\":25280:25284   */\n      dup9\n        /* \"#utility.yul\":25273:25309   */\n      sstore\n        /* \"#utility.yul\":24708:25319   */\n      pop\n      pop\n      pop\n        /* \"#utility.yul\":24671:25558   */\n    tag_529:\n      pop\n        /* \"#utility.yul\":24261:25564   */\n      pop\n      pop\n      pop\n        /* \"#utility.yul\":24169:25564   */\n      pop\n      pop\n      jump\t// out\n        /* \"#utility.yul\":25570:25795   */\n    tag_269:\n        /* \"#utility.yul\":25710:25744   */\n      0x4572726f72207768696c65207472616e7366657272696e67206c697374696e69\n        /* \"#utility.yul\":25706:25707   */\n      0x00\n        /* \"#utility.yul\":25698:25704   */\n      dup3\n        /* \"#utility.yul\":25694:25708   */\n      add\n        /* \"#utility.yul\":25687:25745   */\n      mstore\n        /* \"#utility.yul\":25779:25787   */\n      0x6e67206665650000000000000000000000000000000000000000000000000000\n        /* \"#utility.yul\":25774:25776   */\n      0x20\n        /* \"#utility.yul\":25766:25772   */\n      dup3\n        /* \"#utility.yul\":25762:25777   */\n      add\n        /* \"#utility.yul\":25755:25788   */\n      mstore\n        /* \"#utility.yul\":25570:25795   */\n      pop\n      jump\t// out\n        /* \"#utility.yul\":25801:26167   */\n    tag_270:\n        /* \"#utility.yul\":25943:25946   */\n      0x00\n        /* \"#utility.yul\":25964:26031   */\n      tag_541\n        /* \"#utility.yul\":26028:26030   */\n      0x26\n        /* \"#utility.yul\":26023:26026   */\n      dup4\n        /* \"#utility.yul\":25964:26031   */\n      tag_214\n      jump\t// in\n    tag_541:\n        /* \"#utility.yul\":25957:26031   */\n      swap2\n      pop\n        /* \"#utility.yul\":26040:26133   */\n      tag_542\n        /* \"#utility.yul\":26129:26132   */\n      dup3\n        /* \"#utility.yul\":26040:26133   */\n      tag_269\n      jump\t// in\n    tag_542:\n        /* \"#utility.yul\":26158:26160   */\n      0x40\n        /* \"#utility.yul\":26153:26156   */\n      dup3\n        /* \"#utility.yul\":26149:26161   */\n      add\n        /* \"#utility.yul\":26142:26161   */\n      swap1\n      pop\n        /* \"#utility.yul\":25801:26167   */\n      swap2\n      swap1\n      pop\n      jump\t// out\n        /* \"#utility.yul\":26173:26592   */\n    tag_140:\n        /* \"#utility.yul\":26339:26343   */\n      0x00\n        /* \"#utility.yul\":26377:26379   */\n      0x20\n        /* \"#utility.yul\":26366:26375   */\n      dup3\n        /* \"#utility.yul\":26362:26380   */\n      add\n        /* \"#utility.yul\":26354:26380   */\n      swap1\n      pop\n        /* \"#utility.yul\":26426:26435   */\n      dup2\n        /* \"#utility.yul\":26420:26424   */\n      dup2\n        /* \"#utility.yul\":26416:26436   */\n      sub\n        /* \"#utility.yul\":26412:26413   */\n      0x00\n        /* \"#utility.yul\":26401:26410   */\n      dup4\n        /* \"#utility.yul\":26397:26414   */\n      add\n        /* \"#utility.yul\":26390:26437   */\n      mstore\n        /* \"#utility.yul\":26454:26585   */\n      tag_544\n        /* \"#utility.yul\":26580:26584   */\n      dup2\n        /* \"#utility.yul\":26454:26585   */\n      tag_270\n      jump\t// in\n    tag_544:\n        /* \"#utility.yul\":26446:26585   */\n      swap1\n      pop\n        /* \"#utility.yul\":26173:26592   */\n      swap2\n      swap1\n      pop\n      jump\t// out\n        /* \"#utility.yul\":26598:26831   */\n    tag_142:\n        /* \"#utility.yul\":26637:26640   */\n      0x00\n        /* \"#utility.yul\":26660:26684   */\n      tag_546\n        /* \"#utility.yul\":26678:26683   */\n      dup3\n        /* \"#utility.yul\":26660:26684   */\n      tag_206\n      jump\t// in\n    tag_546:\n        /* \"#utility.yul\":26651:26684   */\n      swap2\n      pop\n        /* \"#utility.yul\":26706:26772   */\n      0xffffffffffffffffffffffffffffffffffffffffffffffffffffffffffffffff\n        /* \"#utility.yul\":26699:26704   */\n      dup3\n        /* \"#utility.yul\":26696:26773   */\n      sub\n        /* \"#utility.yul\":26693:26796   */\n      tag_547\n      jumpi\n        /* \"#utility.yul\":26776:26794   */\n      tag_548\n      tag_239\n      jump\t// in\n    tag_548:\n        /* \"#utility.yul\":26693:26796   */\n    tag_547:\n        /* \"#utility.yul\":26823:26824   */\n      0x01\n        /* \"#utility.yul\":26816:26821   */\n      dup3\n        /* \"#utility.yul\":26812:26825   */\n      add\n        /* \"#utility.yul\":26805:26825   */\n      swap1\n      pop\n        /* \"#utility.yul\":26598:26831   */\n      swap2\n      swap1\n      pop\n      jump\t// out\n        /* \"#utility.yul\":26837:27071   */\n    tag_271:\n        /* \"#utility.yul\":26977:27011   */\n      0x7468697320746f6b656e206973206e6f74206163746976653a2020706c656173\n        /* \"#utility.yul\":26973:26974   */\n      0x00\n        /* \"#utility.yul\":26965:26971   */\n      dup3\n        /* \"#utility.yul\":26961:26975   */\n      add\n        /* \"#utility.yul\":26954:27012   */\n      mstore\n        /* \"#utility.yul\":27046:27063   */\n      0x6520726561637469766174652069740000000000000000000000000000000000\n        /* \"#utility.yul\":27041:27043   */\n      0x20\n        /* \"#utility.yul\":27033:27039   */\n      dup3\n        /* \"#utility.yul\":27029:27044   */\n      add\n        /* \"#utility.yul\":27022:27064   */\n      mstore\n        /* \"#utility.yul\":26837:27071   */\n      pop\n      jump\t// out\n        /* \"#utility.yul\":27077:27443   */\n    tag_272:\n        /* \"#utility.yul\":27219:27222   */\n      0x00\n        /* \"#utility.yul\":27240:27307   */\n      tag_551\n        /* \"#utility.yul\":27304:27306   */\n      0x2f\n        /* \"#utility.yul\":27299:27302   */\n      dup4\n        /* \"#utility.yul\":27240:27307   */\n      tag_214\n      jump\t// in\n    tag_551:\n        /* \"#utility.yul\":27233:27307   */\n      swap2\n      pop\n        /* \"#utility.yul\":27316:27409   */\n      tag_552\n        /* \"#utility.yul\":27405:27408   */\n      dup3\n        /* \"#utility.yul\":27316:27409   */\n      tag_271\n      jump\t// in\n    tag_552:\n        /* \"#utility.yul\":27434:27436   */\n      0x40\n        /* \"#utility.yul\":27429:27432   */\n      dup3\n        /* \"#utility.yul\":27425:27437   */\n      add\n        /* \"#utility.yul\":27418:27437   */\n      swap1\n      pop\n        /* \"#utility.yul\":27077:27443   */\n      swap2\n      swap1\n      pop\n      jump\t// out\n        /* \"#utility.yul\":27449:27868   */\n    tag_146:\n        /* \"#utility.yul\":27615:27619   */\n      0x00\n        /* \"#utility.yul\":27653:27655   */\n      0x20\n        /* \"#utility.yul\":27642:27651   */\n      dup3\n        /* \"#utility.yul\":27638:27656   */\n      add\n        /* \"#utility.yul\":27630:27656   */\n      swap1\n      pop\n        /* \"#utility.yul\":27702:27711   */\n      dup2\n        /* \"#utility.yul\":27696:27700   */\n      dup2\n        /* \"#utility.yul\":27692:27712   */\n      sub\n        /* \"#utility.yul\":27688:27689   */\n      0x00\n        /* \"#utility.yul\":27677:27686   */\n      dup4\n        /* \"#utility.yul\":27673:27690   */\n      add\n        /* \"#utility.yul\":27666:27713   */\n      mstore\n        /* \"#utility.yul\":27730:27861   */\n      tag_554\n        /* \"#utility.yul\":27856:27860   */\n      dup2\n        /* \"#utility.yul\":27730:27861   */\n      tag_272\n      jump\t// in\n    tag_554:\n        /* \"#utility.yul\":27722:27861   */\n      swap1\n      pop\n        /* \"#utility.yul\":27449:27868   */\n      swap2\n      swap1\n      pop\n      jump\t// out\n        /* \"#utility.yul\":27874:28065   */\n    tag_149:\n        /* \"#utility.yul\":27914:27917   */\n      0x00\n        /* \"#utility.yul\":27933:27953   */\n      tag_556\n        /* \"#utility.yul\":27951:27952   */\n      dup3\n        /* \"#utility.yul\":27933:27953   */\n      tag_206\n      jump\t// in\n    tag_556:\n        /* \"#utility.yul\":27928:27953   */\n      swap2\n      pop\n        /* \"#utility.yul\":27967:27987   */\n      tag_557\n        /* \"#utility.yul\":27985:27986   */\n      dup4\n        /* \"#utility.yul\":27967:27987   */\n      tag_206\n      jump\t// in\n    tag_557:\n        /* \"#utility.yul\":27962:27987   */\n      swap3\n      pop\n        /* \"#utility.yul\":28010:28011   */\n      dup3\n        /* \"#utility.yul\":28007:28008   */\n      dup3\n        /* \"#utility.yul\":28003:28012   */\n      add\n        /* \"#utility.yul\":27996:28012   */\n      swap1\n      pop\n        /* \"#utility.yul\":28031:28034   */\n      dup1\n        /* \"#utility.yul\":28028:28029   */\n      dup3\n        /* \"#utility.yul\":28025:28035   */\n      gt\n        /* \"#utility.yul\":28022:28058   */\n      iszero\n      tag_558\n      jumpi\n        /* \"#utility.yul\":28038:28056   */\n      tag_559\n      tag_239\n      jump\t// in\n    tag_559:\n        /* \"#utility.yul\":28022:28058   */\n    tag_558:\n        /* \"#utility.yul\":27874:28065   */\n      swap3\n      swap2\n      pop\n      pop\n      jump\t// out\n        /* \"#utility.yul\":28071:28250   */\n    tag_273:\n        /* \"#utility.yul\":28211:28242   */\n      0x7468697320746f6b656e20697320616c7265616479206163746976652e000000\n        /* \"#utility.yul\":28207:28208   */\n      0x00\n        /* \"#utility.yul\":28199:28205   */\n      dup3\n        /* \"#utility.yul\":28195:28209   */\n      add\n        /* \"#utility.yul\":28188:28243   */\n      mstore\n        /* \"#utility.yul\":28071:28250   */\n      pop\n      jump\t// out\n        /* \"#utility.yul\":28256:28622   */\n    tag_274:\n        /* \"#utility.yul\":28398:28401   */\n      0x00\n        /* \"#utility.yul\":28419:28486   */\n      tag_562\n        /* \"#utility.yul\":28483:28485   */\n      0x1d\n        /* \"#utility.yul\":28478:28481   */\n      dup4\n        /* \"#utility.yul\":28419:28486   */\n      tag_214\n      jump\t// in\n    tag_562:\n        /* \"#utility.yul\":28412:28486   */\n      swap2\n      pop\n        /* \"#utility.yul\":28495:28588   */\n      tag_563\n        /* \"#utility.yul\":28584:28587   */\n      dup3\n        /* \"#utility.yul\":28495:28588   */\n      tag_273\n      jump\t// in\n    tag_563:\n        /* \"#utility.yul\":28613:28615   */\n      0x20\n        /* \"#utility.yul\":28608:28611   */\n      dup3\n        /* \"#utility.yul\":28604:28616   */\n      add\n        /* \"#utility.yul\":28597:28616   */\n      swap1\n      pop\n        /* \"#utility.yul\":28256:28622   */\n      swap2\n      swap1\n      pop\n      jump\t// out\n        /* \"#utility.yul\":28628:29047   */\n    tag_170:\n        /* \"#utility.yul\":28794:28798   */\n      0x00\n        /* \"#utility.yul\":28832:28834   */\n      0x20\n        /* \"#utility.yul\":28821:28830   */\n      dup3\n        /* \"#utility.yul\":28817:28835   */\n      add\n        /* \"#utility.yul\":28809:28835   */\n      swap1\n      pop\n        /* \"#utility.yul\":28881:28890   */\n      dup2\n        /* \"#utility.yul\":28875:28879   */\n      dup2\n        /* \"#utility.yul\":28871:28891   */\n      sub\n        /* \"#utility.yul\":28867:28868   */\n      0x00\n        /* \"#utility.yul\":28856:28865   */\n      dup4\n        /* \"#utility.yul\":28852:28869   */\n      add\n        /* \"#utility.yul\":28845:28892   */\n      mstore\n        /* \"#utility.yul\":28909:29040   */\n      tag_565\n        /* \"#utility.yul\":29035:29039   */\n      dup2\n        /* \"#utility.yul\":28909:29040   */\n      tag_274\n      jump\t// in\n    tag_565:\n        /* \"#utility.yul\":28901:29040   */\n      swap1\n      pop\n        /* \"#utility.yul\":28628:29047   */\n      swap2\n      swap1\n      pop\n      jump\t// out\n        /* \"#utility.yul\":29053:29234   */\n    tag_275:\n        /* \"#utility.yul\":29193:29226   */\n      0x5265656e7472616e637947756172643a207265656e7472616e742063616c6c00\n        /* \"#utility.yul\":29189:29190   */\n      0x00\n        /* \"#utility.yul\":29181:29187   */\n      dup3\n        /* \"#utility.yul\":29177:29191   */\n      add\n        /* \"#utility.yul\":29170:29227   */\n      mstore\n        /* \"#utility.yul\":29053:29234   */\n      pop\n      jump\t// out\n        /* \"#utility.yul\":29240:29606   */\n    tag_276:\n        /* \"#utility.yul\":29382:29385   */\n      0x00\n        /* \"#utility.yul\":29403:29470   */\n      tag_568\n        /* \"#utility.yul\":29467:29469   */\n      0x1f\n        /* \"#utility.yul\":29462:29465   */\n      dup4\n        /* \"#utility.yul\":29403:29470   */\n      tag_214\n      jump\t// in\n    tag_568:\n        /* \"#utility.yul\":29396:29470   */\n      swap2\n      pop\n        /* \"#utility.yul\":29479:29572   */\n      tag_569\n        /* \"#utility.yul\":29568:29571   */\n      dup3\n        /* \"#utility.yul\":29479:29572   */\n      tag_275\n      jump\t// in\n    tag_569:\n        /* \"#utility.yul\":29597:29599   */\n      0x20\n        /* \"#utility.yul\":29592:29595   */\n      dup3\n        /* \"#utility.yul\":29588:29600   */\n      add\n        /* \"#utility.yul\":29581:29600   */\n      swap1\n      pop\n        /* \"#utility.yul\":29240:29606   */\n      swap2\n      swap1\n      pop\n      jump\t// out\n        /* \"#utility.yul\":29612:30031   */\n    tag_188:\n        /* \"#utility.yul\":29778:29782   */\n      0x00\n        /* \"#utility.yul\":29816:29818   */\n      0x20\n        /* \"#utility.yul\":29805:29814   */\n      dup3\n        /* \"#utility.yul\":29801:29819   */\n      add\n        /* \"#utility.yul\":29793:29819   */\n      swap1\n      pop\n        /* \"#utility.yul\":29865:29874   */\n      dup2\n        /* \"#utility.yul\":29859:29863   */\n      dup2\n        /* \"#utility.yul\":29855:29875   */\n      sub\n        /* \"#utility.yul\":29851:29852   */\n      0x00\n        /* \"#utility.yul\":29840:29849   */\n      dup4\n        /* \"#utility.yul\":29836:29853   */\n      add\n        /* \"#utility.yul\":29829:29876   */\n      mstore\n        /* \"#utility.yul\":29893:30024   */\n      tag_571\n        /* \"#utility.yul\":30019:30023   */\n      dup2\n        /* \"#utility.yul\":29893:30024   */\n      tag_276\n      jump\t// in\n    tag_571:\n        /* \"#utility.yul\":29885:30024   */\n      swap1\n      pop\n        /* \"#utility.yul\":29612:30031   */\n      swap2\n      swap1\n      pop\n      jump\t// out\n        /* \"#utility.yul\":30037:30369   */\n    tag_191:\n        /* \"#utility.yul\":30158:30162   */\n      0x00\n        /* \"#utility.yul\":30196:30198   */\n      0x40\n        /* \"#utility.yul\":30185:30194   */\n      dup3\n        /* \"#utility.yul\":30181:30199   */\n      add\n        /* \"#utility.yul\":30173:30199   */\n      swap1\n      pop\n        /* \"#utility.yul\":30209:30280   */\n      tag_573\n        /* \"#utility.yul\":30277:30278   */\n      0x00\n        /* \"#utility.yul\":30266:30275   */\n      dup4\n        /* \"#utility.yul\":30262:30279   */\n      add\n        /* \"#utility.yul\":30253:30259   */\n      dup6\n        /* \"#utility.yul\":30209:30280   */\n      tag_208\n      jump\t// in\n    tag_573:\n        /* \"#utility.yul\":30290:30362   */\n      tag_574\n        /* \"#utility.yul\":30358:30360   */\n      0x20\n        /* \"#utility.yul\":30347:30356   */\n      dup4\n        /* \"#utility.yul\":30343:30361   */\n      add\n        /* \"#utility.yul\":30334:30340   */\n      dup5\n        /* \"#utility.yul\":30290:30362   */\n      tag_208\n      jump\t// in\n    tag_574:\n        /* \"#utility.yul\":30037:30369   */\n      swap4\n      swap3\n      pop\n      pop\n      pop\n      jump\t// out\n\n    auxdata: 0xa2646970667358221220d201af6015411f76f5de4a65c94d45298e3318faa445f6f6b593d3e1fa97a85564736f6c634300081a0033\n}\n",
				"bytecode": {
					"linkReferences": {},
					"object": "60806040526001600655348015610014575f80fd5b5060405161253138038061253183398181016040528101906100369190610310565b335f73ffffffffffffffffffffffffffffffffffffffff168173ffffffffffffffffffffffffffffffffffffffff16036100a7575f6040517f1e4fbdf700000000000000000000000000000000000000000000000000000000815260040161009e919061035d565b60405180910390fd5b6100b6816101be60201b60201c565b5060018081905550600a821115610102576040517f08c379a00000000000000000000000000000000000000000000000000000000081526004016100f9906103d0565b60405180910390fd5b5f73ffffffffffffffffffffffffffffffffffffffff168173ffffffffffffffffffffffffffffffffffffffff1603610170576040517f08c379a000000000000000000000000000000000000000000000000000000000815260040161016790610438565b60405180910390fd5b816002819055508060035f6101000a81548173ffffffffffffffffffffffffffffffffffffffff021916908373ffffffffffffffffffffffffffffffffffffffff1602179055505050610456565b5f805f9054906101000a900473ffffffffffffffffffffffffffffffffffffffff169050815f806101000a81548173ffffffffffffffffffffffffffffffffffffffff021916908373ffffffffffffffffffffffffffffffffffffffff1602179055508173ffffffffffffffffffffffffffffffffffffffff168173ffffffffffffffffffffffffffffffffffffffff167f8be0079c531659141344cd1fd0a4f28419497f9722a3daafe3b4186f6b6457e060405160405180910390a35050565b5f80fd5b5f819050919050565b61029581610283565b811461029f575f80fd5b50565b5f815190506102b08161028c565b92915050565b5f73ffffffffffffffffffffffffffffffffffffffff82169050919050565b5f6102df826102b6565b9050919050565b6102ef816102d5565b81146102f9575f80fd5b50565b5f8151905061030a816102e6565b92915050565b5f80604083850312156103265761032561027f565b5b5f610333858286016102a2565b9250506020610344858286016102fc565b9150509250929050565b610357816102d5565b82525050565b5f6020820190506103705f83018461034e565b92915050565b5f82825260208201905092915050565b7f466565206d757374206e6f7420657863656564203130250000000000000000005f82015250565b5f6103ba601783610376565b91506103c582610386565b602082019050919050565b5f6020820190508181035f8301526103e7816103ae565b9050919050565b7f496e76616c69642066656520726563697069656e7420616464726573730000005f82015250565b5f610422601d83610376565b915061042d826103ee565b602082019050919050565b5f6020820190508181035f83015261044f81610416565b9050919050565b6120ce806104635f395ff3fe608060405234801561000f575f80fd5b50600436106100b2575f3560e01c8063ade9fbc61161006f578063ade9fbc614610178578063c415b95c146101a8578063c661aea6146101c6578063de74e57b146101e2578063df5b7d6314610217578063f2fde38b14610233576100b2565b806337d9681d146100b65780634724da6f146100e6578063715018a6146101025780637fd6f15c1461010c5780638da5cb5b1461012a578063920811fc14610148575b5f80fd5b6100d060048036038101906100cb9190611163565b61024f565b6040516100dd91906111b9565b60405180910390f35b61010060048036038101906100fb91906111d2565b610281565b005b61010a6103d3565b005b6101146103e6565b6040516101219190611215565b60405180910390f35b6101326103ec565b60405161013f919061123d565b60405180910390f35b610162600480360381019061015d9190611163565b610413565b60405161016f9190611215565b60405180910390f35b610192600480360381019061018d9190611280565b610494565b60405161019f9190611215565b60405180910390f35b6101b06104a9565b6040516101bd919061123d565b60405180910390f35b6101e060048036038101906101db91906112d5565b6104ce565b005b6101fc60048036038101906101f79190611325565b610bee565b60405161020e969594939291906113da565b60405180910390f35b610231600480360381019061022c91906111d2565b610cf6565b005b61024d600480360381019061024891906111d2565b610e4a565b005b5f8282604051602001610263929190611485565b60405160208183030381529060405280519060200120905092915050565b5f61028c823361024f565b90505f60055f8381526020019081526020015f205490503373ffffffffffffffffffffffffffffffffffffffff1660045f8381526020019081526020015f205f015f9054906101000a900473ffffffffffffffffffffffffffffffffffffffff1673ffffffffffffffffffffffffffffffffffffffff1614610343576040517f08c379a000000000000000000000000000000000000000000000000000000000815260040161033a906114fa565b60405180910390fd5b60045f8281526020019081526020015f206005015f9054906101000a900460ff166103a3576040517f08c379a000000000000000000000000000000000000000000000000000000000815260040161039a90611562565b60405180910390fd5b5f60045f8381526020019081526020015f206005015f6101000a81548160ff021916908315150217905550505050565b6103db610ece565b6103e45f610f55565b565b60025481565b5f805f9054906101000a900473ffffffffffffffffffffffffffffffffffffffff16905090565b5f8273ffffffffffffffffffffffffffffffffffffffff166370a08231836040518263ffffffff1660e01b815260040161044d919061123d565b602060405180830381865afa158015610468573d5f803e3d5ffd5b505050506040513d601f19601f8201168201806040525081019061048c9190611594565b905092915050565b6005602052805f5260405f205f915090505481565b60035f9054906101000a900473ffffffffffffffffffffffffffffffffffffffff1681565b6104d6611016565b5f73ffffffffffffffffffffffffffffffffffffffff168373ffffffffffffffffffffffffffffffffffffffff1603610544576040517f08c379a000000000000000000000000000000000000000000000000000000000815260040161053b90611609565b60405180910390fd5b5f8211610586576040517f08c379a000000000000000000000000000000000000000000000000000000000815260040161057d90611671565b60405180910390fd5b5f81116105c8576040517f08c379a00000000000000000000000000000000000000000000000000000000081526004016105bf906116d9565b60405180910390fd5b5f6105d38433611065565b11610613576040517f08c379a000000000000000000000000000000000000000000000000000000000815260040161060a90611767565b60405180910390fd5b8161061e8433611065565b101561065f576040517f08c379a0000000000000000000000000000000000000000000000000000000008152600401610656906117cf565b60405180910390fd5b5f8390505f606484600254610674919061181a565b61067e9190611888565b90508173ffffffffffffffffffffffffffffffffffffffff166323b872dd333084886106aa91906118b8565b6040518463ffffffff1660e01b81526004016106c8939291906118eb565b6020604051808303815f875af11580156106e4573d5f803e3d5ffd5b505050506040513d601f19601f82011682018060405250810190610708919061194a565b610747576040517f08c379a000000000000000000000000000000000000000000000000000000000815260040161073e906119bf565b60405180910390fd5b5f610752863361024f565b90505f60055f8381526020019081526020015f205403610a3c576040518060c001604052803373ffffffffffffffffffffffffffffffffffffffff1681526020018773ffffffffffffffffffffffffffffffffffffffff1681526020018773ffffffffffffffffffffffffffffffffffffffff166306fdde036040518163ffffffff1660e01b81526004015f60405180830381865afa1580156107f7573d5f803e3d5ffd5b505050506040513d5f823e3d601f19601f8201168201806040525081019061081f9190611afb565b8152602001838761083091906118b8565b81526020018581526020016001151581525060045f60065481526020019081526020015f205f820151815f015f6101000a81548173ffffffffffffffffffffffffffffffffffffffff021916908373ffffffffffffffffffffffffffffffffffffffff1602179055506020820151816001015f6101000a81548173ffffffffffffffffffffffffffffffffffffffff021916908373ffffffffffffffffffffffffffffffffffffffff16021790555060408201518160020190816108f49190611d3c565b50606082015181600301556080820151816004015560a0820151816005015f6101000a81548160ff0219169083151502179055509050508273ffffffffffffffffffffffffffffffffffffffff166323b872dd3360035f9054906101000a900473ffffffffffffffffffffffffffffffffffffffff16856040518463ffffffff1660e01b8152600401610989939291906118eb565b6020604051808303815f875af11580156109a5573d5f803e3d5ffd5b505050506040513d601f19601f820116820180604052508101906109c9919061194a565b610a08576040517f08c379a00000000000000000000000000000000000000000000000000000000081526004016109ff90611e7b565b60405180910390fd5b60065460055f8381526020019081526020015f208190555060065f815480929190610a3290611e99565b9190505550610bde565b5f60055f8381526020019081526020015f2054905060045f8281526020019081526020015f206005015f9054906101000a900460ff16610ab1576040517f08c379a0000000000000000000000000000000000000000000000000000000008152600401610aa890611f50565b60405180910390fd5b8286610abd91906118b8565b60045f8381526020019081526020015f206003015f828254610adf9190611f6e565b925050819055508460045f8381526020019081526020015f20600401819055508373ffffffffffffffffffffffffffffffffffffffff166323b872dd3360035f9054906101000a900473ffffffffffffffffffffffffffffffffffffffff16866040518463ffffffff1660e01b8152600401610b5d939291906118eb565b6020604051808303815f875af1158015610b79573d5f803e3d5ffd5b505050506040513d601f19601f82011682018060405250810190610b9d919061194a565b610bdc576040517f08c379a0000000000000000000000000000000000000000000000000000000008152600401610bd390611e7b565b60405180910390fd5b505b505050610be96110e8565b505050565b6004602052805f5260405f205f91509050805f015f9054906101000a900473ffffffffffffffffffffffffffffffffffffffff1690806001015f9054906101000a900473ffffffffffffffffffffffffffffffffffffffff1690806002018054610c5790611b6f565b80601f0160208091040260200160405190810160405280929190818152602001828054610c8390611b6f565b8015610cce5780601f10610ca557610100808354040283529160200191610cce565b820191905f5260205f20905b815481529060010190602001808311610cb157829003601f168201915b505050505090806003015490806004015490806005015f9054906101000a900460ff16905086565b5f610d01823361024f565b90505f60055f8381526020019081526020015f205490503373ffffffffffffffffffffffffffffffffffffffff1660045f8381526020019081526020015f205f015f9054906101000a900473ffffffffffffffffffffffffffffffffffffffff1673ffffffffffffffffffffffffffffffffffffffff1614610db8576040517f08c379a0000000000000000000000000000000000000000000000000000000008152600401610daf906114fa565b60405180910390fd5b60045f8281526020019081526020015f206005015f9054906101000a900460ff1615610e19576040517f08c379a0000000000000000000000000000000000000000000000000000000008152600401610e1090611feb565b60405180910390fd5b600160045f8381526020019081526020015f206005015f6101000a81548160ff021916908315150217905550505050565b610e52610ece565b5f73ffffffffffffffffffffffffffffffffffffffff168173ffffffffffffffffffffffffffffffffffffffff1603610ec2575f6040517f1e4fbdf7000000000000000000000000000000000000000000000000000000008152600401610eb9919061123d565b60405180910390fd5b610ecb81610f55565b50565b610ed66110f1565b73ffffffffffffffffffffffffffffffffffffffff16610ef46103ec565b73ffffffffffffffffffffffffffffffffffffffff1614610f5357610f176110f1565b6040517f118cdaa7000000000000000000000000000000000000000000000000000000008152600401610f4a919061123d565b60405180910390fd5b565b5f805f9054906101000a900473ffffffffffffffffffffffffffffffffffffffff169050815f806101000a81548173ffffffffffffffffffffffffffffffffffffffff021916908373ffffffffffffffffffffffffffffffffffffffff1602179055508173ffffffffffffffffffffffffffffffffffffffff168173ffffffffffffffffffffffffffffffffffffffff167f8be0079c531659141344cd1fd0a4f28419497f9722a3daafe3b4186f6b6457e060405160405180910390a35050565b60026001540361105b576040517f08c379a000000000000000000000000000000000000000000000000000000000815260040161105290612053565b60405180910390fd5b6002600181905550565b5f8273ffffffffffffffffffffffffffffffffffffffff1663dd62ed3e83306040518363ffffffff1660e01b81526004016110a1929190612071565b602060405180830381865afa1580156110bc573d5f803e3d5ffd5b505050506040513d601f19601f820116820180604052508101906110e09190611594565b905092915050565b60018081905550565b5f33905090565b5f604051905090565b5f80fd5b5f80fd5b5f73ffffffffffffffffffffffffffffffffffffffff82169050919050565b5f61113282611109565b9050919050565b61114281611128565b811461114c575f80fd5b50565b5f8135905061115d81611139565b92915050565b5f806040838503121561117957611178611101565b5b5f6111868582860161114f565b92505060206111978582860161114f565b9150509250929050565b5f819050919050565b6111b3816111a1565b82525050565b5f6020820190506111cc5f8301846111aa565b92915050565b5f602082840312156111e7576111e6611101565b5b5f6111f48482850161114f565b91505092915050565b5f819050919050565b61120f816111fd565b82525050565b5f6020820190506112285f830184611206565b92915050565b61123781611128565b82525050565b5f6020820190506112505f83018461122e565b92915050565b61125f816111a1565b8114611269575f80fd5b50565b5f8135905061127a81611256565b92915050565b5f6020828403121561129557611294611101565b5b5f6112a28482850161126c565b91505092915050565b6112b4816111fd565b81146112be575f80fd5b50565b5f813590506112cf816112ab565b92915050565b5f805f606084860312156112ec576112eb611101565b5b5f6112f98682870161114f565b935050602061130a868287016112c1565b925050604061131b868287016112c1565b9150509250925092565b5f6020828403121561133a57611339611101565b5b5f611347848285016112c1565b91505092915050565b5f81519050919050565b5f82825260208201905092915050565b8281835e5f83830152505050565b5f601f19601f8301169050919050565b5f61139282611350565b61139c818561135a565b93506113ac81856020860161136a565b6113b581611378565b840191505092915050565b5f8115159050919050565b6113d4816113c0565b82525050565b5f60c0820190506113ed5f83018961122e565b6113fa602083018861122e565b818103604083015261140c8187611388565b905061141b6060830186611206565b6114286080830185611206565b61143560a08301846113cb565b979650505050505050565b5f8160601b9050919050565b5f61145682611440565b9050919050565b5f6114678261144c565b9050919050565b61147f61147a82611128565b61145d565b82525050565b5f611490828561146e565b6014820191506114a0828461146e565b6014820191508190509392505050565b7f6f6e6c7920746865206f776e65722063616e2063616e63656c000000000000005f82015250565b5f6114e460198361135a565b91506114ef826114b0565b602082019050919050565b5f6020820190508181035f830152611511816114d8565b9050919050565b7f7468697320746f6b656e206973206e6f742061637469766500000000000000005f82015250565b5f61154c60188361135a565b915061155782611518565b602082019050919050565b5f6020820190508181035f83015261157981611540565b9050919050565b5f8151905061158e816112ab565b92915050565b5f602082840312156115a9576115a8611101565b5b5f6115b684828501611580565b91505092915050565b7f496e76616c696420746f6b656e000000000000000000000000000000000000005f82015250565b5f6115f3600d8361135a565b91506115fe826115bf565b602082019050919050565b5f6020820190508181035f830152611620816115e7565b9050919050565b7f546f6b656e20616d6f756e742063616e206e6f74206265207a65726f000000005f82015250565b5f61165b601c8361135a565b915061166682611627565b602082019050919050565b5f6020820190508181035f8301526116888161164f565b9050919050565b7f546f6b656e2070726963652063616e206e6f74206265207a65726f00000000005f82015250565b5f6116c3601b8361135a565b91506116ce8261168f565b602082019050919050565b5f6020820190508181035f8301526116f0816116b7565b9050919050565b7f596f75206d75737420617070726f7665207468697320636f6e747261637420745f8201527f6f2075736520796f757220746f6b656e73000000000000000000000000000000602082015250565b5f61175160318361135a565b915061175c826116f7565b604082019050919050565b5f6020820190508181035f83015261177e81611745565b9050919050565b7f496e73756666696369656e7420746f6b656e73000000000000000000000000005f82015250565b5f6117b960138361135a565b91506117c482611785565b602082019050919050565b5f6020820190508181035f8301526117e6816117ad565b9050919050565b7f4e487b71000000000000000000000000000000000000000000000000000000005f52601160045260245ffd5b5f611824826111fd565b915061182f836111fd565b925082820261183d816111fd565b91508282048414831517611854576118536117ed565b5b5092915050565b7f4e487b71000000000000000000000000000000000000000000000000000000005f52601260045260245ffd5b5f611892826111fd565b915061189d836111fd565b9250826118ad576118ac61185b565b5b828204905092915050565b5f6118c2826111fd565b91506118cd836111fd565b92508282039050818111156118e5576118e46117ed565b5b92915050565b5f6060820190506118fe5f83018661122e565b61190b602083018561122e565b6119186040830184611206565b949350505050565b611929816113c0565b8114611933575f80fd5b50565b5f8151905061194481611920565b92915050565b5f6020828403121561195f5761195e611101565b5b5f61196c84828501611936565b91505092915050565b7f4572726f72207768696c65207472616e7366657272696e6720746f6b656e73005f82015250565b5f6119a9601f8361135a565b91506119b482611975565b602082019050919050565b5f6020820190508181035f8301526119d68161199d565b9050919050565b5f80fd5b5f80fd5b7f4e487b71000000000000000000000000000000000000000000000000000000005f52604160045260245ffd5b611a1b82611378565b810181811067ffffffffffffffff82111715611a3a57611a396119e5565b5b80604052505050565b5f611a4c6110f8565b9050611a588282611a12565b919050565b5f67ffffffffffffffff821115611a7757611a766119e5565b5b611a8082611378565b9050602081019050919050565b5f611a9f611a9a84611a5d565b611a43565b905082815260208101848484011115611abb57611aba6119e1565b5b611ac684828561136a565b509392505050565b5f82601f830112611ae257611ae16119dd565b5b8151611af2848260208601611a8d565b91505092915050565b5f60208284031215611b1057611b0f611101565b5b5f82015167ffffffffffffffff811115611b2d57611b2c611105565b5b611b3984828501611ace565b91505092915050565b7f4e487b71000000000000000000000000000000000000000000000000000000005f52602260045260245ffd5b5f6002820490506001821680611b8657607f821691505b602082108103611b9957611b98611b42565b5b50919050565b5f819050815f5260205f209050919050565b5f6020601f8301049050919050565b5f82821b905092915050565b5f60088302611bfb7fffffffffffffffffffffffffffffffffffffffffffffffffffffffffffffffff82611bc0565b611c058683611bc0565b95508019841693508086168417925050509392505050565b5f819050919050565b5f611c40611c3b611c36846111fd565b611c1d565b6111fd565b9050919050565b5f819050919050565b611c5983611c26565b611c6d611c6582611c47565b848454611bcc565b825550505050565b5f90565b611c81611c75565b611c8c818484611c50565b505050565b5b81811015611caf57611ca45f82611c79565b600181019050611c92565b5050565b601f821115611cf457611cc581611b9f565b611cce84611bb1565b81016020851015611cdd578190505b611cf1611ce985611bb1565b830182611c91565b50505b505050565b5f82821c905092915050565b5f611d145f1984600802611cf9565b1980831691505092915050565b5f611d2c8383611d05565b9150826002028217905092915050565b611d4582611350565b67ffffffffffffffff811115611d5e57611d5d6119e5565b5b611d688254611b6f565b611d73828285611cb3565b5f60209050601f831160018114611da4575f8415611d92578287015190505b611d9c8582611d21565b865550611e03565b601f198416611db286611b9f565b5f5b82811015611dd957848901518255600182019150602085019450602081019050611db4565b86831015611df65784890151611df2601f891682611d05565b8355505b6001600288020188555050505b505050505050565b7f4572726f72207768696c65207472616e7366657272696e67206c697374696e695f8201527f6e67206665650000000000000000000000000000000000000000000000000000602082015250565b5f611e6560268361135a565b9150611e7082611e0b565b604082019050919050565b5f6020820190508181035f830152611e9281611e59565b9050919050565b5f611ea3826111fd565b91507fffffffffffffffffffffffffffffffffffffffffffffffffffffffffffffffff8203611ed557611ed46117ed565b5b600182019050919050565b7f7468697320746f6b656e206973206e6f74206163746976653a2020706c6561735f8201527f6520726561637469766174652069740000000000000000000000000000000000602082015250565b5f611f3a602f8361135a565b9150611f4582611ee0565b604082019050919050565b5f6020820190508181035f830152611f6781611f2e565b9050919050565b5f611f78826111fd565b9150611f83836111fd565b9250828201905080821115611f9b57611f9a6117ed565b5b92915050565b7f7468697320746f6b656e20697320616c7265616479206163746976652e0000005f82015250565b5f611fd5601d8361135a565b9150611fe082611fa1565b602082019050919050565b5f6020820190508181035f83015261200281611fc9565b9050919050565b7f5265656e7472616e637947756172643a207265656e7472616e742063616c6c005f82015250565b5f61203d601f8361135a565b915061204882612009565b602082019050919050565b5f6020820190508181035f83015261206a81612031565b9050919050565b5f6040820190506120845f83018561122e565b612091602083018461122e565b939250505056fea2646970667358221220d201af6015411f76f5de4a65c94d45298e3318faa445f6f6b593d3e1fa97a85564736f6c634300081a0033",
					"opcodes": "PUSH1 0x80 PUSH1 0x40 MSTORE PUSH1 0x1 PUSH1 0x6 SSTORE CALLVALUE DUP1 ISZERO PUSH2 0x14 JUMPI PUSH0 DUP1 REVERT JUMPDEST POP PUSH1 0x40 MLOAD PUSH2 0x2531 CODESIZE SUB DUP1 PUSH2 0x2531 DUP4 CODECOPY DUP2 DUP2 ADD PUSH1 0x40 MSTORE DUP2 ADD SWAP1 PUSH2 0x36 SWAP2 SWAP1 PUSH2 0x310 JUMP JUMPDEST CALLER PUSH0 PUSH20 0xFFFFFFFFFFFFFFFFFFFFFFFFFFFFFFFFFFFFFFFF AND DUP2 PUSH20 0xFFFFFFFFFFFFFFFFFFFFFFFFFFFFFFFFFFFFFFFF AND SUB PUSH2 0xA7 JUMPI PUSH0 PUSH1 0x40 MLOAD PUSH32 0x1E4FBDF700000000000000000000000000000000000000000000000000000000 DUP2 MSTORE PUSH1 0x4 ADD PUSH2 0x9E SWAP2 SWAP1 PUSH2 0x35D JUMP JUMPDEST PUSH1 0x40 MLOAD DUP1 SWAP2 SUB SWAP1 REVERT JUMPDEST PUSH2 0xB6 DUP2 PUSH2 0x1BE PUSH1 0x20 SHL PUSH1 0x20 SHR JUMP JUMPDEST POP PUSH1 0x1 DUP1 DUP2 SWAP1 SSTORE POP PUSH1 0xA DUP3 GT ISZERO PUSH2 0x102 JUMPI PUSH1 0x40 MLOAD PUSH32 0x8C379A000000000000000000000000000000000000000000000000000000000 DUP2 MSTORE PUSH1 0x4 ADD PUSH2 0xF9 SWAP1 PUSH2 0x3D0 JUMP JUMPDEST PUSH1 0x40 MLOAD DUP1 SWAP2 SUB SWAP1 REVERT JUMPDEST PUSH0 PUSH20 0xFFFFFFFFFFFFFFFFFFFFFFFFFFFFFFFFFFFFFFFF AND DUP2 PUSH20 0xFFFFFFFFFFFFFFFFFFFFFFFFFFFFFFFFFFFFFFFF AND SUB PUSH2 0x170 JUMPI PUSH1 0x40 MLOAD PUSH32 0x8C379A000000000000000000000000000000000000000000000000000000000 DUP2 MSTORE PUSH1 0x4 ADD PUSH2 0x167 SWAP1 PUSH2 0x438 JUMP JUMPDEST PUSH1 0x40 MLOAD DUP1 SWAP2 SUB SWAP1 REVERT JUMPDEST DUP2 PUSH1 0x2 DUP2 SWAP1 SSTORE POP DUP1 PUSH1 0x3 PUSH0 PUSH2 0x100 EXP DUP2 SLOAD DUP2 PUSH20 0xFFFFFFFFFFFFFFFFFFFFFFFFFFFFFFFFFFFFFFFF MUL NOT AND SWAP1 DUP4 PUSH20 0xFFFFFFFFFFFFFFFFFFFFFFFFFFFFFFFFFFFFFFFF AND MUL OR SWAP1 SSTORE POP POP POP PUSH2 0x456 JUMP JUMPDEST PUSH0 DUP1 PUSH0 SWAP1 SLOAD SWAP1 PUSH2 0x100 EXP SWAP1 DIV PUSH20 0xFFFFFFFFFFFFFFFFFFFFFFFFFFFFFFFFFFFFFFFF AND SWAP1 POP DUP2 PUSH0 DUP1 PUSH2 0x100 EXP DUP2 SLOAD DUP2 PUSH20 0xFFFFFFFFFFFFFFFFFFFFFFFFFFFFFFFFFFFFFFFF MUL NOT AND SWAP1 DUP4 PUSH20 0xFFFFFFFFFFFFFFFFFFFFFFFFFFFFFFFFFFFFFFFF AND MUL OR SWAP1 SSTORE POP DUP2 PUSH20 0xFFFFFFFFFFFFFFFFFFFFFFFFFFFFFFFFFFFFFFFF AND DUP2 PUSH20 0xFFFFFFFFFFFFFFFFFFFFFFFFFFFFFFFFFFFFFFFF AND PUSH32 0x8BE0079C531659141344CD1FD0A4F28419497F9722A3DAAFE3B4186F6B6457E0 PUSH1 0x40 MLOAD PUSH1 0x40 MLOAD DUP1 SWAP2 SUB SWAP1 LOG3 POP POP JUMP JUMPDEST PUSH0 DUP1 REVERT JUMPDEST PUSH0 DUP2 SWAP1 POP SWAP2 SWAP1 POP JUMP JUMPDEST PUSH2 0x295 DUP2 PUSH2 0x283 JUMP JUMPDEST DUP2 EQ PUSH2 0x29F JUMPI PUSH0 DUP1 REVERT JUMPDEST POP JUMP JUMPDEST PUSH0 DUP2 MLOAD SWAP1 POP PUSH2 0x2B0 DUP2 PUSH2 0x28C JUMP JUMPDEST SWAP3 SWAP2 POP POP JUMP JUMPDEST PUSH0 PUSH20 0xFFFFFFFFFFFFFFFFFFFFFFFFFFFFFFFFFFFFFFFF DUP3 AND SWAP1 POP SWAP2 SWAP1 POP JUMP JUMPDEST PUSH0 PUSH2 0x2DF DUP3 PUSH2 0x2B6 JUMP JUMPDEST SWAP1 POP SWAP2 SWAP1 POP JUMP JUMPDEST PUSH2 0x2EF DUP2 PUSH2 0x2D5 JUMP JUMPDEST DUP2 EQ PUSH2 0x2F9 JUMPI PUSH0 DUP1 REVERT JUMPDEST POP JUMP JUMPDEST PUSH0 DUP2 MLOAD SWAP1 POP PUSH2 0x30A DUP2 PUSH2 0x2E6 JUMP JUMPDEST SWAP3 SWAP2 POP POP JUMP JUMPDEST PUSH0 DUP1 PUSH1 0x40 DUP4 DUP6 SUB SLT ISZERO PUSH2 0x326 JUMPI PUSH2 0x325 PUSH2 0x27F JUMP JUMPDEST JUMPDEST PUSH0 PUSH2 0x333 DUP6 DUP3 DUP7 ADD PUSH2 0x2A2 JUMP JUMPDEST SWAP3 POP POP PUSH1 0x20 PUSH2 0x344 DUP6 DUP3 DUP7 ADD PUSH2 0x2FC JUMP JUMPDEST SWAP2 POP POP SWAP3 POP SWAP3 SWAP1 POP JUMP JUMPDEST PUSH2 0x357 DUP2 PUSH2 0x2D5 JUMP JUMPDEST DUP3 MSTORE POP POP JUMP JUMPDEST PUSH0 PUSH1 0x20 DUP3 ADD SWAP1 POP PUSH2 0x370 PUSH0 DUP4 ADD DUP5 PUSH2 0x34E JUMP JUMPDEST SWAP3 SWAP2 POP POP JUMP JUMPDEST PUSH0 DUP3 DUP3 MSTORE PUSH1 0x20 DUP3 ADD SWAP1 POP SWAP3 SWAP2 POP POP JUMP JUMPDEST PUSH32 0x466565206D757374206E6F742065786365656420313025000000000000000000 PUSH0 DUP3 ADD MSTORE POP JUMP JUMPDEST PUSH0 PUSH2 0x3BA PUSH1 0x17 DUP4 PUSH2 0x376 JUMP JUMPDEST SWAP2 POP PUSH2 0x3C5 DUP3 PUSH2 0x386 JUMP JUMPDEST PUSH1 0x20 DUP3 ADD SWAP1 POP SWAP2 SWAP1 POP JUMP JUMPDEST PUSH0 PUSH1 0x20 DUP3 ADD SWAP1 POP DUP2 DUP2 SUB PUSH0 DUP4 ADD MSTORE PUSH2 0x3E7 DUP2 PUSH2 0x3AE JUMP JUMPDEST SWAP1 POP SWAP2 SWAP1 POP JUMP JUMPDEST PUSH32 0x496E76616C69642066656520726563697069656E742061646472657373000000 PUSH0 DUP3 ADD MSTORE POP JUMP JUMPDEST PUSH0 PUSH2 0x422 PUSH1 0x1D DUP4 PUSH2 0x376 JUMP JUMPDEST SWAP2 POP PUSH2 0x42D DUP3 PUSH2 0x3EE JUMP JUMPDEST PUSH1 0x20 DUP3 ADD SWAP1 POP SWAP2 SWAP1 POP JUMP JUMPDEST PUSH0 PUSH1 0x20 DUP3 ADD SWAP1 POP DUP2 DUP2 SUB PUSH0 DUP4 ADD MSTORE PUSH2 0x44F DUP2 PUSH2 0x416 JUMP JUMPDEST SWAP1 POP SWAP2 SWAP1 POP JUMP JUMPDEST PUSH2 0x20CE DUP1 PUSH2 0x463 PUSH0 CODECOPY PUSH0 RETURN INVALID PUSH1 0x80 PUSH1 0x40 MSTORE CALLVALUE DUP1 ISZERO PUSH2 0xF JUMPI PUSH0 DUP1 REVERT JUMPDEST POP PUSH1 0x4 CALLDATASIZE LT PUSH2 0xB2 JUMPI PUSH0 CALLDATALOAD PUSH1 0xE0 SHR DUP1 PUSH4 0xADE9FBC6 GT PUSH2 0x6F JUMPI DUP1 PUSH4 0xADE9FBC6 EQ PUSH2 0x178 JUMPI DUP1 PUSH4 0xC415B95C EQ PUSH2 0x1A8 JUMPI DUP1 PUSH4 0xC661AEA6 EQ PUSH2 0x1C6 JUMPI DUP1 PUSH4 0xDE74E57B EQ PUSH2 0x1E2 JUMPI DUP1 PUSH4 0xDF5B7D63 EQ PUSH2 0x217 JUMPI DUP1 PUSH4 0xF2FDE38B EQ PUSH2 0x233 JUMPI PUSH2 0xB2 JUMP JUMPDEST DUP1 PUSH4 0x37D9681D EQ PUSH2 0xB6 JUMPI DUP1 PUSH4 0x4724DA6F EQ PUSH2 0xE6 JUMPI DUP1 PUSH4 0x715018A6 EQ PUSH2 0x102 JUMPI DUP1 PUSH4 0x7FD6F15C EQ PUSH2 0x10C JUMPI DUP1 PUSH4 0x8DA5CB5B EQ PUSH2 0x12A JUMPI DUP1 PUSH4 0x920811FC EQ PUSH2 0x148 JUMPI JUMPDEST PUSH0 DUP1 REVERT JUMPDEST PUSH2 0xD0 PUSH1 0x4 DUP1 CALLDATASIZE SUB DUP2 ADD SWAP1 PUSH2 0xCB SWAP2 SWAP1 PUSH2 0x1163 JUMP JUMPDEST PUSH2 0x24F JUMP JUMPDEST PUSH1 0x40 MLOAD PUSH2 0xDD SWAP2 SWAP1 PUSH2 0x11B9 JUMP JUMPDEST PUSH1 0x40 MLOAD DUP1 SWAP2 SUB SWAP1 RETURN JUMPDEST PUSH2 0x100 PUSH1 0x4 DUP1 CALLDATASIZE SUB DUP2 ADD SWAP1 PUSH2 0xFB SWAP2 SWAP1 PUSH2 0x11D2 JUMP JUMPDEST PUSH2 0x281 JUMP JUMPDEST STOP JUMPDEST PUSH2 0x10A PUSH2 0x3D3 JUMP JUMPDEST STOP JUMPDEST PUSH2 0x114 PUSH2 0x3E6 JUMP JUMPDEST PUSH1 0x40 MLOAD PUSH2 0x121 SWAP2 SWAP1 PUSH2 0x1215 JUMP JUMPDEST PUSH1 0x40 MLOAD DUP1 SWAP2 SUB SWAP1 RETURN JUMPDEST PUSH2 0x132 PUSH2 0x3EC JUMP JUMPDEST PUSH1 0x40 MLOAD PUSH2 0x13F SWAP2 SWAP1 PUSH2 0x123D JUMP JUMPDEST PUSH1 0x40 MLOAD DUP1 SWAP2 SUB SWAP1 RETURN JUMPDEST PUSH2 0x162 PUSH1 0x4 DUP1 CALLDATASIZE SUB DUP2 ADD SWAP1 PUSH2 0x15D SWAP2 SWAP1 PUSH2 0x1163 JUMP JUMPDEST PUSH2 0x413 JUMP JUMPDEST PUSH1 0x40 MLOAD PUSH2 0x16F SWAP2 SWAP1 PUSH2 0x1215 JUMP JUMPDEST PUSH1 0x40 MLOAD DUP1 SWAP2 SUB SWAP1 RETURN JUMPDEST PUSH2 0x192 PUSH1 0x4 DUP1 CALLDATASIZE SUB DUP2 ADD SWAP1 PUSH2 0x18D SWAP2 SWAP1 PUSH2 0x1280 JUMP JUMPDEST PUSH2 0x494 JUMP JUMPDEST PUSH1 0x40 MLOAD PUSH2 0x19F SWAP2 SWAP1 PUSH2 0x1215 JUMP JUMPDEST PUSH1 0x40 MLOAD DUP1 SWAP2 SUB SWAP1 RETURN JUMPDEST PUSH2 0x1B0 PUSH2 0x4A9 JUMP JUMPDEST PUSH1 0x40 MLOAD PUSH2 0x1BD SWAP2 SWAP1 PUSH2 0x123D JUMP JUMPDEST PUSH1 0x40 MLOAD DUP1 SWAP2 SUB SWAP1 RETURN JUMPDEST PUSH2 0x1E0 PUSH1 0x4 DUP1 CALLDATASIZE SUB DUP2 ADD SWAP1 PUSH2 0x1DB SWAP2 SWAP1 PUSH2 0x12D5 JUMP JUMPDEST PUSH2 0x4CE JUMP JUMPDEST STOP JUMPDEST PUSH2 0x1FC PUSH1 0x4 DUP1 CALLDATASIZE SUB DUP2 ADD SWAP1 PUSH2 0x1F7 SWAP2 SWAP1 PUSH2 0x1325 JUMP JUMPDEST PUSH2 0xBEE JUMP JUMPDEST PUSH1 0x40 MLOAD PUSH2 0x20E SWAP7 SWAP6 SWAP5 SWAP4 SWAP3 SWAP2 SWAP1 PUSH2 0x13DA JUMP JUMPDEST PUSH1 0x40 MLOAD DUP1 SWAP2 SUB SWAP1 RETURN JUMPDEST PUSH2 0x231 PUSH1 0x4 DUP1 CALLDATASIZE SUB DUP2 ADD SWAP1 PUSH2 0x22C SWAP2 SWAP1 PUSH2 0x11D2 JUMP JUMPDEST PUSH2 0xCF6 JUMP JUMPDEST STOP JUMPDEST PUSH2 0x24D PUSH1 0x4 DUP1 CALLDATASIZE SUB DUP2 ADD SWAP1 PUSH2 0x248 SWAP2 SWAP1 PUSH2 0x11D2 JUMP JUMPDEST PUSH2 0xE4A JUMP JUMPDEST STOP JUMPDEST PUSH0 DUP3 DUP3 PUSH1 0x40 MLOAD PUSH1 0x20 ADD PUSH2 0x263 SWAP3 SWAP2 SWAP1 PUSH2 0x1485 JUMP JUMPDEST PUSH1 0x40 MLOAD PUSH1 0x20 DUP2 DUP4 SUB SUB DUP2 MSTORE SWAP1 PUSH1 0x40 MSTORE DUP1 MLOAD SWAP1 PUSH1 0x20 ADD KECCAK256 SWAP1 POP SWAP3 SWAP2 POP POP JUMP JUMPDEST PUSH0 PUSH2 0x28C DUP3 CALLER PUSH2 0x24F JUMP JUMPDEST SWAP1 POP PUSH0 PUSH1 0x5 PUSH0 DUP4 DUP2 MSTORE PUSH1 0x20 ADD SWAP1 DUP2 MSTORE PUSH1 0x20 ADD PUSH0 KECCAK256 SLOAD SWAP1 POP CALLER PUSH20 0xFFFFFFFFFFFFFFFFFFFFFFFFFFFFFFFFFFFFFFFF AND PUSH1 0x4 PUSH0 DUP4 DUP2 MSTORE PUSH1 0x20 ADD SWAP1 DUP2 MSTORE PUSH1 0x20 ADD PUSH0 KECCAK256 PUSH0 ADD PUSH0 SWAP1 SLOAD SWAP1 PUSH2 0x100 EXP SWAP1 DIV PUSH20 0xFFFFFFFFFFFFFFFFFFFFFFFFFFFFFFFFFFFFFFFF AND PUSH20 0xFFFFFFFFFFFFFFFFFFFFFFFFFFFFFFFFFFFFFFFF AND EQ PUSH2 0x343 JUMPI PUSH1 0x40 MLOAD PUSH32 0x8C379A000000000000000000000000000000000000000000000000000000000 DUP2 MSTORE PUSH1 0x4 ADD PUSH2 0x33A SWAP1 PUSH2 0x14FA JUMP JUMPDEST PUSH1 0x40 MLOAD DUP1 SWAP2 SUB SWAP1 REVERT JUMPDEST PUSH1 0x4 PUSH0 DUP3 DUP2 MSTORE PUSH1 0x20 ADD SWAP1 DUP2 MSTORE PUSH1 0x20 ADD PUSH0 KECCAK256 PUSH1 0x5 ADD PUSH0 SWAP1 SLOAD SWAP1 PUSH2 0x100 EXP SWAP1 DIV PUSH1 0xFF AND PUSH2 0x3A3 JUMPI PUSH1 0x40 MLOAD PUSH32 0x8C379A000000000000000000000000000000000000000000000000000000000 DUP2 MSTORE PUSH1 0x4 ADD PUSH2 0x39A SWAP1 PUSH2 0x1562 JUMP JUMPDEST PUSH1 0x40 MLOAD DUP1 SWAP2 SUB SWAP1 REVERT JUMPDEST PUSH0 PUSH1 0x4 PUSH0 DUP4 DUP2 MSTORE PUSH1 0x20 ADD SWAP1 DUP2 MSTORE PUSH1 0x20 ADD PUSH0 KECCAK256 PUSH1 0x5 ADD PUSH0 PUSH2 0x100 EXP DUP2 SLOAD DUP2 PUSH1 0xFF MUL NOT AND SWAP1 DUP4 ISZERO ISZERO MUL OR SWAP1 SSTORE POP POP POP POP JUMP JUMPDEST PUSH2 0x3DB PUSH2 0xECE JUMP JUMPDEST PUSH2 0x3E4 PUSH0 PUSH2 0xF55 JUMP JUMPDEST JUMP JUMPDEST PUSH1 0x2 SLOAD DUP2 JUMP JUMPDEST PUSH0 DUP1 PUSH0 SWAP1 SLOAD SWAP1 PUSH2 0x100 EXP SWAP1 DIV PUSH20 0xFFFFFFFFFFFFFFFFFFFFFFFFFFFFFFFFFFFFFFFF AND SWAP1 POP SWAP1 JUMP JUMPDEST PUSH0 DUP3 PUSH20 0xFFFFFFFFFFFFFFFFFFFFFFFFFFFFFFFFFFFFFFFF AND PUSH4 0x70A08231 DUP4 PUSH1 0x40 MLOAD DUP3 PUSH4 0xFFFFFFFF AND PUSH1 0xE0 SHL DUP2 MSTORE PUSH1 0x4 ADD PUSH2 0x44D SWAP2 SWAP1 PUSH2 0x123D JUMP JUMPDEST PUSH1 0x20 PUSH1 0x40 MLOAD DUP1 DUP4 SUB DUP2 DUP7 GAS STATICCALL ISZERO DUP1 ISZERO PUSH2 0x468 JUMPI RETURNDATASIZE PUSH0 DUP1 RETURNDATACOPY RETURNDATASIZE PUSH0 REVERT JUMPDEST POP POP POP POP PUSH1 0x40 MLOAD RETURNDATASIZE PUSH1 0x1F NOT PUSH1 0x1F DUP3 ADD AND DUP3 ADD DUP1 PUSH1 0x40 MSTORE POP DUP2 ADD SWAP1 PUSH2 0x48C SWAP2 SWAP1 PUSH2 0x1594 JUMP JUMPDEST SWAP1 POP SWAP3 SWAP2 POP POP JUMP JUMPDEST PUSH1 0x5 PUSH1 0x20 MSTORE DUP1 PUSH0 MSTORE PUSH1 0x40 PUSH0 KECCAK256 PUSH0 SWAP2 POP SWAP1 POP SLOAD DUP2 JUMP JUMPDEST PUSH1 0x3 PUSH0 SWAP1 SLOAD SWAP1 PUSH2 0x100 EXP SWAP1 DIV PUSH20 0xFFFFFFFFFFFFFFFFFFFFFFFFFFFFFFFFFFFFFFFF AND DUP2 JUMP JUMPDEST PUSH2 0x4D6 PUSH2 0x1016 JUMP JUMPDEST PUSH0 PUSH20 0xFFFFFFFFFFFFFFFFFFFFFFFFFFFFFFFFFFFFFFFF AND DUP4 PUSH20 0xFFFFFFFFFFFFFFFFFFFFFFFFFFFFFFFFFFFFFFFF AND SUB PUSH2 0x544 JUMPI PUSH1 0x40 MLOAD PUSH32 0x8C379A000000000000000000000000000000000000000000000000000000000 DUP2 MSTORE PUSH1 0x4 ADD PUSH2 0x53B SWAP1 PUSH2 0x1609 JUMP JUMPDEST PUSH1 0x40 MLOAD DUP1 SWAP2 SUB SWAP1 REVERT JUMPDEST PUSH0 DUP3 GT PUSH2 0x586 JUMPI PUSH1 0x40 MLOAD PUSH32 0x8C379A000000000000000000000000000000000000000000000000000000000 DUP2 MSTORE PUSH1 0x4 ADD PUSH2 0x57D SWAP1 PUSH2 0x1671 JUMP JUMPDEST PUSH1 0x40 MLOAD DUP1 SWAP2 SUB SWAP1 REVERT JUMPDEST PUSH0 DUP2 GT PUSH2 0x5C8 JUMPI PUSH1 0x40 MLOAD PUSH32 0x8C379A000000000000000000000000000000000000000000000000000000000 DUP2 MSTORE PUSH1 0x4 ADD PUSH2 0x5BF SWAP1 PUSH2 0x16D9 JUMP JUMPDEST PUSH1 0x40 MLOAD DUP1 SWAP2 SUB SWAP1 REVERT JUMPDEST PUSH0 PUSH2 0x5D3 DUP5 CALLER PUSH2 0x1065 JUMP JUMPDEST GT PUSH2 0x613 JUMPI PUSH1 0x40 MLOAD PUSH32 0x8C379A000000000000000000000000000000000000000000000000000000000 DUP2 MSTORE PUSH1 0x4 ADD PUSH2 0x60A SWAP1 PUSH2 0x1767 JUMP JUMPDEST PUSH1 0x40 MLOAD DUP1 SWAP2 SUB SWAP1 REVERT JUMPDEST DUP2 PUSH2 0x61E DUP5 CALLER PUSH2 0x1065 JUMP JUMPDEST LT ISZERO PUSH2 0x65F JUMPI PUSH1 0x40 MLOAD PUSH32 0x8C379A000000000000000000000000000000000000000000000000000000000 DUP2 MSTORE PUSH1 0x4 ADD PUSH2 0x656 SWAP1 PUSH2 0x17CF JUMP JUMPDEST PUSH1 0x40 MLOAD DUP1 SWAP2 SUB SWAP1 REVERT JUMPDEST PUSH0 DUP4 SWAP1 POP PUSH0 PUSH1 0x64 DUP5 PUSH1 0x2 SLOAD PUSH2 0x674 SWAP2 SWAP1 PUSH2 0x181A JUMP JUMPDEST PUSH2 0x67E SWAP2 SWAP1 PUSH2 0x1888 JUMP JUMPDEST SWAP1 POP DUP2 PUSH20 0xFFFFFFFFFFFFFFFFFFFFFFFFFFFFFFFFFFFFFFFF AND PUSH4 0x23B872DD CALLER ADDRESS DUP5 DUP9 PUSH2 0x6AA SWAP2 SWAP1 PUSH2 0x18B8 JUMP JUMPDEST PUSH1 0x40 MLOAD DUP5 PUSH4 0xFFFFFFFF AND PUSH1 0xE0 SHL DUP2 MSTORE PUSH1 0x4 ADD PUSH2 0x6C8 SWAP4 SWAP3 SWAP2 SWAP1 PUSH2 0x18EB JUMP JUMPDEST PUSH1 0x20 PUSH1 0x40 MLOAD DUP1 DUP4 SUB DUP2 PUSH0 DUP8 GAS CALL ISZERO DUP1 ISZERO PUSH2 0x6E4 JUMPI RETURNDATASIZE PUSH0 DUP1 RETURNDATACOPY RETURNDATASIZE PUSH0 REVERT JUMPDEST POP POP POP POP PUSH1 0x40 MLOAD RETURNDATASIZE PUSH1 0x1F NOT PUSH1 0x1F DUP3 ADD AND DUP3 ADD DUP1 PUSH1 0x40 MSTORE POP DUP2 ADD SWAP1 PUSH2 0x708 SWAP2 SWAP1 PUSH2 0x194A JUMP JUMPDEST PUSH2 0x747 JUMPI PUSH1 0x40 MLOAD PUSH32 0x8C379A000000000000000000000000000000000000000000000000000000000 DUP2 MSTORE PUSH1 0x4 ADD PUSH2 0x73E SWAP1 PUSH2 0x19BF JUMP JUMPDEST PUSH1 0x40 MLOAD DUP1 SWAP2 SUB SWAP1 REVERT JUMPDEST PUSH0 PUSH2 0x752 DUP7 CALLER PUSH2 0x24F JUMP JUMPDEST SWAP1 POP PUSH0 PUSH1 0x5 PUSH0 DUP4 DUP2 MSTORE PUSH1 0x20 ADD SWAP1 DUP2 MSTORE PUSH1 0x20 ADD PUSH0 KECCAK256 SLOAD SUB PUSH2 0xA3C JUMPI PUSH1 0x40 MLOAD DUP1 PUSH1 0xC0 ADD PUSH1 0x40 MSTORE DUP1 CALLER PUSH20 0xFFFFFFFFFFFFFFFFFFFFFFFFFFFFFFFFFFFFFFFF AND DUP2 MSTORE PUSH1 0x20 ADD DUP8 PUSH20 0xFFFFFFFFFFFFFFFFFFFFFFFFFFFFFFFFFFFFFFFF AND DUP2 MSTORE PUSH1 0x20 ADD DUP8 PUSH20 0xFFFFFFFFFFFFFFFFFFFFFFFFFFFFFFFFFFFFFFFF AND PUSH4 0x6FDDE03 PUSH1 0x40 MLOAD DUP2 PUSH4 0xFFFFFFFF AND PUSH1 0xE0 SHL DUP2 MSTORE PUSH1 0x4 ADD PUSH0 PUSH1 0x40 MLOAD DUP1 DUP4 SUB DUP2 DUP7 GAS STATICCALL ISZERO DUP1 ISZERO PUSH2 0x7F7 JUMPI RETURNDATASIZE PUSH0 DUP1 RETURNDATACOPY RETURNDATASIZE PUSH0 REVERT JUMPDEST POP POP POP POP PUSH1 0x40 MLOAD RETURNDATASIZE PUSH0 DUP3 RETURNDATACOPY RETURNDATASIZE PUSH1 0x1F NOT PUSH1 0x1F DUP3 ADD AND DUP3 ADD DUP1 PUSH1 0x40 MSTORE POP DUP2 ADD SWAP1 PUSH2 0x81F SWAP2 SWAP1 PUSH2 0x1AFB JUMP JUMPDEST DUP2 MSTORE PUSH1 0x20 ADD DUP4 DUP8 PUSH2 0x830 SWAP2 SWAP1 PUSH2 0x18B8 JUMP JUMPDEST DUP2 MSTORE PUSH1 0x20 ADD DUP6 DUP2 MSTORE PUSH1 0x20 ADD PUSH1 0x1 ISZERO ISZERO DUP2 MSTORE POP PUSH1 0x4 PUSH0 PUSH1 0x6 SLOAD DUP2 MSTORE PUSH1 0x20 ADD SWAP1 DUP2 MSTORE PUSH1 0x20 ADD PUSH0 KECCAK256 PUSH0 DUP3 ADD MLOAD DUP2 PUSH0 ADD PUSH0 PUSH2 0x100 EXP DUP2 SLOAD DUP2 PUSH20 0xFFFFFFFFFFFFFFFFFFFFFFFFFFFFFFFFFFFFFFFF MUL NOT AND SWAP1 DUP4 PUSH20 0xFFFFFFFFFFFFFFFFFFFFFFFFFFFFFFFFFFFFFFFF AND MUL OR SWAP1 SSTORE POP PUSH1 0x20 DUP3 ADD MLOAD DUP2 PUSH1 0x1 ADD PUSH0 PUSH2 0x100 EXP DUP2 SLOAD DUP2 PUSH20 0xFFFFFFFFFFFFFFFFFFFFFFFFFFFFFFFFFFFFFFFF MUL NOT AND SWAP1 DUP4 PUSH20 0xFFFFFFFFFFFFFFFFFFFFFFFFFFFFFFFFFFFFFFFF AND MUL OR SWAP1 SSTORE POP PUSH1 0x40 DUP3 ADD MLOAD DUP2 PUSH1 0x2 ADD SWAP1 DUP2 PUSH2 0x8F4 SWAP2 SWAP1 PUSH2 0x1D3C JUMP JUMPDEST POP PUSH1 0x60 DUP3 ADD MLOAD DUP2 PUSH1 0x3 ADD SSTORE PUSH1 0x80 DUP3 ADD MLOAD DUP2 PUSH1 0x4 ADD SSTORE PUSH1 0xA0 DUP3 ADD MLOAD DUP2 PUSH1 0x5 ADD PUSH0 PUSH2 0x100 EXP DUP2 SLOAD DUP2 PUSH1 0xFF MUL NOT AND SWAP1 DUP4 ISZERO ISZERO MUL OR SWAP1 SSTORE POP SWAP1 POP POP DUP3 PUSH20 0xFFFFFFFFFFFFFFFFFFFFFFFFFFFFFFFFFFFFFFFF AND PUSH4 0x23B872DD CALLER PUSH1 0x3 PUSH0 SWAP1 SLOAD SWAP1 PUSH2 0x100 EXP SWAP1 DIV PUSH20 0xFFFFFFFFFFFFFFFFFFFFFFFFFFFFFFFFFFFFFFFF AND DUP6 PUSH1 0x40 MLOAD DUP5 PUSH4 0xFFFFFFFF AND PUSH1 0xE0 SHL DUP2 MSTORE PUSH1 0x4 ADD PUSH2 0x989 SWAP4 SWAP3 SWAP2 SWAP1 PUSH2 0x18EB JUMP JUMPDEST PUSH1 0x20 PUSH1 0x40 MLOAD DUP1 DUP4 SUB DUP2 PUSH0 DUP8 GAS CALL ISZERO DUP1 ISZERO PUSH2 0x9A5 JUMPI RETURNDATASIZE PUSH0 DUP1 RETURNDATACOPY RETURNDATASIZE PUSH0 REVERT JUMPDEST POP POP POP POP PUSH1 0x40 MLOAD RETURNDATASIZE PUSH1 0x1F NOT PUSH1 0x1F DUP3 ADD AND DUP3 ADD DUP1 PUSH1 0x40 MSTORE POP DUP2 ADD SWAP1 PUSH2 0x9C9 SWAP2 SWAP1 PUSH2 0x194A JUMP JUMPDEST PUSH2 0xA08 JUMPI PUSH1 0x40 MLOAD PUSH32 0x8C379A000000000000000000000000000000000000000000000000000000000 DUP2 MSTORE PUSH1 0x4 ADD PUSH2 0x9FF SWAP1 PUSH2 0x1E7B JUMP JUMPDEST PUSH1 0x40 MLOAD DUP1 SWAP2 SUB SWAP1 REVERT JUMPDEST PUSH1 0x6 SLOAD PUSH1 0x5 PUSH0 DUP4 DUP2 MSTORE PUSH1 0x20 ADD SWAP1 DUP2 MSTORE PUSH1 0x20 ADD PUSH0 KECCAK256 DUP2 SWAP1 SSTORE POP PUSH1 0x6 PUSH0 DUP2 SLOAD DUP1 SWAP3 SWAP2 SWAP1 PUSH2 0xA32 SWAP1 PUSH2 0x1E99 JUMP JUMPDEST SWAP2 SWAP1 POP SSTORE POP PUSH2 0xBDE JUMP JUMPDEST PUSH0 PUSH1 0x5 PUSH0 DUP4 DUP2 MSTORE PUSH1 0x20 ADD SWAP1 DUP2 MSTORE PUSH1 0x20 ADD PUSH0 KECCAK256 SLOAD SWAP1 POP PUSH1 0x4 PUSH0 DUP3 DUP2 MSTORE PUSH1 0x20 ADD SWAP1 DUP2 MSTORE PUSH1 0x20 ADD PUSH0 KECCAK256 PUSH1 0x5 ADD PUSH0 SWAP1 SLOAD SWAP1 PUSH2 0x100 EXP SWAP1 DIV PUSH1 0xFF AND PUSH2 0xAB1 JUMPI PUSH1 0x40 MLOAD PUSH32 0x8C379A000000000000000000000000000000000000000000000000000000000 DUP2 MSTORE PUSH1 0x4 ADD PUSH2 0xAA8 SWAP1 PUSH2 0x1F50 JUMP JUMPDEST PUSH1 0x40 MLOAD DUP1 SWAP2 SUB SWAP1 REVERT JUMPDEST DUP3 DUP7 PUSH2 0xABD SWAP2 SWAP1 PUSH2 0x18B8 JUMP JUMPDEST PUSH1 0x4 PUSH0 DUP4 DUP2 MSTORE PUSH1 0x20 ADD SWAP1 DUP2 MSTORE PUSH1 0x20 ADD PUSH0 KECCAK256 PUSH1 0x3 ADD PUSH0 DUP3 DUP3 SLOAD PUSH2 0xADF SWAP2 SWAP1 PUSH2 0x1F6E JUMP JUMPDEST SWAP3 POP POP DUP2 SWAP1 SSTORE POP DUP5 PUSH1 0x4 PUSH0 DUP4 DUP2 MSTORE PUSH1 0x20 ADD SWAP1 DUP2 MSTORE PUSH1 0x20 ADD PUSH0 KECCAK256 PUSH1 0x4 ADD DUP2 SWAP1 SSTORE POP DUP4 PUSH20 0xFFFFFFFFFFFFFFFFFFFFFFFFFFFFFFFFFFFFFFFF AND PUSH4 0x23B872DD CALLER PUSH1 0x3 PUSH0 SWAP1 SLOAD SWAP1 PUSH2 0x100 EXP SWAP1 DIV PUSH20 0xFFFFFFFFFFFFFFFFFFFFFFFFFFFFFFFFFFFFFFFF AND DUP7 PUSH1 0x40 MLOAD DUP5 PUSH4 0xFFFFFFFF AND PUSH1 0xE0 SHL DUP2 MSTORE PUSH1 0x4 ADD PUSH2 0xB5D SWAP4 SWAP3 SWAP2 SWAP1 PUSH2 0x18EB JUMP JUMPDEST PUSH1 0x20 PUSH1 0x40 MLOAD DUP1 DUP4 SUB DUP2 PUSH0 DUP8 GAS CALL ISZERO DUP1 ISZERO PUSH2 0xB79 JUMPI RETURNDATASIZE PUSH0 DUP1 RETURNDATACOPY RETURNDATASIZE PUSH0 REVERT JUMPDEST POP POP POP POP PUSH1 0x40 MLOAD RETURNDATASIZE PUSH1 0x1F NOT PUSH1 0x1F DUP3 ADD AND DUP3 ADD DUP1 PUSH1 0x40 MSTORE POP DUP2 ADD SWAP1 PUSH2 0xB9D SWAP2 SWAP1 PUSH2 0x194A JUMP JUMPDEST PUSH2 0xBDC JUMPI PUSH1 0x40 MLOAD PUSH32 0x8C379A000000000000000000000000000000000000000000000000000000000 DUP2 MSTORE PUSH1 0x4 ADD PUSH2 0xBD3 SWAP1 PUSH2 0x1E7B JUMP JUMPDEST PUSH1 0x40 MLOAD DUP1 SWAP2 SUB SWAP1 REVERT JUMPDEST POP JUMPDEST POP POP POP PUSH2 0xBE9 PUSH2 0x10E8 JUMP JUMPDEST POP POP POP JUMP JUMPDEST PUSH1 0x4 PUSH1 0x20 MSTORE DUP1 PUSH0 MSTORE PUSH1 0x40 PUSH0 KECCAK256 PUSH0 SWAP2 POP SWAP1 POP DUP1 PUSH0 ADD PUSH0 SWAP1 SLOAD SWAP1 PUSH2 0x100 EXP SWAP1 DIV PUSH20 0xFFFFFFFFFFFFFFFFFFFFFFFFFFFFFFFFFFFFFFFF AND SWAP1 DUP1 PUSH1 0x1 ADD PUSH0 SWAP1 SLOAD SWAP1 PUSH2 0x100 EXP SWAP1 DIV PUSH20 0xFFFFFFFFFFFFFFFFFFFFFFFFFFFFFFFFFFFFFFFF AND SWAP1 DUP1 PUSH1 0x2 ADD DUP1 SLOAD PUSH2 0xC57 SWAP1 PUSH2 0x1B6F JUMP JUMPDEST DUP1 PUSH1 0x1F ADD PUSH1 0x20 DUP1 SWAP2 DIV MUL PUSH1 0x20 ADD PUSH1 0x40 MLOAD SWAP1 DUP2 ADD PUSH1 0x40 MSTORE DUP1 SWAP3 SWAP2 SWAP1 DUP2 DUP2 MSTORE PUSH1 0x20 ADD DUP3 DUP1 SLOAD PUSH2 0xC83 SWAP1 PUSH2 0x1B6F JUMP JUMPDEST DUP1 ISZERO PUSH2 0xCCE JUMPI DUP1 PUSH1 0x1F LT PUSH2 0xCA5 JUMPI PUSH2 0x100 DUP1 DUP4 SLOAD DIV MUL DUP4 MSTORE SWAP2 PUSH1 0x20 ADD SWAP2 PUSH2 0xCCE JUMP JUMPDEST DUP3 ADD SWAP2 SWAP1 PUSH0 MSTORE PUSH1 0x20 PUSH0 KECCAK256 SWAP1 JUMPDEST DUP2 SLOAD DUP2 MSTORE SWAP1 PUSH1 0x1 ADD SWAP1 PUSH1 0x20 ADD DUP1 DUP4 GT PUSH2 0xCB1 JUMPI DUP3 SWAP1 SUB PUSH1 0x1F AND DUP3 ADD SWAP2 JUMPDEST POP POP POP POP POP SWAP1 DUP1 PUSH1 0x3 ADD SLOAD SWAP1 DUP1 PUSH1 0x4 ADD SLOAD SWAP1 DUP1 PUSH1 0x5 ADD PUSH0 SWAP1 SLOAD SWAP1 PUSH2 0x100 EXP SWAP1 DIV PUSH1 0xFF AND SWAP1 POP DUP7 JUMP JUMPDEST PUSH0 PUSH2 0xD01 DUP3 CALLER PUSH2 0x24F JUMP JUMPDEST SWAP1 POP PUSH0 PUSH1 0x5 PUSH0 DUP4 DUP2 MSTORE PUSH1 0x20 ADD SWAP1 DUP2 MSTORE PUSH1 0x20 ADD PUSH0 KECCAK256 SLOAD SWAP1 POP CALLER PUSH20 0xFFFFFFFFFFFFFFFFFFFFFFFFFFFFFFFFFFFFFFFF AND PUSH1 0x4 PUSH0 DUP4 DUP2 MSTORE PUSH1 0x20 ADD SWAP1 DUP2 MSTORE PUSH1 0x20 ADD PUSH0 KECCAK256 PUSH0 ADD PUSH0 SWAP1 SLOAD SWAP1 PUSH2 0x100 EXP SWAP1 DIV PUSH20 0xFFFFFFFFFFFFFFFFFFFFFFFFFFFFFFFFFFFFFFFF AND PUSH20 0xFFFFFFFFFFFFFFFFFFFFFFFFFFFFFFFFFFFFFFFF AND EQ PUSH2 0xDB8 JUMPI PUSH1 0x40 MLOAD PUSH32 0x8C379A000000000000000000000000000000000000000000000000000000000 DUP2 MSTORE PUSH1 0x4 ADD PUSH2 0xDAF SWAP1 PUSH2 0x14FA JUMP JUMPDEST PUSH1 0x40 MLOAD DUP1 SWAP2 SUB SWAP1 REVERT JUMPDEST PUSH1 0x4 PUSH0 DUP3 DUP2 MSTORE PUSH1 0x20 ADD SWAP1 DUP2 MSTORE PUSH1 0x20 ADD PUSH0 KECCAK256 PUSH1 0x5 ADD PUSH0 SWAP1 SLOAD SWAP1 PUSH2 0x100 EXP SWAP1 DIV PUSH1 0xFF AND ISZERO PUSH2 0xE19 JUMPI PUSH1 0x40 MLOAD PUSH32 0x8C379A000000000000000000000000000000000000000000000000000000000 DUP2 MSTORE PUSH1 0x4 ADD PUSH2 0xE10 SWAP1 PUSH2 0x1FEB JUMP JUMPDEST PUSH1 0x40 MLOAD DUP1 SWAP2 SUB SWAP1 REVERT JUMPDEST PUSH1 0x1 PUSH1 0x4 PUSH0 DUP4 DUP2 MSTORE PUSH1 0x20 ADD SWAP1 DUP2 MSTORE PUSH1 0x20 ADD PUSH0 KECCAK256 PUSH1 0x5 ADD PUSH0 PUSH2 0x100 EXP DUP2 SLOAD DUP2 PUSH1 0xFF MUL NOT AND SWAP1 DUP4 ISZERO ISZERO MUL OR SWAP1 SSTORE POP POP POP POP JUMP JUMPDEST PUSH2 0xE52 PUSH2 0xECE JUMP JUMPDEST PUSH0 PUSH20 0xFFFFFFFFFFFFFFFFFFFFFFFFFFFFFFFFFFFFFFFF AND DUP2 PUSH20 0xFFFFFFFFFFFFFFFFFFFFFFFFFFFFFFFFFFFFFFFF AND SUB PUSH2 0xEC2 JUMPI PUSH0 PUSH1 0x40 MLOAD PUSH32 0x1E4FBDF700000000000000000000000000000000000000000000000000000000 DUP2 MSTORE PUSH1 0x4 ADD PUSH2 0xEB9 SWAP2 SWAP1 PUSH2 0x123D JUMP JUMPDEST PUSH1 0x40 MLOAD DUP1 SWAP2 SUB SWAP1 REVERT JUMPDEST PUSH2 0xECB DUP2 PUSH2 0xF55 JUMP JUMPDEST POP JUMP JUMPDEST PUSH2 0xED6 PUSH2 0x10F1 JUMP JUMPDEST PUSH20 0xFFFFFFFFFFFFFFFFFFFFFFFFFFFFFFFFFFFFFFFF AND PUSH2 0xEF4 PUSH2 0x3EC JUMP JUMPDEST PUSH20 0xFFFFFFFFFFFFFFFFFFFFFFFFFFFFFFFFFFFFFFFF AND EQ PUSH2 0xF53 JUMPI PUSH2 0xF17 PUSH2 0x10F1 JUMP JUMPDEST PUSH1 0x40 MLOAD PUSH32 0x118CDAA700000000000000000000000000000000000000000000000000000000 DUP2 MSTORE PUSH1 0x4 ADD PUSH2 0xF4A SWAP2 SWAP1 PUSH2 0x123D JUMP JUMPDEST PUSH1 0x40 MLOAD DUP1 SWAP2 SUB SWAP1 REVERT JUMPDEST JUMP JUMPDEST PUSH0 DUP1 PUSH0 SWAP1 SLOAD SWAP1 PUSH2 0x100 EXP SWAP1 DIV PUSH20 0xFFFFFFFFFFFFFFFFFFFFFFFFFFFFFFFFFFFFFFFF AND SWAP1 POP DUP2 PUSH0 DUP1 PUSH2 0x100 EXP DUP2 SLOAD DUP2 PUSH20 0xFFFFFFFFFFFFFFFFFFFFFFFFFFFFFFFFFFFFFFFF MUL NOT AND SWAP1 DUP4 PUSH20 0xFFFFFFFFFFFFFFFFFFFFFFFFFFFFFFFFFFFFFFFF AND MUL OR SWAP1 SSTORE POP DUP2 PUSH20 0xFFFFFFFFFFFFFFFFFFFFFFFFFFFFFFFFFFFFFFFF AND DUP2 PUSH20 0xFFFFFFFFFFFFFFFFFFFFFFFFFFFFFFFFFFFFFFFF AND PUSH32 0x8BE0079C531659141344CD1FD0A4F28419497F9722A3DAAFE3B4186F6B6457E0 PUSH1 0x40 MLOAD PUSH1 0x40 MLOAD DUP1 SWAP2 SUB SWAP1 LOG3 POP POP JUMP JUMPDEST PUSH1 0x2 PUSH1 0x1 SLOAD SUB PUSH2 0x105B JUMPI PUSH1 0x40 MLOAD PUSH32 0x8C379A000000000000000000000000000000000000000000000000000000000 DUP2 MSTORE PUSH1 0x4 ADD PUSH2 0x1052 SWAP1 PUSH2 0x2053 JUMP JUMPDEST PUSH1 0x40 MLOAD DUP1 SWAP2 SUB SWAP1 REVERT JUMPDEST PUSH1 0x2 PUSH1 0x1 DUP2 SWAP1 SSTORE POP JUMP JUMPDEST PUSH0 DUP3 PUSH20 0xFFFFFFFFFFFFFFFFFFFFFFFFFFFFFFFFFFFFFFFF AND PUSH4 0xDD62ED3E DUP4 ADDRESS PUSH1 0x40 MLOAD DUP4 PUSH4 0xFFFFFFFF AND PUSH1 0xE0 SHL DUP2 MSTORE PUSH1 0x4 ADD PUSH2 0x10A1 SWAP3 SWAP2 SWAP1 PUSH2 0x2071 JUMP JUMPDEST PUSH1 0x20 PUSH1 0x40 MLOAD DUP1 DUP4 SUB DUP2 DUP7 GAS STATICCALL ISZERO DUP1 ISZERO PUSH2 0x10BC JUMPI RETURNDATASIZE PUSH0 DUP1 RETURNDATACOPY RETURNDATASIZE PUSH0 REVERT JUMPDEST POP POP POP POP PUSH1 0x40 MLOAD RETURNDATASIZE PUSH1 0x1F NOT PUSH1 0x1F DUP3 ADD AND DUP3 ADD DUP1 PUSH1 0x40 MSTORE POP DUP2 ADD SWAP1 PUSH2 0x10E0 SWAP2 SWAP1 PUSH2 0x1594 JUMP JUMPDEST SWAP1 POP SWAP3 SWAP2 POP POP JUMP JUMPDEST PUSH1 0x1 DUP1 DUP2 SWAP1 SSTORE POP JUMP JUMPDEST PUSH0 CALLER SWAP1 POP SWAP1 JUMP JUMPDEST PUSH0 PUSH1 0x40 MLOAD SWAP1 POP SWAP1 JUMP JUMPDEST PUSH0 DUP1 REVERT JUMPDEST PUSH0 DUP1 REVERT JUMPDEST PUSH0 PUSH20 0xFFFFFFFFFFFFFFFFFFFFFFFFFFFFFFFFFFFFFFFF DUP3 AND SWAP1 POP SWAP2 SWAP1 POP JUMP JUMPDEST PUSH0 PUSH2 0x1132 DUP3 PUSH2 0x1109 JUMP JUMPDEST SWAP1 POP SWAP2 SWAP1 POP JUMP JUMPDEST PUSH2 0x1142 DUP2 PUSH2 0x1128 JUMP JUMPDEST DUP2 EQ PUSH2 0x114C JUMPI PUSH0 DUP1 REVERT JUMPDEST POP JUMP JUMPDEST PUSH0 DUP2 CALLDATALOAD SWAP1 POP PUSH2 0x115D DUP2 PUSH2 0x1139 JUMP JUMPDEST SWAP3 SWAP2 POP POP JUMP JUMPDEST PUSH0 DUP1 PUSH1 0x40 DUP4 DUP6 SUB SLT ISZERO PUSH2 0x1179 JUMPI PUSH2 0x1178 PUSH2 0x1101 JUMP JUMPDEST JUMPDEST PUSH0 PUSH2 0x1186 DUP6 DUP3 DUP7 ADD PUSH2 0x114F JUMP JUMPDEST SWAP3 POP POP PUSH1 0x20 PUSH2 0x1197 DUP6 DUP3 DUP7 ADD PUSH2 0x114F JUMP JUMPDEST SWAP2 POP POP SWAP3 POP SWAP3 SWAP1 POP JUMP JUMPDEST PUSH0 DUP2 SWAP1 POP SWAP2 SWAP1 POP JUMP JUMPDEST PUSH2 0x11B3 DUP2 PUSH2 0x11A1 JUMP JUMPDEST DUP3 MSTORE POP POP JUMP JUMPDEST PUSH0 PUSH1 0x20 DUP3 ADD SWAP1 POP PUSH2 0x11CC PUSH0 DUP4 ADD DUP5 PUSH2 0x11AA JUMP JUMPDEST SWAP3 SWAP2 POP POP JUMP JUMPDEST PUSH0 PUSH1 0x20 DUP3 DUP5 SUB SLT ISZERO PUSH2 0x11E7 JUMPI PUSH2 0x11E6 PUSH2 0x1101 JUMP JUMPDEST JUMPDEST PUSH0 PUSH2 0x11F4 DUP5 DUP3 DUP6 ADD PUSH2 0x114F JUMP JUMPDEST SWAP2 POP POP SWAP3 SWAP2 POP POP JUMP JUMPDEST PUSH0 DUP2 SWAP1 POP SWAP2 SWAP1 POP JUMP JUMPDEST PUSH2 0x120F DUP2 PUSH2 0x11FD JUMP JUMPDEST DUP3 MSTORE POP POP JUMP JUMPDEST PUSH0 PUSH1 0x20 DUP3 ADD SWAP1 POP PUSH2 0x1228 PUSH0 DUP4 ADD DUP5 PUSH2 0x1206 JUMP JUMPDEST SWAP3 SWAP2 POP POP JUMP JUMPDEST PUSH2 0x1237 DUP2 PUSH2 0x1128 JUMP JUMPDEST DUP3 MSTORE POP POP JUMP JUMPDEST PUSH0 PUSH1 0x20 DUP3 ADD SWAP1 POP PUSH2 0x1250 PUSH0 DUP4 ADD DUP5 PUSH2 0x122E JUMP JUMPDEST SWAP3 SWAP2 POP POP JUMP JUMPDEST PUSH2 0x125F DUP2 PUSH2 0x11A1 JUMP JUMPDEST DUP2 EQ PUSH2 0x1269 JUMPI PUSH0 DUP1 REVERT JUMPDEST POP JUMP JUMPDEST PUSH0 DUP2 CALLDATALOAD SWAP1 POP PUSH2 0x127A DUP2 PUSH2 0x1256 JUMP JUMPDEST SWAP3 SWAP2 POP POP JUMP JUMPDEST PUSH0 PUSH1 0x20 DUP3 DUP5 SUB SLT ISZERO PUSH2 0x1295 JUMPI PUSH2 0x1294 PUSH2 0x1101 JUMP JUMPDEST JUMPDEST PUSH0 PUSH2 0x12A2 DUP5 DUP3 DUP6 ADD PUSH2 0x126C JUMP JUMPDEST SWAP2 POP POP SWAP3 SWAP2 POP POP JUMP JUMPDEST PUSH2 0x12B4 DUP2 PUSH2 0x11FD JUMP JUMPDEST DUP2 EQ PUSH2 0x12BE JUMPI PUSH0 DUP1 REVERT JUMPDEST POP JUMP JUMPDEST PUSH0 DUP2 CALLDATALOAD SWAP1 POP PUSH2 0x12CF DUP2 PUSH2 0x12AB JUMP JUMPDEST SWAP3 SWAP2 POP POP JUMP JUMPDEST PUSH0 DUP1 PUSH0 PUSH1 0x60 DUP5 DUP7 SUB SLT ISZERO PUSH2 0x12EC JUMPI PUSH2 0x12EB PUSH2 0x1101 JUMP JUMPDEST JUMPDEST PUSH0 PUSH2 0x12F9 DUP7 DUP3 DUP8 ADD PUSH2 0x114F JUMP JUMPDEST SWAP4 POP POP PUSH1 0x20 PUSH2 0x130A DUP7 DUP3 DUP8 ADD PUSH2 0x12C1 JUMP JUMPDEST SWAP3 POP POP PUSH1 0x40 PUSH2 0x131B DUP7 DUP3 DUP8 ADD PUSH2 0x12C1 JUMP JUMPDEST SWAP2 POP POP SWAP3 POP SWAP3 POP SWAP3 JUMP JUMPDEST PUSH0 PUSH1 0x20 DUP3 DUP5 SUB SLT ISZERO PUSH2 0x133A JUMPI PUSH2 0x1339 PUSH2 0x1101 JUMP JUMPDEST JUMPDEST PUSH0 PUSH2 0x1347 DUP5 DUP3 DUP6 ADD PUSH2 0x12C1 JUMP JUMPDEST SWAP2 POP POP SWAP3 SWAP2 POP POP JUMP JUMPDEST PUSH0 DUP2 MLOAD SWAP1 POP SWAP2 SWAP1 POP JUMP JUMPDEST PUSH0 DUP3 DUP3 MSTORE PUSH1 0x20 DUP3 ADD SWAP1 POP SWAP3 SWAP2 POP POP JUMP JUMPDEST DUP3 DUP2 DUP4 MCOPY PUSH0 DUP4 DUP4 ADD MSTORE POP POP POP JUMP JUMPDEST PUSH0 PUSH1 0x1F NOT PUSH1 0x1F DUP4 ADD AND SWAP1 POP SWAP2 SWAP1 POP JUMP JUMPDEST PUSH0 PUSH2 0x1392 DUP3 PUSH2 0x1350 JUMP JUMPDEST PUSH2 0x139C DUP2 DUP6 PUSH2 0x135A JUMP JUMPDEST SWAP4 POP PUSH2 0x13AC DUP2 DUP6 PUSH1 0x20 DUP7 ADD PUSH2 0x136A JUMP JUMPDEST PUSH2 0x13B5 DUP2 PUSH2 0x1378 JUMP JUMPDEST DUP5 ADD SWAP2 POP POP SWAP3 SWAP2 POP POP JUMP JUMPDEST PUSH0 DUP2 ISZERO ISZERO SWAP1 POP SWAP2 SWAP1 POP JUMP JUMPDEST PUSH2 0x13D4 DUP2 PUSH2 0x13C0 JUMP JUMPDEST DUP3 MSTORE POP POP JUMP JUMPDEST PUSH0 PUSH1 0xC0 DUP3 ADD SWAP1 POP PUSH2 0x13ED PUSH0 DUP4 ADD DUP10 PUSH2 0x122E JUMP JUMPDEST PUSH2 0x13FA PUSH1 0x20 DUP4 ADD DUP9 PUSH2 0x122E JUMP JUMPDEST DUP2 DUP2 SUB PUSH1 0x40 DUP4 ADD MSTORE PUSH2 0x140C DUP2 DUP8 PUSH2 0x1388 JUMP JUMPDEST SWAP1 POP PUSH2 0x141B PUSH1 0x60 DUP4 ADD DUP7 PUSH2 0x1206 JUMP JUMPDEST PUSH2 0x1428 PUSH1 0x80 DUP4 ADD DUP6 PUSH2 0x1206 JUMP JUMPDEST PUSH2 0x1435 PUSH1 0xA0 DUP4 ADD DUP5 PUSH2 0x13CB JUMP JUMPDEST SWAP8 SWAP7 POP POP POP POP POP POP POP JUMP JUMPDEST PUSH0 DUP2 PUSH1 0x60 SHL SWAP1 POP SWAP2 SWAP1 POP JUMP JUMPDEST PUSH0 PUSH2 0x1456 DUP3 PUSH2 0x1440 JUMP JUMPDEST SWAP1 POP SWAP2 SWAP1 POP JUMP JUMPDEST PUSH0 PUSH2 0x1467 DUP3 PUSH2 0x144C JUMP JUMPDEST SWAP1 POP SWAP2 SWAP1 POP JUMP JUMPDEST PUSH2 0x147F PUSH2 0x147A DUP3 PUSH2 0x1128 JUMP JUMPDEST PUSH2 0x145D JUMP JUMPDEST DUP3 MSTORE POP POP JUMP JUMPDEST PUSH0 PUSH2 0x1490 DUP3 DUP6 PUSH2 0x146E JUMP JUMPDEST PUSH1 0x14 DUP3 ADD SWAP2 POP PUSH2 0x14A0 DUP3 DUP5 PUSH2 0x146E JUMP JUMPDEST PUSH1 0x14 DUP3 ADD SWAP2 POP DUP2 SWAP1 POP SWAP4 SWAP3 POP POP POP JUMP JUMPDEST PUSH32 0x6F6E6C7920746865206F776E65722063616E2063616E63656C00000000000000 PUSH0 DUP3 ADD MSTORE POP JUMP JUMPDEST PUSH0 PUSH2 0x14E4 PUSH1 0x19 DUP4 PUSH2 0x135A JUMP JUMPDEST SWAP2 POP PUSH2 0x14EF DUP3 PUSH2 0x14B0 JUMP JUMPDEST PUSH1 0x20 DUP3 ADD SWAP1 POP SWAP2 SWAP1 POP JUMP JUMPDEST PUSH0 PUSH1 0x20 DUP3 ADD SWAP1 POP DUP2 DUP2 SUB PUSH0 DUP4 ADD MSTORE PUSH2 0x1511 DUP2 PUSH2 0x14D8 JUMP JUMPDEST SWAP1 POP SWAP2 SWAP1 POP JUMP JUMPDEST PUSH32 0x7468697320746F6B656E206973206E6F74206163746976650000000000000000 PUSH0 DUP3 ADD MSTORE POP JUMP JUMPDEST PUSH0 PUSH2 0x154C PUSH1 0x18 DUP4 PUSH2 0x135A JUMP JUMPDEST SWAP2 POP PUSH2 0x1557 DUP3 PUSH2 0x1518 JUMP JUMPDEST PUSH1 0x20 DUP3 ADD SWAP1 POP SWAP2 SWAP1 POP JUMP JUMPDEST PUSH0 PUSH1 0x20 DUP3 ADD SWAP1 POP DUP2 DUP2 SUB PUSH0 DUP4 ADD MSTORE PUSH2 0x1579 DUP2 PUSH2 0x1540 JUMP JUMPDEST SWAP1 POP SWAP2 SWAP1 POP JUMP JUMPDEST PUSH0 DUP2 MLOAD SWAP1 POP PUSH2 0x158E DUP2 PUSH2 0x12AB JUMP JUMPDEST SWAP3 SWAP2 POP POP JUMP JUMPDEST PUSH0 PUSH1 0x20 DUP3 DUP5 SUB SLT ISZERO PUSH2 0x15A9 JUMPI PUSH2 0x15A8 PUSH2 0x1101 JUMP JUMPDEST JUMPDEST PUSH0 PUSH2 0x15B6 DUP5 DUP3 DUP6 ADD PUSH2 0x1580 JUMP JUMPDEST SWAP2 POP POP SWAP3 SWAP2 POP POP JUMP JUMPDEST PUSH32 0x496E76616C696420746F6B656E00000000000000000000000000000000000000 PUSH0 DUP3 ADD MSTORE POP JUMP JUMPDEST PUSH0 PUSH2 0x15F3 PUSH1 0xD DUP4 PUSH2 0x135A JUMP JUMPDEST SWAP2 POP PUSH2 0x15FE DUP3 PUSH2 0x15BF JUMP JUMPDEST PUSH1 0x20 DUP3 ADD SWAP1 POP SWAP2 SWAP1 POP JUMP JUMPDEST PUSH0 PUSH1 0x20 DUP3 ADD SWAP1 POP DUP2 DUP2 SUB PUSH0 DUP4 ADD MSTORE PUSH2 0x1620 DUP2 PUSH2 0x15E7 JUMP JUMPDEST SWAP1 POP SWAP2 SWAP1 POP JUMP JUMPDEST PUSH32 0x546F6B656E20616D6F756E742063616E206E6F74206265207A65726F00000000 PUSH0 DUP3 ADD MSTORE POP JUMP JUMPDEST PUSH0 PUSH2 0x165B PUSH1 0x1C DUP4 PUSH2 0x135A JUMP JUMPDEST SWAP2 POP PUSH2 0x1666 DUP3 PUSH2 0x1627 JUMP JUMPDEST PUSH1 0x20 DUP3 ADD SWAP1 POP SWAP2 SWAP1 POP JUMP JUMPDEST PUSH0 PUSH1 0x20 DUP3 ADD SWAP1 POP DUP2 DUP2 SUB PUSH0 DUP4 ADD MSTORE PUSH2 0x1688 DUP2 PUSH2 0x164F JUMP JUMPDEST SWAP1 POP SWAP2 SWAP1 POP JUMP JUMPDEST PUSH32 0x546F6B656E2070726963652063616E206E6F74206265207A65726F0000000000 PUSH0 DUP3 ADD MSTORE POP JUMP JUMPDEST PUSH0 PUSH2 0x16C3 PUSH1 0x1B DUP4 PUSH2 0x135A JUMP JUMPDEST SWAP2 POP PUSH2 0x16CE DUP3 PUSH2 0x168F JUMP JUMPDEST PUSH1 0x20 DUP3 ADD SWAP1 POP SWAP2 SWAP1 POP JUMP JUMPDEST PUSH0 PUSH1 0x20 DUP3 ADD SWAP1 POP DUP2 DUP2 SUB PUSH0 DUP4 ADD MSTORE PUSH2 0x16F0 DUP2 PUSH2 0x16B7 JUMP JUMPDEST SWAP1 POP SWAP2 SWAP1 POP JUMP JUMPDEST PUSH32 0x596F75206D75737420617070726F7665207468697320636F6E74726163742074 PUSH0 DUP3 ADD MSTORE PUSH32 0x6F2075736520796F757220746F6B656E73000000000000000000000000000000 PUSH1 0x20 DUP3 ADD MSTORE POP JUMP JUMPDEST PUSH0 PUSH2 0x1751 PUSH1 0x31 DUP4 PUSH2 0x135A JUMP JUMPDEST SWAP2 POP PUSH2 0x175C DUP3 PUSH2 0x16F7 JUMP JUMPDEST PUSH1 0x40 DUP3 ADD SWAP1 POP SWAP2 SWAP1 POP JUMP JUMPDEST PUSH0 PUSH1 0x20 DUP3 ADD SWAP1 POP DUP2 DUP2 SUB PUSH0 DUP4 ADD MSTORE PUSH2 0x177E DUP2 PUSH2 0x1745 JUMP JUMPDEST SWAP1 POP SWAP2 SWAP1 POP JUMP JUMPDEST PUSH32 0x496E73756666696369656E7420746F6B656E7300000000000000000000000000 PUSH0 DUP3 ADD MSTORE POP JUMP JUMPDEST PUSH0 PUSH2 0x17B9 PUSH1 0x13 DUP4 PUSH2 0x135A JUMP JUMPDEST SWAP2 POP PUSH2 0x17C4 DUP3 PUSH2 0x1785 JUMP JUMPDEST PUSH1 0x20 DUP3 ADD SWAP1 POP SWAP2 SWAP1 POP JUMP JUMPDEST PUSH0 PUSH1 0x20 DUP3 ADD SWAP1 POP DUP2 DUP2 SUB PUSH0 DUP4 ADD MSTORE PUSH2 0x17E6 DUP2 PUSH2 0x17AD JUMP JUMPDEST SWAP1 POP SWAP2 SWAP1 POP JUMP JUMPDEST PUSH32 0x4E487B7100000000000000000000000000000000000000000000000000000000 PUSH0 MSTORE PUSH1 0x11 PUSH1 0x4 MSTORE PUSH1 0x24 PUSH0 REVERT JUMPDEST PUSH0 PUSH2 0x1824 DUP3 PUSH2 0x11FD JUMP JUMPDEST SWAP2 POP PUSH2 0x182F DUP4 PUSH2 0x11FD JUMP JUMPDEST SWAP3 POP DUP3 DUP3 MUL PUSH2 0x183D DUP2 PUSH2 0x11FD JUMP JUMPDEST SWAP2 POP DUP3 DUP3 DIV DUP5 EQ DUP4 ISZERO OR PUSH2 0x1854 JUMPI PUSH2 0x1853 PUSH2 0x17ED JUMP JUMPDEST JUMPDEST POP SWAP3 SWAP2 POP POP JUMP JUMPDEST PUSH32 0x4E487B7100000000000000000000000000000000000000000000000000000000 PUSH0 MSTORE PUSH1 0x12 PUSH1 0x4 MSTORE PUSH1 0x24 PUSH0 REVERT JUMPDEST PUSH0 PUSH2 0x1892 DUP3 PUSH2 0x11FD JUMP JUMPDEST SWAP2 POP PUSH2 0x189D DUP4 PUSH2 0x11FD JUMP JUMPDEST SWAP3 POP DUP3 PUSH2 0x18AD JUMPI PUSH2 0x18AC PUSH2 0x185B JUMP JUMPDEST JUMPDEST DUP3 DUP3 DIV SWAP1 POP SWAP3 SWAP2 POP POP JUMP JUMPDEST PUSH0 PUSH2 0x18C2 DUP3 PUSH2 0x11FD JUMP JUMPDEST SWAP2 POP PUSH2 0x18CD DUP4 PUSH2 0x11FD JUMP JUMPDEST SWAP3 POP DUP3 DUP3 SUB SWAP1 POP DUP2 DUP2 GT ISZERO PUSH2 0x18E5 JUMPI PUSH2 0x18E4 PUSH2 0x17ED JUMP JUMPDEST JUMPDEST SWAP3 SWAP2 POP POP JUMP JUMPDEST PUSH0 PUSH1 0x60 DUP3 ADD SWAP1 POP PUSH2 0x18FE PUSH0 DUP4 ADD DUP7 PUSH2 0x122E JUMP JUMPDEST PUSH2 0x190B PUSH1 0x20 DUP4 ADD DUP6 PUSH2 0x122E JUMP JUMPDEST PUSH2 0x1918 PUSH1 0x40 DUP4 ADD DUP5 PUSH2 0x1206 JUMP JUMPDEST SWAP5 SWAP4 POP POP POP POP JUMP JUMPDEST PUSH2 0x1929 DUP2 PUSH2 0x13C0 JUMP JUMPDEST DUP2 EQ PUSH2 0x1933 JUMPI PUSH0 DUP1 REVERT JUMPDEST POP JUMP JUMPDEST PUSH0 DUP2 MLOAD SWAP1 POP PUSH2 0x1944 DUP2 PUSH2 0x1920 JUMP JUMPDEST SWAP3 SWAP2 POP POP JUMP JUMPDEST PUSH0 PUSH1 0x20 DUP3 DUP5 SUB SLT ISZERO PUSH2 0x195F JUMPI PUSH2 0x195E PUSH2 0x1101 JUMP JUMPDEST JUMPDEST PUSH0 PUSH2 0x196C DUP5 DUP3 DUP6 ADD PUSH2 0x1936 JUMP JUMPDEST SWAP2 POP POP SWAP3 SWAP2 POP POP JUMP JUMPDEST PUSH32 0x4572726F72207768696C65207472616E7366657272696E6720746F6B656E7300 PUSH0 DUP3 ADD MSTORE POP JUMP JUMPDEST PUSH0 PUSH2 0x19A9 PUSH1 0x1F DUP4 PUSH2 0x135A JUMP JUMPDEST SWAP2 POP PUSH2 0x19B4 DUP3 PUSH2 0x1975 JUMP JUMPDEST PUSH1 0x20 DUP3 ADD SWAP1 POP SWAP2 SWAP1 POP JUMP JUMPDEST PUSH0 PUSH1 0x20 DUP3 ADD SWAP1 POP DUP2 DUP2 SUB PUSH0 DUP4 ADD MSTORE PUSH2 0x19D6 DUP2 PUSH2 0x199D JUMP JUMPDEST SWAP1 POP SWAP2 SWAP1 POP JUMP JUMPDEST PUSH0 DUP1 REVERT JUMPDEST PUSH0 DUP1 REVERT JUMPDEST PUSH32 0x4E487B7100000000000000000000000000000000000000000000000000000000 PUSH0 MSTORE PUSH1 0x41 PUSH1 0x4 MSTORE PUSH1 0x24 PUSH0 REVERT JUMPDEST PUSH2 0x1A1B DUP3 PUSH2 0x1378 JUMP JUMPDEST DUP2 ADD DUP2 DUP2 LT PUSH8 0xFFFFFFFFFFFFFFFF DUP3 GT OR ISZERO PUSH2 0x1A3A JUMPI PUSH2 0x1A39 PUSH2 0x19E5 JUMP JUMPDEST JUMPDEST DUP1 PUSH1 0x40 MSTORE POP POP POP JUMP JUMPDEST PUSH0 PUSH2 0x1A4C PUSH2 0x10F8 JUMP JUMPDEST SWAP1 POP PUSH2 0x1A58 DUP3 DUP3 PUSH2 0x1A12 JUMP JUMPDEST SWAP2 SWAP1 POP JUMP JUMPDEST PUSH0 PUSH8 0xFFFFFFFFFFFFFFFF DUP3 GT ISZERO PUSH2 0x1A77 JUMPI PUSH2 0x1A76 PUSH2 0x19E5 JUMP JUMPDEST JUMPDEST PUSH2 0x1A80 DUP3 PUSH2 0x1378 JUMP JUMPDEST SWAP1 POP PUSH1 0x20 DUP2 ADD SWAP1 POP SWAP2 SWAP1 POP JUMP JUMPDEST PUSH0 PUSH2 0x1A9F PUSH2 0x1A9A DUP5 PUSH2 0x1A5D JUMP JUMPDEST PUSH2 0x1A43 JUMP JUMPDEST SWAP1 POP DUP3 DUP2 MSTORE PUSH1 0x20 DUP2 ADD DUP5 DUP5 DUP5 ADD GT ISZERO PUSH2 0x1ABB JUMPI PUSH2 0x1ABA PUSH2 0x19E1 JUMP JUMPDEST JUMPDEST PUSH2 0x1AC6 DUP5 DUP3 DUP6 PUSH2 0x136A JUMP JUMPDEST POP SWAP4 SWAP3 POP POP POP JUMP JUMPDEST PUSH0 DUP3 PUSH1 0x1F DUP4 ADD SLT PUSH2 0x1AE2 JUMPI PUSH2 0x1AE1 PUSH2 0x19DD JUMP JUMPDEST JUMPDEST DUP2 MLOAD PUSH2 0x1AF2 DUP5 DUP3 PUSH1 0x20 DUP7 ADD PUSH2 0x1A8D JUMP JUMPDEST SWAP2 POP POP SWAP3 SWAP2 POP POP JUMP JUMPDEST PUSH0 PUSH1 0x20 DUP3 DUP5 SUB SLT ISZERO PUSH2 0x1B10 JUMPI PUSH2 0x1B0F PUSH2 0x1101 JUMP JUMPDEST JUMPDEST PUSH0 DUP3 ADD MLOAD PUSH8 0xFFFFFFFFFFFFFFFF DUP2 GT ISZERO PUSH2 0x1B2D JUMPI PUSH2 0x1B2C PUSH2 0x1105 JUMP JUMPDEST JUMPDEST PUSH2 0x1B39 DUP5 DUP3 DUP6 ADD PUSH2 0x1ACE JUMP JUMPDEST SWAP2 POP POP SWAP3 SWAP2 POP POP JUMP JUMPDEST PUSH32 0x4E487B7100000000000000000000000000000000000000000000000000000000 PUSH0 MSTORE PUSH1 0x22 PUSH1 0x4 MSTORE PUSH1 0x24 PUSH0 REVERT JUMPDEST PUSH0 PUSH1 0x2 DUP3 DIV SWAP1 POP PUSH1 0x1 DUP3 AND DUP1 PUSH2 0x1B86 JUMPI PUSH1 0x7F DUP3 AND SWAP2 POP JUMPDEST PUSH1 0x20 DUP3 LT DUP2 SUB PUSH2 0x1B99 JUMPI PUSH2 0x1B98 PUSH2 0x1B42 JUMP JUMPDEST JUMPDEST POP SWAP2 SWAP1 POP JUMP JUMPDEST PUSH0 DUP2 SWAP1 POP DUP2 PUSH0 MSTORE PUSH1 0x20 PUSH0 KECCAK256 SWAP1 POP SWAP2 SWAP1 POP JUMP JUMPDEST PUSH0 PUSH1 0x20 PUSH1 0x1F DUP4 ADD DIV SWAP1 POP SWAP2 SWAP1 POP JUMP JUMPDEST PUSH0 DUP3 DUP3 SHL SWAP1 POP SWAP3 SWAP2 POP POP JUMP JUMPDEST PUSH0 PUSH1 0x8 DUP4 MUL PUSH2 0x1BFB PUSH32 0xFFFFFFFFFFFFFFFFFFFFFFFFFFFFFFFFFFFFFFFFFFFFFFFFFFFFFFFFFFFFFFFF DUP3 PUSH2 0x1BC0 JUMP JUMPDEST PUSH2 0x1C05 DUP7 DUP4 PUSH2 0x1BC0 JUMP JUMPDEST SWAP6 POP DUP1 NOT DUP5 AND SWAP4 POP DUP1 DUP7 AND DUP5 OR SWAP3 POP POP POP SWAP4 SWAP3 POP POP POP JUMP JUMPDEST PUSH0 DUP2 SWAP1 POP SWAP2 SWAP1 POP JUMP JUMPDEST PUSH0 PUSH2 0x1C40 PUSH2 0x1C3B PUSH2 0x1C36 DUP5 PUSH2 0x11FD JUMP JUMPDEST PUSH2 0x1C1D JUMP JUMPDEST PUSH2 0x11FD JUMP JUMPDEST SWAP1 POP SWAP2 SWAP1 POP JUMP JUMPDEST PUSH0 DUP2 SWAP1 POP SWAP2 SWAP1 POP JUMP JUMPDEST PUSH2 0x1C59 DUP4 PUSH2 0x1C26 JUMP JUMPDEST PUSH2 0x1C6D PUSH2 0x1C65 DUP3 PUSH2 0x1C47 JUMP JUMPDEST DUP5 DUP5 SLOAD PUSH2 0x1BCC JUMP JUMPDEST DUP3 SSTORE POP POP POP POP JUMP JUMPDEST PUSH0 SWAP1 JUMP JUMPDEST PUSH2 0x1C81 PUSH2 0x1C75 JUMP JUMPDEST PUSH2 0x1C8C DUP2 DUP5 DUP5 PUSH2 0x1C50 JUMP JUMPDEST POP POP POP JUMP JUMPDEST JUMPDEST DUP2 DUP2 LT ISZERO PUSH2 0x1CAF JUMPI PUSH2 0x1CA4 PUSH0 DUP3 PUSH2 0x1C79 JUMP JUMPDEST PUSH1 0x1 DUP2 ADD SWAP1 POP PUSH2 0x1C92 JUMP JUMPDEST POP POP JUMP JUMPDEST PUSH1 0x1F DUP3 GT ISZERO PUSH2 0x1CF4 JUMPI PUSH2 0x1CC5 DUP2 PUSH2 0x1B9F JUMP JUMPDEST PUSH2 0x1CCE DUP5 PUSH2 0x1BB1 JUMP JUMPDEST DUP2 ADD PUSH1 0x20 DUP6 LT ISZERO PUSH2 0x1CDD JUMPI DUP2 SWAP1 POP JUMPDEST PUSH2 0x1CF1 PUSH2 0x1CE9 DUP6 PUSH2 0x1BB1 JUMP JUMPDEST DUP4 ADD DUP3 PUSH2 0x1C91 JUMP JUMPDEST POP POP JUMPDEST POP POP POP JUMP JUMPDEST PUSH0 DUP3 DUP3 SHR SWAP1 POP SWAP3 SWAP2 POP POP JUMP JUMPDEST PUSH0 PUSH2 0x1D14 PUSH0 NOT DUP5 PUSH1 0x8 MUL PUSH2 0x1CF9 JUMP JUMPDEST NOT DUP1 DUP4 AND SWAP2 POP POP SWAP3 SWAP2 POP POP JUMP JUMPDEST PUSH0 PUSH2 0x1D2C DUP4 DUP4 PUSH2 0x1D05 JUMP JUMPDEST SWAP2 POP DUP3 PUSH1 0x2 MUL DUP3 OR SWAP1 POP SWAP3 SWAP2 POP POP JUMP JUMPDEST PUSH2 0x1D45 DUP3 PUSH2 0x1350 JUMP JUMPDEST PUSH8 0xFFFFFFFFFFFFFFFF DUP2 GT ISZERO PUSH2 0x1D5E JUMPI PUSH2 0x1D5D PUSH2 0x19E5 JUMP JUMPDEST JUMPDEST PUSH2 0x1D68 DUP3 SLOAD PUSH2 0x1B6F JUMP JUMPDEST PUSH2 0x1D73 DUP3 DUP3 DUP6 PUSH2 0x1CB3 JUMP JUMPDEST PUSH0 PUSH1 0x20 SWAP1 POP PUSH1 0x1F DUP4 GT PUSH1 0x1 DUP2 EQ PUSH2 0x1DA4 JUMPI PUSH0 DUP5 ISZERO PUSH2 0x1D92 JUMPI DUP3 DUP8 ADD MLOAD SWAP1 POP JUMPDEST PUSH2 0x1D9C DUP6 DUP3 PUSH2 0x1D21 JUMP JUMPDEST DUP7 SSTORE POP PUSH2 0x1E03 JUMP JUMPDEST PUSH1 0x1F NOT DUP5 AND PUSH2 0x1DB2 DUP7 PUSH2 0x1B9F JUMP JUMPDEST PUSH0 JUMPDEST DUP3 DUP2 LT ISZERO PUSH2 0x1DD9 JUMPI DUP5 DUP10 ADD MLOAD DUP3 SSTORE PUSH1 0x1 DUP3 ADD SWAP2 POP PUSH1 0x20 DUP6 ADD SWAP5 POP PUSH1 0x20 DUP2 ADD SWAP1 POP PUSH2 0x1DB4 JUMP JUMPDEST DUP7 DUP4 LT ISZERO PUSH2 0x1DF6 JUMPI DUP5 DUP10 ADD MLOAD PUSH2 0x1DF2 PUSH1 0x1F DUP10 AND DUP3 PUSH2 0x1D05 JUMP JUMPDEST DUP4 SSTORE POP JUMPDEST PUSH1 0x1 PUSH1 0x2 DUP9 MUL ADD DUP9 SSTORE POP POP POP JUMPDEST POP POP POP POP POP POP JUMP JUMPDEST PUSH32 0x4572726F72207768696C65207472616E7366657272696E67206C697374696E69 PUSH0 DUP3 ADD MSTORE PUSH32 0x6E67206665650000000000000000000000000000000000000000000000000000 PUSH1 0x20 DUP3 ADD MSTORE POP JUMP JUMPDEST PUSH0 PUSH2 0x1E65 PUSH1 0x26 DUP4 PUSH2 0x135A JUMP JUMPDEST SWAP2 POP PUSH2 0x1E70 DUP3 PUSH2 0x1E0B JUMP JUMPDEST PUSH1 0x40 DUP3 ADD SWAP1 POP SWAP2 SWAP1 POP JUMP JUMPDEST PUSH0 PUSH1 0x20 DUP3 ADD SWAP1 POP DUP2 DUP2 SUB PUSH0 DUP4 ADD MSTORE PUSH2 0x1E92 DUP2 PUSH2 0x1E59 JUMP JUMPDEST SWAP1 POP SWAP2 SWAP1 POP JUMP JUMPDEST PUSH0 PUSH2 0x1EA3 DUP3 PUSH2 0x11FD JUMP JUMPDEST SWAP2 POP PUSH32 0xFFFFFFFFFFFFFFFFFFFFFFFFFFFFFFFFFFFFFFFFFFFFFFFFFFFFFFFFFFFFFFFF DUP3 SUB PUSH2 0x1ED5 JUMPI PUSH2 0x1ED4 PUSH2 0x17ED JUMP JUMPDEST JUMPDEST PUSH1 0x1 DUP3 ADD SWAP1 POP SWAP2 SWAP1 POP JUMP JUMPDEST PUSH32 0x7468697320746F6B656E206973206E6F74206163746976653A2020706C656173 PUSH0 DUP3 ADD MSTORE PUSH32 0x6520726561637469766174652069740000000000000000000000000000000000 PUSH1 0x20 DUP3 ADD MSTORE POP JUMP JUMPDEST PUSH0 PUSH2 0x1F3A PUSH1 0x2F DUP4 PUSH2 0x135A JUMP JUMPDEST SWAP2 POP PUSH2 0x1F45 DUP3 PUSH2 0x1EE0 JUMP JUMPDEST PUSH1 0x40 DUP3 ADD SWAP1 POP SWAP2 SWAP1 POP JUMP JUMPDEST PUSH0 PUSH1 0x20 DUP3 ADD SWAP1 POP DUP2 DUP2 SUB PUSH0 DUP4 ADD MSTORE PUSH2 0x1F67 DUP2 PUSH2 0x1F2E JUMP JUMPDEST SWAP1 POP SWAP2 SWAP1 POP JUMP JUMPDEST PUSH0 PUSH2 0x1F78 DUP3 PUSH2 0x11FD JUMP JUMPDEST SWAP2 POP PUSH2 0x1F83 DUP4 PUSH2 0x11FD JUMP JUMPDEST SWAP3 POP DUP3 DUP3 ADD SWAP1 POP DUP1 DUP3 GT ISZERO PUSH2 0x1F9B JUMPI PUSH2 0x1F9A PUSH2 0x17ED JUMP JUMPDEST JUMPDEST SWAP3 SWAP2 POP POP JUMP JUMPDEST PUSH32 0x7468697320746F6B656E20697320616C7265616479206163746976652E000000 PUSH0 DUP3 ADD MSTORE POP JUMP JUMPDEST PUSH0 PUSH2 0x1FD5 PUSH1 0x1D DUP4 PUSH2 0x135A JUMP JUMPDEST SWAP2 POP PUSH2 0x1FE0 DUP3 PUSH2 0x1FA1 JUMP JUMPDEST PUSH1 0x20 DUP3 ADD SWAP1 POP SWAP2 SWAP1 POP JUMP JUMPDEST PUSH0 PUSH1 0x20 DUP3 ADD SWAP1 POP DUP2 DUP2 SUB PUSH0 DUP4 ADD MSTORE PUSH2 0x2002 DUP2 PUSH2 0x1FC9 JUMP JUMPDEST SWAP1 POP SWAP2 SWAP1 POP JUMP JUMPDEST PUSH32 0x5265656E7472616E637947756172643A207265656E7472616E742063616C6C00 PUSH0 DUP3 ADD MSTORE POP JUMP JUMPDEST PUSH0 PUSH2 0x203D PUSH1 0x1F DUP4 PUSH2 0x135A JUMP JUMPDEST SWAP2 POP PUSH2 0x2048 DUP3 PUSH2 0x2009 JUMP JUMPDEST PUSH1 0x20 DUP3 ADD SWAP1 POP SWAP2 SWAP1 POP JUMP JUMPDEST PUSH0 PUSH1 0x20 DUP3 ADD SWAP1 POP DUP2 DUP2 SUB PUSH0 DUP4 ADD MSTORE PUSH2 0x206A DUP2 PUSH2 0x2031 JUMP JUMPDEST SWAP1 POP SWAP2 SWAP1 POP JUMP JUMPDEST PUSH0 PUSH1 0x40 DUP3 ADD SWAP1 POP PUSH2 0x2084 PUSH0 DUP4 ADD DUP6 PUSH2 0x122E JUMP JUMPDEST PUSH2 0x2091 PUSH1 0x20 DUP4 ADD DUP5 PUSH2 0x122E JUMP JUMPDEST SWAP4 SWAP3 POP POP POP JUMP INVALID LOG2 PUSH5 0x6970667358 0x22 SLT KECCAK256 0xD2 ADD 0xAF PUSH1 0x15 COINBASE 0x1F PUSH23 0xF5DE4A65C94D45298E3318FAA445F6F6B593D3E1FA97A8 SSTORE PUSH5 0x736F6C6343 STOP ADDMOD BYTE STOP CALLER "
				},
				"gasEstimates": {
					"creation": {
						"codeDepositCost": "1679600",
						"executionCost": "infinite",
						"totalCost": "infinite"
					},
					"external": {
						"_generatekeyId(address,address)": "infinite",
						"cancelListing(address)": "infinite",
						"creatListing(address,uint256,uint256)": "infinite",
						"feeCollector()": "2530",
						"feePercent()": "2492",
						"listingKey(bytes32)": "2754",
						"listings(uint256)": "infinite",
						"owner()": "2604",
						"reactivateListing(address)": "infinite",
						"renounceOwnership()": "infinite",
						"tokenBalanceByAddress(address,address)": "infinite",
						"transferOwnership(address)": "infinite"
					},
					"internal": {
						"chekApproveAllowance(address,address)": "infinite"
					}
				},
				"methodIdentifiers": {
					"_generatekeyId(address,address)": "37d9681d",
					"cancelListing(address)": "4724da6f",
					"creatListing(address,uint256,uint256)": "c661aea6",
					"feeCollector()": "c415b95c",
					"feePercent()": "7fd6f15c",
					"listingKey(bytes32)": "ade9fbc6",
					"listings(uint256)": "de74e57b",
					"owner()": "8da5cb5b",
					"reactivateListing(address)": "df5b7d63",
					"renounceOwnership()": "715018a6",
					"tokenBalanceByAddress(address,address)": "920811fc",
					"transferOwnership(address)": "f2fde38b"
				}
			},
			"storageLayout": {
				"storage": [
					{
						"astId": 8,
						"contract": "MarketPlace/sells.sol:TokenMarketPlace",
						"label": "_owner",
						"offset": 0,
						"slot": "0",
						"type": "t_address"
					},
					{
						"astId": 158,
						"contract": "MarketPlace/sells.sol:TokenMarketPlace",
						"label": "_status",
						"offset": 0,
						"slot": "1",
						"type": "t_uint256"
					},
					{
						"astId": 358,
						"contract": "MarketPlace/sells.sol:TokenMarketPlace",
						"label": "feePercent",
						"offset": 0,
						"slot": "2",
						"type": "t_uint256"
					},
					{
						"astId": 360,
						"contract": "MarketPlace/sells.sol:TokenMarketPlace",
						"label": "feeCollector",
						"offset": 0,
						"slot": "3",
						"type": "t_address"
					},
					{
						"astId": 378,
						"contract": "MarketPlace/sells.sol:TokenMarketPlace",
						"label": "listings",
						"offset": 0,
						"slot": "4",
						"type": "t_mapping(t_uint256,t_struct(Listing)373_storage)"
					},
					{
						"astId": 382,
						"contract": "MarketPlace/sells.sol:TokenMarketPlace",
						"label": "listingKey",
						"offset": 0,
						"slot": "5",
						"type": "t_mapping(t_bytes32,t_uint256)"
					},
					{
						"astId": 385,
						"contract": "MarketPlace/sells.sol:TokenMarketPlace",
						"label": "nextListingId",
						"offset": 0,
						"slot": "6",
						"type": "t_uint256"
					}
				],
				"types": {
					"t_address": {
						"encoding": "inplace",
						"label": "address",
						"numberOfBytes": "20"
					},
					"t_bool": {
						"encoding": "inplace",
						"label": "bool",
						"numberOfBytes": "1"
					},
					"t_bytes32": {
						"encoding": "inplace",
						"label": "bytes32",
						"numberOfBytes": "32"
					},
					"t_mapping(t_bytes32,t_uint256)": {
						"encoding": "mapping",
						"key": "t_bytes32",
						"label": "mapping(bytes32 => uint256)",
						"numberOfBytes": "32",
						"value": "t_uint256"
					},
					"t_mapping(t_uint256,t_struct(Listing)373_storage)": {
						"encoding": "mapping",
						"key": "t_uint256",
						"label": "mapping(uint256 => struct TokenMarketPlace.Listing)",
						"numberOfBytes": "32",
						"value": "t_struct(Listing)373_storage"
					},
					"t_string_storage": {
						"encoding": "bytes",
						"label": "string",
						"numberOfBytes": "32"
					},
					"t_struct(Listing)373_storage": {
						"encoding": "inplace",
						"label": "struct TokenMarketPlace.Listing",
						"members": [
							{
								"astId": 362,
								"contract": "MarketPlace/sells.sol:TokenMarketPlace",
								"label": "seller",
								"offset": 0,
								"slot": "0",
								"type": "t_address"
							},
							{
								"astId": 364,
								"contract": "MarketPlace/sells.sol:TokenMarketPlace",
								"label": "tokenAddress",
								"offset": 0,
								"slot": "1",
								"type": "t_address"
							},
							{
								"astId": 366,
								"contract": "MarketPlace/sells.sol:TokenMarketPlace",
								"label": "tokenName",
								"offset": 0,
								"slot": "2",
								"type": "t_string_storage"
							},
							{
								"astId": 368,
								"contract": "MarketPlace/sells.sol:TokenMarketPlace",
								"label": "amount",
								"offset": 0,
								"slot": "3",
								"type": "t_uint256"
							},
							{
								"astId": 370,
								"contract": "MarketPlace/sells.sol:TokenMarketPlace",
								"label": "pricePerToken",
								"offset": 0,
								"slot": "4",
								"type": "t_uint256"
							},
							{
								"astId": 372,
								"contract": "MarketPlace/sells.sol:TokenMarketPlace",
								"label": "active",
								"offset": 0,
								"slot": "5",
								"type": "t_bool"
							}
						],
						"numberOfBytes": "192"
					},
					"t_uint256": {
						"encoding": "inplace",
						"label": "uint256",
						"numberOfBytes": "32"
					}
				}
			},
			"userdoc": {
				"kind": "user",
				"methods": {},
				"version": 1
			}
		}
	}
}