{
	"MarketPlace/sells.sol": {
		"TokenMarketPlace": {
			"abi": [
				{
					"inputs": [
						{
							"internalType": "uint256",
							"name": "_feePercentage",
							"type": "uint256"
						},
						{
							"internalType": "address",
							"name": "_feeCollector",
							"type": "address"
						}
					],
					"stateMutability": "nonpayable",
					"type": "constructor"
				},
				{
					"inputs": [
						{
							"internalType": "address",
							"name": "owner",
							"type": "address"
						}
					],
					"name": "OwnableInvalidOwner",
					"type": "error"
				},
				{
					"inputs": [
						{
							"internalType": "address",
							"name": "account",
							"type": "address"
						}
					],
					"name": "OwnableUnauthorizedAccount",
					"type": "error"
				},
				{
					"anonymous": false,
					"inputs": [
						{
							"indexed": true,
							"internalType": "address",
							"name": "previousOwner",
							"type": "address"
						},
						{
							"indexed": true,
							"internalType": "address",
							"name": "newOwner",
							"type": "address"
						}
					],
					"name": "OwnershipTransferred",
					"type": "event"
				},
				{
					"anonymous": false,
					"inputs": [
						{
							"indexed": true,
							"internalType": "uint256",
							"name": "listingId",
							"type": "uint256"
						},
						{
							"indexed": false,
							"internalType": "address",
							"name": "seller",
							"type": "address"
						},
						{
							"indexed": false,
							"internalType": "address",
							"name": "tokenAddress",
							"type": "address"
						},
						{
							"indexed": false,
							"internalType": "uint256",
							"name": "amount",
							"type": "uint256"
						},
						{
							"indexed": false,
							"internalType": "uint256",
							"name": "pricePerToken",
							"type": "uint256"
						}
					],
					"name": "TokenListed",
					"type": "event"
				},
				{
					"inputs": [
						{
							"internalType": "address",
							"name": "_tokenAddress",
							"type": "address"
						},
						{
							"internalType": "uint256",
							"name": "_amount",
							"type": "uint256"
						},
						{
							"internalType": "uint256",
							"name": "_pricePerToken",
							"type": "uint256"
						}
					],
					"name": "creatListing",
					"outputs": [],
					"stateMutability": "nonpayable",
					"type": "function"
				},
				{
					"inputs": [],
					"name": "feeCollector",
					"outputs": [
						{
							"internalType": "address",
							"name": "",
							"type": "address"
						}
					],
					"stateMutability": "view",
					"type": "function"
				},
				{
					"inputs": [],
					"name": "feePercent",
					"outputs": [
						{
							"internalType": "uint256",
							"name": "",
							"type": "uint256"
						}
					],
					"stateMutability": "view",
					"type": "function"
				},
				{
					"inputs": [
						{
							"internalType": "bytes32",
							"name": "",
							"type": "bytes32"
						}
					],
					"name": "listingKey",
					"outputs": [
						{
							"internalType": "uint256",
							"name": "",
							"type": "uint256"
						}
					],
					"stateMutability": "view",
					"type": "function"
				},
				{
					"inputs": [
						{
							"internalType": "uint256",
							"name": "",
							"type": "uint256"
						}
					],
					"name": "listings",
					"outputs": [
						{
							"internalType": "address",
							"name": "seller",
							"type": "address"
						},
						{
							"internalType": "address",
							"name": "tokenAddress",
							"type": "address"
						},
						{
							"internalType": "string",
							"name": "tokenName",
							"type": "string"
						},
						{
							"internalType": "uint256",
							"name": "amount",
							"type": "uint256"
						},
						{
							"internalType": "uint256",
							"name": "pricePerToken",
							"type": "uint256"
						},
						{
							"internalType": "bool",
							"name": "active",
							"type": "bool"
						}
					],
					"stateMutability": "view",
					"type": "function"
				},
				{
					"inputs": [],
					"name": "owner",
					"outputs": [
						{
							"internalType": "address",
							"name": "",
							"type": "address"
						}
					],
					"stateMutability": "view",
					"type": "function"
				},
				{
					"inputs": [],
					"name": "renounceOwnership",
					"outputs": [],
					"stateMutability": "nonpayable",
					"type": "function"
				},
				{
					"inputs": [
						{
							"internalType": "address",
							"name": "newOwner",
							"type": "address"
						}
					],
					"name": "transferOwnership",
					"outputs": [],
					"stateMutability": "nonpayable",
					"type": "function"
				}
			],
			"devdoc": {
				"errors": {
					"OwnableInvalidOwner(address)": [
						{
							"details": "The owner is not a valid owner account. (eg. `address(0)`)"
						}
					],
					"OwnableUnauthorizedAccount(address)": [
						{
							"details": "The caller account is not authorized to perform an operation."
						}
					]
				},
				"kind": "dev",
				"methods": {
					"owner()": {
						"details": "Returns the address of the current owner."
					},
					"renounceOwnership()": {
						"details": "Leaves the contract without owner. It will not be possible to call `onlyOwner` functions. Can only be called by the current owner. NOTE: Renouncing ownership will leave the contract without an owner, thereby disabling any functionality that is only available to the owner."
					},
					"transferOwnership(address)": {
						"details": "Transfers ownership of the contract to a new account (`newOwner`). Can only be called by the current owner."
					}
				},
				"version": 1
			},
			"evm": {
				"assembly": "    /* \"MarketPlace/sells.sol\":308:3990  contract TokenMarketPlace is Ownable, ReentrancyGuard {... */\n  mstore(0x40, 0x80)\n    /* \"MarketPlace/sells.sol\":906:907  1 */\n  0x01\n    /* \"MarketPlace/sells.sol\":882:907  uint256 nextListingId = 1 */\n  0x06\n  sstore\n    /* \"MarketPlace/sells.sol\":1107:1428  constructor(uint256 _feePercentage, address _feeCollector)... */\n  callvalue\n  dup1\n  iszero\n  tag_1\n  jumpi\n  0x00\n  dup1\n  revert\ntag_1:\n  pop\n  mload(0x40)\n  sub(codesize, bytecodeSize)\n  dup1\n  bytecodeSize\n  dup4\n  codecopy\n  dup2\n  dup2\n  add\n  0x40\n  mstore\n  dup2\n  add\n  swap1\n  tag_2\n  swap2\n  swap1\n  tag_3\n  jump\t// in\ntag_2:\n    /* \"MarketPlace/sells.sol\":1182:1192  msg.sender */\n  caller\n    /* \"@openzeppelin/contracts/access/Ownable.sol\":1297:1298  0 */\n  0x00\n    /* \"@openzeppelin/contracts/access/Ownable.sol\":1273:1299  initialOwner == address(0) */\n  0xffffffffffffffffffffffffffffffffffffffff\n  and\n    /* \"@openzeppelin/contracts/access/Ownable.sol\":1273:1285  initialOwner */\n  dup2\n    /* \"@openzeppelin/contracts/access/Ownable.sol\":1273:1299  initialOwner == address(0) */\n  0xffffffffffffffffffffffffffffffffffffffff\n  and\n  sub\n    /* \"@openzeppelin/contracts/access/Ownable.sol\":1269:1364  if (initialOwner == address(0)) {... */\n  tag_8\n  jumpi\n    /* \"@openzeppelin/contracts/access/Ownable.sol\":1350:1351  0 */\n  0x00\n    /* \"@openzeppelin/contracts/access/Ownable.sol\":1322:1353  OwnableInvalidOwner(address(0)) */\n  mload(0x40)\n  0x1e4fbdf700000000000000000000000000000000000000000000000000000000\n  dup2\n  mstore\n  0x04\n  add\n  tag_9\n  swap2\n  swap1\n  tag_10\n  jump\t// in\ntag_9:\n  mload(0x40)\n  dup1\n  swap2\n  sub\n  swap1\n  revert\n    /* \"@openzeppelin/contracts/access/Ownable.sol\":1269:1364  if (initialOwner == address(0)) {... */\ntag_8:\n    /* \"@openzeppelin/contracts/access/Ownable.sol\":1373:1405  _transferOwnership(initialOwner) */\n  tag_11\n    /* \"@openzeppelin/contracts/access/Ownable.sol\":1392:1404  initialOwner */\n  dup2\n    /* \"@openzeppelin/contracts/access/Ownable.sol\":1373:1391  _transferOwnership */\n  shl(0x20, tag_12)\n    /* \"@openzeppelin/contracts/access/Ownable.sol\":1373:1405  _transferOwnership(initialOwner) */\n  0x20\n  shr\n  jump\t// in\ntag_11:\n    /* \"@openzeppelin/contracts/access/Ownable.sol\":1225:1412  constructor(address initialOwner) {... */\n  pop\n    /* \"@openzeppelin/contracts/security/ReentrancyGuard.sol\":1716:1717  1 */\n  0x01\n    /* \"@openzeppelin/contracts/security/ReentrancyGuard.sol\":1821:1828  _status */\n  dup1\n    /* \"@openzeppelin/contracts/security/ReentrancyGuard.sol\":1821:1843  _status = _NOT_ENTERED */\n  dup2\n  swap1\n  sstore\n  pop\n    /* \"MarketPlace/sells.sol\":1234:1238  1000 */\n  0x03e8\n    /* \"MarketPlace/sells.sol\":1216:1230  _feePercentage */\n  dup3\n    /* \"MarketPlace/sells.sol\":1216:1238  _feePercentage <= 1000 */\n  gt\n  iszero\n    /* \"MarketPlace/sells.sol\":1208:1266  require(_feePercentage <= 1000, \"Fee must not exceed 10%\") */\n  tag_15\n  jumpi\n  mload(0x40)\n  0x08c379a000000000000000000000000000000000000000000000000000000000\n  dup2\n  mstore\n  0x04\n  add\n  tag_16\n  swap1\n  tag_17\n  jump\t// in\ntag_16:\n  mload(0x40)\n  dup1\n  swap2\n  sub\n  swap1\n  revert\ntag_15:\n    /* \"MarketPlace/sells.sol\":1309:1310  0 */\n  0x00\n    /* \"MarketPlace/sells.sol\":1284:1311  _feeCollector != address(0) */\n  0xffffffffffffffffffffffffffffffffffffffff\n  and\n    /* \"MarketPlace/sells.sol\":1284:1297  _feeCollector */\n  dup2\n    /* \"MarketPlace/sells.sol\":1284:1311  _feeCollector != address(0) */\n  0xffffffffffffffffffffffffffffffffffffffff\n  and\n  sub\n    /* \"MarketPlace/sells.sol\":1276:1345  require(_feeCollector != address(0), \"Invalid fee recipient address\") */\n  tag_18\n  jumpi\n  mload(0x40)\n  0x08c379a000000000000000000000000000000000000000000000000000000000\n  dup2\n  mstore\n  0x04\n  add\n  tag_19\n  swap1\n  tag_20\n  jump\t// in\ntag_19:\n  mload(0x40)\n  dup1\n  swap2\n  sub\n  swap1\n  revert\ntag_18:\n    /* \"MarketPlace/sells.sol\":1369:1383  _feePercentage */\n  dup2\n    /* \"MarketPlace/sells.sol\":1356:1366  feePercent */\n  0x02\n    /* \"MarketPlace/sells.sol\":1356:1383  feePercent = _feePercentage */\n  dup2\n  swap1\n  sstore\n  pop\n    /* \"MarketPlace/sells.sol\":1408:1421  _feeCollector */\n  dup1\n    /* \"MarketPlace/sells.sol\":1393:1405  feeCollector */\n  0x03\n  0x00\n    /* \"MarketPlace/sells.sol\":1393:1421  feeCollector = _feeCollector */\n  0x0100\n  exp\n  dup2\n  sload\n  dup2\n  0xffffffffffffffffffffffffffffffffffffffff\n  mul\n  not\n  and\n  swap1\n  dup4\n  0xffffffffffffffffffffffffffffffffffffffff\n  and\n  mul\n  or\n  swap1\n  sstore\n  pop\n    /* \"MarketPlace/sells.sol\":1107:1428  constructor(uint256 _feePercentage, address _feeCollector)... */\n  pop\n  pop\n    /* \"MarketPlace/sells.sol\":308:3990  contract TokenMarketPlace is Ownable, ReentrancyGuard {... */\n  jump(tag_21)\n    /* \"@openzeppelin/contracts/access/Ownable.sol\":2912:3099  function _transferOwnership(address newOwner) internal virtual {... */\ntag_12:\n    /* \"@openzeppelin/contracts/access/Ownable.sol\":2985:3001  address oldOwner */\n  0x00\n    /* \"@openzeppelin/contracts/access/Ownable.sol\":3004:3010  _owner */\n  dup1\n  0x00\n  swap1\n  sload\n  swap1\n  0x0100\n  exp\n  swap1\n  div\n  0xffffffffffffffffffffffffffffffffffffffff\n  and\n    /* \"@openzeppelin/contracts/access/Ownable.sol\":2985:3010  address oldOwner = _owner */\n  swap1\n  pop\n    /* \"@openzeppelin/contracts/access/Ownable.sol\":3029:3037  newOwner */\n  dup2\n    /* \"@openzeppelin/contracts/access/Ownable.sol\":3020:3026  _owner */\n  0x00\n  dup1\n    /* \"@openzeppelin/contracts/access/Ownable.sol\":3020:3037  _owner = newOwner */\n  0x0100\n  exp\n  dup2\n  sload\n  dup2\n  0xffffffffffffffffffffffffffffffffffffffff\n  mul\n  not\n  and\n  swap1\n  dup4\n  0xffffffffffffffffffffffffffffffffffffffff\n  and\n  mul\n  or\n  swap1\n  sstore\n  pop\n    /* \"@openzeppelin/contracts/access/Ownable.sol\":3083:3091  newOwner */\n  dup2\n    /* \"@openzeppelin/contracts/access/Ownable.sol\":3052:3092  OwnershipTransferred(oldOwner, newOwner) */\n  0xffffffffffffffffffffffffffffffffffffffff\n  and\n    /* \"@openzeppelin/contracts/access/Ownable.sol\":3073:3081  oldOwner */\n  dup2\n    /* \"@openzeppelin/contracts/access/Ownable.sol\":3052:3092  OwnershipTransferred(oldOwner, newOwner) */\n  0xffffffffffffffffffffffffffffffffffffffff\n  and\n  0x8be0079c531659141344cd1fd0a4f28419497f9722a3daafe3b4186f6b6457e0\n  mload(0x40)\n  mload(0x40)\n  dup1\n  swap2\n  sub\n  swap1\n  log3\n    /* \"@openzeppelin/contracts/access/Ownable.sol\":2975:3099  {... */\n  pop\n    /* \"@openzeppelin/contracts/access/Ownable.sol\":2912:3099  function _transferOwnership(address newOwner) internal virtual {... */\n  pop\n  jump\t// out\n    /* \"#utility.yul\":88:205   */\ntag_24:\n    /* \"#utility.yul\":197:198   */\n  0x00\n    /* \"#utility.yul\":194:195   */\n  dup1\n    /* \"#utility.yul\":187:199   */\n  revert\n    /* \"#utility.yul\":334:411   */\ntag_26:\n    /* \"#utility.yul\":371:378   */\n  0x00\n    /* \"#utility.yul\":400:405   */\n  dup2\n    /* \"#utility.yul\":389:405   */\n  swap1\n  pop\n    /* \"#utility.yul\":334:411   */\n  swap2\n  swap1\n  pop\n  jump\t// out\n    /* \"#utility.yul\":417:539   */\ntag_27:\n    /* \"#utility.yul\":490:514   */\n  tag_45\n    /* \"#utility.yul\":508:513   */\n  dup2\n    /* \"#utility.yul\":490:514   */\n  tag_26\n  jump\t// in\ntag_45:\n    /* \"#utility.yul\":483:488   */\n  dup2\n    /* \"#utility.yul\":480:515   */\n  eq\n    /* \"#utility.yul\":470:533   */\n  tag_46\n  jumpi\n    /* \"#utility.yul\":529:530   */\n  0x00\n    /* \"#utility.yul\":526:527   */\n  dup1\n    /* \"#utility.yul\":519:531   */\n  revert\n    /* \"#utility.yul\":470:533   */\ntag_46:\n    /* \"#utility.yul\":417:539   */\n  pop\n  jump\t// out\n    /* \"#utility.yul\":545:688   */\ntag_28:\n    /* \"#utility.yul\":602:607   */\n  0x00\n    /* \"#utility.yul\":633:639   */\n  dup2\n    /* \"#utility.yul\":627:640   */\n  mload\n    /* \"#utility.yul\":618:640   */\n  swap1\n  pop\n    /* \"#utility.yul\":649:682   */\n  tag_48\n    /* \"#utility.yul\":676:681   */\n  dup2\n    /* \"#utility.yul\":649:682   */\n  tag_27\n  jump\t// in\ntag_48:\n    /* \"#utility.yul\":545:688   */\n  swap3\n  swap2\n  pop\n  pop\n  jump\t// out\n    /* \"#utility.yul\":694:820   */\ntag_29:\n    /* \"#utility.yul\":731:738   */\n  0x00\n    /* \"#utility.yul\":771:813   */\n  0xffffffffffffffffffffffffffffffffffffffff\n    /* \"#utility.yul\":764:769   */\n  dup3\n    /* \"#utility.yul\":760:814   */\n  and\n    /* \"#utility.yul\":749:814   */\n  swap1\n  pop\n    /* \"#utility.yul\":694:820   */\n  swap2\n  swap1\n  pop\n  jump\t// out\n    /* \"#utility.yul\":826:922   */\ntag_30:\n    /* \"#utility.yul\":863:870   */\n  0x00\n    /* \"#utility.yul\":892:916   */\n  tag_51\n    /* \"#utility.yul\":910:915   */\n  dup3\n    /* \"#utility.yul\":892:916   */\n  tag_29\n  jump\t// in\ntag_51:\n    /* \"#utility.yul\":881:916   */\n  swap1\n  pop\n    /* \"#utility.yul\":826:922   */\n  swap2\n  swap1\n  pop\n  jump\t// out\n    /* \"#utility.yul\":928:1050   */\ntag_31:\n    /* \"#utility.yul\":1001:1025   */\n  tag_53\n    /* \"#utility.yul\":1019:1024   */\n  dup2\n    /* \"#utility.yul\":1001:1025   */\n  tag_30\n  jump\t// in\ntag_53:\n    /* \"#utility.yul\":994:999   */\n  dup2\n    /* \"#utility.yul\":991:1026   */\n  eq\n    /* \"#utility.yul\":981:1044   */\n  tag_54\n  jumpi\n    /* \"#utility.yul\":1040:1041   */\n  0x00\n    /* \"#utility.yul\":1037:1038   */\n  dup1\n    /* \"#utility.yul\":1030:1042   */\n  revert\n    /* \"#utility.yul\":981:1044   */\ntag_54:\n    /* \"#utility.yul\":928:1050   */\n  pop\n  jump\t// out\n    /* \"#utility.yul\":1056:1199   */\ntag_32:\n    /* \"#utility.yul\":1113:1118   */\n  0x00\n    /* \"#utility.yul\":1144:1150   */\n  dup2\n    /* \"#utility.yul\":1138:1151   */\n  mload\n    /* \"#utility.yul\":1129:1151   */\n  swap1\n  pop\n    /* \"#utility.yul\":1160:1193   */\n  tag_56\n    /* \"#utility.yul\":1187:1192   */\n  dup2\n    /* \"#utility.yul\":1160:1193   */\n  tag_31\n  jump\t// in\ntag_56:\n    /* \"#utility.yul\":1056:1199   */\n  swap3\n  swap2\n  pop\n  pop\n  jump\t// out\n    /* \"#utility.yul\":1205:1712   */\ntag_3:\n    /* \"#utility.yul\":1284:1290   */\n  0x00\n    /* \"#utility.yul\":1292:1298   */\n  dup1\n    /* \"#utility.yul\":1341:1343   */\n  0x40\n    /* \"#utility.yul\":1329:1338   */\n  dup4\n    /* \"#utility.yul\":1320:1327   */\n  dup6\n    /* \"#utility.yul\":1316:1339   */\n  sub\n    /* \"#utility.yul\":1312:1344   */\n  slt\n    /* \"#utility.yul\":1309:1428   */\n  iszero\n  tag_58\n  jumpi\n    /* \"#utility.yul\":1347:1426   */\n  tag_59\n  tag_24\n  jump\t// in\ntag_59:\n    /* \"#utility.yul\":1309:1428   */\ntag_58:\n    /* \"#utility.yul\":1467:1468   */\n  0x00\n    /* \"#utility.yul\":1492:1556   */\n  tag_60\n    /* \"#utility.yul\":1548:1555   */\n  dup6\n    /* \"#utility.yul\":1539:1545   */\n  dup3\n    /* \"#utility.yul\":1528:1537   */\n  dup7\n    /* \"#utility.yul\":1524:1546   */\n  add\n    /* \"#utility.yul\":1492:1556   */\n  tag_28\n  jump\t// in\ntag_60:\n    /* \"#utility.yul\":1482:1556   */\n  swap3\n  pop\n    /* \"#utility.yul\":1438:1566   */\n  pop\n    /* \"#utility.yul\":1605:1607   */\n  0x20\n    /* \"#utility.yul\":1631:1695   */\n  tag_61\n    /* \"#utility.yul\":1687:1694   */\n  dup6\n    /* \"#utility.yul\":1678:1684   */\n  dup3\n    /* \"#utility.yul\":1667:1676   */\n  dup7\n    /* \"#utility.yul\":1663:1685   */\n  add\n    /* \"#utility.yul\":1631:1695   */\n  tag_32\n  jump\t// in\ntag_61:\n    /* \"#utility.yul\":1621:1695   */\n  swap2\n  pop\n    /* \"#utility.yul\":1576:1705   */\n  pop\n    /* \"#utility.yul\":1205:1712   */\n  swap3\n  pop\n  swap3\n  swap1\n  pop\n  jump\t// out\n    /* \"#utility.yul\":1718:1836   */\ntag_33:\n    /* \"#utility.yul\":1805:1829   */\n  tag_63\n    /* \"#utility.yul\":1823:1828   */\n  dup2\n    /* \"#utility.yul\":1805:1829   */\n  tag_30\n  jump\t// in\ntag_63:\n    /* \"#utility.yul\":1800:1803   */\n  dup3\n    /* \"#utility.yul\":1793:1830   */\n  mstore\n    /* \"#utility.yul\":1718:1836   */\n  pop\n  pop\n  jump\t// out\n    /* \"#utility.yul\":1842:2064   */\ntag_10:\n    /* \"#utility.yul\":1935:1939   */\n  0x00\n    /* \"#utility.yul\":1973:1975   */\n  0x20\n    /* \"#utility.yul\":1962:1971   */\n  dup3\n    /* \"#utility.yul\":1958:1976   */\n  add\n    /* \"#utility.yul\":1950:1976   */\n  swap1\n  pop\n    /* \"#utility.yul\":1986:2057   */\n  tag_65\n    /* \"#utility.yul\":2054:2055   */\n  0x00\n    /* \"#utility.yul\":2043:2052   */\n  dup4\n    /* \"#utility.yul\":2039:2056   */\n  add\n    /* \"#utility.yul\":2030:2036   */\n  dup5\n    /* \"#utility.yul\":1986:2057   */\n  tag_33\n  jump\t// in\ntag_65:\n    /* \"#utility.yul\":1842:2064   */\n  swap3\n  swap2\n  pop\n  pop\n  jump\t// out\n    /* \"#utility.yul\":2070:2239   */\ntag_34:\n    /* \"#utility.yul\":2154:2165   */\n  0x00\n    /* \"#utility.yul\":2188:2194   */\n  dup3\n    /* \"#utility.yul\":2183:2186   */\n  dup3\n    /* \"#utility.yul\":2176:2195   */\n  mstore\n    /* \"#utility.yul\":2228:2232   */\n  0x20\n    /* \"#utility.yul\":2223:2226   */\n  dup3\n    /* \"#utility.yul\":2219:2233   */\n  add\n    /* \"#utility.yul\":2204:2233   */\n  swap1\n  pop\n    /* \"#utility.yul\":2070:2239   */\n  swap3\n  swap2\n  pop\n  pop\n  jump\t// out\n    /* \"#utility.yul\":2245:2418   */\ntag_35:\n    /* \"#utility.yul\":2385:2410   */\n  0x466565206d757374206e6f742065786365656420313025000000000000000000\n    /* \"#utility.yul\":2381:2382   */\n  0x00\n    /* \"#utility.yul\":2373:2379   */\n  dup3\n    /* \"#utility.yul\":2369:2383   */\n  add\n    /* \"#utility.yul\":2362:2411   */\n  mstore\n    /* \"#utility.yul\":2245:2418   */\n  pop\n  jump\t// out\n    /* \"#utility.yul\":2424:2790   */\ntag_36:\n    /* \"#utility.yul\":2566:2569   */\n  0x00\n    /* \"#utility.yul\":2587:2654   */\n  tag_69\n    /* \"#utility.yul\":2651:2653   */\n  0x17\n    /* \"#utility.yul\":2646:2649   */\n  dup4\n    /* \"#utility.yul\":2587:2654   */\n  tag_34\n  jump\t// in\ntag_69:\n    /* \"#utility.yul\":2580:2654   */\n  swap2\n  pop\n    /* \"#utility.yul\":2663:2756   */\n  tag_70\n    /* \"#utility.yul\":2752:2755   */\n  dup3\n    /* \"#utility.yul\":2663:2756   */\n  tag_35\n  jump\t// in\ntag_70:\n    /* \"#utility.yul\":2781:2783   */\n  0x20\n    /* \"#utility.yul\":2776:2779   */\n  dup3\n    /* \"#utility.yul\":2772:2784   */\n  add\n    /* \"#utility.yul\":2765:2784   */\n  swap1\n  pop\n    /* \"#utility.yul\":2424:2790   */\n  swap2\n  swap1\n  pop\n  jump\t// out\n    /* \"#utility.yul\":2796:3215   */\ntag_17:\n    /* \"#utility.yul\":2962:2966   */\n  0x00\n    /* \"#utility.yul\":3000:3002   */\n  0x20\n    /* \"#utility.yul\":2989:2998   */\n  dup3\n    /* \"#utility.yul\":2985:3003   */\n  add\n    /* \"#utility.yul\":2977:3003   */\n  swap1\n  pop\n    /* \"#utility.yul\":3049:3058   */\n  dup2\n    /* \"#utility.yul\":3043:3047   */\n  dup2\n    /* \"#utility.yul\":3039:3059   */\n  sub\n    /* \"#utility.yul\":3035:3036   */\n  0x00\n    /* \"#utility.yul\":3024:3033   */\n  dup4\n    /* \"#utility.yul\":3020:3037   */\n  add\n    /* \"#utility.yul\":3013:3060   */\n  mstore\n    /* \"#utility.yul\":3077:3208   */\n  tag_72\n    /* \"#utility.yul\":3203:3207   */\n  dup2\n    /* \"#utility.yul\":3077:3208   */\n  tag_36\n  jump\t// in\ntag_72:\n    /* \"#utility.yul\":3069:3208   */\n  swap1\n  pop\n    /* \"#utility.yul\":2796:3215   */\n  swap2\n  swap1\n  pop\n  jump\t// out\n    /* \"#utility.yul\":3221:3400   */\ntag_37:\n    /* \"#utility.yul\":3361:3392   */\n  0x496e76616c69642066656520726563697069656e742061646472657373000000\n    /* \"#utility.yul\":3357:3358   */\n  0x00\n    /* \"#utility.yul\":3349:3355   */\n  dup3\n    /* \"#utility.yul\":3345:3359   */\n  add\n    /* \"#utility.yul\":3338:3393   */\n  mstore\n    /* \"#utility.yul\":3221:3400   */\n  pop\n  jump\t// out\n    /* \"#utility.yul\":3406:3772   */\ntag_38:\n    /* \"#utility.yul\":3548:3551   */\n  0x00\n    /* \"#utility.yul\":3569:3636   */\n  tag_75\n    /* \"#utility.yul\":3633:3635   */\n  0x1d\n    /* \"#utility.yul\":3628:3631   */\n  dup4\n    /* \"#utility.yul\":3569:3636   */\n  tag_34\n  jump\t// in\ntag_75:\n    /* \"#utility.yul\":3562:3636   */\n  swap2\n  pop\n    /* \"#utility.yul\":3645:3738   */\n  tag_76\n    /* \"#utility.yul\":3734:3737   */\n  dup3\n    /* \"#utility.yul\":3645:3738   */\n  tag_37\n  jump\t// in\ntag_76:\n    /* \"#utility.yul\":3763:3765   */\n  0x20\n    /* \"#utility.yul\":3758:3761   */\n  dup3\n    /* \"#utility.yul\":3754:3766   */\n  add\n    /* \"#utility.yul\":3747:3766   */\n  swap1\n  pop\n    /* \"#utility.yul\":3406:3772   */\n  swap2\n  swap1\n  pop\n  jump\t// out\n    /* \"#utility.yul\":3778:4197   */\ntag_20:\n    /* \"#utility.yul\":3944:3948   */\n  0x00\n    /* \"#utility.yul\":3982:3984   */\n  0x20\n    /* \"#utility.yul\":3971:3980   */\n  dup3\n    /* \"#utility.yul\":3967:3985   */\n  add\n    /* \"#utility.yul\":3959:3985   */\n  swap1\n  pop\n    /* \"#utility.yul\":4031:4040   */\n  dup2\n    /* \"#utility.yul\":4025:4029   */\n  dup2\n    /* \"#utility.yul\":4021:4041   */\n  sub\n    /* \"#utility.yul\":4017:4018   */\n  0x00\n    /* \"#utility.yul\":4006:4015   */\n  dup4\n    /* \"#utility.yul\":4002:4019   */\n  add\n    /* \"#utility.yul\":3995:4042   */\n  mstore\n    /* \"#utility.yul\":4059:4190   */\n  tag_78\n    /* \"#utility.yul\":4185:4189   */\n  dup2\n    /* \"#utility.yul\":4059:4190   */\n  tag_38\n  jump\t// in\ntag_78:\n    /* \"#utility.yul\":4051:4190   */\n  swap1\n  pop\n    /* \"#utility.yul\":3778:4197   */\n  swap2\n  swap1\n  pop\n  jump\t// out\n    /* \"MarketPlace/sells.sol\":308:3990  contract TokenMarketPlace is Ownable, ReentrancyGuard {... */\ntag_21:\n  dataSize(sub_0)\n  dup1\n  dataOffset(sub_0)\n  0x00\n  codecopy\n  0x00\n  return\nstop\n\nsub_0: assembly {\n        /* \"MarketPlace/sells.sol\":308:3990  contract TokenMarketPlace is Ownable, ReentrancyGuard {... */\n      mstore(0x40, 0x80)\n      callvalue\n      dup1\n      iszero\n      tag_1\n      jumpi\n      0x00\n      dup1\n      revert\n    tag_1:\n      pop\n      jumpi(tag_2, lt(calldatasize, 0x04))\n      shr(0xe0, calldataload(0x00))\n      dup1\n      0xc415b95c\n      gt\n      tag_11\n      jumpi\n      dup1\n      0xc415b95c\n      eq\n      tag_7\n      jumpi\n      dup1\n      0xc661aea6\n      eq\n      tag_8\n      jumpi\n      dup1\n      0xde74e57b\n      eq\n      tag_9\n      jumpi\n      dup1\n      0xf2fde38b\n      eq\n      tag_10\n      jumpi\n      jump(tag_2)\n    tag_11:\n      dup1\n      0x715018a6\n      eq\n      tag_3\n      jumpi\n      dup1\n      0x7fd6f15c\n      eq\n      tag_4\n      jumpi\n      dup1\n      0x8da5cb5b\n      eq\n      tag_5\n      jumpi\n      dup1\n      0xade9fbc6\n      eq\n      tag_6\n      jumpi\n    tag_2:\n      0x00\n      dup1\n      revert\n        /* \"@openzeppelin/contracts/access/Ownable.sol\":2293:2394  function renounceOwnership() public virtual onlyOwner {... */\n    tag_3:\n      tag_12\n      tag_13\n      jump\t// in\n    tag_12:\n      stop\n        /* \"MarketPlace/sells.sol\":368:393  uint256 public feePercent */\n    tag_4:\n      tag_14\n      tag_15\n      jump\t// in\n    tag_14:\n      mload(0x40)\n      tag_16\n      swap2\n      swap1\n      tag_17\n      jump\t// in\n    tag_16:\n      mload(0x40)\n      dup1\n      swap2\n      sub\n      swap1\n      return\n        /* \"@openzeppelin/contracts/access/Ownable.sol\":1638:1723  function owner() public view virtual returns (address) {... */\n    tag_5:\n      tag_18\n      tag_19\n      jump\t// in\n    tag_18:\n      mload(0x40)\n      tag_20\n      swap2\n      swap1\n      tag_21\n      jump\t// in\n    tag_20:\n      mload(0x40)\n      dup1\n      swap2\n      sub\n      swap1\n      return\n        /* \"MarketPlace/sells.sol\":831:876  mapping(bytes32 => uint256) public listingKey */\n    tag_6:\n      tag_22\n      0x04\n      dup1\n      calldatasize\n      sub\n      dup2\n      add\n      swap1\n      tag_23\n      swap2\n      swap1\n      tag_24\n      jump\t// in\n    tag_23:\n      tag_25\n      jump\t// in\n    tag_22:\n      mload(0x40)\n      tag_26\n      swap2\n      swap1\n      tag_17\n      jump\t// in\n    tag_26:\n      mload(0x40)\n      dup1\n      swap2\n      sub\n      swap1\n      return\n        /* \"MarketPlace/sells.sol\":399:426  address public feeCollector */\n    tag_7:\n      tag_27\n      tag_28\n      jump\t// in\n    tag_27:\n      mload(0x40)\n      tag_29\n      swap2\n      swap1\n      tag_21\n      jump\t// in\n    tag_29:\n      mload(0x40)\n      dup1\n      swap2\n      sub\n      swap1\n      return\n        /* \"MarketPlace/sells.sol\":1830:3853  function creatListing(... */\n    tag_8:\n      tag_30\n      0x04\n      dup1\n      calldatasize\n      sub\n      dup2\n      add\n      swap1\n      tag_31\n      swap2\n      swap1\n      tag_32\n      jump\t// in\n    tag_31:\n      tag_33\n      jump\t// in\n    tag_30:\n      stop\n        /* \"MarketPlace/sells.sol\":678:721  mapping(uint256 => Listing) public listings */\n    tag_9:\n      tag_34\n      0x04\n      dup1\n      calldatasize\n      sub\n      dup2\n      add\n      swap1\n      tag_35\n      swap2\n      swap1\n      tag_36\n      jump\t// in\n    tag_35:\n      tag_37\n      jump\t// in\n    tag_34:\n      mload(0x40)\n      tag_38\n      swap7\n      swap6\n      swap5\n      swap4\n      swap3\n      swap2\n      swap1\n      tag_39\n      jump\t// in\n    tag_38:\n      mload(0x40)\n      dup1\n      swap2\n      sub\n      swap1\n      return\n        /* \"@openzeppelin/contracts/access/Ownable.sol\":2543:2758  function transferOwnership(address newOwner) public virtual onlyOwner {... */\n    tag_10:\n      tag_40\n      0x04\n      dup1\n      calldatasize\n      sub\n      dup2\n      add\n      swap1\n      tag_41\n      swap2\n      swap1\n      tag_42\n      jump\t// in\n    tag_41:\n      tag_43\n      jump\t// in\n    tag_40:\n      stop\n        /* \"@openzeppelin/contracts/access/Ownable.sol\":2293:2394  function renounceOwnership() public virtual onlyOwner {... */\n    tag_13:\n        /* \"@openzeppelin/contracts/access/Ownable.sol\":1531:1544  _checkOwner() */\n      tag_45\n        /* \"@openzeppelin/contracts/access/Ownable.sol\":1531:1542  _checkOwner */\n      tag_46\n        /* \"@openzeppelin/contracts/access/Ownable.sol\":1531:1544  _checkOwner() */\n      jump\t// in\n    tag_45:\n        /* \"@openzeppelin/contracts/access/Ownable.sol\":2357:2387  _transferOwnership(address(0)) */\n      tag_48\n        /* \"@openzeppelin/contracts/access/Ownable.sol\":2384:2385  0 */\n      0x00\n        /* \"@openzeppelin/contracts/access/Ownable.sol\":2357:2375  _transferOwnership */\n      tag_49\n        /* \"@openzeppelin/contracts/access/Ownable.sol\":2357:2387  _transferOwnership(address(0)) */\n      jump\t// in\n    tag_48:\n        /* \"@openzeppelin/contracts/access/Ownable.sol\":2293:2394  function renounceOwnership() public virtual onlyOwner {... */\n      jump\t// out\n        /* \"MarketPlace/sells.sol\":368:393  uint256 public feePercent */\n    tag_15:\n      sload(0x02)\n      dup2\n      jump\t// out\n        /* \"@openzeppelin/contracts/access/Ownable.sol\":1638:1723  function owner() public view virtual returns (address) {... */\n    tag_19:\n        /* \"@openzeppelin/contracts/access/Ownable.sol\":1684:1691  address */\n      0x00\n        /* \"@openzeppelin/contracts/access/Ownable.sol\":1710:1716  _owner */\n      dup1\n      0x00\n      swap1\n      sload\n      swap1\n      0x0100\n      exp\n      swap1\n      div\n      0xffffffffffffffffffffffffffffffffffffffff\n      and\n        /* \"@openzeppelin/contracts/access/Ownable.sol\":1703:1716  return _owner */\n      swap1\n      pop\n        /* \"@openzeppelin/contracts/access/Ownable.sol\":1638:1723  function owner() public view virtual returns (address) {... */\n      swap1\n      jump\t// out\n        /* \"MarketPlace/sells.sol\":831:876  mapping(bytes32 => uint256) public listingKey */\n    tag_25:\n      mstore(0x20, 0x05)\n      dup1\n      0x00\n      mstore\n      keccak256(0x00, 0x40)\n      0x00\n      swap2\n      pop\n      swap1\n      pop\n      sload\n      dup2\n      jump\t// out\n        /* \"MarketPlace/sells.sol\":399:426  address public feeCollector */\n    tag_28:\n      0x03\n      0x00\n      swap1\n      sload\n      swap1\n      0x0100\n      exp\n      swap1\n      div\n      0xffffffffffffffffffffffffffffffffffffffff\n      and\n      dup2\n      jump\t// out\n        /* \"MarketPlace/sells.sol\":1830:3853  function creatListing(... */\n    tag_33:\n        /* \"@openzeppelin/contracts/security/ReentrancyGuard.sol\":2261:2282  _nonReentrantBefore() */\n      tag_52\n        /* \"@openzeppelin/contracts/security/ReentrancyGuard.sol\":2261:2280  _nonReentrantBefore */\n      tag_53\n        /* \"@openzeppelin/contracts/security/ReentrancyGuard.sol\":2261:2282  _nonReentrantBefore() */\n      jump\t// in\n    tag_52:\n        /* \"MarketPlace/sells.sol\":2696:2709  bytes32 keyId */\n      0x00\n        /* \"MarketPlace/sells.sol\":2712:2753  _generatekeyId(_tokenAddress, msg.sender) */\n      tag_55\n        /* \"MarketPlace/sells.sol\":2727:2740  _tokenAddress */\n      dup5\n        /* \"MarketPlace/sells.sol\":2742:2752  msg.sender */\n      caller\n        /* \"MarketPlace/sells.sol\":2712:2726  _generatekeyId */\n      tag_56\n        /* \"MarketPlace/sells.sol\":2712:2753  _generatekeyId(_tokenAddress, msg.sender) */\n      jump\t// in\n    tag_55:\n        /* \"MarketPlace/sells.sol\":2696:2753  bytes32 keyId = _generatekeyId(_tokenAddress, msg.sender) */\n      swap1\n      pop\n        /* \"MarketPlace/sells.sol\":3526:3777  Listing({... */\n      mload(0x40)\n      dup1\n      0xc0\n      add\n      0x40\n      mstore\n      dup1\n        /* \"MarketPlace/sells.sol\":3556:3566  msg.sender */\n      caller\n        /* \"MarketPlace/sells.sol\":3526:3777  Listing({... */\n      0xffffffffffffffffffffffffffffffffffffffff\n      and\n      dup2\n      mstore\n      0x20\n      add\n        /* \"MarketPlace/sells.sol\":3655:3668  _tokenAddress */\n      dup6\n        /* \"MarketPlace/sells.sol\":3526:3777  Listing({... */\n      0xffffffffffffffffffffffffffffffffffffffff\n      and\n      dup2\n      mstore\n      0x20\n      add\n        /* \"MarketPlace/sells.sol\":3606:3619  _tokenAddress */\n      dup6\n        /* \"MarketPlace/sells.sol\":3591:3625  IERC20Metadata(_tokenAddress).name */\n      0xffffffffffffffffffffffffffffffffffffffff\n      and\n      0x06fdde03\n        /* \"MarketPlace/sells.sol\":3591:3627  IERC20Metadata(_tokenAddress).name() */\n      mload(0x40)\n      dup2\n      0xffffffff\n      and\n      0xe0\n      shl\n      dup2\n      mstore\n      0x04\n      add\n      0x00\n      mload(0x40)\n      dup1\n      dup4\n      sub\n      dup2\n      dup7\n      gas\n      staticcall\n      iszero\n      dup1\n      iszero\n      tag_58\n      jumpi\n      returndatasize\n      0x00\n      dup1\n      returndatacopy\n      revert(0x00, returndatasize)\n    tag_58:\n      pop\n      pop\n      pop\n      pop\n      mload(0x40)\n      returndatasize\n      0x00\n      dup3\n      returndatacopy\n      returndatasize\n      not(0x1f)\n      0x1f\n      dup3\n      add\n      and\n      dup3\n      add\n      dup1\n      0x40\n      mstore\n      pop\n      dup2\n      add\n      swap1\n      tag_59\n      swap2\n      swap1\n      tag_60\n      jump\t// in\n    tag_59:\n        /* \"MarketPlace/sells.sol\":3526:3777  Listing({... */\n      dup2\n      mstore\n      0x20\n      add\n        /* \"MarketPlace/sells.sol\":3690:3697  _amount */\n      dup5\n        /* \"MarketPlace/sells.sol\":3526:3777  Listing({... */\n      dup2\n      mstore\n      0x20\n      add\n        /* \"MarketPlace/sells.sol\":3726:3740  _pricePerToken */\n      dup4\n        /* \"MarketPlace/sells.sol\":3526:3777  Listing({... */\n      dup2\n      mstore\n      0x20\n      add\n        /* \"MarketPlace/sells.sol\":3762:3766  true */\n      0x01\n        /* \"MarketPlace/sells.sol\":3526:3777  Listing({... */\n      iszero\n      iszero\n      dup2\n      mstore\n      pop\n        /* \"MarketPlace/sells.sol\":3500:3508  listings */\n      0x04\n        /* \"MarketPlace/sells.sol\":3500:3523  listings[nextListingId] */\n      0x00\n        /* \"MarketPlace/sells.sol\":3509:3522  nextListingId */\n      sload(0x06)\n        /* \"MarketPlace/sells.sol\":3500:3523  listings[nextListingId] */\n      dup2\n      mstore\n      0x20\n      add\n      swap1\n      dup2\n      mstore\n      0x20\n      add\n      0x00\n      keccak256\n        /* \"MarketPlace/sells.sol\":3500:3777  listings[nextListingId] = Listing({... */\n      0x00\n      dup3\n      add\n      mload\n      dup2\n      0x00\n      add\n      exp(0x0100, 0x00)\n      dup2\n      sload\n      dup2\n      0xffffffffffffffffffffffffffffffffffffffff\n      mul\n      not\n      and\n      swap1\n      dup4\n      0xffffffffffffffffffffffffffffffffffffffff\n      and\n      mul\n      or\n      swap1\n      sstore\n      pop\n      0x20\n      dup3\n      add\n      mload\n      dup2\n      0x01\n      add\n      exp(0x0100, 0x00)\n      dup2\n      sload\n      dup2\n      0xffffffffffffffffffffffffffffffffffffffff\n      mul\n      not\n      and\n      swap1\n      dup4\n      0xffffffffffffffffffffffffffffffffffffffff\n      and\n      mul\n      or\n      swap1\n      sstore\n      pop\n      0x40\n      dup3\n      add\n      mload\n      dup2\n      0x02\n      add\n      swap1\n      dup2\n      tag_61\n      swap2\n      swap1\n      tag_62\n      jump\t// in\n    tag_61:\n      pop\n      0x60\n      dup3\n      add\n      mload\n      dup2\n      0x03\n      add\n      sstore\n      0x80\n      dup3\n      add\n      mload\n      dup2\n      0x04\n      add\n      sstore\n      0xa0\n      dup3\n      add\n      mload\n      dup2\n      0x05\n      add\n      exp(0x0100, 0x00)\n      dup2\n      sload\n      dup2\n      0xff\n      mul\n      not\n      and\n      swap1\n      dup4\n      iszero\n      iszero\n      mul\n      or\n      swap1\n      sstore\n      pop\n      swap1\n      pop\n      pop\n        /* \"MarketPlace/sells.sol\":3808:3821  nextListingId */\n      sload(0x06)\n        /* \"MarketPlace/sells.sol\":3788:3798  listingKey */\n      0x05\n        /* \"MarketPlace/sells.sol\":3788:3805  listingKey[keyId] */\n      0x00\n        /* \"MarketPlace/sells.sol\":3799:3804  keyId */\n      dup4\n        /* \"MarketPlace/sells.sol\":3788:3805  listingKey[keyId] */\n      dup2\n      mstore\n      0x20\n      add\n      swap1\n      dup2\n      mstore\n      0x20\n      add\n      0x00\n      keccak256\n        /* \"MarketPlace/sells.sol\":3788:3821  listingKey[keyId] = nextListingId */\n      dup2\n      swap1\n      sstore\n      pop\n        /* \"MarketPlace/sells.sol\":3831:3844  nextListingId */\n      0x06\n      0x00\n        /* \"MarketPlace/sells.sol\":3831:3846  nextListingId++ */\n      dup2\n      sload\n      dup1\n      swap3\n      swap2\n      swap1\n      tag_63\n      swap1\n      tag_64\n      jump\t// in\n    tag_63:\n      swap2\n      swap1\n      pop\n      sstore\n      pop\n        /* \"MarketPlace/sells.sol\":1968:3853  {... */\n      pop\n        /* \"@openzeppelin/contracts/security/ReentrancyGuard.sol\":2303:2323  _nonReentrantAfter() */\n      tag_65\n        /* \"@openzeppelin/contracts/security/ReentrancyGuard.sol\":2303:2321  _nonReentrantAfter */\n      tag_66\n        /* \"@openzeppelin/contracts/security/ReentrancyGuard.sol\":2303:2323  _nonReentrantAfter() */\n      jump\t// in\n    tag_65:\n        /* \"MarketPlace/sells.sol\":1830:3853  function creatListing(... */\n      pop\n      pop\n      pop\n      jump\t// out\n        /* \"MarketPlace/sells.sol\":678:721  mapping(uint256 => Listing) public listings */\n    tag_37:\n      mstore(0x20, 0x04)\n      dup1\n      0x00\n      mstore\n      keccak256(0x00, 0x40)\n      0x00\n      swap2\n      pop\n      swap1\n      pop\n      dup1\n      0x00\n      add\n      0x00\n      swap1\n      sload\n      swap1\n      0x0100\n      exp\n      swap1\n      div\n      0xffffffffffffffffffffffffffffffffffffffff\n      and\n      swap1\n      dup1\n      0x01\n      add\n      0x00\n      swap1\n      sload\n      swap1\n      0x0100\n      exp\n      swap1\n      div\n      0xffffffffffffffffffffffffffffffffffffffff\n      and\n      swap1\n      dup1\n      0x02\n      add\n      dup1\n      sload\n      tag_67\n      swap1\n      tag_68\n      jump\t// in\n    tag_67:\n      dup1\n      0x1f\n      add\n      0x20\n      dup1\n      swap2\n      div\n      mul\n      0x20\n      add\n      mload(0x40)\n      swap1\n      dup2\n      add\n      0x40\n      mstore\n      dup1\n      swap3\n      swap2\n      swap1\n      dup2\n      dup2\n      mstore\n      0x20\n      add\n      dup3\n      dup1\n      sload\n      tag_69\n      swap1\n      tag_68\n      jump\t// in\n    tag_69:\n      dup1\n      iszero\n      tag_70\n      jumpi\n      dup1\n      0x1f\n      lt\n      tag_71\n      jumpi\n      0x0100\n      dup1\n      dup4\n      sload\n      div\n      mul\n      dup4\n      mstore\n      swap2\n      0x20\n      add\n      swap2\n      jump(tag_70)\n    tag_71:\n      dup3\n      add\n      swap2\n      swap1\n      0x00\n      mstore\n      keccak256(0x00, 0x20)\n      swap1\n    tag_72:\n      dup2\n      sload\n      dup2\n      mstore\n      swap1\n      0x01\n      add\n      swap1\n      0x20\n      add\n      dup1\n      dup4\n      gt\n      tag_72\n      jumpi\n      dup3\n      swap1\n      sub\n      0x1f\n      and\n      dup3\n      add\n      swap2\n    tag_70:\n      pop\n      pop\n      pop\n      pop\n      pop\n      swap1\n      dup1\n      0x03\n      add\n      sload\n      swap1\n      dup1\n      0x04\n      add\n      sload\n      swap1\n      dup1\n      0x05\n      add\n      0x00\n      swap1\n      sload\n      swap1\n      0x0100\n      exp\n      swap1\n      div\n      0xff\n      and\n      swap1\n      pop\n      dup7\n      jump\t// out\n        /* \"@openzeppelin/contracts/access/Ownable.sol\":2543:2758  function transferOwnership(address newOwner) public virtual onlyOwner {... */\n    tag_43:\n        /* \"@openzeppelin/contracts/access/Ownable.sol\":1531:1544  _checkOwner() */\n      tag_74\n        /* \"@openzeppelin/contracts/access/Ownable.sol\":1531:1542  _checkOwner */\n      tag_46\n        /* \"@openzeppelin/contracts/access/Ownable.sol\":1531:1544  _checkOwner() */\n      jump\t// in\n    tag_74:\n        /* \"@openzeppelin/contracts/access/Ownable.sol\":2647:2648  0 */\n      0x00\n        /* \"@openzeppelin/contracts/access/Ownable.sol\":2627:2649  newOwner == address(0) */\n      0xffffffffffffffffffffffffffffffffffffffff\n      and\n        /* \"@openzeppelin/contracts/access/Ownable.sol\":2627:2635  newOwner */\n      dup2\n        /* \"@openzeppelin/contracts/access/Ownable.sol\":2627:2649  newOwner == address(0) */\n      0xffffffffffffffffffffffffffffffffffffffff\n      and\n      sub\n        /* \"@openzeppelin/contracts/access/Ownable.sol\":2623:2714  if (newOwner == address(0)) {... */\n      tag_76\n      jumpi\n        /* \"@openzeppelin/contracts/access/Ownable.sol\":2700:2701  0 */\n      0x00\n        /* \"@openzeppelin/contracts/access/Ownable.sol\":2672:2703  OwnableInvalidOwner(address(0)) */\n      mload(0x40)\n      0x1e4fbdf700000000000000000000000000000000000000000000000000000000\n      dup2\n      mstore\n      0x04\n      add\n      tag_77\n      swap2\n      swap1\n      tag_21\n      jump\t// in\n    tag_77:\n      mload(0x40)\n      dup1\n      swap2\n      sub\n      swap1\n      revert\n        /* \"@openzeppelin/contracts/access/Ownable.sol\":2623:2714  if (newOwner == address(0)) {... */\n    tag_76:\n        /* \"@openzeppelin/contracts/access/Ownable.sol\":2723:2751  _transferOwnership(newOwner) */\n      tag_78\n        /* \"@openzeppelin/contracts/access/Ownable.sol\":2742:2750  newOwner */\n      dup2\n        /* \"@openzeppelin/contracts/access/Ownable.sol\":2723:2741  _transferOwnership */\n      tag_49\n        /* \"@openzeppelin/contracts/access/Ownable.sol\":2723:2751  _transferOwnership(newOwner) */\n      jump\t// in\n    tag_78:\n        /* \"@openzeppelin/contracts/access/Ownable.sol\":2543:2758  function transferOwnership(address newOwner) public virtual onlyOwner {... */\n      pop\n      jump\t// out\n        /* \"@openzeppelin/contracts/access/Ownable.sol\":1796:1958  function _checkOwner() internal view virtual {... */\n    tag_46:\n        /* \"@openzeppelin/contracts/access/Ownable.sol\":1866:1878  _msgSender() */\n      tag_80\n        /* \"@openzeppelin/contracts/access/Ownable.sol\":1866:1876  _msgSender */\n      tag_81\n        /* \"@openzeppelin/contracts/access/Ownable.sol\":1866:1878  _msgSender() */\n      jump\t// in\n    tag_80:\n        /* \"@openzeppelin/contracts/access/Ownable.sol\":1855:1878  owner() != _msgSender() */\n      0xffffffffffffffffffffffffffffffffffffffff\n      and\n        /* \"@openzeppelin/contracts/access/Ownable.sol\":1855:1862  owner() */\n      tag_82\n        /* \"@openzeppelin/contracts/access/Ownable.sol\":1855:1860  owner */\n      tag_19\n        /* \"@openzeppelin/contracts/access/Ownable.sol\":1855:1862  owner() */\n      jump\t// in\n    tag_82:\n        /* \"@openzeppelin/contracts/access/Ownable.sol\":1855:1878  owner() != _msgSender() */\n      0xffffffffffffffffffffffffffffffffffffffff\n      and\n      eq\n        /* \"@openzeppelin/contracts/access/Ownable.sol\":1851:1952  if (owner() != _msgSender()) {... */\n      tag_83\n      jumpi\n        /* \"@openzeppelin/contracts/access/Ownable.sol\":1928:1940  _msgSender() */\n      tag_84\n        /* \"@openzeppelin/contracts/access/Ownable.sol\":1928:1938  _msgSender */\n      tag_81\n        /* \"@openzeppelin/contracts/access/Ownable.sol\":1928:1940  _msgSender() */\n      jump\t// in\n    tag_84:\n        /* \"@openzeppelin/contracts/access/Ownable.sol\":1901:1941  OwnableUnauthorizedAccount(_msgSender()) */\n      mload(0x40)\n      0x118cdaa700000000000000000000000000000000000000000000000000000000\n      dup2\n      mstore\n      0x04\n      add\n      tag_85\n      swap2\n      swap1\n      tag_21\n      jump\t// in\n    tag_85:\n      mload(0x40)\n      dup1\n      swap2\n      sub\n      swap1\n      revert\n        /* \"@openzeppelin/contracts/access/Ownable.sol\":1851:1952  if (owner() != _msgSender()) {... */\n    tag_83:\n        /* \"@openzeppelin/contracts/access/Ownable.sol\":1796:1958  function _checkOwner() internal view virtual {... */\n      jump\t// out\n        /* \"@openzeppelin/contracts/access/Ownable.sol\":2912:3099  function _transferOwnership(address newOwner) internal virtual {... */\n    tag_49:\n        /* \"@openzeppelin/contracts/access/Ownable.sol\":2985:3001  address oldOwner */\n      0x00\n        /* \"@openzeppelin/contracts/access/Ownable.sol\":3004:3010  _owner */\n      dup1\n      0x00\n      swap1\n      sload\n      swap1\n      0x0100\n      exp\n      swap1\n      div\n      0xffffffffffffffffffffffffffffffffffffffff\n      and\n        /* \"@openzeppelin/contracts/access/Ownable.sol\":2985:3010  address oldOwner = _owner */\n      swap1\n      pop\n        /* \"@openzeppelin/contracts/access/Ownable.sol\":3029:3037  newOwner */\n      dup2\n        /* \"@openzeppelin/contracts/access/Ownable.sol\":3020:3026  _owner */\n      0x00\n      dup1\n        /* \"@openzeppelin/contracts/access/Ownable.sol\":3020:3037  _owner = newOwner */\n      0x0100\n      exp\n      dup2\n      sload\n      dup2\n      0xffffffffffffffffffffffffffffffffffffffff\n      mul\n      not\n      and\n      swap1\n      dup4\n      0xffffffffffffffffffffffffffffffffffffffff\n      and\n      mul\n      or\n      swap1\n      sstore\n      pop\n        /* \"@openzeppelin/contracts/access/Ownable.sol\":3083:3091  newOwner */\n      dup2\n        /* \"@openzeppelin/contracts/access/Ownable.sol\":3052:3092  OwnershipTransferred(oldOwner, newOwner) */\n      0xffffffffffffffffffffffffffffffffffffffff\n      and\n        /* \"@openzeppelin/contracts/access/Ownable.sol\":3073:3081  oldOwner */\n      dup2\n        /* \"@openzeppelin/contracts/access/Ownable.sol\":3052:3092  OwnershipTransferred(oldOwner, newOwner) */\n      0xffffffffffffffffffffffffffffffffffffffff\n      and\n      0x8be0079c531659141344cd1fd0a4f28419497f9722a3daafe3b4186f6b6457e0\n      mload(0x40)\n      mload(0x40)\n      dup1\n      swap2\n      sub\n      swap1\n      log3\n        /* \"@openzeppelin/contracts/access/Ownable.sol\":2975:3099  {... */\n      pop\n        /* \"@openzeppelin/contracts/access/Ownable.sol\":2912:3099  function _transferOwnership(address newOwner) internal virtual {... */\n      pop\n      jump\t// out\n        /* \"@openzeppelin/contracts/security/ReentrancyGuard.sol\":2336:2623  function _nonReentrantBefore() private {... */\n    tag_53:\n        /* \"@openzeppelin/contracts/security/ReentrancyGuard.sol\":1759:1760  2 */\n      0x02\n        /* \"@openzeppelin/contracts/security/ReentrancyGuard.sol\":2468:2475  _status */\n      sload(0x01)\n        /* \"@openzeppelin/contracts/security/ReentrancyGuard.sol\":2468:2487  _status != _ENTERED */\n      sub\n        /* \"@openzeppelin/contracts/security/ReentrancyGuard.sol\":2460:2523  require(_status != _ENTERED, \"ReentrancyGuard: reentrant call\") */\n      tag_88\n      jumpi\n      mload(0x40)\n      0x08c379a000000000000000000000000000000000000000000000000000000000\n      dup2\n      mstore\n      0x04\n      add\n      tag_89\n      swap1\n      tag_90\n      jump\t// in\n    tag_89:\n      mload(0x40)\n      dup1\n      swap2\n      sub\n      swap1\n      revert\n    tag_88:\n        /* \"@openzeppelin/contracts/security/ReentrancyGuard.sol\":1759:1760  2 */\n      0x02\n        /* \"@openzeppelin/contracts/security/ReentrancyGuard.sol\":2598:2605  _status */\n      0x01\n        /* \"@openzeppelin/contracts/security/ReentrancyGuard.sol\":2598:2616  _status = _ENTERED */\n      dup2\n      swap1\n      sstore\n      pop\n        /* \"@openzeppelin/contracts/security/ReentrancyGuard.sol\":2336:2623  function _nonReentrantBefore() private {... */\n      jump\t// out\n        /* \"MarketPlace/sells.sol\":1434:1615  function _generatekeyId(address token, address seller)... */\n    tag_56:\n        /* \"MarketPlace/sells.sol\":1536:1543  bytes32 */\n      0x00\n        /* \"MarketPlace/sells.sol\":1593:1598  token */\n      dup3\n        /* \"MarketPlace/sells.sol\":1600:1606  seller */\n      dup3\n        /* \"MarketPlace/sells.sol\":1576:1607  abi.encodePacked(token, seller) */\n      add(0x20, mload(0x40))\n      tag_92\n      swap3\n      swap2\n      swap1\n      tag_93\n      jump\t// in\n    tag_92:\n      mload(0x40)\n      0x20\n      dup2\n      dup4\n      sub\n      sub\n      dup2\n      mstore\n      swap1\n      0x40\n      mstore\n        /* \"MarketPlace/sells.sol\":1566:1608  keccak256(abi.encodePacked(token, seller)) */\n      dup1\n      mload\n      swap1\n      0x20\n      add\n      keccak256\n        /* \"MarketPlace/sells.sol\":1559:1608  return keccak256(abi.encodePacked(token, seller)) */\n      swap1\n      pop\n        /* \"MarketPlace/sells.sol\":1434:1615  function _generatekeyId(address token, address seller)... */\n      swap3\n      swap2\n      pop\n      pop\n      jump\t// out\n        /* \"@openzeppelin/contracts/security/ReentrancyGuard.sol\":2629:2838  function _nonReentrantAfter() private {... */\n    tag_66:\n        /* \"@openzeppelin/contracts/security/ReentrancyGuard.sol\":1716:1717  1 */\n      0x01\n        /* \"@openzeppelin/contracts/security/ReentrancyGuard.sol\":2809:2816  _status */\n      dup1\n        /* \"@openzeppelin/contracts/security/ReentrancyGuard.sol\":2809:2831  _status = _NOT_ENTERED */\n      dup2\n      swap1\n      sstore\n      pop\n        /* \"@openzeppelin/contracts/security/ReentrancyGuard.sol\":2629:2838  function _nonReentrantAfter() private {... */\n      jump\t// out\n        /* \"@openzeppelin/contracts/utils/Context.sol\":656:752  function _msgSender() internal view virtual returns (address) {... */\n    tag_81:\n        /* \"@openzeppelin/contracts/utils/Context.sol\":709:716  address */\n      0x00\n        /* \"@openzeppelin/contracts/utils/Context.sol\":735:745  msg.sender */\n      caller\n        /* \"@openzeppelin/contracts/utils/Context.sol\":728:745  return msg.sender */\n      swap1\n      pop\n        /* \"@openzeppelin/contracts/utils/Context.sol\":656:752  function _msgSender() internal view virtual returns (address) {... */\n      swap1\n      jump\t// out\n        /* \"#utility.yul\":7:84   */\n    tag_96:\n        /* \"#utility.yul\":44:51   */\n      0x00\n        /* \"#utility.yul\":73:78   */\n      dup2\n        /* \"#utility.yul\":62:78   */\n      swap1\n      pop\n        /* \"#utility.yul\":7:84   */\n      swap2\n      swap1\n      pop\n      jump\t// out\n        /* \"#utility.yul\":90:208   */\n    tag_97:\n        /* \"#utility.yul\":177:201   */\n      tag_152\n        /* \"#utility.yul\":195:200   */\n      dup2\n        /* \"#utility.yul\":177:201   */\n      tag_96\n      jump\t// in\n    tag_152:\n        /* \"#utility.yul\":172:175   */\n      dup3\n        /* \"#utility.yul\":165:202   */\n      mstore\n        /* \"#utility.yul\":90:208   */\n      pop\n      pop\n      jump\t// out\n        /* \"#utility.yul\":214:436   */\n    tag_17:\n        /* \"#utility.yul\":307:311   */\n      0x00\n        /* \"#utility.yul\":345:347   */\n      0x20\n        /* \"#utility.yul\":334:343   */\n      dup3\n        /* \"#utility.yul\":330:348   */\n      add\n        /* \"#utility.yul\":322:348   */\n      swap1\n      pop\n        /* \"#utility.yul\":358:429   */\n      tag_154\n        /* \"#utility.yul\":426:427   */\n      0x00\n        /* \"#utility.yul\":415:424   */\n      dup4\n        /* \"#utility.yul\":411:428   */\n      add\n        /* \"#utility.yul\":402:408   */\n      dup5\n        /* \"#utility.yul\":358:429   */\n      tag_97\n      jump\t// in\n    tag_154:\n        /* \"#utility.yul\":214:436   */\n      swap3\n      swap2\n      pop\n      pop\n      jump\t// out\n        /* \"#utility.yul\":442:568   */\n    tag_98:\n        /* \"#utility.yul\":479:486   */\n      0x00\n        /* \"#utility.yul\":519:561   */\n      0xffffffffffffffffffffffffffffffffffffffff\n        /* \"#utility.yul\":512:517   */\n      dup3\n        /* \"#utility.yul\":508:562   */\n      and\n        /* \"#utility.yul\":497:562   */\n      swap1\n      pop\n        /* \"#utility.yul\":442:568   */\n      swap2\n      swap1\n      pop\n      jump\t// out\n        /* \"#utility.yul\":574:670   */\n    tag_99:\n        /* \"#utility.yul\":611:618   */\n      0x00\n        /* \"#utility.yul\":640:664   */\n      tag_157\n        /* \"#utility.yul\":658:663   */\n      dup3\n        /* \"#utility.yul\":640:664   */\n      tag_98\n      jump\t// in\n    tag_157:\n        /* \"#utility.yul\":629:664   */\n      swap1\n      pop\n        /* \"#utility.yul\":574:670   */\n      swap2\n      swap1\n      pop\n      jump\t// out\n        /* \"#utility.yul\":676:794   */\n    tag_100:\n        /* \"#utility.yul\":763:787   */\n      tag_159\n        /* \"#utility.yul\":781:786   */\n      dup2\n        /* \"#utility.yul\":763:787   */\n      tag_99\n      jump\t// in\n    tag_159:\n        /* \"#utility.yul\":758:761   */\n      dup3\n        /* \"#utility.yul\":751:788   */\n      mstore\n        /* \"#utility.yul\":676:794   */\n      pop\n      pop\n      jump\t// out\n        /* \"#utility.yul\":800:1022   */\n    tag_21:\n        /* \"#utility.yul\":893:897   */\n      0x00\n        /* \"#utility.yul\":931:933   */\n      0x20\n        /* \"#utility.yul\":920:929   */\n      dup3\n        /* \"#utility.yul\":916:934   */\n      add\n        /* \"#utility.yul\":908:934   */\n      swap1\n      pop\n        /* \"#utility.yul\":944:1015   */\n      tag_161\n        /* \"#utility.yul\":1012:1013   */\n      0x00\n        /* \"#utility.yul\":1001:1010   */\n      dup4\n        /* \"#utility.yul\":997:1014   */\n      add\n        /* \"#utility.yul\":988:994   */\n      dup5\n        /* \"#utility.yul\":944:1015   */\n      tag_100\n      jump\t// in\n    tag_161:\n        /* \"#utility.yul\":800:1022   */\n      swap3\n      swap2\n      pop\n      pop\n      jump\t// out\n        /* \"#utility.yul\":1028:1103   */\n    tag_101:\n        /* \"#utility.yul\":1061:1067   */\n      0x00\n        /* \"#utility.yul\":1094:1096   */\n      0x40\n        /* \"#utility.yul\":1088:1097   */\n      mload\n        /* \"#utility.yul\":1078:1097   */\n      swap1\n      pop\n        /* \"#utility.yul\":1028:1103   */\n      swap1\n      jump\t// out\n        /* \"#utility.yul\":1109:1226   */\n    tag_102:\n        /* \"#utility.yul\":1218:1219   */\n      0x00\n        /* \"#utility.yul\":1215:1216   */\n      dup1\n        /* \"#utility.yul\":1208:1220   */\n      revert\n        /* \"#utility.yul\":1232:1349   */\n    tag_103:\n        /* \"#utility.yul\":1341:1342   */\n      0x00\n        /* \"#utility.yul\":1338:1339   */\n      dup1\n        /* \"#utility.yul\":1331:1343   */\n      revert\n        /* \"#utility.yul\":1355:1432   */\n    tag_104:\n        /* \"#utility.yul\":1392:1399   */\n      0x00\n        /* \"#utility.yul\":1421:1426   */\n      dup2\n        /* \"#utility.yul\":1410:1426   */\n      swap1\n      pop\n        /* \"#utility.yul\":1355:1432   */\n      swap2\n      swap1\n      pop\n      jump\t// out\n        /* \"#utility.yul\":1438:1560   */\n    tag_105:\n        /* \"#utility.yul\":1511:1535   */\n      tag_167\n        /* \"#utility.yul\":1529:1534   */\n      dup2\n        /* \"#utility.yul\":1511:1535   */\n      tag_104\n      jump\t// in\n    tag_167:\n        /* \"#utility.yul\":1504:1509   */\n      dup2\n        /* \"#utility.yul\":1501:1536   */\n      eq\n        /* \"#utility.yul\":1491:1554   */\n      tag_168\n      jumpi\n        /* \"#utility.yul\":1550:1551   */\n      0x00\n        /* \"#utility.yul\":1547:1548   */\n      dup1\n        /* \"#utility.yul\":1540:1552   */\n      revert\n        /* \"#utility.yul\":1491:1554   */\n    tag_168:\n        /* \"#utility.yul\":1438:1560   */\n      pop\n      jump\t// out\n        /* \"#utility.yul\":1566:1705   */\n    tag_106:\n        /* \"#utility.yul\":1612:1617   */\n      0x00\n        /* \"#utility.yul\":1650:1656   */\n      dup2\n        /* \"#utility.yul\":1637:1657   */\n      calldataload\n        /* \"#utility.yul\":1628:1657   */\n      swap1\n      pop\n        /* \"#utility.yul\":1666:1699   */\n      tag_170\n        /* \"#utility.yul\":1693:1698   */\n      dup2\n        /* \"#utility.yul\":1666:1699   */\n      tag_105\n      jump\t// in\n    tag_170:\n        /* \"#utility.yul\":1566:1705   */\n      swap3\n      swap2\n      pop\n      pop\n      jump\t// out\n        /* \"#utility.yul\":1711:2040   */\n    tag_24:\n        /* \"#utility.yul\":1770:1776   */\n      0x00\n        /* \"#utility.yul\":1819:1821   */\n      0x20\n        /* \"#utility.yul\":1807:1816   */\n      dup3\n        /* \"#utility.yul\":1798:1805   */\n      dup5\n        /* \"#utility.yul\":1794:1817   */\n      sub\n        /* \"#utility.yul\":1790:1822   */\n      slt\n        /* \"#utility.yul\":1787:1906   */\n      iszero\n      tag_172\n      jumpi\n        /* \"#utility.yul\":1825:1904   */\n      tag_173\n      tag_102\n      jump\t// in\n    tag_173:\n        /* \"#utility.yul\":1787:1906   */\n    tag_172:\n        /* \"#utility.yul\":1945:1946   */\n      0x00\n        /* \"#utility.yul\":1970:2023   */\n      tag_174\n        /* \"#utility.yul\":2015:2022   */\n      dup5\n        /* \"#utility.yul\":2006:2012   */\n      dup3\n        /* \"#utility.yul\":1995:2004   */\n      dup6\n        /* \"#utility.yul\":1991:2013   */\n      add\n        /* \"#utility.yul\":1970:2023   */\n      tag_106\n      jump\t// in\n    tag_174:\n        /* \"#utility.yul\":1960:2023   */\n      swap2\n      pop\n        /* \"#utility.yul\":1916:2033   */\n      pop\n        /* \"#utility.yul\":1711:2040   */\n      swap3\n      swap2\n      pop\n      pop\n      jump\t// out\n        /* \"#utility.yul\":2046:2168   */\n    tag_107:\n        /* \"#utility.yul\":2119:2143   */\n      tag_176\n        /* \"#utility.yul\":2137:2142   */\n      dup2\n        /* \"#utility.yul\":2119:2143   */\n      tag_99\n      jump\t// in\n    tag_176:\n        /* \"#utility.yul\":2112:2117   */\n      dup2\n        /* \"#utility.yul\":2109:2144   */\n      eq\n        /* \"#utility.yul\":2099:2162   */\n      tag_177\n      jumpi\n        /* \"#utility.yul\":2158:2159   */\n      0x00\n        /* \"#utility.yul\":2155:2156   */\n      dup1\n        /* \"#utility.yul\":2148:2160   */\n      revert\n        /* \"#utility.yul\":2099:2162   */\n    tag_177:\n        /* \"#utility.yul\":2046:2168   */\n      pop\n      jump\t// out\n        /* \"#utility.yul\":2174:2313   */\n    tag_108:\n        /* \"#utility.yul\":2220:2225   */\n      0x00\n        /* \"#utility.yul\":2258:2264   */\n      dup2\n        /* \"#utility.yul\":2245:2265   */\n      calldataload\n        /* \"#utility.yul\":2236:2265   */\n      swap1\n      pop\n        /* \"#utility.yul\":2274:2307   */\n      tag_179\n        /* \"#utility.yul\":2301:2306   */\n      dup2\n        /* \"#utility.yul\":2274:2307   */\n      tag_107\n      jump\t// in\n    tag_179:\n        /* \"#utility.yul\":2174:2313   */\n      swap3\n      swap2\n      pop\n      pop\n      jump\t// out\n        /* \"#utility.yul\":2319:2441   */\n    tag_109:\n        /* \"#utility.yul\":2392:2416   */\n      tag_181\n        /* \"#utility.yul\":2410:2415   */\n      dup2\n        /* \"#utility.yul\":2392:2416   */\n      tag_96\n      jump\t// in\n    tag_181:\n        /* \"#utility.yul\":2385:2390   */\n      dup2\n        /* \"#utility.yul\":2382:2417   */\n      eq\n        /* \"#utility.yul\":2372:2435   */\n      tag_182\n      jumpi\n        /* \"#utility.yul\":2431:2432   */\n      0x00\n        /* \"#utility.yul\":2428:2429   */\n      dup1\n        /* \"#utility.yul\":2421:2433   */\n      revert\n        /* \"#utility.yul\":2372:2435   */\n    tag_182:\n        /* \"#utility.yul\":2319:2441   */\n      pop\n      jump\t// out\n        /* \"#utility.yul\":2447:2586   */\n    tag_110:\n        /* \"#utility.yul\":2493:2498   */\n      0x00\n        /* \"#utility.yul\":2531:2537   */\n      dup2\n        /* \"#utility.yul\":2518:2538   */\n      calldataload\n        /* \"#utility.yul\":2509:2538   */\n      swap1\n      pop\n        /* \"#utility.yul\":2547:2580   */\n      tag_184\n        /* \"#utility.yul\":2574:2579   */\n      dup2\n        /* \"#utility.yul\":2547:2580   */\n      tag_109\n      jump\t// in\n    tag_184:\n        /* \"#utility.yul\":2447:2586   */\n      swap3\n      swap2\n      pop\n      pop\n      jump\t// out\n        /* \"#utility.yul\":2592:3211   */\n    tag_32:\n        /* \"#utility.yul\":2669:2675   */\n      0x00\n        /* \"#utility.yul\":2677:2683   */\n      dup1\n        /* \"#utility.yul\":2685:2691   */\n      0x00\n        /* \"#utility.yul\":2734:2736   */\n      0x60\n        /* \"#utility.yul\":2722:2731   */\n      dup5\n        /* \"#utility.yul\":2713:2720   */\n      dup7\n        /* \"#utility.yul\":2709:2732   */\n      sub\n        /* \"#utility.yul\":2705:2737   */\n      slt\n        /* \"#utility.yul\":2702:2821   */\n      iszero\n      tag_186\n      jumpi\n        /* \"#utility.yul\":2740:2819   */\n      tag_187\n      tag_102\n      jump\t// in\n    tag_187:\n        /* \"#utility.yul\":2702:2821   */\n    tag_186:\n        /* \"#utility.yul\":2860:2861   */\n      0x00\n        /* \"#utility.yul\":2885:2938   */\n      tag_188\n        /* \"#utility.yul\":2930:2937   */\n      dup7\n        /* \"#utility.yul\":2921:2927   */\n      dup3\n        /* \"#utility.yul\":2910:2919   */\n      dup8\n        /* \"#utility.yul\":2906:2928   */\n      add\n        /* \"#utility.yul\":2885:2938   */\n      tag_108\n      jump\t// in\n    tag_188:\n        /* \"#utility.yul\":2875:2938   */\n      swap4\n      pop\n        /* \"#utility.yul\":2831:2948   */\n      pop\n        /* \"#utility.yul\":2987:2989   */\n      0x20\n        /* \"#utility.yul\":3013:3066   */\n      tag_189\n        /* \"#utility.yul\":3058:3065   */\n      dup7\n        /* \"#utility.yul\":3049:3055   */\n      dup3\n        /* \"#utility.yul\":3038:3047   */\n      dup8\n        /* \"#utility.yul\":3034:3056   */\n      add\n        /* \"#utility.yul\":3013:3066   */\n      tag_110\n      jump\t// in\n    tag_189:\n        /* \"#utility.yul\":3003:3066   */\n      swap3\n      pop\n        /* \"#utility.yul\":2958:3076   */\n      pop\n        /* \"#utility.yul\":3115:3117   */\n      0x40\n        /* \"#utility.yul\":3141:3194   */\n      tag_190\n        /* \"#utility.yul\":3186:3193   */\n      dup7\n        /* \"#utility.yul\":3177:3183   */\n      dup3\n        /* \"#utility.yul\":3166:3175   */\n      dup8\n        /* \"#utility.yul\":3162:3184   */\n      add\n        /* \"#utility.yul\":3141:3194   */\n      tag_110\n      jump\t// in\n    tag_190:\n        /* \"#utility.yul\":3131:3194   */\n      swap2\n      pop\n        /* \"#utility.yul\":3086:3204   */\n      pop\n        /* \"#utility.yul\":2592:3211   */\n      swap3\n      pop\n      swap3\n      pop\n      swap3\n      jump\t// out\n        /* \"#utility.yul\":3217:3546   */\n    tag_36:\n        /* \"#utility.yul\":3276:3282   */\n      0x00\n        /* \"#utility.yul\":3325:3327   */\n      0x20\n        /* \"#utility.yul\":3313:3322   */\n      dup3\n        /* \"#utility.yul\":3304:3311   */\n      dup5\n        /* \"#utility.yul\":3300:3323   */\n      sub\n        /* \"#utility.yul\":3296:3328   */\n      slt\n        /* \"#utility.yul\":3293:3412   */\n      iszero\n      tag_192\n      jumpi\n        /* \"#utility.yul\":3331:3410   */\n      tag_193\n      tag_102\n      jump\t// in\n    tag_193:\n        /* \"#utility.yul\":3293:3412   */\n    tag_192:\n        /* \"#utility.yul\":3451:3452   */\n      0x00\n        /* \"#utility.yul\":3476:3529   */\n      tag_194\n        /* \"#utility.yul\":3521:3528   */\n      dup5\n        /* \"#utility.yul\":3512:3518   */\n      dup3\n        /* \"#utility.yul\":3501:3510   */\n      dup6\n        /* \"#utility.yul\":3497:3519   */\n      add\n        /* \"#utility.yul\":3476:3529   */\n      tag_110\n      jump\t// in\n    tag_194:\n        /* \"#utility.yul\":3466:3529   */\n      swap2\n      pop\n        /* \"#utility.yul\":3422:3539   */\n      pop\n        /* \"#utility.yul\":3217:3546   */\n      swap3\n      swap2\n      pop\n      pop\n      jump\t// out\n        /* \"#utility.yul\":3552:3651   */\n    tag_111:\n        /* \"#utility.yul\":3604:3610   */\n      0x00\n        /* \"#utility.yul\":3638:3643   */\n      dup2\n        /* \"#utility.yul\":3632:3644   */\n      mload\n        /* \"#utility.yul\":3622:3644   */\n      swap1\n      pop\n        /* \"#utility.yul\":3552:3651   */\n      swap2\n      swap1\n      pop\n      jump\t// out\n        /* \"#utility.yul\":3657:3826   */\n    tag_112:\n        /* \"#utility.yul\":3741:3752   */\n      0x00\n        /* \"#utility.yul\":3775:3781   */\n      dup3\n        /* \"#utility.yul\":3770:3773   */\n      dup3\n        /* \"#utility.yul\":3763:3782   */\n      mstore\n        /* \"#utility.yul\":3815:3819   */\n      0x20\n        /* \"#utility.yul\":3810:3813   */\n      dup3\n        /* \"#utility.yul\":3806:3820   */\n      add\n        /* \"#utility.yul\":3791:3820   */\n      swap1\n      pop\n        /* \"#utility.yul\":3657:3826   */\n      swap3\n      swap2\n      pop\n      pop\n      jump\t// out\n        /* \"#utility.yul\":3832:3971   */\n    tag_113:\n        /* \"#utility.yul\":3921:3927   */\n      dup3\n        /* \"#utility.yul\":3916:3919   */\n      dup2\n        /* \"#utility.yul\":3911:3914   */\n      dup4\n        /* \"#utility.yul\":3905:3928   */\n      mcopy\n        /* \"#utility.yul\":3962:3963   */\n      0x00\n        /* \"#utility.yul\":3953:3959   */\n      dup4\n        /* \"#utility.yul\":3948:3951   */\n      dup4\n        /* \"#utility.yul\":3944:3960   */\n      add\n        /* \"#utility.yul\":3937:3964   */\n      mstore\n        /* \"#utility.yul\":3832:3971   */\n      pop\n      pop\n      pop\n      jump\t// out\n        /* \"#utility.yul\":3977:4079   */\n    tag_114:\n        /* \"#utility.yul\":4018:4024   */\n      0x00\n        /* \"#utility.yul\":4069:4071   */\n      0x1f\n        /* \"#utility.yul\":4065:4072   */\n      not\n        /* \"#utility.yul\":4060:4062   */\n      0x1f\n        /* \"#utility.yul\":4053:4058   */\n      dup4\n        /* \"#utility.yul\":4049:4063   */\n      add\n        /* \"#utility.yul\":4045:4073   */\n      and\n        /* \"#utility.yul\":4035:4073   */\n      swap1\n      pop\n        /* \"#utility.yul\":3977:4079   */\n      swap2\n      swap1\n      pop\n      jump\t// out\n        /* \"#utility.yul\":4085:4462   */\n    tag_115:\n        /* \"#utility.yul\":4173:4176   */\n      0x00\n        /* \"#utility.yul\":4201:4240   */\n      tag_200\n        /* \"#utility.yul\":4234:4239   */\n      dup3\n        /* \"#utility.yul\":4201:4240   */\n      tag_111\n      jump\t// in\n    tag_200:\n        /* \"#utility.yul\":4256:4327   */\n      tag_201\n        /* \"#utility.yul\":4320:4326   */\n      dup2\n        /* \"#utility.yul\":4315:4318   */\n      dup6\n        /* \"#utility.yul\":4256:4327   */\n      tag_112\n      jump\t// in\n    tag_201:\n        /* \"#utility.yul\":4249:4327   */\n      swap4\n      pop\n        /* \"#utility.yul\":4336:4401   */\n      tag_202\n        /* \"#utility.yul\":4394:4400   */\n      dup2\n        /* \"#utility.yul\":4389:4392   */\n      dup6\n        /* \"#utility.yul\":4382:4386   */\n      0x20\n        /* \"#utility.yul\":4375:4380   */\n      dup7\n        /* \"#utility.yul\":4371:4387   */\n      add\n        /* \"#utility.yul\":4336:4401   */\n      tag_113\n      jump\t// in\n    tag_202:\n        /* \"#utility.yul\":4426:4455   */\n      tag_203\n        /* \"#utility.yul\":4448:4454   */\n      dup2\n        /* \"#utility.yul\":4426:4455   */\n      tag_114\n      jump\t// in\n    tag_203:\n        /* \"#utility.yul\":4421:4424   */\n      dup5\n        /* \"#utility.yul\":4417:4456   */\n      add\n        /* \"#utility.yul\":4410:4456   */\n      swap2\n      pop\n        /* \"#utility.yul\":4177:4462   */\n      pop\n        /* \"#utility.yul\":4085:4462   */\n      swap3\n      swap2\n      pop\n      pop\n      jump\t// out\n        /* \"#utility.yul\":4468:4558   */\n    tag_116:\n        /* \"#utility.yul\":4502:4509   */\n      0x00\n        /* \"#utility.yul\":4545:4550   */\n      dup2\n        /* \"#utility.yul\":4538:4551   */\n      iszero\n        /* \"#utility.yul\":4531:4552   */\n      iszero\n        /* \"#utility.yul\":4520:4552   */\n      swap1\n      pop\n        /* \"#utility.yul\":4468:4558   */\n      swap2\n      swap1\n      pop\n      jump\t// out\n        /* \"#utility.yul\":4564:4673   */\n    tag_117:\n        /* \"#utility.yul\":4645:4666   */\n      tag_206\n        /* \"#utility.yul\":4660:4665   */\n      dup2\n        /* \"#utility.yul\":4645:4666   */\n      tag_116\n      jump\t// in\n    tag_206:\n        /* \"#utility.yul\":4640:4643   */\n      dup3\n        /* \"#utility.yul\":4633:4667   */\n      mstore\n        /* \"#utility.yul\":4564:4673   */\n      pop\n      pop\n      jump\t// out\n        /* \"#utility.yul\":4679:5533   */\n    tag_39:\n        /* \"#utility.yul\":4926:4930   */\n      0x00\n        /* \"#utility.yul\":4964:4967   */\n      0xc0\n        /* \"#utility.yul\":4953:4962   */\n      dup3\n        /* \"#utility.yul\":4949:4968   */\n      add\n        /* \"#utility.yul\":4941:4968   */\n      swap1\n      pop\n        /* \"#utility.yul\":4978:5049   */\n      tag_208\n        /* \"#utility.yul\":5046:5047   */\n      0x00\n        /* \"#utility.yul\":5035:5044   */\n      dup4\n        /* \"#utility.yul\":5031:5048   */\n      add\n        /* \"#utility.yul\":5022:5028   */\n      dup10\n        /* \"#utility.yul\":4978:5049   */\n      tag_100\n      jump\t// in\n    tag_208:\n        /* \"#utility.yul\":5059:5131   */\n      tag_209\n        /* \"#utility.yul\":5127:5129   */\n      0x20\n        /* \"#utility.yul\":5116:5125   */\n      dup4\n        /* \"#utility.yul\":5112:5130   */\n      add\n        /* \"#utility.yul\":5103:5109   */\n      dup9\n        /* \"#utility.yul\":5059:5131   */\n      tag_100\n      jump\t// in\n    tag_209:\n        /* \"#utility.yul\":5178:5187   */\n      dup2\n        /* \"#utility.yul\":5172:5176   */\n      dup2\n        /* \"#utility.yul\":5168:5188   */\n      sub\n        /* \"#utility.yul\":5163:5165   */\n      0x40\n        /* \"#utility.yul\":5152:5161   */\n      dup4\n        /* \"#utility.yul\":5148:5166   */\n      add\n        /* \"#utility.yul\":5141:5189   */\n      mstore\n        /* \"#utility.yul\":5206:5284   */\n      tag_210\n        /* \"#utility.yul\":5279:5283   */\n      dup2\n        /* \"#utility.yul\":5270:5276   */\n      dup8\n        /* \"#utility.yul\":5206:5284   */\n      tag_115\n      jump\t// in\n    tag_210:\n        /* \"#utility.yul\":5198:5284   */\n      swap1\n      pop\n        /* \"#utility.yul\":5294:5366   */\n      tag_211\n        /* \"#utility.yul\":5362:5364   */\n      0x60\n        /* \"#utility.yul\":5351:5360   */\n      dup4\n        /* \"#utility.yul\":5347:5365   */\n      add\n        /* \"#utility.yul\":5338:5344   */\n      dup7\n        /* \"#utility.yul\":5294:5366   */\n      tag_97\n      jump\t// in\n    tag_211:\n        /* \"#utility.yul\":5376:5449   */\n      tag_212\n        /* \"#utility.yul\":5444:5447   */\n      0x80\n        /* \"#utility.yul\":5433:5442   */\n      dup4\n        /* \"#utility.yul\":5429:5448   */\n      add\n        /* \"#utility.yul\":5420:5426   */\n      dup6\n        /* \"#utility.yul\":5376:5449   */\n      tag_97\n      jump\t// in\n    tag_212:\n        /* \"#utility.yul\":5459:5526   */\n      tag_213\n        /* \"#utility.yul\":5521:5524   */\n      0xa0\n        /* \"#utility.yul\":5510:5519   */\n      dup4\n        /* \"#utility.yul\":5506:5525   */\n      add\n        /* \"#utility.yul\":5497:5503   */\n      dup5\n        /* \"#utility.yul\":5459:5526   */\n      tag_117\n      jump\t// in\n    tag_213:\n        /* \"#utility.yul\":4679:5533   */\n      swap8\n      swap7\n      pop\n      pop\n      pop\n      pop\n      pop\n      pop\n      pop\n      jump\t// out\n        /* \"#utility.yul\":5539:5868   */\n    tag_42:\n        /* \"#utility.yul\":5598:5604   */\n      0x00\n        /* \"#utility.yul\":5647:5649   */\n      0x20\n        /* \"#utility.yul\":5635:5644   */\n      dup3\n        /* \"#utility.yul\":5626:5633   */\n      dup5\n        /* \"#utility.yul\":5622:5645   */\n      sub\n        /* \"#utility.yul\":5618:5650   */\n      slt\n        /* \"#utility.yul\":5615:5734   */\n      iszero\n      tag_215\n      jumpi\n        /* \"#utility.yul\":5653:5732   */\n      tag_216\n      tag_102\n      jump\t// in\n    tag_216:\n        /* \"#utility.yul\":5615:5734   */\n    tag_215:\n        /* \"#utility.yul\":5773:5774   */\n      0x00\n        /* \"#utility.yul\":5798:5851   */\n      tag_217\n        /* \"#utility.yul\":5843:5850   */\n      dup5\n        /* \"#utility.yul\":5834:5840   */\n      dup3\n        /* \"#utility.yul\":5823:5832   */\n      dup6\n        /* \"#utility.yul\":5819:5841   */\n      add\n        /* \"#utility.yul\":5798:5851   */\n      tag_108\n      jump\t// in\n    tag_217:\n        /* \"#utility.yul\":5788:5851   */\n      swap2\n      pop\n        /* \"#utility.yul\":5744:5861   */\n      pop\n        /* \"#utility.yul\":5539:5868   */\n      swap3\n      swap2\n      pop\n      pop\n      jump\t// out\n        /* \"#utility.yul\":5874:5991   */\n    tag_118:\n        /* \"#utility.yul\":5983:5984   */\n      0x00\n        /* \"#utility.yul\":5980:5981   */\n      dup1\n        /* \"#utility.yul\":5973:5985   */\n      revert\n        /* \"#utility.yul\":5997:6114   */\n    tag_119:\n        /* \"#utility.yul\":6106:6107   */\n      0x00\n        /* \"#utility.yul\":6103:6104   */\n      dup1\n        /* \"#utility.yul\":6096:6108   */\n      revert\n        /* \"#utility.yul\":6120:6300   */\n    tag_120:\n        /* \"#utility.yul\":6168:6245   */\n      0x4e487b7100000000000000000000000000000000000000000000000000000000\n        /* \"#utility.yul\":6165:6166   */\n      0x00\n        /* \"#utility.yul\":6158:6246   */\n      mstore\n        /* \"#utility.yul\":6265:6269   */\n      0x41\n        /* \"#utility.yul\":6262:6263   */\n      0x04\n        /* \"#utility.yul\":6255:6270   */\n      mstore\n        /* \"#utility.yul\":6289:6293   */\n      0x24\n        /* \"#utility.yul\":6286:6287   */\n      0x00\n        /* \"#utility.yul\":6279:6294   */\n      revert\n        /* \"#utility.yul\":6306:6587   */\n    tag_121:\n        /* \"#utility.yul\":6389:6416   */\n      tag_222\n        /* \"#utility.yul\":6411:6415   */\n      dup3\n        /* \"#utility.yul\":6389:6416   */\n      tag_114\n      jump\t// in\n    tag_222:\n        /* \"#utility.yul\":6381:6387   */\n      dup2\n        /* \"#utility.yul\":6377:6417   */\n      add\n        /* \"#utility.yul\":6519:6525   */\n      dup2\n        /* \"#utility.yul\":6507:6517   */\n      dup2\n        /* \"#utility.yul\":6504:6526   */\n      lt\n        /* \"#utility.yul\":6483:6501   */\n      0xffffffffffffffff\n        /* \"#utility.yul\":6471:6481   */\n      dup3\n        /* \"#utility.yul\":6468:6502   */\n      gt\n        /* \"#utility.yul\":6465:6527   */\n      or\n        /* \"#utility.yul\":6462:6550   */\n      iszero\n      tag_223\n      jumpi\n        /* \"#utility.yul\":6530:6548   */\n      tag_224\n      tag_120\n      jump\t// in\n    tag_224:\n        /* \"#utility.yul\":6462:6550   */\n    tag_223:\n        /* \"#utility.yul\":6570:6580   */\n      dup1\n        /* \"#utility.yul\":6566:6568   */\n      0x40\n        /* \"#utility.yul\":6559:6581   */\n      mstore\n        /* \"#utility.yul\":6349:6587   */\n      pop\n        /* \"#utility.yul\":6306:6587   */\n      pop\n      pop\n      jump\t// out\n        /* \"#utility.yul\":6593:6722   */\n    tag_122:\n        /* \"#utility.yul\":6627:6633   */\n      0x00\n        /* \"#utility.yul\":6654:6674   */\n      tag_226\n      tag_101\n      jump\t// in\n    tag_226:\n        /* \"#utility.yul\":6644:6674   */\n      swap1\n      pop\n        /* \"#utility.yul\":6683:6716   */\n      tag_227\n        /* \"#utility.yul\":6711:6715   */\n      dup3\n        /* \"#utility.yul\":6703:6709   */\n      dup3\n        /* \"#utility.yul\":6683:6716   */\n      tag_121\n      jump\t// in\n    tag_227:\n        /* \"#utility.yul\":6593:6722   */\n      swap2\n      swap1\n      pop\n      jump\t// out\n        /* \"#utility.yul\":6728:7036   */\n    tag_123:\n        /* \"#utility.yul\":6790:6794   */\n      0x00\n        /* \"#utility.yul\":6880:6898   */\n      0xffffffffffffffff\n        /* \"#utility.yul\":6872:6878   */\n      dup3\n        /* \"#utility.yul\":6869:6899   */\n      gt\n        /* \"#utility.yul\":6866:6922   */\n      iszero\n      tag_229\n      jumpi\n        /* \"#utility.yul\":6902:6920   */\n      tag_230\n      tag_120\n      jump\t// in\n    tag_230:\n        /* \"#utility.yul\":6866:6922   */\n    tag_229:\n        /* \"#utility.yul\":6940:6969   */\n      tag_231\n        /* \"#utility.yul\":6962:6968   */\n      dup3\n        /* \"#utility.yul\":6940:6969   */\n      tag_114\n      jump\t// in\n    tag_231:\n        /* \"#utility.yul\":6932:6969   */\n      swap1\n      pop\n        /* \"#utility.yul\":7024:7028   */\n      0x20\n        /* \"#utility.yul\":7018:7022   */\n      dup2\n        /* \"#utility.yul\":7014:7029   */\n      add\n        /* \"#utility.yul\":7006:7029   */\n      swap1\n      pop\n        /* \"#utility.yul\":6728:7036   */\n      swap2\n      swap1\n      pop\n      jump\t// out\n        /* \"#utility.yul\":7042:7476   */\n    tag_124:\n        /* \"#utility.yul\":7131:7136   */\n      0x00\n        /* \"#utility.yul\":7156:7222   */\n      tag_233\n        /* \"#utility.yul\":7172:7221   */\n      tag_234\n        /* \"#utility.yul\":7214:7220   */\n      dup5\n        /* \"#utility.yul\":7172:7221   */\n      tag_123\n      jump\t// in\n    tag_234:\n        /* \"#utility.yul\":7156:7222   */\n      tag_122\n      jump\t// in\n    tag_233:\n        /* \"#utility.yul\":7147:7222   */\n      swap1\n      pop\n        /* \"#utility.yul\":7245:7251   */\n      dup3\n        /* \"#utility.yul\":7238:7243   */\n      dup2\n        /* \"#utility.yul\":7231:7252   */\n      mstore\n        /* \"#utility.yul\":7283:7287   */\n      0x20\n        /* \"#utility.yul\":7276:7281   */\n      dup2\n        /* \"#utility.yul\":7272:7288   */\n      add\n        /* \"#utility.yul\":7321:7324   */\n      dup5\n        /* \"#utility.yul\":7312:7318   */\n      dup5\n        /* \"#utility.yul\":7307:7310   */\n      dup5\n        /* \"#utility.yul\":7303:7319   */\n      add\n        /* \"#utility.yul\":7300:7325   */\n      gt\n        /* \"#utility.yul\":7297:7409   */\n      iszero\n      tag_235\n      jumpi\n        /* \"#utility.yul\":7328:7407   */\n      tag_236\n      tag_119\n      jump\t// in\n    tag_236:\n        /* \"#utility.yul\":7297:7409   */\n    tag_235:\n        /* \"#utility.yul\":7418:7470   */\n      tag_237\n        /* \"#utility.yul\":7463:7469   */\n      dup5\n        /* \"#utility.yul\":7458:7461   */\n      dup3\n        /* \"#utility.yul\":7453:7456   */\n      dup6\n        /* \"#utility.yul\":7418:7470   */\n      tag_113\n      jump\t// in\n    tag_237:\n        /* \"#utility.yul\":7137:7476   */\n      pop\n        /* \"#utility.yul\":7042:7476   */\n      swap4\n      swap3\n      pop\n      pop\n      pop\n      jump\t// out\n        /* \"#utility.yul\":7496:7851   */\n    tag_125:\n        /* \"#utility.yul\":7563:7568   */\n      0x00\n        /* \"#utility.yul\":7612:7615   */\n      dup3\n        /* \"#utility.yul\":7605:7609   */\n      0x1f\n        /* \"#utility.yul\":7597:7603   */\n      dup4\n        /* \"#utility.yul\":7593:7610   */\n      add\n        /* \"#utility.yul\":7589:7616   */\n      slt\n        /* \"#utility.yul\":7579:7701   */\n      tag_239\n      jumpi\n        /* \"#utility.yul\":7620:7699   */\n      tag_240\n      tag_118\n      jump\t// in\n    tag_240:\n        /* \"#utility.yul\":7579:7701   */\n    tag_239:\n        /* \"#utility.yul\":7730:7736   */\n      dup2\n        /* \"#utility.yul\":7724:7737   */\n      mload\n        /* \"#utility.yul\":7755:7845   */\n      tag_241\n        /* \"#utility.yul\":7841:7844   */\n      dup5\n        /* \"#utility.yul\":7833:7839   */\n      dup3\n        /* \"#utility.yul\":7826:7830   */\n      0x20\n        /* \"#utility.yul\":7818:7824   */\n      dup7\n        /* \"#utility.yul\":7814:7831   */\n      add\n        /* \"#utility.yul\":7755:7845   */\n      tag_124\n      jump\t// in\n    tag_241:\n        /* \"#utility.yul\":7746:7845   */\n      swap2\n      pop\n        /* \"#utility.yul\":7569:7851   */\n      pop\n        /* \"#utility.yul\":7496:7851   */\n      swap3\n      swap2\n      pop\n      pop\n      jump\t// out\n        /* \"#utility.yul\":7857:8381   */\n    tag_60:\n        /* \"#utility.yul\":7937:7943   */\n      0x00\n        /* \"#utility.yul\":7986:7988   */\n      0x20\n        /* \"#utility.yul\":7974:7983   */\n      dup3\n        /* \"#utility.yul\":7965:7972   */\n      dup5\n        /* \"#utility.yul\":7961:7984   */\n      sub\n        /* \"#utility.yul\":7957:7989   */\n      slt\n        /* \"#utility.yul\":7954:8073   */\n      iszero\n      tag_243\n      jumpi\n        /* \"#utility.yul\":7992:8071   */\n      tag_244\n      tag_102\n      jump\t// in\n    tag_244:\n        /* \"#utility.yul\":7954:8073   */\n    tag_243:\n        /* \"#utility.yul\":8133:8134   */\n      0x00\n        /* \"#utility.yul\":8122:8131   */\n      dup3\n        /* \"#utility.yul\":8118:8135   */\n      add\n        /* \"#utility.yul\":8112:8136   */\n      mload\n        /* \"#utility.yul\":8163:8181   */\n      0xffffffffffffffff\n        /* \"#utility.yul\":8155:8161   */\n      dup2\n        /* \"#utility.yul\":8152:8182   */\n      gt\n        /* \"#utility.yul\":8149:8266   */\n      iszero\n      tag_245\n      jumpi\n        /* \"#utility.yul\":8185:8264   */\n      tag_246\n      tag_103\n      jump\t// in\n    tag_246:\n        /* \"#utility.yul\":8149:8266   */\n    tag_245:\n        /* \"#utility.yul\":8290:8364   */\n      tag_247\n        /* \"#utility.yul\":8356:8363   */\n      dup5\n        /* \"#utility.yul\":8347:8353   */\n      dup3\n        /* \"#utility.yul\":8336:8345   */\n      dup6\n        /* \"#utility.yul\":8332:8354   */\n      add\n        /* \"#utility.yul\":8290:8364   */\n      tag_125\n      jump\t// in\n    tag_247:\n        /* \"#utility.yul\":8280:8364   */\n      swap2\n      pop\n        /* \"#utility.yul\":8083:8374   */\n      pop\n        /* \"#utility.yul\":7857:8381   */\n      swap3\n      swap2\n      pop\n      pop\n      jump\t// out\n        /* \"#utility.yul\":8387:8567   */\n    tag_126:\n        /* \"#utility.yul\":8435:8512   */\n      0x4e487b7100000000000000000000000000000000000000000000000000000000\n        /* \"#utility.yul\":8432:8433   */\n      0x00\n        /* \"#utility.yul\":8425:8513   */\n      mstore\n        /* \"#utility.yul\":8532:8536   */\n      0x22\n        /* \"#utility.yul\":8529:8530   */\n      0x04\n        /* \"#utility.yul\":8522:8537   */\n      mstore\n        /* \"#utility.yul\":8556:8560   */\n      0x24\n        /* \"#utility.yul\":8553:8554   */\n      0x00\n        /* \"#utility.yul\":8546:8561   */\n      revert\n        /* \"#utility.yul\":8573:8893   */\n    tag_68:\n        /* \"#utility.yul\":8617:8623   */\n      0x00\n        /* \"#utility.yul\":8654:8655   */\n      0x02\n        /* \"#utility.yul\":8648:8652   */\n      dup3\n        /* \"#utility.yul\":8644:8656   */\n      div\n        /* \"#utility.yul\":8634:8656   */\n      swap1\n      pop\n        /* \"#utility.yul\":8701:8702   */\n      0x01\n        /* \"#utility.yul\":8695:8699   */\n      dup3\n        /* \"#utility.yul\":8691:8703   */\n      and\n        /* \"#utility.yul\":8722:8740   */\n      dup1\n        /* \"#utility.yul\":8712:8793   */\n      tag_250\n      jumpi\n        /* \"#utility.yul\":8778:8782   */\n      0x7f\n        /* \"#utility.yul\":8770:8776   */\n      dup3\n        /* \"#utility.yul\":8766:8783   */\n      and\n        /* \"#utility.yul\":8756:8783   */\n      swap2\n      pop\n        /* \"#utility.yul\":8712:8793   */\n    tag_250:\n        /* \"#utility.yul\":8840:8842   */\n      0x20\n        /* \"#utility.yul\":8832:8838   */\n      dup3\n        /* \"#utility.yul\":8829:8843   */\n      lt\n        /* \"#utility.yul\":8809:8827   */\n      dup2\n        /* \"#utility.yul\":8806:8844   */\n      sub\n        /* \"#utility.yul\":8803:8887   */\n      tag_251\n      jumpi\n        /* \"#utility.yul\":8859:8877   */\n      tag_252\n      tag_126\n      jump\t// in\n    tag_252:\n        /* \"#utility.yul\":8803:8887   */\n    tag_251:\n        /* \"#utility.yul\":8624:8893   */\n      pop\n        /* \"#utility.yul\":8573:8893   */\n      swap2\n      swap1\n      pop\n      jump\t// out\n        /* \"#utility.yul\":8899:9040   */\n    tag_127:\n        /* \"#utility.yul\":8948:8952   */\n      0x00\n        /* \"#utility.yul\":8971:8974   */\n      dup2\n        /* \"#utility.yul\":8963:8974   */\n      swap1\n      pop\n        /* \"#utility.yul\":8994:8997   */\n      dup2\n        /* \"#utility.yul\":8991:8992   */\n      0x00\n        /* \"#utility.yul\":8984:8998   */\n      mstore\n        /* \"#utility.yul\":9028:9032   */\n      0x20\n        /* \"#utility.yul\":9025:9026   */\n      0x00\n        /* \"#utility.yul\":9015:9033   */\n      keccak256\n        /* \"#utility.yul\":9007:9033   */\n      swap1\n      pop\n        /* \"#utility.yul\":8899:9040   */\n      swap2\n      swap1\n      pop\n      jump\t// out\n        /* \"#utility.yul\":9046:9139   */\n    tag_128:\n        /* \"#utility.yul\":9083:9089   */\n      0x00\n        /* \"#utility.yul\":9130:9132   */\n      0x20\n        /* \"#utility.yul\":9125:9127   */\n      0x1f\n        /* \"#utility.yul\":9118:9123   */\n      dup4\n        /* \"#utility.yul\":9114:9128   */\n      add\n        /* \"#utility.yul\":9110:9133   */\n      div\n        /* \"#utility.yul\":9100:9133   */\n      swap1\n      pop\n        /* \"#utility.yul\":9046:9139   */\n      swap2\n      swap1\n      pop\n      jump\t// out\n        /* \"#utility.yul\":9145:9252   */\n    tag_129:\n        /* \"#utility.yul\":9189:9197   */\n      0x00\n        /* \"#utility.yul\":9239:9244   */\n      dup3\n        /* \"#utility.yul\":9233:9237   */\n      dup3\n        /* \"#utility.yul\":9229:9245   */\n      shl\n        /* \"#utility.yul\":9208:9245   */\n      swap1\n      pop\n        /* \"#utility.yul\":9145:9252   */\n      swap3\n      swap2\n      pop\n      pop\n      jump\t// out\n        /* \"#utility.yul\":9258:9651   */\n    tag_130:\n        /* \"#utility.yul\":9327:9333   */\n      0x00\n        /* \"#utility.yul\":9377:9378   */\n      0x08\n        /* \"#utility.yul\":9365:9375   */\n      dup4\n        /* \"#utility.yul\":9361:9379   */\n      mul\n        /* \"#utility.yul\":9400:9497   */\n      tag_257\n        /* \"#utility.yul\":9430:9496   */\n      0xffffffffffffffffffffffffffffffffffffffffffffffffffffffffffffffff\n        /* \"#utility.yul\":9419:9428   */\n      dup3\n        /* \"#utility.yul\":9400:9497   */\n      tag_129\n      jump\t// in\n    tag_257:\n        /* \"#utility.yul\":9518:9557   */\n      tag_258\n        /* \"#utility.yul\":9548:9556   */\n      dup7\n        /* \"#utility.yul\":9537:9546   */\n      dup4\n        /* \"#utility.yul\":9518:9557   */\n      tag_129\n      jump\t// in\n    tag_258:\n        /* \"#utility.yul\":9506:9557   */\n      swap6\n      pop\n        /* \"#utility.yul\":9590:9594   */\n      dup1\n        /* \"#utility.yul\":9586:9595   */\n      not\n        /* \"#utility.yul\":9579:9584   */\n      dup5\n        /* \"#utility.yul\":9575:9596   */\n      and\n        /* \"#utility.yul\":9566:9596   */\n      swap4\n      pop\n        /* \"#utility.yul\":9639:9643   */\n      dup1\n        /* \"#utility.yul\":9629:9637   */\n      dup7\n        /* \"#utility.yul\":9625:9644   */\n      and\n        /* \"#utility.yul\":9618:9623   */\n      dup5\n        /* \"#utility.yul\":9615:9645   */\n      or\n        /* \"#utility.yul\":9605:9645   */\n      swap3\n      pop\n        /* \"#utility.yul\":9334:9651   */\n      pop\n      pop\n        /* \"#utility.yul\":9258:9651   */\n      swap4\n      swap3\n      pop\n      pop\n      pop\n      jump\t// out\n        /* \"#utility.yul\":9657:9717   */\n    tag_131:\n        /* \"#utility.yul\":9685:9688   */\n      0x00\n        /* \"#utility.yul\":9706:9711   */\n      dup2\n        /* \"#utility.yul\":9699:9711   */\n      swap1\n      pop\n        /* \"#utility.yul\":9657:9717   */\n      swap2\n      swap1\n      pop\n      jump\t// out\n        /* \"#utility.yul\":9723:9865   */\n    tag_132:\n        /* \"#utility.yul\":9773:9782   */\n      0x00\n        /* \"#utility.yul\":9806:9859   */\n      tag_261\n        /* \"#utility.yul\":9824:9858   */\n      tag_262\n        /* \"#utility.yul\":9833:9857   */\n      tag_263\n        /* \"#utility.yul\":9851:9856   */\n      dup5\n        /* \"#utility.yul\":9833:9857   */\n      tag_96\n      jump\t// in\n    tag_263:\n        /* \"#utility.yul\":9824:9858   */\n      tag_131\n      jump\t// in\n    tag_262:\n        /* \"#utility.yul\":9806:9859   */\n      tag_96\n      jump\t// in\n    tag_261:\n        /* \"#utility.yul\":9793:9859   */\n      swap1\n      pop\n        /* \"#utility.yul\":9723:9865   */\n      swap2\n      swap1\n      pop\n      jump\t// out\n        /* \"#utility.yul\":9871:9946   */\n    tag_133:\n        /* \"#utility.yul\":9914:9917   */\n      0x00\n        /* \"#utility.yul\":9935:9940   */\n      dup2\n        /* \"#utility.yul\":9928:9940   */\n      swap1\n      pop\n        /* \"#utility.yul\":9871:9946   */\n      swap2\n      swap1\n      pop\n      jump\t// out\n        /* \"#utility.yul\":9952:10221   */\n    tag_134:\n        /* \"#utility.yul\":10062:10101   */\n      tag_266\n        /* \"#utility.yul\":10093:10100   */\n      dup4\n        /* \"#utility.yul\":10062:10101   */\n      tag_132\n      jump\t// in\n    tag_266:\n        /* \"#utility.yul\":10123:10214   */\n      tag_267\n        /* \"#utility.yul\":10172:10213   */\n      tag_268\n        /* \"#utility.yul\":10196:10212   */\n      dup3\n        /* \"#utility.yul\":10172:10213   */\n      tag_133\n      jump\t// in\n    tag_268:\n        /* \"#utility.yul\":10164:10170   */\n      dup5\n        /* \"#utility.yul\":10157:10161   */\n      dup5\n        /* \"#utility.yul\":10151:10162   */\n      sload\n        /* \"#utility.yul\":10123:10214   */\n      tag_130\n      jump\t// in\n    tag_267:\n        /* \"#utility.yul\":10117:10121   */\n      dup3\n        /* \"#utility.yul\":10110:10215   */\n      sstore\n        /* \"#utility.yul\":10028:10221   */\n      pop\n        /* \"#utility.yul\":9952:10221   */\n      pop\n      pop\n      pop\n      jump\t// out\n        /* \"#utility.yul\":10227:10300   */\n    tag_135:\n        /* \"#utility.yul\":10272:10275   */\n      0x00\n        /* \"#utility.yul\":10227:10300   */\n      swap1\n      jump\t// out\n        /* \"#utility.yul\":10306:10495   */\n    tag_136:\n        /* \"#utility.yul\":10383:10415   */\n      tag_271\n      tag_135\n      jump\t// in\n    tag_271:\n        /* \"#utility.yul\":10424:10489   */\n      tag_272\n        /* \"#utility.yul\":10482:10488   */\n      dup2\n        /* \"#utility.yul\":10474:10480   */\n      dup5\n        /* \"#utility.yul\":10468:10472   */\n      dup5\n        /* \"#utility.yul\":10424:10489   */\n      tag_134\n      jump\t// in\n    tag_272:\n        /* \"#utility.yul\":10359:10495   */\n      pop\n        /* \"#utility.yul\":10306:10495   */\n      pop\n      pop\n      jump\t// out\n        /* \"#utility.yul\":10501:10687   */\n    tag_137:\n        /* \"#utility.yul\":10561:10681   */\n    tag_274:\n        /* \"#utility.yul\":10578:10581   */\n      dup2\n        /* \"#utility.yul\":10571:10576   */\n      dup2\n        /* \"#utility.yul\":10568:10582   */\n      lt\n        /* \"#utility.yul\":10561:10681   */\n      iszero\n      tag_276\n      jumpi\n        /* \"#utility.yul\":10632:10671   */\n      tag_277\n        /* \"#utility.yul\":10669:10670   */\n      0x00\n        /* \"#utility.yul\":10662:10667   */\n      dup3\n        /* \"#utility.yul\":10632:10671   */\n      tag_136\n      jump\t// in\n    tag_277:\n        /* \"#utility.yul\":10605:10606   */\n      0x01\n        /* \"#utility.yul\":10598:10603   */\n      dup2\n        /* \"#utility.yul\":10594:10607   */\n      add\n        /* \"#utility.yul\":10585:10607   */\n      swap1\n      pop\n        /* \"#utility.yul\":10561:10681   */\n      jump(tag_274)\n    tag_276:\n        /* \"#utility.yul\":10501:10687   */\n      pop\n      pop\n      jump\t// out\n        /* \"#utility.yul\":10693:11236   */\n    tag_138:\n        /* \"#utility.yul\":10794:10796   */\n      0x1f\n        /* \"#utility.yul\":10789:10792   */\n      dup3\n        /* \"#utility.yul\":10786:10797   */\n      gt\n        /* \"#utility.yul\":10783:11229   */\n      iszero\n      tag_279\n      jumpi\n        /* \"#utility.yul\":10828:10866   */\n      tag_280\n        /* \"#utility.yul\":10860:10865   */\n      dup2\n        /* \"#utility.yul\":10828:10866   */\n      tag_127\n      jump\t// in\n    tag_280:\n        /* \"#utility.yul\":10912:10941   */\n      tag_281\n        /* \"#utility.yul\":10930:10940   */\n      dup5\n        /* \"#utility.yul\":10912:10941   */\n      tag_128\n      jump\t// in\n    tag_281:\n        /* \"#utility.yul\":10902:10910   */\n      dup2\n        /* \"#utility.yul\":10898:10942   */\n      add\n        /* \"#utility.yul\":11095:11097   */\n      0x20\n        /* \"#utility.yul\":11083:11093   */\n      dup6\n        /* \"#utility.yul\":11080:11098   */\n      lt\n        /* \"#utility.yul\":11077:11126   */\n      iszero\n      tag_282\n      jumpi\n        /* \"#utility.yul\":11116:11124   */\n      dup2\n        /* \"#utility.yul\":11101:11124   */\n      swap1\n      pop\n        /* \"#utility.yul\":11077:11126   */\n    tag_282:\n        /* \"#utility.yul\":11139:11219   */\n      tag_283\n        /* \"#utility.yul\":11195:11217   */\n      tag_284\n        /* \"#utility.yul\":11213:11216   */\n      dup6\n        /* \"#utility.yul\":11195:11217   */\n      tag_128\n      jump\t// in\n    tag_284:\n        /* \"#utility.yul\":11185:11193   */\n      dup4\n        /* \"#utility.yul\":11181:11218   */\n      add\n        /* \"#utility.yul\":11168:11179   */\n      dup3\n        /* \"#utility.yul\":11139:11219   */\n      tag_137\n      jump\t// in\n    tag_283:\n        /* \"#utility.yul\":10798:11229   */\n      pop\n      pop\n        /* \"#utility.yul\":10783:11229   */\n    tag_279:\n        /* \"#utility.yul\":10693:11236   */\n      pop\n      pop\n      pop\n      jump\t// out\n        /* \"#utility.yul\":11242:11359   */\n    tag_139:\n        /* \"#utility.yul\":11296:11304   */\n      0x00\n        /* \"#utility.yul\":11346:11351   */\n      dup3\n        /* \"#utility.yul\":11340:11344   */\n      dup3\n        /* \"#utility.yul\":11336:11352   */\n      shr\n        /* \"#utility.yul\":11315:11352   */\n      swap1\n      pop\n        /* \"#utility.yul\":11242:11359   */\n      swap3\n      swap2\n      pop\n      pop\n      jump\t// out\n        /* \"#utility.yul\":11365:11534   */\n    tag_140:\n        /* \"#utility.yul\":11409:11415   */\n      0x00\n        /* \"#utility.yul\":11442:11493   */\n      tag_287\n        /* \"#utility.yul\":11490:11491   */\n      0x00\n        /* \"#utility.yul\":11486:11492   */\n      not\n        /* \"#utility.yul\":11478:11483   */\n      dup5\n        /* \"#utility.yul\":11475:11476   */\n      0x08\n        /* \"#utility.yul\":11471:11484   */\n      mul\n        /* \"#utility.yul\":11442:11493   */\n      tag_139\n      jump\t// in\n    tag_287:\n        /* \"#utility.yul\":11438:11494   */\n      not\n        /* \"#utility.yul\":11523:11527   */\n      dup1\n        /* \"#utility.yul\":11517:11521   */\n      dup4\n        /* \"#utility.yul\":11513:11528   */\n      and\n        /* \"#utility.yul\":11503:11528   */\n      swap2\n      pop\n        /* \"#utility.yul\":11416:11534   */\n      pop\n        /* \"#utility.yul\":11365:11534   */\n      swap3\n      swap2\n      pop\n      pop\n      jump\t// out\n        /* \"#utility.yul\":11539:11834   */\n    tag_141:\n        /* \"#utility.yul\":11615:11619   */\n      0x00\n        /* \"#utility.yul\":11761:11790   */\n      tag_289\n        /* \"#utility.yul\":11786:11789   */\n      dup4\n        /* \"#utility.yul\":11780:11784   */\n      dup4\n        /* \"#utility.yul\":11761:11790   */\n      tag_140\n      jump\t// in\n    tag_289:\n        /* \"#utility.yul\":11753:11790   */\n      swap2\n      pop\n        /* \"#utility.yul\":11823:11826   */\n      dup3\n        /* \"#utility.yul\":11820:11821   */\n      0x02\n        /* \"#utility.yul\":11816:11827   */\n      mul\n        /* \"#utility.yul\":11810:11814   */\n      dup3\n        /* \"#utility.yul\":11807:11828   */\n      or\n        /* \"#utility.yul\":11799:11828   */\n      swap1\n      pop\n        /* \"#utility.yul\":11539:11834   */\n      swap3\n      swap2\n      pop\n      pop\n      jump\t// out\n        /* \"#utility.yul\":11839:13234   */\n    tag_62:\n        /* \"#utility.yul\":11956:11993   */\n      tag_291\n        /* \"#utility.yul\":11989:11992   */\n      dup3\n        /* \"#utility.yul\":11956:11993   */\n      tag_111\n      jump\t// in\n    tag_291:\n        /* \"#utility.yul\":12058:12076   */\n      0xffffffffffffffff\n        /* \"#utility.yul\":12050:12056   */\n      dup2\n        /* \"#utility.yul\":12047:12077   */\n      gt\n        /* \"#utility.yul\":12044:12100   */\n      iszero\n      tag_292\n      jumpi\n        /* \"#utility.yul\":12080:12098   */\n      tag_293\n      tag_120\n      jump\t// in\n    tag_293:\n        /* \"#utility.yul\":12044:12100   */\n    tag_292:\n        /* \"#utility.yul\":12124:12162   */\n      tag_294\n        /* \"#utility.yul\":12156:12160   */\n      dup3\n        /* \"#utility.yul\":12150:12161   */\n      sload\n        /* \"#utility.yul\":12124:12162   */\n      tag_68\n      jump\t// in\n    tag_294:\n        /* \"#utility.yul\":12209:12276   */\n      tag_295\n        /* \"#utility.yul\":12269:12275   */\n      dup3\n        /* \"#utility.yul\":12261:12267   */\n      dup3\n        /* \"#utility.yul\":12255:12259   */\n      dup6\n        /* \"#utility.yul\":12209:12276   */\n      tag_138\n      jump\t// in\n    tag_295:\n        /* \"#utility.yul\":12303:12304   */\n      0x00\n        /* \"#utility.yul\":12327:12331   */\n      0x20\n        /* \"#utility.yul\":12314:12331   */\n      swap1\n      pop\n        /* \"#utility.yul\":12359:12361   */\n      0x1f\n        /* \"#utility.yul\":12351:12357   */\n      dup4\n        /* \"#utility.yul\":12348:12362   */\n      gt\n        /* \"#utility.yul\":12376:12377   */\n      0x01\n        /* \"#utility.yul\":12371:12989   */\n      dup2\n      eq\n      tag_297\n      jumpi\n        /* \"#utility.yul\":13033:13034   */\n      0x00\n        /* \"#utility.yul\":13050:13056   */\n      dup5\n        /* \"#utility.yul\":13047:13124   */\n      iszero\n      tag_298\n      jumpi\n        /* \"#utility.yul\":13099:13108   */\n      dup3\n        /* \"#utility.yul\":13094:13097   */\n      dup8\n        /* \"#utility.yul\":13090:13109   */\n      add\n        /* \"#utility.yul\":13084:13110   */\n      mload\n        /* \"#utility.yul\":13075:13110   */\n      swap1\n      pop\n        /* \"#utility.yul\":13047:13124   */\n    tag_298:\n        /* \"#utility.yul\":13150:13217   */\n      tag_299\n        /* \"#utility.yul\":13210:13216   */\n      dup6\n        /* \"#utility.yul\":13203:13208   */\n      dup3\n        /* \"#utility.yul\":13150:13217   */\n      tag_141\n      jump\t// in\n    tag_299:\n        /* \"#utility.yul\":13144:13148   */\n      dup7\n        /* \"#utility.yul\":13137:13218   */\n      sstore\n        /* \"#utility.yul\":13006:13228   */\n      pop\n        /* \"#utility.yul\":12341:13228   */\n      jump(tag_296)\n        /* \"#utility.yul\":12371:12989   */\n    tag_297:\n        /* \"#utility.yul\":12423:12427   */\n      0x1f\n        /* \"#utility.yul\":12419:12428   */\n      not\n        /* \"#utility.yul\":12411:12417   */\n      dup5\n        /* \"#utility.yul\":12407:12429   */\n      and\n        /* \"#utility.yul\":12457:12494   */\n      tag_300\n        /* \"#utility.yul\":12489:12493   */\n      dup7\n        /* \"#utility.yul\":12457:12494   */\n      tag_127\n      jump\t// in\n    tag_300:\n        /* \"#utility.yul\":12516:12517   */\n      0x00\n        /* \"#utility.yul\":12530:12738   */\n    tag_301:\n        /* \"#utility.yul\":12544:12551   */\n      dup3\n        /* \"#utility.yul\":12541:12542   */\n      dup2\n        /* \"#utility.yul\":12538:12552   */\n      lt\n        /* \"#utility.yul\":12530:12738   */\n      iszero\n      tag_303\n      jumpi\n        /* \"#utility.yul\":12623:12632   */\n      dup5\n        /* \"#utility.yul\":12618:12621   */\n      dup10\n        /* \"#utility.yul\":12614:12633   */\n      add\n        /* \"#utility.yul\":12608:12634   */\n      mload\n        /* \"#utility.yul\":12600:12606   */\n      dup3\n        /* \"#utility.yul\":12593:12635   */\n      sstore\n        /* \"#utility.yul\":12674:12675   */\n      0x01\n        /* \"#utility.yul\":12666:12672   */\n      dup3\n        /* \"#utility.yul\":12662:12676   */\n      add\n        /* \"#utility.yul\":12652:12676   */\n      swap2\n      pop\n        /* \"#utility.yul\":12721:12723   */\n      0x20\n        /* \"#utility.yul\":12710:12719   */\n      dup6\n        /* \"#utility.yul\":12706:12724   */\n      add\n        /* \"#utility.yul\":12693:12724   */\n      swap5\n      pop\n        /* \"#utility.yul\":12567:12571   */\n      0x20\n        /* \"#utility.yul\":12564:12565   */\n      dup2\n        /* \"#utility.yul\":12560:12572   */\n      add\n        /* \"#utility.yul\":12555:12572   */\n      swap1\n      pop\n        /* \"#utility.yul\":12530:12738   */\n      jump(tag_301)\n    tag_303:\n        /* \"#utility.yul\":12766:12772   */\n      dup7\n        /* \"#utility.yul\":12757:12764   */\n      dup4\n        /* \"#utility.yul\":12754:12773   */\n      lt\n        /* \"#utility.yul\":12751:12930   */\n      iszero\n      tag_304\n      jumpi\n        /* \"#utility.yul\":12824:12833   */\n      dup5\n        /* \"#utility.yul\":12819:12822   */\n      dup10\n        /* \"#utility.yul\":12815:12834   */\n      add\n        /* \"#utility.yul\":12809:12835   */\n      mload\n        /* \"#utility.yul\":12867:12915   */\n      tag_305\n        /* \"#utility.yul\":12909:12913   */\n      0x1f\n        /* \"#utility.yul\":12901:12907   */\n      dup10\n        /* \"#utility.yul\":12897:12914   */\n      and\n        /* \"#utility.yul\":12886:12895   */\n      dup3\n        /* \"#utility.yul\":12867:12915   */\n      tag_140\n      jump\t// in\n    tag_305:\n        /* \"#utility.yul\":12859:12865   */\n      dup4\n        /* \"#utility.yul\":12852:12916   */\n      sstore\n        /* \"#utility.yul\":12774:12930   */\n      pop\n        /* \"#utility.yul\":12751:12930   */\n    tag_304:\n        /* \"#utility.yul\":12976:12977   */\n      0x01\n        /* \"#utility.yul\":12972:12973   */\n      0x02\n        /* \"#utility.yul\":12964:12970   */\n      dup9\n        /* \"#utility.yul\":12960:12974   */\n      mul\n        /* \"#utility.yul\":12956:12978   */\n      add\n        /* \"#utility.yul\":12950:12954   */\n      dup9\n        /* \"#utility.yul\":12943:12979   */\n      sstore\n        /* \"#utility.yul\":12378:12989   */\n      pop\n      pop\n      pop\n        /* \"#utility.yul\":12341:13228   */\n    tag_296:\n      pop\n        /* \"#utility.yul\":11931:13234   */\n      pop\n      pop\n      pop\n        /* \"#utility.yul\":11839:13234   */\n      pop\n      pop\n      jump\t// out\n        /* \"#utility.yul\":13240:13420   */\n    tag_142:\n        /* \"#utility.yul\":13288:13365   */\n      0x4e487b7100000000000000000000000000000000000000000000000000000000\n        /* \"#utility.yul\":13285:13286   */\n      0x00\n        /* \"#utility.yul\":13278:13366   */\n      mstore\n        /* \"#utility.yul\":13385:13389   */\n      0x11\n        /* \"#utility.yul\":13382:13383   */\n      0x04\n        /* \"#utility.yul\":13375:13390   */\n      mstore\n        /* \"#utility.yul\":13409:13413   */\n      0x24\n        /* \"#utility.yul\":13406:13407   */\n      0x00\n        /* \"#utility.yul\":13399:13414   */\n      revert\n        /* \"#utility.yul\":13426:13659   */\n    tag_64:\n        /* \"#utility.yul\":13465:13468   */\n      0x00\n        /* \"#utility.yul\":13488:13512   */\n      tag_308\n        /* \"#utility.yul\":13506:13511   */\n      dup3\n        /* \"#utility.yul\":13488:13512   */\n      tag_96\n      jump\t// in\n    tag_308:\n        /* \"#utility.yul\":13479:13512   */\n      swap2\n      pop\n        /* \"#utility.yul\":13534:13600   */\n      0xffffffffffffffffffffffffffffffffffffffffffffffffffffffffffffffff\n        /* \"#utility.yul\":13527:13532   */\n      dup3\n        /* \"#utility.yul\":13524:13601   */\n      sub\n        /* \"#utility.yul\":13521:13624   */\n      tag_309\n      jumpi\n        /* \"#utility.yul\":13604:13622   */\n      tag_310\n      tag_142\n      jump\t// in\n    tag_310:\n        /* \"#utility.yul\":13521:13624   */\n    tag_309:\n        /* \"#utility.yul\":13651:13652   */\n      0x01\n        /* \"#utility.yul\":13644:13649   */\n      dup3\n        /* \"#utility.yul\":13640:13653   */\n      add\n        /* \"#utility.yul\":13633:13653   */\n      swap1\n      pop\n        /* \"#utility.yul\":13426:13659   */\n      swap2\n      swap1\n      pop\n      jump\t// out\n        /* \"#utility.yul\":13665:13846   */\n    tag_143:\n        /* \"#utility.yul\":13805:13838   */\n      0x5265656e7472616e637947756172643a207265656e7472616e742063616c6c00\n        /* \"#utility.yul\":13801:13802   */\n      0x00\n        /* \"#utility.yul\":13793:13799   */\n      dup3\n        /* \"#utility.yul\":13789:13803   */\n      add\n        /* \"#utility.yul\":13782:13839   */\n      mstore\n        /* \"#utility.yul\":13665:13846   */\n      pop\n      jump\t// out\n        /* \"#utility.yul\":13852:14218   */\n    tag_144:\n        /* \"#utility.yul\":13994:13997   */\n      0x00\n        /* \"#utility.yul\":14015:14082   */\n      tag_313\n        /* \"#utility.yul\":14079:14081   */\n      0x1f\n        /* \"#utility.yul\":14074:14077   */\n      dup4\n        /* \"#utility.yul\":14015:14082   */\n      tag_112\n      jump\t// in\n    tag_313:\n        /* \"#utility.yul\":14008:14082   */\n      swap2\n      pop\n        /* \"#utility.yul\":14091:14184   */\n      tag_314\n        /* \"#utility.yul\":14180:14183   */\n      dup3\n        /* \"#utility.yul\":14091:14184   */\n      tag_143\n      jump\t// in\n    tag_314:\n        /* \"#utility.yul\":14209:14211   */\n      0x20\n        /* \"#utility.yul\":14204:14207   */\n      dup3\n        /* \"#utility.yul\":14200:14212   */\n      add\n        /* \"#utility.yul\":14193:14212   */\n      swap1\n      pop\n        /* \"#utility.yul\":13852:14218   */\n      swap2\n      swap1\n      pop\n      jump\t// out\n        /* \"#utility.yul\":14224:14643   */\n    tag_90:\n        /* \"#utility.yul\":14390:14394   */\n      0x00\n        /* \"#utility.yul\":14428:14430   */\n      0x20\n        /* \"#utility.yul\":14417:14426   */\n      dup3\n        /* \"#utility.yul\":14413:14431   */\n      add\n        /* \"#utility.yul\":14405:14431   */\n      swap1\n      pop\n        /* \"#utility.yul\":14477:14486   */\n      dup2\n        /* \"#utility.yul\":14471:14475   */\n      dup2\n        /* \"#utility.yul\":14467:14487   */\n      sub\n        /* \"#utility.yul\":14463:14464   */\n      0x00\n        /* \"#utility.yul\":14452:14461   */\n      dup4\n        /* \"#utility.yul\":14448:14465   */\n      add\n        /* \"#utility.yul\":14441:14488   */\n      mstore\n        /* \"#utility.yul\":14505:14636   */\n      tag_316\n        /* \"#utility.yul\":14631:14635   */\n      dup2\n        /* \"#utility.yul\":14505:14636   */\n      tag_144\n      jump\t// in\n    tag_316:\n        /* \"#utility.yul\":14497:14636   */\n      swap1\n      pop\n        /* \"#utility.yul\":14224:14643   */\n      swap2\n      swap1\n      pop\n      jump\t// out\n        /* \"#utility.yul\":14649:14743   */\n    tag_145:\n        /* \"#utility.yul\":14682:14690   */\n      0x00\n        /* \"#utility.yul\":14730:14735   */\n      dup2\n        /* \"#utility.yul\":14726:14728   */\n      0x60\n        /* \"#utility.yul\":14722:14736   */\n      shl\n        /* \"#utility.yul\":14701:14736   */\n      swap1\n      pop\n        /* \"#utility.yul\":14649:14743   */\n      swap2\n      swap1\n      pop\n      jump\t// out\n        /* \"#utility.yul\":14749:14843   */\n    tag_146:\n        /* \"#utility.yul\":14788:14795   */\n      0x00\n        /* \"#utility.yul\":14817:14837   */\n      tag_319\n        /* \"#utility.yul\":14831:14836   */\n      dup3\n        /* \"#utility.yul\":14817:14837   */\n      tag_145\n      jump\t// in\n    tag_319:\n        /* \"#utility.yul\":14806:14837   */\n      swap1\n      pop\n        /* \"#utility.yul\":14749:14843   */\n      swap2\n      swap1\n      pop\n      jump\t// out\n        /* \"#utility.yul\":14849:14949   */\n    tag_147:\n        /* \"#utility.yul\":14888:14895   */\n      0x00\n        /* \"#utility.yul\":14917:14943   */\n      tag_321\n        /* \"#utility.yul\":14937:14942   */\n      dup3\n        /* \"#utility.yul\":14917:14943   */\n      tag_146\n      jump\t// in\n    tag_321:\n        /* \"#utility.yul\":14906:14943   */\n      swap1\n      pop\n        /* \"#utility.yul\":14849:14949   */\n      swap2\n      swap1\n      pop\n      jump\t// out\n        /* \"#utility.yul\":14955:15112   */\n    tag_148:\n        /* \"#utility.yul\":15060:15105   */\n      tag_323\n        /* \"#utility.yul\":15080:15104   */\n      tag_324\n        /* \"#utility.yul\":15098:15103   */\n      dup3\n        /* \"#utility.yul\":15080:15104   */\n      tag_99\n      jump\t// in\n    tag_324:\n        /* \"#utility.yul\":15060:15105   */\n      tag_147\n      jump\t// in\n    tag_323:\n        /* \"#utility.yul\":15055:15058   */\n      dup3\n        /* \"#utility.yul\":15048:15106   */\n      mstore\n        /* \"#utility.yul\":14955:15112   */\n      pop\n      pop\n      jump\t// out\n        /* \"#utility.yul\":15118:15515   */\n    tag_93:\n        /* \"#utility.yul\":15258:15261   */\n      0x00\n        /* \"#utility.yul\":15273:15348   */\n      tag_326\n        /* \"#utility.yul\":15344:15347   */\n      dup3\n        /* \"#utility.yul\":15335:15341   */\n      dup6\n        /* \"#utility.yul\":15273:15348   */\n      tag_148\n      jump\t// in\n    tag_326:\n        /* \"#utility.yul\":15373:15375   */\n      0x14\n        /* \"#utility.yul\":15368:15371   */\n      dup3\n        /* \"#utility.yul\":15364:15376   */\n      add\n        /* \"#utility.yul\":15357:15376   */\n      swap2\n      pop\n        /* \"#utility.yul\":15386:15461   */\n      tag_327\n        /* \"#utility.yul\":15457:15460   */\n      dup3\n        /* \"#utility.yul\":15448:15454   */\n      dup5\n        /* \"#utility.yul\":15386:15461   */\n      tag_148\n      jump\t// in\n    tag_327:\n        /* \"#utility.yul\":15486:15488   */\n      0x14\n        /* \"#utility.yul\":15481:15484   */\n      dup3\n        /* \"#utility.yul\":15477:15489   */\n      add\n        /* \"#utility.yul\":15470:15489   */\n      swap2\n      pop\n        /* \"#utility.yul\":15506:15509   */\n      dup2\n        /* \"#utility.yul\":15499:15509   */\n      swap1\n      pop\n        /* \"#utility.yul\":15118:15515   */\n      swap4\n      swap3\n      pop\n      pop\n      pop\n      jump\t// out\n\n    auxdata: 0xa2646970667358221220600b01367243a741bf4836ee5e06dedd877cc5af3f76911bf4839dea2b9f4e7364736f6c634300081a0033\n}\n",
				"bytecode": {
					"linkReferences": {},
					"object": "60806040526001600655348015610014575f80fd5b5060405161146638038061146683398181016040528101906100369190610311565b335f73ffffffffffffffffffffffffffffffffffffffff168173ffffffffffffffffffffffffffffffffffffffff16036100a7575f6040517f1e4fbdf700000000000000000000000000000000000000000000000000000000815260040161009e919061035e565b60405180910390fd5b6100b6816101bf60201b60201c565b50600180819055506103e8821115610103576040517f08c379a00000000000000000000000000000000000000000000000000000000081526004016100fa906103d1565b60405180910390fd5b5f73ffffffffffffffffffffffffffffffffffffffff168173ffffffffffffffffffffffffffffffffffffffff1603610171576040517f08c379a000000000000000000000000000000000000000000000000000000000815260040161016890610439565b60405180910390fd5b816002819055508060035f6101000a81548173ffffffffffffffffffffffffffffffffffffffff021916908373ffffffffffffffffffffffffffffffffffffffff1602179055505050610457565b5f805f9054906101000a900473ffffffffffffffffffffffffffffffffffffffff169050815f806101000a81548173ffffffffffffffffffffffffffffffffffffffff021916908373ffffffffffffffffffffffffffffffffffffffff1602179055508173ffffffffffffffffffffffffffffffffffffffff168173ffffffffffffffffffffffffffffffffffffffff167f8be0079c531659141344cd1fd0a4f28419497f9722a3daafe3b4186f6b6457e060405160405180910390a35050565b5f80fd5b5f819050919050565b61029681610284565b81146102a0575f80fd5b50565b5f815190506102b18161028d565b92915050565b5f73ffffffffffffffffffffffffffffffffffffffff82169050919050565b5f6102e0826102b7565b9050919050565b6102f0816102d6565b81146102fa575f80fd5b50565b5f8151905061030b816102e7565b92915050565b5f806040838503121561032757610326610280565b5b5f610334858286016102a3565b9250506020610345858286016102fd565b9150509250929050565b610358816102d6565b82525050565b5f6020820190506103715f83018461034f565b92915050565b5f82825260208201905092915050565b7f466565206d757374206e6f7420657863656564203130250000000000000000005f82015250565b5f6103bb601783610377565b91506103c682610387565b602082019050919050565b5f6020820190508181035f8301526103e8816103af565b9050919050565b7f496e76616c69642066656520726563697069656e7420616464726573730000005f82015250565b5f610423601d83610377565b915061042e826103ef565b602082019050919050565b5f6020820190508181035f83015261045081610417565b9050919050565b611002806104645f395ff3fe608060405234801561000f575f80fd5b5060043610610086575f3560e01c8063c415b95c11610059578063c415b95c14610100578063c661aea61461011e578063de74e57b1461013a578063f2fde38b1461016f57610086565b8063715018a61461008a5780637fd6f15c146100945780638da5cb5b146100b2578063ade9fbc6146100d0575b5f80fd5b61009261018b565b005b61009c61019e565b6040516100a99190610788565b60405180910390f35b6100ba6101a4565b6040516100c791906107e0565b60405180910390f35b6100ea60048036038101906100e5919061083d565b6101cb565b6040516100f79190610788565b60405180910390f35b6101086101e0565b60405161011591906107e0565b60405180910390f35b610138600480360381019061013391906108bc565b610205565b005b610154600480360381019061014f919061090c565b61040b565b604051610166969594939291906109c1565b60405180910390f35b61018960048036038101906101849190610a27565b610513565b005b610193610597565b61019c5f61061e565b565b60025481565b5f805f9054906101000a900473ffffffffffffffffffffffffffffffffffffffff16905090565b6005602052805f5260405f205f915090505481565b60035f9054906101000a900473ffffffffffffffffffffffffffffffffffffffff1681565b61020d6106df565b5f610218843361072e565b90506040518060c001604052803373ffffffffffffffffffffffffffffffffffffffff1681526020018573ffffffffffffffffffffffffffffffffffffffff1681526020018573ffffffffffffffffffffffffffffffffffffffff166306fdde036040518163ffffffff1660e01b81526004015f60405180830381865afa1580156102a5573d5f803e3d5ffd5b505050506040513d5f823e3d601f19601f820116820180604052508101906102cd9190610b70565b81526020018481526020018381526020016001151581525060045f60065481526020019081526020015f205f820151815f015f6101000a81548173ffffffffffffffffffffffffffffffffffffffff021916908373ffffffffffffffffffffffffffffffffffffffff1602179055506020820151816001015f6101000a81548173ffffffffffffffffffffffffffffffffffffffff021916908373ffffffffffffffffffffffffffffffffffffffff16021790555060408201518160020190816103979190610db1565b50606082015181600301556080820151816004015560a0820151816005015f6101000a81548160ff02191690831515021790555090505060065460055f8381526020019081526020015f208190555060065f8154809291906103f890610ead565b919050555050610406610760565b505050565b6004602052805f5260405f205f91509050805f015f9054906101000a900473ffffffffffffffffffffffffffffffffffffffff1690806001015f9054906101000a900473ffffffffffffffffffffffffffffffffffffffff169080600201805461047490610be4565b80601f01602080910402602001604051908101604052809291908181526020018280546104a090610be4565b80156104eb5780601f106104c2576101008083540402835291602001916104eb565b820191905f5260205f20905b8154815290600101906020018083116104ce57829003601f168201915b505050505090806003015490806004015490806005015f9054906101000a900460ff16905086565b61051b610597565b5f73ffffffffffffffffffffffffffffffffffffffff168173ffffffffffffffffffffffffffffffffffffffff160361058b575f6040517f1e4fbdf700000000000000000000000000000000000000000000000000000000815260040161058291906107e0565b60405180910390fd5b6105948161061e565b50565b61059f610769565b73ffffffffffffffffffffffffffffffffffffffff166105bd6101a4565b73ffffffffffffffffffffffffffffffffffffffff161461061c576105e0610769565b6040517f118cdaa700000000000000000000000000000000000000000000000000000000815260040161061391906107e0565b60405180910390fd5b565b5f805f9054906101000a900473ffffffffffffffffffffffffffffffffffffffff169050815f806101000a81548173ffffffffffffffffffffffffffffffffffffffff021916908373ffffffffffffffffffffffffffffffffffffffff1602179055508173ffffffffffffffffffffffffffffffffffffffff168173ffffffffffffffffffffffffffffffffffffffff167f8be0079c531659141344cd1fd0a4f28419497f9722a3daafe3b4186f6b6457e060405160405180910390a35050565b600260015403610724576040517f08c379a000000000000000000000000000000000000000000000000000000000815260040161071b90610f3e565b60405180910390fd5b6002600181905550565b5f8282604051602001610742929190610fa1565b60405160208183030381529060405280519060200120905092915050565b60018081905550565b5f33905090565b5f819050919050565b61078281610770565b82525050565b5f60208201905061079b5f830184610779565b92915050565b5f73ffffffffffffffffffffffffffffffffffffffff82169050919050565b5f6107ca826107a1565b9050919050565b6107da816107c0565b82525050565b5f6020820190506107f35f8301846107d1565b92915050565b5f604051905090565b5f80fd5b5f80fd5b5f819050919050565b61081c8161080a565b8114610826575f80fd5b50565b5f8135905061083781610813565b92915050565b5f6020828403121561085257610851610802565b5b5f61085f84828501610829565b91505092915050565b610871816107c0565b811461087b575f80fd5b50565b5f8135905061088c81610868565b92915050565b61089b81610770565b81146108a5575f80fd5b50565b5f813590506108b681610892565b92915050565b5f805f606084860312156108d3576108d2610802565b5b5f6108e08682870161087e565b93505060206108f1868287016108a8565b9250506040610902868287016108a8565b9150509250925092565b5f6020828403121561092157610920610802565b5b5f61092e848285016108a8565b91505092915050565b5f81519050919050565b5f82825260208201905092915050565b8281835e5f83830152505050565b5f601f19601f8301169050919050565b5f61097982610937565b6109838185610941565b9350610993818560208601610951565b61099c8161095f565b840191505092915050565b5f8115159050919050565b6109bb816109a7565b82525050565b5f60c0820190506109d45f8301896107d1565b6109e160208301886107d1565b81810360408301526109f3818761096f565b9050610a026060830186610779565b610a0f6080830185610779565b610a1c60a08301846109b2565b979650505050505050565b5f60208284031215610a3c57610a3b610802565b5b5f610a498482850161087e565b91505092915050565b5f80fd5b5f80fd5b7f4e487b71000000000000000000000000000000000000000000000000000000005f52604160045260245ffd5b610a908261095f565b810181811067ffffffffffffffff82111715610aaf57610aae610a5a565b5b80604052505050565b5f610ac16107f9565b9050610acd8282610a87565b919050565b5f67ffffffffffffffff821115610aec57610aeb610a5a565b5b610af58261095f565b9050602081019050919050565b5f610b14610b0f84610ad2565b610ab8565b905082815260208101848484011115610b3057610b2f610a56565b5b610b3b848285610951565b509392505050565b5f82601f830112610b5757610b56610a52565b5b8151610b67848260208601610b02565b91505092915050565b5f60208284031215610b8557610b84610802565b5b5f82015167ffffffffffffffff811115610ba257610ba1610806565b5b610bae84828501610b43565b91505092915050565b7f4e487b71000000000000000000000000000000000000000000000000000000005f52602260045260245ffd5b5f6002820490506001821680610bfb57607f821691505b602082108103610c0e57610c0d610bb7565b5b50919050565b5f819050815f5260205f209050919050565b5f6020601f8301049050919050565b5f82821b905092915050565b5f60088302610c707fffffffffffffffffffffffffffffffffffffffffffffffffffffffffffffffff82610c35565b610c7a8683610c35565b95508019841693508086168417925050509392505050565b5f819050919050565b5f610cb5610cb0610cab84610770565b610c92565b610770565b9050919050565b5f819050919050565b610cce83610c9b565b610ce2610cda82610cbc565b848454610c41565b825550505050565b5f90565b610cf6610cea565b610d01818484610cc5565b505050565b5b81811015610d2457610d195f82610cee565b600181019050610d07565b5050565b601f821115610d6957610d3a81610c14565b610d4384610c26565b81016020851015610d52578190505b610d66610d5e85610c26565b830182610d06565b50505b505050565b5f82821c905092915050565b5f610d895f1984600802610d6e565b1980831691505092915050565b5f610da18383610d7a565b9150826002028217905092915050565b610dba82610937565b67ffffffffffffffff811115610dd357610dd2610a5a565b5b610ddd8254610be4565b610de8828285610d28565b5f60209050601f831160018114610e19575f8415610e07578287015190505b610e118582610d96565b865550610e78565b601f198416610e2786610c14565b5f5b82811015610e4e57848901518255600182019150602085019450602081019050610e29565b86831015610e6b5784890151610e67601f891682610d7a565b8355505b6001600288020188555050505b505050505050565b7f4e487b71000000000000000000000000000000000000000000000000000000005f52601160045260245ffd5b5f610eb782610770565b91507fffffffffffffffffffffffffffffffffffffffffffffffffffffffffffffffff8203610ee957610ee8610e80565b5b600182019050919050565b7f5265656e7472616e637947756172643a207265656e7472616e742063616c6c005f82015250565b5f610f28601f83610941565b9150610f3382610ef4565b602082019050919050565b5f6020820190508181035f830152610f5581610f1c565b9050919050565b5f8160601b9050919050565b5f610f7282610f5c565b9050919050565b5f610f8382610f68565b9050919050565b610f9b610f96826107c0565b610f79565b82525050565b5f610fac8285610f8a565b601482019150610fbc8284610f8a565b601482019150819050939250505056fea2646970667358221220600b01367243a741bf4836ee5e06dedd877cc5af3f76911bf4839dea2b9f4e7364736f6c634300081a0033",
					"opcodes": "PUSH1 0x80 PUSH1 0x40 MSTORE PUSH1 0x1 PUSH1 0x6 SSTORE CALLVALUE DUP1 ISZERO PUSH2 0x14 JUMPI PUSH0 DUP1 REVERT JUMPDEST POP PUSH1 0x40 MLOAD PUSH2 0x1466 CODESIZE SUB DUP1 PUSH2 0x1466 DUP4 CODECOPY DUP2 DUP2 ADD PUSH1 0x40 MSTORE DUP2 ADD SWAP1 PUSH2 0x36 SWAP2 SWAP1 PUSH2 0x311 JUMP JUMPDEST CALLER PUSH0 PUSH20 0xFFFFFFFFFFFFFFFFFFFFFFFFFFFFFFFFFFFFFFFF AND DUP2 PUSH20 0xFFFFFFFFFFFFFFFFFFFFFFFFFFFFFFFFFFFFFFFF AND SUB PUSH2 0xA7 JUMPI PUSH0 PUSH1 0x40 MLOAD PUSH32 0x1E4FBDF700000000000000000000000000000000000000000000000000000000 DUP2 MSTORE PUSH1 0x4 ADD PUSH2 0x9E SWAP2 SWAP1 PUSH2 0x35E JUMP JUMPDEST PUSH1 0x40 MLOAD DUP1 SWAP2 SUB SWAP1 REVERT JUMPDEST PUSH2 0xB6 DUP2 PUSH2 0x1BF PUSH1 0x20 SHL PUSH1 0x20 SHR JUMP JUMPDEST POP PUSH1 0x1 DUP1 DUP2 SWAP1 SSTORE POP PUSH2 0x3E8 DUP3 GT ISZERO PUSH2 0x103 JUMPI PUSH1 0x40 MLOAD PUSH32 0x8C379A000000000000000000000000000000000000000000000000000000000 DUP2 MSTORE PUSH1 0x4 ADD PUSH2 0xFA SWAP1 PUSH2 0x3D1 JUMP JUMPDEST PUSH1 0x40 MLOAD DUP1 SWAP2 SUB SWAP1 REVERT JUMPDEST PUSH0 PUSH20 0xFFFFFFFFFFFFFFFFFFFFFFFFFFFFFFFFFFFFFFFF AND DUP2 PUSH20 0xFFFFFFFFFFFFFFFFFFFFFFFFFFFFFFFFFFFFFFFF AND SUB PUSH2 0x171 JUMPI PUSH1 0x40 MLOAD PUSH32 0x8C379A000000000000000000000000000000000000000000000000000000000 DUP2 MSTORE PUSH1 0x4 ADD PUSH2 0x168 SWAP1 PUSH2 0x439 JUMP JUMPDEST PUSH1 0x40 MLOAD DUP1 SWAP2 SUB SWAP1 REVERT JUMPDEST DUP2 PUSH1 0x2 DUP2 SWAP1 SSTORE POP DUP1 PUSH1 0x3 PUSH0 PUSH2 0x100 EXP DUP2 SLOAD DUP2 PUSH20 0xFFFFFFFFFFFFFFFFFFFFFFFFFFFFFFFFFFFFFFFF MUL NOT AND SWAP1 DUP4 PUSH20 0xFFFFFFFFFFFFFFFFFFFFFFFFFFFFFFFFFFFFFFFF AND MUL OR SWAP1 SSTORE POP POP POP PUSH2 0x457 JUMP JUMPDEST PUSH0 DUP1 PUSH0 SWAP1 SLOAD SWAP1 PUSH2 0x100 EXP SWAP1 DIV PUSH20 0xFFFFFFFFFFFFFFFFFFFFFFFFFFFFFFFFFFFFFFFF AND SWAP1 POP DUP2 PUSH0 DUP1 PUSH2 0x100 EXP DUP2 SLOAD DUP2 PUSH20 0xFFFFFFFFFFFFFFFFFFFFFFFFFFFFFFFFFFFFFFFF MUL NOT AND SWAP1 DUP4 PUSH20 0xFFFFFFFFFFFFFFFFFFFFFFFFFFFFFFFFFFFFFFFF AND MUL OR SWAP1 SSTORE POP DUP2 PUSH20 0xFFFFFFFFFFFFFFFFFFFFFFFFFFFFFFFFFFFFFFFF AND DUP2 PUSH20 0xFFFFFFFFFFFFFFFFFFFFFFFFFFFFFFFFFFFFFFFF AND PUSH32 0x8BE0079C531659141344CD1FD0A4F28419497F9722A3DAAFE3B4186F6B6457E0 PUSH1 0x40 MLOAD PUSH1 0x40 MLOAD DUP1 SWAP2 SUB SWAP1 LOG3 POP POP JUMP JUMPDEST PUSH0 DUP1 REVERT JUMPDEST PUSH0 DUP2 SWAP1 POP SWAP2 SWAP1 POP JUMP JUMPDEST PUSH2 0x296 DUP2 PUSH2 0x284 JUMP JUMPDEST DUP2 EQ PUSH2 0x2A0 JUMPI PUSH0 DUP1 REVERT JUMPDEST POP JUMP JUMPDEST PUSH0 DUP2 MLOAD SWAP1 POP PUSH2 0x2B1 DUP2 PUSH2 0x28D JUMP JUMPDEST SWAP3 SWAP2 POP POP JUMP JUMPDEST PUSH0 PUSH20 0xFFFFFFFFFFFFFFFFFFFFFFFFFFFFFFFFFFFFFFFF DUP3 AND SWAP1 POP SWAP2 SWAP1 POP JUMP JUMPDEST PUSH0 PUSH2 0x2E0 DUP3 PUSH2 0x2B7 JUMP JUMPDEST SWAP1 POP SWAP2 SWAP1 POP JUMP JUMPDEST PUSH2 0x2F0 DUP2 PUSH2 0x2D6 JUMP JUMPDEST DUP2 EQ PUSH2 0x2FA JUMPI PUSH0 DUP1 REVERT JUMPDEST POP JUMP JUMPDEST PUSH0 DUP2 MLOAD SWAP1 POP PUSH2 0x30B DUP2 PUSH2 0x2E7 JUMP JUMPDEST SWAP3 SWAP2 POP POP JUMP JUMPDEST PUSH0 DUP1 PUSH1 0x40 DUP4 DUP6 SUB SLT ISZERO PUSH2 0x327 JUMPI PUSH2 0x326 PUSH2 0x280 JUMP JUMPDEST JUMPDEST PUSH0 PUSH2 0x334 DUP6 DUP3 DUP7 ADD PUSH2 0x2A3 JUMP JUMPDEST SWAP3 POP POP PUSH1 0x20 PUSH2 0x345 DUP6 DUP3 DUP7 ADD PUSH2 0x2FD JUMP JUMPDEST SWAP2 POP POP SWAP3 POP SWAP3 SWAP1 POP JUMP JUMPDEST PUSH2 0x358 DUP2 PUSH2 0x2D6 JUMP JUMPDEST DUP3 MSTORE POP POP JUMP JUMPDEST PUSH0 PUSH1 0x20 DUP3 ADD SWAP1 POP PUSH2 0x371 PUSH0 DUP4 ADD DUP5 PUSH2 0x34F JUMP JUMPDEST SWAP3 SWAP2 POP POP JUMP JUMPDEST PUSH0 DUP3 DUP3 MSTORE PUSH1 0x20 DUP3 ADD SWAP1 POP SWAP3 SWAP2 POP POP JUMP JUMPDEST PUSH32 0x466565206D757374206E6F742065786365656420313025000000000000000000 PUSH0 DUP3 ADD MSTORE POP JUMP JUMPDEST PUSH0 PUSH2 0x3BB PUSH1 0x17 DUP4 PUSH2 0x377 JUMP JUMPDEST SWAP2 POP PUSH2 0x3C6 DUP3 PUSH2 0x387 JUMP JUMPDEST PUSH1 0x20 DUP3 ADD SWAP1 POP SWAP2 SWAP1 POP JUMP JUMPDEST PUSH0 PUSH1 0x20 DUP3 ADD SWAP1 POP DUP2 DUP2 SUB PUSH0 DUP4 ADD MSTORE PUSH2 0x3E8 DUP2 PUSH2 0x3AF JUMP JUMPDEST SWAP1 POP SWAP2 SWAP1 POP JUMP JUMPDEST PUSH32 0x496E76616C69642066656520726563697069656E742061646472657373000000 PUSH0 DUP3 ADD MSTORE POP JUMP JUMPDEST PUSH0 PUSH2 0x423 PUSH1 0x1D DUP4 PUSH2 0x377 JUMP JUMPDEST SWAP2 POP PUSH2 0x42E DUP3 PUSH2 0x3EF JUMP JUMPDEST PUSH1 0x20 DUP3 ADD SWAP1 POP SWAP2 SWAP1 POP JUMP JUMPDEST PUSH0 PUSH1 0x20 DUP3 ADD SWAP1 POP DUP2 DUP2 SUB PUSH0 DUP4 ADD MSTORE PUSH2 0x450 DUP2 PUSH2 0x417 JUMP JUMPDEST SWAP1 POP SWAP2 SWAP1 POP JUMP JUMPDEST PUSH2 0x1002 DUP1 PUSH2 0x464 PUSH0 CODECOPY PUSH0 RETURN INVALID PUSH1 0x80 PUSH1 0x40 MSTORE CALLVALUE DUP1 ISZERO PUSH2 0xF JUMPI PUSH0 DUP1 REVERT JUMPDEST POP PUSH1 0x4 CALLDATASIZE LT PUSH2 0x86 JUMPI PUSH0 CALLDATALOAD PUSH1 0xE0 SHR DUP1 PUSH4 0xC415B95C GT PUSH2 0x59 JUMPI DUP1 PUSH4 0xC415B95C EQ PUSH2 0x100 JUMPI DUP1 PUSH4 0xC661AEA6 EQ PUSH2 0x11E JUMPI DUP1 PUSH4 0xDE74E57B EQ PUSH2 0x13A JUMPI DUP1 PUSH4 0xF2FDE38B EQ PUSH2 0x16F JUMPI PUSH2 0x86 JUMP JUMPDEST DUP1 PUSH4 0x715018A6 EQ PUSH2 0x8A JUMPI DUP1 PUSH4 0x7FD6F15C EQ PUSH2 0x94 JUMPI DUP1 PUSH4 0x8DA5CB5B EQ PUSH2 0xB2 JUMPI DUP1 PUSH4 0xADE9FBC6 EQ PUSH2 0xD0 JUMPI JUMPDEST PUSH0 DUP1 REVERT JUMPDEST PUSH2 0x92 PUSH2 0x18B JUMP JUMPDEST STOP JUMPDEST PUSH2 0x9C PUSH2 0x19E JUMP JUMPDEST PUSH1 0x40 MLOAD PUSH2 0xA9 SWAP2 SWAP1 PUSH2 0x788 JUMP JUMPDEST PUSH1 0x40 MLOAD DUP1 SWAP2 SUB SWAP1 RETURN JUMPDEST PUSH2 0xBA PUSH2 0x1A4 JUMP JUMPDEST PUSH1 0x40 MLOAD PUSH2 0xC7 SWAP2 SWAP1 PUSH2 0x7E0 JUMP JUMPDEST PUSH1 0x40 MLOAD DUP1 SWAP2 SUB SWAP1 RETURN JUMPDEST PUSH2 0xEA PUSH1 0x4 DUP1 CALLDATASIZE SUB DUP2 ADD SWAP1 PUSH2 0xE5 SWAP2 SWAP1 PUSH2 0x83D JUMP JUMPDEST PUSH2 0x1CB JUMP JUMPDEST PUSH1 0x40 MLOAD PUSH2 0xF7 SWAP2 SWAP1 PUSH2 0x788 JUMP JUMPDEST PUSH1 0x40 MLOAD DUP1 SWAP2 SUB SWAP1 RETURN JUMPDEST PUSH2 0x108 PUSH2 0x1E0 JUMP JUMPDEST PUSH1 0x40 MLOAD PUSH2 0x115 SWAP2 SWAP1 PUSH2 0x7E0 JUMP JUMPDEST PUSH1 0x40 MLOAD DUP1 SWAP2 SUB SWAP1 RETURN JUMPDEST PUSH2 0x138 PUSH1 0x4 DUP1 CALLDATASIZE SUB DUP2 ADD SWAP1 PUSH2 0x133 SWAP2 SWAP1 PUSH2 0x8BC JUMP JUMPDEST PUSH2 0x205 JUMP JUMPDEST STOP JUMPDEST PUSH2 0x154 PUSH1 0x4 DUP1 CALLDATASIZE SUB DUP2 ADD SWAP1 PUSH2 0x14F SWAP2 SWAP1 PUSH2 0x90C JUMP JUMPDEST PUSH2 0x40B JUMP JUMPDEST PUSH1 0x40 MLOAD PUSH2 0x166 SWAP7 SWAP6 SWAP5 SWAP4 SWAP3 SWAP2 SWAP1 PUSH2 0x9C1 JUMP JUMPDEST PUSH1 0x40 MLOAD DUP1 SWAP2 SUB SWAP1 RETURN JUMPDEST PUSH2 0x189 PUSH1 0x4 DUP1 CALLDATASIZE SUB DUP2 ADD SWAP1 PUSH2 0x184 SWAP2 SWAP1 PUSH2 0xA27 JUMP JUMPDEST PUSH2 0x513 JUMP JUMPDEST STOP JUMPDEST PUSH2 0x193 PUSH2 0x597 JUMP JUMPDEST PUSH2 0x19C PUSH0 PUSH2 0x61E JUMP JUMPDEST JUMP JUMPDEST PUSH1 0x2 SLOAD DUP2 JUMP JUMPDEST PUSH0 DUP1 PUSH0 SWAP1 SLOAD SWAP1 PUSH2 0x100 EXP SWAP1 DIV PUSH20 0xFFFFFFFFFFFFFFFFFFFFFFFFFFFFFFFFFFFFFFFF AND SWAP1 POP SWAP1 JUMP JUMPDEST PUSH1 0x5 PUSH1 0x20 MSTORE DUP1 PUSH0 MSTORE PUSH1 0x40 PUSH0 KECCAK256 PUSH0 SWAP2 POP SWAP1 POP SLOAD DUP2 JUMP JUMPDEST PUSH1 0x3 PUSH0 SWAP1 SLOAD SWAP1 PUSH2 0x100 EXP SWAP1 DIV PUSH20 0xFFFFFFFFFFFFFFFFFFFFFFFFFFFFFFFFFFFFFFFF AND DUP2 JUMP JUMPDEST PUSH2 0x20D PUSH2 0x6DF JUMP JUMPDEST PUSH0 PUSH2 0x218 DUP5 CALLER PUSH2 0x72E JUMP JUMPDEST SWAP1 POP PUSH1 0x40 MLOAD DUP1 PUSH1 0xC0 ADD PUSH1 0x40 MSTORE DUP1 CALLER PUSH20 0xFFFFFFFFFFFFFFFFFFFFFFFFFFFFFFFFFFFFFFFF AND DUP2 MSTORE PUSH1 0x20 ADD DUP6 PUSH20 0xFFFFFFFFFFFFFFFFFFFFFFFFFFFFFFFFFFFFFFFF AND DUP2 MSTORE PUSH1 0x20 ADD DUP6 PUSH20 0xFFFFFFFFFFFFFFFFFFFFFFFFFFFFFFFFFFFFFFFF AND PUSH4 0x6FDDE03 PUSH1 0x40 MLOAD DUP2 PUSH4 0xFFFFFFFF AND PUSH1 0xE0 SHL DUP2 MSTORE PUSH1 0x4 ADD PUSH0 PUSH1 0x40 MLOAD DUP1 DUP4 SUB DUP2 DUP7 GAS STATICCALL ISZERO DUP1 ISZERO PUSH2 0x2A5 JUMPI RETURNDATASIZE PUSH0 DUP1 RETURNDATACOPY RETURNDATASIZE PUSH0 REVERT JUMPDEST POP POP POP POP PUSH1 0x40 MLOAD RETURNDATASIZE PUSH0 DUP3 RETURNDATACOPY RETURNDATASIZE PUSH1 0x1F NOT PUSH1 0x1F DUP3 ADD AND DUP3 ADD DUP1 PUSH1 0x40 MSTORE POP DUP2 ADD SWAP1 PUSH2 0x2CD SWAP2 SWAP1 PUSH2 0xB70 JUMP JUMPDEST DUP2 MSTORE PUSH1 0x20 ADD DUP5 DUP2 MSTORE PUSH1 0x20 ADD DUP4 DUP2 MSTORE PUSH1 0x20 ADD PUSH1 0x1 ISZERO ISZERO DUP2 MSTORE POP PUSH1 0x4 PUSH0 PUSH1 0x6 SLOAD DUP2 MSTORE PUSH1 0x20 ADD SWAP1 DUP2 MSTORE PUSH1 0x20 ADD PUSH0 KECCAK256 PUSH0 DUP3 ADD MLOAD DUP2 PUSH0 ADD PUSH0 PUSH2 0x100 EXP DUP2 SLOAD DUP2 PUSH20 0xFFFFFFFFFFFFFFFFFFFFFFFFFFFFFFFFFFFFFFFF MUL NOT AND SWAP1 DUP4 PUSH20 0xFFFFFFFFFFFFFFFFFFFFFFFFFFFFFFFFFFFFFFFF AND MUL OR SWAP1 SSTORE POP PUSH1 0x20 DUP3 ADD MLOAD DUP2 PUSH1 0x1 ADD PUSH0 PUSH2 0x100 EXP DUP2 SLOAD DUP2 PUSH20 0xFFFFFFFFFFFFFFFFFFFFFFFFFFFFFFFFFFFFFFFF MUL NOT AND SWAP1 DUP4 PUSH20 0xFFFFFFFFFFFFFFFFFFFFFFFFFFFFFFFFFFFFFFFF AND MUL OR SWAP1 SSTORE POP PUSH1 0x40 DUP3 ADD MLOAD DUP2 PUSH1 0x2 ADD SWAP1 DUP2 PUSH2 0x397 SWAP2 SWAP1 PUSH2 0xDB1 JUMP JUMPDEST POP PUSH1 0x60 DUP3 ADD MLOAD DUP2 PUSH1 0x3 ADD SSTORE PUSH1 0x80 DUP3 ADD MLOAD DUP2 PUSH1 0x4 ADD SSTORE PUSH1 0xA0 DUP3 ADD MLOAD DUP2 PUSH1 0x5 ADD PUSH0 PUSH2 0x100 EXP DUP2 SLOAD DUP2 PUSH1 0xFF MUL NOT AND SWAP1 DUP4 ISZERO ISZERO MUL OR SWAP1 SSTORE POP SWAP1 POP POP PUSH1 0x6 SLOAD PUSH1 0x5 PUSH0 DUP4 DUP2 MSTORE PUSH1 0x20 ADD SWAP1 DUP2 MSTORE PUSH1 0x20 ADD PUSH0 KECCAK256 DUP2 SWAP1 SSTORE POP PUSH1 0x6 PUSH0 DUP2 SLOAD DUP1 SWAP3 SWAP2 SWAP1 PUSH2 0x3F8 SWAP1 PUSH2 0xEAD JUMP JUMPDEST SWAP2 SWAP1 POP SSTORE POP POP PUSH2 0x406 PUSH2 0x760 JUMP JUMPDEST POP POP POP JUMP JUMPDEST PUSH1 0x4 PUSH1 0x20 MSTORE DUP1 PUSH0 MSTORE PUSH1 0x40 PUSH0 KECCAK256 PUSH0 SWAP2 POP SWAP1 POP DUP1 PUSH0 ADD PUSH0 SWAP1 SLOAD SWAP1 PUSH2 0x100 EXP SWAP1 DIV PUSH20 0xFFFFFFFFFFFFFFFFFFFFFFFFFFFFFFFFFFFFFFFF AND SWAP1 DUP1 PUSH1 0x1 ADD PUSH0 SWAP1 SLOAD SWAP1 PUSH2 0x100 EXP SWAP1 DIV PUSH20 0xFFFFFFFFFFFFFFFFFFFFFFFFFFFFFFFFFFFFFFFF AND SWAP1 DUP1 PUSH1 0x2 ADD DUP1 SLOAD PUSH2 0x474 SWAP1 PUSH2 0xBE4 JUMP JUMPDEST DUP1 PUSH1 0x1F ADD PUSH1 0x20 DUP1 SWAP2 DIV MUL PUSH1 0x20 ADD PUSH1 0x40 MLOAD SWAP1 DUP2 ADD PUSH1 0x40 MSTORE DUP1 SWAP3 SWAP2 SWAP1 DUP2 DUP2 MSTORE PUSH1 0x20 ADD DUP3 DUP1 SLOAD PUSH2 0x4A0 SWAP1 PUSH2 0xBE4 JUMP JUMPDEST DUP1 ISZERO PUSH2 0x4EB JUMPI DUP1 PUSH1 0x1F LT PUSH2 0x4C2 JUMPI PUSH2 0x100 DUP1 DUP4 SLOAD DIV MUL DUP4 MSTORE SWAP2 PUSH1 0x20 ADD SWAP2 PUSH2 0x4EB JUMP JUMPDEST DUP3 ADD SWAP2 SWAP1 PUSH0 MSTORE PUSH1 0x20 PUSH0 KECCAK256 SWAP1 JUMPDEST DUP2 SLOAD DUP2 MSTORE SWAP1 PUSH1 0x1 ADD SWAP1 PUSH1 0x20 ADD DUP1 DUP4 GT PUSH2 0x4CE JUMPI DUP3 SWAP1 SUB PUSH1 0x1F AND DUP3 ADD SWAP2 JUMPDEST POP POP POP POP POP SWAP1 DUP1 PUSH1 0x3 ADD SLOAD SWAP1 DUP1 PUSH1 0x4 ADD SLOAD SWAP1 DUP1 PUSH1 0x5 ADD PUSH0 SWAP1 SLOAD SWAP1 PUSH2 0x100 EXP SWAP1 DIV PUSH1 0xFF AND SWAP1 POP DUP7 JUMP JUMPDEST PUSH2 0x51B PUSH2 0x597 JUMP JUMPDEST PUSH0 PUSH20 0xFFFFFFFFFFFFFFFFFFFFFFFFFFFFFFFFFFFFFFFF AND DUP2 PUSH20 0xFFFFFFFFFFFFFFFFFFFFFFFFFFFFFFFFFFFFFFFF AND SUB PUSH2 0x58B JUMPI PUSH0 PUSH1 0x40 MLOAD PUSH32 0x1E4FBDF700000000000000000000000000000000000000000000000000000000 DUP2 MSTORE PUSH1 0x4 ADD PUSH2 0x582 SWAP2 SWAP1 PUSH2 0x7E0 JUMP JUMPDEST PUSH1 0x40 MLOAD DUP1 SWAP2 SUB SWAP1 REVERT JUMPDEST PUSH2 0x594 DUP2 PUSH2 0x61E JUMP JUMPDEST POP JUMP JUMPDEST PUSH2 0x59F PUSH2 0x769 JUMP JUMPDEST PUSH20 0xFFFFFFFFFFFFFFFFFFFFFFFFFFFFFFFFFFFFFFFF AND PUSH2 0x5BD PUSH2 0x1A4 JUMP JUMPDEST PUSH20 0xFFFFFFFFFFFFFFFFFFFFFFFFFFFFFFFFFFFFFFFF AND EQ PUSH2 0x61C JUMPI PUSH2 0x5E0 PUSH2 0x769 JUMP JUMPDEST PUSH1 0x40 MLOAD PUSH32 0x118CDAA700000000000000000000000000000000000000000000000000000000 DUP2 MSTORE PUSH1 0x4 ADD PUSH2 0x613 SWAP2 SWAP1 PUSH2 0x7E0 JUMP JUMPDEST PUSH1 0x40 MLOAD DUP1 SWAP2 SUB SWAP1 REVERT JUMPDEST JUMP JUMPDEST PUSH0 DUP1 PUSH0 SWAP1 SLOAD SWAP1 PUSH2 0x100 EXP SWAP1 DIV PUSH20 0xFFFFFFFFFFFFFFFFFFFFFFFFFFFFFFFFFFFFFFFF AND SWAP1 POP DUP2 PUSH0 DUP1 PUSH2 0x100 EXP DUP2 SLOAD DUP2 PUSH20 0xFFFFFFFFFFFFFFFFFFFFFFFFFFFFFFFFFFFFFFFF MUL NOT AND SWAP1 DUP4 PUSH20 0xFFFFFFFFFFFFFFFFFFFFFFFFFFFFFFFFFFFFFFFF AND MUL OR SWAP1 SSTORE POP DUP2 PUSH20 0xFFFFFFFFFFFFFFFFFFFFFFFFFFFFFFFFFFFFFFFF AND DUP2 PUSH20 0xFFFFFFFFFFFFFFFFFFFFFFFFFFFFFFFFFFFFFFFF AND PUSH32 0x8BE0079C531659141344CD1FD0A4F28419497F9722A3DAAFE3B4186F6B6457E0 PUSH1 0x40 MLOAD PUSH1 0x40 MLOAD DUP1 SWAP2 SUB SWAP1 LOG3 POP POP JUMP JUMPDEST PUSH1 0x2 PUSH1 0x1 SLOAD SUB PUSH2 0x724 JUMPI PUSH1 0x40 MLOAD PUSH32 0x8C379A000000000000000000000000000000000000000000000000000000000 DUP2 MSTORE PUSH1 0x4 ADD PUSH2 0x71B SWAP1 PUSH2 0xF3E JUMP JUMPDEST PUSH1 0x40 MLOAD DUP1 SWAP2 SUB SWAP1 REVERT JUMPDEST PUSH1 0x2 PUSH1 0x1 DUP2 SWAP1 SSTORE POP JUMP JUMPDEST PUSH0 DUP3 DUP3 PUSH1 0x40 MLOAD PUSH1 0x20 ADD PUSH2 0x742 SWAP3 SWAP2 SWAP1 PUSH2 0xFA1 JUMP JUMPDEST PUSH1 0x40 MLOAD PUSH1 0x20 DUP2 DUP4 SUB SUB DUP2 MSTORE SWAP1 PUSH1 0x40 MSTORE DUP1 MLOAD SWAP1 PUSH1 0x20 ADD KECCAK256 SWAP1 POP SWAP3 SWAP2 POP POP JUMP JUMPDEST PUSH1 0x1 DUP1 DUP2 SWAP1 SSTORE POP JUMP JUMPDEST PUSH0 CALLER SWAP1 POP SWAP1 JUMP JUMPDEST PUSH0 DUP2 SWAP1 POP SWAP2 SWAP1 POP JUMP JUMPDEST PUSH2 0x782 DUP2 PUSH2 0x770 JUMP JUMPDEST DUP3 MSTORE POP POP JUMP JUMPDEST PUSH0 PUSH1 0x20 DUP3 ADD SWAP1 POP PUSH2 0x79B PUSH0 DUP4 ADD DUP5 PUSH2 0x779 JUMP JUMPDEST SWAP3 SWAP2 POP POP JUMP JUMPDEST PUSH0 PUSH20 0xFFFFFFFFFFFFFFFFFFFFFFFFFFFFFFFFFFFFFFFF DUP3 AND SWAP1 POP SWAP2 SWAP1 POP JUMP JUMPDEST PUSH0 PUSH2 0x7CA DUP3 PUSH2 0x7A1 JUMP JUMPDEST SWAP1 POP SWAP2 SWAP1 POP JUMP JUMPDEST PUSH2 0x7DA DUP2 PUSH2 0x7C0 JUMP JUMPDEST DUP3 MSTORE POP POP JUMP JUMPDEST PUSH0 PUSH1 0x20 DUP3 ADD SWAP1 POP PUSH2 0x7F3 PUSH0 DUP4 ADD DUP5 PUSH2 0x7D1 JUMP JUMPDEST SWAP3 SWAP2 POP POP JUMP JUMPDEST PUSH0 PUSH1 0x40 MLOAD SWAP1 POP SWAP1 JUMP JUMPDEST PUSH0 DUP1 REVERT JUMPDEST PUSH0 DUP1 REVERT JUMPDEST PUSH0 DUP2 SWAP1 POP SWAP2 SWAP1 POP JUMP JUMPDEST PUSH2 0x81C DUP2 PUSH2 0x80A JUMP JUMPDEST DUP2 EQ PUSH2 0x826 JUMPI PUSH0 DUP1 REVERT JUMPDEST POP JUMP JUMPDEST PUSH0 DUP2 CALLDATALOAD SWAP1 POP PUSH2 0x837 DUP2 PUSH2 0x813 JUMP JUMPDEST SWAP3 SWAP2 POP POP JUMP JUMPDEST PUSH0 PUSH1 0x20 DUP3 DUP5 SUB SLT ISZERO PUSH2 0x852 JUMPI PUSH2 0x851 PUSH2 0x802 JUMP JUMPDEST JUMPDEST PUSH0 PUSH2 0x85F DUP5 DUP3 DUP6 ADD PUSH2 0x829 JUMP JUMPDEST SWAP2 POP POP SWAP3 SWAP2 POP POP JUMP JUMPDEST PUSH2 0x871 DUP2 PUSH2 0x7C0 JUMP JUMPDEST DUP2 EQ PUSH2 0x87B JUMPI PUSH0 DUP1 REVERT JUMPDEST POP JUMP JUMPDEST PUSH0 DUP2 CALLDATALOAD SWAP1 POP PUSH2 0x88C DUP2 PUSH2 0x868 JUMP JUMPDEST SWAP3 SWAP2 POP POP JUMP JUMPDEST PUSH2 0x89B DUP2 PUSH2 0x770 JUMP JUMPDEST DUP2 EQ PUSH2 0x8A5 JUMPI PUSH0 DUP1 REVERT JUMPDEST POP JUMP JUMPDEST PUSH0 DUP2 CALLDATALOAD SWAP1 POP PUSH2 0x8B6 DUP2 PUSH2 0x892 JUMP JUMPDEST SWAP3 SWAP2 POP POP JUMP JUMPDEST PUSH0 DUP1 PUSH0 PUSH1 0x60 DUP5 DUP7 SUB SLT ISZERO PUSH2 0x8D3 JUMPI PUSH2 0x8D2 PUSH2 0x802 JUMP JUMPDEST JUMPDEST PUSH0 PUSH2 0x8E0 DUP7 DUP3 DUP8 ADD PUSH2 0x87E JUMP JUMPDEST SWAP4 POP POP PUSH1 0x20 PUSH2 0x8F1 DUP7 DUP3 DUP8 ADD PUSH2 0x8A8 JUMP JUMPDEST SWAP3 POP POP PUSH1 0x40 PUSH2 0x902 DUP7 DUP3 DUP8 ADD PUSH2 0x8A8 JUMP JUMPDEST SWAP2 POP POP SWAP3 POP SWAP3 POP SWAP3 JUMP JUMPDEST PUSH0 PUSH1 0x20 DUP3 DUP5 SUB SLT ISZERO PUSH2 0x921 JUMPI PUSH2 0x920 PUSH2 0x802 JUMP JUMPDEST JUMPDEST PUSH0 PUSH2 0x92E DUP5 DUP3 DUP6 ADD PUSH2 0x8A8 JUMP JUMPDEST SWAP2 POP POP SWAP3 SWAP2 POP POP JUMP JUMPDEST PUSH0 DUP2 MLOAD SWAP1 POP SWAP2 SWAP1 POP JUMP JUMPDEST PUSH0 DUP3 DUP3 MSTORE PUSH1 0x20 DUP3 ADD SWAP1 POP SWAP3 SWAP2 POP POP JUMP JUMPDEST DUP3 DUP2 DUP4 MCOPY PUSH0 DUP4 DUP4 ADD MSTORE POP POP POP JUMP JUMPDEST PUSH0 PUSH1 0x1F NOT PUSH1 0x1F DUP4 ADD AND SWAP1 POP SWAP2 SWAP1 POP JUMP JUMPDEST PUSH0 PUSH2 0x979 DUP3 PUSH2 0x937 JUMP JUMPDEST PUSH2 0x983 DUP2 DUP6 PUSH2 0x941 JUMP JUMPDEST SWAP4 POP PUSH2 0x993 DUP2 DUP6 PUSH1 0x20 DUP7 ADD PUSH2 0x951 JUMP JUMPDEST PUSH2 0x99C DUP2 PUSH2 0x95F JUMP JUMPDEST DUP5 ADD SWAP2 POP POP SWAP3 SWAP2 POP POP JUMP JUMPDEST PUSH0 DUP2 ISZERO ISZERO SWAP1 POP SWAP2 SWAP1 POP JUMP JUMPDEST PUSH2 0x9BB DUP2 PUSH2 0x9A7 JUMP JUMPDEST DUP3 MSTORE POP POP JUMP JUMPDEST PUSH0 PUSH1 0xC0 DUP3 ADD SWAP1 POP PUSH2 0x9D4 PUSH0 DUP4 ADD DUP10 PUSH2 0x7D1 JUMP JUMPDEST PUSH2 0x9E1 PUSH1 0x20 DUP4 ADD DUP9 PUSH2 0x7D1 JUMP JUMPDEST DUP2 DUP2 SUB PUSH1 0x40 DUP4 ADD MSTORE PUSH2 0x9F3 DUP2 DUP8 PUSH2 0x96F JUMP JUMPDEST SWAP1 POP PUSH2 0xA02 PUSH1 0x60 DUP4 ADD DUP7 PUSH2 0x779 JUMP JUMPDEST PUSH2 0xA0F PUSH1 0x80 DUP4 ADD DUP6 PUSH2 0x779 JUMP JUMPDEST PUSH2 0xA1C PUSH1 0xA0 DUP4 ADD DUP5 PUSH2 0x9B2 JUMP JUMPDEST SWAP8 SWAP7 POP POP POP POP POP POP POP JUMP JUMPDEST PUSH0 PUSH1 0x20 DUP3 DUP5 SUB SLT ISZERO PUSH2 0xA3C JUMPI PUSH2 0xA3B PUSH2 0x802 JUMP JUMPDEST JUMPDEST PUSH0 PUSH2 0xA49 DUP5 DUP3 DUP6 ADD PUSH2 0x87E JUMP JUMPDEST SWAP2 POP POP SWAP3 SWAP2 POP POP JUMP JUMPDEST PUSH0 DUP1 REVERT JUMPDEST PUSH0 DUP1 REVERT JUMPDEST PUSH32 0x4E487B7100000000000000000000000000000000000000000000000000000000 PUSH0 MSTORE PUSH1 0x41 PUSH1 0x4 MSTORE PUSH1 0x24 PUSH0 REVERT JUMPDEST PUSH2 0xA90 DUP3 PUSH2 0x95F JUMP JUMPDEST DUP2 ADD DUP2 DUP2 LT PUSH8 0xFFFFFFFFFFFFFFFF DUP3 GT OR ISZERO PUSH2 0xAAF JUMPI PUSH2 0xAAE PUSH2 0xA5A JUMP JUMPDEST JUMPDEST DUP1 PUSH1 0x40 MSTORE POP POP POP JUMP JUMPDEST PUSH0 PUSH2 0xAC1 PUSH2 0x7F9 JUMP JUMPDEST SWAP1 POP PUSH2 0xACD DUP3 DUP3 PUSH2 0xA87 JUMP JUMPDEST SWAP2 SWAP1 POP JUMP JUMPDEST PUSH0 PUSH8 0xFFFFFFFFFFFFFFFF DUP3 GT ISZERO PUSH2 0xAEC JUMPI PUSH2 0xAEB PUSH2 0xA5A JUMP JUMPDEST JUMPDEST PUSH2 0xAF5 DUP3 PUSH2 0x95F JUMP JUMPDEST SWAP1 POP PUSH1 0x20 DUP2 ADD SWAP1 POP SWAP2 SWAP1 POP JUMP JUMPDEST PUSH0 PUSH2 0xB14 PUSH2 0xB0F DUP5 PUSH2 0xAD2 JUMP JUMPDEST PUSH2 0xAB8 JUMP JUMPDEST SWAP1 POP DUP3 DUP2 MSTORE PUSH1 0x20 DUP2 ADD DUP5 DUP5 DUP5 ADD GT ISZERO PUSH2 0xB30 JUMPI PUSH2 0xB2F PUSH2 0xA56 JUMP JUMPDEST JUMPDEST PUSH2 0xB3B DUP5 DUP3 DUP6 PUSH2 0x951 JUMP JUMPDEST POP SWAP4 SWAP3 POP POP POP JUMP JUMPDEST PUSH0 DUP3 PUSH1 0x1F DUP4 ADD SLT PUSH2 0xB57 JUMPI PUSH2 0xB56 PUSH2 0xA52 JUMP JUMPDEST JUMPDEST DUP2 MLOAD PUSH2 0xB67 DUP5 DUP3 PUSH1 0x20 DUP7 ADD PUSH2 0xB02 JUMP JUMPDEST SWAP2 POP POP SWAP3 SWAP2 POP POP JUMP JUMPDEST PUSH0 PUSH1 0x20 DUP3 DUP5 SUB SLT ISZERO PUSH2 0xB85 JUMPI PUSH2 0xB84 PUSH2 0x802 JUMP JUMPDEST JUMPDEST PUSH0 DUP3 ADD MLOAD PUSH8 0xFFFFFFFFFFFFFFFF DUP2 GT ISZERO PUSH2 0xBA2 JUMPI PUSH2 0xBA1 PUSH2 0x806 JUMP JUMPDEST JUMPDEST PUSH2 0xBAE DUP5 DUP3 DUP6 ADD PUSH2 0xB43 JUMP JUMPDEST SWAP2 POP POP SWAP3 SWAP2 POP POP JUMP JUMPDEST PUSH32 0x4E487B7100000000000000000000000000000000000000000000000000000000 PUSH0 MSTORE PUSH1 0x22 PUSH1 0x4 MSTORE PUSH1 0x24 PUSH0 REVERT JUMPDEST PUSH0 PUSH1 0x2 DUP3 DIV SWAP1 POP PUSH1 0x1 DUP3 AND DUP1 PUSH2 0xBFB JUMPI PUSH1 0x7F DUP3 AND SWAP2 POP JUMPDEST PUSH1 0x20 DUP3 LT DUP2 SUB PUSH2 0xC0E JUMPI PUSH2 0xC0D PUSH2 0xBB7 JUMP JUMPDEST JUMPDEST POP SWAP2 SWAP1 POP JUMP JUMPDEST PUSH0 DUP2 SWAP1 POP DUP2 PUSH0 MSTORE PUSH1 0x20 PUSH0 KECCAK256 SWAP1 POP SWAP2 SWAP1 POP JUMP JUMPDEST PUSH0 PUSH1 0x20 PUSH1 0x1F DUP4 ADD DIV SWAP1 POP SWAP2 SWAP1 POP JUMP JUMPDEST PUSH0 DUP3 DUP3 SHL SWAP1 POP SWAP3 SWAP2 POP POP JUMP JUMPDEST PUSH0 PUSH1 0x8 DUP4 MUL PUSH2 0xC70 PUSH32 0xFFFFFFFFFFFFFFFFFFFFFFFFFFFFFFFFFFFFFFFFFFFFFFFFFFFFFFFFFFFFFFFF DUP3 PUSH2 0xC35 JUMP JUMPDEST PUSH2 0xC7A DUP7 DUP4 PUSH2 0xC35 JUMP JUMPDEST SWAP6 POP DUP1 NOT DUP5 AND SWAP4 POP DUP1 DUP7 AND DUP5 OR SWAP3 POP POP POP SWAP4 SWAP3 POP POP POP JUMP JUMPDEST PUSH0 DUP2 SWAP1 POP SWAP2 SWAP1 POP JUMP JUMPDEST PUSH0 PUSH2 0xCB5 PUSH2 0xCB0 PUSH2 0xCAB DUP5 PUSH2 0x770 JUMP JUMPDEST PUSH2 0xC92 JUMP JUMPDEST PUSH2 0x770 JUMP JUMPDEST SWAP1 POP SWAP2 SWAP1 POP JUMP JUMPDEST PUSH0 DUP2 SWAP1 POP SWAP2 SWAP1 POP JUMP JUMPDEST PUSH2 0xCCE DUP4 PUSH2 0xC9B JUMP JUMPDEST PUSH2 0xCE2 PUSH2 0xCDA DUP3 PUSH2 0xCBC JUMP JUMPDEST DUP5 DUP5 SLOAD PUSH2 0xC41 JUMP JUMPDEST DUP3 SSTORE POP POP POP POP JUMP JUMPDEST PUSH0 SWAP1 JUMP JUMPDEST PUSH2 0xCF6 PUSH2 0xCEA JUMP JUMPDEST PUSH2 0xD01 DUP2 DUP5 DUP5 PUSH2 0xCC5 JUMP JUMPDEST POP POP POP JUMP JUMPDEST JUMPDEST DUP2 DUP2 LT ISZERO PUSH2 0xD24 JUMPI PUSH2 0xD19 PUSH0 DUP3 PUSH2 0xCEE JUMP JUMPDEST PUSH1 0x1 DUP2 ADD SWAP1 POP PUSH2 0xD07 JUMP JUMPDEST POP POP JUMP JUMPDEST PUSH1 0x1F DUP3 GT ISZERO PUSH2 0xD69 JUMPI PUSH2 0xD3A DUP2 PUSH2 0xC14 JUMP JUMPDEST PUSH2 0xD43 DUP5 PUSH2 0xC26 JUMP JUMPDEST DUP2 ADD PUSH1 0x20 DUP6 LT ISZERO PUSH2 0xD52 JUMPI DUP2 SWAP1 POP JUMPDEST PUSH2 0xD66 PUSH2 0xD5E DUP6 PUSH2 0xC26 JUMP JUMPDEST DUP4 ADD DUP3 PUSH2 0xD06 JUMP JUMPDEST POP POP JUMPDEST POP POP POP JUMP JUMPDEST PUSH0 DUP3 DUP3 SHR SWAP1 POP SWAP3 SWAP2 POP POP JUMP JUMPDEST PUSH0 PUSH2 0xD89 PUSH0 NOT DUP5 PUSH1 0x8 MUL PUSH2 0xD6E JUMP JUMPDEST NOT DUP1 DUP4 AND SWAP2 POP POP SWAP3 SWAP2 POP POP JUMP JUMPDEST PUSH0 PUSH2 0xDA1 DUP4 DUP4 PUSH2 0xD7A JUMP JUMPDEST SWAP2 POP DUP3 PUSH1 0x2 MUL DUP3 OR SWAP1 POP SWAP3 SWAP2 POP POP JUMP JUMPDEST PUSH2 0xDBA DUP3 PUSH2 0x937 JUMP JUMPDEST PUSH8 0xFFFFFFFFFFFFFFFF DUP2 GT ISZERO PUSH2 0xDD3 JUMPI PUSH2 0xDD2 PUSH2 0xA5A JUMP JUMPDEST JUMPDEST PUSH2 0xDDD DUP3 SLOAD PUSH2 0xBE4 JUMP JUMPDEST PUSH2 0xDE8 DUP3 DUP3 DUP6 PUSH2 0xD28 JUMP JUMPDEST PUSH0 PUSH1 0x20 SWAP1 POP PUSH1 0x1F DUP4 GT PUSH1 0x1 DUP2 EQ PUSH2 0xE19 JUMPI PUSH0 DUP5 ISZERO PUSH2 0xE07 JUMPI DUP3 DUP8 ADD MLOAD SWAP1 POP JUMPDEST PUSH2 0xE11 DUP6 DUP3 PUSH2 0xD96 JUMP JUMPDEST DUP7 SSTORE POP PUSH2 0xE78 JUMP JUMPDEST PUSH1 0x1F NOT DUP5 AND PUSH2 0xE27 DUP7 PUSH2 0xC14 JUMP JUMPDEST PUSH0 JUMPDEST DUP3 DUP2 LT ISZERO PUSH2 0xE4E JUMPI DUP5 DUP10 ADD MLOAD DUP3 SSTORE PUSH1 0x1 DUP3 ADD SWAP2 POP PUSH1 0x20 DUP6 ADD SWAP5 POP PUSH1 0x20 DUP2 ADD SWAP1 POP PUSH2 0xE29 JUMP JUMPDEST DUP7 DUP4 LT ISZERO PUSH2 0xE6B JUMPI DUP5 DUP10 ADD MLOAD PUSH2 0xE67 PUSH1 0x1F DUP10 AND DUP3 PUSH2 0xD7A JUMP JUMPDEST DUP4 SSTORE POP JUMPDEST PUSH1 0x1 PUSH1 0x2 DUP9 MUL ADD DUP9 SSTORE POP POP POP JUMPDEST POP POP POP POP POP POP JUMP JUMPDEST PUSH32 0x4E487B7100000000000000000000000000000000000000000000000000000000 PUSH0 MSTORE PUSH1 0x11 PUSH1 0x4 MSTORE PUSH1 0x24 PUSH0 REVERT JUMPDEST PUSH0 PUSH2 0xEB7 DUP3 PUSH2 0x770 JUMP JUMPDEST SWAP2 POP PUSH32 0xFFFFFFFFFFFFFFFFFFFFFFFFFFFFFFFFFFFFFFFFFFFFFFFFFFFFFFFFFFFFFFFF DUP3 SUB PUSH2 0xEE9 JUMPI PUSH2 0xEE8 PUSH2 0xE80 JUMP JUMPDEST JUMPDEST PUSH1 0x1 DUP3 ADD SWAP1 POP SWAP2 SWAP1 POP JUMP JUMPDEST PUSH32 0x5265656E7472616E637947756172643A207265656E7472616E742063616C6C00 PUSH0 DUP3 ADD MSTORE POP JUMP JUMPDEST PUSH0 PUSH2 0xF28 PUSH1 0x1F DUP4 PUSH2 0x941 JUMP JUMPDEST SWAP2 POP PUSH2 0xF33 DUP3 PUSH2 0xEF4 JUMP JUMPDEST PUSH1 0x20 DUP3 ADD SWAP1 POP SWAP2 SWAP1 POP JUMP JUMPDEST PUSH0 PUSH1 0x20 DUP3 ADD SWAP1 POP DUP2 DUP2 SUB PUSH0 DUP4 ADD MSTORE PUSH2 0xF55 DUP2 PUSH2 0xF1C JUMP JUMPDEST SWAP1 POP SWAP2 SWAP1 POP JUMP JUMPDEST PUSH0 DUP2 PUSH1 0x60 SHL SWAP1 POP SWAP2 SWAP1 POP JUMP JUMPDEST PUSH0 PUSH2 0xF72 DUP3 PUSH2 0xF5C JUMP JUMPDEST SWAP1 POP SWAP2 SWAP1 POP JUMP JUMPDEST PUSH0 PUSH2 0xF83 DUP3 PUSH2 0xF68 JUMP JUMPDEST SWAP1 POP SWAP2 SWAP1 POP JUMP JUMPDEST PUSH2 0xF9B PUSH2 0xF96 DUP3 PUSH2 0x7C0 JUMP JUMPDEST PUSH2 0xF79 JUMP JUMPDEST DUP3 MSTORE POP POP JUMP JUMPDEST PUSH0 PUSH2 0xFAC DUP3 DUP6 PUSH2 0xF8A JUMP JUMPDEST PUSH1 0x14 DUP3 ADD SWAP2 POP PUSH2 0xFBC DUP3 DUP5 PUSH2 0xF8A JUMP JUMPDEST PUSH1 0x14 DUP3 ADD SWAP2 POP DUP2 SWAP1 POP SWAP4 SWAP3 POP POP POP JUMP INVALID LOG2 PUSH5 0x6970667358 0x22 SLT KECCAK256 PUSH1 0xB ADD CALLDATASIZE PUSH19 0x43A741BF4836EE5E06DEDD877CC5AF3F76911B DELEGATECALL DUP4 SWAP14 0xEA 0x2B SWAP16 0x4E PUSH20 0x64736F6C634300081A0033000000000000000000 "
				},
				"gasEstimates": {
					"creation": {
						"codeDepositCost": "819600",
						"executionCost": "infinite",
						"totalCost": "infinite"
					},
					"external": {
						"creatListing(address,uint256,uint256)": "infinite",
						"feeCollector()": "2508",
						"feePercent()": "2448",
						"listingKey(bytes32)": "2821",
						"listings(uint256)": "infinite",
						"owner()": "2560",
						"renounceOwnership()": "infinite",
						"transferOwnership(address)": "infinite"
					},
					"internal": {
						"_generatekeyId(address,address)": "infinite",
						"chekApproveAllowance(address,address)": "infinite"
					}
				},
				"methodIdentifiers": {
					"creatListing(address,uint256,uint256)": "c661aea6",
					"feeCollector()": "c415b95c",
					"feePercent()": "7fd6f15c",
					"listingKey(bytes32)": "ade9fbc6",
					"listings(uint256)": "de74e57b",
					"owner()": "8da5cb5b",
					"renounceOwnership()": "715018a6",
					"transferOwnership(address)": "f2fde38b"
				}
			},
			"storageLayout": {
				"storage": [
					{
						"astId": 8,
						"contract": "MarketPlace/sells.sol:TokenMarketPlace",
						"label": "_owner",
						"offset": 0,
						"slot": "0",
						"type": "t_address"
					},
					{
						"astId": 158,
						"contract": "MarketPlace/sells.sol:TokenMarketPlace",
						"label": "_status",
						"offset": 0,
						"slot": "1",
						"type": "t_uint256"
					},
					{
						"astId": 358,
						"contract": "MarketPlace/sells.sol:TokenMarketPlace",
						"label": "feePercent",
						"offset": 0,
						"slot": "2",
						"type": "t_uint256"
					},
					{
						"astId": 360,
						"contract": "MarketPlace/sells.sol:TokenMarketPlace",
						"label": "feeCollector",
						"offset": 0,
						"slot": "3",
						"type": "t_address"
					},
					{
						"astId": 378,
						"contract": "MarketPlace/sells.sol:TokenMarketPlace",
						"label": "listings",
						"offset": 0,
						"slot": "4",
						"type": "t_mapping(t_uint256,t_struct(Listing)373_storage)"
					},
					{
						"astId": 382,
						"contract": "MarketPlace/sells.sol:TokenMarketPlace",
						"label": "listingKey",
						"offset": 0,
						"slot": "5",
						"type": "t_mapping(t_bytes32,t_uint256)"
					},
					{
						"astId": 385,
						"contract": "MarketPlace/sells.sol:TokenMarketPlace",
						"label": "nextListingId",
						"offset": 0,
						"slot": "6",
						"type": "t_uint256"
					}
				],
				"types": {
					"t_address": {
						"encoding": "inplace",
						"label": "address",
						"numberOfBytes": "20"
					},
					"t_bool": {
						"encoding": "inplace",
						"label": "bool",
						"numberOfBytes": "1"
					},
					"t_bytes32": {
						"encoding": "inplace",
						"label": "bytes32",
						"numberOfBytes": "32"
					},
					"t_mapping(t_bytes32,t_uint256)": {
						"encoding": "mapping",
						"key": "t_bytes32",
						"label": "mapping(bytes32 => uint256)",
						"numberOfBytes": "32",
						"value": "t_uint256"
					},
					"t_mapping(t_uint256,t_struct(Listing)373_storage)": {
						"encoding": "mapping",
						"key": "t_uint256",
						"label": "mapping(uint256 => struct TokenMarketPlace.Listing)",
						"numberOfBytes": "32",
						"value": "t_struct(Listing)373_storage"
					},
					"t_string_storage": {
						"encoding": "bytes",
						"label": "string",
						"numberOfBytes": "32"
					},
					"t_struct(Listing)373_storage": {
						"encoding": "inplace",
						"label": "struct TokenMarketPlace.Listing",
						"members": [
							{
								"astId": 362,
								"contract": "MarketPlace/sells.sol:TokenMarketPlace",
								"label": "seller",
								"offset": 0,
								"slot": "0",
								"type": "t_address"
							},
							{
								"astId": 364,
								"contract": "MarketPlace/sells.sol:TokenMarketPlace",
								"label": "tokenAddress",
								"offset": 0,
								"slot": "1",
								"type": "t_address"
							},
							{
								"astId": 366,
								"contract": "MarketPlace/sells.sol:TokenMarketPlace",
								"label": "tokenName",
								"offset": 0,
								"slot": "2",
								"type": "t_string_storage"
							},
							{
								"astId": 368,
								"contract": "MarketPlace/sells.sol:TokenMarketPlace",
								"label": "amount",
								"offset": 0,
								"slot": "3",
								"type": "t_uint256"
							},
							{
								"astId": 370,
								"contract": "MarketPlace/sells.sol:TokenMarketPlace",
								"label": "pricePerToken",
								"offset": 0,
								"slot": "4",
								"type": "t_uint256"
							},
							{
								"astId": 372,
								"contract": "MarketPlace/sells.sol:TokenMarketPlace",
								"label": "active",
								"offset": 0,
								"slot": "5",
								"type": "t_bool"
							}
						],
						"numberOfBytes": "192"
					},
					"t_uint256": {
						"encoding": "inplace",
						"label": "uint256",
						"numberOfBytes": "32"
					}
				}
			},
			"userdoc": {
				"kind": "user",
				"methods": {},
				"version": 1
			}
		}
	}
}